{
  "address": "0xD9FcF60681aE65A56B0a4070ee224Ce4067D7D12",
  "abi": [
    {
      "inputs": [],
      "stateMutability": "nonpayable",
      "type": "constructor"
    },
    {
      "inputs": [],
      "name": "Contract__NotAdmin",
      "type": "error"
    },
    {
      "inputs": [],
      "name": "Contract__NotDoctor",
      "type": "error"
    },
    {
      "inputs": [],
      "name": "Contract__NotPatient",
      "type": "error"
    },
    {
      "inputs": [
        {
          "internalType": "address",
          "name": "_address",
          "type": "address"
        },
        {
          "internalType": "string",
          "name": "_hash",
          "type": "string"
        }
      ],
      "name": "addDoctor",
      "outputs": [],
      "stateMutability": "nonpayable",
      "type": "function"
    },
    {
      "inputs": [],
      "name": "addPatient",
      "outputs": [],
      "stateMutability": "nonpayable",
      "type": "function"
    },
    {
      "inputs": [],
      "name": "getAdmin",
      "outputs": [
        {
          "internalType": "address",
          "name": "",
          "type": "address"
        }
      ],
      "stateMutability": "view",
      "type": "function"
    },
    {
      "inputs": [],
      "name": "getAllDrs",
      "outputs": [
        {
          "internalType": "address[]",
          "name": "",
          "type": "address[]"
        }
      ],
      "stateMutability": "view",
      "type": "function"
    },
    {
      "inputs": [],
      "name": "getAllPats",
      "outputs": [
        {
          "internalType": "address[]",
          "name": "",
          "type": "address[]"
        }
      ],
      "stateMutability": "view",
      "type": "function"
    },
    {
      "inputs": [],
      "name": "getDocPats",
      "outputs": [
        {
          "internalType": "address[]",
          "name": "",
          "type": "address[]"
        }
      ],
      "stateMutability": "view",
      "type": "function"
    },
    {
      "inputs": [
        {
          "internalType": "address",
          "name": "_address",
          "type": "address"
        }
      ],
      "name": "getDrHash",
      "outputs": [
        {
          "internalType": "string",
          "name": "",
          "type": "string"
        }
      ],
      "stateMutability": "view",
      "type": "function"
    },
    {
      "inputs": [],
      "name": "getPatDocs",
      "outputs": [
        {
          "internalType": "address[]",
          "name": "",
          "type": "address[]"
        }
      ],
      "stateMutability": "view",
      "type": "function"
    },
    {
      "inputs": [
        {
          "internalType": "address",
          "name": "_address",
          "type": "address"
        }
      ],
      "name": "getPatHash",
      "outputs": [
        {
          "internalType": "string",
          "name": "",
          "type": "string"
        }
      ],
      "stateMutability": "view",
      "type": "function"
    },
    {
      "inputs": [
        {
          "internalType": "address",
          "name": "_address",
          "type": "address"
        }
      ],
      "name": "giveAccess",
      "outputs": [],
      "stateMutability": "nonpayable",
      "type": "function"
    },
    {
      "inputs": [
        {
          "internalType": "address",
          "name": "_address",
          "type": "address"
        }
      ],
      "name": "isAdmin",
      "outputs": [
        {
          "internalType": "bool",
          "name": "",
          "type": "bool"
        }
      ],
      "stateMutability": "view",
      "type": "function"
    },
    {
      "inputs": [
        {
          "internalType": "address",
          "name": "_address",
          "type": "address"
        }
      ],
      "name": "isDoctor",
      "outputs": [
        {
          "internalType": "bool",
          "name": "",
          "type": "bool"
        }
      ],
      "stateMutability": "view",
      "type": "function"
    },
    {
      "inputs": [
        {
          "internalType": "address",
          "name": "_address",
          "type": "address"
        }
      ],
      "name": "isPatient",
      "outputs": [
        {
          "internalType": "bool",
          "name": "",
          "type": "bool"
        }
      ],
      "stateMutability": "view",
      "type": "function"
    },
    {
      "inputs": [
        {
          "internalType": "address",
          "name": "_address",
          "type": "address"
        }
      ],
      "name": "revokeAccess",
      "outputs": [],
      "stateMutability": "nonpayable",
      "type": "function"
    },
    {
      "inputs": [
        {
          "internalType": "address",
          "name": "_address",
          "type": "address"
        },
        {
          "internalType": "string",
          "name": "_hash",
          "type": "string"
        }
      ],
      "name": "setDrHash",
      "outputs": [],
      "stateMutability": "nonpayable",
      "type": "function"
    },
    {
      "inputs": [
        {
          "internalType": "address",
          "name": "_address",
          "type": "address"
        },
        {
          "internalType": "string",
          "name": "_hash",
          "type": "string"
        }
      ],
      "name": "setPatHash",
      "outputs": [],
      "stateMutability": "nonpayable",
      "type": "function"
    }
  ],
  "transactionHash": "0x6aeff517451d6a1513fdd8a14351b97e21bd15996103dc09713c2738d0f9a9b0",
  "args": [],
  "numDeployments": 4,
  "solcInputHash": "a6d4455b967db908333fdece492c3849",
  "bytecode": "0x60806040523480156200001157600080fd5b5033600360006101000a81548173ffffffffffffffffffffffffffffffffffffffff021916908373ffffffffffffffffffffffffffffffffffffffff1602179055506200006e3360006200007460201b6200188a1790919060201c565b6200030c565b6200008682826200012760201b60201c565b15620000c9576040517f08c379a0000000000000000000000000000000000000000000000000000000008152600401620000c09062000252565b60405180910390fd5b60018260000160008373ffffffffffffffffffffffffffffffffffffffff1673ffffffffffffffffffffffffffffffffffffffff16815260200190815260200160002060006101000a81548160ff0219169083151502179055505050565b60008073ffffffffffffffffffffffffffffffffffffffff168273ffffffffffffffffffffffffffffffffffffffff16036200019a576040517f08c379a00000000000000000000000000000000000000000000000000000000081526004016200019190620002ea565b60405180910390fd5b8260000160008373ffffffffffffffffffffffffffffffffffffffff1673ffffffffffffffffffffffffffffffffffffffff16815260200190815260200160002060009054906101000a900460ff16905092915050565b600082825260208201905092915050565b7f526f6c65733a206163636f756e7420616c72656164792068617320726f6c6500600082015250565b60006200023a601f83620001f1565b9150620002478262000202565b602082019050919050565b600060208201905081810360008301526200026d816200022b565b9050919050565b7f526f6c65733a206163636f756e7420697320746865207a65726f20616464726560008201527f7373000000000000000000000000000000000000000000000000000000000000602082015250565b6000620002d2602283620001f1565b9150620002df8262000274565b604082019050919050565b600060208201905081810360008301526200030581620002c3565b9050919050565b6124bd806200031c6000396000f3fe608060405234801561001057600080fd5b50600436106101005760003560e01c80636e9960c311610097578063996440c611610066578063996440c61461029b578063a505612b146102cb578063cce9d43e146102d5578063cf12e8701461030557610100565b80636e9960c3146102155780637cf1e4451461023357806385e685311461024f5780638f9c79ed1461026b57610100565b806324d7806c116100d357806324d7806c1461017b5780634c6423e9146101ab5780635a8d091f146101db5780635ced594b146101f757610100565b80630d52fb4d146101055780630f0568a514610123578063178621a2146101415780631da3e2dc1461015d575b600080fd5b61010d610321565b60405161011a9190611b8e565b60405180910390f35b61012b610436565b6040516101389190611b8e565b60405180910390f35b61015b60048036038101906101569190611d36565b61054b565b005b61016561075c565b6040516101729190611b8e565b60405180910390f35b61019560048036038101906101909190611d92565b6107ea565b6040516101a29190611dda565b60405180910390f35b6101c560048036038101906101c09190611d92565b610807565b6040516101d29190611e74565b60405180910390f35b6101f560048036038101906101f09190611d36565b610a87565b005b6101ff610b22565b60405161020c9190611b8e565b60405180910390f35b61021d610bb0565b60405161022a9190611ea5565b60405180910390f35b61024d60048036038101906102489190611d36565b610bda565b005b61026960048036038101906102649190611d92565b610ca9565b005b61028560048036038101906102809190611d92565b611301565b6040516102929190611dda565b60405180910390f35b6102b560048036038101906102b09190611d92565b61131e565b6040516102c29190611dda565b60405180910390f35b6102d361133b565b005b6102ef60048036038101906102ea9190611d92565b6113b4565b6040516102fc9190611e74565b60405180910390f35b61031f600480360381019061031a9190611d92565b6114c4565b005b606061033733600161193290919063ffffffff16565b61036d576040517ffe2fc9c600000000000000000000000000000000000000000000000000000000815260040160405180910390fd5b600960003373ffffffffffffffffffffffffffffffffffffffff1673ffffffffffffffffffffffffffffffffffffffff16815260200190815260200160002080548060200260200160405190810160405280929190818152602001828054801561042c57602002820191906000526020600020905b8160009054906101000a900473ffffffffffffffffffffffffffffffffffffffff1673ffffffffffffffffffffffffffffffffffffffff16815260200190600101908083116103e2575b5050505050905090565b606061044c33600261193290919063ffffffff16565b610482576040517fc11330e600000000000000000000000000000000000000000000000000000000815260040160405180910390fd5b600860003373ffffffffffffffffffffffffffffffffffffffff1673ffffffffffffffffffffffffffffffffffffffff16815260200190815260200160002080548060200260200160405190810160405280929190818152602001828054801561054157602002820191906000526020600020905b8160009054906101000a900473ffffffffffffffffffffffffffffffffffffffff1673ffffffffffffffffffffffffffffffffffffffff16815260200190600101908083116104f7575b5050505050905090565b61055f33600161193290919063ffffffff16565b610595576040517ffe2fc9c600000000000000000000000000000000000000000000000000000000815260040160405180910390fd5b61059e82611301565b6105d4576040517fc11330e600000000000000000000000000000000000000000000000000000000815260040160405180910390fd5b7fffffffffffffffffffffffffffffffffffffffffffffffffffffffffffffffff6106cb33600860008673ffffffffffffffffffffffffffffffffffffffff1673ffffffffffffffffffffffffffffffffffffffff1681526020019081526020016000208054806020026020016040519081016040528092919081815260200182805480156106b857602002820191906000526020600020905b8160009054906101000a900473ffffffffffffffffffffffffffffffffffffffff1673ffffffffffffffffffffffffffffffffffffffff168152602001906001019080831161066e575b50505050506119f990919063ffffffff16565b0361070b576040517f08c379a000000000000000000000000000000000000000000000000000000000815260040161070290611f0c565b60405180910390fd5b80600760008473ffffffffffffffffffffffffffffffffffffffff1673ffffffffffffffffffffffffffffffffffffffff16815260200190815260200160002090816107579190612142565b505050565b606060048054806020026020016040519081016040528092919081815260200182805480156107e057602002820191906000526020600020905b8160009054906101000a900473ffffffffffffffffffffffffffffffffffffffff1673ffffffffffffffffffffffffffffffffffffffff1681526020019060010190808311610796575b5050505050905090565b600061080082600061193290919063ffffffff16565b9050919050565b606061081282611301565b610848576040517fc11330e600000000000000000000000000000000000000000000000000000000815260040160405180910390fd5b8173ffffffffffffffffffffffffffffffffffffffff163373ffffffffffffffffffffffffffffffffffffffff161415801561097857507fffffffffffffffffffffffffffffffffffffffffffffffffffffffffffffffff61097633600860008673ffffffffffffffffffffffffffffffffffffffff1673ffffffffffffffffffffffffffffffffffffffff16815260200190815260200160002080548060200260200160405190810160405280929190818152602001828054801561096357602002820191906000526020600020905b8160009054906101000a900473ffffffffffffffffffffffffffffffffffffffff1673ffffffffffffffffffffffffffffffffffffffff1681526020019060010190808311610919575b50505050506119f990919063ffffffff16565b145b156109b8576040517f08c379a00000000000000000000000000000000000000000000000000000000081526004016109af90612260565b60405180910390fd5b600760008373ffffffffffffffffffffffffffffffffffffffff1673ffffffffffffffffffffffffffffffffffffffff1681526020019081526020016000208054610a0290611f5b565b80601f0160208091040260200160405190810160405280929190818152602001828054610a2e90611f5b565b8015610a7b5780601f10610a5057610100808354040283529160200191610a7b565b820191906000526020600020905b815481529060010190602001808311610a5e57829003601f168201915b50505050509050919050565b610a9b33600061193290919063ffffffff16565b610ad1576040517f4d371dc700000000000000000000000000000000000000000000000000000000815260040160405180910390fd5b80600660008473ffffffffffffffffffffffffffffffffffffffff1673ffffffffffffffffffffffffffffffffffffffff1681526020019081526020016000209081610b1d9190612142565b505050565b60606005805480602002602001604051908101604052809291908181526020018280548015610ba657602002820191906000526020600020905b8160009054906101000a900473ffffffffffffffffffffffffffffffffffffffff1673ffffffffffffffffffffffffffffffffffffffff1681526020019060010190808311610b5c575b5050505050905090565b6000600360009054906101000a900473ffffffffffffffffffffffffffffffffffffffff16905090565b610bee33600061193290919063ffffffff16565b610c24576040517f4d371dc700000000000000000000000000000000000000000000000000000000815260040160405180910390fd5b610c3882600161188a90919063ffffffff16565b6004829080600181540180825580915050600190039060005260206000200160009091909190916101000a81548173ffffffffffffffffffffffffffffffffffffffff021916908373ffffffffffffffffffffffffffffffffffffffff160217905550610ca58282610a87565b5050565b610cbd33600261193290919063ffffffff16565b610cf3576040517fc11330e600000000000000000000000000000000000000000000000000000000815260040160405180910390fd5b610cfc8161131e565b610d32576040517ffe2fc9c600000000000000000000000000000000000000000000000000000000815260040160405180910390fd5b6000610e0a82600860003373ffffffffffffffffffffffffffffffffffffffff1673ffffffffffffffffffffffffffffffffffffffff168152602001908152602001600020805480602002602001604051908101604052809291908181526020018280548015610df757602002820191906000526020600020905b8160009054906101000a900473ffffffffffffffffffffffffffffffffffffffff1673ffffffffffffffffffffffffffffffffffffffff1681526020019060010190808311610dad575b50505050506119f990919063ffffffff16565b90506000600860003373ffffffffffffffffffffffffffffffffffffffff1673ffffffffffffffffffffffffffffffffffffffff168152602001908152602001600020805480602002602001604051908101604052809291908181526020018280548015610ecd57602002820191906000526020600020905b8160009054906101000a900473ffffffffffffffffffffffffffffffffffffffff1673ffffffffffffffffffffffffffffffffffffffff1681526020019060010190808311610e83575b505050505090508060018251610ee391906122af565b81518110610ef457610ef36122e3565b5b6020026020010151600860003373ffffffffffffffffffffffffffffffffffffffff1673ffffffffffffffffffffffffffffffffffffffff1681526020019081526020016000208381548110610f4d57610f4c6122e3565b5b9060005260206000200160006101000a81548173ffffffffffffffffffffffffffffffffffffffff021916908373ffffffffffffffffffffffffffffffffffffffff160217905550600860003373ffffffffffffffffffffffffffffffffffffffff1673ffffffffffffffffffffffffffffffffffffffff168152602001908152602001600020805480610fe457610fe3612312565b5b6001900381819060005260206000200160006101000a81549073ffffffffffffffffffffffffffffffffffffffff021916905590556110ef33600960008673ffffffffffffffffffffffffffffffffffffffff1673ffffffffffffffffffffffffffffffffffffffff1681526020019081526020016000208054806020026020016040519081016040528092919081815260200182805480156110dc57602002820191906000526020600020905b8160009054906101000a900473ffffffffffffffffffffffffffffffffffffffff1673ffffffffffffffffffffffffffffffffffffffff1681526020019060010190808311611092575b50505050506119f990919063ffffffff16565b9150600960008473ffffffffffffffffffffffffffffffffffffffff1673ffffffffffffffffffffffffffffffffffffffff1681526020019081526020016000208054806020026020016040519081016040528092919081815260200182805480156111b057602002820191906000526020600020905b8160009054906101000a900473ffffffffffffffffffffffffffffffffffffffff1673ffffffffffffffffffffffffffffffffffffffff1681526020019060010190808311611166575b5050505050905080600182516111c691906122af565b815181106111d7576111d66122e3565b5b6020026020010151600960008573ffffffffffffffffffffffffffffffffffffffff1673ffffffffffffffffffffffffffffffffffffffff16815260200190815260200160002083815481106112305761122f6122e3565b5b9060005260206000200160006101000a81548173ffffffffffffffffffffffffffffffffffffffff021916908373ffffffffffffffffffffffffffffffffffffffff160217905550600960008473ffffffffffffffffffffffffffffffffffffffff1673ffffffffffffffffffffffffffffffffffffffff1681526020019081526020016000208054806112c7576112c6612312565b5b6001900381819060005260206000200160006101000a81549073ffffffffffffffffffffffffffffffffffffffff02191690559055505050565b600061131782600261193290919063ffffffff16565b9050919050565b600061133482600161193290919063ffffffff16565b9050919050565b61134f33600261188a90919063ffffffff16565b6005339080600181540180825580915050600190039060005260206000200160009091909190916101000a81548173ffffffffffffffffffffffffffffffffffffffff021916908373ffffffffffffffffffffffffffffffffffffffff160217905550565b60606113bf8261131e565b6113f5576040517ffe2fc9c600000000000000000000000000000000000000000000000000000000815260040160405180910390fd5b600660008373ffffffffffffffffffffffffffffffffffffffff1673ffffffffffffffffffffffffffffffffffffffff168152602001908152602001600020805461143f90611f5b565b80601f016020809104026020016040519081016040528092919081815260200182805461146b90611f5b565b80156114b85780601f1061148d576101008083540402835291602001916114b8565b820191906000526020600020905b81548152906001019060200180831161149b57829003601f168201915b50505050509050919050565b6114d833600261193290919063ffffffff16565b61150e576040517fc11330e600000000000000000000000000000000000000000000000000000000815260040160405180910390fd5b6115178161131e565b61154d576040517ffe2fc9c600000000000000000000000000000000000000000000000000000000815260040160405180910390fd5b7fffffffffffffffffffffffffffffffffffffffffffffffffffffffffffffffff61164482600860003373ffffffffffffffffffffffffffffffffffffffff1673ffffffffffffffffffffffffffffffffffffffff16815260200190815260200160002080548060200260200160405190810160405280929190818152602001828054801561163157602002820191906000526020600020905b8160009054906101000a900473ffffffffffffffffffffffffffffffffffffffff1673ffffffffffffffffffffffffffffffffffffffff16815260200190600101908083116115e7575b50505050506119f990919063ffffffff16565b036116ea57600860003373ffffffffffffffffffffffffffffffffffffffff1673ffffffffffffffffffffffffffffffffffffffff168152602001908152602001600020819080600181540180825580915050600190039060005260206000200160009091909190916101000a81548173ffffffffffffffffffffffffffffffffffffffff021916908373ffffffffffffffffffffffffffffffffffffffff1602179055505b7fffffffffffffffffffffffffffffffffffffffffffffffffffffffffffffffff6117e133600960008573ffffffffffffffffffffffffffffffffffffffff1673ffffffffffffffffffffffffffffffffffffffff1681526020019081526020016000208054806020026020016040519081016040528092919081815260200182805480156117ce57602002820191906000526020600020905b8160009054906101000a900473ffffffffffffffffffffffffffffffffffffffff1673ffffffffffffffffffffffffffffffffffffffff1681526020019060010190808311611784575b50505050506119f990919063ffffffff16565b0361188757600960008273ffffffffffffffffffffffffffffffffffffffff1673ffffffffffffffffffffffffffffffffffffffff168152602001908152602001600020339080600181540180825580915050600190039060005260206000200160009091909190916101000a81548173ffffffffffffffffffffffffffffffffffffffff021916908373ffffffffffffffffffffffffffffffffffffffff1602179055505b50565b6118948282611932565b156118d4576040517f08c379a00000000000000000000000000000000000000000000000000000000081526004016118cb9061238d565b60405180910390fd5b60018260000160008373ffffffffffffffffffffffffffffffffffffffff1673ffffffffffffffffffffffffffffffffffffffff16815260200190815260200160002060006101000a81548160ff0219169083151502179055505050565b60008073ffffffffffffffffffffffffffffffffffffffff168273ffffffffffffffffffffffffffffffffffffffff16036119a2576040517f08c379a00000000000000000000000000000000000000000000000000000000081526004016119999061241f565b60405180910390fd5b8260000160008373ffffffffffffffffffffffffffffffffffffffff1673ffffffffffffffffffffffffffffffffffffffff16815260200190815260200160002060009054906101000a900460ff16905092915050565b600080600090505b8351811015611a73578273ffffffffffffffffffffffffffffffffffffffff16848281518110611a3457611a336122e3565b5b602002602001015173ffffffffffffffffffffffffffffffffffffffff1603611a605780915050611a98565b8080611a6b9061243f565b915050611a01565b507fffffffffffffffffffffffffffffffffffffffffffffffffffffffffffffffff90505b92915050565b600081519050919050565b600082825260208201905092915050565b6000819050602082019050919050565b600073ffffffffffffffffffffffffffffffffffffffff82169050919050565b6000611af582611aca565b9050919050565b611b0581611aea565b82525050565b6000611b178383611afc565b60208301905092915050565b6000602082019050919050565b6000611b3b82611a9e565b611b458185611aa9565b9350611b5083611aba565b8060005b83811015611b81578151611b688882611b0b565b9750611b7383611b23565b925050600181019050611b54565b5085935050505092915050565b60006020820190508181036000830152611ba88184611b30565b905092915050565b6000604051905090565b600080fd5b600080fd5b611bcd81611aea565b8114611bd857600080fd5b50565b600081359050611bea81611bc4565b92915050565b600080fd5b600080fd5b6000601f19601f8301169050919050565b7f4e487b7100000000000000000000000000000000000000000000000000000000600052604160045260246000fd5b611c4382611bfa565b810181811067ffffffffffffffff82111715611c6257611c61611c0b565b5b80604052505050565b6000611c75611bb0565b9050611c818282611c3a565b919050565b600067ffffffffffffffff821115611ca157611ca0611c0b565b5b611caa82611bfa565b9050602081019050919050565b82818337600083830152505050565b6000611cd9611cd484611c86565b611c6b565b905082815260208101848484011115611cf557611cf4611bf5565b5b611d00848285611cb7565b509392505050565b600082601f830112611d1d57611d1c611bf0565b5b8135611d2d848260208601611cc6565b91505092915050565b60008060408385031215611d4d57611d4c611bba565b5b6000611d5b85828601611bdb565b925050602083013567ffffffffffffffff811115611d7c57611d7b611bbf565b5b611d8885828601611d08565b9150509250929050565b600060208284031215611da857611da7611bba565b5b6000611db684828501611bdb565b91505092915050565b60008115159050919050565b611dd481611dbf565b82525050565b6000602082019050611def6000830184611dcb565b92915050565b600081519050919050565b600082825260208201905092915050565b60005b83811015611e2f578082015181840152602081019050611e14565b60008484015250505050565b6000611e4682611df5565b611e508185611e00565b9350611e60818560208601611e11565b611e6981611bfa565b840191505092915050565b60006020820190508181036000830152611e8e8184611e3b565b905092915050565b611e9f81611aea565b82525050565b6000602082019050611eba6000830184611e96565b92915050565b7f4e6f7420416c6c6f776564210000000000000000000000000000000000000000600082015250565b6000611ef6600c83611e00565b9150611f0182611ec0565b602082019050919050565b60006020820190508181036000830152611f2581611ee9565b9050919050565b7f4e487b7100000000000000000000000000000000000000000000000000000000600052602260045260246000fd5b60006002820490506001821680611f7357607f821691505b602082108103611f8657611f85611f2c565b5b50919050565b60008190508160005260206000209050919050565b60006020601f8301049050919050565b600082821b905092915050565b600060088302611fee7fffffffffffffffffffffffffffffffffffffffffffffffffffffffffffffffff82611fb1565b611ff88683611fb1565b95508019841693508086168417925050509392505050565b6000819050919050565b6000819050919050565b600061203f61203a61203584612010565b61201a565b612010565b9050919050565b6000819050919050565b61205983612024565b61206d61206582612046565b848454611fbe565b825550505050565b600090565b612082612075565b61208d818484612050565b505050565b5b818110156120b1576120a660008261207a565b600181019050612093565b5050565b601f8211156120f6576120c781611f8c565b6120d084611fa1565b810160208510156120df578190505b6120f36120eb85611fa1565b830182612092565b50505b505050565b600082821c905092915050565b6000612119600019846008026120fb565b1980831691505092915050565b60006121328383612108565b9150826002028217905092915050565b61214b82611df5565b67ffffffffffffffff81111561216457612163611c0b565b5b61216e8254611f5b565b6121798282856120b5565b600060209050601f8311600181146121ac576000841561219a578287015190505b6121a48582612126565b86555061220c565b601f1984166121ba86611f8c565b60005b828110156121e2578489015182556001820191506020850194506020810190506121bd565b868310156121ff57848901516121fb601f891682612108565b8355505b6001600288020188555050505b505050505050565b7f4e6f7720416c6c6f776564210000000000000000000000000000000000000000600082015250565b600061224a600c83611e00565b915061225582612214565b602082019050919050565b600060208201905081810360008301526122798161223d565b9050919050565b7f4e487b7100000000000000000000000000000000000000000000000000000000600052601160045260246000fd5b60006122ba82612010565b91506122c583612010565b92508282039050818111156122dd576122dc612280565b5b92915050565b7f4e487b7100000000000000000000000000000000000000000000000000000000600052603260045260246000fd5b7f4e487b7100000000000000000000000000000000000000000000000000000000600052603160045260246000fd5b7f526f6c65733a206163636f756e7420616c72656164792068617320726f6c6500600082015250565b6000612377601f83611e00565b915061238282612341565b602082019050919050565b600060208201905081810360008301526123a68161236a565b9050919050565b7f526f6c65733a206163636f756e7420697320746865207a65726f20616464726560008201527f7373000000000000000000000000000000000000000000000000000000000000602082015250565b6000612409602283611e00565b9150612414826123ad565b604082019050919050565b60006020820190508181036000830152612438816123fc565b9050919050565b600061244a82612010565b91507fffffffffffffffffffffffffffffffffffffffffffffffffffffffffffffffff820361247c5761247b612280565b5b60018201905091905056fea26469706673582212208f8d881f6ce698f179afea35e92f45411cc2948c16e45825ce8838110e9c051c64736f6c63430008110033",
  "devdoc": {
    "kind": "dev",
    "methods": {},
    "version": 1
  },
  "userdoc": {
    "kind": "user",
    "methods": {},
    "version": 1
  },
  "storageLayout": {
    "storage": [
      {
        "astId": 20,
        "contract": "contracts/Contract.sol:Contract",
        "label": "admin",
        "offset": 0,
        "slot": "0",
        "type": "t_struct(Role)523_storage"
      },
      {
        "astId": 23,
        "contract": "contracts/Contract.sol:Contract",
        "label": "doctor",
        "offset": 0,
        "slot": "1",
        "type": "t_struct(Role)523_storage"
      },
      {
        "astId": 26,
        "contract": "contracts/Contract.sol:Contract",
        "label": "patient",
        "offset": 0,
        "slot": "2",
        "type": "t_struct(Role)523_storage"
      },
      {
        "astId": 28,
        "contract": "contracts/Contract.sol:Contract",
        "label": "admin_id",
        "offset": 0,
        "slot": "3",
        "type": "t_address"
      },
      {
        "astId": 31,
        "contract": "contracts/Contract.sol:Contract",
        "label": "dr_ids",
        "offset": 0,
        "slot": "4",
        "type": "t_array(t_address)dyn_storage"
      },
      {
        "astId": 34,
        "contract": "contracts/Contract.sol:Contract",
        "label": "pat_ids",
        "offset": 0,
        "slot": "5",
        "type": "t_array(t_address)dyn_storage"
      },
      {
        "astId": 38,
        "contract": "contracts/Contract.sol:Contract",
        "label": "Doctors",
        "offset": 0,
        "slot": "6",
        "type": "t_mapping(t_address,t_string_storage)"
      },
      {
        "astId": 42,
        "contract": "contracts/Contract.sol:Contract",
        "label": "Patients",
        "offset": 0,
        "slot": "7",
        "type": "t_mapping(t_address,t_string_storage)"
      },
      {
        "astId": 47,
        "contract": "contracts/Contract.sol:Contract",
        "label": "patToDocAccess",
        "offset": 0,
        "slot": "8",
        "type": "t_mapping(t_address,t_array(t_address)dyn_storage)"
      },
      {
        "astId": 52,
        "contract": "contracts/Contract.sol:Contract",
        "label": "docToPatAccess",
        "offset": 0,
        "slot": "9",
        "type": "t_mapping(t_address,t_array(t_address)dyn_storage)"
      }
    ],
    "types": {
      "t_address": {
        "encoding": "inplace",
        "label": "address",
        "numberOfBytes": "20"
      },
      "t_array(t_address)dyn_storage": {
        "base": "t_address",
        "encoding": "dynamic_array",
        "label": "address[]",
        "numberOfBytes": "32"
      },
      "t_bool": {
        "encoding": "inplace",
        "label": "bool",
        "numberOfBytes": "1"
      },
      "t_mapping(t_address,t_array(t_address)dyn_storage)": {
        "encoding": "mapping",
        "key": "t_address",
        "label": "mapping(address => address[])",
        "numberOfBytes": "32",
        "value": "t_array(t_address)dyn_storage"
      },
      "t_mapping(t_address,t_bool)": {
        "encoding": "mapping",
        "key": "t_address",
        "label": "mapping(address => bool)",
        "numberOfBytes": "32",
        "value": "t_bool"
      },
      "t_mapping(t_address,t_string_storage)": {
        "encoding": "mapping",
        "key": "t_address",
        "label": "mapping(address => string)",
        "numberOfBytes": "32",
        "value": "t_string_storage"
      },
      "t_string_storage": {
        "encoding": "bytes",
        "label": "string",
        "numberOfBytes": "32"
      },
      "t_struct(Role)523_storage": {
        "encoding": "inplace",
        "label": "struct Roles.Role",
        "members": [
          {
            "astId": 522,
            "contract": "contracts/Contract.sol:Contract",
            "label": "bearer",
            "offset": 0,
            "slot": "0",
            "type": "t_mapping(t_address,t_bool)"
          }
        ],
        "numberOfBytes": "32"
      }
    }
  }
}