{
  "address": "0x9fE46736679d2D9a65F0992F2272dE9f3c7fa6e0",
  "abi": [
    {
      "inputs": [
        {
          "internalType": "contract MinimalForwarderUpgradeable",
          "name": "forwarder",
          "type": "address"
        }
      ],
      "stateMutability": "nonpayable",
      "type": "constructor"
    },
    {
      "inputs": [],
      "name": "Contract__DoctorPublicKeyMissing",
      "type": "error"
    },
    {
      "inputs": [],
      "name": "Contract__NotAdmin",
      "type": "error"
    },
    {
      "inputs": [],
      "name": "Contract__NotDoctor",
      "type": "error"
    },
    {
      "inputs": [],
      "name": "Contract__NotPatient",
      "type": "error"
    },
    {
      "inputs": [],
      "name": "Contract__PendingDoctorApproval",
      "type": "error"
    },
    {
      "anonymous": false,
      "inputs": [
        {
          "indexed": false,
          "internalType": "uint8",
          "name": "version",
          "type": "uint8"
        }
      ],
      "name": "Initialized",
      "type": "event"
    },
    {
      "inputs": [
        {
          "internalType": "address",
          "name": "_address",
          "type": "address"
        }
      ],
      "name": "approveDr",
      "outputs": [],
      "stateMutability": "nonpayable",
      "type": "function"
    },
    {
      "inputs": [
        {
          "internalType": "address",
          "name": "_address",
          "type": "address"
        },
        {
          "internalType": "string",
          "name": "_general_hash",
          "type": "string"
        },
        {
          "internalType": "string",
          "name": "_key_hash",
          "type": "string"
        }
      ],
      "name": "changeEditorAccess",
      "outputs": [],
      "stateMutability": "nonpayable",
      "type": "function"
    },
    {
      "inputs": [
        {
          "internalType": "address",
          "name": "_address",
          "type": "address"
        }
      ],
      "name": "disapproveDr",
      "outputs": [],
      "stateMutability": "nonpayable",
      "type": "function"
    },
    {
      "inputs": [],
      "name": "getAdmin",
      "outputs": [
        {
          "internalType": "address",
          "name": "",
          "type": "address"
        }
      ],
      "stateMutability": "view",
      "type": "function"
    },
    {
      "inputs": [],
      "name": "getAdminPubKey",
      "outputs": [
        {
          "internalType": "string",
          "name": "",
          "type": "string"
        }
      ],
      "stateMutability": "view",
      "type": "function"
    },
    {
      "inputs": [],
      "name": "getAllDrs",
      "outputs": [
        {
          "internalType": "address[]",
          "name": "",
          "type": "address[]"
        }
      ],
      "stateMutability": "view",
      "type": "function"
    },
    {
      "inputs": [],
      "name": "getAllPts",
      "outputs": [
        {
          "internalType": "address[]",
          "name": "",
          "type": "address[]"
        }
      ],
      "stateMutability": "view",
      "type": "function"
    },
    {
      "inputs": [
        {
          "internalType": "address",
          "name": "_address",
          "type": "address"
        }
      ],
      "name": "getDrHash",
      "outputs": [
        {
          "internalType": "string",
          "name": "",
          "type": "string"
        }
      ],
      "stateMutability": "view",
      "type": "function"
    },
    {
      "inputs": [],
      "name": "getDrOfPt",
      "outputs": [
        {
          "internalType": "address",
          "name": "",
          "type": "address"
        }
      ],
      "stateMutability": "view",
      "type": "function"
    },
    {
      "inputs": [
        {
          "internalType": "address",
          "name": "_address",
          "type": "address"
        }
      ],
      "name": "getDrPubKey",
      "outputs": [
        {
          "internalType": "string",
          "name": "",
          "type": "string"
        }
      ],
      "stateMutability": "view",
      "type": "function"
    },
    {
      "inputs": [],
      "name": "getPatViewers",
      "outputs": [
        {
          "internalType": "address[]",
          "name": "",
          "type": "address[]"
        }
      ],
      "stateMutability": "view",
      "type": "function"
    },
    {
      "inputs": [],
      "name": "getPendingDrs",
      "outputs": [
        {
          "internalType": "address[]",
          "name": "",
          "type": "address[]"
        }
      ],
      "stateMutability": "view",
      "type": "function"
    },
    {
      "inputs": [
        {
          "internalType": "address",
          "name": "_address",
          "type": "address"
        }
      ],
      "name": "getPtGeneralHash",
      "outputs": [
        {
          "internalType": "string",
          "name": "",
          "type": "string"
        }
      ],
      "stateMutability": "view",
      "type": "function"
    },
    {
      "inputs": [
        {
          "internalType": "address",
          "name": "_address",
          "type": "address"
        }
      ],
      "name": "getPtRecordHash",
      "outputs": [
        {
          "internalType": "string",
          "name": "",
          "type": "string"
        }
      ],
      "stateMutability": "view",
      "type": "function"
    },
    {
      "inputs": [],
      "name": "getPtsOfDr",
      "outputs": [
        {
          "internalType": "address[]",
          "name": "",
          "type": "address[]"
        }
      ],
      "stateMutability": "view",
      "type": "function"
    },
    {
      "inputs": [
        {
          "internalType": "address",
          "name": "_address",
          "type": "address"
        }
      ],
      "name": "grantViewerAccess",
      "outputs": [],
      "stateMutability": "nonpayable",
      "type": "function"
    },
    {
      "inputs": [],
      "name": "initialize",
      "outputs": [],
      "stateMutability": "nonpayable",
      "type": "function"
    },
    {
      "inputs": [
        {
          "internalType": "address",
          "name": "_address",
          "type": "address"
        }
      ],
      "name": "isAdmin",
      "outputs": [
        {
          "internalType": "bool",
          "name": "",
          "type": "bool"
        }
      ],
      "stateMutability": "view",
      "type": "function"
    },
    {
      "inputs": [
        {
          "internalType": "address",
          "name": "_address",
          "type": "address"
        }
      ],
      "name": "isDoctor",
      "outputs": [
        {
          "internalType": "bool",
          "name": "",
          "type": "bool"
        }
      ],
      "stateMutability": "view",
      "type": "function"
    },
    {
      "inputs": [
        {
          "internalType": "address",
          "name": "_address",
          "type": "address"
        }
      ],
      "name": "isDrPending",
      "outputs": [
        {
          "internalType": "bool",
          "name": "",
          "type": "bool"
        }
      ],
      "stateMutability": "view",
      "type": "function"
    },
    {
      "inputs": [
        {
          "internalType": "address",
          "name": "_address",
          "type": "address"
        }
      ],
      "name": "isDrRegistered",
      "outputs": [
        {
          "internalType": "bool",
          "name": "",
          "type": "bool"
        }
      ],
      "stateMutability": "view",
      "type": "function"
    },
    {
      "inputs": [
        {
          "internalType": "address",
          "name": "_address",
          "type": "address"
        }
      ],
      "name": "isPatient",
      "outputs": [
        {
          "internalType": "bool",
          "name": "",
          "type": "bool"
        }
      ],
      "stateMutability": "view",
      "type": "function"
    },
    {
      "inputs": [
        {
          "internalType": "address",
          "name": "forwarder",
          "type": "address"
        }
      ],
      "name": "isTrustedForwarder",
      "outputs": [
        {
          "internalType": "bool",
          "name": "",
          "type": "bool"
        }
      ],
      "stateMutability": "view",
      "type": "function"
    },
    {
      "inputs": [
        {
          "internalType": "string",
          "name": "_hash",
          "type": "string"
        }
      ],
      "name": "registerDr",
      "outputs": [],
      "stateMutability": "nonpayable",
      "type": "function"
    },
    {
      "inputs": [
        {
          "internalType": "string",
          "name": "_public_key",
          "type": "string"
        }
      ],
      "name": "registerDrConfirm",
      "outputs": [],
      "stateMutability": "nonpayable",
      "type": "function"
    },
    {
      "inputs": [
        {
          "internalType": "string",
          "name": "_hash",
          "type": "string"
        },
        {
          "internalType": "string",
          "name": "_key_data_hash",
          "type": "string"
        }
      ],
      "name": "registerPt",
      "outputs": [],
      "stateMutability": "nonpayable",
      "type": "function"
    },
    {
      "inputs": [
        {
          "internalType": "string",
          "name": "_general_hash",
          "type": "string"
        },
        {
          "internalType": "string",
          "name": "_key_hash",
          "type": "string"
        }
      ],
      "name": "removeEditorAccess",
      "outputs": [],
      "stateMutability": "nonpayable",
      "type": "function"
    },
    {
      "inputs": [
        {
          "internalType": "address",
          "name": "_address",
          "type": "address"
        }
      ],
      "name": "revokeViewerAccess",
      "outputs": [],
      "stateMutability": "nonpayable",
      "type": "function"
    },
    {
      "inputs": [
        {
          "internalType": "string",
          "name": "_public_key",
          "type": "string"
        }
      ],
      "name": "setAdminPubKey",
      "outputs": [],
      "stateMutability": "nonpayable",
      "type": "function"
    },
    {
      "inputs": [
        {
          "internalType": "string",
          "name": "_hash",
          "type": "string"
        }
      ],
      "name": "setDrHash",
      "outputs": [],
      "stateMutability": "nonpayable",
      "type": "function"
    },
    {
      "inputs": [
        {
          "internalType": "string",
          "name": "_hash",
          "type": "string"
        }
      ],
      "name": "setPtGeneralHash",
      "outputs": [],
      "stateMutability": "nonpayable",
      "type": "function"
    },
    {
      "inputs": [
        {
          "internalType": "address",
          "name": "_address",
          "type": "address"
        },
        {
          "internalType": "string",
          "name": "_hash",
          "type": "string"
        }
      ],
      "name": "setPtRecordHash",
      "outputs": [],
      "stateMutability": "nonpayable",
      "type": "function"
    }
  ],
  "transactionHash": "0x37afcf64cf6befe20ca7f5822cc96f2ebb129f7036a9f5d3576848a2cbc5bfb0",
  "args": [
    "0x5FbDB2315678afecb367f032d93F642f64180aa3"
  ],
  "numDeployments": 1,
  "solcInputHash": "e6d343105a958c4e6b8e5566cdb33cf2",
  "bytecode": "0x60a06040523480156200001157600080fd5b50604051620026a5380380620026a5833981016040819052620000349162000046565b6001600160a01b031660805262000078565b6000602082840312156200005957600080fd5b81516001600160a01b03811681146200007157600080fd5b9392505050565b6080516126116200009460003960006102dc01526126116000f3fe608060405234801561001057600080fd5b50600436106101f05760003560e01c80638f7f43a91161010f578063c70597ad116100a2578063d3cd4df411610071578063d3cd4df414610434578063dc823aaf14610447578063e2877b4e1461045a578063f7a03a1e1461046257600080fd5b8063c70597ad146103f3578063cce9d43e14610406578063ccfaed1614610419578063d0d9a5e31461042c57600080fd5b8063a03de49e116100de578063a03de49e146103b2578063a53f514d146103c5578063afb97e3d146103cd578063b1e758a4146103e057600080fd5b80638f7f43a9146103715780638f9c79ed14610379578063996440c61461038c57806399eedd2a1461039f57600080fd5b80634df0a2d4116101875780636e9960c3116101565780636e9960c314610332578063745ada64146103435780638129fc1c1461035657806388c432e11461035e57600080fd5b80634df0a2d4146102b9578063572b6c05146102cc5780635b0a7aad1461030c5780636d4bce201461031f57600080fd5b806324d7806c116101c357806324d7806c1461025d578063290c61b01461028057806332991838146102935780633d8198b4146102a657600080fd5b80630de99991146101f5578063116461e91461020a5780631da3e2dc1461022857806321639f041461023d575b600080fd5b61020861020336600461209b565b610475565b005b6102126104e0565b60405161021f91906120b6565b60405180910390f35b610230610575565b60405161021f9190612122565b610245610586565b6040516001600160a01b03909116815260200161021f565b61027061026b36600461209b565b6105e4565b604051901515815260200161021f565b61027061028e36600461209b565b61060c565b6102086102a1366004612249565b61061f565b6102126102b436600461209b565b61072e565b6102126102c736600461209b565b610929565b6102706102da36600461209b565b7f00000000000000000000000000000000000000000000000000000000000000006001600160a01b0390811691161490565b61020861031a366004612286565b610a3a565b61027061032d36600461209b565b610b03565b6065546001600160a01b0316610245565b61020861035136600461209b565b610b24565b610208610bc3565b61020861036c366004612249565b610c6d565b610230610cb8565b61027061038736600461209b565b610d64565b61027061039a36600461209b565b610d71565b6102086103ad366004612249565b610def565b6102086103c0366004612286565b610f51565b6102306110a9565b6102086103db366004612249565b6110b5565b6102086103ee36600461209b565b611104565b6102086104013660046122ea565b61125b565b61021261041436600461209b565b611328565b610208610427366004612249565b611374565b61023061148f565b61020861044236600461232e565b6115d8565b61021261045536600461209b565b6116b8565b6102306116df565b61020861047036600461209b565b61173e565b61047e336105e4565b6104b4576040517f4d371dc700000000000000000000000000000000000000000000000000000000815260040160405180910390fd5b6104bd81610d71565b6104dd576104cc606a826117d8565b156104dd575b6104dd60678261186a565b50565b6060606560010180546104f2906123a2565b80601f016020809104026020016040519081016040528092919081815260200182805461051e906123a2565b801561056b5780601f106105405761010080835404028352916020019161056b565b820191906000526020600020905b81548152906001019060200180831161054e57829003601f168201915b5050505050905090565b6060610581606a6119e7565b905090565b600061059133610d64565b6105c7576040517fc11330e600000000000000000000000000000000000000000000000000000000815260040160405180910390fd5b50336000908152607460205260409020546001600160a01b031690565b6065546000906001600160a01b0380841691160361060457506001919050565b506000919050565b6000610619606a836117d8565b92915050565b61062833610d64565b156106a05760405162461bcd60e51b815260206004820152602f60248201527f436f6e74726163743a204164647265737320616c72656164792072656769737460448201527f657265642061732070617469656e74000000000000000000000000000000000060648201526084015b60405180910390fd5b80516000036107175760405162461bcd60e51b815260206004820152602360248201527f436f6e74726163743a20456d7074792068617368206973206e6f7420616c6c6f60448201527f77656400000000000000000000000000000000000000000000000000000000006064820152608401610697565b610723606a3383611a48565b6104dd606733611aaa565b606061073982610d64565b61076f576040517fc11330e600000000000000000000000000000000000000000000000000000000815260040160405180910390fd5b336001600160a01b038316148061079f57506001600160a01b038281166000908152607460205260409020541633145b8061083157506001600160a01b038216600090815260746020908152604091829020600101805483518184028101840190945280845261082b9333939092919083018282801561081857602002820191906000526020600020905b81546001600160a01b031681526001909101906020018083116107fa575b5050505050611b5d90919063ffffffff16565b60001914155b156108e1576001600160a01b0382166000908152607460205260409020600201805461085c906123a2565b80601f0160208091040260200160405190810160405280929190818152602001828054610888906123a2565b80156108d55780601f106108aa576101008083540402835291602001916108d5565b820191906000526020600020905b8154815290600101906020018083116108b857829003601f168201915b50505050509050919050565b60405162461bcd60e51b815260206004820152600b60248201527f4e6f7420416c6c6f7765640000000000000000000000000000000000000000006044820152606401610697565b606061093482610d64565b61096a576040517fc11330e600000000000000000000000000000000000000000000000000000000815260040160405180910390fd5b336001600160a01b038316148061099a57506001600160a01b038281166000908152607460205260409020541633145b80610a2a57506001600160a01b0382166000908152607460209081526040918290206001018054835181840281018401909452808452610a2493339390929190830182828015610818576020028201919060005260206000209081546001600160a01b031681526001909101906020018083116107fa575050505050611b5d90919063ffffffff16565b60001914155b156108e157610619607083611bc0565b610a4333610d64565b610a79576040517fc11330e600000000000000000000000000000000000000000000000000000000815260040160405180910390fd5b33600081815260746020908152604080832080547fffffffffffffffffffffffff0000000000000000000000000000000000000000811686179091556001600160a01b0316808452606f9092529091209091610ad5919061186a565b610ae160703385611a9f565b336000908152607460205260409020600201610afd8382612443565b50505050565b6001600160a01b03811660009081526068602052604081205460ff16610619565b610b2d336105e4565b610b63576040517f4d371dc700000000000000000000000000000000000000000000000000000000815260040160405180910390fd5b610b6c81610b03565b610bb85760405162461bcd60e51b815260206004820152601f60248201527f436f6e74726163743a20446f63746f72206e6f742072656769737465726564006044820152606401610697565b6104d2606a82611bd3565b60755460ff1615610c165760405162461bcd60e51b815260206004820152601d60248201527f436f6e747261637420616c726561647920696e697469616c697a6564210000006044820152606401610697565b606580547fffffffffffffffffffffffff00000000000000000000000000000000000000001633179055607580547fffffffffffffffffffffffffffffffffffffffffffffffffffffffffffffff00166001179055565b610c7633610d64565b610cac576040517fc11330e600000000000000000000000000000000000000000000000000000000815260040160405180910390fd5b6104dd60703383611a9f565b6060610cc333610d64565b610cf9576040517fc11330e600000000000000000000000000000000000000000000000000000000815260040160405180910390fd5b336000908152607460209081526040918290206001018054835181840281018401909452808452909183018282801561056b57602002820191906000526020600020905b81546001600160a01b03168152600190910190602001808311610d3d575050505050905090565b60006106196070836117d8565b6000610d7e606a836117d8565b610d8a57506000919050565b6001600160a01b03821660009081526068602052604090205460ff1615610db357506000919050565b6001600160a01b0382166000908152606e602052604090208054610dd6906123a2565b9050600003610de757506000919050565b506001919050565b610dfa606a336117d8565b610e30576040517ffe2fc9c600000000000000000000000000000000000000000000000000000000815260040160405180910390fd5b3360009081526068602052604090205460ff1615610e7a576040517ff873d3b700000000000000000000000000000000000000000000000000000000815260040160405180910390fd5b336000908152606e602052604090208054610e94906123a2565b9050600003610ecf576040517fa30132d500000000000000000000000000000000000000000000000000000000815260040160405180910390fd5b8051600003610f455760405162461bcd60e51b8152602060048201526024808201527f436f6e74726163743a20456d7074792068617368206973206e6f7420616c6c6f60448201527f77656421000000000000000000000000000000000000000000000000000000006064820152608401610697565b6104dd606a3383611a9f565b610f5a3361060c565b80610f695750610f6933610d71565b15610fdc5760405162461bcd60e51b815260206004820152602e60248201527f436f6e74726163743a204164647265737320616c72656164792072656769737460448201527f6572656420617320646f63746f720000000000000000000000000000000000006064820152608401610697565b81516000036110535760405162461bcd60e51b815260206004820152602360248201527f436f6e74726163743a20456d7074792068617368206973206e6f7420616c6c6f60448201527f77656400000000000000000000000000000000000000000000000000000000006064820152608401610697565b61105f60703384611a48565b33600081815260746020526040902080547fffffffffffffffffffffffff00000000000000000000000000000000000000001690911781556002016110a48282612443565b505050565b606061058160706119e7565b6110be336105e4565b6110f4576040517f4d371dc700000000000000000000000000000000000000000000000000000000815260040160405180910390fd5b60666111008282612443565b5050565b61110d33610d64565b611143576040517fc11330e600000000000000000000000000000000000000000000000000000000815260040160405180910390fd5b61114c81610d71565b611182576040517ffe2fc9c600000000000000000000000000000000000000000000000000000000815260040160405180910390fd5b3360009081526074602090815260409182902060010180548351818402810184019094528084526111ff938593909291908301828280156111ec57602002820191906000526020600020905b81546001600160a01b031681526001909101906020018083116111ce575b5050505050611c5990919063ffffffff16565b6104dd573360009081526074602090815260408220600190810180549182018155835291200180546001600160a01b0383167fffffffffffffffffffffffff000000000000000000000000000000000000000090911617905550565b61126482610d64565b61129a576040517fc11330e600000000000000000000000000000000000000000000000000000000815260040160405180910390fd5b6001600160a01b038281166000908152607460205260409020541633146113035760405162461bcd60e51b815260206004820152600b60248201527f4e6f7420416c6c6f7765640000000000000000000000000000000000000000006044820152606401610697565b6001600160a01b03821660009081526074602052604090206002016110a48282612443565b60606113338261060c565b611369576040517ffe2fc9c600000000000000000000000000000000000000000000000000000000815260040160405180910390fd5b610619606a83611bc0565b80516000036113eb5760405162461bcd60e51b815260206004820152602a60248201527f436f6e74726163743a20456d707479207075626c6963206b6579206973206e6f60448201527f7420616c6c6f77656421000000000000000000000000000000000000000000006064820152608401610697565b6113f6606a336117d8565b61142c576040517ffe2fc9c600000000000000000000000000000000000000000000000000000000815260040160405180910390fd5b3360009081526068602052604090205460ff1615611476576040517ff873d3b700000000000000000000000000000000000000000000000000000000815260040160405180910390fd5b336000908152606e602052604090206111008282612443565b606061149c606a336117d8565b6114d2576040517ffe2fc9c600000000000000000000000000000000000000000000000000000000815260040160405180910390fd5b3360009081526068602052604090205460ff161561151c576040517ff873d3b700000000000000000000000000000000000000000000000000000000815260040160405180910390fd5b336000908152606e602052604090208054611536906123a2565b9050600003611571576040517fa30132d500000000000000000000000000000000000000000000000000000000815260040160405180910390fd5b336000908152606f60209081526040918290208054835181840281018401909452808452909183018282801561056b576020028201919060005260206000209081546001600160a01b03168152600190910190602001808311610d3d575050505050905090565b6115e133610d64565b611617576040517fc11330e600000000000000000000000000000000000000000000000000000000815260040160405180910390fd5b61162083610d71565b611656576040517ffe2fc9c600000000000000000000000000000000000000000000000000000000815260040160405180910390fd5b6116608282610a3a565b33600081815260746020908152604080832080547fffffffffffffffffffffffff0000000000000000000000000000000000000000166001600160a01b0389169081179091558352606f90915290206110a491611aaa565b6001600160a01b0381166000908152606e6020526040902080546060919061085c906123a2565b60678054604080516020808402820181019092528281526060939092909183018282801561056b576020028201919060005260206000209081546001600160a01b03168152600190910190602001808311610d3d575050505050905090565b61174733610d64565b61177d576040517fc11330e600000000000000000000000000000000000000000000000000000000815260040160405180910390fd5b61178681610d71565b6117bc576040517ffe2fc9c600000000000000000000000000000000000000000000000000000000815260040160405180910390fd5b3360009081526074602052604090206111009060010182611c71565b60006001600160a01b0382166118565760405162461bcd60e51b815260206004820152602260248201527f526f6c65733a206163636f756e7420697320746865207a65726f20616464726560448201527f73730000000000000000000000000000000000000000000000000000000000006064820152608401610697565b6118608383611e03565b5115159392505050565b6001600160a01b038116600090815260018301602052604090205460ff16611890575050565b6001600160a01b038116600090815260018084016020908152604080842080547fffffffffffffffffffffffffffffffffffffffffffffffffffffffffffffff001690556002860190915282205484549092916118ec91612550565b9050600084600001828154811061190557611905612563565b60009182526020808320909101546001600160a01b0390811680845260028901909252604080842087905590871683528220919091558554909150819086908590811061195457611954612563565b600091825260209091200180547fffffffffffffffffffffffff0000000000000000000000000000000000000000166001600160a01b039290921691909117905584548590806119a6576119a6612592565b600082815260209020810160001990810180547fffffffffffffffffffffffff00000000000000000000000000000000000000001690550190555050505050565b80546040805160208084028201810190925282815260609290918491908301828280156108d557602002820191906000526020600020905b81546001600160a01b03168152600190910190602001808311611a1f5750505050509050919050565b611a5283836117d8565b15611a9f5760405162461bcd60e51b815260206004820152601f60248201527f526f6c65733a206163636f756e7420616c72656164792068617320726f6c65006044820152606401610697565b6110a4838383611eb2565b6001600160a01b038116600090815260018301602052604090205460ff1615611ad1575050565b6001600160a01b0316600081815260018381016020908152604080842080547fffffffffffffffffffffffffffffffffffffffffffffffffffffffffffffff0016841790558554600287018352908420819055918201855593825292902090910180547fffffffffffffffffffffffff0000000000000000000000000000000000000000169091179055565b6000805b8351811015611bb557826001600160a01b0316848281518110611b8657611b86612563565b60200260200101516001600160a01b031603611ba3579050610619565b80611bad816125c1565b915050611b61565b506000199392505050565b6060611bcc8383611e03565b9392505050565b611bdd82826117d8565b611c4f5760405162461bcd60e51b815260206004820152602160248201527f526f6c65733a206163636f756e7420646f6573206e6f74206861766520726f6c60448201527f65000000000000000000000000000000000000000000000000000000000000006064820152608401610697565b6111008282611f8a565b6000611c658383611b5d565b60001914159392505050565b600080611cd784805480602002602001604051908101604052809291908181526020018280548015611ccc57602002820191906000526020600020905b81546001600160a01b03168152600190910190602001808311611cae575b505050505084611b5d565b90508019611ce9576000915050610619565b600084805480602002602001604051908101604052809291908181526020018280548015611d4057602002820191906000526020600020905b81546001600160a01b03168152600190910190602001808311611d22575b505050505090508060018251611d569190612550565b81518110611d6657611d66612563565b6020026020010151858381548110611d8057611d80612563565b9060005260206000200160006101000a8154816001600160a01b0302191690836001600160a01b0316021790555084805480611dbe57611dbe612592565b600082815260209020600019908201810180547fffffffffffffffffffffffff0000000000000000000000000000000000000000169055019055506001949350505050565b6001600160a01b03811660009081526001830160205260409020805460609190611e2c906123a2565b80601f0160208091040260200160405190810160405280929190818152602001828054611e58906123a2565b8015611ea55780601f10611e7a57610100808354040283529160200191611ea5565b820191906000526020600020905b815481529060010190602001808311611e8857829003601f168201915b5050505050905092915050565b6001600160a01b038216600090815260038401602052604090205460ff16611f665782546001600160a01b038316600081815260028601602090815260408083209490945560038701815292812080547fffffffffffffffffffffffffffffffffffffffffffffffffffffffffffffff001660019081179091558654908101875586825292902090910180547fffffffffffffffffffffffff00000000000000000000000000000000000000001690911790555b6001600160a01b03821660009081526001840160205260409020610afd8282612443565b6001600160a01b038116600090815260038301602052604090205460ff16611fb0575050565b6001600160a01b03811660009081526001830160205260408120611fd391612031565b6001600160a01b0381166000908152600383016020908152604080832080547fffffffffffffffffffffffffffffffffffffffffffffffffffffffffffffff001690556002850190915281205483549091906118ec90600190612550565b50805461203d906123a2565b6000825580601f1061204d575050565b601f0160209004906000526020600020908101906104dd91905b8082111561207b5760008155600101612067565b5090565b80356001600160a01b038116811461209657600080fd5b919050565b6000602082840312156120ad57600080fd5b611bcc8261207f565b600060208083528351808285015260005b818110156120e3578581018301518582016040015282016120c7565b5060006040828601015260407fffffffffffffffffffffffffffffffffffffffffffffffffffffffffffffffe0601f8301168501019250505092915050565b6020808252825182820181905260009190848201906040850190845b818110156121635783516001600160a01b03168352928401929184019160010161213e565b50909695505050505050565b7f4e487b7100000000000000000000000000000000000000000000000000000000600052604160045260246000fd5b600082601f8301126121af57600080fd5b813567ffffffffffffffff808211156121ca576121ca61216f565b604051601f83017fffffffffffffffffffffffffffffffffffffffffffffffffffffffffffffffe0908116603f011681019082821181831017156122105761221061216f565b8160405283815286602085880101111561222957600080fd5b836020870160208301376000602085830101528094505050505092915050565b60006020828403121561225b57600080fd5b813567ffffffffffffffff81111561227257600080fd5b61227e8482850161219e565b949350505050565b6000806040838503121561229957600080fd5b823567ffffffffffffffff808211156122b157600080fd5b6122bd8683870161219e565b935060208501359150808211156122d357600080fd5b506122e08582860161219e565b9150509250929050565b600080604083850312156122fd57600080fd5b6123068361207f565b9150602083013567ffffffffffffffff81111561232257600080fd5b6122e08582860161219e565b60008060006060848603121561234357600080fd5b61234c8461207f565b9250602084013567ffffffffffffffff8082111561236957600080fd5b6123758783880161219e565b9350604086013591508082111561238b57600080fd5b506123988682870161219e565b9150509250925092565b600181811c908216806123b657607f821691505b6020821081036123ef577f4e487b7100000000000000000000000000000000000000000000000000000000600052602260045260246000fd5b50919050565b601f8211156110a457600081815260208120601f850160051c8101602086101561241c5750805b601f850160051c820191505b8181101561243b57828155600101612428565b505050505050565b815167ffffffffffffffff81111561245d5761245d61216f565b6124718161246b84546123a2565b846123f5565b602080601f8311600181146124a6576000841561248e5750858301515b600019600386901b1c1916600185901b17855561243b565b6000858152602081207fffffffffffffffffffffffffffffffffffffffffffffffffffffffffffffffe08616915b828110156124f3578886015182559484019460019091019084016124d4565b50858210156125115787850151600019600388901b60f8161c191681555b5050505050600190811b01905550565b7f4e487b7100000000000000000000000000000000000000000000000000000000600052601160045260246000fd5b8181038181111561061957610619612521565b7f4e487b7100000000000000000000000000000000000000000000000000000000600052603260045260246000fd5b7f4e487b7100000000000000000000000000000000000000000000000000000000600052603160045260246000fd5b600060001982036125d4576125d4612521565b506001019056fea2646970667358221220a93623cb456c765493c98e7c88fe4a4b9bf64cbfc15738d5c086b2d842eae5c364736f6c63430008110033",
  "devdoc": {
    "kind": "dev",
    "methods": {
      "constructor": {
        "custom:oz-upgrades-unsafe-allow": "constructor"
      }
    },
    "version": 1
  },
  "userdoc": {
    "kind": "user",
    "methods": {},
    "version": 1
  },
  "storageLayout": {
    "storage": [
      {
        "astId": 281,
        "contract": "contracts/Contract.sol:Contract",
        "label": "_initialized",
        "offset": 0,
        "slot": "0",
        "type": "t_uint8"
      },
      {
        "astId": 284,
        "contract": "contracts/Contract.sol:Contract",
        "label": "_initializing",
        "offset": 1,
        "slot": "0",
        "type": "t_bool"
      },
      {
        "astId": 768,
        "contract": "contracts/Contract.sol:Contract",
        "label": "__gap",
        "offset": 0,
        "slot": "1",
        "type": "t_array(t_uint256)50_storage"
      },
      {
        "astId": 85,
        "contract": "contracts/Contract.sol:Contract",
        "label": "__gap",
        "offset": 0,
        "slot": "51",
        "type": "t_array(t_uint256)50_storage"
      },
      {
        "astId": 2900,
        "contract": "contracts/Contract.sol:Contract",
        "label": "admin",
        "offset": 0,
        "slot": "101",
        "type": "t_struct(Admin)2875_storage"
      },
      {
        "astId": 2903,
        "contract": "contracts/Contract.sol:Contract",
        "label": "doctors",
        "offset": 0,
        "slot": "106",
        "type": "t_struct(Doctors)2897_storage"
      },
      {
        "astId": 2906,
        "contract": "contracts/Contract.sol:Contract",
        "label": "patients",
        "offset": 0,
        "slot": "112",
        "type": "t_struct(Patients)2884_storage"
      },
      {
        "astId": 2908,
        "contract": "contracts/Contract.sol:Contract",
        "label": "initialized",
        "offset": 0,
        "slot": "117",
        "type": "t_bool"
      }
    ],
    "types": {
      "t_address": {
        "encoding": "inplace",
        "label": "address",
        "numberOfBytes": "20"
      },
      "t_array(t_address)dyn_storage": {
        "base": "t_address",
        "encoding": "dynamic_array",
        "label": "address[]",
        "numberOfBytes": "32"
      },
      "t_array(t_uint256)50_storage": {
        "base": "t_uint256",
        "encoding": "inplace",
        "label": "uint256[50]",
        "numberOfBytes": "1600"
      },
      "t_bool": {
        "encoding": "inplace",
        "label": "bool",
        "numberOfBytes": "1"
      },
      "t_mapping(t_address,t_bool)": {
        "encoding": "mapping",
        "key": "t_address",
        "label": "mapping(address => bool)",
        "numberOfBytes": "32",
        "value": "t_bool"
      },
      "t_mapping(t_address,t_string_storage)": {
        "encoding": "mapping",
        "key": "t_address",
        "label": "mapping(address => string)",
        "numberOfBytes": "32",
        "value": "t_string_storage"
      },
      "t_mapping(t_address,t_struct(Map)2334_storage)": {
        "encoding": "mapping",
        "key": "t_address",
        "label": "mapping(address => struct AddToBoolMapping.Map)",
        "numberOfBytes": "32",
        "value": "t_struct(Map)2334_storage"
      },
      "t_mapping(t_address,t_struct(MedicalRecord)2867_storage)": {
        "encoding": "mapping",
        "key": "t_address",
        "label": "mapping(address => struct Contract.MedicalRecord)",
        "numberOfBytes": "32",
        "value": "t_struct(MedicalRecord)2867_storage"
      },
      "t_mapping(t_address,t_uint256)": {
        "encoding": "mapping",
        "key": "t_address",
        "label": "mapping(address => uint256)",
        "numberOfBytes": "32",
        "value": "t_uint256"
      },
      "t_string_storage": {
        "encoding": "bytes",
        "label": "string",
        "numberOfBytes": "32"
      },
      "t_struct(Admin)2875_storage": {
        "encoding": "inplace",
        "label": "struct Contract.Admin",
        "members": [
          {
            "astId": 2869,
            "contract": "contracts/Contract.sol:Contract",
            "label": "user",
            "offset": 0,
            "slot": "0",
            "type": "t_address"
          },
          {
            "astId": 2871,
            "contract": "contracts/Contract.sol:Contract",
            "label": "public_key",
            "offset": 0,
            "slot": "1",
            "type": "t_string_storage"
          },
          {
            "astId": 2874,
            "contract": "contracts/Contract.sol:Contract",
            "label": "pending_doctors",
            "offset": 0,
            "slot": "2",
            "type": "t_struct(Map)2334_storage"
          }
        ],
        "numberOfBytes": "160"
      },
      "t_struct(Doctors)2897_storage": {
        "encoding": "inplace",
        "label": "struct Contract.Doctors",
        "members": [
          {
            "astId": 2887,
            "contract": "contracts/Contract.sol:Contract",
            "label": "users",
            "offset": 0,
            "slot": "0",
            "type": "t_struct(Role)3855_storage"
          },
          {
            "astId": 2891,
            "contract": "contracts/Contract.sol:Contract",
            "label": "public_keys",
            "offset": 0,
            "slot": "4",
            "type": "t_mapping(t_address,t_string_storage)"
          },
          {
            "astId": 2896,
            "contract": "contracts/Contract.sol:Contract",
            "label": "docToPatAccess",
            "offset": 0,
            "slot": "5",
            "type": "t_mapping(t_address,t_struct(Map)2334_storage)"
          }
        ],
        "numberOfBytes": "192"
      },
      "t_struct(Map)2334_storage": {
        "encoding": "inplace",
        "label": "struct AddToBoolMapping.Map",
        "members": [
          {
            "astId": 2325,
            "contract": "contracts/Contract.sol:Contract",
            "label": "keys",
            "offset": 0,
            "slot": "0",
            "type": "t_array(t_address)dyn_storage"
          },
          {
            "astId": 2329,
            "contract": "contracts/Contract.sol:Contract",
            "label": "values",
            "offset": 0,
            "slot": "1",
            "type": "t_mapping(t_address,t_bool)"
          },
          {
            "astId": 2333,
            "contract": "contracts/Contract.sol:Contract",
            "label": "indexOf",
            "offset": 0,
            "slot": "2",
            "type": "t_mapping(t_address,t_uint256)"
          }
        ],
        "numberOfBytes": "96"
      },
      "t_struct(Map)2525_storage": {
        "encoding": "inplace",
        "label": "struct AddToStrMapping.Map",
        "members": [
          {
            "astId": 2512,
            "contract": "contracts/Contract.sol:Contract",
            "label": "keys",
            "offset": 0,
            "slot": "0",
            "type": "t_array(t_address)dyn_storage"
          },
          {
            "astId": 2516,
            "contract": "contracts/Contract.sol:Contract",
            "label": "values",
            "offset": 0,
            "slot": "1",
            "type": "t_mapping(t_address,t_string_storage)"
          },
          {
            "astId": 2520,
            "contract": "contracts/Contract.sol:Contract",
            "label": "indexOf",
            "offset": 0,
            "slot": "2",
            "type": "t_mapping(t_address,t_uint256)"
          },
          {
            "astId": 2524,
            "contract": "contracts/Contract.sol:Contract",
            "label": "inserted",
            "offset": 0,
            "slot": "3",
            "type": "t_mapping(t_address,t_bool)"
          }
        ],
        "numberOfBytes": "128"
      },
      "t_struct(MedicalRecord)2867_storage": {
        "encoding": "inplace",
        "label": "struct Contract.MedicalRecord",
        "members": [
          {
            "astId": 2861,
            "contract": "contracts/Contract.sol:Contract",
            "label": "editor",
            "offset": 0,
            "slot": "0",
            "type": "t_address"
          },
          {
            "astId": 2864,
            "contract": "contracts/Contract.sol:Contract",
            "label": "viewers",
            "offset": 0,
            "slot": "1",
            "type": "t_array(t_address)dyn_storage"
          },
          {
            "astId": 2866,
            "contract": "contracts/Contract.sol:Contract",
            "label": "key_data_hash",
            "offset": 0,
            "slot": "2",
            "type": "t_string_storage"
          }
        ],
        "numberOfBytes": "96"
      },
      "t_struct(Patients)2884_storage": {
        "encoding": "inplace",
        "label": "struct Contract.Patients",
        "members": [
          {
            "astId": 2878,
            "contract": "contracts/Contract.sol:Contract",
            "label": "users",
            "offset": 0,
            "slot": "0",
            "type": "t_struct(Role)3855_storage"
          },
          {
            "astId": 2883,
            "contract": "contracts/Contract.sol:Contract",
            "label": "records",
            "offset": 0,
            "slot": "4",
            "type": "t_mapping(t_address,t_struct(MedicalRecord)2867_storage)"
          }
        ],
        "numberOfBytes": "160"
      },
      "t_struct(Role)3855_storage": {
        "encoding": "inplace",
        "label": "struct Roles.Role",
        "members": [
          {
            "astId": 3854,
            "contract": "contracts/Contract.sol:Contract",
            "label": "bearer",
            "offset": 0,
            "slot": "0",
            "type": "t_struct(Map)2525_storage"
          }
        ],
        "numberOfBytes": "128"
      },
      "t_uint256": {
        "encoding": "inplace",
        "label": "uint256",
        "numberOfBytes": "32"
      },
      "t_uint8": {
        "encoding": "inplace",
        "label": "uint8",
        "numberOfBytes": "1"
      }
    }
  }
}