{
  "address": "0x5FbDB2315678afecb367f032d93F642f64180aa3",
  "abi": [
    {
      "inputs": [],
      "stateMutability": "nonpayable",
      "type": "constructor"
    },
    {
      "inputs": [],
      "name": "Contract__NotAdmin",
      "type": "error"
    },
    {
      "inputs": [],
      "name": "Contract__NotDoctor",
      "type": "error"
    },
    {
      "inputs": [],
      "name": "Contract__NotPatient",
      "type": "error"
    },
    {
      "inputs": [
        {
          "internalType": "address",
          "name": "_address",
          "type": "address"
        },
        {
          "internalType": "string",
          "name": "_hash",
          "type": "string"
        }
      ],
      "name": "addDoctor",
      "outputs": [],
      "stateMutability": "nonpayable",
      "type": "function"
    },
    {
      "inputs": [],
      "name": "addPatient",
      "outputs": [],
      "stateMutability": "nonpayable",
      "type": "function"
    },
    {
      "inputs": [],
      "name": "getAdmin",
      "outputs": [
        {
          "internalType": "address",
          "name": "",
          "type": "address"
        }
      ],
      "stateMutability": "view",
      "type": "function"
    },
    {
      "inputs": [],
      "name": "getAllDrs",
      "outputs": [
        {
          "internalType": "address[]",
          "name": "",
          "type": "address[]"
        }
      ],
      "stateMutability": "view",
      "type": "function"
    },
    {
      "inputs": [],
      "name": "getAllPats",
      "outputs": [
        {
          "internalType": "address[]",
          "name": "",
          "type": "address[]"
        }
      ],
      "stateMutability": "view",
      "type": "function"
    },
    {
      "inputs": [
        {
          "internalType": "address",
          "name": "_address",
          "type": "address"
        }
      ],
      "name": "getDrHash",
      "outputs": [
        {
          "internalType": "string",
          "name": "",
          "type": "string"
        }
      ],
      "stateMutability": "view",
      "type": "function"
    },
    {
      "inputs": [
        {
          "internalType": "address",
          "name": "_address",
          "type": "address"
        }
      ],
      "name": "getPatHash",
      "outputs": [
        {
          "internalType": "string",
          "name": "",
          "type": "string"
        }
      ],
      "stateMutability": "view",
      "type": "function"
    },
    {
      "inputs": [
        {
          "internalType": "address",
          "name": "_address",
          "type": "address"
        }
      ],
      "name": "giveAccess",
      "outputs": [],
      "stateMutability": "nonpayable",
      "type": "function"
    },
    {
      "inputs": [
        {
          "internalType": "address",
          "name": "_address",
          "type": "address"
        }
      ],
      "name": "isAdmin",
      "outputs": [
        {
          "internalType": "bool",
          "name": "",
          "type": "bool"
        }
      ],
      "stateMutability": "view",
      "type": "function"
    },
    {
      "inputs": [
        {
          "internalType": "address",
          "name": "_address",
          "type": "address"
        }
      ],
      "name": "isDoctor",
      "outputs": [
        {
          "internalType": "bool",
          "name": "",
          "type": "bool"
        }
      ],
      "stateMutability": "view",
      "type": "function"
    },
    {
      "inputs": [
        {
          "internalType": "address",
          "name": "_address",
          "type": "address"
        }
      ],
      "name": "isPatient",
      "outputs": [
        {
          "internalType": "bool",
          "name": "",
          "type": "bool"
        }
      ],
      "stateMutability": "view",
      "type": "function"
    },
    {
      "inputs": [
        {
          "internalType": "address",
          "name": "_address",
          "type": "address"
        },
        {
          "internalType": "string",
          "name": "_hash",
          "type": "string"
        }
      ],
      "name": "setDrHash",
      "outputs": [],
      "stateMutability": "nonpayable",
      "type": "function"
    },
    {
      "inputs": [
        {
          "internalType": "address",
          "name": "_address",
          "type": "address"
        },
        {
          "internalType": "string",
          "name": "_hash",
          "type": "string"
        }
      ],
      "name": "setPatHash",
      "outputs": [],
      "stateMutability": "nonpayable",
      "type": "function"
    }
  ],
  "transactionHash": "0x542c08f3c6dc415196f184ede1b8c9cecfaea82af610ca9d2d64a9e368d48bd1",
  "args": [],
  "numDeployments": 1,
  "solcInputHash": "c1ed2e719bfac5ad5b9f7348c0b00aca",
  "bytecode": "0x60806040523480156200001157600080fd5b5033600360006101000a81548173ffffffffffffffffffffffffffffffffffffffff021916908373ffffffffffffffffffffffffffffffffffffffff1602179055506200006e3360006200007460201b62000bff1790919060201c565b6200030c565b6200008682826200012760201b60201c565b15620000c9576040517f08c379a0000000000000000000000000000000000000000000000000000000008152600401620000c09062000252565b60405180910390fd5b60018260000160008373ffffffffffffffffffffffffffffffffffffffff1673ffffffffffffffffffffffffffffffffffffffff16815260200190815260200160002060006101000a81548160ff0219169083151502179055505050565b60008073ffffffffffffffffffffffffffffffffffffffff168273ffffffffffffffffffffffffffffffffffffffff16036200019a576040517f08c379a00000000000000000000000000000000000000000000000000000000081526004016200019190620002ea565b60405180910390fd5b8260000160008373ffffffffffffffffffffffffffffffffffffffff1673ffffffffffffffffffffffffffffffffffffffff16815260200190815260200160002060009054906101000a900460ff16905092915050565b600082825260208201905092915050565b7f526f6c65733a206163636f756e7420616c72656164792068617320726f6c6500600082015250565b60006200023a601f83620001f1565b9150620002478262000202565b602082019050919050565b600060208201905081810360008301526200026d816200022b565b9050919050565b7f526f6c65733a206163636f756e7420697320746865207a65726f20616464726560008201527f7373000000000000000000000000000000000000000000000000000000000000602082015250565b6000620002d2602283620001f1565b9150620002df8262000274565b604082019050919050565b600060208201905081810360008301526200030581620002c3565b9050919050565b611684806200031c6000396000f3fe608060405234801561001057600080fd5b50600436106100cf5760003560e01c80636e9960c31161008c578063996440c611610066578063996440c614610212578063a505612b14610242578063cce9d43e1461024c578063cf12e8701461027c576100cf565b80636e9960c3146101a85780637cf1e445146101c65780638f9c79ed146101e2576100cf565b8063178621a2146100d45780631da3e2dc146100f057806324d7806c1461010e5780634c6423e91461013e5780635a8d091f1461016e5780635ced594b1461018a575b600080fd5b6100ee60048036038101906100e99190610f26565b610298565b005b6100f861043c565b6040516101059190611040565b60405180910390f35b61012860048036038101906101239190611062565b6104ca565b60405161013591906110aa565b60405180910390f35b61015860048036038101906101539190611062565b6104e7565b6040516101659190611144565b60405180910390f35b61018860048036038101906101839190610f26565b6106f9565b005b610192610794565b60405161019f9190611040565b60405180910390f35b6101b0610822565b6040516101bd9190611175565b60405180910390f35b6101e060048036038101906101db9190610f26565b61084c565b005b6101fc60048036038101906101f79190611062565b61091b565b60405161020991906110aa565b60405180910390f35b61022c60048036038101906102279190611062565b610938565b60405161023991906110aa565b60405180910390f35b61024a610955565b005b61026660048036038101906102619190611062565b6109ce565b6040516102739190611144565b60405180910390f35b61029660048036038101906102919190611062565b610ade565b005b6102ac336001610ca790919063ffffffff16565b6102e2576040517ffe2fc9c600000000000000000000000000000000000000000000000000000000815260040160405180910390fd5b6102eb8261091b565b610321576040517fc11330e600000000000000000000000000000000000000000000000000000000815260040160405180910390fd5b600860008373ffffffffffffffffffffffffffffffffffffffff1673ffffffffffffffffffffffffffffffffffffffff16815260200190815260200160002060003373ffffffffffffffffffffffffffffffffffffffff1673ffffffffffffffffffffffffffffffffffffffff16815260200190815260200160002060009054906101000a900460ff16156103eb576040517f08c379a00000000000000000000000000000000000000000000000000000000081526004016103e2906111dc565b60405180910390fd5b80600760008473ffffffffffffffffffffffffffffffffffffffff1673ffffffffffffffffffffffffffffffffffffffff16815260200190815260200160002090816104379190611412565b505050565b606060048054806020026020016040519081016040528092919081815260200182805480156104c057602002820191906000526020600020905b8160009054906101000a900473ffffffffffffffffffffffffffffffffffffffff1673ffffffffffffffffffffffffffffffffffffffff1681526020019060010190808311610476575b5050505050905090565b60006104e0826000610ca790919063ffffffff16565b9050919050565b60606104f28261091b565b610528576040517fc11330e600000000000000000000000000000000000000000000000000000000815260040160405180910390fd5b8173ffffffffffffffffffffffffffffffffffffffff163373ffffffffffffffffffffffffffffffffffffffff16141580156105ea5750600860008373ffffffffffffffffffffffffffffffffffffffff1673ffffffffffffffffffffffffffffffffffffffff16815260200190815260200160002060003373ffffffffffffffffffffffffffffffffffffffff1673ffffffffffffffffffffffffffffffffffffffff16815260200190815260200160002060009054906101000a900460ff165b1561062a576040517f08c379a000000000000000000000000000000000000000000000000000000000815260040161062190611530565b60405180910390fd5b600760008373ffffffffffffffffffffffffffffffffffffffff1673ffffffffffffffffffffffffffffffffffffffff16815260200190815260200160002080546106749061122b565b80601f01602080910402602001604051908101604052809291908181526020018280546106a09061122b565b80156106ed5780601f106106c2576101008083540402835291602001916106ed565b820191906000526020600020905b8154815290600101906020018083116106d057829003601f168201915b50505050509050919050565b61070d336000610ca790919063ffffffff16565b610743576040517f4d371dc700000000000000000000000000000000000000000000000000000000815260040160405180910390fd5b80600660008473ffffffffffffffffffffffffffffffffffffffff1673ffffffffffffffffffffffffffffffffffffffff168152602001908152602001600020908161078f9190611412565b505050565b6060600580548060200260200160405190810160405280929190818152602001828054801561081857602002820191906000526020600020905b8160009054906101000a900473ffffffffffffffffffffffffffffffffffffffff1673ffffffffffffffffffffffffffffffffffffffff16815260200190600101908083116107ce575b5050505050905090565b6000600360009054906101000a900473ffffffffffffffffffffffffffffffffffffffff16905090565b610860336000610ca790919063ffffffff16565b610896576040517f4d371dc700000000000000000000000000000000000000000000000000000000815260040160405180910390fd5b6108aa826001610bff90919063ffffffff16565b6004829080600181540180825580915050600190039060005260206000200160009091909190916101000a81548173ffffffffffffffffffffffffffffffffffffffff021916908373ffffffffffffffffffffffffffffffffffffffff16021790555061091782826106f9565b5050565b6000610931826002610ca790919063ffffffff16565b9050919050565b600061094e826001610ca790919063ffffffff16565b9050919050565b610969336002610bff90919063ffffffff16565b6005339080600181540180825580915050600190039060005260206000200160009091909190916101000a81548173ffffffffffffffffffffffffffffffffffffffff021916908373ffffffffffffffffffffffffffffffffffffffff160217905550565b60606109d982610938565b610a0f576040517ffe2fc9c600000000000000000000000000000000000000000000000000000000815260040160405180910390fd5b600660008373ffffffffffffffffffffffffffffffffffffffff1673ffffffffffffffffffffffffffffffffffffffff1681526020019081526020016000208054610a599061122b565b80601f0160208091040260200160405190810160405280929190818152602001828054610a859061122b565b8015610ad25780601f10610aa757610100808354040283529160200191610ad2565b820191906000526020600020905b815481529060010190602001808311610ab557829003601f168201915b50505050509050919050565b610af2336002610ca790919063ffffffff16565b610b28576040517fc11330e600000000000000000000000000000000000000000000000000000000815260040160405180910390fd5b610b3181610938565b610b67576040517ffe2fc9c600000000000000000000000000000000000000000000000000000000815260040160405180910390fd5b6001600860003373ffffffffffffffffffffffffffffffffffffffff1673ffffffffffffffffffffffffffffffffffffffff16815260200190815260200160002060008373ffffffffffffffffffffffffffffffffffffffff1673ffffffffffffffffffffffffffffffffffffffff16815260200190815260200160002060006101000a81548160ff02191690831515021790555050565b610c098282610ca7565b15610c49576040517f08c379a0000000000000000000000000000000000000000000000000000000008152600401610c409061159c565b60405180910390fd5b60018260000160008373ffffffffffffffffffffffffffffffffffffffff1673ffffffffffffffffffffffffffffffffffffffff16815260200190815260200160002060006101000a81548160ff0219169083151502179055505050565b60008073ffffffffffffffffffffffffffffffffffffffff168273ffffffffffffffffffffffffffffffffffffffff1603610d17576040517f08c379a0000000000000000000000000000000000000000000000000000000008152600401610d0e9061162e565b60405180910390fd5b8260000160008373ffffffffffffffffffffffffffffffffffffffff1673ffffffffffffffffffffffffffffffffffffffff16815260200190815260200160002060009054906101000a900460ff16905092915050565b6000604051905090565b600080fd5b600080fd5b600073ffffffffffffffffffffffffffffffffffffffff82169050919050565b6000610dad82610d82565b9050919050565b610dbd81610da2565b8114610dc857600080fd5b50565b600081359050610dda81610db4565b92915050565b600080fd5b600080fd5b6000601f19601f8301169050919050565b7f4e487b7100000000000000000000000000000000000000000000000000000000600052604160045260246000fd5b610e3382610dea565b810181811067ffffffffffffffff82111715610e5257610e51610dfb565b5b80604052505050565b6000610e65610d6e565b9050610e718282610e2a565b919050565b600067ffffffffffffffff821115610e9157610e90610dfb565b5b610e9a82610dea565b9050602081019050919050565b82818337600083830152505050565b6000610ec9610ec484610e76565b610e5b565b905082815260208101848484011115610ee557610ee4610de5565b5b610ef0848285610ea7565b509392505050565b600082601f830112610f0d57610f0c610de0565b5b8135610f1d848260208601610eb6565b91505092915050565b60008060408385031215610f3d57610f3c610d78565b5b6000610f4b85828601610dcb565b925050602083013567ffffffffffffffff811115610f6c57610f6b610d7d565b5b610f7885828601610ef8565b9150509250929050565b600081519050919050565b600082825260208201905092915050565b6000819050602082019050919050565b610fb781610da2565b82525050565b6000610fc98383610fae565b60208301905092915050565b6000602082019050919050565b6000610fed82610f82565b610ff78185610f8d565b935061100283610f9e565b8060005b8381101561103357815161101a8882610fbd565b975061102583610fd5565b925050600181019050611006565b5085935050505092915050565b6000602082019050818103600083015261105a8184610fe2565b905092915050565b60006020828403121561107857611077610d78565b5b600061108684828501610dcb565b91505092915050565b60008115159050919050565b6110a48161108f565b82525050565b60006020820190506110bf600083018461109b565b92915050565b600081519050919050565b600082825260208201905092915050565b60005b838110156110ff5780820151818401526020810190506110e4565b60008484015250505050565b6000611116826110c5565b61112081856110d0565b93506111308185602086016110e1565b61113981610dea565b840191505092915050565b6000602082019050818103600083015261115e818461110b565b905092915050565b61116f81610da2565b82525050565b600060208201905061118a6000830184611166565b92915050565b7f4e6f7420416c6c6f776564210000000000000000000000000000000000000000600082015250565b60006111c6600c836110d0565b91506111d182611190565b602082019050919050565b600060208201905081810360008301526111f5816111b9565b9050919050565b7f4e487b7100000000000000000000000000000000000000000000000000000000600052602260045260246000fd5b6000600282049050600182168061124357607f821691505b602082108103611256576112556111fc565b5b50919050565b60008190508160005260206000209050919050565b60006020601f8301049050919050565b600082821b905092915050565b6000600883026112be7fffffffffffffffffffffffffffffffffffffffffffffffffffffffffffffffff82611281565b6112c88683611281565b95508019841693508086168417925050509392505050565b6000819050919050565b6000819050919050565b600061130f61130a611305846112e0565b6112ea565b6112e0565b9050919050565b6000819050919050565b611329836112f4565b61133d61133582611316565b84845461128e565b825550505050565b600090565b611352611345565b61135d818484611320565b505050565b5b818110156113815761137660008261134a565b600181019050611363565b5050565b601f8211156113c6576113978161125c565b6113a084611271565b810160208510156113af578190505b6113c36113bb85611271565b830182611362565b50505b505050565b600082821c905092915050565b60006113e9600019846008026113cb565b1980831691505092915050565b600061140283836113d8565b9150826002028217905092915050565b61141b826110c5565b67ffffffffffffffff81111561143457611433610dfb565b5b61143e825461122b565b611449828285611385565b600060209050601f83116001811461147c576000841561146a578287015190505b61147485826113f6565b8655506114dc565b601f19841661148a8661125c565b60005b828110156114b25784890151825560018201915060208501945060208101905061148d565b868310156114cf57848901516114cb601f8916826113d8565b8355505b6001600288020188555050505b505050505050565b7f4e6f7720416c6c6f776564210000000000000000000000000000000000000000600082015250565b600061151a600c836110d0565b9150611525826114e4565b602082019050919050565b600060208201905081810360008301526115498161150d565b9050919050565b7f526f6c65733a206163636f756e7420616c72656164792068617320726f6c6500600082015250565b6000611586601f836110d0565b915061159182611550565b602082019050919050565b600060208201905081810360008301526115b581611579565b9050919050565b7f526f6c65733a206163636f756e7420697320746865207a65726f20616464726560008201527f7373000000000000000000000000000000000000000000000000000000000000602082015250565b60006116186022836110d0565b9150611623826115bc565b604082019050919050565b600060208201905081810360008301526116478161160b565b905091905056fea2646970667358221220abdc237e052f24742f41bb0f108d00027458590d9b2fc4787fd4ba16a8d69eba64736f6c63430008110033",
  "devdoc": {
    "kind": "dev",
    "methods": {},
    "version": 1
  },
  "userdoc": {
    "kind": "user",
    "methods": {},
    "version": 1
  },
  "storageLayout": {
    "storage": [
      {
        "astId": 15,
        "contract": "contracts/Contract.sol:Contract",
        "label": "admin",
        "offset": 0,
        "slot": "0",
        "type": "t_struct(Role)351_storage"
      },
      {
        "astId": 18,
        "contract": "contracts/Contract.sol:Contract",
        "label": "doctor",
        "offset": 0,
        "slot": "1",
        "type": "t_struct(Role)351_storage"
      },
      {
        "astId": 21,
        "contract": "contracts/Contract.sol:Contract",
        "label": "patient",
        "offset": 0,
        "slot": "2",
        "type": "t_struct(Role)351_storage"
      },
      {
        "astId": 23,
        "contract": "contracts/Contract.sol:Contract",
        "label": "admin_id",
        "offset": 0,
        "slot": "3",
        "type": "t_address"
      },
      {
        "astId": 26,
        "contract": "contracts/Contract.sol:Contract",
        "label": "dr_ids",
        "offset": 0,
        "slot": "4",
        "type": "t_array(t_address)dyn_storage"
      },
      {
        "astId": 29,
        "contract": "contracts/Contract.sol:Contract",
        "label": "pat_ids",
        "offset": 0,
        "slot": "5",
        "type": "t_array(t_address)dyn_storage"
      },
      {
        "astId": 33,
        "contract": "contracts/Contract.sol:Contract",
        "label": "Doctors",
        "offset": 0,
        "slot": "6",
        "type": "t_mapping(t_address,t_string_storage)"
      },
      {
        "astId": 37,
        "contract": "contracts/Contract.sol:Contract",
        "label": "Patients",
        "offset": 0,
        "slot": "7",
        "type": "t_mapping(t_address,t_string_storage)"
      },
      {
        "astId": 43,
        "contract": "contracts/Contract.sol:Contract",
        "label": "Access",
        "offset": 0,
        "slot": "8",
        "type": "t_mapping(t_address,t_mapping(t_address,t_bool))"
      }
    ],
    "types": {
      "t_address": {
        "encoding": "inplace",
        "label": "address",
        "numberOfBytes": "20"
      },
      "t_array(t_address)dyn_storage": {
        "base": "t_address",
        "encoding": "dynamic_array",
        "label": "address[]",
        "numberOfBytes": "32"
      },
      "t_bool": {
        "encoding": "inplace",
        "label": "bool",
        "numberOfBytes": "1"
      },
      "t_mapping(t_address,t_bool)": {
        "encoding": "mapping",
        "key": "t_address",
        "label": "mapping(address => bool)",
        "numberOfBytes": "32",
        "value": "t_bool"
      },
      "t_mapping(t_address,t_mapping(t_address,t_bool))": {
        "encoding": "mapping",
        "key": "t_address",
        "label": "mapping(address => mapping(address => bool))",
        "numberOfBytes": "32",
        "value": "t_mapping(t_address,t_bool)"
      },
      "t_mapping(t_address,t_string_storage)": {
        "encoding": "mapping",
        "key": "t_address",
        "label": "mapping(address => string)",
        "numberOfBytes": "32",
        "value": "t_string_storage"
      },
      "t_string_storage": {
        "encoding": "bytes",
        "label": "string",
        "numberOfBytes": "32"
      },
      "t_struct(Role)351_storage": {
        "encoding": "inplace",
        "label": "struct Roles.Role",
        "members": [
          {
            "astId": 350,
            "contract": "contracts/Contract.sol:Contract",
            "label": "bearer",
            "offset": 0,
            "slot": "0",
            "type": "t_mapping(t_address,t_bool)"
          }
        ],
        "numberOfBytes": "32"
      }
    }
  }
}