{
  "address": "0x5FbDB2315678afecb367f032d93F642f64180aa3",
  "abi": [
    {
      "inputs": [],
      "stateMutability": "nonpayable",
      "type": "constructor"
    },
    {
      "inputs": [],
      "name": "Contract__DoctorPublicKeyMissing",
      "type": "error"
    },
    {
      "inputs": [],
      "name": "Contract__NotAdmin",
      "type": "error"
    },
    {
      "inputs": [],
      "name": "Contract__NotDoctor",
      "type": "error"
    },
    {
      "inputs": [],
      "name": "Contract__NotPatient",
      "type": "error"
    },
    {
      "inputs": [],
      "name": "Contract__PendingDoctorApproval",
      "type": "error"
    },
    {
      "inputs": [
        {
          "internalType": "string",
          "name": "_hash",
          "type": "string"
        }
      ],
      "name": "addDoctor",
      "outputs": [],
      "stateMutability": "nonpayable",
      "type": "function"
    },
    {
      "inputs": [
        {
          "internalType": "string",
          "name": "_hash",
          "type": "string"
        },
        {
          "internalType": "string",
          "name": "_key_data_hash",
          "type": "string"
        }
      ],
      "name": "addPatient",
      "outputs": [],
      "stateMutability": "nonpayable",
      "type": "function"
    },
    {
      "inputs": [
        {
          "internalType": "address",
          "name": "_address",
          "type": "address"
        }
      ],
      "name": "approveDoctor",
      "outputs": [],
      "stateMutability": "nonpayable",
      "type": "function"
    },
    {
      "inputs": [
        {
          "internalType": "address",
          "name": "_address",
          "type": "address"
        }
      ],
      "name": "changeEditorAccess",
      "outputs": [],
      "stateMutability": "nonpayable",
      "type": "function"
    },
    {
      "inputs": [
        {
          "internalType": "string",
          "name": "_public_key",
          "type": "string"
        }
      ],
      "name": "confirmAddDr",
      "outputs": [],
      "stateMutability": "nonpayable",
      "type": "function"
    },
    {
      "inputs": [],
      "name": "getAdmin",
      "outputs": [
        {
          "internalType": "address",
          "name": "",
          "type": "address"
        }
      ],
      "stateMutability": "view",
      "type": "function"
    },
    {
      "inputs": [],
      "name": "getAllDrs",
      "outputs": [
        {
          "internalType": "address[]",
          "name": "",
          "type": "address[]"
        }
      ],
      "stateMutability": "view",
      "type": "function"
    },
    {
      "inputs": [],
      "name": "getAllPats",
      "outputs": [
        {
          "internalType": "address[]",
          "name": "",
          "type": "address[]"
        }
      ],
      "stateMutability": "view",
      "type": "function"
    },
    {
      "inputs": [],
      "name": "getDocPats",
      "outputs": [
        {
          "internalType": "address[]",
          "name": "",
          "type": "address[]"
        }
      ],
      "stateMutability": "view",
      "type": "function"
    },
    {
      "inputs": [
        {
          "internalType": "address",
          "name": "_address",
          "type": "address"
        }
      ],
      "name": "getDrHash",
      "outputs": [
        {
          "internalType": "string",
          "name": "",
          "type": "string"
        }
      ],
      "stateMutability": "view",
      "type": "function"
    },
    {
      "inputs": [
        {
          "internalType": "address",
          "name": "_address",
          "type": "address"
        }
      ],
      "name": "getDrPubKey",
      "outputs": [
        {
          "internalType": "string",
          "name": "",
          "type": "string"
        }
      ],
      "stateMutability": "view",
      "type": "function"
    },
    {
      "inputs": [],
      "name": "getPatDr",
      "outputs": [
        {
          "internalType": "address",
          "name": "",
          "type": "address"
        }
      ],
      "stateMutability": "view",
      "type": "function"
    },
    {
      "inputs": [
        {
          "internalType": "address",
          "name": "_address",
          "type": "address"
        }
      ],
      "name": "getPatGeneralHash",
      "outputs": [
        {
          "internalType": "string",
          "name": "",
          "type": "string"
        }
      ],
      "stateMutability": "view",
      "type": "function"
    },
    {
      "inputs": [
        {
          "internalType": "address",
          "name": "_address",
          "type": "address"
        }
      ],
      "name": "getPatRecordHash",
      "outputs": [
        {
          "internalType": "string",
          "name": "",
          "type": "string"
        }
      ],
      "stateMutability": "view",
      "type": "function"
    },
    {
      "inputs": [],
      "name": "getPatViewers",
      "outputs": [
        {
          "internalType": "address[]",
          "name": "",
          "type": "address[]"
        }
      ],
      "stateMutability": "view",
      "type": "function"
    },
    {
      "inputs": [
        {
          "internalType": "address",
          "name": "_address",
          "type": "address"
        }
      ],
      "name": "grantViewerAccess",
      "outputs": [],
      "stateMutability": "nonpayable",
      "type": "function"
    },
    {
      "inputs": [
        {
          "internalType": "address",
          "name": "_address",
          "type": "address"
        }
      ],
      "name": "isAdmin",
      "outputs": [
        {
          "internalType": "bool",
          "name": "",
          "type": "bool"
        }
      ],
      "stateMutability": "view",
      "type": "function"
    },
    {
      "inputs": [
        {
          "internalType": "address",
          "name": "_address",
          "type": "address"
        }
      ],
      "name": "isDoctor",
      "outputs": [
        {
          "internalType": "bool",
          "name": "",
          "type": "bool"
        }
      ],
      "stateMutability": "view",
      "type": "function"
    },
    {
      "inputs": [
        {
          "internalType": "address",
          "name": "_address",
          "type": "address"
        }
      ],
      "name": "isPatient",
      "outputs": [
        {
          "internalType": "bool",
          "name": "",
          "type": "bool"
        }
      ],
      "stateMutability": "view",
      "type": "function"
    },
    {
      "inputs": [],
      "name": "removeEditorAccess",
      "outputs": [],
      "stateMutability": "nonpayable",
      "type": "function"
    },
    {
      "inputs": [
        {
          "internalType": "address",
          "name": "_address",
          "type": "address"
        }
      ],
      "name": "revokeViewerAccess",
      "outputs": [],
      "stateMutability": "nonpayable",
      "type": "function"
    },
    {
      "inputs": [
        {
          "internalType": "string",
          "name": "_hash",
          "type": "string"
        }
      ],
      "name": "setDrHash",
      "outputs": [],
      "stateMutability": "nonpayable",
      "type": "function"
    },
    {
      "inputs": [
        {
          "internalType": "string",
          "name": "_hash",
          "type": "string"
        }
      ],
      "name": "setPatGeneralHash",
      "outputs": [],
      "stateMutability": "nonpayable",
      "type": "function"
    },
    {
      "inputs": [
        {
          "internalType": "address",
          "name": "_address",
          "type": "address"
        },
        {
          "internalType": "string",
          "name": "_hash",
          "type": "string"
        }
      ],
      "name": "setPatRecordHash",
      "outputs": [],
      "stateMutability": "nonpayable",
      "type": "function"
    }
  ],
  "transactionHash": "0xbab05d25c0a3df00c725e181ff494eaca0258bda55f902d79f299752dff492bc",
  "args": [],
  "numDeployments": 1,
  "solcInputHash": "e1d6e1cef1b45b1e628e9d5eecbe14b1",
  "bytecode": "0x608060405234801561001057600080fd5b50336000800160006101000a81548173ffffffffffffffffffffffffffffffffffffffff021916908373ffffffffffffffffffffffffffffffffffffffff16021790555061352e806100636000396000f3fe608060405234801561001057600080fd5b50600436106101585760003560e01c80638f472639116100c3578063cce9d43e1161007c578063cce9d43e146103b3578063dc823aaf146103e3578063dd36d4ae14610413578063df70345c1461042f578063ecfe0cbe1461044b578063f7a03a1e1461046757610158565b80638f472639146102df5780638f7f43a9146102fd5780638f9c79ed1461031b578063996440c61461034b57806399eedd2a1461037b578063b1e758a41461039757610158565b806339b0f9221161011557806339b0f9221461020b5780635ced594b1461023b5780636160a5c2146102595780636650b3f0146102755780636e9960c3146102a55780637428197f146102c357610158565b80630be617001461015d5780630d52fb4d146101795780631d613801146101975780631da3e2dc146101a1578063239ee6c1146101bf57806324d7806c146101db575b600080fd5b61017760048036038101906101729190612a5e565b610483565b005b6101816104fa565b60405161018e9190612b97565b60405180910390f35b61019f6106ed565b005b6101a9610872565b6040516101b69190612b97565b60405180910390f35b6101d960048036038101906101d49190612bb9565b610886565b005b6101f560048036038101906101f09190612c5d565b61093a565b6040516102029190612ca5565b60405180910390f35b61022560048036038101906102209190612c5d565b6109a6565b6040516102329190612d3f565b60405180910390f35b610243610cd1565b6040516102509190612b97565b60405180910390f35b610273600480360381019061026e9190612c5d565b610ce5565b005b61028f600480360381019061028a9190612c5d565b610d68565b60405161029c9190612d3f565b60405180910390f35b6102ad610fdc565b6040516102ba9190612d70565b60405180910390f35b6102dd60048036038101906102d89190612a5e565b611008565b005b6102e7611063565b6040516102f49190612d70565b60405180910390f35b61030561110f565b6040516103129190612b97565b60405180910390f35b61033560048036038101906103309190612c5d565b61121f565b6040516103429190612ca5565b60405180910390f35b61036560048036038101906103609190612c5d565b61123f565b6040516103729190612ca5565b60405180910390f35b61039560048036038101906103909190612a5e565b6112f2565b005b6103b160048036038101906103ac9190612c5d565b611474565b005b6103cd60048036038101906103c89190612c5d565b61167c565b6040516103da9190612d3f565b60405180910390f35b6103fd60048036038101906103f89190612c5d565b6116db565b60405161040a9190612d3f565b60405180910390f35b61042d60048036038101906104289190612d8b565b6117ae565b005b61044960048036038101906104449190612c5d565b61194d565b005b61046560048036038101906104609190612a5e565b611b65565b005b610481600480360381019061047c9190612c5d565b611c96565b005b60008151036104c7576040517f08c379a00000000000000000000000000000000000000000000000000000000081526004016104be90612e59565b60405180910390fd5b6104e033826004600001611d6f9092919063ffffffff16565b6104f7336000600101611dd690919063ffffffff16565b50565b6060610513336004600001611f3a90919063ffffffff16565b610549576040517ffe2fc9c600000000000000000000000000000000000000000000000000000000815260040160405180910390fd5b610560336000600101611fcd90919063ffffffff16565b15610597576040517ff873d3b700000000000000000000000000000000000000000000000000000000815260040160405180910390fd5b60006004800160003373ffffffffffffffffffffffffffffffffffffffff1673ffffffffffffffffffffffffffffffffffffffff16815260200190815260200160002080546105e590612ea8565b90500361061e576040517fa30132d500000000000000000000000000000000000000000000000000000000815260040160405180910390fd5b600460050160003373ffffffffffffffffffffffffffffffffffffffff1673ffffffffffffffffffffffffffffffffffffffff1681526020019081526020016000206000018054806020026020016040519081016040528092919081815260200182805480156106e357602002820191906000526020600020905b8160009054906101000a900473ffffffffffffffffffffffffffffffffffffffff1673ffffffffffffffffffffffffffffffffffffffff1681526020019060010190808311610699575b5050505050905090565b6106f63361121f565b61072c576040517fc11330e600000000000000000000000000000000000000000000000000000000815260040160405180910390fd5b6000600a60040160003373ffffffffffffffffffffffffffffffffffffffff1673ffffffffffffffffffffffffffffffffffffffff16815260200190815260200160002060000160009054906101000a900473ffffffffffffffffffffffffffffffffffffffff1690506000600a60040160003373ffffffffffffffffffffffffffffffffffffffff1673ffffffffffffffffffffffffffffffffffffffff16815260200190815260200160002060000160006101000a81548173ffffffffffffffffffffffffffffffffffffffff021916908373ffffffffffffffffffffffffffffffffffffffff16021790555061086f33600460050160008473ffffffffffffffffffffffffffffffffffffffff1673ffffffffffffffffffffffffffffffffffffffff16815260200190815260200160002061202690919063ffffffff16565b50565b606061088160046000016122a9565b905090565b60008251036108ca576040517f08c379a00000000000000000000000000000000000000000000000000000000081526004016108c190612f4b565b60405180910390fd5b6108e33383600a600001611d6f9092919063ffffffff16565b80600a60040160003373ffffffffffffffffffffffffffffffffffffffff1673ffffffffffffffffffffffffffffffffffffffff16815260200190815260200160002060020190816109359190613121565b505050565b60008173ffffffffffffffffffffffffffffffffffffffff166000800160009054906101000a900473ffffffffffffffffffffffffffffffffffffffff1673ffffffffffffffffffffffffffffffffffffffff160361099c57600190506109a1565b600090505b919050565b60606109b18261121f565b6109e7576040517fc11330e600000000000000000000000000000000000000000000000000000000815260040160405180910390fd5b8173ffffffffffffffffffffffffffffffffffffffff163373ffffffffffffffffffffffffffffffffffffffff161480610ab157503373ffffffffffffffffffffffffffffffffffffffff16600a60040160008473ffffffffffffffffffffffffffffffffffffffff1673ffffffffffffffffffffffffffffffffffffffff16815260200190815260200160002060000160009054906101000a900473ffffffffffffffffffffffffffffffffffffffff1673ffffffffffffffffffffffffffffffffffffffff16145b80610bb757507fffffffffffffffffffffffffffffffffffffffffffffffffffffffffffffffff610bb433600a60040160008673ffffffffffffffffffffffffffffffffffffffff1673ffffffffffffffffffffffffffffffffffffffff168152602001908152602001600020600101805480602002602001604051908101604052809291908181526020018280548015610ba157602002820191906000526020600020905b8160009054906101000a900473ffffffffffffffffffffffffffffffffffffffff1673ffffffffffffffffffffffffffffffffffffffff1681526020019060010190808311610b57575b505050505061233e90919063ffffffff16565b14155b15610c9157600a60040160008373ffffffffffffffffffffffffffffffffffffffff1673ffffffffffffffffffffffffffffffffffffffff1681526020019081526020016000206002018054610c0c90612ea8565b80601f0160208091040260200160405190810160405280929190818152602001828054610c3890612ea8565b8015610c855780601f10610c5a57610100808354040283529160200191610c85565b820191906000526020600020905b815481529060010190602001808311610c6857829003601f168201915b50505050509050610ccc565b6040517f08c379a0000000000000000000000000000000000000000000000000000000008152600401610cc39061323f565b60405180910390fd5b919050565b6060610ce0600a6000016122a9565b905090565b610cee3361093a565b610d24576040517f4d371dc700000000000000000000000000000000000000000000000000000000815260040160405180910390fd5b610d2d8161123f565b610d6557610d48816004600001611f3a90919063ffffffff16565b15610d6557610d6481600060010161202690919063ffffffff16565b5b50565b6060610d738261121f565b610da9576040517fc11330e600000000000000000000000000000000000000000000000000000000815260040160405180910390fd5b8173ffffffffffffffffffffffffffffffffffffffff163373ffffffffffffffffffffffffffffffffffffffff161480610e7357503373ffffffffffffffffffffffffffffffffffffffff16600a60040160008473ffffffffffffffffffffffffffffffffffffffff1673ffffffffffffffffffffffffffffffffffffffff16815260200190815260200160002060000160009054906101000a900473ffffffffffffffffffffffffffffffffffffffff1673ffffffffffffffffffffffffffffffffffffffff16145b80610f7957507fffffffffffffffffffffffffffffffffffffffffffffffffffffffffffffffff610f7633600a60040160008673ffffffffffffffffffffffffffffffffffffffff1673ffffffffffffffffffffffffffffffffffffffff168152602001908152602001600020600101805480602002602001604051908101604052809291908181526020018280548015610f6357602002820191906000526020600020905b8160009054906101000a900473ffffffffffffffffffffffffffffffffffffffff1673ffffffffffffffffffffffffffffffffffffffff1681526020019060010190808311610f19575b505050505061233e90919063ffffffff16565b14155b15610f9c57610f9582600a6000016123e390919063ffffffff16565b9050610fd7565b6040517f08c379a0000000000000000000000000000000000000000000000000000000008152600401610fce9061323f565b60405180910390fd5b919050565b60008060000160009054906101000a900473ffffffffffffffffffffffffffffffffffffffff16905090565b6110113361121f565b611047576040517fc11330e600000000000000000000000000000000000000000000000000000000815260040160405180910390fd5b6110603382600a6000016124039092919063ffffffff16565b50565b600061106e3361121f565b6110a4576040517fc11330e600000000000000000000000000000000000000000000000000000000815260040160405180910390fd5b600a60040160003373ffffffffffffffffffffffffffffffffffffffff1673ffffffffffffffffffffffffffffffffffffffff16815260200190815260200160002060000160009054906101000a900473ffffffffffffffffffffffffffffffffffffffff16905090565b606061111a3361121f565b611150576040517fc11330e600000000000000000000000000000000000000000000000000000000815260040160405180910390fd5b600a60040160003373ffffffffffffffffffffffffffffffffffffffff1673ffffffffffffffffffffffffffffffffffffffff16815260200190815260200160002060010180548060200260200160405190810160405280929190818152602001828054801561121557602002820191906000526020600020905b8160009054906101000a900473ffffffffffffffffffffffffffffffffffffffff1673ffffffffffffffffffffffffffffffffffffffff16815260200190600101908083116111cb575b5050505050905090565b600061123882600a600001611f3a90919063ffffffff16565b9050919050565b6000611258826004600001611f3a90919063ffffffff16565b61126557600090506112ed565b61127c826000600101611fcd90919063ffffffff16565b1561128a57600090506112ed565b60006004800160008473ffffffffffffffffffffffffffffffffffffffff1673ffffffffffffffffffffffffffffffffffffffff16815260200190815260200160002080546112d890612ea8565b9050036112e857600090506112ed565b600190505b919050565b611309336004600001611f3a90919063ffffffff16565b61133f576040517ffe2fc9c600000000000000000000000000000000000000000000000000000000815260040160405180910390fd5b611356336000600101611fcd90919063ffffffff16565b1561138d576040517ff873d3b700000000000000000000000000000000000000000000000000000000815260040160405180910390fd5b60006004800160003373ffffffffffffffffffffffffffffffffffffffff1673ffffffffffffffffffffffffffffffffffffffff16815260200190815260200160002080546113db90612ea8565b905003611414576040517fa30132d500000000000000000000000000000000000000000000000000000000815260040160405180910390fd5b6000815103611458576040517f08c379a000000000000000000000000000000000000000000000000000000000815260040161144f90612e59565b60405180910390fd5b611471338260046000016124039092919063ffffffff16565b50565b61147d3361121f565b6114b3576040517fc11330e600000000000000000000000000000000000000000000000000000000815260040160405180910390fd5b6114bc8161123f565b6114f2576040517ffe2fc9c600000000000000000000000000000000000000000000000000000000815260040160405180910390fd5b6115ce81600a60040160003373ffffffffffffffffffffffffffffffffffffffff1673ffffffffffffffffffffffffffffffffffffffff1681526020019081526020016000206001018054806020026020016040519081016040528092919081815260200182805480156115bb57602002820191906000526020600020905b8160009054906101000a900473ffffffffffffffffffffffffffffffffffffffff1673ffffffffffffffffffffffffffffffffffffffff1681526020019060010190808311611571575b505050505061242090919063ffffffff16565b61167957600a60040160003373ffffffffffffffffffffffffffffffffffffffff1673ffffffffffffffffffffffffffffffffffffffff168152602001908152602001600020600101819080600181540180825580915050600190039060005260206000200160009091909190916101000a81548173ffffffffffffffffffffffffffffffffffffffff021916908373ffffffffffffffffffffffffffffffffffffffff1602179055505b50565b60606116878261123f565b6116bd576040517ffe2fc9c600000000000000000000000000000000000000000000000000000000815260040160405180910390fd5b6116d48260046000016123e390919063ffffffff16565b9050919050565b60606004800160008373ffffffffffffffffffffffffffffffffffffffff1673ffffffffffffffffffffffffffffffffffffffff168152602001908152602001600020805461172990612ea8565b80601f016020809104026020016040519081016040528092919081815260200182805461175590612ea8565b80156117a25780601f10611777576101008083540402835291602001916117a2565b820191906000526020600020905b81548152906001019060200180831161178557829003601f168201915b50505050509050919050565b6117b78261121f565b6117ed576040517fc11330e600000000000000000000000000000000000000000000000000000000815260040160405180910390fd5b8173ffffffffffffffffffffffffffffffffffffffff163373ffffffffffffffffffffffffffffffffffffffff1614806118b757503373ffffffffffffffffffffffffffffffffffffffff16600a60040160008473ffffffffffffffffffffffffffffffffffffffff1673ffffffffffffffffffffffffffffffffffffffff16815260200190815260200160002060000160009054906101000a900473ffffffffffffffffffffffffffffffffffffffff1673ffffffffffffffffffffffffffffffffffffffff16145b6118f6576040517f08c379a00000000000000000000000000000000000000000000000000000000081526004016118ed9061323f565b60405180910390fd5b80600a60040160008473ffffffffffffffffffffffffffffffffffffffff1673ffffffffffffffffffffffffffffffffffffffff16815260200190815260200160002060020190816119489190613121565b505050565b6119563361121f565b61198c576040517fc11330e600000000000000000000000000000000000000000000000000000000815260040160405180910390fd5b6119958161123f565b6119cb576040517ffe2fc9c600000000000000000000000000000000000000000000000000000000815260040160405180910390fd5b6000600a60040160003373ffffffffffffffffffffffffffffffffffffffff1673ffffffffffffffffffffffffffffffffffffffff16815260200190815260200160002060000160009054906101000a900473ffffffffffffffffffffffffffffffffffffffff169050611a8933600460050160008473ffffffffffffffffffffffffffffffffffffffff1673ffffffffffffffffffffffffffffffffffffffff16815260200190815260200160002061202690919063ffffffff16565b81600a60040160003373ffffffffffffffffffffffffffffffffffffffff1673ffffffffffffffffffffffffffffffffffffffff16815260200190815260200160002060000160006101000a81548173ffffffffffffffffffffffffffffffffffffffff021916908373ffffffffffffffffffffffffffffffffffffffff160217905550611b6133600460050160008573ffffffffffffffffffffffffffffffffffffffff1673ffffffffffffffffffffffffffffffffffffffff168152602001908152602001600020611dd690919063ffffffff16565b5050565b6000815103611ba9576040517f08c379a0000000000000000000000000000000000000000000000000000000008152600401611ba0906132d1565b60405180910390fd5b611bc0336004600001611f3a90919063ffffffff16565b611bf6576040517ffe2fc9c600000000000000000000000000000000000000000000000000000000815260040160405180910390fd5b611c0d336000600101611fcd90919063ffffffff16565b15611c44576040517ff873d3b700000000000000000000000000000000000000000000000000000000815260040160405180910390fd5b806004800160003373ffffffffffffffffffffffffffffffffffffffff1673ffffffffffffffffffffffffffffffffffffffff1681526020019081526020016000209081611c929190613121565b5050565b611c9f3361121f565b611cd5576040517fc11330e600000000000000000000000000000000000000000000000000000000815260040160405180910390fd5b611cde8161123f565b611d14576040517ffe2fc9c600000000000000000000000000000000000000000000000000000000815260040160405180910390fd5b611d6b81600a60040160003373ffffffffffffffffffffffffffffffffffffffff1673ffffffffffffffffffffffffffffffffffffffff16815260200190815260200160002060010161245790919063ffffffff16565b5050565b611d798383611f3a565b15611db9576040517f08c379a0000000000000000000000000000000000000000000000000000000008152600401611db09061333d565b60405180910390fd5b611dd182828560000161267c9092919063ffffffff16565b505050565b8160010160008273ffffffffffffffffffffffffffffffffffffffff1673ffffffffffffffffffffffffffffffffffffffff16815260200190815260200160002060009054906101000a900460ff16611f365760018260010160008373ffffffffffffffffffffffffffffffffffffffff1673ffffffffffffffffffffffffffffffffffffffff16815260200190815260200160002060006101000a81548160ff02191690831515021790555081600001805490508260020160008373ffffffffffffffffffffffffffffffffffffffff1673ffffffffffffffffffffffffffffffffffffffff1681526020019081526020016000208190555081600001819080600181540180825580915050600190039060005260206000200160009091909190916101000a81548173ffffffffffffffffffffffffffffffffffffffff021916908373ffffffffffffffffffffffffffffffffffffffff1602179055505b5050565b60008073ffffffffffffffffffffffffffffffffffffffff168273ffffffffffffffffffffffffffffffffffffffff1603611faa576040517f08c379a0000000000000000000000000000000000000000000000000000000008152600401611fa1906133cf565b60405180910390fd5b6000611fc2838560000161283090919063ffffffff16565b511415905092915050565b60008260010160008373ffffffffffffffffffffffffffffffffffffffff1673ffffffffffffffffffffffffffffffffffffffff16815260200190815260200160002060009054906101000a900460ff16905092915050565b8160010160008273ffffffffffffffffffffffffffffffffffffffff1673ffffffffffffffffffffffffffffffffffffffff16815260200190815260200160002060009054906101000a900460ff16156122a5578160010160008273ffffffffffffffffffffffffffffffffffffffff1673ffffffffffffffffffffffffffffffffffffffff16815260200190815260200160002060006101000a81549060ff021916905560008260020160008373ffffffffffffffffffffffffffffffffffffffff1673ffffffffffffffffffffffffffffffffffffffff168152602001908152602001600020549050600060018460000180549050612127919061341e565b9050600084600001828154811061214157612140613452565b5b9060005260206000200160009054906101000a900473ffffffffffffffffffffffffffffffffffffffff169050828560020160008373ffffffffffffffffffffffffffffffffffffffff1673ffffffffffffffffffffffffffffffffffffffff168152602001908152602001600020819055508460020160008573ffffffffffffffffffffffffffffffffffffffff1673ffffffffffffffffffffffffffffffffffffffff16815260200190815260200160002060009055808560000184815481106122105761220f613452565b5b9060005260206000200160006101000a81548173ffffffffffffffffffffffffffffffffffffffff021916908373ffffffffffffffffffffffffffffffffffffffff1602179055508460000180548061226c5761226b613481565b5b6001900381819060005260206000200160006101000a81549073ffffffffffffffffffffffffffffffffffffffff021916905590555050505b5050565b60608160000160000180548060200260200160405190810160405280929190818152602001828054801561233257602002820191906000526020600020905b8160009054906101000a900473ffffffffffffffffffffffffffffffffffffffff1673ffffffffffffffffffffffffffffffffffffffff16815260200190600101908083116122e8575b50505050509050919050565b600080600090505b83518110156123b8578273ffffffffffffffffffffffffffffffffffffffff1684828151811061237957612378613452565b5b602002602001015173ffffffffffffffffffffffffffffffffffffffff16036123a557809150506123dd565b80806123b0906134b0565b915050612346565b507fffffffffffffffffffffffffffffffffffffffffffffffffffffffffffffffff90505b92915050565b60606123fb828460000161283090919063ffffffff16565b905092915050565b61241b82828560000161267c9092919063ffffffff16565b505050565b60007fffffffffffffffffffffffffffffffffffffffffffffffffffffffffffffffff61244d848461233e565b1415905092915050565b6000806124e9848054806020026020016040519081016040528092919081815260200182805480156124de57602002820191906000526020600020905b8160009054906101000a900473ffffffffffffffffffffffffffffffffffffffff1673ffffffffffffffffffffffffffffffffffffffff1681526020019060010190808311612494575b50505050508461233e565b90507fffffffffffffffffffffffffffffffffffffffffffffffffffffffffffffffff810361251c576000915050612676565b60008480548060200260200160405190810160405280929190818152602001828054801561259f57602002820191906000526020600020905b8160009054906101000a900473ffffffffffffffffffffffffffffffffffffffff1673ffffffffffffffffffffffffffffffffffffffff1681526020019060010190808311612555575b5050505050905080600182516125b5919061341e565b815181106125c6576125c5613452565b5b60200260200101518583815481106125e1576125e0613452565b5b9060005260206000200160006101000a81548173ffffffffffffffffffffffffffffffffffffffff021916908373ffffffffffffffffffffffffffffffffffffffff1602179055508480548061263a57612639613481565b5b6001900381819060005260206000200160006101000a81549073ffffffffffffffffffffffffffffffffffffffff021916905590556001925050505b92915050565b8260030160008373ffffffffffffffffffffffffffffffffffffffff1673ffffffffffffffffffffffffffffffffffffffff16815260200190815260200160002060009054906101000a900460ff166127dc5782600001805490508360020160008473ffffffffffffffffffffffffffffffffffffffff1673ffffffffffffffffffffffffffffffffffffffff1681526020019081526020016000208190555060018360030160008473ffffffffffffffffffffffffffffffffffffffff1673ffffffffffffffffffffffffffffffffffffffff16815260200190815260200160002060006101000a81548160ff02191690831515021790555082600001829080600181540180825580915050600190039060005260206000200160009091909190916101000a81548173ffffffffffffffffffffffffffffffffffffffff021916908373ffffffffffffffffffffffffffffffffffffffff1602179055505b808360010160008473ffffffffffffffffffffffffffffffffffffffff1673ffffffffffffffffffffffffffffffffffffffff168152602001908152602001600020908161282a9190613121565b50505050565b60608260010160008373ffffffffffffffffffffffffffffffffffffffff1673ffffffffffffffffffffffffffffffffffffffff168152602001908152602001600020805461287e90612ea8565b80601f01602080910402602001604051908101604052809291908181526020018280546128aa90612ea8565b80156128f75780601f106128cc576101008083540402835291602001916128f7565b820191906000526020600020905b8154815290600101906020018083116128da57829003601f168201915b5050505050905092915050565b6000604051905090565b600080fd5b600080fd5b600080fd5b600080fd5b6000601f19601f8301169050919050565b7f4e487b7100000000000000000000000000000000000000000000000000000000600052604160045260246000fd5b61296b82612922565b810181811067ffffffffffffffff8211171561298a57612989612933565b5b80604052505050565b600061299d612904565b90506129a98282612962565b919050565b600067ffffffffffffffff8211156129c9576129c8612933565b5b6129d282612922565b9050602081019050919050565b82818337600083830152505050565b6000612a016129fc846129ae565b612993565b905082815260208101848484011115612a1d57612a1c61291d565b5b612a288482856129df565b509392505050565b600082601f830112612a4557612a44612918565b5b8135612a558482602086016129ee565b91505092915050565b600060208284031215612a7457612a7361290e565b5b600082013567ffffffffffffffff811115612a9257612a91612913565b5b612a9e84828501612a30565b91505092915050565b600081519050919050565b600082825260208201905092915050565b6000819050602082019050919050565b600073ffffffffffffffffffffffffffffffffffffffff82169050919050565b6000612afe82612ad3565b9050919050565b612b0e81612af3565b82525050565b6000612b208383612b05565b60208301905092915050565b6000602082019050919050565b6000612b4482612aa7565b612b4e8185612ab2565b9350612b5983612ac3565b8060005b83811015612b8a578151612b718882612b14565b9750612b7c83612b2c565b925050600181019050612b5d565b5085935050505092915050565b60006020820190508181036000830152612bb18184612b39565b905092915050565b60008060408385031215612bd057612bcf61290e565b5b600083013567ffffffffffffffff811115612bee57612bed612913565b5b612bfa85828601612a30565b925050602083013567ffffffffffffffff811115612c1b57612c1a612913565b5b612c2785828601612a30565b9150509250929050565b612c3a81612af3565b8114612c4557600080fd5b50565b600081359050612c5781612c31565b92915050565b600060208284031215612c7357612c7261290e565b5b6000612c8184828501612c48565b91505092915050565b60008115159050919050565b612c9f81612c8a565b82525050565b6000602082019050612cba6000830184612c96565b92915050565b600081519050919050565b600082825260208201905092915050565b60005b83811015612cfa578082015181840152602081019050612cdf565b60008484015250505050565b6000612d1182612cc0565b612d1b8185612ccb565b9350612d2b818560208601612cdc565b612d3481612922565b840191505092915050565b60006020820190508181036000830152612d598184612d06565b905092915050565b612d6a81612af3565b82525050565b6000602082019050612d856000830184612d61565b92915050565b60008060408385031215612da257612da161290e565b5b6000612db085828601612c48565b925050602083013567ffffffffffffffff811115612dd157612dd0612913565b5b612ddd85828601612a30565b9150509250929050565b7f436f6e74726163743a20456d7074792068617368206973206e6f7420616c6c6f60008201527f7765642100000000000000000000000000000000000000000000000000000000602082015250565b6000612e43602483612ccb565b9150612e4e82612de7565b604082019050919050565b60006020820190508181036000830152612e7281612e36565b9050919050565b7f4e487b7100000000000000000000000000000000000000000000000000000000600052602260045260246000fd5b60006002820490506001821680612ec057607f821691505b602082108103612ed357612ed2612e79565b5b50919050565b7f436f6e74726163743a20456d7074792068617368206973206e6f7420616c6c6f60008201527f7765640000000000000000000000000000000000000000000000000000000000602082015250565b6000612f35602383612ccb565b9150612f4082612ed9565b604082019050919050565b60006020820190508181036000830152612f6481612f28565b9050919050565b60008190508160005260206000209050919050565b60006020601f8301049050919050565b600082821b905092915050565b600060088302612fcd7fffffffffffffffffffffffffffffffffffffffffffffffffffffffffffffffff82612f90565b612fd78683612f90565b95508019841693508086168417925050509392505050565b6000819050919050565b6000819050919050565b600061301e61301961301484612fef565b612ff9565b612fef565b9050919050565b6000819050919050565b61303883613003565b61304c61304482613025565b848454612f9d565b825550505050565b600090565b613061613054565b61306c81848461302f565b505050565b5b8181101561309057613085600082613059565b600181019050613072565b5050565b601f8211156130d5576130a681612f6b565b6130af84612f80565b810160208510156130be578190505b6130d26130ca85612f80565b830182613071565b50505b505050565b600082821c905092915050565b60006130f8600019846008026130da565b1980831691505092915050565b600061311183836130e7565b9150826002028217905092915050565b61312a82612cc0565b67ffffffffffffffff81111561314357613142612933565b5b61314d8254612ea8565b613158828285613094565b600060209050601f83116001811461318b5760008415613179578287015190505b6131838582613105565b8655506131eb565b601f19841661319986612f6b565b60005b828110156131c15784890151825560018201915060208501945060208101905061319c565b868310156131de57848901516131da601f8916826130e7565b8355505b6001600288020188555050505b505050505050565b7f4e6f7420416c6c6f776564000000000000000000000000000000000000000000600082015250565b6000613229600b83612ccb565b9150613234826131f3565b602082019050919050565b600060208201905081810360008301526132588161321c565b9050919050565b7f436f6e74726163743a20456d707479207075626c6963206b6579206973206e6f60008201527f7420616c6c6f7765642100000000000000000000000000000000000000000000602082015250565b60006132bb602a83612ccb565b91506132c68261325f565b604082019050919050565b600060208201905081810360008301526132ea816132ae565b9050919050565b7f526f6c65733a206163636f756e7420616c72656164792068617320726f6c6500600082015250565b6000613327601f83612ccb565b9150613332826132f1565b602082019050919050565b600060208201905081810360008301526133568161331a565b9050919050565b7f526f6c65733a206163636f756e7420697320746865207a65726f20616464726560008201527f7373000000000000000000000000000000000000000000000000000000000000602082015250565b60006133b9602283612ccb565b91506133c48261335d565b604082019050919050565b600060208201905081810360008301526133e8816133ac565b9050919050565b7f4e487b7100000000000000000000000000000000000000000000000000000000600052601160045260246000fd5b600061342982612fef565b915061343483612fef565b925082820390508181111561344c5761344b6133ef565b5b92915050565b7f4e487b7100000000000000000000000000000000000000000000000000000000600052603260045260246000fd5b7f4e487b7100000000000000000000000000000000000000000000000000000000600052603160045260246000fd5b60006134bb82612fef565b91507fffffffffffffffffffffffffffffffffffffffffffffffffffffffffffffffff82036134ed576134ec6133ef565b5b60018201905091905056fea2646970667358221220f4d1c72c9198c05e1255ba62689e76dbba4ffff163af1f2835372297743cfbd064736f6c63430008110033",
  "devdoc": {
    "kind": "dev",
    "methods": {},
    "version": 1
  },
  "userdoc": {
    "kind": "user",
    "methods": {},
    "version": 1
  },
  "storageLayout": {
    "storage": [
      {
        "astId": 573,
        "contract": "contracts/Contract.sol:Contract",
        "label": "admin",
        "offset": 0,
        "slot": "0",
        "type": "t_struct(Admin)548_storage"
      },
      {
        "astId": 576,
        "contract": "contracts/Contract.sol:Contract",
        "label": "doctors",
        "offset": 0,
        "slot": "4",
        "type": "t_struct(Doctors)570_storage"
      },
      {
        "astId": 579,
        "contract": "contracts/Contract.sol:Contract",
        "label": "patients",
        "offset": 0,
        "slot": "10",
        "type": "t_struct(Patients)557_storage"
      }
    ],
    "types": {
      "t_address": {
        "encoding": "inplace",
        "label": "address",
        "numberOfBytes": "20"
      },
      "t_array(t_address)dyn_storage": {
        "base": "t_address",
        "encoding": "dynamic_array",
        "label": "address[]",
        "numberOfBytes": "32"
      },
      "t_bool": {
        "encoding": "inplace",
        "label": "bool",
        "numberOfBytes": "1"
      },
      "t_mapping(t_address,t_bool)": {
        "encoding": "mapping",
        "key": "t_address",
        "label": "mapping(address => bool)",
        "numberOfBytes": "32",
        "value": "t_bool"
      },
      "t_mapping(t_address,t_string_storage)": {
        "encoding": "mapping",
        "key": "t_address",
        "label": "mapping(address => string)",
        "numberOfBytes": "32",
        "value": "t_string_storage"
      },
      "t_mapping(t_address,t_struct(Map)13_storage)": {
        "encoding": "mapping",
        "key": "t_address",
        "label": "mapping(address => struct AddToBoolMapping.Map)",
        "numberOfBytes": "32",
        "value": "t_struct(Map)13_storage"
      },
      "t_mapping(t_address,t_struct(MedicalRecord)542_storage)": {
        "encoding": "mapping",
        "key": "t_address",
        "label": "mapping(address => struct Contract.MedicalRecord)",
        "numberOfBytes": "32",
        "value": "t_struct(MedicalRecord)542_storage"
      },
      "t_mapping(t_address,t_uint256)": {
        "encoding": "mapping",
        "key": "t_address",
        "label": "mapping(address => uint256)",
        "numberOfBytes": "32",
        "value": "t_uint256"
      },
      "t_string_storage": {
        "encoding": "bytes",
        "label": "string",
        "numberOfBytes": "32"
      },
      "t_struct(Admin)548_storage": {
        "encoding": "inplace",
        "label": "struct Contract.Admin",
        "members": [
          {
            "astId": 544,
            "contract": "contracts/Contract.sol:Contract",
            "label": "user",
            "offset": 0,
            "slot": "0",
            "type": "t_address"
          },
          {
            "astId": 547,
            "contract": "contracts/Contract.sol:Contract",
            "label": "pending_doctors",
            "offset": 0,
            "slot": "1",
            "type": "t_struct(Map)13_storage"
          }
        ],
        "numberOfBytes": "128"
      },
      "t_struct(Doctors)570_storage": {
        "encoding": "inplace",
        "label": "struct Contract.Doctors",
        "members": [
          {
            "astId": 560,
            "contract": "contracts/Contract.sol:Contract",
            "label": "users",
            "offset": 0,
            "slot": "0",
            "type": "t_struct(Role)1366_storage"
          },
          {
            "astId": 564,
            "contract": "contracts/Contract.sol:Contract",
            "label": "public_keys",
            "offset": 0,
            "slot": "4",
            "type": "t_mapping(t_address,t_string_storage)"
          },
          {
            "astId": 569,
            "contract": "contracts/Contract.sol:Contract",
            "label": "docToPatAccess",
            "offset": 0,
            "slot": "5",
            "type": "t_mapping(t_address,t_struct(Map)13_storage)"
          }
        ],
        "numberOfBytes": "192"
      },
      "t_struct(Map)13_storage": {
        "encoding": "inplace",
        "label": "struct AddToBoolMapping.Map",
        "members": [
          {
            "astId": 4,
            "contract": "contracts/Contract.sol:Contract",
            "label": "keys",
            "offset": 0,
            "slot": "0",
            "type": "t_array(t_address)dyn_storage"
          },
          {
            "astId": 8,
            "contract": "contracts/Contract.sol:Contract",
            "label": "values",
            "offset": 0,
            "slot": "1",
            "type": "t_mapping(t_address,t_bool)"
          },
          {
            "astId": 12,
            "contract": "contracts/Contract.sol:Contract",
            "label": "indexOf",
            "offset": 0,
            "slot": "2",
            "type": "t_mapping(t_address,t_uint256)"
          }
        ],
        "numberOfBytes": "96"
      },
      "t_struct(Map)204_storage": {
        "encoding": "inplace",
        "label": "struct AddToStrMapping.Map",
        "members": [
          {
            "astId": 191,
            "contract": "contracts/Contract.sol:Contract",
            "label": "keys",
            "offset": 0,
            "slot": "0",
            "type": "t_array(t_address)dyn_storage"
          },
          {
            "astId": 195,
            "contract": "contracts/Contract.sol:Contract",
            "label": "values",
            "offset": 0,
            "slot": "1",
            "type": "t_mapping(t_address,t_string_storage)"
          },
          {
            "astId": 199,
            "contract": "contracts/Contract.sol:Contract",
            "label": "indexOf",
            "offset": 0,
            "slot": "2",
            "type": "t_mapping(t_address,t_uint256)"
          },
          {
            "astId": 203,
            "contract": "contracts/Contract.sol:Contract",
            "label": "inserted",
            "offset": 0,
            "slot": "3",
            "type": "t_mapping(t_address,t_bool)"
          }
        ],
        "numberOfBytes": "128"
      },
      "t_struct(MedicalRecord)542_storage": {
        "encoding": "inplace",
        "label": "struct Contract.MedicalRecord",
        "members": [
          {
            "astId": 536,
            "contract": "contracts/Contract.sol:Contract",
            "label": "editor",
            "offset": 0,
            "slot": "0",
            "type": "t_address"
          },
          {
            "astId": 539,
            "contract": "contracts/Contract.sol:Contract",
            "label": "viewers",
            "offset": 0,
            "slot": "1",
            "type": "t_array(t_address)dyn_storage"
          },
          {
            "astId": 541,
            "contract": "contracts/Contract.sol:Contract",
            "label": "key_data_hash",
            "offset": 0,
            "slot": "2",
            "type": "t_string_storage"
          }
        ],
        "numberOfBytes": "96"
      },
      "t_struct(Patients)557_storage": {
        "encoding": "inplace",
        "label": "struct Contract.Patients",
        "members": [
          {
            "astId": 551,
            "contract": "contracts/Contract.sol:Contract",
            "label": "users",
            "offset": 0,
            "slot": "0",
            "type": "t_struct(Role)1366_storage"
          },
          {
            "astId": 556,
            "contract": "contracts/Contract.sol:Contract",
            "label": "records",
            "offset": 0,
            "slot": "4",
            "type": "t_mapping(t_address,t_struct(MedicalRecord)542_storage)"
          }
        ],
        "numberOfBytes": "160"
      },
      "t_struct(Role)1366_storage": {
        "encoding": "inplace",
        "label": "struct Roles.Role",
        "members": [
          {
            "astId": 1365,
            "contract": "contracts/Contract.sol:Contract",
            "label": "bearer",
            "offset": 0,
            "slot": "0",
            "type": "t_struct(Map)204_storage"
          }
        ],
        "numberOfBytes": "128"
      },
      "t_uint256": {
        "encoding": "inplace",
        "label": "uint256",
        "numberOfBytes": "32"
      }
    }
  }
}