{
  "compilerInput": "{\"language\":\"Solidity\",\"sources\":{\"Contract.sol\":{\"content\":\"// SPDX-License-Identifier: MIT\\npragma solidity ^0.8.17;\\n\\nimport \\\"./Roles.sol\\\";\\nimport \\\"./AddressArrayUtils.sol\\\";\\nimport \\\"./AddToBoolMapping.sol\\\";\\n\\nerror Contract__NotAdmin();\\nerror Contract__NotDoctor();\\nerror Contract__NotPatient();\\nerror Contract__PendingDoctorApproval();\\nerror Contract__DoctorPublicKeyMissing();\\n\\ncontract Contract {\\n    // using methods of Roles for Role struct in Roles\\n    using Roles for Roles.Role;\\n    using AddToBoolMapping for AddToBoolMapping.Map;\\n    using AddressArrayUtils for address[];\\n\\n    struct MedicalRecord {\\n        address editor;\\n        address[] viewers;\\n        string key_data_hash;\\n    }\\n\\n    struct Admin {\\n        address user;\\n        string public_key;\\n        AddToBoolMapping.Map pending_doctors;\\n    }\\n\\n    struct Patients {\\n        Roles.Role users;\\n        mapping(address => MedicalRecord) records;\\n    }\\n\\n    struct Doctors {\\n        Roles.Role users;\\n        mapping(address => string) public_keys;\\n        mapping(address => AddToBoolMapping.Map) docToPatAccess;\\n    }\\n\\n    // defining roles - contains hashes\\n    Admin private admin;\\n    Doctors private doctors;\\n    Patients private patients;\\n\\n    // Initializing admin\\n    constructor() {\\n        admin.user = msg.sender;\\n    }\\n\\n    // Admin methods\\n    function isAdmin(address _address) public view returns (bool) {\\n        if (admin.user == _address) return true;\\n        return false;\\n    }\\n\\n    function getAdmin() public view returns (address) {\\n        return admin.user;\\n    }\\n\\n    function setAdminPubKey(string memory _public_key) public onlyAdmin {\\n        admin.public_key = _public_key;\\n    }\\n\\n    function getAdminPubKey() public view returns (string memory) {\\n        return admin.public_key;\\n    }\\n\\n    // Doctor methods\\n    function isDrRegistered(address _address) public view returns (bool) {\\n        return doctors.users.has(_address);\\n    }\\n\\n    function isDrPending(address _address) public view returns (bool) {\\n        return admin.pending_doctors.get(_address);\\n    }\\n\\n    function isDoctor(address _address) public view returns (bool) {\\n        if (!doctors.users.has(_address)) return false;\\n        if (admin.pending_doctors.get(_address)) return false;\\n        if (bytes(doctors.public_keys[_address]).length == 0) return false;\\n        return true;\\n    }\\n\\n    function registerDr(string memory _hash) public {\\n        if (isPatient(msg.sender)) revert(\\\"Contract: Address already registered as patient\\\");\\n        if (bytes(_hash).length == 0) revert(\\\"Contract: Empty hash is not allowed\\\");\\n        doctors.users.add(msg.sender, _hash);\\n        admin.pending_doctors.set(msg.sender);\\n    }\\n\\n    function approveDr(address _address) public onlyAdmin {\\n        if (isDoctor(_address)) return;\\n        if (!doctors.users.has(_address)) return;\\n        admin.pending_doctors.unset(_address);\\n    }\\n\\n    function disapproveDr(address _address) public onlyAdmin {\\n        if (!isDrPending(_address)) revert(\\\"Contract: Doctor not registered\\\");\\n        doctors.users.remove(_address);\\n        admin.pending_doctors.unset(_address);\\n    }\\n\\n    function registerDrConfirm(string memory _public_key) public {\\n        if (bytes(_public_key).length == 0) revert(\\\"Contract: Empty public key is not allowed!\\\");\\n        if (!doctors.users.has(msg.sender)) revert Contract__NotDoctor();\\n        if (admin.pending_doctors.get(msg.sender)) revert Contract__PendingDoctorApproval();\\n        doctors.public_keys[msg.sender] = _public_key;\\n    }\\n\\n    function setDrHash(string memory _hash) public onlyDoctor {\\n        if (bytes(_hash).length == 0) revert(\\\"Contract: Empty hash is not allowed!\\\");\\n        doctors.users.setHash(msg.sender, _hash);\\n    }\\n\\n    function getDrHash(address _address) public view returns (string memory) {\\n        if (!isDrRegistered(_address)) revert Contract__NotDoctor();\\n        return doctors.users.getHash(_address);\\n    }\\n\\n    function getDrPubKey(address _address) public view returns (string memory) {\\n        return doctors.public_keys[_address];\\n    }\\n\\n    function getAllDrs() public view returns (address[] memory) {\\n        return doctors.users.getMembers();\\n    }\\n\\n    function getPendingDrs() public view returns (address[] memory) {\\n        return admin.pending_doctors.keys;\\n    }\\n\\n    function getPtsOfDr() public view onlyDoctor returns (address[] memory) {\\n        return doctors.docToPatAccess[msg.sender].keys;\\n    }\\n\\n    // Patient methods\\n    function isPatient(address _address) public view returns (bool) {\\n        return patients.users.has(_address);\\n    }\\n\\n    function registerPt(string memory _hash, string memory _key_data_hash) public {\\n        if (isDrRegistered(msg.sender) || isDoctor(msg.sender))\\n            revert(\\\"Contract: Address already registered as doctor\\\");\\n        if (bytes(_hash).length == 0) revert(\\\"Contract: Empty hash is not allowed\\\");\\n        patients.users.add(msg.sender, _hash);\\n        patients.records[msg.sender].editor = msg.sender;\\n        patients.records[msg.sender].key_data_hash = _key_data_hash;\\n    }\\n\\n    function setPtGeneralHash(string memory _hash) public onlyPatient {\\n        patients.users.setHash(msg.sender, _hash);\\n    }\\n\\n    function getPtGeneralHash(address _address) public view returns (string memory) {\\n        if (!isPatient(_address)) revert Contract__NotPatient();\\n\\n        if (\\n            msg.sender == _address ||\\n            patients.records[_address].editor == msg.sender ||\\n            patients.records[_address].viewers.indexOf(msg.sender) != -1\\n        ) return patients.users.getHash(_address);\\n\\n        revert(\\\"Not Allowed\\\");\\n    }\\n\\n    function setPtRecordHash(address _address, string memory _hash) public {\\n        if (!isPatient(_address)) revert Contract__NotPatient();\\n        if (!(patients.records[_address].editor == msg.sender)) revert(\\\"Not Allowed\\\");\\n        patients.records[_address].key_data_hash = _hash;\\n    }\\n\\n    function getPtRecordHash(address _address) public view returns (string memory) {\\n        if (!isPatient(_address)) revert Contract__NotPatient();\\n\\n        if (\\n            msg.sender == _address ||\\n            patients.records[_address].editor == msg.sender ||\\n            patients.records[_address].viewers.indexOf(msg.sender) != -1\\n        ) return patients.records[_address].key_data_hash;\\n\\n        revert(\\\"Not Allowed\\\");\\n    }\\n\\n    function getAllPts() public view returns (address[] memory) {\\n        return patients.users.getMembers();\\n    }\\n\\n    function changeEditorAccess(\\n        address _address,\\n        string memory _general_hash,\\n        string memory _key_hash\\n    ) public onlyPatient {\\n        // pending update - when user changes access, symmetric key S must be changed\\n        if (!isDoctor(_address)) revert Contract__NotDoctor();\\n\\n        // remove old editor access\\n        removeEditorAccess(_general_hash, _key_hash);\\n\\n        // add new editor access\\n        patients.records[msg.sender].editor = _address;\\n        doctors.docToPatAccess[_address].set(msg.sender);\\n    }\\n\\n    function removeEditorAccess(\\n        string memory _general_hash,\\n        string memory _key_hash\\n    ) public onlyPatient {\\n        address old_editor = patients.records[msg.sender].editor;\\n        patients.records[msg.sender].editor = msg.sender;\\n        doctors.docToPatAccess[old_editor].unset(msg.sender);\\n\\n        patients.users.setHash(msg.sender, _general_hash);\\n        patients.records[msg.sender].key_data_hash = _key_hash;\\n    }\\n\\n    function getDrOfPt() public view onlyPatient returns (address) {\\n        return patients.records[msg.sender].editor;\\n    }\\n\\n    function grantViewerAccess(address _address) public onlyPatient {\\n        if (!isDoctor(_address)) revert Contract__NotDoctor();\\n\\n        if (!patients.records[msg.sender].viewers.contains(_address)) {\\n            patients.records[msg.sender].viewers.push(_address);\\n        }\\n    }\\n\\n    function revokeViewerAccess(address _address) public onlyPatient {\\n        // pending update - when user revokes access, symmetric key S must be changed\\n        if (!isDoctor(_address)) revert Contract__NotDoctor();\\n\\n        patients.records[msg.sender].viewers.remove(_address);\\n    }\\n\\n    function getPatViewers() public view onlyPatient returns (address[] memory) {\\n        return patients.records[msg.sender].viewers;\\n    }\\n\\n    // modifiers\\n    modifier onlyAdmin() {\\n        if (!isAdmin(msg.sender)) revert Contract__NotAdmin();\\n        _;\\n    }\\n\\n    modifier onlyDoctor() {\\n        if (!doctors.users.has(msg.sender)) revert Contract__NotDoctor();\\n        if (admin.pending_doctors.get(msg.sender)) revert Contract__PendingDoctorApproval();\\n        if (bytes(doctors.public_keys[msg.sender]).length == 0)\\n            revert Contract__DoctorPublicKeyMissing();\\n        _;\\n    }\\n\\n    modifier onlyPatient() {\\n        if (!isPatient(msg.sender)) revert Contract__NotPatient();\\n        _;\\n    }\\n}\\n\"},\"AddToBoolMapping.sol\":{\"content\":\"// SPDX-License-Identifier: MIT\\npragma solidity ^0.8.17;\\n\\nlibrary AddToBoolMapping {\\n    // mapping address => bool\\n    struct Map {\\n        address[] keys;\\n        mapping(address => bool) values;\\n        mapping(address => uint256) indexOf;\\n    }\\n\\n    function get(Map storage map, address key) internal view returns (bool) {\\n        return map.values[key];\\n    }\\n\\n    function getKeys(Map storage map) internal view returns (address[] memory) {\\n        return map.keys;\\n    }\\n\\n    function getKeyAtIndex(Map storage map, uint256 index) internal view returns (address) {\\n        return map.keys[index];\\n    }\\n\\n    function size(Map storage map) internal view returns (uint256) {\\n        return map.keys.length;\\n    }\\n\\n    function set(Map storage map, address key) internal {\\n        if (map.values[key]) return;\\n\\n        // add address => true mapping to values\\n        map.values[key] = true;\\n\\n        // add index of address to indexOf mapping\\n        map.indexOf[key] = map.keys.length;\\n\\n        // add address to keys\\n        map.keys.push(key);\\n    }\\n\\n    function unset(Map storage map, address key) internal {\\n        if (!map.values[key]) return;\\n\\n        // remove from values\\n        delete map.values[key];\\n\\n        // important backups\\n        uint256 index = map.indexOf[key];\\n        uint256 lastIndex = map.keys.length - 1;\\n        address lastKey = map.keys[lastIndex];\\n\\n        // update indexOf last element\\n        map.indexOf[lastKey] = index;\\n        delete map.indexOf[key];\\n\\n        // remove from keys\\n        map.keys[index] = lastKey;\\n        map.keys.pop();\\n    }\\n}\\n\"},\"AddressArrayUtils.sol\":{\"content\":\"// SPDX-License-Identifier: MIT\\npragma solidity ^0.8.17;\\n\\nlibrary AddressArrayUtils {\\n    function indexOf(address[] memory arr, address key) internal pure returns (int256) {\\n        for (uint256 i = 0; i < arr.length; i++) {\\n            if (arr[i] == key) return int256(i);\\n        }\\n        return -1;\\n    }\\n\\n    function contains(address[] memory arr, address key) internal pure returns (bool) {\\n        return indexOf(arr, key) != -1;\\n    }\\n\\n    function remove(address[] storage arr, address key) internal returns (bool) {\\n        int256 i = indexOf(arr, key);\\n\\n        if (i == -1) return false;\\n\\n        address[] memory temp = arr;\\n        arr[uint256(i)] = temp[temp.length - 1];\\n        arr.pop();\\n\\n        return true;\\n    }\\n}\\n\"},\"Roles.sol\":{\"content\":\"// SPDX-License-Identifier: MIT\\npragma solidity ^0.8.17;\\n\\nimport \\\"./AddToStrMapping.sol\\\";\\n\\nlibrary Roles {\\n    using AddToStrMapping for AddToStrMapping.Map;\\n\\n    // This is to keep track of roles\\n    // Reduces searching cost\\n    struct Role {\\n        AddToStrMapping.Map bearer;\\n    }\\n\\n    function add(Role storage role, address account, string memory hash) internal {\\n        require(!has(role, account), \\\"Roles: account already has role\\\");\\n        role.bearer.set(account, hash);\\n    }\\n\\n    function remove(Role storage role, address account) internal {\\n        require(has(role, account), \\\"Roles: account does not have role\\\");\\n        role.bearer.remove(account);\\n    }\\n\\n    function has(Role storage role, address account) internal view returns (bool) {\\n        require(account != address(0), \\\"Roles: account is the zero address\\\");\\n        return bytes(role.bearer.get(account)).length != 0;\\n    }\\n\\n    function setHash(Role storage role, address account, string memory _hash) internal {\\n        role.bearer.set(account, _hash);\\n    }\\n\\n    function getHash(Role storage role, address account) internal view returns (string memory) {\\n        return role.bearer.get(account);\\n    }\\n\\n    function getMembers(Role storage role) internal view returns (address[] memory) {\\n        return role.bearer.keys;\\n    }\\n}\\n\"},\"AddToStrMapping.sol\":{\"content\":\"// SPDX-License-Identifier: MIT\\npragma solidity ^0.8.17;\\n\\nlibrary AddToStrMapping {\\n    // mapping address => string\\n    struct Map {\\n        address[] keys;\\n        mapping(address => string) values;\\n        mapping(address => uint256) indexOf;\\n        mapping(address => bool) inserted;\\n    }\\n\\n    function get(Map storage map, address key) internal view returns (string memory) {\\n        return map.values[key];\\n    }\\n\\n    function getKeys(Map storage map) internal view returns (address[] memory) {\\n        return map.keys;\\n    }\\n\\n    function getKeyAtIndex(Map storage map, uint256 index) internal view returns (address) {\\n        return map.keys[index];\\n    }\\n\\n    function size(Map storage map) internal view returns (uint256) {\\n        return map.keys.length;\\n    }\\n\\n    function set(Map storage map, address key, string memory val) internal {\\n        if (!map.inserted[key]) {\\n            // add index of address to indexOf mapping\\n            map.indexOf[key] = map.keys.length;\\n\\n            // make value of address in inserted to true\\n            map.inserted[key] = true;\\n\\n            // add address to keys\\n            map.keys.push(key);\\n        }\\n\\n        // add address => true mapping to values\\n        map.values[key] = val;\\n    }\\n\\n    function remove(Map storage map, address key) internal {\\n        if (!map.inserted[key]) return;\\n\\n        // remove from values\\n        delete map.values[key];\\n        delete map.inserted[key];\\n\\n        // important backups\\n        uint256 index = map.indexOf[key];\\n        uint256 lastIndex = map.keys.length - 1;\\n        address lastKey = map.keys[lastIndex];\\n\\n        // update indexOf last element\\n        map.indexOf[lastKey] = index;\\n        delete map.indexOf[key];\\n\\n        // remove from keys\\n        map.keys[index] = lastKey;\\n        map.keys.pop();\\n    }\\n}\\n\"}},\"settings\":{\"optimizer\":{\"enabled\":false,\"runs\":200},\"outputSelection\":{\"*\":{\"\":[\"ast\"],\"*\":[\"abi\",\"metadata\",\"devdoc\",\"userdoc\",\"storageLayout\",\"evm.legacyAssembly\",\"evm.bytecode\",\"evm.deployedBytecode\",\"evm.methodIdentifiers\",\"evm.gasEstimates\",\"evm.assembly\"]}}}}",
  "name": "Contract",
  "bytecode": {
    "linkReferences": {},
    "object": "608060405234801561001057600080fd5b50336000800160006101000a81548173ffffffffffffffffffffffffffffffffffffffff021916908373ffffffffffffffffffffffffffffffffffffffff160217905550613ff5806100636000396000f3fe608060405234801561001057600080fd5b50600436106101da5760003560e01c80638f9c79ed11610104578063c70597ad116100a2578063d3cd4df411610071578063d3cd4df414610565578063dc823aaf14610581578063e2877b4e146105b1578063f7a03a1e146105cf576101da565b8063c70597ad146104df578063cce9d43e146104fb578063ccfaed161461052b578063d0d9a5e314610547576101da565b8063a03de49e116100de578063a03de49e1461046d578063a53f514d14610489578063afb97e3d146104a7578063b1e758a4146104c3576101da565b80638f9c79ed146103f1578063996440c61461042157806399eedd2a14610451576101da565b80633d8198b41161017c5780636e9960c31161014b5780636e9960c31461037d578063745ada641461039b57806388c432e1146103b75780638f7f43a9146103d3576101da565b80633d8198b4146102d15780634df0a2d4146103015780635b0a7aad146103315780636d4bce201461034d576101da565b806321639f04116101b857806321639f041461023757806324d7806c14610255578063290c61b01461028557806332991838146102b5576101da565b80630de99991146101df578063116461e9146101fb5780631da3e2dc14610219575b600080fd5b6101f960048036038101906101f49190613190565b6105eb565b005b61020361066e565b604051610210919061324d565b60405180910390f35b610221610703565b60405161022e919061332d565b60405180910390f35b61023f610717565b60405161024c919061335e565b60405180910390f35b61026f600480360381019061026a9190613190565b6107c3565b60405161027c9190613394565b60405180910390f35b61029f600480360381019061029a9190613190565b61082f565b6040516102ac9190613394565b60405180910390f35b6102cf60048036038101906102ca91906134e4565b61084f565b005b6102eb60048036038101906102e69190613190565b61090f565b6040516102f8919061324d565b60405180910390f35b61031b60048036038101906103169190613190565b610c3a565b604051610328919061324d565b60405180910390f35b61034b6004803603810190610346919061352d565b610eae565b005b61036760048036038101906103629190613190565b61109f565b6040516103749190613394565b60405180910390f35b6103856110bf565b604051610392919061335e565b60405180910390f35b6103b560048036038101906103b09190613190565b6110eb565b005b6103d160048036038101906103cc91906134e4565b6111a3565b005b6103db6111fe565b6040516103e8919061332d565b60405180910390f35b61040b60048036038101906104069190613190565b61130e565b6040516104189190613394565b60405180910390f35b61043b60048036038101906104369190613190565b61132e565b6040516104489190613394565b60405180910390f35b61046b600480360381019061046691906134e4565b6113e2565b005b6104876004803603810190610482919061352d565b611565565b005b6104916116f6565b60405161049e919061332d565b60405180910390f35b6104c160048036038101906104bc91906134e4565b61170a565b005b6104dd60048036038101906104d89190613190565b61175f565b005b6104f960048036038101906104f491906135a5565b611967565b005b61051560048036038101906105109190613190565b611ad0565b604051610522919061324d565b60405180910390f35b610545600480360381019061054091906134e4565b611b2f565b005b61054f611c61565b60405161055c919061332d565b60405180910390f35b61057f600480360381019061057a9190613601565b611e54565b005b61059b60048036038101906105969190613190565b611fb8565b6040516105a8919061324d565b60405180910390f35b6105b961208c565b6040516105c6919061332d565b60405180910390f35b6105e960048036038101906105e49190613190565b612120565b005b6105f4336107c3565b61062a576040517f4d371dc700000000000000000000000000000000000000000000000000000000815260040160405180910390fd5b6106338161132e565b61066b5761064e8160056000016121f990919063ffffffff16565b1561066b5761066a81600060020161228c90919063ffffffff16565b5b50565b606060006001018054610680906136bb565b80601f01602080910402602001604051908101604052809291908181526020018280546106ac906136bb565b80156106f95780601f106106ce576101008083540402835291602001916106f9565b820191906000526020600020905b8154815290600101906020018083116106dc57829003601f168201915b5050505050905090565b6060610712600560000161250f565b905090565b60006107223361130e565b610758576040517fc11330e600000000000000000000000000000000000000000000000000000000815260040160405180910390fd5b600b60040160003373ffffffffffffffffffffffffffffffffffffffff1673ffffffffffffffffffffffffffffffffffffffff16815260200190815260200160002060000160009054906101000a900473ffffffffffffffffffffffffffffffffffffffff16905090565b60008173ffffffffffffffffffffffffffffffffffffffff166000800160009054906101000a900473ffffffffffffffffffffffffffffffffffffffff1673ffffffffffffffffffffffffffffffffffffffff1603610825576001905061082a565b600090505b919050565b60006108488260056000016121f990919063ffffffff16565b9050919050565b6108583361130e565b15610898576040517f08c379a000000000000000000000000000000000000000000000000000000000815260040161088f9061375e565b60405180910390fd5b60008151036108dc576040517f08c379a00000000000000000000000000000000000000000000000000000000081526004016108d3906137f0565b60405180910390fd5b6108f5338260056000016125a49092919063ffffffff16565b61090c33600060020161260b90919063ffffffff16565b50565b606061091a8261130e565b610950576040517fc11330e600000000000000000000000000000000000000000000000000000000815260040160405180910390fd5b8173ffffffffffffffffffffffffffffffffffffffff163373ffffffffffffffffffffffffffffffffffffffff161480610a1a57503373ffffffffffffffffffffffffffffffffffffffff16600b60040160008473ffffffffffffffffffffffffffffffffffffffff1673ffffffffffffffffffffffffffffffffffffffff16815260200190815260200160002060000160009054906101000a900473ffffffffffffffffffffffffffffffffffffffff1673ffffffffffffffffffffffffffffffffffffffff16145b80610b2057507fffffffffffffffffffffffffffffffffffffffffffffffffffffffffffffffff610b1d33600b60040160008673ffffffffffffffffffffffffffffffffffffffff1673ffffffffffffffffffffffffffffffffffffffff168152602001908152602001600020600101805480602002602001604051908101604052809291908181526020018280548015610b0a57602002820191906000526020600020905b8160009054906101000a900473ffffffffffffffffffffffffffffffffffffffff1673ffffffffffffffffffffffffffffffffffffffff1681526020019060010190808311610ac0575b505050505061276f90919063ffffffff16565b14155b15610bfa57600b60040160008373ffffffffffffffffffffffffffffffffffffffff1673ffffffffffffffffffffffffffffffffffffffff1681526020019081526020016000206002018054610b75906136bb565b80601f0160208091040260200160405190810160405280929190818152602001828054610ba1906136bb565b8015610bee5780601f10610bc357610100808354040283529160200191610bee565b820191906000526020600020905b815481529060010190602001808311610bd157829003601f168201915b50505050509050610c35565b6040517f08c379a0000000000000000000000000000000000000000000000000000000008152600401610c2c9061385c565b60405180910390fd5b919050565b6060610c458261130e565b610c7b576040517fc11330e600000000000000000000000000000000000000000000000000000000815260040160405180910390fd5b8173ffffffffffffffffffffffffffffffffffffffff163373ffffffffffffffffffffffffffffffffffffffff161480610d4557503373ffffffffffffffffffffffffffffffffffffffff16600b60040160008473ffffffffffffffffffffffffffffffffffffffff1673ffffffffffffffffffffffffffffffffffffffff16815260200190815260200160002060000160009054906101000a900473ffffffffffffffffffffffffffffffffffffffff1673ffffffffffffffffffffffffffffffffffffffff16145b80610e4b57507fffffffffffffffffffffffffffffffffffffffffffffffffffffffffffffffff610e4833600b60040160008673ffffffffffffffffffffffffffffffffffffffff1673ffffffffffffffffffffffffffffffffffffffff168152602001908152602001600020600101805480602002602001604051908101604052809291908181526020018280548015610e3557602002820191906000526020600020905b8160009054906101000a900473ffffffffffffffffffffffffffffffffffffffff1673ffffffffffffffffffffffffffffffffffffffff1681526020019060010190808311610deb575b505050505061276f90919063ffffffff16565b14155b15610e6e57610e6782600b60000161281490919063ffffffff16565b9050610ea9565b6040517f08c379a0000000000000000000000000000000000000000000000000000000008152600401610ea09061385c565b60405180910390fd5b919050565b610eb73361130e565b610eed576040517fc11330e600000000000000000000000000000000000000000000000000000000815260040160405180910390fd5b6000600b60040160003373ffffffffffffffffffffffffffffffffffffffff1673ffffffffffffffffffffffffffffffffffffffff16815260200190815260200160002060000160009054906101000a900473ffffffffffffffffffffffffffffffffffffffff16905033600b60040160003373ffffffffffffffffffffffffffffffffffffffff1673ffffffffffffffffffffffffffffffffffffffff16815260200190815260200160002060000160006101000a81548173ffffffffffffffffffffffffffffffffffffffff021916908373ffffffffffffffffffffffffffffffffffffffff16021790555061102e336005800160008473ffffffffffffffffffffffffffffffffffffffff1673ffffffffffffffffffffffffffffffffffffffff16815260200190815260200160002061228c90919063ffffffff16565b6110473384600b6000016128349092919063ffffffff16565b81600b60040160003373ffffffffffffffffffffffffffffffffffffffff1673ffffffffffffffffffffffffffffffffffffffff16815260200190815260200160002060020190816110999190613a32565b50505050565b60006110b882600060020161285190919063ffffffff16565b9050919050565b60008060000160009054906101000a900473ffffffffffffffffffffffffffffffffffffffff16905090565b6110f4336107c3565b61112a576040517f4d371dc700000000000000000000000000000000000000000000000000000000815260040160405180910390fd5b6111338161109f565b611172576040517f08c379a000000000000000000000000000000000000000000000000000000000815260040161116990613b50565b60405180910390fd5b6111898160056000016128aa90919063ffffffff16565b6111a081600060020161228c90919063ffffffff16565b50565b6111ac3361130e565b6111e2576040517fc11330e600000000000000000000000000000000000000000000000000000000815260040160405180910390fd5b6111fb3382600b6000016128349092919063ffffffff16565b50565b60606112093361130e565b61123f576040517fc11330e600000000000000000000000000000000000000000000000000000000815260040160405180910390fd5b600b60040160003373ffffffffffffffffffffffffffffffffffffffff1673ffffffffffffffffffffffffffffffffffffffff16815260200190815260200160002060010180548060200260200160405190810160405280929190818152602001828054801561130457602002820191906000526020600020905b8160009054906101000a900473ffffffffffffffffffffffffffffffffffffffff1673ffffffffffffffffffffffffffffffffffffffff16815260200190600101908083116112ba575b5050505050905090565b600061132782600b6000016121f990919063ffffffff16565b9050919050565b60006113478260056000016121f990919063ffffffff16565b61135457600090506113dd565b61136b82600060020161285190919063ffffffff16565b1561137957600090506113dd565b6000600560040160008473ffffffffffffffffffffffffffffffffffffffff1673ffffffffffffffffffffffffffffffffffffffff16815260200190815260200160002080546113c8906136bb565b9050036113d857600090506113dd565b600190505b919050565b6113f93360056000016121f990919063ffffffff16565b61142f576040517ffe2fc9c600000000000000000000000000000000000000000000000000000000815260040160405180910390fd5b61144633600060020161285190919063ffffffff16565b1561147d576040517ff873d3b700000000000000000000000000000000000000000000000000000000815260040160405180910390fd5b6000600560040160003373ffffffffffffffffffffffffffffffffffffffff1673ffffffffffffffffffffffffffffffffffffffff16815260200190815260200160002080546114cc906136bb565b905003611505576040517fa30132d500000000000000000000000000000000000000000000000000000000815260040160405180910390fd5b6000815103611549576040517f08c379a000000000000000000000000000000000000000000000000000000000815260040161154090613be2565b60405180910390fd5b611562338260056000016128349092919063ffffffff16565b50565b61156e3361082f565b8061157e575061157d3361132e565b5b156115be576040517f08c379a00000000000000000000000000000000000000000000000000000000081526004016115b590613c74565b60405180910390fd5b6000825103611602576040517f08c379a00000000000000000000000000000000000000000000000000000000081526004016115f9906137f0565b60405180910390fd5b61161b3383600b6000016125a49092919063ffffffff16565b33600b60040160003373ffffffffffffffffffffffffffffffffffffffff1673ffffffffffffffffffffffffffffffffffffffff16815260200190815260200160002060000160006101000a81548173ffffffffffffffffffffffffffffffffffffffff021916908373ffffffffffffffffffffffffffffffffffffffff16021790555080600b60040160003373ffffffffffffffffffffffffffffffffffffffff1673ffffffffffffffffffffffffffffffffffffffff16815260200190815260200160002060020190816116f19190613a32565b505050565b6060611705600b60000161250f565b905090565b611713336107c3565b611749576040517f4d371dc700000000000000000000000000000000000000000000000000000000815260040160405180910390fd5b806000600101908161175b9190613a32565b5050565b6117683361130e565b61179e576040517fc11330e600000000000000000000000000000000000000000000000000000000815260040160405180910390fd5b6117a78161132e565b6117dd576040517ffe2fc9c600000000000000000000000000000000000000000000000000000000815260040160405180910390fd5b6118b981600b60040160003373ffffffffffffffffffffffffffffffffffffffff1673ffffffffffffffffffffffffffffffffffffffff1681526020019081526020016000206001018054806020026020016040519081016040528092919081815260200182805480156118a657602002820191906000526020600020905b8160009054906101000a900473ffffffffffffffffffffffffffffffffffffffff1673ffffffffffffffffffffffffffffffffffffffff168152602001906001019080831161185c575b505050505061290d90919063ffffffff16565b61196457600b60040160003373ffffffffffffffffffffffffffffffffffffffff1673ffffffffffffffffffffffffffffffffffffffff168152602001908152602001600020600101819080600181540180825580915050600190039060005260206000200160009091909190916101000a81548173ffffffffffffffffffffffffffffffffffffffff021916908373ffffffffffffffffffffffffffffffffffffffff1602179055505b50565b6119708261130e565b6119a6576040517fc11330e600000000000000000000000000000000000000000000000000000000815260040160405180910390fd5b3373ffffffffffffffffffffffffffffffffffffffff16600b60040160008473ffffffffffffffffffffffffffffffffffffffff1673ffffffffffffffffffffffffffffffffffffffff16815260200190815260200160002060000160009054906101000a900473ffffffffffffffffffffffffffffffffffffffff1673ffffffffffffffffffffffffffffffffffffffff1614611a79576040517f08c379a0000000000000000000000000000000000000000000000000000000008152600401611a709061385c565b60405180910390fd5b80600b60040160008473ffffffffffffffffffffffffffffffffffffffff1673ffffffffffffffffffffffffffffffffffffffff1681526020019081526020016000206002019081611acb9190613a32565b505050565b6060611adb8261082f565b611b11576040517ffe2fc9c600000000000000000000000000000000000000000000000000000000815260040160405180910390fd5b611b2882600560000161281490919063ffffffff16565b9050919050565b6000815103611b73576040517f08c379a0000000000000000000000000000000000000000000000000000000008152600401611b6a90613d06565b60405180910390fd5b611b8a3360056000016121f990919063ffffffff16565b611bc0576040517ffe2fc9c600000000000000000000000000000000000000000000000000000000815260040160405180910390fd5b611bd733600060020161285190919063ffffffff16565b15611c0e576040517ff873d3b700000000000000000000000000000000000000000000000000000000815260040160405180910390fd5b80600560040160003373ffffffffffffffffffffffffffffffffffffffff1673ffffffffffffffffffffffffffffffffffffffff1681526020019081526020016000209081611c5d9190613a32565b5050565b6060611c7a3360056000016121f990919063ffffffff16565b611cb0576040517ffe2fc9c600000000000000000000000000000000000000000000000000000000815260040160405180910390fd5b611cc733600060020161285190919063ffffffff16565b15611cfe576040517ff873d3b700000000000000000000000000000000000000000000000000000000815260040160405180910390fd5b6000600560040160003373ffffffffffffffffffffffffffffffffffffffff1673ffffffffffffffffffffffffffffffffffffffff1681526020019081526020016000208054611d4d906136bb565b905003611d86576040517fa30132d500000000000000000000000000000000000000000000000000000000815260040160405180910390fd5b6005800160003373ffffffffffffffffffffffffffffffffffffffff1673ffffffffffffffffffffffffffffffffffffffff168152602001908152602001600020600001805480602002602001604051908101604052809291908181526020018280548015611e4a57602002820191906000526020600020905b8160009054906101000a900473ffffffffffffffffffffffffffffffffffffffff1673ffffffffffffffffffffffffffffffffffffffff1681526020019060010190808311611e00575b5050505050905090565b611e5d3361130e565b611e93576040517fc11330e600000000000000000000000000000000000000000000000000000000815260040160405180910390fd5b611e9c8361132e565b611ed2576040517ffe2fc9c600000000000000000000000000000000000000000000000000000000815260040160405180910390fd5b611edc8282610eae565b82600b60040160003373ffffffffffffffffffffffffffffffffffffffff1673ffffffffffffffffffffffffffffffffffffffff16815260200190815260200160002060000160006101000a81548173ffffffffffffffffffffffffffffffffffffffff021916908373ffffffffffffffffffffffffffffffffffffffff160217905550611fb3336005800160008673ffffffffffffffffffffffffffffffffffffffff1673ffffffffffffffffffffffffffffffffffffffff16815260200190815260200160002061260b90919063ffffffff16565b505050565b6060600560040160008373ffffffffffffffffffffffffffffffffffffffff1673ffffffffffffffffffffffffffffffffffffffff1681526020019081526020016000208054612007906136bb565b80601f0160208091040260200160405190810160405280929190818152602001828054612033906136bb565b80156120805780601f1061205557610100808354040283529160200191612080565b820191906000526020600020905b81548152906001019060200180831161206357829003601f168201915b50505050509050919050565b6060600060020160000180548060200260200160405190810160405280929190818152602001828054801561211657602002820191906000526020600020905b8160009054906101000a900473ffffffffffffffffffffffffffffffffffffffff1673ffffffffffffffffffffffffffffffffffffffff16815260200190600101908083116120cc575b5050505050905090565b6121293361130e565b61215f576040517fc11330e600000000000000000000000000000000000000000000000000000000815260040160405180910390fd5b6121688161132e565b61219e576040517ffe2fc9c600000000000000000000000000000000000000000000000000000000815260040160405180910390fd5b6121f581600b60040160003373ffffffffffffffffffffffffffffffffffffffff1673ffffffffffffffffffffffffffffffffffffffff16815260200190815260200160002060010161294490919063ffffffff16565b5050565b60008073ffffffffffffffffffffffffffffffffffffffff168273ffffffffffffffffffffffffffffffffffffffff1603612269576040517f08c379a000000000000000000000000000000000000000000000000000000000815260040161226090613d98565b60405180910390fd5b60006122818385600001612b6990919063ffffffff16565b511415905092915050565b8160010160008273ffffffffffffffffffffffffffffffffffffffff1673ffffffffffffffffffffffffffffffffffffffff16815260200190815260200160002060009054906101000a900460ff161561250b578160010160008273ffffffffffffffffffffffffffffffffffffffff1673ffffffffffffffffffffffffffffffffffffffff16815260200190815260200160002060006101000a81549060ff021916905560008260020160008373ffffffffffffffffffffffffffffffffffffffff1673ffffffffffffffffffffffffffffffffffffffff16815260200190815260200160002054905060006001846000018054905061238d9190613de7565b905060008460000182815481106123a7576123a6613e1b565b5b9060005260206000200160009054906101000a900473ffffffffffffffffffffffffffffffffffffffff169050828560020160008373ffffffffffffffffffffffffffffffffffffffff1673ffffffffffffffffffffffffffffffffffffffff168152602001908152602001600020819055508460020160008573ffffffffffffffffffffffffffffffffffffffff1673ffffffffffffffffffffffffffffffffffffffff168152602001908152602001600020600090558085600001848154811061247657612475613e1b565b5b9060005260206000200160006101000a81548173ffffffffffffffffffffffffffffffffffffffff021916908373ffffffffffffffffffffffffffffffffffffffff160217905550846000018054806124d2576124d1613e4a565b5b6001900381819060005260206000200160006101000a81549073ffffffffffffffffffffffffffffffffffffffff021916905590555050505b5050565b60608160000160000180548060200260200160405190810160405280929190818152602001828054801561259857602002820191906000526020600020905b8160009054906101000a900473ffffffffffffffffffffffffffffffffffffffff1673ffffffffffffffffffffffffffffffffffffffff168152602001906001019080831161254e575b50505050509050919050565b6125ae83836121f9565b156125ee576040517f08c379a00000000000000000000000000000000000000000000000000000000081526004016125e590613ec5565b60405180910390fd5b612606828285600001612c3d9092919063ffffffff16565b505050565b8160010160008273ffffffffffffffffffffffffffffffffffffffff1673ffffffffffffffffffffffffffffffffffffffff16815260200190815260200160002060009054906101000a900460ff1661276b5760018260010160008373ffffffffffffffffffffffffffffffffffffffff1673ffffffffffffffffffffffffffffffffffffffff16815260200190815260200160002060006101000a81548160ff02191690831515021790555081600001805490508260020160008373ffffffffffffffffffffffffffffffffffffffff1673ffffffffffffffffffffffffffffffffffffffff1681526020019081526020016000208190555081600001819080600181540180825580915050600190039060005260206000200160009091909190916101000a81548173ffffffffffffffffffffffffffffffffffffffff021916908373ffffffffffffffffffffffffffffffffffffffff1602179055505b5050565b600080600090505b83518110156127e9578273ffffffffffffffffffffffffffffffffffffffff168482815181106127aa576127a9613e1b565b5b602002602001015173ffffffffffffffffffffffffffffffffffffffff16036127d6578091505061280e565b80806127e190613ee5565b915050612777565b507fffffffffffffffffffffffffffffffffffffffffffffffffffffffffffffffff90505b92915050565b606061282c8284600001612b6990919063ffffffff16565b905092915050565b61284c828285600001612c3d9092919063ffffffff16565b505050565b60008260010160008373ffffffffffffffffffffffffffffffffffffffff1673ffffffffffffffffffffffffffffffffffffffff16815260200190815260200160002060009054906101000a900460ff16905092915050565b6128b482826121f9565b6128f3576040517f08c379a00000000000000000000000000000000000000000000000000000000081526004016128ea90613f9f565b60405180910390fd5b6129098183600001612df190919063ffffffff16565b5050565b60007fffffffffffffffffffffffffffffffffffffffffffffffffffffffffffffffff61293a848461276f565b1415905092915050565b6000806129d6848054806020026020016040519081016040528092919081815260200182805480156129cb57602002820191906000526020600020905b8160009054906101000a900473ffffffffffffffffffffffffffffffffffffffff1673ffffffffffffffffffffffffffffffffffffffff1681526020019060010190808311612981575b50505050508461276f565b90507fffffffffffffffffffffffffffffffffffffffffffffffffffffffffffffffff8103612a09576000915050612b63565b600084805480602002602001604051908101604052809291908181526020018280548015612a8c57602002820191906000526020600020905b8160009054906101000a900473ffffffffffffffffffffffffffffffffffffffff1673ffffffffffffffffffffffffffffffffffffffff1681526020019060010190808311612a42575b505050505090508060018251612aa29190613de7565b81518110612ab357612ab2613e1b565b5b6020026020010151858381548110612ace57612acd613e1b565b5b9060005260206000200160006101000a81548173ffffffffffffffffffffffffffffffffffffffff021916908373ffffffffffffffffffffffffffffffffffffffff16021790555084805480612b2757612b26613e4a565b5b6001900381819060005260206000200160006101000a81549073ffffffffffffffffffffffffffffffffffffffff021916905590556001925050505b92915050565b60608260010160008373ffffffffffffffffffffffffffffffffffffffff1673ffffffffffffffffffffffffffffffffffffffff1681526020019081526020016000208054612bb7906136bb565b80601f0160208091040260200160405190810160405280929190818152602001828054612be3906136bb565b8015612c305780601f10612c0557610100808354040283529160200191612c30565b820191906000526020600020905b815481529060010190602001808311612c1357829003601f168201915b5050505050905092915050565b8260030160008373ffffffffffffffffffffffffffffffffffffffff1673ffffffffffffffffffffffffffffffffffffffff16815260200190815260200160002060009054906101000a900460ff16612d9d5782600001805490508360020160008473ffffffffffffffffffffffffffffffffffffffff1673ffffffffffffffffffffffffffffffffffffffff1681526020019081526020016000208190555060018360030160008473ffffffffffffffffffffffffffffffffffffffff1673ffffffffffffffffffffffffffffffffffffffff16815260200190815260200160002060006101000a81548160ff02191690831515021790555082600001829080600181540180825580915050600190039060005260206000200160009091909190916101000a81548173ffffffffffffffffffffffffffffffffffffffff021916908373ffffffffffffffffffffffffffffffffffffffff1602179055505b808360010160008473ffffffffffffffffffffffffffffffffffffffff1673ffffffffffffffffffffffffffffffffffffffff1681526020019081526020016000209081612deb9190613a32565b50505050565b8160030160008273ffffffffffffffffffffffffffffffffffffffff1673ffffffffffffffffffffffffffffffffffffffff16815260200190815260200160002060009054906101000a900460ff16156130bd578160010160008273ffffffffffffffffffffffffffffffffffffffff1673ffffffffffffffffffffffffffffffffffffffff1681526020019081526020016000206000612e9291906130c1565b8160030160008273ffffffffffffffffffffffffffffffffffffffff1673ffffffffffffffffffffffffffffffffffffffff16815260200190815260200160002060006101000a81549060ff021916905560008260020160008373ffffffffffffffffffffffffffffffffffffffff1673ffffffffffffffffffffffffffffffffffffffff168152602001908152602001600020549050600060018460000180549050612f3f9190613de7565b90506000846000018281548110612f5957612f58613e1b565b5b9060005260206000200160009054906101000a900473ffffffffffffffffffffffffffffffffffffffff169050828560020160008373ffffffffffffffffffffffffffffffffffffffff1673ffffffffffffffffffffffffffffffffffffffff168152602001908152602001600020819055508460020160008573ffffffffffffffffffffffffffffffffffffffff1673ffffffffffffffffffffffffffffffffffffffff168152602001908152602001600020600090558085600001848154811061302857613027613e1b565b5b9060005260206000200160006101000a81548173ffffffffffffffffffffffffffffffffffffffff021916908373ffffffffffffffffffffffffffffffffffffffff1602179055508460000180548061308457613083613e4a565b5b6001900381819060005260206000200160006101000a81549073ffffffffffffffffffffffffffffffffffffffff021916905590555050505b5050565b5080546130cd906136bb565b6000825580601f106130df57506130fe565b601f0160209004906000526020600020908101906130fd9190613101565b5b50565b5b8082111561311a576000816000905550600101613102565b5090565b6000604051905090565b600080fd5b600080fd5b600073ffffffffffffffffffffffffffffffffffffffff82169050919050565b600061315d82613132565b9050919050565b61316d81613152565b811461317857600080fd5b50565b60008135905061318a81613164565b92915050565b6000602082840312156131a6576131a5613128565b5b60006131b48482850161317b565b91505092915050565b600081519050919050565b600082825260208201905092915050565b60005b838110156131f75780820151818401526020810190506131dc565b60008484015250505050565b6000601f19601f8301169050919050565b600061321f826131bd565b61322981856131c8565b93506132398185602086016131d9565b61324281613203565b840191505092915050565b600060208201905081810360008301526132678184613214565b905092915050565b600081519050919050565b600082825260208201905092915050565b6000819050602082019050919050565b6132a481613152565b82525050565b60006132b6838361329b565b60208301905092915050565b6000602082019050919050565b60006132da8261326f565b6132e4818561327a565b93506132ef8361328b565b8060005b8381101561332057815161330788826132aa565b9750613312836132c2565b9250506001810190506132f3565b5085935050505092915050565b6000602082019050818103600083015261334781846132cf565b905092915050565b61335881613152565b82525050565b6000602082019050613373600083018461334f565b92915050565b60008115159050919050565b61338e81613379565b82525050565b60006020820190506133a96000830184613385565b92915050565b600080fd5b600080fd5b7f4e487b7100000000000000000000000000000000000000000000000000000000600052604160045260246000fd5b6133f182613203565b810181811067ffffffffffffffff821117156134105761340f6133b9565b5b80604052505050565b600061342361311e565b905061342f82826133e8565b919050565b600067ffffffffffffffff82111561344f5761344e6133b9565b5b61345882613203565b9050602081019050919050565b82818337600083830152505050565b600061348761348284613434565b613419565b9050828152602081018484840111156134a3576134a26133b4565b5b6134ae848285613465565b509392505050565b600082601f8301126134cb576134ca6133af565b5b81356134db848260208601613474565b91505092915050565b6000602082840312156134fa576134f9613128565b5b600082013567ffffffffffffffff8111156135185761351761312d565b5b613524848285016134b6565b91505092915050565b6000806040838503121561354457613543613128565b5b600083013567ffffffffffffffff8111156135625761356161312d565b5b61356e858286016134b6565b925050602083013567ffffffffffffffff81111561358f5761358e61312d565b5b61359b858286016134b6565b9150509250929050565b600080604083850312156135bc576135bb613128565b5b60006135ca8582860161317b565b925050602083013567ffffffffffffffff8111156135eb576135ea61312d565b5b6135f7858286016134b6565b9150509250929050565b60008060006060848603121561361a57613619613128565b5b60006136288682870161317b565b935050602084013567ffffffffffffffff8111156136495761364861312d565b5b613655868287016134b6565b925050604084013567ffffffffffffffff8111156136765761367561312d565b5b613682868287016134b6565b9150509250925092565b7f4e487b7100000000000000000000000000000000000000000000000000000000600052602260045260246000fd5b600060028204905060018216806136d357607f821691505b6020821081036136e6576136e561368c565b5b50919050565b7f436f6e74726163743a204164647265737320616c72656164792072656769737460008201527f657265642061732070617469656e740000000000000000000000000000000000602082015250565b6000613748602f836131c8565b9150613753826136ec565b604082019050919050565b600060208201905081810360008301526137778161373b565b9050919050565b7f436f6e74726163743a20456d7074792068617368206973206e6f7420616c6c6f60008201527f7765640000000000000000000000000000000000000000000000000000000000602082015250565b60006137da6023836131c8565b91506137e58261377e565b604082019050919050565b60006020820190508181036000830152613809816137cd565b9050919050565b7f4e6f7420416c6c6f776564000000000000000000000000000000000000000000600082015250565b6000613846600b836131c8565b915061385182613810565b602082019050919050565b6000602082019050818103600083015261387581613839565b9050919050565b60008190508160005260206000209050919050565b60006020601f8301049050919050565b600082821b905092915050565b6000600883026138de7fffffffffffffffffffffffffffffffffffffffffffffffffffffffffffffffff826138a1565b6138e886836138a1565b95508019841693508086168417925050509392505050565b6000819050919050565b6000819050919050565b600061392f61392a61392584613900565b61390a565b613900565b9050919050565b6000819050919050565b61394983613914565b61395d61395582613936565b8484546138ae565b825550505050565b600090565b613972613965565b61397d818484613940565b505050565b5b818110156139a15761399660008261396a565b600181019050613983565b5050565b601f8211156139e6576139b78161387c565b6139c084613891565b810160208510156139cf578190505b6139e36139db85613891565b830182613982565b50505b505050565b600082821c905092915050565b6000613a09600019846008026139eb565b1980831691505092915050565b6000613a2283836139f8565b9150826002028217905092915050565b613a3b826131bd565b67ffffffffffffffff811115613a5457613a536133b9565b5b613a5e82546136bb565b613a698282856139a5565b600060209050601f831160018114613a9c5760008415613a8a578287015190505b613a948582613a16565b865550613afc565b601f198416613aaa8661387c565b60005b82811015613ad257848901518255600182019150602085019450602081019050613aad565b86831015613aef5784890151613aeb601f8916826139f8565b8355505b6001600288020188555050505b505050505050565b7f436f6e74726163743a20446f63746f72206e6f74207265676973746572656400600082015250565b6000613b3a601f836131c8565b9150613b4582613b04565b602082019050919050565b60006020820190508181036000830152613b6981613b2d565b9050919050565b7f436f6e74726163743a20456d7074792068617368206973206e6f7420616c6c6f60008201527f7765642100000000000000000000000000000000000000000000000000000000602082015250565b6000613bcc6024836131c8565b9150613bd782613b70565b604082019050919050565b60006020820190508181036000830152613bfb81613bbf565b9050919050565b7f436f6e74726163743a204164647265737320616c72656164792072656769737460008201527f6572656420617320646f63746f72000000000000000000000000000000000000602082015250565b6000613c5e602e836131c8565b9150613c6982613c02565b604082019050919050565b60006020820190508181036000830152613c8d81613c51565b9050919050565b7f436f6e74726163743a20456d707479207075626c6963206b6579206973206e6f60008201527f7420616c6c6f7765642100000000000000000000000000000000000000000000602082015250565b6000613cf0602a836131c8565b9150613cfb82613c94565b604082019050919050565b60006020820190508181036000830152613d1f81613ce3565b9050919050565b7f526f6c65733a206163636f756e7420697320746865207a65726f20616464726560008201527f7373000000000000000000000000000000000000000000000000000000000000602082015250565b6000613d826022836131c8565b9150613d8d82613d26565b604082019050919050565b60006020820190508181036000830152613db181613d75565b9050919050565b7f4e487b7100000000000000000000000000000000000000000000000000000000600052601160045260246000fd5b6000613df282613900565b9150613dfd83613900565b9250828203905081811115613e1557613e14613db8565b5b92915050565b7f4e487b7100000000000000000000000000000000000000000000000000000000600052603260045260246000fd5b7f4e487b7100000000000000000000000000000000000000000000000000000000600052603160045260246000fd5b7f526f6c65733a206163636f756e7420616c72656164792068617320726f6c6500600082015250565b6000613eaf601f836131c8565b9150613eba82613e79565b602082019050919050565b60006020820190508181036000830152613ede81613ea2565b9050919050565b6000613ef082613900565b91507fffffffffffffffffffffffffffffffffffffffffffffffffffffffffffffffff8203613f2257613f21613db8565b5b600182019050919050565b7f526f6c65733a206163636f756e7420646f6573206e6f74206861766520726f6c60008201527f6500000000000000000000000000000000000000000000000000000000000000602082015250565b6000613f896021836131c8565b9150613f9482613f2d565b604082019050919050565b60006020820190508181036000830152613fb881613f7c565b905091905056fea264697066735822122010f0314003e796602d0b2d9d91c3327ad01a115a519d00a05ca8eb53932645fb64736f6c63430008120033",
    "opcodes": "PUSH1 0x80 PUSH1 0x40 MSTORE CALLVALUE DUP1 ISZERO PUSH2 0x10 JUMPI PUSH1 0x0 DUP1 REVERT JUMPDEST POP CALLER PUSH1 0x0 DUP1 ADD PUSH1 0x0 PUSH2 0x100 EXP DUP2 SLOAD DUP2 PUSH20 0xFFFFFFFFFFFFFFFFFFFFFFFFFFFFFFFFFFFFFFFF MUL NOT AND SWAP1 DUP4 PUSH20 0xFFFFFFFFFFFFFFFFFFFFFFFFFFFFFFFFFFFFFFFF AND MUL OR SWAP1 SSTORE POP PUSH2 0x3FF5 DUP1 PUSH2 0x63 PUSH1 0x0 CODECOPY PUSH1 0x0 RETURN INVALID PUSH1 0x80 PUSH1 0x40 MSTORE CALLVALUE DUP1 ISZERO PUSH2 0x10 JUMPI PUSH1 0x0 DUP1 REVERT JUMPDEST POP PUSH1 0x4 CALLDATASIZE LT PUSH2 0x1DA JUMPI PUSH1 0x0 CALLDATALOAD PUSH1 0xE0 SHR DUP1 PUSH4 0x8F9C79ED GT PUSH2 0x104 JUMPI DUP1 PUSH4 0xC70597AD GT PUSH2 0xA2 JUMPI DUP1 PUSH4 0xD3CD4DF4 GT PUSH2 0x71 JUMPI DUP1 PUSH4 0xD3CD4DF4 EQ PUSH2 0x565 JUMPI DUP1 PUSH4 0xDC823AAF EQ PUSH2 0x581 JUMPI DUP1 PUSH4 0xE2877B4E EQ PUSH2 0x5B1 JUMPI DUP1 PUSH4 0xF7A03A1E EQ PUSH2 0x5CF JUMPI PUSH2 0x1DA JUMP JUMPDEST DUP1 PUSH4 0xC70597AD EQ PUSH2 0x4DF JUMPI DUP1 PUSH4 0xCCE9D43E EQ PUSH2 0x4FB JUMPI DUP1 PUSH4 0xCCFAED16 EQ PUSH2 0x52B JUMPI DUP1 PUSH4 0xD0D9A5E3 EQ PUSH2 0x547 JUMPI PUSH2 0x1DA JUMP JUMPDEST DUP1 PUSH4 0xA03DE49E GT PUSH2 0xDE JUMPI DUP1 PUSH4 0xA03DE49E EQ PUSH2 0x46D JUMPI DUP1 PUSH4 0xA53F514D EQ PUSH2 0x489 JUMPI DUP1 PUSH4 0xAFB97E3D EQ PUSH2 0x4A7 JUMPI DUP1 PUSH4 0xB1E758A4 EQ PUSH2 0x4C3 JUMPI PUSH2 0x1DA JUMP JUMPDEST DUP1 PUSH4 0x8F9C79ED EQ PUSH2 0x3F1 JUMPI DUP1 PUSH4 0x996440C6 EQ PUSH2 0x421 JUMPI DUP1 PUSH4 0x99EEDD2A EQ PUSH2 0x451 JUMPI PUSH2 0x1DA JUMP JUMPDEST DUP1 PUSH4 0x3D8198B4 GT PUSH2 0x17C JUMPI DUP1 PUSH4 0x6E9960C3 GT PUSH2 0x14B JUMPI DUP1 PUSH4 0x6E9960C3 EQ PUSH2 0x37D JUMPI DUP1 PUSH4 0x745ADA64 EQ PUSH2 0x39B JUMPI DUP1 PUSH4 0x88C432E1 EQ PUSH2 0x3B7 JUMPI DUP1 PUSH4 0x8F7F43A9 EQ PUSH2 0x3D3 JUMPI PUSH2 0x1DA JUMP JUMPDEST DUP1 PUSH4 0x3D8198B4 EQ PUSH2 0x2D1 JUMPI DUP1 PUSH4 0x4DF0A2D4 EQ PUSH2 0x301 JUMPI DUP1 PUSH4 0x5B0A7AAD EQ PUSH2 0x331 JUMPI DUP1 PUSH4 0x6D4BCE20 EQ PUSH2 0x34D JUMPI PUSH2 0x1DA JUMP JUMPDEST DUP1 PUSH4 0x21639F04 GT PUSH2 0x1B8 JUMPI DUP1 PUSH4 0x21639F04 EQ PUSH2 0x237 JUMPI DUP1 PUSH4 0x24D7806C EQ PUSH2 0x255 JUMPI DUP1 PUSH4 0x290C61B0 EQ PUSH2 0x285 JUMPI DUP1 PUSH4 0x32991838 EQ PUSH2 0x2B5 JUMPI PUSH2 0x1DA JUMP JUMPDEST DUP1 PUSH4 0xDE99991 EQ PUSH2 0x1DF JUMPI DUP1 PUSH4 0x116461E9 EQ PUSH2 0x1FB JUMPI DUP1 PUSH4 0x1DA3E2DC EQ PUSH2 0x219 JUMPI JUMPDEST PUSH1 0x0 DUP1 REVERT JUMPDEST PUSH2 0x1F9 PUSH1 0x4 DUP1 CALLDATASIZE SUB DUP2 ADD SWAP1 PUSH2 0x1F4 SWAP2 SWAP1 PUSH2 0x3190 JUMP JUMPDEST PUSH2 0x5EB JUMP JUMPDEST STOP JUMPDEST PUSH2 0x203 PUSH2 0x66E JUMP JUMPDEST PUSH1 0x40 MLOAD PUSH2 0x210 SWAP2 SWAP1 PUSH2 0x324D JUMP JUMPDEST PUSH1 0x40 MLOAD DUP1 SWAP2 SUB SWAP1 RETURN JUMPDEST PUSH2 0x221 PUSH2 0x703 JUMP JUMPDEST PUSH1 0x40 MLOAD PUSH2 0x22E SWAP2 SWAP1 PUSH2 0x332D JUMP JUMPDEST PUSH1 0x40 MLOAD DUP1 SWAP2 SUB SWAP1 RETURN JUMPDEST PUSH2 0x23F PUSH2 0x717 JUMP JUMPDEST PUSH1 0x40 MLOAD PUSH2 0x24C SWAP2 SWAP1 PUSH2 0x335E JUMP JUMPDEST PUSH1 0x40 MLOAD DUP1 SWAP2 SUB SWAP1 RETURN JUMPDEST PUSH2 0x26F PUSH1 0x4 DUP1 CALLDATASIZE SUB DUP2 ADD SWAP1 PUSH2 0x26A SWAP2 SWAP1 PUSH2 0x3190 JUMP JUMPDEST PUSH2 0x7C3 JUMP JUMPDEST PUSH1 0x40 MLOAD PUSH2 0x27C SWAP2 SWAP1 PUSH2 0x3394 JUMP JUMPDEST PUSH1 0x40 MLOAD DUP1 SWAP2 SUB SWAP1 RETURN JUMPDEST PUSH2 0x29F PUSH1 0x4 DUP1 CALLDATASIZE SUB DUP2 ADD SWAP1 PUSH2 0x29A SWAP2 SWAP1 PUSH2 0x3190 JUMP JUMPDEST PUSH2 0x82F JUMP JUMPDEST PUSH1 0x40 MLOAD PUSH2 0x2AC SWAP2 SWAP1 PUSH2 0x3394 JUMP JUMPDEST PUSH1 0x40 MLOAD DUP1 SWAP2 SUB SWAP1 RETURN JUMPDEST PUSH2 0x2CF PUSH1 0x4 DUP1 CALLDATASIZE SUB DUP2 ADD SWAP1 PUSH2 0x2CA SWAP2 SWAP1 PUSH2 0x34E4 JUMP JUMPDEST PUSH2 0x84F JUMP JUMPDEST STOP JUMPDEST PUSH2 0x2EB PUSH1 0x4 DUP1 CALLDATASIZE SUB DUP2 ADD SWAP1 PUSH2 0x2E6 SWAP2 SWAP1 PUSH2 0x3190 JUMP JUMPDEST PUSH2 0x90F JUMP JUMPDEST PUSH1 0x40 MLOAD PUSH2 0x2F8 SWAP2 SWAP1 PUSH2 0x324D JUMP JUMPDEST PUSH1 0x40 MLOAD DUP1 SWAP2 SUB SWAP1 RETURN JUMPDEST PUSH2 0x31B PUSH1 0x4 DUP1 CALLDATASIZE SUB DUP2 ADD SWAP1 PUSH2 0x316 SWAP2 SWAP1 PUSH2 0x3190 JUMP JUMPDEST PUSH2 0xC3A JUMP JUMPDEST PUSH1 0x40 MLOAD PUSH2 0x328 SWAP2 SWAP1 PUSH2 0x324D JUMP JUMPDEST PUSH1 0x40 MLOAD DUP1 SWAP2 SUB SWAP1 RETURN JUMPDEST PUSH2 0x34B PUSH1 0x4 DUP1 CALLDATASIZE SUB DUP2 ADD SWAP1 PUSH2 0x346 SWAP2 SWAP1 PUSH2 0x352D JUMP JUMPDEST PUSH2 0xEAE JUMP JUMPDEST STOP JUMPDEST PUSH2 0x367 PUSH1 0x4 DUP1 CALLDATASIZE SUB DUP2 ADD SWAP1 PUSH2 0x362 SWAP2 SWAP1 PUSH2 0x3190 JUMP JUMPDEST PUSH2 0x109F JUMP JUMPDEST PUSH1 0x40 MLOAD PUSH2 0x374 SWAP2 SWAP1 PUSH2 0x3394 JUMP JUMPDEST PUSH1 0x40 MLOAD DUP1 SWAP2 SUB SWAP1 RETURN JUMPDEST PUSH2 0x385 PUSH2 0x10BF JUMP JUMPDEST PUSH1 0x40 MLOAD PUSH2 0x392 SWAP2 SWAP1 PUSH2 0x335E JUMP JUMPDEST PUSH1 0x40 MLOAD DUP1 SWAP2 SUB SWAP1 RETURN JUMPDEST PUSH2 0x3B5 PUSH1 0x4 DUP1 CALLDATASIZE SUB DUP2 ADD SWAP1 PUSH2 0x3B0 SWAP2 SWAP1 PUSH2 0x3190 JUMP JUMPDEST PUSH2 0x10EB JUMP JUMPDEST STOP JUMPDEST PUSH2 0x3D1 PUSH1 0x4 DUP1 CALLDATASIZE SUB DUP2 ADD SWAP1 PUSH2 0x3CC SWAP2 SWAP1 PUSH2 0x34E4 JUMP JUMPDEST PUSH2 0x11A3 JUMP JUMPDEST STOP JUMPDEST PUSH2 0x3DB PUSH2 0x11FE JUMP JUMPDEST PUSH1 0x40 MLOAD PUSH2 0x3E8 SWAP2 SWAP1 PUSH2 0x332D JUMP JUMPDEST PUSH1 0x40 MLOAD DUP1 SWAP2 SUB SWAP1 RETURN JUMPDEST PUSH2 0x40B PUSH1 0x4 DUP1 CALLDATASIZE SUB DUP2 ADD SWAP1 PUSH2 0x406 SWAP2 SWAP1 PUSH2 0x3190 JUMP JUMPDEST PUSH2 0x130E JUMP JUMPDEST PUSH1 0x40 MLOAD PUSH2 0x418 SWAP2 SWAP1 PUSH2 0x3394 JUMP JUMPDEST PUSH1 0x40 MLOAD DUP1 SWAP2 SUB SWAP1 RETURN JUMPDEST PUSH2 0x43B PUSH1 0x4 DUP1 CALLDATASIZE SUB DUP2 ADD SWAP1 PUSH2 0x436 SWAP2 SWAP1 PUSH2 0x3190 JUMP JUMPDEST PUSH2 0x132E JUMP JUMPDEST PUSH1 0x40 MLOAD PUSH2 0x448 SWAP2 SWAP1 PUSH2 0x3394 JUMP JUMPDEST PUSH1 0x40 MLOAD DUP1 SWAP2 SUB SWAP1 RETURN JUMPDEST PUSH2 0x46B PUSH1 0x4 DUP1 CALLDATASIZE SUB DUP2 ADD SWAP1 PUSH2 0x466 SWAP2 SWAP1 PUSH2 0x34E4 JUMP JUMPDEST PUSH2 0x13E2 JUMP JUMPDEST STOP JUMPDEST PUSH2 0x487 PUSH1 0x4 DUP1 CALLDATASIZE SUB DUP2 ADD SWAP1 PUSH2 0x482 SWAP2 SWAP1 PUSH2 0x352D JUMP JUMPDEST PUSH2 0x1565 JUMP JUMPDEST STOP JUMPDEST PUSH2 0x491 PUSH2 0x16F6 JUMP JUMPDEST PUSH1 0x40 MLOAD PUSH2 0x49E SWAP2 SWAP1 PUSH2 0x332D JUMP JUMPDEST PUSH1 0x40 MLOAD DUP1 SWAP2 SUB SWAP1 RETURN JUMPDEST PUSH2 0x4C1 PUSH1 0x4 DUP1 CALLDATASIZE SUB DUP2 ADD SWAP1 PUSH2 0x4BC SWAP2 SWAP1 PUSH2 0x34E4 JUMP JUMPDEST PUSH2 0x170A JUMP JUMPDEST STOP JUMPDEST PUSH2 0x4DD PUSH1 0x4 DUP1 CALLDATASIZE SUB DUP2 ADD SWAP1 PUSH2 0x4D8 SWAP2 SWAP1 PUSH2 0x3190 JUMP JUMPDEST PUSH2 0x175F JUMP JUMPDEST STOP JUMPDEST PUSH2 0x4F9 PUSH1 0x4 DUP1 CALLDATASIZE SUB DUP2 ADD SWAP1 PUSH2 0x4F4 SWAP2 SWAP1 PUSH2 0x35A5 JUMP JUMPDEST PUSH2 0x1967 JUMP JUMPDEST STOP JUMPDEST PUSH2 0x515 PUSH1 0x4 DUP1 CALLDATASIZE SUB DUP2 ADD SWAP1 PUSH2 0x510 SWAP2 SWAP1 PUSH2 0x3190 JUMP JUMPDEST PUSH2 0x1AD0 JUMP JUMPDEST PUSH1 0x40 MLOAD PUSH2 0x522 SWAP2 SWAP1 PUSH2 0x324D JUMP JUMPDEST PUSH1 0x40 MLOAD DUP1 SWAP2 SUB SWAP1 RETURN JUMPDEST PUSH2 0x545 PUSH1 0x4 DUP1 CALLDATASIZE SUB DUP2 ADD SWAP1 PUSH2 0x540 SWAP2 SWAP1 PUSH2 0x34E4 JUMP JUMPDEST PUSH2 0x1B2F JUMP JUMPDEST STOP JUMPDEST PUSH2 0x54F PUSH2 0x1C61 JUMP JUMPDEST PUSH1 0x40 MLOAD PUSH2 0x55C SWAP2 SWAP1 PUSH2 0x332D JUMP JUMPDEST PUSH1 0x40 MLOAD DUP1 SWAP2 SUB SWAP1 RETURN JUMPDEST PUSH2 0x57F PUSH1 0x4 DUP1 CALLDATASIZE SUB DUP2 ADD SWAP1 PUSH2 0x57A SWAP2 SWAP1 PUSH2 0x3601 JUMP JUMPDEST PUSH2 0x1E54 JUMP JUMPDEST STOP JUMPDEST PUSH2 0x59B PUSH1 0x4 DUP1 CALLDATASIZE SUB DUP2 ADD SWAP1 PUSH2 0x596 SWAP2 SWAP1 PUSH2 0x3190 JUMP JUMPDEST PUSH2 0x1FB8 JUMP JUMPDEST PUSH1 0x40 MLOAD PUSH2 0x5A8 SWAP2 SWAP1 PUSH2 0x324D JUMP JUMPDEST PUSH1 0x40 MLOAD DUP1 SWAP2 SUB SWAP1 RETURN JUMPDEST PUSH2 0x5B9 PUSH2 0x208C JUMP JUMPDEST PUSH1 0x40 MLOAD PUSH2 0x5C6 SWAP2 SWAP1 PUSH2 0x332D JUMP JUMPDEST PUSH1 0x40 MLOAD DUP1 SWAP2 SUB SWAP1 RETURN JUMPDEST PUSH2 0x5E9 PUSH1 0x4 DUP1 CALLDATASIZE SUB DUP2 ADD SWAP1 PUSH2 0x5E4 SWAP2 SWAP1 PUSH2 0x3190 JUMP JUMPDEST PUSH2 0x2120 JUMP JUMPDEST STOP JUMPDEST PUSH2 0x5F4 CALLER PUSH2 0x7C3 JUMP JUMPDEST PUSH2 0x62A JUMPI PUSH1 0x40 MLOAD PUSH32 0x4D371DC700000000000000000000000000000000000000000000000000000000 DUP2 MSTORE PUSH1 0x4 ADD PUSH1 0x40 MLOAD DUP1 SWAP2 SUB SWAP1 REVERT JUMPDEST PUSH2 0x633 DUP2 PUSH2 0x132E JUMP JUMPDEST PUSH2 0x66B JUMPI PUSH2 0x64E DUP2 PUSH1 0x5 PUSH1 0x0 ADD PUSH2 0x21F9 SWAP1 SWAP2 SWAP1 PUSH4 0xFFFFFFFF AND JUMP JUMPDEST ISZERO PUSH2 0x66B JUMPI PUSH2 0x66A DUP2 PUSH1 0x0 PUSH1 0x2 ADD PUSH2 0x228C SWAP1 SWAP2 SWAP1 PUSH4 0xFFFFFFFF AND JUMP JUMPDEST JUMPDEST POP JUMP JUMPDEST PUSH1 0x60 PUSH1 0x0 PUSH1 0x1 ADD DUP1 SLOAD PUSH2 0x680 SWAP1 PUSH2 0x36BB JUMP JUMPDEST DUP1 PUSH1 0x1F ADD PUSH1 0x20 DUP1 SWAP2 DIV MUL PUSH1 0x20 ADD PUSH1 0x40 MLOAD SWAP1 DUP2 ADD PUSH1 0x40 MSTORE DUP1 SWAP3 SWAP2 SWAP1 DUP2 DUP2 MSTORE PUSH1 0x20 ADD DUP3 DUP1 SLOAD PUSH2 0x6AC SWAP1 PUSH2 0x36BB JUMP JUMPDEST DUP1 ISZERO PUSH2 0x6F9 JUMPI DUP1 PUSH1 0x1F LT PUSH2 0x6CE JUMPI PUSH2 0x100 DUP1 DUP4 SLOAD DIV MUL DUP4 MSTORE SWAP2 PUSH1 0x20 ADD SWAP2 PUSH2 0x6F9 JUMP JUMPDEST DUP3 ADD SWAP2 SWAP1 PUSH1 0x0 MSTORE PUSH1 0x20 PUSH1 0x0 KECCAK256 SWAP1 JUMPDEST DUP2 SLOAD DUP2 MSTORE SWAP1 PUSH1 0x1 ADD SWAP1 PUSH1 0x20 ADD DUP1 DUP4 GT PUSH2 0x6DC JUMPI DUP3 SWAP1 SUB PUSH1 0x1F AND DUP3 ADD SWAP2 JUMPDEST POP POP POP POP POP SWAP1 POP SWAP1 JUMP JUMPDEST PUSH1 0x60 PUSH2 0x712 PUSH1 0x5 PUSH1 0x0 ADD PUSH2 0x250F JUMP JUMPDEST SWAP1 POP SWAP1 JUMP JUMPDEST PUSH1 0x0 PUSH2 0x722 CALLER PUSH2 0x130E JUMP JUMPDEST PUSH2 0x758 JUMPI PUSH1 0x40 MLOAD PUSH32 0xC11330E600000000000000000000000000000000000000000000000000000000 DUP2 MSTORE PUSH1 0x4 ADD PUSH1 0x40 MLOAD DUP1 SWAP2 SUB SWAP1 REVERT JUMPDEST PUSH1 0xB PUSH1 0x4 ADD PUSH1 0x0 CALLER PUSH20 0xFFFFFFFFFFFFFFFFFFFFFFFFFFFFFFFFFFFFFFFF AND PUSH20 0xFFFFFFFFFFFFFFFFFFFFFFFFFFFFFFFFFFFFFFFF AND DUP2 MSTORE PUSH1 0x20 ADD SWAP1 DUP2 MSTORE PUSH1 0x20 ADD PUSH1 0x0 KECCAK256 PUSH1 0x0 ADD PUSH1 0x0 SWAP1 SLOAD SWAP1 PUSH2 0x100 EXP SWAP1 DIV PUSH20 0xFFFFFFFFFFFFFFFFFFFFFFFFFFFFFFFFFFFFFFFF AND SWAP1 POP SWAP1 JUMP JUMPDEST PUSH1 0x0 DUP2 PUSH20 0xFFFFFFFFFFFFFFFFFFFFFFFFFFFFFFFFFFFFFFFF AND PUSH1 0x0 DUP1 ADD PUSH1 0x0 SWAP1 SLOAD SWAP1 PUSH2 0x100 EXP SWAP1 DIV PUSH20 0xFFFFFFFFFFFFFFFFFFFFFFFFFFFFFFFFFFFFFFFF AND PUSH20 0xFFFFFFFFFFFFFFFFFFFFFFFFFFFFFFFFFFFFFFFF AND SUB PUSH2 0x825 JUMPI PUSH1 0x1 SWAP1 POP PUSH2 0x82A JUMP JUMPDEST PUSH1 0x0 SWAP1 POP JUMPDEST SWAP2 SWAP1 POP JUMP JUMPDEST PUSH1 0x0 PUSH2 0x848 DUP3 PUSH1 0x5 PUSH1 0x0 ADD PUSH2 0x21F9 SWAP1 SWAP2 SWAP1 PUSH4 0xFFFFFFFF AND JUMP JUMPDEST SWAP1 POP SWAP2 SWAP1 POP JUMP JUMPDEST PUSH2 0x858 CALLER PUSH2 0x130E JUMP JUMPDEST ISZERO PUSH2 0x898 JUMPI PUSH1 0x40 MLOAD PUSH32 0x8C379A000000000000000000000000000000000000000000000000000000000 DUP2 MSTORE PUSH1 0x4 ADD PUSH2 0x88F SWAP1 PUSH2 0x375E JUMP JUMPDEST PUSH1 0x40 MLOAD DUP1 SWAP2 SUB SWAP1 REVERT JUMPDEST PUSH1 0x0 DUP2 MLOAD SUB PUSH2 0x8DC JUMPI PUSH1 0x40 MLOAD PUSH32 0x8C379A000000000000000000000000000000000000000000000000000000000 DUP2 MSTORE PUSH1 0x4 ADD PUSH2 0x8D3 SWAP1 PUSH2 0x37F0 JUMP JUMPDEST PUSH1 0x40 MLOAD DUP1 SWAP2 SUB SWAP1 REVERT JUMPDEST PUSH2 0x8F5 CALLER DUP3 PUSH1 0x5 PUSH1 0x0 ADD PUSH2 0x25A4 SWAP1 SWAP3 SWAP2 SWAP1 PUSH4 0xFFFFFFFF AND JUMP JUMPDEST PUSH2 0x90C CALLER PUSH1 0x0 PUSH1 0x2 ADD PUSH2 0x260B SWAP1 SWAP2 SWAP1 PUSH4 0xFFFFFFFF AND JUMP JUMPDEST POP JUMP JUMPDEST PUSH1 0x60 PUSH2 0x91A DUP3 PUSH2 0x130E JUMP JUMPDEST PUSH2 0x950 JUMPI PUSH1 0x40 MLOAD PUSH32 0xC11330E600000000000000000000000000000000000000000000000000000000 DUP2 MSTORE PUSH1 0x4 ADD PUSH1 0x40 MLOAD DUP1 SWAP2 SUB SWAP1 REVERT JUMPDEST DUP2 PUSH20 0xFFFFFFFFFFFFFFFFFFFFFFFFFFFFFFFFFFFFFFFF AND CALLER PUSH20 0xFFFFFFFFFFFFFFFFFFFFFFFFFFFFFFFFFFFFFFFF AND EQ DUP1 PUSH2 0xA1A JUMPI POP CALLER PUSH20 0xFFFFFFFFFFFFFFFFFFFFFFFFFFFFFFFFFFFFFFFF AND PUSH1 0xB PUSH1 0x4 ADD PUSH1 0x0 DUP5 PUSH20 0xFFFFFFFFFFFFFFFFFFFFFFFFFFFFFFFFFFFFFFFF AND PUSH20 0xFFFFFFFFFFFFFFFFFFFFFFFFFFFFFFFFFFFFFFFF AND DUP2 MSTORE PUSH1 0x20 ADD SWAP1 DUP2 MSTORE PUSH1 0x20 ADD PUSH1 0x0 KECCAK256 PUSH1 0x0 ADD PUSH1 0x0 SWAP1 SLOAD SWAP1 PUSH2 0x100 EXP SWAP1 DIV PUSH20 0xFFFFFFFFFFFFFFFFFFFFFFFFFFFFFFFFFFFFFFFF AND PUSH20 0xFFFFFFFFFFFFFFFFFFFFFFFFFFFFFFFFFFFFFFFF AND EQ JUMPDEST DUP1 PUSH2 0xB20 JUMPI POP PUSH32 0xFFFFFFFFFFFFFFFFFFFFFFFFFFFFFFFFFFFFFFFFFFFFFFFFFFFFFFFFFFFFFFFF PUSH2 0xB1D CALLER PUSH1 0xB PUSH1 0x4 ADD PUSH1 0x0 DUP7 PUSH20 0xFFFFFFFFFFFFFFFFFFFFFFFFFFFFFFFFFFFFFFFF AND PUSH20 0xFFFFFFFFFFFFFFFFFFFFFFFFFFFFFFFFFFFFFFFF AND DUP2 MSTORE PUSH1 0x20 ADD SWAP1 DUP2 MSTORE PUSH1 0x20 ADD PUSH1 0x0 KECCAK256 PUSH1 0x1 ADD DUP1 SLOAD DUP1 PUSH1 0x20 MUL PUSH1 0x20 ADD PUSH1 0x40 MLOAD SWAP1 DUP2 ADD PUSH1 0x40 MSTORE DUP1 SWAP3 SWAP2 SWAP1 DUP2 DUP2 MSTORE PUSH1 0x20 ADD DUP3 DUP1 SLOAD DUP1 ISZERO PUSH2 0xB0A JUMPI PUSH1 0x20 MUL DUP3 ADD SWAP2 SWAP1 PUSH1 0x0 MSTORE PUSH1 0x20 PUSH1 0x0 KECCAK256 SWAP1 JUMPDEST DUP2 PUSH1 0x0 SWAP1 SLOAD SWAP1 PUSH2 0x100 EXP SWAP1 DIV PUSH20 0xFFFFFFFFFFFFFFFFFFFFFFFFFFFFFFFFFFFFFFFF AND PUSH20 0xFFFFFFFFFFFFFFFFFFFFFFFFFFFFFFFFFFFFFFFF AND DUP2 MSTORE PUSH1 0x20 ADD SWAP1 PUSH1 0x1 ADD SWAP1 DUP1 DUP4 GT PUSH2 0xAC0 JUMPI JUMPDEST POP POP POP POP POP PUSH2 0x276F SWAP1 SWAP2 SWAP1 PUSH4 0xFFFFFFFF AND JUMP JUMPDEST EQ ISZERO JUMPDEST ISZERO PUSH2 0xBFA JUMPI PUSH1 0xB PUSH1 0x4 ADD PUSH1 0x0 DUP4 PUSH20 0xFFFFFFFFFFFFFFFFFFFFFFFFFFFFFFFFFFFFFFFF AND PUSH20 0xFFFFFFFFFFFFFFFFFFFFFFFFFFFFFFFFFFFFFFFF AND DUP2 MSTORE PUSH1 0x20 ADD SWAP1 DUP2 MSTORE PUSH1 0x20 ADD PUSH1 0x0 KECCAK256 PUSH1 0x2 ADD DUP1 SLOAD PUSH2 0xB75 SWAP1 PUSH2 0x36BB JUMP JUMPDEST DUP1 PUSH1 0x1F ADD PUSH1 0x20 DUP1 SWAP2 DIV MUL PUSH1 0x20 ADD PUSH1 0x40 MLOAD SWAP1 DUP2 ADD PUSH1 0x40 MSTORE DUP1 SWAP3 SWAP2 SWAP1 DUP2 DUP2 MSTORE PUSH1 0x20 ADD DUP3 DUP1 SLOAD PUSH2 0xBA1 SWAP1 PUSH2 0x36BB JUMP JUMPDEST DUP1 ISZERO PUSH2 0xBEE JUMPI DUP1 PUSH1 0x1F LT PUSH2 0xBC3 JUMPI PUSH2 0x100 DUP1 DUP4 SLOAD DIV MUL DUP4 MSTORE SWAP2 PUSH1 0x20 ADD SWAP2 PUSH2 0xBEE JUMP JUMPDEST DUP3 ADD SWAP2 SWAP1 PUSH1 0x0 MSTORE PUSH1 0x20 PUSH1 0x0 KECCAK256 SWAP1 JUMPDEST DUP2 SLOAD DUP2 MSTORE SWAP1 PUSH1 0x1 ADD SWAP1 PUSH1 0x20 ADD DUP1 DUP4 GT PUSH2 0xBD1 JUMPI DUP3 SWAP1 SUB PUSH1 0x1F AND DUP3 ADD SWAP2 JUMPDEST POP POP POP POP POP SWAP1 POP PUSH2 0xC35 JUMP JUMPDEST PUSH1 0x40 MLOAD PUSH32 0x8C379A000000000000000000000000000000000000000000000000000000000 DUP2 MSTORE PUSH1 0x4 ADD PUSH2 0xC2C SWAP1 PUSH2 0x385C JUMP JUMPDEST PUSH1 0x40 MLOAD DUP1 SWAP2 SUB SWAP1 REVERT JUMPDEST SWAP2 SWAP1 POP JUMP JUMPDEST PUSH1 0x60 PUSH2 0xC45 DUP3 PUSH2 0x130E JUMP JUMPDEST PUSH2 0xC7B JUMPI PUSH1 0x40 MLOAD PUSH32 0xC11330E600000000000000000000000000000000000000000000000000000000 DUP2 MSTORE PUSH1 0x4 ADD PUSH1 0x40 MLOAD DUP1 SWAP2 SUB SWAP1 REVERT JUMPDEST DUP2 PUSH20 0xFFFFFFFFFFFFFFFFFFFFFFFFFFFFFFFFFFFFFFFF AND CALLER PUSH20 0xFFFFFFFFFFFFFFFFFFFFFFFFFFFFFFFFFFFFFFFF AND EQ DUP1 PUSH2 0xD45 JUMPI POP CALLER PUSH20 0xFFFFFFFFFFFFFFFFFFFFFFFFFFFFFFFFFFFFFFFF AND PUSH1 0xB PUSH1 0x4 ADD PUSH1 0x0 DUP5 PUSH20 0xFFFFFFFFFFFFFFFFFFFFFFFFFFFFFFFFFFFFFFFF AND PUSH20 0xFFFFFFFFFFFFFFFFFFFFFFFFFFFFFFFFFFFFFFFF AND DUP2 MSTORE PUSH1 0x20 ADD SWAP1 DUP2 MSTORE PUSH1 0x20 ADD PUSH1 0x0 KECCAK256 PUSH1 0x0 ADD PUSH1 0x0 SWAP1 SLOAD SWAP1 PUSH2 0x100 EXP SWAP1 DIV PUSH20 0xFFFFFFFFFFFFFFFFFFFFFFFFFFFFFFFFFFFFFFFF AND PUSH20 0xFFFFFFFFFFFFFFFFFFFFFFFFFFFFFFFFFFFFFFFF AND EQ JUMPDEST DUP1 PUSH2 0xE4B JUMPI POP PUSH32 0xFFFFFFFFFFFFFFFFFFFFFFFFFFFFFFFFFFFFFFFFFFFFFFFFFFFFFFFFFFFFFFFF PUSH2 0xE48 CALLER PUSH1 0xB PUSH1 0x4 ADD PUSH1 0x0 DUP7 PUSH20 0xFFFFFFFFFFFFFFFFFFFFFFFFFFFFFFFFFFFFFFFF AND PUSH20 0xFFFFFFFFFFFFFFFFFFFFFFFFFFFFFFFFFFFFFFFF AND DUP2 MSTORE PUSH1 0x20 ADD SWAP1 DUP2 MSTORE PUSH1 0x20 ADD PUSH1 0x0 KECCAK256 PUSH1 0x1 ADD DUP1 SLOAD DUP1 PUSH1 0x20 MUL PUSH1 0x20 ADD PUSH1 0x40 MLOAD SWAP1 DUP2 ADD PUSH1 0x40 MSTORE DUP1 SWAP3 SWAP2 SWAP1 DUP2 DUP2 MSTORE PUSH1 0x20 ADD DUP3 DUP1 SLOAD DUP1 ISZERO PUSH2 0xE35 JUMPI PUSH1 0x20 MUL DUP3 ADD SWAP2 SWAP1 PUSH1 0x0 MSTORE PUSH1 0x20 PUSH1 0x0 KECCAK256 SWAP1 JUMPDEST DUP2 PUSH1 0x0 SWAP1 SLOAD SWAP1 PUSH2 0x100 EXP SWAP1 DIV PUSH20 0xFFFFFFFFFFFFFFFFFFFFFFFFFFFFFFFFFFFFFFFF AND PUSH20 0xFFFFFFFFFFFFFFFFFFFFFFFFFFFFFFFFFFFFFFFF AND DUP2 MSTORE PUSH1 0x20 ADD SWAP1 PUSH1 0x1 ADD SWAP1 DUP1 DUP4 GT PUSH2 0xDEB JUMPI JUMPDEST POP POP POP POP POP PUSH2 0x276F SWAP1 SWAP2 SWAP1 PUSH4 0xFFFFFFFF AND JUMP JUMPDEST EQ ISZERO JUMPDEST ISZERO PUSH2 0xE6E JUMPI PUSH2 0xE67 DUP3 PUSH1 0xB PUSH1 0x0 ADD PUSH2 0x2814 SWAP1 SWAP2 SWAP1 PUSH4 0xFFFFFFFF AND JUMP JUMPDEST SWAP1 POP PUSH2 0xEA9 JUMP JUMPDEST PUSH1 0x40 MLOAD PUSH32 0x8C379A000000000000000000000000000000000000000000000000000000000 DUP2 MSTORE PUSH1 0x4 ADD PUSH2 0xEA0 SWAP1 PUSH2 0x385C JUMP JUMPDEST PUSH1 0x40 MLOAD DUP1 SWAP2 SUB SWAP1 REVERT JUMPDEST SWAP2 SWAP1 POP JUMP JUMPDEST PUSH2 0xEB7 CALLER PUSH2 0x130E JUMP JUMPDEST PUSH2 0xEED JUMPI PUSH1 0x40 MLOAD PUSH32 0xC11330E600000000000000000000000000000000000000000000000000000000 DUP2 MSTORE PUSH1 0x4 ADD PUSH1 0x40 MLOAD DUP1 SWAP2 SUB SWAP1 REVERT JUMPDEST PUSH1 0x0 PUSH1 0xB PUSH1 0x4 ADD PUSH1 0x0 CALLER PUSH20 0xFFFFFFFFFFFFFFFFFFFFFFFFFFFFFFFFFFFFFFFF AND PUSH20 0xFFFFFFFFFFFFFFFFFFFFFFFFFFFFFFFFFFFFFFFF AND DUP2 MSTORE PUSH1 0x20 ADD SWAP1 DUP2 MSTORE PUSH1 0x20 ADD PUSH1 0x0 KECCAK256 PUSH1 0x0 ADD PUSH1 0x0 SWAP1 SLOAD SWAP1 PUSH2 0x100 EXP SWAP1 DIV PUSH20 0xFFFFFFFFFFFFFFFFFFFFFFFFFFFFFFFFFFFFFFFF AND SWAP1 POP CALLER PUSH1 0xB PUSH1 0x4 ADD PUSH1 0x0 CALLER PUSH20 0xFFFFFFFFFFFFFFFFFFFFFFFFFFFFFFFFFFFFFFFF AND PUSH20 0xFFFFFFFFFFFFFFFFFFFFFFFFFFFFFFFFFFFFFFFF AND DUP2 MSTORE PUSH1 0x20 ADD SWAP1 DUP2 MSTORE PUSH1 0x20 ADD PUSH1 0x0 KECCAK256 PUSH1 0x0 ADD PUSH1 0x0 PUSH2 0x100 EXP DUP2 SLOAD DUP2 PUSH20 0xFFFFFFFFFFFFFFFFFFFFFFFFFFFFFFFFFFFFFFFF MUL NOT AND SWAP1 DUP4 PUSH20 0xFFFFFFFFFFFFFFFFFFFFFFFFFFFFFFFFFFFFFFFF AND MUL OR SWAP1 SSTORE POP PUSH2 0x102E CALLER PUSH1 0x5 DUP1 ADD PUSH1 0x0 DUP5 PUSH20 0xFFFFFFFFFFFFFFFFFFFFFFFFFFFFFFFFFFFFFFFF AND PUSH20 0xFFFFFFFFFFFFFFFFFFFFFFFFFFFFFFFFFFFFFFFF AND DUP2 MSTORE PUSH1 0x20 ADD SWAP1 DUP2 MSTORE PUSH1 0x20 ADD PUSH1 0x0 KECCAK256 PUSH2 0x228C SWAP1 SWAP2 SWAP1 PUSH4 0xFFFFFFFF AND JUMP JUMPDEST PUSH2 0x1047 CALLER DUP5 PUSH1 0xB PUSH1 0x0 ADD PUSH2 0x2834 SWAP1 SWAP3 SWAP2 SWAP1 PUSH4 0xFFFFFFFF AND JUMP JUMPDEST DUP2 PUSH1 0xB PUSH1 0x4 ADD PUSH1 0x0 CALLER PUSH20 0xFFFFFFFFFFFFFFFFFFFFFFFFFFFFFFFFFFFFFFFF AND PUSH20 0xFFFFFFFFFFFFFFFFFFFFFFFFFFFFFFFFFFFFFFFF AND DUP2 MSTORE PUSH1 0x20 ADD SWAP1 DUP2 MSTORE PUSH1 0x20 ADD PUSH1 0x0 KECCAK256 PUSH1 0x2 ADD SWAP1 DUP2 PUSH2 0x1099 SWAP2 SWAP1 PUSH2 0x3A32 JUMP JUMPDEST POP POP POP POP JUMP JUMPDEST PUSH1 0x0 PUSH2 0x10B8 DUP3 PUSH1 0x0 PUSH1 0x2 ADD PUSH2 0x2851 SWAP1 SWAP2 SWAP1 PUSH4 0xFFFFFFFF AND JUMP JUMPDEST SWAP1 POP SWAP2 SWAP1 POP JUMP JUMPDEST PUSH1 0x0 DUP1 PUSH1 0x0 ADD PUSH1 0x0 SWAP1 SLOAD SWAP1 PUSH2 0x100 EXP SWAP1 DIV PUSH20 0xFFFFFFFFFFFFFFFFFFFFFFFFFFFFFFFFFFFFFFFF AND SWAP1 POP SWAP1 JUMP JUMPDEST PUSH2 0x10F4 CALLER PUSH2 0x7C3 JUMP JUMPDEST PUSH2 0x112A JUMPI PUSH1 0x40 MLOAD PUSH32 0x4D371DC700000000000000000000000000000000000000000000000000000000 DUP2 MSTORE PUSH1 0x4 ADD PUSH1 0x40 MLOAD DUP1 SWAP2 SUB SWAP1 REVERT JUMPDEST PUSH2 0x1133 DUP2 PUSH2 0x109F JUMP JUMPDEST PUSH2 0x1172 JUMPI PUSH1 0x40 MLOAD PUSH32 0x8C379A000000000000000000000000000000000000000000000000000000000 DUP2 MSTORE PUSH1 0x4 ADD PUSH2 0x1169 SWAP1 PUSH2 0x3B50 JUMP JUMPDEST PUSH1 0x40 MLOAD DUP1 SWAP2 SUB SWAP1 REVERT JUMPDEST PUSH2 0x1189 DUP2 PUSH1 0x5 PUSH1 0x0 ADD PUSH2 0x28AA SWAP1 SWAP2 SWAP1 PUSH4 0xFFFFFFFF AND JUMP JUMPDEST PUSH2 0x11A0 DUP2 PUSH1 0x0 PUSH1 0x2 ADD PUSH2 0x228C SWAP1 SWAP2 SWAP1 PUSH4 0xFFFFFFFF AND JUMP JUMPDEST POP JUMP JUMPDEST PUSH2 0x11AC CALLER PUSH2 0x130E JUMP JUMPDEST PUSH2 0x11E2 JUMPI PUSH1 0x40 MLOAD PUSH32 0xC11330E600000000000000000000000000000000000000000000000000000000 DUP2 MSTORE PUSH1 0x4 ADD PUSH1 0x40 MLOAD DUP1 SWAP2 SUB SWAP1 REVERT JUMPDEST PUSH2 0x11FB CALLER DUP3 PUSH1 0xB PUSH1 0x0 ADD PUSH2 0x2834 SWAP1 SWAP3 SWAP2 SWAP1 PUSH4 0xFFFFFFFF AND JUMP JUMPDEST POP JUMP JUMPDEST PUSH1 0x60 PUSH2 0x1209 CALLER PUSH2 0x130E JUMP JUMPDEST PUSH2 0x123F JUMPI PUSH1 0x40 MLOAD PUSH32 0xC11330E600000000000000000000000000000000000000000000000000000000 DUP2 MSTORE PUSH1 0x4 ADD PUSH1 0x40 MLOAD DUP1 SWAP2 SUB SWAP1 REVERT JUMPDEST PUSH1 0xB PUSH1 0x4 ADD PUSH1 0x0 CALLER PUSH20 0xFFFFFFFFFFFFFFFFFFFFFFFFFFFFFFFFFFFFFFFF AND PUSH20 0xFFFFFFFFFFFFFFFFFFFFFFFFFFFFFFFFFFFFFFFF AND DUP2 MSTORE PUSH1 0x20 ADD SWAP1 DUP2 MSTORE PUSH1 0x20 ADD PUSH1 0x0 KECCAK256 PUSH1 0x1 ADD DUP1 SLOAD DUP1 PUSH1 0x20 MUL PUSH1 0x20 ADD PUSH1 0x40 MLOAD SWAP1 DUP2 ADD PUSH1 0x40 MSTORE DUP1 SWAP3 SWAP2 SWAP1 DUP2 DUP2 MSTORE PUSH1 0x20 ADD DUP3 DUP1 SLOAD DUP1 ISZERO PUSH2 0x1304 JUMPI PUSH1 0x20 MUL DUP3 ADD SWAP2 SWAP1 PUSH1 0x0 MSTORE PUSH1 0x20 PUSH1 0x0 KECCAK256 SWAP1 JUMPDEST DUP2 PUSH1 0x0 SWAP1 SLOAD SWAP1 PUSH2 0x100 EXP SWAP1 DIV PUSH20 0xFFFFFFFFFFFFFFFFFFFFFFFFFFFFFFFFFFFFFFFF AND PUSH20 0xFFFFFFFFFFFFFFFFFFFFFFFFFFFFFFFFFFFFFFFF AND DUP2 MSTORE PUSH1 0x20 ADD SWAP1 PUSH1 0x1 ADD SWAP1 DUP1 DUP4 GT PUSH2 0x12BA JUMPI JUMPDEST POP POP POP POP POP SWAP1 POP SWAP1 JUMP JUMPDEST PUSH1 0x0 PUSH2 0x1327 DUP3 PUSH1 0xB PUSH1 0x0 ADD PUSH2 0x21F9 SWAP1 SWAP2 SWAP1 PUSH4 0xFFFFFFFF AND JUMP JUMPDEST SWAP1 POP SWAP2 SWAP1 POP JUMP JUMPDEST PUSH1 0x0 PUSH2 0x1347 DUP3 PUSH1 0x5 PUSH1 0x0 ADD PUSH2 0x21F9 SWAP1 SWAP2 SWAP1 PUSH4 0xFFFFFFFF AND JUMP JUMPDEST PUSH2 0x1354 JUMPI PUSH1 0x0 SWAP1 POP PUSH2 0x13DD JUMP JUMPDEST PUSH2 0x136B DUP3 PUSH1 0x0 PUSH1 0x2 ADD PUSH2 0x2851 SWAP1 SWAP2 SWAP1 PUSH4 0xFFFFFFFF AND JUMP JUMPDEST ISZERO PUSH2 0x1379 JUMPI PUSH1 0x0 SWAP1 POP PUSH2 0x13DD JUMP JUMPDEST PUSH1 0x0 PUSH1 0x5 PUSH1 0x4 ADD PUSH1 0x0 DUP5 PUSH20 0xFFFFFFFFFFFFFFFFFFFFFFFFFFFFFFFFFFFFFFFF AND PUSH20 0xFFFFFFFFFFFFFFFFFFFFFFFFFFFFFFFFFFFFFFFF AND DUP2 MSTORE PUSH1 0x20 ADD SWAP1 DUP2 MSTORE PUSH1 0x20 ADD PUSH1 0x0 KECCAK256 DUP1 SLOAD PUSH2 0x13C8 SWAP1 PUSH2 0x36BB JUMP JUMPDEST SWAP1 POP SUB PUSH2 0x13D8 JUMPI PUSH1 0x0 SWAP1 POP PUSH2 0x13DD JUMP JUMPDEST PUSH1 0x1 SWAP1 POP JUMPDEST SWAP2 SWAP1 POP JUMP JUMPDEST PUSH2 0x13F9 CALLER PUSH1 0x5 PUSH1 0x0 ADD PUSH2 0x21F9 SWAP1 SWAP2 SWAP1 PUSH4 0xFFFFFFFF AND JUMP JUMPDEST PUSH2 0x142F JUMPI PUSH1 0x40 MLOAD PUSH32 0xFE2FC9C600000000000000000000000000000000000000000000000000000000 DUP2 MSTORE PUSH1 0x4 ADD PUSH1 0x40 MLOAD DUP1 SWAP2 SUB SWAP1 REVERT JUMPDEST PUSH2 0x1446 CALLER PUSH1 0x0 PUSH1 0x2 ADD PUSH2 0x2851 SWAP1 SWAP2 SWAP1 PUSH4 0xFFFFFFFF AND JUMP JUMPDEST ISZERO PUSH2 0x147D JUMPI PUSH1 0x40 MLOAD PUSH32 0xF873D3B700000000000000000000000000000000000000000000000000000000 DUP2 MSTORE PUSH1 0x4 ADD PUSH1 0x40 MLOAD DUP1 SWAP2 SUB SWAP1 REVERT JUMPDEST PUSH1 0x0 PUSH1 0x5 PUSH1 0x4 ADD PUSH1 0x0 CALLER PUSH20 0xFFFFFFFFFFFFFFFFFFFFFFFFFFFFFFFFFFFFFFFF AND PUSH20 0xFFFFFFFFFFFFFFFFFFFFFFFFFFFFFFFFFFFFFFFF AND DUP2 MSTORE PUSH1 0x20 ADD SWAP1 DUP2 MSTORE PUSH1 0x20 ADD PUSH1 0x0 KECCAK256 DUP1 SLOAD PUSH2 0x14CC SWAP1 PUSH2 0x36BB JUMP JUMPDEST SWAP1 POP SUB PUSH2 0x1505 JUMPI PUSH1 0x40 MLOAD PUSH32 0xA30132D500000000000000000000000000000000000000000000000000000000 DUP2 MSTORE PUSH1 0x4 ADD PUSH1 0x40 MLOAD DUP1 SWAP2 SUB SWAP1 REVERT JUMPDEST PUSH1 0x0 DUP2 MLOAD SUB PUSH2 0x1549 JUMPI PUSH1 0x40 MLOAD PUSH32 0x8C379A000000000000000000000000000000000000000000000000000000000 DUP2 MSTORE PUSH1 0x4 ADD PUSH2 0x1540 SWAP1 PUSH2 0x3BE2 JUMP JUMPDEST PUSH1 0x40 MLOAD DUP1 SWAP2 SUB SWAP1 REVERT JUMPDEST PUSH2 0x1562 CALLER DUP3 PUSH1 0x5 PUSH1 0x0 ADD PUSH2 0x2834 SWAP1 SWAP3 SWAP2 SWAP1 PUSH4 0xFFFFFFFF AND JUMP JUMPDEST POP JUMP JUMPDEST PUSH2 0x156E CALLER PUSH2 0x82F JUMP JUMPDEST DUP1 PUSH2 0x157E JUMPI POP PUSH2 0x157D CALLER PUSH2 0x132E JUMP JUMPDEST JUMPDEST ISZERO PUSH2 0x15BE JUMPI PUSH1 0x40 MLOAD PUSH32 0x8C379A000000000000000000000000000000000000000000000000000000000 DUP2 MSTORE PUSH1 0x4 ADD PUSH2 0x15B5 SWAP1 PUSH2 0x3C74 JUMP JUMPDEST PUSH1 0x40 MLOAD DUP1 SWAP2 SUB SWAP1 REVERT JUMPDEST PUSH1 0x0 DUP3 MLOAD SUB PUSH2 0x1602 JUMPI PUSH1 0x40 MLOAD PUSH32 0x8C379A000000000000000000000000000000000000000000000000000000000 DUP2 MSTORE PUSH1 0x4 ADD PUSH2 0x15F9 SWAP1 PUSH2 0x37F0 JUMP JUMPDEST PUSH1 0x40 MLOAD DUP1 SWAP2 SUB SWAP1 REVERT JUMPDEST PUSH2 0x161B CALLER DUP4 PUSH1 0xB PUSH1 0x0 ADD PUSH2 0x25A4 SWAP1 SWAP3 SWAP2 SWAP1 PUSH4 0xFFFFFFFF AND JUMP JUMPDEST CALLER PUSH1 0xB PUSH1 0x4 ADD PUSH1 0x0 CALLER PUSH20 0xFFFFFFFFFFFFFFFFFFFFFFFFFFFFFFFFFFFFFFFF AND PUSH20 0xFFFFFFFFFFFFFFFFFFFFFFFFFFFFFFFFFFFFFFFF AND DUP2 MSTORE PUSH1 0x20 ADD SWAP1 DUP2 MSTORE PUSH1 0x20 ADD PUSH1 0x0 KECCAK256 PUSH1 0x0 ADD PUSH1 0x0 PUSH2 0x100 EXP DUP2 SLOAD DUP2 PUSH20 0xFFFFFFFFFFFFFFFFFFFFFFFFFFFFFFFFFFFFFFFF MUL NOT AND SWAP1 DUP4 PUSH20 0xFFFFFFFFFFFFFFFFFFFFFFFFFFFFFFFFFFFFFFFF AND MUL OR SWAP1 SSTORE POP DUP1 PUSH1 0xB PUSH1 0x4 ADD PUSH1 0x0 CALLER PUSH20 0xFFFFFFFFFFFFFFFFFFFFFFFFFFFFFFFFFFFFFFFF AND PUSH20 0xFFFFFFFFFFFFFFFFFFFFFFFFFFFFFFFFFFFFFFFF AND DUP2 MSTORE PUSH1 0x20 ADD SWAP1 DUP2 MSTORE PUSH1 0x20 ADD PUSH1 0x0 KECCAK256 PUSH1 0x2 ADD SWAP1 DUP2 PUSH2 0x16F1 SWAP2 SWAP1 PUSH2 0x3A32 JUMP JUMPDEST POP POP POP JUMP JUMPDEST PUSH1 0x60 PUSH2 0x1705 PUSH1 0xB PUSH1 0x0 ADD PUSH2 0x250F JUMP JUMPDEST SWAP1 POP SWAP1 JUMP JUMPDEST PUSH2 0x1713 CALLER PUSH2 0x7C3 JUMP JUMPDEST PUSH2 0x1749 JUMPI PUSH1 0x40 MLOAD PUSH32 0x4D371DC700000000000000000000000000000000000000000000000000000000 DUP2 MSTORE PUSH1 0x4 ADD PUSH1 0x40 MLOAD DUP1 SWAP2 SUB SWAP1 REVERT JUMPDEST DUP1 PUSH1 0x0 PUSH1 0x1 ADD SWAP1 DUP2 PUSH2 0x175B SWAP2 SWAP1 PUSH2 0x3A32 JUMP JUMPDEST POP POP JUMP JUMPDEST PUSH2 0x1768 CALLER PUSH2 0x130E JUMP JUMPDEST PUSH2 0x179E JUMPI PUSH1 0x40 MLOAD PUSH32 0xC11330E600000000000000000000000000000000000000000000000000000000 DUP2 MSTORE PUSH1 0x4 ADD PUSH1 0x40 MLOAD DUP1 SWAP2 SUB SWAP1 REVERT JUMPDEST PUSH2 0x17A7 DUP2 PUSH2 0x132E JUMP JUMPDEST PUSH2 0x17DD JUMPI PUSH1 0x40 MLOAD PUSH32 0xFE2FC9C600000000000000000000000000000000000000000000000000000000 DUP2 MSTORE PUSH1 0x4 ADD PUSH1 0x40 MLOAD DUP1 SWAP2 SUB SWAP1 REVERT JUMPDEST PUSH2 0x18B9 DUP2 PUSH1 0xB PUSH1 0x4 ADD PUSH1 0x0 CALLER PUSH20 0xFFFFFFFFFFFFFFFFFFFFFFFFFFFFFFFFFFFFFFFF AND PUSH20 0xFFFFFFFFFFFFFFFFFFFFFFFFFFFFFFFFFFFFFFFF AND DUP2 MSTORE PUSH1 0x20 ADD SWAP1 DUP2 MSTORE PUSH1 0x20 ADD PUSH1 0x0 KECCAK256 PUSH1 0x1 ADD DUP1 SLOAD DUP1 PUSH1 0x20 MUL PUSH1 0x20 ADD PUSH1 0x40 MLOAD SWAP1 DUP2 ADD PUSH1 0x40 MSTORE DUP1 SWAP3 SWAP2 SWAP1 DUP2 DUP2 MSTORE PUSH1 0x20 ADD DUP3 DUP1 SLOAD DUP1 ISZERO PUSH2 0x18A6 JUMPI PUSH1 0x20 MUL DUP3 ADD SWAP2 SWAP1 PUSH1 0x0 MSTORE PUSH1 0x20 PUSH1 0x0 KECCAK256 SWAP1 JUMPDEST DUP2 PUSH1 0x0 SWAP1 SLOAD SWAP1 PUSH2 0x100 EXP SWAP1 DIV PUSH20 0xFFFFFFFFFFFFFFFFFFFFFFFFFFFFFFFFFFFFFFFF AND PUSH20 0xFFFFFFFFFFFFFFFFFFFFFFFFFFFFFFFFFFFFFFFF AND DUP2 MSTORE PUSH1 0x20 ADD SWAP1 PUSH1 0x1 ADD SWAP1 DUP1 DUP4 GT PUSH2 0x185C JUMPI JUMPDEST POP POP POP POP POP PUSH2 0x290D SWAP1 SWAP2 SWAP1 PUSH4 0xFFFFFFFF AND JUMP JUMPDEST PUSH2 0x1964 JUMPI PUSH1 0xB PUSH1 0x4 ADD PUSH1 0x0 CALLER PUSH20 0xFFFFFFFFFFFFFFFFFFFFFFFFFFFFFFFFFFFFFFFF AND PUSH20 0xFFFFFFFFFFFFFFFFFFFFFFFFFFFFFFFFFFFFFFFF AND DUP2 MSTORE PUSH1 0x20 ADD SWAP1 DUP2 MSTORE PUSH1 0x20 ADD PUSH1 0x0 KECCAK256 PUSH1 0x1 ADD DUP2 SWAP1 DUP1 PUSH1 0x1 DUP2 SLOAD ADD DUP1 DUP3 SSTORE DUP1 SWAP2 POP POP PUSH1 0x1 SWAP1 SUB SWAP1 PUSH1 0x0 MSTORE PUSH1 0x20 PUSH1 0x0 KECCAK256 ADD PUSH1 0x0 SWAP1 SWAP2 SWAP1 SWAP2 SWAP1 SWAP2 PUSH2 0x100 EXP DUP2 SLOAD DUP2 PUSH20 0xFFFFFFFFFFFFFFFFFFFFFFFFFFFFFFFFFFFFFFFF MUL NOT AND SWAP1 DUP4 PUSH20 0xFFFFFFFFFFFFFFFFFFFFFFFFFFFFFFFFFFFFFFFF AND MUL OR SWAP1 SSTORE POP JUMPDEST POP JUMP JUMPDEST PUSH2 0x1970 DUP3 PUSH2 0x130E JUMP JUMPDEST PUSH2 0x19A6 JUMPI PUSH1 0x40 MLOAD PUSH32 0xC11330E600000000000000000000000000000000000000000000000000000000 DUP2 MSTORE PUSH1 0x4 ADD PUSH1 0x40 MLOAD DUP1 SWAP2 SUB SWAP1 REVERT JUMPDEST CALLER PUSH20 0xFFFFFFFFFFFFFFFFFFFFFFFFFFFFFFFFFFFFFFFF AND PUSH1 0xB PUSH1 0x4 ADD PUSH1 0x0 DUP5 PUSH20 0xFFFFFFFFFFFFFFFFFFFFFFFFFFFFFFFFFFFFFFFF AND PUSH20 0xFFFFFFFFFFFFFFFFFFFFFFFFFFFFFFFFFFFFFFFF AND DUP2 MSTORE PUSH1 0x20 ADD SWAP1 DUP2 MSTORE PUSH1 0x20 ADD PUSH1 0x0 KECCAK256 PUSH1 0x0 ADD PUSH1 0x0 SWAP1 SLOAD SWAP1 PUSH2 0x100 EXP SWAP1 DIV PUSH20 0xFFFFFFFFFFFFFFFFFFFFFFFFFFFFFFFFFFFFFFFF AND PUSH20 0xFFFFFFFFFFFFFFFFFFFFFFFFFFFFFFFFFFFFFFFF AND EQ PUSH2 0x1A79 JUMPI PUSH1 0x40 MLOAD PUSH32 0x8C379A000000000000000000000000000000000000000000000000000000000 DUP2 MSTORE PUSH1 0x4 ADD PUSH2 0x1A70 SWAP1 PUSH2 0x385C JUMP JUMPDEST PUSH1 0x40 MLOAD DUP1 SWAP2 SUB SWAP1 REVERT JUMPDEST DUP1 PUSH1 0xB PUSH1 0x4 ADD PUSH1 0x0 DUP5 PUSH20 0xFFFFFFFFFFFFFFFFFFFFFFFFFFFFFFFFFFFFFFFF AND PUSH20 0xFFFFFFFFFFFFFFFFFFFFFFFFFFFFFFFFFFFFFFFF AND DUP2 MSTORE PUSH1 0x20 ADD SWAP1 DUP2 MSTORE PUSH1 0x20 ADD PUSH1 0x0 KECCAK256 PUSH1 0x2 ADD SWAP1 DUP2 PUSH2 0x1ACB SWAP2 SWAP1 PUSH2 0x3A32 JUMP JUMPDEST POP POP POP JUMP JUMPDEST PUSH1 0x60 PUSH2 0x1ADB DUP3 PUSH2 0x82F JUMP JUMPDEST PUSH2 0x1B11 JUMPI PUSH1 0x40 MLOAD PUSH32 0xFE2FC9C600000000000000000000000000000000000000000000000000000000 DUP2 MSTORE PUSH1 0x4 ADD PUSH1 0x40 MLOAD DUP1 SWAP2 SUB SWAP1 REVERT JUMPDEST PUSH2 0x1B28 DUP3 PUSH1 0x5 PUSH1 0x0 ADD PUSH2 0x2814 SWAP1 SWAP2 SWAP1 PUSH4 0xFFFFFFFF AND JUMP JUMPDEST SWAP1 POP SWAP2 SWAP1 POP JUMP JUMPDEST PUSH1 0x0 DUP2 MLOAD SUB PUSH2 0x1B73 JUMPI PUSH1 0x40 MLOAD PUSH32 0x8C379A000000000000000000000000000000000000000000000000000000000 DUP2 MSTORE PUSH1 0x4 ADD PUSH2 0x1B6A SWAP1 PUSH2 0x3D06 JUMP JUMPDEST PUSH1 0x40 MLOAD DUP1 SWAP2 SUB SWAP1 REVERT JUMPDEST PUSH2 0x1B8A CALLER PUSH1 0x5 PUSH1 0x0 ADD PUSH2 0x21F9 SWAP1 SWAP2 SWAP1 PUSH4 0xFFFFFFFF AND JUMP JUMPDEST PUSH2 0x1BC0 JUMPI PUSH1 0x40 MLOAD PUSH32 0xFE2FC9C600000000000000000000000000000000000000000000000000000000 DUP2 MSTORE PUSH1 0x4 ADD PUSH1 0x40 MLOAD DUP1 SWAP2 SUB SWAP1 REVERT JUMPDEST PUSH2 0x1BD7 CALLER PUSH1 0x0 PUSH1 0x2 ADD PUSH2 0x2851 SWAP1 SWAP2 SWAP1 PUSH4 0xFFFFFFFF AND JUMP JUMPDEST ISZERO PUSH2 0x1C0E JUMPI PUSH1 0x40 MLOAD PUSH32 0xF873D3B700000000000000000000000000000000000000000000000000000000 DUP2 MSTORE PUSH1 0x4 ADD PUSH1 0x40 MLOAD DUP1 SWAP2 SUB SWAP1 REVERT JUMPDEST DUP1 PUSH1 0x5 PUSH1 0x4 ADD PUSH1 0x0 CALLER PUSH20 0xFFFFFFFFFFFFFFFFFFFFFFFFFFFFFFFFFFFFFFFF AND PUSH20 0xFFFFFFFFFFFFFFFFFFFFFFFFFFFFFFFFFFFFFFFF AND DUP2 MSTORE PUSH1 0x20 ADD SWAP1 DUP2 MSTORE PUSH1 0x20 ADD PUSH1 0x0 KECCAK256 SWAP1 DUP2 PUSH2 0x1C5D SWAP2 SWAP1 PUSH2 0x3A32 JUMP JUMPDEST POP POP JUMP JUMPDEST PUSH1 0x60 PUSH2 0x1C7A CALLER PUSH1 0x5 PUSH1 0x0 ADD PUSH2 0x21F9 SWAP1 SWAP2 SWAP1 PUSH4 0xFFFFFFFF AND JUMP JUMPDEST PUSH2 0x1CB0 JUMPI PUSH1 0x40 MLOAD PUSH32 0xFE2FC9C600000000000000000000000000000000000000000000000000000000 DUP2 MSTORE PUSH1 0x4 ADD PUSH1 0x40 MLOAD DUP1 SWAP2 SUB SWAP1 REVERT JUMPDEST PUSH2 0x1CC7 CALLER PUSH1 0x0 PUSH1 0x2 ADD PUSH2 0x2851 SWAP1 SWAP2 SWAP1 PUSH4 0xFFFFFFFF AND JUMP JUMPDEST ISZERO PUSH2 0x1CFE JUMPI PUSH1 0x40 MLOAD PUSH32 0xF873D3B700000000000000000000000000000000000000000000000000000000 DUP2 MSTORE PUSH1 0x4 ADD PUSH1 0x40 MLOAD DUP1 SWAP2 SUB SWAP1 REVERT JUMPDEST PUSH1 0x0 PUSH1 0x5 PUSH1 0x4 ADD PUSH1 0x0 CALLER PUSH20 0xFFFFFFFFFFFFFFFFFFFFFFFFFFFFFFFFFFFFFFFF AND PUSH20 0xFFFFFFFFFFFFFFFFFFFFFFFFFFFFFFFFFFFFFFFF AND DUP2 MSTORE PUSH1 0x20 ADD SWAP1 DUP2 MSTORE PUSH1 0x20 ADD PUSH1 0x0 KECCAK256 DUP1 SLOAD PUSH2 0x1D4D SWAP1 PUSH2 0x36BB JUMP JUMPDEST SWAP1 POP SUB PUSH2 0x1D86 JUMPI PUSH1 0x40 MLOAD PUSH32 0xA30132D500000000000000000000000000000000000000000000000000000000 DUP2 MSTORE PUSH1 0x4 ADD PUSH1 0x40 MLOAD DUP1 SWAP2 SUB SWAP1 REVERT JUMPDEST PUSH1 0x5 DUP1 ADD PUSH1 0x0 CALLER PUSH20 0xFFFFFFFFFFFFFFFFFFFFFFFFFFFFFFFFFFFFFFFF AND PUSH20 0xFFFFFFFFFFFFFFFFFFFFFFFFFFFFFFFFFFFFFFFF AND DUP2 MSTORE PUSH1 0x20 ADD SWAP1 DUP2 MSTORE PUSH1 0x20 ADD PUSH1 0x0 KECCAK256 PUSH1 0x0 ADD DUP1 SLOAD DUP1 PUSH1 0x20 MUL PUSH1 0x20 ADD PUSH1 0x40 MLOAD SWAP1 DUP2 ADD PUSH1 0x40 MSTORE DUP1 SWAP3 SWAP2 SWAP1 DUP2 DUP2 MSTORE PUSH1 0x20 ADD DUP3 DUP1 SLOAD DUP1 ISZERO PUSH2 0x1E4A JUMPI PUSH1 0x20 MUL DUP3 ADD SWAP2 SWAP1 PUSH1 0x0 MSTORE PUSH1 0x20 PUSH1 0x0 KECCAK256 SWAP1 JUMPDEST DUP2 PUSH1 0x0 SWAP1 SLOAD SWAP1 PUSH2 0x100 EXP SWAP1 DIV PUSH20 0xFFFFFFFFFFFFFFFFFFFFFFFFFFFFFFFFFFFFFFFF AND PUSH20 0xFFFFFFFFFFFFFFFFFFFFFFFFFFFFFFFFFFFFFFFF AND DUP2 MSTORE PUSH1 0x20 ADD SWAP1 PUSH1 0x1 ADD SWAP1 DUP1 DUP4 GT PUSH2 0x1E00 JUMPI JUMPDEST POP POP POP POP POP SWAP1 POP SWAP1 JUMP JUMPDEST PUSH2 0x1E5D CALLER PUSH2 0x130E JUMP JUMPDEST PUSH2 0x1E93 JUMPI PUSH1 0x40 MLOAD PUSH32 0xC11330E600000000000000000000000000000000000000000000000000000000 DUP2 MSTORE PUSH1 0x4 ADD PUSH1 0x40 MLOAD DUP1 SWAP2 SUB SWAP1 REVERT JUMPDEST PUSH2 0x1E9C DUP4 PUSH2 0x132E JUMP JUMPDEST PUSH2 0x1ED2 JUMPI PUSH1 0x40 MLOAD PUSH32 0xFE2FC9C600000000000000000000000000000000000000000000000000000000 DUP2 MSTORE PUSH1 0x4 ADD PUSH1 0x40 MLOAD DUP1 SWAP2 SUB SWAP1 REVERT JUMPDEST PUSH2 0x1EDC DUP3 DUP3 PUSH2 0xEAE JUMP JUMPDEST DUP3 PUSH1 0xB PUSH1 0x4 ADD PUSH1 0x0 CALLER PUSH20 0xFFFFFFFFFFFFFFFFFFFFFFFFFFFFFFFFFFFFFFFF AND PUSH20 0xFFFFFFFFFFFFFFFFFFFFFFFFFFFFFFFFFFFFFFFF AND DUP2 MSTORE PUSH1 0x20 ADD SWAP1 DUP2 MSTORE PUSH1 0x20 ADD PUSH1 0x0 KECCAK256 PUSH1 0x0 ADD PUSH1 0x0 PUSH2 0x100 EXP DUP2 SLOAD DUP2 PUSH20 0xFFFFFFFFFFFFFFFFFFFFFFFFFFFFFFFFFFFFFFFF MUL NOT AND SWAP1 DUP4 PUSH20 0xFFFFFFFFFFFFFFFFFFFFFFFFFFFFFFFFFFFFFFFF AND MUL OR SWAP1 SSTORE POP PUSH2 0x1FB3 CALLER PUSH1 0x5 DUP1 ADD PUSH1 0x0 DUP7 PUSH20 0xFFFFFFFFFFFFFFFFFFFFFFFFFFFFFFFFFFFFFFFF AND PUSH20 0xFFFFFFFFFFFFFFFFFFFFFFFFFFFFFFFFFFFFFFFF AND DUP2 MSTORE PUSH1 0x20 ADD SWAP1 DUP2 MSTORE PUSH1 0x20 ADD PUSH1 0x0 KECCAK256 PUSH2 0x260B SWAP1 SWAP2 SWAP1 PUSH4 0xFFFFFFFF AND JUMP JUMPDEST POP POP POP JUMP JUMPDEST PUSH1 0x60 PUSH1 0x5 PUSH1 0x4 ADD PUSH1 0x0 DUP4 PUSH20 0xFFFFFFFFFFFFFFFFFFFFFFFFFFFFFFFFFFFFFFFF AND PUSH20 0xFFFFFFFFFFFFFFFFFFFFFFFFFFFFFFFFFFFFFFFF AND DUP2 MSTORE PUSH1 0x20 ADD SWAP1 DUP2 MSTORE PUSH1 0x20 ADD PUSH1 0x0 KECCAK256 DUP1 SLOAD PUSH2 0x2007 SWAP1 PUSH2 0x36BB JUMP JUMPDEST DUP1 PUSH1 0x1F ADD PUSH1 0x20 DUP1 SWAP2 DIV MUL PUSH1 0x20 ADD PUSH1 0x40 MLOAD SWAP1 DUP2 ADD PUSH1 0x40 MSTORE DUP1 SWAP3 SWAP2 SWAP1 DUP2 DUP2 MSTORE PUSH1 0x20 ADD DUP3 DUP1 SLOAD PUSH2 0x2033 SWAP1 PUSH2 0x36BB JUMP JUMPDEST DUP1 ISZERO PUSH2 0x2080 JUMPI DUP1 PUSH1 0x1F LT PUSH2 0x2055 JUMPI PUSH2 0x100 DUP1 DUP4 SLOAD DIV MUL DUP4 MSTORE SWAP2 PUSH1 0x20 ADD SWAP2 PUSH2 0x2080 JUMP JUMPDEST DUP3 ADD SWAP2 SWAP1 PUSH1 0x0 MSTORE PUSH1 0x20 PUSH1 0x0 KECCAK256 SWAP1 JUMPDEST DUP2 SLOAD DUP2 MSTORE SWAP1 PUSH1 0x1 ADD SWAP1 PUSH1 0x20 ADD DUP1 DUP4 GT PUSH2 0x2063 JUMPI DUP3 SWAP1 SUB PUSH1 0x1F AND DUP3 ADD SWAP2 JUMPDEST POP POP POP POP POP SWAP1 POP SWAP2 SWAP1 POP JUMP JUMPDEST PUSH1 0x60 PUSH1 0x0 PUSH1 0x2 ADD PUSH1 0x0 ADD DUP1 SLOAD DUP1 PUSH1 0x20 MUL PUSH1 0x20 ADD PUSH1 0x40 MLOAD SWAP1 DUP2 ADD PUSH1 0x40 MSTORE DUP1 SWAP3 SWAP2 SWAP1 DUP2 DUP2 MSTORE PUSH1 0x20 ADD DUP3 DUP1 SLOAD DUP1 ISZERO PUSH2 0x2116 JUMPI PUSH1 0x20 MUL DUP3 ADD SWAP2 SWAP1 PUSH1 0x0 MSTORE PUSH1 0x20 PUSH1 0x0 KECCAK256 SWAP1 JUMPDEST DUP2 PUSH1 0x0 SWAP1 SLOAD SWAP1 PUSH2 0x100 EXP SWAP1 DIV PUSH20 0xFFFFFFFFFFFFFFFFFFFFFFFFFFFFFFFFFFFFFFFF AND PUSH20 0xFFFFFFFFFFFFFFFFFFFFFFFFFFFFFFFFFFFFFFFF AND DUP2 MSTORE PUSH1 0x20 ADD SWAP1 PUSH1 0x1 ADD SWAP1 DUP1 DUP4 GT PUSH2 0x20CC JUMPI JUMPDEST POP POP POP POP POP SWAP1 POP SWAP1 JUMP JUMPDEST PUSH2 0x2129 CALLER PUSH2 0x130E JUMP JUMPDEST PUSH2 0x215F JUMPI PUSH1 0x40 MLOAD PUSH32 0xC11330E600000000000000000000000000000000000000000000000000000000 DUP2 MSTORE PUSH1 0x4 ADD PUSH1 0x40 MLOAD DUP1 SWAP2 SUB SWAP1 REVERT JUMPDEST PUSH2 0x2168 DUP2 PUSH2 0x132E JUMP JUMPDEST PUSH2 0x219E JUMPI PUSH1 0x40 MLOAD PUSH32 0xFE2FC9C600000000000000000000000000000000000000000000000000000000 DUP2 MSTORE PUSH1 0x4 ADD PUSH1 0x40 MLOAD DUP1 SWAP2 SUB SWAP1 REVERT JUMPDEST PUSH2 0x21F5 DUP2 PUSH1 0xB PUSH1 0x4 ADD PUSH1 0x0 CALLER PUSH20 0xFFFFFFFFFFFFFFFFFFFFFFFFFFFFFFFFFFFFFFFF AND PUSH20 0xFFFFFFFFFFFFFFFFFFFFFFFFFFFFFFFFFFFFFFFF AND DUP2 MSTORE PUSH1 0x20 ADD SWAP1 DUP2 MSTORE PUSH1 0x20 ADD PUSH1 0x0 KECCAK256 PUSH1 0x1 ADD PUSH2 0x2944 SWAP1 SWAP2 SWAP1 PUSH4 0xFFFFFFFF AND JUMP JUMPDEST POP POP JUMP JUMPDEST PUSH1 0x0 DUP1 PUSH20 0xFFFFFFFFFFFFFFFFFFFFFFFFFFFFFFFFFFFFFFFF AND DUP3 PUSH20 0xFFFFFFFFFFFFFFFFFFFFFFFFFFFFFFFFFFFFFFFF AND SUB PUSH2 0x2269 JUMPI PUSH1 0x40 MLOAD PUSH32 0x8C379A000000000000000000000000000000000000000000000000000000000 DUP2 MSTORE PUSH1 0x4 ADD PUSH2 0x2260 SWAP1 PUSH2 0x3D98 JUMP JUMPDEST PUSH1 0x40 MLOAD DUP1 SWAP2 SUB SWAP1 REVERT JUMPDEST PUSH1 0x0 PUSH2 0x2281 DUP4 DUP6 PUSH1 0x0 ADD PUSH2 0x2B69 SWAP1 SWAP2 SWAP1 PUSH4 0xFFFFFFFF AND JUMP JUMPDEST MLOAD EQ ISZERO SWAP1 POP SWAP3 SWAP2 POP POP JUMP JUMPDEST DUP2 PUSH1 0x1 ADD PUSH1 0x0 DUP3 PUSH20 0xFFFFFFFFFFFFFFFFFFFFFFFFFFFFFFFFFFFFFFFF AND PUSH20 0xFFFFFFFFFFFFFFFFFFFFFFFFFFFFFFFFFFFFFFFF AND DUP2 MSTORE PUSH1 0x20 ADD SWAP1 DUP2 MSTORE PUSH1 0x20 ADD PUSH1 0x0 KECCAK256 PUSH1 0x0 SWAP1 SLOAD SWAP1 PUSH2 0x100 EXP SWAP1 DIV PUSH1 0xFF AND ISZERO PUSH2 0x250B JUMPI DUP2 PUSH1 0x1 ADD PUSH1 0x0 DUP3 PUSH20 0xFFFFFFFFFFFFFFFFFFFFFFFFFFFFFFFFFFFFFFFF AND PUSH20 0xFFFFFFFFFFFFFFFFFFFFFFFFFFFFFFFFFFFFFFFF AND DUP2 MSTORE PUSH1 0x20 ADD SWAP1 DUP2 MSTORE PUSH1 0x20 ADD PUSH1 0x0 KECCAK256 PUSH1 0x0 PUSH2 0x100 EXP DUP2 SLOAD SWAP1 PUSH1 0xFF MUL NOT AND SWAP1 SSTORE PUSH1 0x0 DUP3 PUSH1 0x2 ADD PUSH1 0x0 DUP4 PUSH20 0xFFFFFFFFFFFFFFFFFFFFFFFFFFFFFFFFFFFFFFFF AND PUSH20 0xFFFFFFFFFFFFFFFFFFFFFFFFFFFFFFFFFFFFFFFF AND DUP2 MSTORE PUSH1 0x20 ADD SWAP1 DUP2 MSTORE PUSH1 0x20 ADD PUSH1 0x0 KECCAK256 SLOAD SWAP1 POP PUSH1 0x0 PUSH1 0x1 DUP5 PUSH1 0x0 ADD DUP1 SLOAD SWAP1 POP PUSH2 0x238D SWAP2 SWAP1 PUSH2 0x3DE7 JUMP JUMPDEST SWAP1 POP PUSH1 0x0 DUP5 PUSH1 0x0 ADD DUP3 DUP2 SLOAD DUP2 LT PUSH2 0x23A7 JUMPI PUSH2 0x23A6 PUSH2 0x3E1B JUMP JUMPDEST JUMPDEST SWAP1 PUSH1 0x0 MSTORE PUSH1 0x20 PUSH1 0x0 KECCAK256 ADD PUSH1 0x0 SWAP1 SLOAD SWAP1 PUSH2 0x100 EXP SWAP1 DIV PUSH20 0xFFFFFFFFFFFFFFFFFFFFFFFFFFFFFFFFFFFFFFFF AND SWAP1 POP DUP3 DUP6 PUSH1 0x2 ADD PUSH1 0x0 DUP4 PUSH20 0xFFFFFFFFFFFFFFFFFFFFFFFFFFFFFFFFFFFFFFFF AND PUSH20 0xFFFFFFFFFFFFFFFFFFFFFFFFFFFFFFFFFFFFFFFF AND DUP2 MSTORE PUSH1 0x20 ADD SWAP1 DUP2 MSTORE PUSH1 0x20 ADD PUSH1 0x0 KECCAK256 DUP2 SWAP1 SSTORE POP DUP5 PUSH1 0x2 ADD PUSH1 0x0 DUP6 PUSH20 0xFFFFFFFFFFFFFFFFFFFFFFFFFFFFFFFFFFFFFFFF AND PUSH20 0xFFFFFFFFFFFFFFFFFFFFFFFFFFFFFFFFFFFFFFFF AND DUP2 MSTORE PUSH1 0x20 ADD SWAP1 DUP2 MSTORE PUSH1 0x20 ADD PUSH1 0x0 KECCAK256 PUSH1 0x0 SWAP1 SSTORE DUP1 DUP6 PUSH1 0x0 ADD DUP5 DUP2 SLOAD DUP2 LT PUSH2 0x2476 JUMPI PUSH2 0x2475 PUSH2 0x3E1B JUMP JUMPDEST JUMPDEST SWAP1 PUSH1 0x0 MSTORE PUSH1 0x20 PUSH1 0x0 KECCAK256 ADD PUSH1 0x0 PUSH2 0x100 EXP DUP2 SLOAD DUP2 PUSH20 0xFFFFFFFFFFFFFFFFFFFFFFFFFFFFFFFFFFFFFFFF MUL NOT AND SWAP1 DUP4 PUSH20 0xFFFFFFFFFFFFFFFFFFFFFFFFFFFFFFFFFFFFFFFF AND MUL OR SWAP1 SSTORE POP DUP5 PUSH1 0x0 ADD DUP1 SLOAD DUP1 PUSH2 0x24D2 JUMPI PUSH2 0x24D1 PUSH2 0x3E4A JUMP JUMPDEST JUMPDEST PUSH1 0x1 SWAP1 SUB DUP2 DUP2 SWAP1 PUSH1 0x0 MSTORE PUSH1 0x20 PUSH1 0x0 KECCAK256 ADD PUSH1 0x0 PUSH2 0x100 EXP DUP2 SLOAD SWAP1 PUSH20 0xFFFFFFFFFFFFFFFFFFFFFFFFFFFFFFFFFFFFFFFF MUL NOT AND SWAP1 SSTORE SWAP1 SSTORE POP POP POP JUMPDEST POP POP JUMP JUMPDEST PUSH1 0x60 DUP2 PUSH1 0x0 ADD PUSH1 0x0 ADD DUP1 SLOAD DUP1 PUSH1 0x20 MUL PUSH1 0x20 ADD PUSH1 0x40 MLOAD SWAP1 DUP2 ADD PUSH1 0x40 MSTORE DUP1 SWAP3 SWAP2 SWAP1 DUP2 DUP2 MSTORE PUSH1 0x20 ADD DUP3 DUP1 SLOAD DUP1 ISZERO PUSH2 0x2598 JUMPI PUSH1 0x20 MUL DUP3 ADD SWAP2 SWAP1 PUSH1 0x0 MSTORE PUSH1 0x20 PUSH1 0x0 KECCAK256 SWAP1 JUMPDEST DUP2 PUSH1 0x0 SWAP1 SLOAD SWAP1 PUSH2 0x100 EXP SWAP1 DIV PUSH20 0xFFFFFFFFFFFFFFFFFFFFFFFFFFFFFFFFFFFFFFFF AND PUSH20 0xFFFFFFFFFFFFFFFFFFFFFFFFFFFFFFFFFFFFFFFF AND DUP2 MSTORE PUSH1 0x20 ADD SWAP1 PUSH1 0x1 ADD SWAP1 DUP1 DUP4 GT PUSH2 0x254E JUMPI JUMPDEST POP POP POP POP POP SWAP1 POP SWAP2 SWAP1 POP JUMP JUMPDEST PUSH2 0x25AE DUP4 DUP4 PUSH2 0x21F9 JUMP JUMPDEST ISZERO PUSH2 0x25EE JUMPI PUSH1 0x40 MLOAD PUSH32 0x8C379A000000000000000000000000000000000000000000000000000000000 DUP2 MSTORE PUSH1 0x4 ADD PUSH2 0x25E5 SWAP1 PUSH2 0x3EC5 JUMP JUMPDEST PUSH1 0x40 MLOAD DUP1 SWAP2 SUB SWAP1 REVERT JUMPDEST PUSH2 0x2606 DUP3 DUP3 DUP6 PUSH1 0x0 ADD PUSH2 0x2C3D SWAP1 SWAP3 SWAP2 SWAP1 PUSH4 0xFFFFFFFF AND JUMP JUMPDEST POP POP POP JUMP JUMPDEST DUP2 PUSH1 0x1 ADD PUSH1 0x0 DUP3 PUSH20 0xFFFFFFFFFFFFFFFFFFFFFFFFFFFFFFFFFFFFFFFF AND PUSH20 0xFFFFFFFFFFFFFFFFFFFFFFFFFFFFFFFFFFFFFFFF AND DUP2 MSTORE PUSH1 0x20 ADD SWAP1 DUP2 MSTORE PUSH1 0x20 ADD PUSH1 0x0 KECCAK256 PUSH1 0x0 SWAP1 SLOAD SWAP1 PUSH2 0x100 EXP SWAP1 DIV PUSH1 0xFF AND PUSH2 0x276B JUMPI PUSH1 0x1 DUP3 PUSH1 0x1 ADD PUSH1 0x0 DUP4 PUSH20 0xFFFFFFFFFFFFFFFFFFFFFFFFFFFFFFFFFFFFFFFF AND PUSH20 0xFFFFFFFFFFFFFFFFFFFFFFFFFFFFFFFFFFFFFFFF AND DUP2 MSTORE PUSH1 0x20 ADD SWAP1 DUP2 MSTORE PUSH1 0x20 ADD PUSH1 0x0 KECCAK256 PUSH1 0x0 PUSH2 0x100 EXP DUP2 SLOAD DUP2 PUSH1 0xFF MUL NOT AND SWAP1 DUP4 ISZERO ISZERO MUL OR SWAP1 SSTORE POP DUP2 PUSH1 0x0 ADD DUP1 SLOAD SWAP1 POP DUP3 PUSH1 0x2 ADD PUSH1 0x0 DUP4 PUSH20 0xFFFFFFFFFFFFFFFFFFFFFFFFFFFFFFFFFFFFFFFF AND PUSH20 0xFFFFFFFFFFFFFFFFFFFFFFFFFFFFFFFFFFFFFFFF AND DUP2 MSTORE PUSH1 0x20 ADD SWAP1 DUP2 MSTORE PUSH1 0x20 ADD PUSH1 0x0 KECCAK256 DUP2 SWAP1 SSTORE POP DUP2 PUSH1 0x0 ADD DUP2 SWAP1 DUP1 PUSH1 0x1 DUP2 SLOAD ADD DUP1 DUP3 SSTORE DUP1 SWAP2 POP POP PUSH1 0x1 SWAP1 SUB SWAP1 PUSH1 0x0 MSTORE PUSH1 0x20 PUSH1 0x0 KECCAK256 ADD PUSH1 0x0 SWAP1 SWAP2 SWAP1 SWAP2 SWAP1 SWAP2 PUSH2 0x100 EXP DUP2 SLOAD DUP2 PUSH20 0xFFFFFFFFFFFFFFFFFFFFFFFFFFFFFFFFFFFFFFFF MUL NOT AND SWAP1 DUP4 PUSH20 0xFFFFFFFFFFFFFFFFFFFFFFFFFFFFFFFFFFFFFFFF AND MUL OR SWAP1 SSTORE POP JUMPDEST POP POP JUMP JUMPDEST PUSH1 0x0 DUP1 PUSH1 0x0 SWAP1 POP JUMPDEST DUP4 MLOAD DUP2 LT ISZERO PUSH2 0x27E9 JUMPI DUP3 PUSH20 0xFFFFFFFFFFFFFFFFFFFFFFFFFFFFFFFFFFFFFFFF AND DUP5 DUP3 DUP2 MLOAD DUP2 LT PUSH2 0x27AA JUMPI PUSH2 0x27A9 PUSH2 0x3E1B JUMP JUMPDEST JUMPDEST PUSH1 0x20 MUL PUSH1 0x20 ADD ADD MLOAD PUSH20 0xFFFFFFFFFFFFFFFFFFFFFFFFFFFFFFFFFFFFFFFF AND SUB PUSH2 0x27D6 JUMPI DUP1 SWAP2 POP POP PUSH2 0x280E JUMP JUMPDEST DUP1 DUP1 PUSH2 0x27E1 SWAP1 PUSH2 0x3EE5 JUMP JUMPDEST SWAP2 POP POP PUSH2 0x2777 JUMP JUMPDEST POP PUSH32 0xFFFFFFFFFFFFFFFFFFFFFFFFFFFFFFFFFFFFFFFFFFFFFFFFFFFFFFFFFFFFFFFF SWAP1 POP JUMPDEST SWAP3 SWAP2 POP POP JUMP JUMPDEST PUSH1 0x60 PUSH2 0x282C DUP3 DUP5 PUSH1 0x0 ADD PUSH2 0x2B69 SWAP1 SWAP2 SWAP1 PUSH4 0xFFFFFFFF AND JUMP JUMPDEST SWAP1 POP SWAP3 SWAP2 POP POP JUMP JUMPDEST PUSH2 0x284C DUP3 DUP3 DUP6 PUSH1 0x0 ADD PUSH2 0x2C3D SWAP1 SWAP3 SWAP2 SWAP1 PUSH4 0xFFFFFFFF AND JUMP JUMPDEST POP POP POP JUMP JUMPDEST PUSH1 0x0 DUP3 PUSH1 0x1 ADD PUSH1 0x0 DUP4 PUSH20 0xFFFFFFFFFFFFFFFFFFFFFFFFFFFFFFFFFFFFFFFF AND PUSH20 0xFFFFFFFFFFFFFFFFFFFFFFFFFFFFFFFFFFFFFFFF AND DUP2 MSTORE PUSH1 0x20 ADD SWAP1 DUP2 MSTORE PUSH1 0x20 ADD PUSH1 0x0 KECCAK256 PUSH1 0x0 SWAP1 SLOAD SWAP1 PUSH2 0x100 EXP SWAP1 DIV PUSH1 0xFF AND SWAP1 POP SWAP3 SWAP2 POP POP JUMP JUMPDEST PUSH2 0x28B4 DUP3 DUP3 PUSH2 0x21F9 JUMP JUMPDEST PUSH2 0x28F3 JUMPI PUSH1 0x40 MLOAD PUSH32 0x8C379A000000000000000000000000000000000000000000000000000000000 DUP2 MSTORE PUSH1 0x4 ADD PUSH2 0x28EA SWAP1 PUSH2 0x3F9F JUMP JUMPDEST PUSH1 0x40 MLOAD DUP1 SWAP2 SUB SWAP1 REVERT JUMPDEST PUSH2 0x2909 DUP2 DUP4 PUSH1 0x0 ADD PUSH2 0x2DF1 SWAP1 SWAP2 SWAP1 PUSH4 0xFFFFFFFF AND JUMP JUMPDEST POP POP JUMP JUMPDEST PUSH1 0x0 PUSH32 0xFFFFFFFFFFFFFFFFFFFFFFFFFFFFFFFFFFFFFFFFFFFFFFFFFFFFFFFFFFFFFFFF PUSH2 0x293A DUP5 DUP5 PUSH2 0x276F JUMP JUMPDEST EQ ISZERO SWAP1 POP SWAP3 SWAP2 POP POP JUMP JUMPDEST PUSH1 0x0 DUP1 PUSH2 0x29D6 DUP5 DUP1 SLOAD DUP1 PUSH1 0x20 MUL PUSH1 0x20 ADD PUSH1 0x40 MLOAD SWAP1 DUP2 ADD PUSH1 0x40 MSTORE DUP1 SWAP3 SWAP2 SWAP1 DUP2 DUP2 MSTORE PUSH1 0x20 ADD DUP3 DUP1 SLOAD DUP1 ISZERO PUSH2 0x29CB JUMPI PUSH1 0x20 MUL DUP3 ADD SWAP2 SWAP1 PUSH1 0x0 MSTORE PUSH1 0x20 PUSH1 0x0 KECCAK256 SWAP1 JUMPDEST DUP2 PUSH1 0x0 SWAP1 SLOAD SWAP1 PUSH2 0x100 EXP SWAP1 DIV PUSH20 0xFFFFFFFFFFFFFFFFFFFFFFFFFFFFFFFFFFFFFFFF AND PUSH20 0xFFFFFFFFFFFFFFFFFFFFFFFFFFFFFFFFFFFFFFFF AND DUP2 MSTORE PUSH1 0x20 ADD SWAP1 PUSH1 0x1 ADD SWAP1 DUP1 DUP4 GT PUSH2 0x2981 JUMPI JUMPDEST POP POP POP POP POP DUP5 PUSH2 0x276F JUMP JUMPDEST SWAP1 POP PUSH32 0xFFFFFFFFFFFFFFFFFFFFFFFFFFFFFFFFFFFFFFFFFFFFFFFFFFFFFFFFFFFFFFFF DUP2 SUB PUSH2 0x2A09 JUMPI PUSH1 0x0 SWAP2 POP POP PUSH2 0x2B63 JUMP JUMPDEST PUSH1 0x0 DUP5 DUP1 SLOAD DUP1 PUSH1 0x20 MUL PUSH1 0x20 ADD PUSH1 0x40 MLOAD SWAP1 DUP2 ADD PUSH1 0x40 MSTORE DUP1 SWAP3 SWAP2 SWAP1 DUP2 DUP2 MSTORE PUSH1 0x20 ADD DUP3 DUP1 SLOAD DUP1 ISZERO PUSH2 0x2A8C JUMPI PUSH1 0x20 MUL DUP3 ADD SWAP2 SWAP1 PUSH1 0x0 MSTORE PUSH1 0x20 PUSH1 0x0 KECCAK256 SWAP1 JUMPDEST DUP2 PUSH1 0x0 SWAP1 SLOAD SWAP1 PUSH2 0x100 EXP SWAP1 DIV PUSH20 0xFFFFFFFFFFFFFFFFFFFFFFFFFFFFFFFFFFFFFFFF AND PUSH20 0xFFFFFFFFFFFFFFFFFFFFFFFFFFFFFFFFFFFFFFFF AND DUP2 MSTORE PUSH1 0x20 ADD SWAP1 PUSH1 0x1 ADD SWAP1 DUP1 DUP4 GT PUSH2 0x2A42 JUMPI JUMPDEST POP POP POP POP POP SWAP1 POP DUP1 PUSH1 0x1 DUP3 MLOAD PUSH2 0x2AA2 SWAP2 SWAP1 PUSH2 0x3DE7 JUMP JUMPDEST DUP2 MLOAD DUP2 LT PUSH2 0x2AB3 JUMPI PUSH2 0x2AB2 PUSH2 0x3E1B JUMP JUMPDEST JUMPDEST PUSH1 0x20 MUL PUSH1 0x20 ADD ADD MLOAD DUP6 DUP4 DUP2 SLOAD DUP2 LT PUSH2 0x2ACE JUMPI PUSH2 0x2ACD PUSH2 0x3E1B JUMP JUMPDEST JUMPDEST SWAP1 PUSH1 0x0 MSTORE PUSH1 0x20 PUSH1 0x0 KECCAK256 ADD PUSH1 0x0 PUSH2 0x100 EXP DUP2 SLOAD DUP2 PUSH20 0xFFFFFFFFFFFFFFFFFFFFFFFFFFFFFFFFFFFFFFFF MUL NOT AND SWAP1 DUP4 PUSH20 0xFFFFFFFFFFFFFFFFFFFFFFFFFFFFFFFFFFFFFFFF AND MUL OR SWAP1 SSTORE POP DUP5 DUP1 SLOAD DUP1 PUSH2 0x2B27 JUMPI PUSH2 0x2B26 PUSH2 0x3E4A JUMP JUMPDEST JUMPDEST PUSH1 0x1 SWAP1 SUB DUP2 DUP2 SWAP1 PUSH1 0x0 MSTORE PUSH1 0x20 PUSH1 0x0 KECCAK256 ADD PUSH1 0x0 PUSH2 0x100 EXP DUP2 SLOAD SWAP1 PUSH20 0xFFFFFFFFFFFFFFFFFFFFFFFFFFFFFFFFFFFFFFFF MUL NOT AND SWAP1 SSTORE SWAP1 SSTORE PUSH1 0x1 SWAP3 POP POP POP JUMPDEST SWAP3 SWAP2 POP POP JUMP JUMPDEST PUSH1 0x60 DUP3 PUSH1 0x1 ADD PUSH1 0x0 DUP4 PUSH20 0xFFFFFFFFFFFFFFFFFFFFFFFFFFFFFFFFFFFFFFFF AND PUSH20 0xFFFFFFFFFFFFFFFFFFFFFFFFFFFFFFFFFFFFFFFF AND DUP2 MSTORE PUSH1 0x20 ADD SWAP1 DUP2 MSTORE PUSH1 0x20 ADD PUSH1 0x0 KECCAK256 DUP1 SLOAD PUSH2 0x2BB7 SWAP1 PUSH2 0x36BB JUMP JUMPDEST DUP1 PUSH1 0x1F ADD PUSH1 0x20 DUP1 SWAP2 DIV MUL PUSH1 0x20 ADD PUSH1 0x40 MLOAD SWAP1 DUP2 ADD PUSH1 0x40 MSTORE DUP1 SWAP3 SWAP2 SWAP1 DUP2 DUP2 MSTORE PUSH1 0x20 ADD DUP3 DUP1 SLOAD PUSH2 0x2BE3 SWAP1 PUSH2 0x36BB JUMP JUMPDEST DUP1 ISZERO PUSH2 0x2C30 JUMPI DUP1 PUSH1 0x1F LT PUSH2 0x2C05 JUMPI PUSH2 0x100 DUP1 DUP4 SLOAD DIV MUL DUP4 MSTORE SWAP2 PUSH1 0x20 ADD SWAP2 PUSH2 0x2C30 JUMP JUMPDEST DUP3 ADD SWAP2 SWAP1 PUSH1 0x0 MSTORE PUSH1 0x20 PUSH1 0x0 KECCAK256 SWAP1 JUMPDEST DUP2 SLOAD DUP2 MSTORE SWAP1 PUSH1 0x1 ADD SWAP1 PUSH1 0x20 ADD DUP1 DUP4 GT PUSH2 0x2C13 JUMPI DUP3 SWAP1 SUB PUSH1 0x1F AND DUP3 ADD SWAP2 JUMPDEST POP POP POP POP POP SWAP1 POP SWAP3 SWAP2 POP POP JUMP JUMPDEST DUP3 PUSH1 0x3 ADD PUSH1 0x0 DUP4 PUSH20 0xFFFFFFFFFFFFFFFFFFFFFFFFFFFFFFFFFFFFFFFF AND PUSH20 0xFFFFFFFFFFFFFFFFFFFFFFFFFFFFFFFFFFFFFFFF AND DUP2 MSTORE PUSH1 0x20 ADD SWAP1 DUP2 MSTORE PUSH1 0x20 ADD PUSH1 0x0 KECCAK256 PUSH1 0x0 SWAP1 SLOAD SWAP1 PUSH2 0x100 EXP SWAP1 DIV PUSH1 0xFF AND PUSH2 0x2D9D JUMPI DUP3 PUSH1 0x0 ADD DUP1 SLOAD SWAP1 POP DUP4 PUSH1 0x2 ADD PUSH1 0x0 DUP5 PUSH20 0xFFFFFFFFFFFFFFFFFFFFFFFFFFFFFFFFFFFFFFFF AND PUSH20 0xFFFFFFFFFFFFFFFFFFFFFFFFFFFFFFFFFFFFFFFF AND DUP2 MSTORE PUSH1 0x20 ADD SWAP1 DUP2 MSTORE PUSH1 0x20 ADD PUSH1 0x0 KECCAK256 DUP2 SWAP1 SSTORE POP PUSH1 0x1 DUP4 PUSH1 0x3 ADD PUSH1 0x0 DUP5 PUSH20 0xFFFFFFFFFFFFFFFFFFFFFFFFFFFFFFFFFFFFFFFF AND PUSH20 0xFFFFFFFFFFFFFFFFFFFFFFFFFFFFFFFFFFFFFFFF AND DUP2 MSTORE PUSH1 0x20 ADD SWAP1 DUP2 MSTORE PUSH1 0x20 ADD PUSH1 0x0 KECCAK256 PUSH1 0x0 PUSH2 0x100 EXP DUP2 SLOAD DUP2 PUSH1 0xFF MUL NOT AND SWAP1 DUP4 ISZERO ISZERO MUL OR SWAP1 SSTORE POP DUP3 PUSH1 0x0 ADD DUP3 SWAP1 DUP1 PUSH1 0x1 DUP2 SLOAD ADD DUP1 DUP3 SSTORE DUP1 SWAP2 POP POP PUSH1 0x1 SWAP1 SUB SWAP1 PUSH1 0x0 MSTORE PUSH1 0x20 PUSH1 0x0 KECCAK256 ADD PUSH1 0x0 SWAP1 SWAP2 SWAP1 SWAP2 SWAP1 SWAP2 PUSH2 0x100 EXP DUP2 SLOAD DUP2 PUSH20 0xFFFFFFFFFFFFFFFFFFFFFFFFFFFFFFFFFFFFFFFF MUL NOT AND SWAP1 DUP4 PUSH20 0xFFFFFFFFFFFFFFFFFFFFFFFFFFFFFFFFFFFFFFFF AND MUL OR SWAP1 SSTORE POP JUMPDEST DUP1 DUP4 PUSH1 0x1 ADD PUSH1 0x0 DUP5 PUSH20 0xFFFFFFFFFFFFFFFFFFFFFFFFFFFFFFFFFFFFFFFF AND PUSH20 0xFFFFFFFFFFFFFFFFFFFFFFFFFFFFFFFFFFFFFFFF AND DUP2 MSTORE PUSH1 0x20 ADD SWAP1 DUP2 MSTORE PUSH1 0x20 ADD PUSH1 0x0 KECCAK256 SWAP1 DUP2 PUSH2 0x2DEB SWAP2 SWAP1 PUSH2 0x3A32 JUMP JUMPDEST POP POP POP POP JUMP JUMPDEST DUP2 PUSH1 0x3 ADD PUSH1 0x0 DUP3 PUSH20 0xFFFFFFFFFFFFFFFFFFFFFFFFFFFFFFFFFFFFFFFF AND PUSH20 0xFFFFFFFFFFFFFFFFFFFFFFFFFFFFFFFFFFFFFFFF AND DUP2 MSTORE PUSH1 0x20 ADD SWAP1 DUP2 MSTORE PUSH1 0x20 ADD PUSH1 0x0 KECCAK256 PUSH1 0x0 SWAP1 SLOAD SWAP1 PUSH2 0x100 EXP SWAP1 DIV PUSH1 0xFF AND ISZERO PUSH2 0x30BD JUMPI DUP2 PUSH1 0x1 ADD PUSH1 0x0 DUP3 PUSH20 0xFFFFFFFFFFFFFFFFFFFFFFFFFFFFFFFFFFFFFFFF AND PUSH20 0xFFFFFFFFFFFFFFFFFFFFFFFFFFFFFFFFFFFFFFFF AND DUP2 MSTORE PUSH1 0x20 ADD SWAP1 DUP2 MSTORE PUSH1 0x20 ADD PUSH1 0x0 KECCAK256 PUSH1 0x0 PUSH2 0x2E92 SWAP2 SWAP1 PUSH2 0x30C1 JUMP JUMPDEST DUP2 PUSH1 0x3 ADD PUSH1 0x0 DUP3 PUSH20 0xFFFFFFFFFFFFFFFFFFFFFFFFFFFFFFFFFFFFFFFF AND PUSH20 0xFFFFFFFFFFFFFFFFFFFFFFFFFFFFFFFFFFFFFFFF AND DUP2 MSTORE PUSH1 0x20 ADD SWAP1 DUP2 MSTORE PUSH1 0x20 ADD PUSH1 0x0 KECCAK256 PUSH1 0x0 PUSH2 0x100 EXP DUP2 SLOAD SWAP1 PUSH1 0xFF MUL NOT AND SWAP1 SSTORE PUSH1 0x0 DUP3 PUSH1 0x2 ADD PUSH1 0x0 DUP4 PUSH20 0xFFFFFFFFFFFFFFFFFFFFFFFFFFFFFFFFFFFFFFFF AND PUSH20 0xFFFFFFFFFFFFFFFFFFFFFFFFFFFFFFFFFFFFFFFF AND DUP2 MSTORE PUSH1 0x20 ADD SWAP1 DUP2 MSTORE PUSH1 0x20 ADD PUSH1 0x0 KECCAK256 SLOAD SWAP1 POP PUSH1 0x0 PUSH1 0x1 DUP5 PUSH1 0x0 ADD DUP1 SLOAD SWAP1 POP PUSH2 0x2F3F SWAP2 SWAP1 PUSH2 0x3DE7 JUMP JUMPDEST SWAP1 POP PUSH1 0x0 DUP5 PUSH1 0x0 ADD DUP3 DUP2 SLOAD DUP2 LT PUSH2 0x2F59 JUMPI PUSH2 0x2F58 PUSH2 0x3E1B JUMP JUMPDEST JUMPDEST SWAP1 PUSH1 0x0 MSTORE PUSH1 0x20 PUSH1 0x0 KECCAK256 ADD PUSH1 0x0 SWAP1 SLOAD SWAP1 PUSH2 0x100 EXP SWAP1 DIV PUSH20 0xFFFFFFFFFFFFFFFFFFFFFFFFFFFFFFFFFFFFFFFF AND SWAP1 POP DUP3 DUP6 PUSH1 0x2 ADD PUSH1 0x0 DUP4 PUSH20 0xFFFFFFFFFFFFFFFFFFFFFFFFFFFFFFFFFFFFFFFF AND PUSH20 0xFFFFFFFFFFFFFFFFFFFFFFFFFFFFFFFFFFFFFFFF AND DUP2 MSTORE PUSH1 0x20 ADD SWAP1 DUP2 MSTORE PUSH1 0x20 ADD PUSH1 0x0 KECCAK256 DUP2 SWAP1 SSTORE POP DUP5 PUSH1 0x2 ADD PUSH1 0x0 DUP6 PUSH20 0xFFFFFFFFFFFFFFFFFFFFFFFFFFFFFFFFFFFFFFFF AND PUSH20 0xFFFFFFFFFFFFFFFFFFFFFFFFFFFFFFFFFFFFFFFF AND DUP2 MSTORE PUSH1 0x20 ADD SWAP1 DUP2 MSTORE PUSH1 0x20 ADD PUSH1 0x0 KECCAK256 PUSH1 0x0 SWAP1 SSTORE DUP1 DUP6 PUSH1 0x0 ADD DUP5 DUP2 SLOAD DUP2 LT PUSH2 0x3028 JUMPI PUSH2 0x3027 PUSH2 0x3E1B JUMP JUMPDEST JUMPDEST SWAP1 PUSH1 0x0 MSTORE PUSH1 0x20 PUSH1 0x0 KECCAK256 ADD PUSH1 0x0 PUSH2 0x100 EXP DUP2 SLOAD DUP2 PUSH20 0xFFFFFFFFFFFFFFFFFFFFFFFFFFFFFFFFFFFFFFFF MUL NOT AND SWAP1 DUP4 PUSH20 0xFFFFFFFFFFFFFFFFFFFFFFFFFFFFFFFFFFFFFFFF AND MUL OR SWAP1 SSTORE POP DUP5 PUSH1 0x0 ADD DUP1 SLOAD DUP1 PUSH2 0x3084 JUMPI PUSH2 0x3083 PUSH2 0x3E4A JUMP JUMPDEST JUMPDEST PUSH1 0x1 SWAP1 SUB DUP2 DUP2 SWAP1 PUSH1 0x0 MSTORE PUSH1 0x20 PUSH1 0x0 KECCAK256 ADD PUSH1 0x0 PUSH2 0x100 EXP DUP2 SLOAD SWAP1 PUSH20 0xFFFFFFFFFFFFFFFFFFFFFFFFFFFFFFFFFFFFFFFF MUL NOT AND SWAP1 SSTORE SWAP1 SSTORE POP POP POP JUMPDEST POP POP JUMP JUMPDEST POP DUP1 SLOAD PUSH2 0x30CD SWAP1 PUSH2 0x36BB JUMP JUMPDEST PUSH1 0x0 DUP3 SSTORE DUP1 PUSH1 0x1F LT PUSH2 0x30DF JUMPI POP PUSH2 0x30FE JUMP JUMPDEST PUSH1 0x1F ADD PUSH1 0x20 SWAP1 DIV SWAP1 PUSH1 0x0 MSTORE PUSH1 0x20 PUSH1 0x0 KECCAK256 SWAP1 DUP2 ADD SWAP1 PUSH2 0x30FD SWAP2 SWAP1 PUSH2 0x3101 JUMP JUMPDEST JUMPDEST POP JUMP JUMPDEST JUMPDEST DUP1 DUP3 GT ISZERO PUSH2 0x311A JUMPI PUSH1 0x0 DUP2 PUSH1 0x0 SWAP1 SSTORE POP PUSH1 0x1 ADD PUSH2 0x3102 JUMP JUMPDEST POP SWAP1 JUMP JUMPDEST PUSH1 0x0 PUSH1 0x40 MLOAD SWAP1 POP SWAP1 JUMP JUMPDEST PUSH1 0x0 DUP1 REVERT JUMPDEST PUSH1 0x0 DUP1 REVERT JUMPDEST PUSH1 0x0 PUSH20 0xFFFFFFFFFFFFFFFFFFFFFFFFFFFFFFFFFFFFFFFF DUP3 AND SWAP1 POP SWAP2 SWAP1 POP JUMP JUMPDEST PUSH1 0x0 PUSH2 0x315D DUP3 PUSH2 0x3132 JUMP JUMPDEST SWAP1 POP SWAP2 SWAP1 POP JUMP JUMPDEST PUSH2 0x316D DUP2 PUSH2 0x3152 JUMP JUMPDEST DUP2 EQ PUSH2 0x3178 JUMPI PUSH1 0x0 DUP1 REVERT JUMPDEST POP JUMP JUMPDEST PUSH1 0x0 DUP2 CALLDATALOAD SWAP1 POP PUSH2 0x318A DUP2 PUSH2 0x3164 JUMP JUMPDEST SWAP3 SWAP2 POP POP JUMP JUMPDEST PUSH1 0x0 PUSH1 0x20 DUP3 DUP5 SUB SLT ISZERO PUSH2 0x31A6 JUMPI PUSH2 0x31A5 PUSH2 0x3128 JUMP JUMPDEST JUMPDEST PUSH1 0x0 PUSH2 0x31B4 DUP5 DUP3 DUP6 ADD PUSH2 0x317B JUMP JUMPDEST SWAP2 POP POP SWAP3 SWAP2 POP POP JUMP JUMPDEST PUSH1 0x0 DUP2 MLOAD SWAP1 POP SWAP2 SWAP1 POP JUMP JUMPDEST PUSH1 0x0 DUP3 DUP3 MSTORE PUSH1 0x20 DUP3 ADD SWAP1 POP SWAP3 SWAP2 POP POP JUMP JUMPDEST PUSH1 0x0 JUMPDEST DUP4 DUP2 LT ISZERO PUSH2 0x31F7 JUMPI DUP1 DUP3 ADD MLOAD DUP2 DUP5 ADD MSTORE PUSH1 0x20 DUP2 ADD SWAP1 POP PUSH2 0x31DC JUMP JUMPDEST PUSH1 0x0 DUP5 DUP5 ADD MSTORE POP POP POP POP JUMP JUMPDEST PUSH1 0x0 PUSH1 0x1F NOT PUSH1 0x1F DUP4 ADD AND SWAP1 POP SWAP2 SWAP1 POP JUMP JUMPDEST PUSH1 0x0 PUSH2 0x321F DUP3 PUSH2 0x31BD JUMP JUMPDEST PUSH2 0x3229 DUP2 DUP6 PUSH2 0x31C8 JUMP JUMPDEST SWAP4 POP PUSH2 0x3239 DUP2 DUP6 PUSH1 0x20 DUP7 ADD PUSH2 0x31D9 JUMP JUMPDEST PUSH2 0x3242 DUP2 PUSH2 0x3203 JUMP JUMPDEST DUP5 ADD SWAP2 POP POP SWAP3 SWAP2 POP POP JUMP JUMPDEST PUSH1 0x0 PUSH1 0x20 DUP3 ADD SWAP1 POP DUP2 DUP2 SUB PUSH1 0x0 DUP4 ADD MSTORE PUSH2 0x3267 DUP2 DUP5 PUSH2 0x3214 JUMP JUMPDEST SWAP1 POP SWAP3 SWAP2 POP POP JUMP JUMPDEST PUSH1 0x0 DUP2 MLOAD SWAP1 POP SWAP2 SWAP1 POP JUMP JUMPDEST PUSH1 0x0 DUP3 DUP3 MSTORE PUSH1 0x20 DUP3 ADD SWAP1 POP SWAP3 SWAP2 POP POP JUMP JUMPDEST PUSH1 0x0 DUP2 SWAP1 POP PUSH1 0x20 DUP3 ADD SWAP1 POP SWAP2 SWAP1 POP JUMP JUMPDEST PUSH2 0x32A4 DUP2 PUSH2 0x3152 JUMP JUMPDEST DUP3 MSTORE POP POP JUMP JUMPDEST PUSH1 0x0 PUSH2 0x32B6 DUP4 DUP4 PUSH2 0x329B JUMP JUMPDEST PUSH1 0x20 DUP4 ADD SWAP1 POP SWAP3 SWAP2 POP POP JUMP JUMPDEST PUSH1 0x0 PUSH1 0x20 DUP3 ADD SWAP1 POP SWAP2 SWAP1 POP JUMP JUMPDEST PUSH1 0x0 PUSH2 0x32DA DUP3 PUSH2 0x326F JUMP JUMPDEST PUSH2 0x32E4 DUP2 DUP6 PUSH2 0x327A JUMP JUMPDEST SWAP4 POP PUSH2 0x32EF DUP4 PUSH2 0x328B JUMP JUMPDEST DUP1 PUSH1 0x0 JUMPDEST DUP4 DUP2 LT ISZERO PUSH2 0x3320 JUMPI DUP2 MLOAD PUSH2 0x3307 DUP9 DUP3 PUSH2 0x32AA JUMP JUMPDEST SWAP8 POP PUSH2 0x3312 DUP4 PUSH2 0x32C2 JUMP JUMPDEST SWAP3 POP POP PUSH1 0x1 DUP2 ADD SWAP1 POP PUSH2 0x32F3 JUMP JUMPDEST POP DUP6 SWAP4 POP POP POP POP SWAP3 SWAP2 POP POP JUMP JUMPDEST PUSH1 0x0 PUSH1 0x20 DUP3 ADD SWAP1 POP DUP2 DUP2 SUB PUSH1 0x0 DUP4 ADD MSTORE PUSH2 0x3347 DUP2 DUP5 PUSH2 0x32CF JUMP JUMPDEST SWAP1 POP SWAP3 SWAP2 POP POP JUMP JUMPDEST PUSH2 0x3358 DUP2 PUSH2 0x3152 JUMP JUMPDEST DUP3 MSTORE POP POP JUMP JUMPDEST PUSH1 0x0 PUSH1 0x20 DUP3 ADD SWAP1 POP PUSH2 0x3373 PUSH1 0x0 DUP4 ADD DUP5 PUSH2 0x334F JUMP JUMPDEST SWAP3 SWAP2 POP POP JUMP JUMPDEST PUSH1 0x0 DUP2 ISZERO ISZERO SWAP1 POP SWAP2 SWAP1 POP JUMP JUMPDEST PUSH2 0x338E DUP2 PUSH2 0x3379 JUMP JUMPDEST DUP3 MSTORE POP POP JUMP JUMPDEST PUSH1 0x0 PUSH1 0x20 DUP3 ADD SWAP1 POP PUSH2 0x33A9 PUSH1 0x0 DUP4 ADD DUP5 PUSH2 0x3385 JUMP JUMPDEST SWAP3 SWAP2 POP POP JUMP JUMPDEST PUSH1 0x0 DUP1 REVERT JUMPDEST PUSH1 0x0 DUP1 REVERT JUMPDEST PUSH32 0x4E487B7100000000000000000000000000000000000000000000000000000000 PUSH1 0x0 MSTORE PUSH1 0x41 PUSH1 0x4 MSTORE PUSH1 0x24 PUSH1 0x0 REVERT JUMPDEST PUSH2 0x33F1 DUP3 PUSH2 0x3203 JUMP JUMPDEST DUP2 ADD DUP2 DUP2 LT PUSH8 0xFFFFFFFFFFFFFFFF DUP3 GT OR ISZERO PUSH2 0x3410 JUMPI PUSH2 0x340F PUSH2 0x33B9 JUMP JUMPDEST JUMPDEST DUP1 PUSH1 0x40 MSTORE POP POP POP JUMP JUMPDEST PUSH1 0x0 PUSH2 0x3423 PUSH2 0x311E JUMP JUMPDEST SWAP1 POP PUSH2 0x342F DUP3 DUP3 PUSH2 0x33E8 JUMP JUMPDEST SWAP2 SWAP1 POP JUMP JUMPDEST PUSH1 0x0 PUSH8 0xFFFFFFFFFFFFFFFF DUP3 GT ISZERO PUSH2 0x344F JUMPI PUSH2 0x344E PUSH2 0x33B9 JUMP JUMPDEST JUMPDEST PUSH2 0x3458 DUP3 PUSH2 0x3203 JUMP JUMPDEST SWAP1 POP PUSH1 0x20 DUP2 ADD SWAP1 POP SWAP2 SWAP1 POP JUMP JUMPDEST DUP3 DUP2 DUP4 CALLDATACOPY PUSH1 0x0 DUP4 DUP4 ADD MSTORE POP POP POP JUMP JUMPDEST PUSH1 0x0 PUSH2 0x3487 PUSH2 0x3482 DUP5 PUSH2 0x3434 JUMP JUMPDEST PUSH2 0x3419 JUMP JUMPDEST SWAP1 POP DUP3 DUP2 MSTORE PUSH1 0x20 DUP2 ADD DUP5 DUP5 DUP5 ADD GT ISZERO PUSH2 0x34A3 JUMPI PUSH2 0x34A2 PUSH2 0x33B4 JUMP JUMPDEST JUMPDEST PUSH2 0x34AE DUP5 DUP3 DUP6 PUSH2 0x3465 JUMP JUMPDEST POP SWAP4 SWAP3 POP POP POP JUMP JUMPDEST PUSH1 0x0 DUP3 PUSH1 0x1F DUP4 ADD SLT PUSH2 0x34CB JUMPI PUSH2 0x34CA PUSH2 0x33AF JUMP JUMPDEST JUMPDEST DUP2 CALLDATALOAD PUSH2 0x34DB DUP5 DUP3 PUSH1 0x20 DUP7 ADD PUSH2 0x3474 JUMP JUMPDEST SWAP2 POP POP SWAP3 SWAP2 POP POP JUMP JUMPDEST PUSH1 0x0 PUSH1 0x20 DUP3 DUP5 SUB SLT ISZERO PUSH2 0x34FA JUMPI PUSH2 0x34F9 PUSH2 0x3128 JUMP JUMPDEST JUMPDEST PUSH1 0x0 DUP3 ADD CALLDATALOAD PUSH8 0xFFFFFFFFFFFFFFFF DUP2 GT ISZERO PUSH2 0x3518 JUMPI PUSH2 0x3517 PUSH2 0x312D JUMP JUMPDEST JUMPDEST PUSH2 0x3524 DUP5 DUP3 DUP6 ADD PUSH2 0x34B6 JUMP JUMPDEST SWAP2 POP POP SWAP3 SWAP2 POP POP JUMP JUMPDEST PUSH1 0x0 DUP1 PUSH1 0x40 DUP4 DUP6 SUB SLT ISZERO PUSH2 0x3544 JUMPI PUSH2 0x3543 PUSH2 0x3128 JUMP JUMPDEST JUMPDEST PUSH1 0x0 DUP4 ADD CALLDATALOAD PUSH8 0xFFFFFFFFFFFFFFFF DUP2 GT ISZERO PUSH2 0x3562 JUMPI PUSH2 0x3561 PUSH2 0x312D JUMP JUMPDEST JUMPDEST PUSH2 0x356E DUP6 DUP3 DUP7 ADD PUSH2 0x34B6 JUMP JUMPDEST SWAP3 POP POP PUSH1 0x20 DUP4 ADD CALLDATALOAD PUSH8 0xFFFFFFFFFFFFFFFF DUP2 GT ISZERO PUSH2 0x358F JUMPI PUSH2 0x358E PUSH2 0x312D JUMP JUMPDEST JUMPDEST PUSH2 0x359B DUP6 DUP3 DUP7 ADD PUSH2 0x34B6 JUMP JUMPDEST SWAP2 POP POP SWAP3 POP SWAP3 SWAP1 POP JUMP JUMPDEST PUSH1 0x0 DUP1 PUSH1 0x40 DUP4 DUP6 SUB SLT ISZERO PUSH2 0x35BC JUMPI PUSH2 0x35BB PUSH2 0x3128 JUMP JUMPDEST JUMPDEST PUSH1 0x0 PUSH2 0x35CA DUP6 DUP3 DUP7 ADD PUSH2 0x317B JUMP JUMPDEST SWAP3 POP POP PUSH1 0x20 DUP4 ADD CALLDATALOAD PUSH8 0xFFFFFFFFFFFFFFFF DUP2 GT ISZERO PUSH2 0x35EB JUMPI PUSH2 0x35EA PUSH2 0x312D JUMP JUMPDEST JUMPDEST PUSH2 0x35F7 DUP6 DUP3 DUP7 ADD PUSH2 0x34B6 JUMP JUMPDEST SWAP2 POP POP SWAP3 POP SWAP3 SWAP1 POP JUMP JUMPDEST PUSH1 0x0 DUP1 PUSH1 0x0 PUSH1 0x60 DUP5 DUP7 SUB SLT ISZERO PUSH2 0x361A JUMPI PUSH2 0x3619 PUSH2 0x3128 JUMP JUMPDEST JUMPDEST PUSH1 0x0 PUSH2 0x3628 DUP7 DUP3 DUP8 ADD PUSH2 0x317B JUMP JUMPDEST SWAP4 POP POP PUSH1 0x20 DUP5 ADD CALLDATALOAD PUSH8 0xFFFFFFFFFFFFFFFF DUP2 GT ISZERO PUSH2 0x3649 JUMPI PUSH2 0x3648 PUSH2 0x312D JUMP JUMPDEST JUMPDEST PUSH2 0x3655 DUP7 DUP3 DUP8 ADD PUSH2 0x34B6 JUMP JUMPDEST SWAP3 POP POP PUSH1 0x40 DUP5 ADD CALLDATALOAD PUSH8 0xFFFFFFFFFFFFFFFF DUP2 GT ISZERO PUSH2 0x3676 JUMPI PUSH2 0x3675 PUSH2 0x312D JUMP JUMPDEST JUMPDEST PUSH2 0x3682 DUP7 DUP3 DUP8 ADD PUSH2 0x34B6 JUMP JUMPDEST SWAP2 POP POP SWAP3 POP SWAP3 POP SWAP3 JUMP JUMPDEST PUSH32 0x4E487B7100000000000000000000000000000000000000000000000000000000 PUSH1 0x0 MSTORE PUSH1 0x22 PUSH1 0x4 MSTORE PUSH1 0x24 PUSH1 0x0 REVERT JUMPDEST PUSH1 0x0 PUSH1 0x2 DUP3 DIV SWAP1 POP PUSH1 0x1 DUP3 AND DUP1 PUSH2 0x36D3 JUMPI PUSH1 0x7F DUP3 AND SWAP2 POP JUMPDEST PUSH1 0x20 DUP3 LT DUP2 SUB PUSH2 0x36E6 JUMPI PUSH2 0x36E5 PUSH2 0x368C JUMP JUMPDEST JUMPDEST POP SWAP2 SWAP1 POP JUMP JUMPDEST PUSH32 0x436F6E74726163743A204164647265737320616C726561647920726567697374 PUSH1 0x0 DUP3 ADD MSTORE PUSH32 0x657265642061732070617469656E740000000000000000000000000000000000 PUSH1 0x20 DUP3 ADD MSTORE POP JUMP JUMPDEST PUSH1 0x0 PUSH2 0x3748 PUSH1 0x2F DUP4 PUSH2 0x31C8 JUMP JUMPDEST SWAP2 POP PUSH2 0x3753 DUP3 PUSH2 0x36EC JUMP JUMPDEST PUSH1 0x40 DUP3 ADD SWAP1 POP SWAP2 SWAP1 POP JUMP JUMPDEST PUSH1 0x0 PUSH1 0x20 DUP3 ADD SWAP1 POP DUP2 DUP2 SUB PUSH1 0x0 DUP4 ADD MSTORE PUSH2 0x3777 DUP2 PUSH2 0x373B JUMP JUMPDEST SWAP1 POP SWAP2 SWAP1 POP JUMP JUMPDEST PUSH32 0x436F6E74726163743A20456D7074792068617368206973206E6F7420616C6C6F PUSH1 0x0 DUP3 ADD MSTORE PUSH32 0x7765640000000000000000000000000000000000000000000000000000000000 PUSH1 0x20 DUP3 ADD MSTORE POP JUMP JUMPDEST PUSH1 0x0 PUSH2 0x37DA PUSH1 0x23 DUP4 PUSH2 0x31C8 JUMP JUMPDEST SWAP2 POP PUSH2 0x37E5 DUP3 PUSH2 0x377E JUMP JUMPDEST PUSH1 0x40 DUP3 ADD SWAP1 POP SWAP2 SWAP1 POP JUMP JUMPDEST PUSH1 0x0 PUSH1 0x20 DUP3 ADD SWAP1 POP DUP2 DUP2 SUB PUSH1 0x0 DUP4 ADD MSTORE PUSH2 0x3809 DUP2 PUSH2 0x37CD JUMP JUMPDEST SWAP1 POP SWAP2 SWAP1 POP JUMP JUMPDEST PUSH32 0x4E6F7420416C6C6F776564000000000000000000000000000000000000000000 PUSH1 0x0 DUP3 ADD MSTORE POP JUMP JUMPDEST PUSH1 0x0 PUSH2 0x3846 PUSH1 0xB DUP4 PUSH2 0x31C8 JUMP JUMPDEST SWAP2 POP PUSH2 0x3851 DUP3 PUSH2 0x3810 JUMP JUMPDEST PUSH1 0x20 DUP3 ADD SWAP1 POP SWAP2 SWAP1 POP JUMP JUMPDEST PUSH1 0x0 PUSH1 0x20 DUP3 ADD SWAP1 POP DUP2 DUP2 SUB PUSH1 0x0 DUP4 ADD MSTORE PUSH2 0x3875 DUP2 PUSH2 0x3839 JUMP JUMPDEST SWAP1 POP SWAP2 SWAP1 POP JUMP JUMPDEST PUSH1 0x0 DUP2 SWAP1 POP DUP2 PUSH1 0x0 MSTORE PUSH1 0x20 PUSH1 0x0 KECCAK256 SWAP1 POP SWAP2 SWAP1 POP JUMP JUMPDEST PUSH1 0x0 PUSH1 0x20 PUSH1 0x1F DUP4 ADD DIV SWAP1 POP SWAP2 SWAP1 POP JUMP JUMPDEST PUSH1 0x0 DUP3 DUP3 SHL SWAP1 POP SWAP3 SWAP2 POP POP JUMP JUMPDEST PUSH1 0x0 PUSH1 0x8 DUP4 MUL PUSH2 0x38DE PUSH32 0xFFFFFFFFFFFFFFFFFFFFFFFFFFFFFFFFFFFFFFFFFFFFFFFFFFFFFFFFFFFFFFFF DUP3 PUSH2 0x38A1 JUMP JUMPDEST PUSH2 0x38E8 DUP7 DUP4 PUSH2 0x38A1 JUMP JUMPDEST SWAP6 POP DUP1 NOT DUP5 AND SWAP4 POP DUP1 DUP7 AND DUP5 OR SWAP3 POP POP POP SWAP4 SWAP3 POP POP POP JUMP JUMPDEST PUSH1 0x0 DUP2 SWAP1 POP SWAP2 SWAP1 POP JUMP JUMPDEST PUSH1 0x0 DUP2 SWAP1 POP SWAP2 SWAP1 POP JUMP JUMPDEST PUSH1 0x0 PUSH2 0x392F PUSH2 0x392A PUSH2 0x3925 DUP5 PUSH2 0x3900 JUMP JUMPDEST PUSH2 0x390A JUMP JUMPDEST PUSH2 0x3900 JUMP JUMPDEST SWAP1 POP SWAP2 SWAP1 POP JUMP JUMPDEST PUSH1 0x0 DUP2 SWAP1 POP SWAP2 SWAP1 POP JUMP JUMPDEST PUSH2 0x3949 DUP4 PUSH2 0x3914 JUMP JUMPDEST PUSH2 0x395D PUSH2 0x3955 DUP3 PUSH2 0x3936 JUMP JUMPDEST DUP5 DUP5 SLOAD PUSH2 0x38AE JUMP JUMPDEST DUP3 SSTORE POP POP POP POP JUMP JUMPDEST PUSH1 0x0 SWAP1 JUMP JUMPDEST PUSH2 0x3972 PUSH2 0x3965 JUMP JUMPDEST PUSH2 0x397D DUP2 DUP5 DUP5 PUSH2 0x3940 JUMP JUMPDEST POP POP POP JUMP JUMPDEST JUMPDEST DUP2 DUP2 LT ISZERO PUSH2 0x39A1 JUMPI PUSH2 0x3996 PUSH1 0x0 DUP3 PUSH2 0x396A JUMP JUMPDEST PUSH1 0x1 DUP2 ADD SWAP1 POP PUSH2 0x3983 JUMP JUMPDEST POP POP JUMP JUMPDEST PUSH1 0x1F DUP3 GT ISZERO PUSH2 0x39E6 JUMPI PUSH2 0x39B7 DUP2 PUSH2 0x387C JUMP JUMPDEST PUSH2 0x39C0 DUP5 PUSH2 0x3891 JUMP JUMPDEST DUP2 ADD PUSH1 0x20 DUP6 LT ISZERO PUSH2 0x39CF JUMPI DUP2 SWAP1 POP JUMPDEST PUSH2 0x39E3 PUSH2 0x39DB DUP6 PUSH2 0x3891 JUMP JUMPDEST DUP4 ADD DUP3 PUSH2 0x3982 JUMP JUMPDEST POP POP JUMPDEST POP POP POP JUMP JUMPDEST PUSH1 0x0 DUP3 DUP3 SHR SWAP1 POP SWAP3 SWAP2 POP POP JUMP JUMPDEST PUSH1 0x0 PUSH2 0x3A09 PUSH1 0x0 NOT DUP5 PUSH1 0x8 MUL PUSH2 0x39EB JUMP JUMPDEST NOT DUP1 DUP4 AND SWAP2 POP POP SWAP3 SWAP2 POP POP JUMP JUMPDEST PUSH1 0x0 PUSH2 0x3A22 DUP4 DUP4 PUSH2 0x39F8 JUMP JUMPDEST SWAP2 POP DUP3 PUSH1 0x2 MUL DUP3 OR SWAP1 POP SWAP3 SWAP2 POP POP JUMP JUMPDEST PUSH2 0x3A3B DUP3 PUSH2 0x31BD JUMP JUMPDEST PUSH8 0xFFFFFFFFFFFFFFFF DUP2 GT ISZERO PUSH2 0x3A54 JUMPI PUSH2 0x3A53 PUSH2 0x33B9 JUMP JUMPDEST JUMPDEST PUSH2 0x3A5E DUP3 SLOAD PUSH2 0x36BB JUMP JUMPDEST PUSH2 0x3A69 DUP3 DUP3 DUP6 PUSH2 0x39A5 JUMP JUMPDEST PUSH1 0x0 PUSH1 0x20 SWAP1 POP PUSH1 0x1F DUP4 GT PUSH1 0x1 DUP2 EQ PUSH2 0x3A9C JUMPI PUSH1 0x0 DUP5 ISZERO PUSH2 0x3A8A JUMPI DUP3 DUP8 ADD MLOAD SWAP1 POP JUMPDEST PUSH2 0x3A94 DUP6 DUP3 PUSH2 0x3A16 JUMP JUMPDEST DUP7 SSTORE POP PUSH2 0x3AFC JUMP JUMPDEST PUSH1 0x1F NOT DUP5 AND PUSH2 0x3AAA DUP7 PUSH2 0x387C JUMP JUMPDEST PUSH1 0x0 JUMPDEST DUP3 DUP2 LT ISZERO PUSH2 0x3AD2 JUMPI DUP5 DUP10 ADD MLOAD DUP3 SSTORE PUSH1 0x1 DUP3 ADD SWAP2 POP PUSH1 0x20 DUP6 ADD SWAP5 POP PUSH1 0x20 DUP2 ADD SWAP1 POP PUSH2 0x3AAD JUMP JUMPDEST DUP7 DUP4 LT ISZERO PUSH2 0x3AEF JUMPI DUP5 DUP10 ADD MLOAD PUSH2 0x3AEB PUSH1 0x1F DUP10 AND DUP3 PUSH2 0x39F8 JUMP JUMPDEST DUP4 SSTORE POP JUMPDEST PUSH1 0x1 PUSH1 0x2 DUP9 MUL ADD DUP9 SSTORE POP POP POP JUMPDEST POP POP POP POP POP POP JUMP JUMPDEST PUSH32 0x436F6E74726163743A20446F63746F72206E6F74207265676973746572656400 PUSH1 0x0 DUP3 ADD MSTORE POP JUMP JUMPDEST PUSH1 0x0 PUSH2 0x3B3A PUSH1 0x1F DUP4 PUSH2 0x31C8 JUMP JUMPDEST SWAP2 POP PUSH2 0x3B45 DUP3 PUSH2 0x3B04 JUMP JUMPDEST PUSH1 0x20 DUP3 ADD SWAP1 POP SWAP2 SWAP1 POP JUMP JUMPDEST PUSH1 0x0 PUSH1 0x20 DUP3 ADD SWAP1 POP DUP2 DUP2 SUB PUSH1 0x0 DUP4 ADD MSTORE PUSH2 0x3B69 DUP2 PUSH2 0x3B2D JUMP JUMPDEST SWAP1 POP SWAP2 SWAP1 POP JUMP JUMPDEST PUSH32 0x436F6E74726163743A20456D7074792068617368206973206E6F7420616C6C6F PUSH1 0x0 DUP3 ADD MSTORE PUSH32 0x7765642100000000000000000000000000000000000000000000000000000000 PUSH1 0x20 DUP3 ADD MSTORE POP JUMP JUMPDEST PUSH1 0x0 PUSH2 0x3BCC PUSH1 0x24 DUP4 PUSH2 0x31C8 JUMP JUMPDEST SWAP2 POP PUSH2 0x3BD7 DUP3 PUSH2 0x3B70 JUMP JUMPDEST PUSH1 0x40 DUP3 ADD SWAP1 POP SWAP2 SWAP1 POP JUMP JUMPDEST PUSH1 0x0 PUSH1 0x20 DUP3 ADD SWAP1 POP DUP2 DUP2 SUB PUSH1 0x0 DUP4 ADD MSTORE PUSH2 0x3BFB DUP2 PUSH2 0x3BBF JUMP JUMPDEST SWAP1 POP SWAP2 SWAP1 POP JUMP JUMPDEST PUSH32 0x436F6E74726163743A204164647265737320616C726561647920726567697374 PUSH1 0x0 DUP3 ADD MSTORE PUSH32 0x6572656420617320646F63746F72000000000000000000000000000000000000 PUSH1 0x20 DUP3 ADD MSTORE POP JUMP JUMPDEST PUSH1 0x0 PUSH2 0x3C5E PUSH1 0x2E DUP4 PUSH2 0x31C8 JUMP JUMPDEST SWAP2 POP PUSH2 0x3C69 DUP3 PUSH2 0x3C02 JUMP JUMPDEST PUSH1 0x40 DUP3 ADD SWAP1 POP SWAP2 SWAP1 POP JUMP JUMPDEST PUSH1 0x0 PUSH1 0x20 DUP3 ADD SWAP1 POP DUP2 DUP2 SUB PUSH1 0x0 DUP4 ADD MSTORE PUSH2 0x3C8D DUP2 PUSH2 0x3C51 JUMP JUMPDEST SWAP1 POP SWAP2 SWAP1 POP JUMP JUMPDEST PUSH32 0x436F6E74726163743A20456D707479207075626C6963206B6579206973206E6F PUSH1 0x0 DUP3 ADD MSTORE PUSH32 0x7420616C6C6F7765642100000000000000000000000000000000000000000000 PUSH1 0x20 DUP3 ADD MSTORE POP JUMP JUMPDEST PUSH1 0x0 PUSH2 0x3CF0 PUSH1 0x2A DUP4 PUSH2 0x31C8 JUMP JUMPDEST SWAP2 POP PUSH2 0x3CFB DUP3 PUSH2 0x3C94 JUMP JUMPDEST PUSH1 0x40 DUP3 ADD SWAP1 POP SWAP2 SWAP1 POP JUMP JUMPDEST PUSH1 0x0 PUSH1 0x20 DUP3 ADD SWAP1 POP DUP2 DUP2 SUB PUSH1 0x0 DUP4 ADD MSTORE PUSH2 0x3D1F DUP2 PUSH2 0x3CE3 JUMP JUMPDEST SWAP1 POP SWAP2 SWAP1 POP JUMP JUMPDEST PUSH32 0x526F6C65733A206163636F756E7420697320746865207A65726F206164647265 PUSH1 0x0 DUP3 ADD MSTORE PUSH32 0x7373000000000000000000000000000000000000000000000000000000000000 PUSH1 0x20 DUP3 ADD MSTORE POP JUMP JUMPDEST PUSH1 0x0 PUSH2 0x3D82 PUSH1 0x22 DUP4 PUSH2 0x31C8 JUMP JUMPDEST SWAP2 POP PUSH2 0x3D8D DUP3 PUSH2 0x3D26 JUMP JUMPDEST PUSH1 0x40 DUP3 ADD SWAP1 POP SWAP2 SWAP1 POP JUMP JUMPDEST PUSH1 0x0 PUSH1 0x20 DUP3 ADD SWAP1 POP DUP2 DUP2 SUB PUSH1 0x0 DUP4 ADD MSTORE PUSH2 0x3DB1 DUP2 PUSH2 0x3D75 JUMP JUMPDEST SWAP1 POP SWAP2 SWAP1 POP JUMP JUMPDEST PUSH32 0x4E487B7100000000000000000000000000000000000000000000000000000000 PUSH1 0x0 MSTORE PUSH1 0x11 PUSH1 0x4 MSTORE PUSH1 0x24 PUSH1 0x0 REVERT JUMPDEST PUSH1 0x0 PUSH2 0x3DF2 DUP3 PUSH2 0x3900 JUMP JUMPDEST SWAP2 POP PUSH2 0x3DFD DUP4 PUSH2 0x3900 JUMP JUMPDEST SWAP3 POP DUP3 DUP3 SUB SWAP1 POP DUP2 DUP2 GT ISZERO PUSH2 0x3E15 JUMPI PUSH2 0x3E14 PUSH2 0x3DB8 JUMP JUMPDEST JUMPDEST SWAP3 SWAP2 POP POP JUMP JUMPDEST PUSH32 0x4E487B7100000000000000000000000000000000000000000000000000000000 PUSH1 0x0 MSTORE PUSH1 0x32 PUSH1 0x4 MSTORE PUSH1 0x24 PUSH1 0x0 REVERT JUMPDEST PUSH32 0x4E487B7100000000000000000000000000000000000000000000000000000000 PUSH1 0x0 MSTORE PUSH1 0x31 PUSH1 0x4 MSTORE PUSH1 0x24 PUSH1 0x0 REVERT JUMPDEST PUSH32 0x526F6C65733A206163636F756E7420616C72656164792068617320726F6C6500 PUSH1 0x0 DUP3 ADD MSTORE POP JUMP JUMPDEST PUSH1 0x0 PUSH2 0x3EAF PUSH1 0x1F DUP4 PUSH2 0x31C8 JUMP JUMPDEST SWAP2 POP PUSH2 0x3EBA DUP3 PUSH2 0x3E79 JUMP JUMPDEST PUSH1 0x20 DUP3 ADD SWAP1 POP SWAP2 SWAP1 POP JUMP JUMPDEST PUSH1 0x0 PUSH1 0x20 DUP3 ADD SWAP1 POP DUP2 DUP2 SUB PUSH1 0x0 DUP4 ADD MSTORE PUSH2 0x3EDE DUP2 PUSH2 0x3EA2 JUMP JUMPDEST SWAP1 POP SWAP2 SWAP1 POP JUMP JUMPDEST PUSH1 0x0 PUSH2 0x3EF0 DUP3 PUSH2 0x3900 JUMP JUMPDEST SWAP2 POP PUSH32 0xFFFFFFFFFFFFFFFFFFFFFFFFFFFFFFFFFFFFFFFFFFFFFFFFFFFFFFFFFFFFFFFF DUP3 SUB PUSH2 0x3F22 JUMPI PUSH2 0x3F21 PUSH2 0x3DB8 JUMP JUMPDEST JUMPDEST PUSH1 0x1 DUP3 ADD SWAP1 POP SWAP2 SWAP1 POP JUMP JUMPDEST PUSH32 0x526F6C65733A206163636F756E7420646F6573206E6F74206861766520726F6C PUSH1 0x0 DUP3 ADD MSTORE PUSH32 0x6500000000000000000000000000000000000000000000000000000000000000 PUSH1 0x20 DUP3 ADD MSTORE POP JUMP JUMPDEST PUSH1 0x0 PUSH2 0x3F89 PUSH1 0x21 DUP4 PUSH2 0x31C8 JUMP JUMPDEST SWAP2 POP PUSH2 0x3F94 DUP3 PUSH2 0x3F2D JUMP JUMPDEST PUSH1 0x40 DUP3 ADD SWAP1 POP SWAP2 SWAP1 POP JUMP JUMPDEST PUSH1 0x0 PUSH1 0x20 DUP3 ADD SWAP1 POP DUP2 DUP2 SUB PUSH1 0x0 DUP4 ADD MSTORE PUSH2 0x3FB8 DUP2 PUSH2 0x3F7C JUMP JUMPDEST SWAP1 POP SWAP2 SWAP1 POP JUMP INVALID LOG2 PUSH5 0x6970667358 0x22 SLT KECCAK256 LT CREATE BALANCE BLOCKHASH SUB 0xE7 SWAP7 PUSH1 0x2D SIGNEXTEND 0x2D SWAP14 SWAP2 0xC3 ORIGIN PUSH27 0xD01A115A519D00A05CA8EB53932645FB64736F6C63430008120033 "
  },
  "abi": [
    {
      "inputs": [],
      "stateMutability": "nonpayable",
      "type": "constructor"
    },
    {
      "inputs": [],
      "name": "Contract__DoctorPublicKeyMissing",
      "type": "error"
    },
    {
      "inputs": [],
      "name": "Contract__NotAdmin",
      "type": "error"
    },
    {
      "inputs": [],
      "name": "Contract__NotDoctor",
      "type": "error"
    },
    {
      "inputs": [],
      "name": "Contract__NotPatient",
      "type": "error"
    },
    {
      "inputs": [],
      "name": "Contract__PendingDoctorApproval",
      "type": "error"
    },
    {
      "inputs": [
        {
          "internalType": "address",
          "name": "_address",
          "type": "address"
        }
      ],
      "name": "approveDr",
      "outputs": [],
      "stateMutability": "nonpayable",
      "type": "function"
    },
    {
      "inputs": [
        {
          "internalType": "address",
          "name": "_address",
          "type": "address"
        },
        {
          "internalType": "string",
          "name": "_general_hash",
          "type": "string"
        },
        {
          "internalType": "string",
          "name": "_key_hash",
          "type": "string"
        }
      ],
      "name": "changeEditorAccess",
      "outputs": [],
      "stateMutability": "nonpayable",
      "type": "function"
    },
    {
      "inputs": [
        {
          "internalType": "address",
          "name": "_address",
          "type": "address"
        }
      ],
      "name": "disapproveDr",
      "outputs": [],
      "stateMutability": "nonpayable",
      "type": "function"
    },
    {
      "inputs": [],
      "name": "getAdmin",
      "outputs": [
        {
          "internalType": "address",
          "name": "",
          "type": "address"
        }
      ],
      "stateMutability": "view",
      "type": "function"
    },
    {
      "inputs": [],
      "name": "getAdminPubKey",
      "outputs": [
        {
          "internalType": "string",
          "name": "",
          "type": "string"
        }
      ],
      "stateMutability": "view",
      "type": "function"
    },
    {
      "inputs": [],
      "name": "getAllDrs",
      "outputs": [
        {
          "internalType": "address[]",
          "name": "",
          "type": "address[]"
        }
      ],
      "stateMutability": "view",
      "type": "function"
    },
    {
      "inputs": [],
      "name": "getAllPts",
      "outputs": [
        {
          "internalType": "address[]",
          "name": "",
          "type": "address[]"
        }
      ],
      "stateMutability": "view",
      "type": "function"
    },
    {
      "inputs": [
        {
          "internalType": "address",
          "name": "_address",
          "type": "address"
        }
      ],
      "name": "getDrHash",
      "outputs": [
        {
          "internalType": "string",
          "name": "",
          "type": "string"
        }
      ],
      "stateMutability": "view",
      "type": "function"
    },
    {
      "inputs": [],
      "name": "getDrOfPt",
      "outputs": [
        {
          "internalType": "address",
          "name": "",
          "type": "address"
        }
      ],
      "stateMutability": "view",
      "type": "function"
    },
    {
      "inputs": [
        {
          "internalType": "address",
          "name": "_address",
          "type": "address"
        }
      ],
      "name": "getDrPubKey",
      "outputs": [
        {
          "internalType": "string",
          "name": "",
          "type": "string"
        }
      ],
      "stateMutability": "view",
      "type": "function"
    },
    {
      "inputs": [],
      "name": "getPatViewers",
      "outputs": [
        {
          "internalType": "address[]",
          "name": "",
          "type": "address[]"
        }
      ],
      "stateMutability": "view",
      "type": "function"
    },
    {
      "inputs": [],
      "name": "getPendingDrs",
      "outputs": [
        {
          "internalType": "address[]",
          "name": "",
          "type": "address[]"
        }
      ],
      "stateMutability": "view",
      "type": "function"
    },
    {
      "inputs": [
        {
          "internalType": "address",
          "name": "_address",
          "type": "address"
        }
      ],
      "name": "getPtGeneralHash",
      "outputs": [
        {
          "internalType": "string",
          "name": "",
          "type": "string"
        }
      ],
      "stateMutability": "view",
      "type": "function"
    },
    {
      "inputs": [
        {
          "internalType": "address",
          "name": "_address",
          "type": "address"
        }
      ],
      "name": "getPtRecordHash",
      "outputs": [
        {
          "internalType": "string",
          "name": "",
          "type": "string"
        }
      ],
      "stateMutability": "view",
      "type": "function"
    },
    {
      "inputs": [],
      "name": "getPtsOfDr",
      "outputs": [
        {
          "internalType": "address[]",
          "name": "",
          "type": "address[]"
        }
      ],
      "stateMutability": "view",
      "type": "function"
    },
    {
      "inputs": [
        {
          "internalType": "address",
          "name": "_address",
          "type": "address"
        }
      ],
      "name": "grantViewerAccess",
      "outputs": [],
      "stateMutability": "nonpayable",
      "type": "function"
    },
    {
      "inputs": [
        {
          "internalType": "address",
          "name": "_address",
          "type": "address"
        }
      ],
      "name": "isAdmin",
      "outputs": [
        {
          "internalType": "bool",
          "name": "",
          "type": "bool"
        }
      ],
      "stateMutability": "view",
      "type": "function"
    },
    {
      "inputs": [
        {
          "internalType": "address",
          "name": "_address",
          "type": "address"
        }
      ],
      "name": "isDoctor",
      "outputs": [
        {
          "internalType": "bool",
          "name": "",
          "type": "bool"
        }
      ],
      "stateMutability": "view",
      "type": "function"
    },
    {
      "inputs": [
        {
          "internalType": "address",
          "name": "_address",
          "type": "address"
        }
      ],
      "name": "isDrPending",
      "outputs": [
        {
          "internalType": "bool",
          "name": "",
          "type": "bool"
        }
      ],
      "stateMutability": "view",
      "type": "function"
    },
    {
      "inputs": [
        {
          "internalType": "address",
          "name": "_address",
          "type": "address"
        }
      ],
      "name": "isDrRegistered",
      "outputs": [
        {
          "internalType": "bool",
          "name": "",
          "type": "bool"
        }
      ],
      "stateMutability": "view",
      "type": "function"
    },
    {
      "inputs": [
        {
          "internalType": "address",
          "name": "_address",
          "type": "address"
        }
      ],
      "name": "isPatient",
      "outputs": [
        {
          "internalType": "bool",
          "name": "",
          "type": "bool"
        }
      ],
      "stateMutability": "view",
      "type": "function"
    },
    {
      "inputs": [
        {
          "internalType": "string",
          "name": "_hash",
          "type": "string"
        }
      ],
      "name": "registerDr",
      "outputs": [],
      "stateMutability": "nonpayable",
      "type": "function"
    },
    {
      "inputs": [
        {
          "internalType": "string",
          "name": "_public_key",
          "type": "string"
        }
      ],
      "name": "registerDrConfirm",
      "outputs": [],
      "stateMutability": "nonpayable",
      "type": "function"
    },
    {
      "inputs": [
        {
          "internalType": "string",
          "name": "_hash",
          "type": "string"
        },
        {
          "internalType": "string",
          "name": "_key_data_hash",
          "type": "string"
        }
      ],
      "name": "registerPt",
      "outputs": [],
      "stateMutability": "nonpayable",
      "type": "function"
    },
    {
      "inputs": [
        {
          "internalType": "string",
          "name": "_general_hash",
          "type": "string"
        },
        {
          "internalType": "string",
          "name": "_key_hash",
          "type": "string"
        }
      ],
      "name": "removeEditorAccess",
      "outputs": [],
      "stateMutability": "nonpayable",
      "type": "function"
    },
    {
      "inputs": [
        {
          "internalType": "address",
          "name": "_address",
          "type": "address"
        }
      ],
      "name": "revokeViewerAccess",
      "outputs": [],
      "stateMutability": "nonpayable",
      "type": "function"
    },
    {
      "inputs": [
        {
          "internalType": "string",
          "name": "_public_key",
          "type": "string"
        }
      ],
      "name": "setAdminPubKey",
      "outputs": [],
      "stateMutability": "nonpayable",
      "type": "function"
    },
    {
      "inputs": [
        {
          "internalType": "string",
          "name": "_hash",
          "type": "string"
        }
      ],
      "name": "setDrHash",
      "outputs": [],
      "stateMutability": "nonpayable",
      "type": "function"
    },
    {
      "inputs": [
        {
          "internalType": "string",
          "name": "_hash",
          "type": "string"
        }
      ],
      "name": "setPtGeneralHash",
      "outputs": [],
      "stateMutability": "nonpayable",
      "type": "function"
    },
    {
      "inputs": [
        {
          "internalType": "address",
          "name": "_address",
          "type": "address"
        },
        {
          "internalType": "string",
          "name": "_hash",
          "type": "string"
        }
      ],
      "name": "setPtRecordHash",
      "outputs": [],
      "stateMutability": "nonpayable",
      "type": "function"
    }
  ],
  "storageLayout": {
    "storage": [
      {
        "astId": 575,
        "contract": "Contract.sol:Contract",
        "label": "admin",
        "offset": 0,
        "slot": "0",
        "type": "t_struct(Admin)550_storage"
      },
      {
        "astId": 578,
        "contract": "Contract.sol:Contract",
        "label": "doctors",
        "offset": 0,
        "slot": "5",
        "type": "t_struct(Doctors)572_storage"
      },
      {
        "astId": 581,
        "contract": "Contract.sol:Contract",
        "label": "patients",
        "offset": 0,
        "slot": "11",
        "type": "t_struct(Patients)559_storage"
      }
    ],
    "types": {
      "t_address": {
        "encoding": "inplace",
        "label": "address",
        "numberOfBytes": "20"
      },
      "t_array(t_address)dyn_storage": {
        "base": "t_address",
        "encoding": "dynamic_array",
        "label": "address[]",
        "numberOfBytes": "32"
      },
      "t_bool": {
        "encoding": "inplace",
        "label": "bool",
        "numberOfBytes": "1"
      },
      "t_mapping(t_address,t_bool)": {
        "encoding": "mapping",
        "key": "t_address",
        "label": "mapping(address => bool)",
        "numberOfBytes": "32",
        "value": "t_bool"
      },
      "t_mapping(t_address,t_string_storage)": {
        "encoding": "mapping",
        "key": "t_address",
        "label": "mapping(address => string)",
        "numberOfBytes": "32",
        "value": "t_string_storage"
      },
      "t_mapping(t_address,t_struct(Map)13_storage)": {
        "encoding": "mapping",
        "key": "t_address",
        "label": "mapping(address => struct AddToBoolMapping.Map)",
        "numberOfBytes": "32",
        "value": "t_struct(Map)13_storage"
      },
      "t_mapping(t_address,t_struct(MedicalRecord)542_storage)": {
        "encoding": "mapping",
        "key": "t_address",
        "label": "mapping(address => struct Contract.MedicalRecord)",
        "numberOfBytes": "32",
        "value": "t_struct(MedicalRecord)542_storage"
      },
      "t_mapping(t_address,t_uint256)": {
        "encoding": "mapping",
        "key": "t_address",
        "label": "mapping(address => uint256)",
        "numberOfBytes": "32",
        "value": "t_uint256"
      },
      "t_string_storage": {
        "encoding": "bytes",
        "label": "string",
        "numberOfBytes": "32"
      },
      "t_struct(Admin)550_storage": {
        "encoding": "inplace",
        "label": "struct Contract.Admin",
        "members": [
          {
            "astId": 544,
            "contract": "Contract.sol:Contract",
            "label": "user",
            "offset": 0,
            "slot": "0",
            "type": "t_address"
          },
          {
            "astId": 546,
            "contract": "Contract.sol:Contract",
            "label": "public_key",
            "offset": 0,
            "slot": "1",
            "type": "t_string_storage"
          },
          {
            "astId": 549,
            "contract": "Contract.sol:Contract",
            "label": "pending_doctors",
            "offset": 0,
            "slot": "2",
            "type": "t_struct(Map)13_storage"
          }
        ],
        "numberOfBytes": "160"
      },
      "t_struct(Doctors)572_storage": {
        "encoding": "inplace",
        "label": "struct Contract.Doctors",
        "members": [
          {
            "astId": 562,
            "contract": "Contract.sol:Contract",
            "label": "users",
            "offset": 0,
            "slot": "0",
            "type": "t_struct(Role)1504_storage"
          },
          {
            "astId": 566,
            "contract": "Contract.sol:Contract",
            "label": "public_keys",
            "offset": 0,
            "slot": "4",
            "type": "t_mapping(t_address,t_string_storage)"
          },
          {
            "astId": 571,
            "contract": "Contract.sol:Contract",
            "label": "docToPatAccess",
            "offset": 0,
            "slot": "5",
            "type": "t_mapping(t_address,t_struct(Map)13_storage)"
          }
        ],
        "numberOfBytes": "192"
      },
      "t_struct(Map)13_storage": {
        "encoding": "inplace",
        "label": "struct AddToBoolMapping.Map",
        "members": [
          {
            "astId": 4,
            "contract": "Contract.sol:Contract",
            "label": "keys",
            "offset": 0,
            "slot": "0",
            "type": "t_array(t_address)dyn_storage"
          },
          {
            "astId": 8,
            "contract": "Contract.sol:Contract",
            "label": "values",
            "offset": 0,
            "slot": "1",
            "type": "t_mapping(t_address,t_bool)"
          },
          {
            "astId": 12,
            "contract": "Contract.sol:Contract",
            "label": "indexOf",
            "offset": 0,
            "slot": "2",
            "type": "t_mapping(t_address,t_uint256)"
          }
        ],
        "numberOfBytes": "96"
      },
      "t_struct(Map)204_storage": {
        "encoding": "inplace",
        "label": "struct AddToStrMapping.Map",
        "members": [
          {
            "astId": 191,
            "contract": "Contract.sol:Contract",
            "label": "keys",
            "offset": 0,
            "slot": "0",
            "type": "t_array(t_address)dyn_storage"
          },
          {
            "astId": 195,
            "contract": "Contract.sol:Contract",
            "label": "values",
            "offset": 0,
            "slot": "1",
            "type": "t_mapping(t_address,t_string_storage)"
          },
          {
            "astId": 199,
            "contract": "Contract.sol:Contract",
            "label": "indexOf",
            "offset": 0,
            "slot": "2",
            "type": "t_mapping(t_address,t_uint256)"
          },
          {
            "astId": 203,
            "contract": "Contract.sol:Contract",
            "label": "inserted",
            "offset": 0,
            "slot": "3",
            "type": "t_mapping(t_address,t_bool)"
          }
        ],
        "numberOfBytes": "128"
      },
      "t_struct(MedicalRecord)542_storage": {
        "encoding": "inplace",
        "label": "struct Contract.MedicalRecord",
        "members": [
          {
            "astId": 536,
            "contract": "Contract.sol:Contract",
            "label": "editor",
            "offset": 0,
            "slot": "0",
            "type": "t_address"
          },
          {
            "astId": 539,
            "contract": "Contract.sol:Contract",
            "label": "viewers",
            "offset": 0,
            "slot": "1",
            "type": "t_array(t_address)dyn_storage"
          },
          {
            "astId": 541,
            "contract": "Contract.sol:Contract",
            "label": "key_data_hash",
            "offset": 0,
            "slot": "2",
            "type": "t_string_storage"
          }
        ],
        "numberOfBytes": "96"
      },
      "t_struct(Patients)559_storage": {
        "encoding": "inplace",
        "label": "struct Contract.Patients",
        "members": [
          {
            "astId": 553,
            "contract": "Contract.sol:Contract",
            "label": "users",
            "offset": 0,
            "slot": "0",
            "type": "t_struct(Role)1504_storage"
          },
          {
            "astId": 558,
            "contract": "Contract.sol:Contract",
            "label": "records",
            "offset": 0,
            "slot": "4",
            "type": "t_mapping(t_address,t_struct(MedicalRecord)542_storage)"
          }
        ],
        "numberOfBytes": "160"
      },
      "t_struct(Role)1504_storage": {
        "encoding": "inplace",
        "label": "struct Roles.Role",
        "members": [
          {
            "astId": 1503,
            "contract": "Contract.sol:Contract",
            "label": "bearer",
            "offset": 0,
            "slot": "0",
            "type": "t_struct(Map)204_storage"
          }
        ],
        "numberOfBytes": "128"
      },
      "t_uint256": {
        "encoding": "inplace",
        "label": "uint256",
        "numberOfBytes": "32"
      }
    }
  },
  "web3Deploy": "var contractContract = new web3.eth.Contract([{\"inputs\":[],\"stateMutability\":\"nonpayable\",\"type\":\"constructor\"},{\"inputs\":[],\"name\":\"Contract__DoctorPublicKeyMissing\",\"type\":\"error\"},{\"inputs\":[],\"name\":\"Contract__NotAdmin\",\"type\":\"error\"},{\"inputs\":[],\"name\":\"Contract__NotDoctor\",\"type\":\"error\"},{\"inputs\":[],\"name\":\"Contract__NotPatient\",\"type\":\"error\"},{\"inputs\":[],\"name\":\"Contract__PendingDoctorApproval\",\"type\":\"error\"},{\"inputs\":[{\"internalType\":\"address\",\"name\":\"_address\",\"type\":\"address\"}],\"name\":\"approveDr\",\"outputs\":[],\"stateMutability\":\"nonpayable\",\"type\":\"function\"},{\"inputs\":[{\"internalType\":\"address\",\"name\":\"_address\",\"type\":\"address\"},{\"internalType\":\"string\",\"name\":\"_general_hash\",\"type\":\"string\"},{\"internalType\":\"string\",\"name\":\"_key_hash\",\"type\":\"string\"}],\"name\":\"changeEditorAccess\",\"outputs\":[],\"stateMutability\":\"nonpayable\",\"type\":\"function\"},{\"inputs\":[{\"internalType\":\"address\",\"name\":\"_address\",\"type\":\"address\"}],\"name\":\"disapproveDr\",\"outputs\":[],\"stateMutability\":\"nonpayable\",\"type\":\"function\"},{\"inputs\":[],\"name\":\"getAdmin\",\"outputs\":[{\"internalType\":\"address\",\"name\":\"\",\"type\":\"address\"}],\"stateMutability\":\"view\",\"type\":\"function\"},{\"inputs\":[],\"name\":\"getAdminPubKey\",\"outputs\":[{\"internalType\":\"string\",\"name\":\"\",\"type\":\"string\"}],\"stateMutability\":\"view\",\"type\":\"function\"},{\"inputs\":[],\"name\":\"getAllDrs\",\"outputs\":[{\"internalType\":\"address[]\",\"name\":\"\",\"type\":\"address[]\"}],\"stateMutability\":\"view\",\"type\":\"function\"},{\"inputs\":[],\"name\":\"getAllPts\",\"outputs\":[{\"internalType\":\"address[]\",\"name\":\"\",\"type\":\"address[]\"}],\"stateMutability\":\"view\",\"type\":\"function\"},{\"inputs\":[{\"internalType\":\"address\",\"name\":\"_address\",\"type\":\"address\"}],\"name\":\"getDrHash\",\"outputs\":[{\"internalType\":\"string\",\"name\":\"\",\"type\":\"string\"}],\"stateMutability\":\"view\",\"type\":\"function\"},{\"inputs\":[],\"name\":\"getDrOfPt\",\"outputs\":[{\"internalType\":\"address\",\"name\":\"\",\"type\":\"address\"}],\"stateMutability\":\"view\",\"type\":\"function\"},{\"inputs\":[{\"internalType\":\"address\",\"name\":\"_address\",\"type\":\"address\"}],\"name\":\"getDrPubKey\",\"outputs\":[{\"internalType\":\"string\",\"name\":\"\",\"type\":\"string\"}],\"stateMutability\":\"view\",\"type\":\"function\"},{\"inputs\":[],\"name\":\"getPatViewers\",\"outputs\":[{\"internalType\":\"address[]\",\"name\":\"\",\"type\":\"address[]\"}],\"stateMutability\":\"view\",\"type\":\"function\"},{\"inputs\":[],\"name\":\"getPendingDrs\",\"outputs\":[{\"internalType\":\"address[]\",\"name\":\"\",\"type\":\"address[]\"}],\"stateMutability\":\"view\",\"type\":\"function\"},{\"inputs\":[{\"internalType\":\"address\",\"name\":\"_address\",\"type\":\"address\"}],\"name\":\"getPtGeneralHash\",\"outputs\":[{\"internalType\":\"string\",\"name\":\"\",\"type\":\"string\"}],\"stateMutability\":\"view\",\"type\":\"function\"},{\"inputs\":[{\"internalType\":\"address\",\"name\":\"_address\",\"type\":\"address\"}],\"name\":\"getPtRecordHash\",\"outputs\":[{\"internalType\":\"string\",\"name\":\"\",\"type\":\"string\"}],\"stateMutability\":\"view\",\"type\":\"function\"},{\"inputs\":[],\"name\":\"getPtsOfDr\",\"outputs\":[{\"internalType\":\"address[]\",\"name\":\"\",\"type\":\"address[]\"}],\"stateMutability\":\"view\",\"type\":\"function\"},{\"inputs\":[{\"internalType\":\"address\",\"name\":\"_address\",\"type\":\"address\"}],\"name\":\"grantViewerAccess\",\"outputs\":[],\"stateMutability\":\"nonpayable\",\"type\":\"function\"},{\"inputs\":[{\"internalType\":\"address\",\"name\":\"_address\",\"type\":\"address\"}],\"name\":\"isAdmin\",\"outputs\":[{\"internalType\":\"bool\",\"name\":\"\",\"type\":\"bool\"}],\"stateMutability\":\"view\",\"type\":\"function\"},{\"inputs\":[{\"internalType\":\"address\",\"name\":\"_address\",\"type\":\"address\"}],\"name\":\"isDoctor\",\"outputs\":[{\"internalType\":\"bool\",\"name\":\"\",\"type\":\"bool\"}],\"stateMutability\":\"view\",\"type\":\"function\"},{\"inputs\":[{\"internalType\":\"address\",\"name\":\"_address\",\"type\":\"address\"}],\"name\":\"isDrPending\",\"outputs\":[{\"internalType\":\"bool\",\"name\":\"\",\"type\":\"bool\"}],\"stateMutability\":\"view\",\"type\":\"function\"},{\"inputs\":[{\"internalType\":\"address\",\"name\":\"_address\",\"type\":\"address\"}],\"name\":\"isDrRegistered\",\"outputs\":[{\"internalType\":\"bool\",\"name\":\"\",\"type\":\"bool\"}],\"stateMutability\":\"view\",\"type\":\"function\"},{\"inputs\":[{\"internalType\":\"address\",\"name\":\"_address\",\"type\":\"address\"}],\"name\":\"isPatient\",\"outputs\":[{\"internalType\":\"bool\",\"name\":\"\",\"type\":\"bool\"}],\"stateMutability\":\"view\",\"type\":\"function\"},{\"inputs\":[{\"internalType\":\"string\",\"name\":\"_hash\",\"type\":\"string\"}],\"name\":\"registerDr\",\"outputs\":[],\"stateMutability\":\"nonpayable\",\"type\":\"function\"},{\"inputs\":[{\"internalType\":\"string\",\"name\":\"_public_key\",\"type\":\"string\"}],\"name\":\"registerDrConfirm\",\"outputs\":[],\"stateMutability\":\"nonpayable\",\"type\":\"function\"},{\"inputs\":[{\"internalType\":\"string\",\"name\":\"_hash\",\"type\":\"string\"},{\"internalType\":\"string\",\"name\":\"_key_data_hash\",\"type\":\"string\"}],\"name\":\"registerPt\",\"outputs\":[],\"stateMutability\":\"nonpayable\",\"type\":\"function\"},{\"inputs\":[{\"internalType\":\"string\",\"name\":\"_general_hash\",\"type\":\"string\"},{\"internalType\":\"string\",\"name\":\"_key_hash\",\"type\":\"string\"}],\"name\":\"removeEditorAccess\",\"outputs\":[],\"stateMutability\":\"nonpayable\",\"type\":\"function\"},{\"inputs\":[{\"internalType\":\"address\",\"name\":\"_address\",\"type\":\"address\"}],\"name\":\"revokeViewerAccess\",\"outputs\":[],\"stateMutability\":\"nonpayable\",\"type\":\"function\"},{\"inputs\":[{\"internalType\":\"string\",\"name\":\"_public_key\",\"type\":\"string\"}],\"name\":\"setAdminPubKey\",\"outputs\":[],\"stateMutability\":\"nonpayable\",\"type\":\"function\"},{\"inputs\":[{\"internalType\":\"string\",\"name\":\"_hash\",\"type\":\"string\"}],\"name\":\"setDrHash\",\"outputs\":[],\"stateMutability\":\"nonpayable\",\"type\":\"function\"},{\"inputs\":[{\"internalType\":\"string\",\"name\":\"_hash\",\"type\":\"string\"}],\"name\":\"setPtGeneralHash\",\"outputs\":[],\"stateMutability\":\"nonpayable\",\"type\":\"function\"},{\"inputs\":[{\"internalType\":\"address\",\"name\":\"_address\",\"type\":\"address\"},{\"internalType\":\"string\",\"name\":\"_hash\",\"type\":\"string\"}],\"name\":\"setPtRecordHash\",\"outputs\":[],\"stateMutability\":\"nonpayable\",\"type\":\"function\"}]);\nvar contract = contractContract.deploy({\n     data: '0x608060405234801561001057600080fd5b50336000800160006101000a81548173ffffffffffffffffffffffffffffffffffffffff021916908373ffffffffffffffffffffffffffffffffffffffff160217905550613ff5806100636000396000f3fe608060405234801561001057600080fd5b50600436106101da5760003560e01c80638f9c79ed11610104578063c70597ad116100a2578063d3cd4df411610071578063d3cd4df414610565578063dc823aaf14610581578063e2877b4e146105b1578063f7a03a1e146105cf576101da565b8063c70597ad146104df578063cce9d43e146104fb578063ccfaed161461052b578063d0d9a5e314610547576101da565b8063a03de49e116100de578063a03de49e1461046d578063a53f514d14610489578063afb97e3d146104a7578063b1e758a4146104c3576101da565b80638f9c79ed146103f1578063996440c61461042157806399eedd2a14610451576101da565b80633d8198b41161017c5780636e9960c31161014b5780636e9960c31461037d578063745ada641461039b57806388c432e1146103b75780638f7f43a9146103d3576101da565b80633d8198b4146102d15780634df0a2d4146103015780635b0a7aad146103315780636d4bce201461034d576101da565b806321639f04116101b857806321639f041461023757806324d7806c14610255578063290c61b01461028557806332991838146102b5576101da565b80630de99991146101df578063116461e9146101fb5780631da3e2dc14610219575b600080fd5b6101f960048036038101906101f49190613190565b6105eb565b005b61020361066e565b604051610210919061324d565b60405180910390f35b610221610703565b60405161022e919061332d565b60405180910390f35b61023f610717565b60405161024c919061335e565b60405180910390f35b61026f600480360381019061026a9190613190565b6107c3565b60405161027c9190613394565b60405180910390f35b61029f600480360381019061029a9190613190565b61082f565b6040516102ac9190613394565b60405180910390f35b6102cf60048036038101906102ca91906134e4565b61084f565b005b6102eb60048036038101906102e69190613190565b61090f565b6040516102f8919061324d565b60405180910390f35b61031b60048036038101906103169190613190565b610c3a565b604051610328919061324d565b60405180910390f35b61034b6004803603810190610346919061352d565b610eae565b005b61036760048036038101906103629190613190565b61109f565b6040516103749190613394565b60405180910390f35b6103856110bf565b604051610392919061335e565b60405180910390f35b6103b560048036038101906103b09190613190565b6110eb565b005b6103d160048036038101906103cc91906134e4565b6111a3565b005b6103db6111fe565b6040516103e8919061332d565b60405180910390f35b61040b60048036038101906104069190613190565b61130e565b6040516104189190613394565b60405180910390f35b61043b60048036038101906104369190613190565b61132e565b6040516104489190613394565b60405180910390f35b61046b600480360381019061046691906134e4565b6113e2565b005b6104876004803603810190610482919061352d565b611565565b005b6104916116f6565b60405161049e919061332d565b60405180910390f35b6104c160048036038101906104bc91906134e4565b61170a565b005b6104dd60048036038101906104d89190613190565b61175f565b005b6104f960048036038101906104f491906135a5565b611967565b005b61051560048036038101906105109190613190565b611ad0565b604051610522919061324d565b60405180910390f35b610545600480360381019061054091906134e4565b611b2f565b005b61054f611c61565b60405161055c919061332d565b60405180910390f35b61057f600480360381019061057a9190613601565b611e54565b005b61059b60048036038101906105969190613190565b611fb8565b6040516105a8919061324d565b60405180910390f35b6105b961208c565b6040516105c6919061332d565b60405180910390f35b6105e960048036038101906105e49190613190565b612120565b005b6105f4336107c3565b61062a576040517f4d371dc700000000000000000000000000000000000000000000000000000000815260040160405180910390fd5b6106338161132e565b61066b5761064e8160056000016121f990919063ffffffff16565b1561066b5761066a81600060020161228c90919063ffffffff16565b5b50565b606060006001018054610680906136bb565b80601f01602080910402602001604051908101604052809291908181526020018280546106ac906136bb565b80156106f95780601f106106ce576101008083540402835291602001916106f9565b820191906000526020600020905b8154815290600101906020018083116106dc57829003601f168201915b5050505050905090565b6060610712600560000161250f565b905090565b60006107223361130e565b610758576040517fc11330e600000000000000000000000000000000000000000000000000000000815260040160405180910390fd5b600b60040160003373ffffffffffffffffffffffffffffffffffffffff1673ffffffffffffffffffffffffffffffffffffffff16815260200190815260200160002060000160009054906101000a900473ffffffffffffffffffffffffffffffffffffffff16905090565b60008173ffffffffffffffffffffffffffffffffffffffff166000800160009054906101000a900473ffffffffffffffffffffffffffffffffffffffff1673ffffffffffffffffffffffffffffffffffffffff1603610825576001905061082a565b600090505b919050565b60006108488260056000016121f990919063ffffffff16565b9050919050565b6108583361130e565b15610898576040517f08c379a000000000000000000000000000000000000000000000000000000000815260040161088f9061375e565b60405180910390fd5b60008151036108dc576040517f08c379a00000000000000000000000000000000000000000000000000000000081526004016108d3906137f0565b60405180910390fd5b6108f5338260056000016125a49092919063ffffffff16565b61090c33600060020161260b90919063ffffffff16565b50565b606061091a8261130e565b610950576040517fc11330e600000000000000000000000000000000000000000000000000000000815260040160405180910390fd5b8173ffffffffffffffffffffffffffffffffffffffff163373ffffffffffffffffffffffffffffffffffffffff161480610a1a57503373ffffffffffffffffffffffffffffffffffffffff16600b60040160008473ffffffffffffffffffffffffffffffffffffffff1673ffffffffffffffffffffffffffffffffffffffff16815260200190815260200160002060000160009054906101000a900473ffffffffffffffffffffffffffffffffffffffff1673ffffffffffffffffffffffffffffffffffffffff16145b80610b2057507fffffffffffffffffffffffffffffffffffffffffffffffffffffffffffffffff610b1d33600b60040160008673ffffffffffffffffffffffffffffffffffffffff1673ffffffffffffffffffffffffffffffffffffffff168152602001908152602001600020600101805480602002602001604051908101604052809291908181526020018280548015610b0a57602002820191906000526020600020905b8160009054906101000a900473ffffffffffffffffffffffffffffffffffffffff1673ffffffffffffffffffffffffffffffffffffffff1681526020019060010190808311610ac0575b505050505061276f90919063ffffffff16565b14155b15610bfa57600b60040160008373ffffffffffffffffffffffffffffffffffffffff1673ffffffffffffffffffffffffffffffffffffffff1681526020019081526020016000206002018054610b75906136bb565b80601f0160208091040260200160405190810160405280929190818152602001828054610ba1906136bb565b8015610bee5780601f10610bc357610100808354040283529160200191610bee565b820191906000526020600020905b815481529060010190602001808311610bd157829003601f168201915b50505050509050610c35565b6040517f08c379a0000000000000000000000000000000000000000000000000000000008152600401610c2c9061385c565b60405180910390fd5b919050565b6060610c458261130e565b610c7b576040517fc11330e600000000000000000000000000000000000000000000000000000000815260040160405180910390fd5b8173ffffffffffffffffffffffffffffffffffffffff163373ffffffffffffffffffffffffffffffffffffffff161480610d4557503373ffffffffffffffffffffffffffffffffffffffff16600b60040160008473ffffffffffffffffffffffffffffffffffffffff1673ffffffffffffffffffffffffffffffffffffffff16815260200190815260200160002060000160009054906101000a900473ffffffffffffffffffffffffffffffffffffffff1673ffffffffffffffffffffffffffffffffffffffff16145b80610e4b57507fffffffffffffffffffffffffffffffffffffffffffffffffffffffffffffffff610e4833600b60040160008673ffffffffffffffffffffffffffffffffffffffff1673ffffffffffffffffffffffffffffffffffffffff168152602001908152602001600020600101805480602002602001604051908101604052809291908181526020018280548015610e3557602002820191906000526020600020905b8160009054906101000a900473ffffffffffffffffffffffffffffffffffffffff1673ffffffffffffffffffffffffffffffffffffffff1681526020019060010190808311610deb575b505050505061276f90919063ffffffff16565b14155b15610e6e57610e6782600b60000161281490919063ffffffff16565b9050610ea9565b6040517f08c379a0000000000000000000000000000000000000000000000000000000008152600401610ea09061385c565b60405180910390fd5b919050565b610eb73361130e565b610eed576040517fc11330e600000000000000000000000000000000000000000000000000000000815260040160405180910390fd5b6000600b60040160003373ffffffffffffffffffffffffffffffffffffffff1673ffffffffffffffffffffffffffffffffffffffff16815260200190815260200160002060000160009054906101000a900473ffffffffffffffffffffffffffffffffffffffff16905033600b60040160003373ffffffffffffffffffffffffffffffffffffffff1673ffffffffffffffffffffffffffffffffffffffff16815260200190815260200160002060000160006101000a81548173ffffffffffffffffffffffffffffffffffffffff021916908373ffffffffffffffffffffffffffffffffffffffff16021790555061102e336005800160008473ffffffffffffffffffffffffffffffffffffffff1673ffffffffffffffffffffffffffffffffffffffff16815260200190815260200160002061228c90919063ffffffff16565b6110473384600b6000016128349092919063ffffffff16565b81600b60040160003373ffffffffffffffffffffffffffffffffffffffff1673ffffffffffffffffffffffffffffffffffffffff16815260200190815260200160002060020190816110999190613a32565b50505050565b60006110b882600060020161285190919063ffffffff16565b9050919050565b60008060000160009054906101000a900473ffffffffffffffffffffffffffffffffffffffff16905090565b6110f4336107c3565b61112a576040517f4d371dc700000000000000000000000000000000000000000000000000000000815260040160405180910390fd5b6111338161109f565b611172576040517f08c379a000000000000000000000000000000000000000000000000000000000815260040161116990613b50565b60405180910390fd5b6111898160056000016128aa90919063ffffffff16565b6111a081600060020161228c90919063ffffffff16565b50565b6111ac3361130e565b6111e2576040517fc11330e600000000000000000000000000000000000000000000000000000000815260040160405180910390fd5b6111fb3382600b6000016128349092919063ffffffff16565b50565b60606112093361130e565b61123f576040517fc11330e600000000000000000000000000000000000000000000000000000000815260040160405180910390fd5b600b60040160003373ffffffffffffffffffffffffffffffffffffffff1673ffffffffffffffffffffffffffffffffffffffff16815260200190815260200160002060010180548060200260200160405190810160405280929190818152602001828054801561130457602002820191906000526020600020905b8160009054906101000a900473ffffffffffffffffffffffffffffffffffffffff1673ffffffffffffffffffffffffffffffffffffffff16815260200190600101908083116112ba575b5050505050905090565b600061132782600b6000016121f990919063ffffffff16565b9050919050565b60006113478260056000016121f990919063ffffffff16565b61135457600090506113dd565b61136b82600060020161285190919063ffffffff16565b1561137957600090506113dd565b6000600560040160008473ffffffffffffffffffffffffffffffffffffffff1673ffffffffffffffffffffffffffffffffffffffff16815260200190815260200160002080546113c8906136bb565b9050036113d857600090506113dd565b600190505b919050565b6113f93360056000016121f990919063ffffffff16565b61142f576040517ffe2fc9c600000000000000000000000000000000000000000000000000000000815260040160405180910390fd5b61144633600060020161285190919063ffffffff16565b1561147d576040517ff873d3b700000000000000000000000000000000000000000000000000000000815260040160405180910390fd5b6000600560040160003373ffffffffffffffffffffffffffffffffffffffff1673ffffffffffffffffffffffffffffffffffffffff16815260200190815260200160002080546114cc906136bb565b905003611505576040517fa30132d500000000000000000000000000000000000000000000000000000000815260040160405180910390fd5b6000815103611549576040517f08c379a000000000000000000000000000000000000000000000000000000000815260040161154090613be2565b60405180910390fd5b611562338260056000016128349092919063ffffffff16565b50565b61156e3361082f565b8061157e575061157d3361132e565b5b156115be576040517f08c379a00000000000000000000000000000000000000000000000000000000081526004016115b590613c74565b60405180910390fd5b6000825103611602576040517f08c379a00000000000000000000000000000000000000000000000000000000081526004016115f9906137f0565b60405180910390fd5b61161b3383600b6000016125a49092919063ffffffff16565b33600b60040160003373ffffffffffffffffffffffffffffffffffffffff1673ffffffffffffffffffffffffffffffffffffffff16815260200190815260200160002060000160006101000a81548173ffffffffffffffffffffffffffffffffffffffff021916908373ffffffffffffffffffffffffffffffffffffffff16021790555080600b60040160003373ffffffffffffffffffffffffffffffffffffffff1673ffffffffffffffffffffffffffffffffffffffff16815260200190815260200160002060020190816116f19190613a32565b505050565b6060611705600b60000161250f565b905090565b611713336107c3565b611749576040517f4d371dc700000000000000000000000000000000000000000000000000000000815260040160405180910390fd5b806000600101908161175b9190613a32565b5050565b6117683361130e565b61179e576040517fc11330e600000000000000000000000000000000000000000000000000000000815260040160405180910390fd5b6117a78161132e565b6117dd576040517ffe2fc9c600000000000000000000000000000000000000000000000000000000815260040160405180910390fd5b6118b981600b60040160003373ffffffffffffffffffffffffffffffffffffffff1673ffffffffffffffffffffffffffffffffffffffff1681526020019081526020016000206001018054806020026020016040519081016040528092919081815260200182805480156118a657602002820191906000526020600020905b8160009054906101000a900473ffffffffffffffffffffffffffffffffffffffff1673ffffffffffffffffffffffffffffffffffffffff168152602001906001019080831161185c575b505050505061290d90919063ffffffff16565b61196457600b60040160003373ffffffffffffffffffffffffffffffffffffffff1673ffffffffffffffffffffffffffffffffffffffff168152602001908152602001600020600101819080600181540180825580915050600190039060005260206000200160009091909190916101000a81548173ffffffffffffffffffffffffffffffffffffffff021916908373ffffffffffffffffffffffffffffffffffffffff1602179055505b50565b6119708261130e565b6119a6576040517fc11330e600000000000000000000000000000000000000000000000000000000815260040160405180910390fd5b3373ffffffffffffffffffffffffffffffffffffffff16600b60040160008473ffffffffffffffffffffffffffffffffffffffff1673ffffffffffffffffffffffffffffffffffffffff16815260200190815260200160002060000160009054906101000a900473ffffffffffffffffffffffffffffffffffffffff1673ffffffffffffffffffffffffffffffffffffffff1614611a79576040517f08c379a0000000000000000000000000000000000000000000000000000000008152600401611a709061385c565b60405180910390fd5b80600b60040160008473ffffffffffffffffffffffffffffffffffffffff1673ffffffffffffffffffffffffffffffffffffffff1681526020019081526020016000206002019081611acb9190613a32565b505050565b6060611adb8261082f565b611b11576040517ffe2fc9c600000000000000000000000000000000000000000000000000000000815260040160405180910390fd5b611b2882600560000161281490919063ffffffff16565b9050919050565b6000815103611b73576040517f08c379a0000000000000000000000000000000000000000000000000000000008152600401611b6a90613d06565b60405180910390fd5b611b8a3360056000016121f990919063ffffffff16565b611bc0576040517ffe2fc9c600000000000000000000000000000000000000000000000000000000815260040160405180910390fd5b611bd733600060020161285190919063ffffffff16565b15611c0e576040517ff873d3b700000000000000000000000000000000000000000000000000000000815260040160405180910390fd5b80600560040160003373ffffffffffffffffffffffffffffffffffffffff1673ffffffffffffffffffffffffffffffffffffffff1681526020019081526020016000209081611c5d9190613a32565b5050565b6060611c7a3360056000016121f990919063ffffffff16565b611cb0576040517ffe2fc9c600000000000000000000000000000000000000000000000000000000815260040160405180910390fd5b611cc733600060020161285190919063ffffffff16565b15611cfe576040517ff873d3b700000000000000000000000000000000000000000000000000000000815260040160405180910390fd5b6000600560040160003373ffffffffffffffffffffffffffffffffffffffff1673ffffffffffffffffffffffffffffffffffffffff1681526020019081526020016000208054611d4d906136bb565b905003611d86576040517fa30132d500000000000000000000000000000000000000000000000000000000815260040160405180910390fd5b6005800160003373ffffffffffffffffffffffffffffffffffffffff1673ffffffffffffffffffffffffffffffffffffffff168152602001908152602001600020600001805480602002602001604051908101604052809291908181526020018280548015611e4a57602002820191906000526020600020905b8160009054906101000a900473ffffffffffffffffffffffffffffffffffffffff1673ffffffffffffffffffffffffffffffffffffffff1681526020019060010190808311611e00575b5050505050905090565b611e5d3361130e565b611e93576040517fc11330e600000000000000000000000000000000000000000000000000000000815260040160405180910390fd5b611e9c8361132e565b611ed2576040517ffe2fc9c600000000000000000000000000000000000000000000000000000000815260040160405180910390fd5b611edc8282610eae565b82600b60040160003373ffffffffffffffffffffffffffffffffffffffff1673ffffffffffffffffffffffffffffffffffffffff16815260200190815260200160002060000160006101000a81548173ffffffffffffffffffffffffffffffffffffffff021916908373ffffffffffffffffffffffffffffffffffffffff160217905550611fb3336005800160008673ffffffffffffffffffffffffffffffffffffffff1673ffffffffffffffffffffffffffffffffffffffff16815260200190815260200160002061260b90919063ffffffff16565b505050565b6060600560040160008373ffffffffffffffffffffffffffffffffffffffff1673ffffffffffffffffffffffffffffffffffffffff1681526020019081526020016000208054612007906136bb565b80601f0160208091040260200160405190810160405280929190818152602001828054612033906136bb565b80156120805780601f1061205557610100808354040283529160200191612080565b820191906000526020600020905b81548152906001019060200180831161206357829003601f168201915b50505050509050919050565b6060600060020160000180548060200260200160405190810160405280929190818152602001828054801561211657602002820191906000526020600020905b8160009054906101000a900473ffffffffffffffffffffffffffffffffffffffff1673ffffffffffffffffffffffffffffffffffffffff16815260200190600101908083116120cc575b5050505050905090565b6121293361130e565b61215f576040517fc11330e600000000000000000000000000000000000000000000000000000000815260040160405180910390fd5b6121688161132e565b61219e576040517ffe2fc9c600000000000000000000000000000000000000000000000000000000815260040160405180910390fd5b6121f581600b60040160003373ffffffffffffffffffffffffffffffffffffffff1673ffffffffffffffffffffffffffffffffffffffff16815260200190815260200160002060010161294490919063ffffffff16565b5050565b60008073ffffffffffffffffffffffffffffffffffffffff168273ffffffffffffffffffffffffffffffffffffffff1603612269576040517f08c379a000000000000000000000000000000000000000000000000000000000815260040161226090613d98565b60405180910390fd5b60006122818385600001612b6990919063ffffffff16565b511415905092915050565b8160010160008273ffffffffffffffffffffffffffffffffffffffff1673ffffffffffffffffffffffffffffffffffffffff16815260200190815260200160002060009054906101000a900460ff161561250b578160010160008273ffffffffffffffffffffffffffffffffffffffff1673ffffffffffffffffffffffffffffffffffffffff16815260200190815260200160002060006101000a81549060ff021916905560008260020160008373ffffffffffffffffffffffffffffffffffffffff1673ffffffffffffffffffffffffffffffffffffffff16815260200190815260200160002054905060006001846000018054905061238d9190613de7565b905060008460000182815481106123a7576123a6613e1b565b5b9060005260206000200160009054906101000a900473ffffffffffffffffffffffffffffffffffffffff169050828560020160008373ffffffffffffffffffffffffffffffffffffffff1673ffffffffffffffffffffffffffffffffffffffff168152602001908152602001600020819055508460020160008573ffffffffffffffffffffffffffffffffffffffff1673ffffffffffffffffffffffffffffffffffffffff168152602001908152602001600020600090558085600001848154811061247657612475613e1b565b5b9060005260206000200160006101000a81548173ffffffffffffffffffffffffffffffffffffffff021916908373ffffffffffffffffffffffffffffffffffffffff160217905550846000018054806124d2576124d1613e4a565b5b6001900381819060005260206000200160006101000a81549073ffffffffffffffffffffffffffffffffffffffff021916905590555050505b5050565b60608160000160000180548060200260200160405190810160405280929190818152602001828054801561259857602002820191906000526020600020905b8160009054906101000a900473ffffffffffffffffffffffffffffffffffffffff1673ffffffffffffffffffffffffffffffffffffffff168152602001906001019080831161254e575b50505050509050919050565b6125ae83836121f9565b156125ee576040517f08c379a00000000000000000000000000000000000000000000000000000000081526004016125e590613ec5565b60405180910390fd5b612606828285600001612c3d9092919063ffffffff16565b505050565b8160010160008273ffffffffffffffffffffffffffffffffffffffff1673ffffffffffffffffffffffffffffffffffffffff16815260200190815260200160002060009054906101000a900460ff1661276b5760018260010160008373ffffffffffffffffffffffffffffffffffffffff1673ffffffffffffffffffffffffffffffffffffffff16815260200190815260200160002060006101000a81548160ff02191690831515021790555081600001805490508260020160008373ffffffffffffffffffffffffffffffffffffffff1673ffffffffffffffffffffffffffffffffffffffff1681526020019081526020016000208190555081600001819080600181540180825580915050600190039060005260206000200160009091909190916101000a81548173ffffffffffffffffffffffffffffffffffffffff021916908373ffffffffffffffffffffffffffffffffffffffff1602179055505b5050565b600080600090505b83518110156127e9578273ffffffffffffffffffffffffffffffffffffffff168482815181106127aa576127a9613e1b565b5b602002602001015173ffffffffffffffffffffffffffffffffffffffff16036127d6578091505061280e565b80806127e190613ee5565b915050612777565b507fffffffffffffffffffffffffffffffffffffffffffffffffffffffffffffffff90505b92915050565b606061282c8284600001612b6990919063ffffffff16565b905092915050565b61284c828285600001612c3d9092919063ffffffff16565b505050565b60008260010160008373ffffffffffffffffffffffffffffffffffffffff1673ffffffffffffffffffffffffffffffffffffffff16815260200190815260200160002060009054906101000a900460ff16905092915050565b6128b482826121f9565b6128f3576040517f08c379a00000000000000000000000000000000000000000000000000000000081526004016128ea90613f9f565b60405180910390fd5b6129098183600001612df190919063ffffffff16565b5050565b60007fffffffffffffffffffffffffffffffffffffffffffffffffffffffffffffffff61293a848461276f565b1415905092915050565b6000806129d6848054806020026020016040519081016040528092919081815260200182805480156129cb57602002820191906000526020600020905b8160009054906101000a900473ffffffffffffffffffffffffffffffffffffffff1673ffffffffffffffffffffffffffffffffffffffff1681526020019060010190808311612981575b50505050508461276f565b90507fffffffffffffffffffffffffffffffffffffffffffffffffffffffffffffffff8103612a09576000915050612b63565b600084805480602002602001604051908101604052809291908181526020018280548015612a8c57602002820191906000526020600020905b8160009054906101000a900473ffffffffffffffffffffffffffffffffffffffff1673ffffffffffffffffffffffffffffffffffffffff1681526020019060010190808311612a42575b505050505090508060018251612aa29190613de7565b81518110612ab357612ab2613e1b565b5b6020026020010151858381548110612ace57612acd613e1b565b5b9060005260206000200160006101000a81548173ffffffffffffffffffffffffffffffffffffffff021916908373ffffffffffffffffffffffffffffffffffffffff16021790555084805480612b2757612b26613e4a565b5b6001900381819060005260206000200160006101000a81549073ffffffffffffffffffffffffffffffffffffffff021916905590556001925050505b92915050565b60608260010160008373ffffffffffffffffffffffffffffffffffffffff1673ffffffffffffffffffffffffffffffffffffffff1681526020019081526020016000208054612bb7906136bb565b80601f0160208091040260200160405190810160405280929190818152602001828054612be3906136bb565b8015612c305780601f10612c0557610100808354040283529160200191612c30565b820191906000526020600020905b815481529060010190602001808311612c1357829003601f168201915b5050505050905092915050565b8260030160008373ffffffffffffffffffffffffffffffffffffffff1673ffffffffffffffffffffffffffffffffffffffff16815260200190815260200160002060009054906101000a900460ff16612d9d5782600001805490508360020160008473ffffffffffffffffffffffffffffffffffffffff1673ffffffffffffffffffffffffffffffffffffffff1681526020019081526020016000208190555060018360030160008473ffffffffffffffffffffffffffffffffffffffff1673ffffffffffffffffffffffffffffffffffffffff16815260200190815260200160002060006101000a81548160ff02191690831515021790555082600001829080600181540180825580915050600190039060005260206000200160009091909190916101000a81548173ffffffffffffffffffffffffffffffffffffffff021916908373ffffffffffffffffffffffffffffffffffffffff1602179055505b808360010160008473ffffffffffffffffffffffffffffffffffffffff1673ffffffffffffffffffffffffffffffffffffffff1681526020019081526020016000209081612deb9190613a32565b50505050565b8160030160008273ffffffffffffffffffffffffffffffffffffffff1673ffffffffffffffffffffffffffffffffffffffff16815260200190815260200160002060009054906101000a900460ff16156130bd578160010160008273ffffffffffffffffffffffffffffffffffffffff1673ffffffffffffffffffffffffffffffffffffffff1681526020019081526020016000206000612e9291906130c1565b8160030160008273ffffffffffffffffffffffffffffffffffffffff1673ffffffffffffffffffffffffffffffffffffffff16815260200190815260200160002060006101000a81549060ff021916905560008260020160008373ffffffffffffffffffffffffffffffffffffffff1673ffffffffffffffffffffffffffffffffffffffff168152602001908152602001600020549050600060018460000180549050612f3f9190613de7565b90506000846000018281548110612f5957612f58613e1b565b5b9060005260206000200160009054906101000a900473ffffffffffffffffffffffffffffffffffffffff169050828560020160008373ffffffffffffffffffffffffffffffffffffffff1673ffffffffffffffffffffffffffffffffffffffff168152602001908152602001600020819055508460020160008573ffffffffffffffffffffffffffffffffffffffff1673ffffffffffffffffffffffffffffffffffffffff168152602001908152602001600020600090558085600001848154811061302857613027613e1b565b5b9060005260206000200160006101000a81548173ffffffffffffffffffffffffffffffffffffffff021916908373ffffffffffffffffffffffffffffffffffffffff1602179055508460000180548061308457613083613e4a565b5b6001900381819060005260206000200160006101000a81549073ffffffffffffffffffffffffffffffffffffffff021916905590555050505b5050565b5080546130cd906136bb565b6000825580601f106130df57506130fe565b601f0160209004906000526020600020908101906130fd9190613101565b5b50565b5b8082111561311a576000816000905550600101613102565b5090565b6000604051905090565b600080fd5b600080fd5b600073ffffffffffffffffffffffffffffffffffffffff82169050919050565b600061315d82613132565b9050919050565b61316d81613152565b811461317857600080fd5b50565b60008135905061318a81613164565b92915050565b6000602082840312156131a6576131a5613128565b5b60006131b48482850161317b565b91505092915050565b600081519050919050565b600082825260208201905092915050565b60005b838110156131f75780820151818401526020810190506131dc565b60008484015250505050565b6000601f19601f8301169050919050565b600061321f826131bd565b61322981856131c8565b93506132398185602086016131d9565b61324281613203565b840191505092915050565b600060208201905081810360008301526132678184613214565b905092915050565b600081519050919050565b600082825260208201905092915050565b6000819050602082019050919050565b6132a481613152565b82525050565b60006132b6838361329b565b60208301905092915050565b6000602082019050919050565b60006132da8261326f565b6132e4818561327a565b93506132ef8361328b565b8060005b8381101561332057815161330788826132aa565b9750613312836132c2565b9250506001810190506132f3565b5085935050505092915050565b6000602082019050818103600083015261334781846132cf565b905092915050565b61335881613152565b82525050565b6000602082019050613373600083018461334f565b92915050565b60008115159050919050565b61338e81613379565b82525050565b60006020820190506133a96000830184613385565b92915050565b600080fd5b600080fd5b7f4e487b7100000000000000000000000000000000000000000000000000000000600052604160045260246000fd5b6133f182613203565b810181811067ffffffffffffffff821117156134105761340f6133b9565b5b80604052505050565b600061342361311e565b905061342f82826133e8565b919050565b600067ffffffffffffffff82111561344f5761344e6133b9565b5b61345882613203565b9050602081019050919050565b82818337600083830152505050565b600061348761348284613434565b613419565b9050828152602081018484840111156134a3576134a26133b4565b5b6134ae848285613465565b509392505050565b600082601f8301126134cb576134ca6133af565b5b81356134db848260208601613474565b91505092915050565b6000602082840312156134fa576134f9613128565b5b600082013567ffffffffffffffff8111156135185761351761312d565b5b613524848285016134b6565b91505092915050565b6000806040838503121561354457613543613128565b5b600083013567ffffffffffffffff8111156135625761356161312d565b5b61356e858286016134b6565b925050602083013567ffffffffffffffff81111561358f5761358e61312d565b5b61359b858286016134b6565b9150509250929050565b600080604083850312156135bc576135bb613128565b5b60006135ca8582860161317b565b925050602083013567ffffffffffffffff8111156135eb576135ea61312d565b5b6135f7858286016134b6565b9150509250929050565b60008060006060848603121561361a57613619613128565b5b60006136288682870161317b565b935050602084013567ffffffffffffffff8111156136495761364861312d565b5b613655868287016134b6565b925050604084013567ffffffffffffffff8111156136765761367561312d565b5b613682868287016134b6565b9150509250925092565b7f4e487b7100000000000000000000000000000000000000000000000000000000600052602260045260246000fd5b600060028204905060018216806136d357607f821691505b6020821081036136e6576136e561368c565b5b50919050565b7f436f6e74726163743a204164647265737320616c72656164792072656769737460008201527f657265642061732070617469656e740000000000000000000000000000000000602082015250565b6000613748602f836131c8565b9150613753826136ec565b604082019050919050565b600060208201905081810360008301526137778161373b565b9050919050565b7f436f6e74726163743a20456d7074792068617368206973206e6f7420616c6c6f60008201527f7765640000000000000000000000000000000000000000000000000000000000602082015250565b60006137da6023836131c8565b91506137e58261377e565b604082019050919050565b60006020820190508181036000830152613809816137cd565b9050919050565b7f4e6f7420416c6c6f776564000000000000000000000000000000000000000000600082015250565b6000613846600b836131c8565b915061385182613810565b602082019050919050565b6000602082019050818103600083015261387581613839565b9050919050565b60008190508160005260206000209050919050565b60006020601f8301049050919050565b600082821b905092915050565b6000600883026138de7fffffffffffffffffffffffffffffffffffffffffffffffffffffffffffffffff826138a1565b6138e886836138a1565b95508019841693508086168417925050509392505050565b6000819050919050565b6000819050919050565b600061392f61392a61392584613900565b61390a565b613900565b9050919050565b6000819050919050565b61394983613914565b61395d61395582613936565b8484546138ae565b825550505050565b600090565b613972613965565b61397d818484613940565b505050565b5b818110156139a15761399660008261396a565b600181019050613983565b5050565b601f8211156139e6576139b78161387c565b6139c084613891565b810160208510156139cf578190505b6139e36139db85613891565b830182613982565b50505b505050565b600082821c905092915050565b6000613a09600019846008026139eb565b1980831691505092915050565b6000613a2283836139f8565b9150826002028217905092915050565b613a3b826131bd565b67ffffffffffffffff811115613a5457613a536133b9565b5b613a5e82546136bb565b613a698282856139a5565b600060209050601f831160018114613a9c5760008415613a8a578287015190505b613a948582613a16565b865550613afc565b601f198416613aaa8661387c565b60005b82811015613ad257848901518255600182019150602085019450602081019050613aad565b86831015613aef5784890151613aeb601f8916826139f8565b8355505b6001600288020188555050505b505050505050565b7f436f6e74726163743a20446f63746f72206e6f74207265676973746572656400600082015250565b6000613b3a601f836131c8565b9150613b4582613b04565b602082019050919050565b60006020820190508181036000830152613b6981613b2d565b9050919050565b7f436f6e74726163743a20456d7074792068617368206973206e6f7420616c6c6f60008201527f7765642100000000000000000000000000000000000000000000000000000000602082015250565b6000613bcc6024836131c8565b9150613bd782613b70565b604082019050919050565b60006020820190508181036000830152613bfb81613bbf565b9050919050565b7f436f6e74726163743a204164647265737320616c72656164792072656769737460008201527f6572656420617320646f63746f72000000000000000000000000000000000000602082015250565b6000613c5e602e836131c8565b9150613c6982613c02565b604082019050919050565b60006020820190508181036000830152613c8d81613c51565b9050919050565b7f436f6e74726163743a20456d707479207075626c6963206b6579206973206e6f60008201527f7420616c6c6f7765642100000000000000000000000000000000000000000000602082015250565b6000613cf0602a836131c8565b9150613cfb82613c94565b604082019050919050565b60006020820190508181036000830152613d1f81613ce3565b9050919050565b7f526f6c65733a206163636f756e7420697320746865207a65726f20616464726560008201527f7373000000000000000000000000000000000000000000000000000000000000602082015250565b6000613d826022836131c8565b9150613d8d82613d26565b604082019050919050565b60006020820190508181036000830152613db181613d75565b9050919050565b7f4e487b7100000000000000000000000000000000000000000000000000000000600052601160045260246000fd5b6000613df282613900565b9150613dfd83613900565b9250828203905081811115613e1557613e14613db8565b5b92915050565b7f4e487b7100000000000000000000000000000000000000000000000000000000600052603260045260246000fd5b7f4e487b7100000000000000000000000000000000000000000000000000000000600052603160045260246000fd5b7f526f6c65733a206163636f756e7420616c72656164792068617320726f6c6500600082015250565b6000613eaf601f836131c8565b9150613eba82613e79565b602082019050919050565b60006020820190508181036000830152613ede81613ea2565b9050919050565b6000613ef082613900565b91507fffffffffffffffffffffffffffffffffffffffffffffffffffffffffffffffff8203613f2257613f21613db8565b5b600182019050919050565b7f526f6c65733a206163636f756e7420646f6573206e6f74206861766520726f6c60008201527f6500000000000000000000000000000000000000000000000000000000000000602082015250565b6000613f896021836131c8565b9150613f9482613f2d565b604082019050919050565b60006020820190508181036000830152613fb881613f7c565b905091905056fea264697066735822122010f0314003e796602d0b2d9d91c3327ad01a115a519d00a05ca8eb53932645fb64736f6c63430008120033', \n     arguments: [\n     ]\n}).send({\n     from: web3.eth.accounts[0], \n     gas: '4700000'\n   }, function (e, contract){\n    console.log(e, contract);\n    if (typeof contract.address !== 'undefined') {\n         console.log('Contract mined! address: ' + contract.address + ' transactionHash: ' + contract.transactionHash);\n    }\n })",
  "functionHashes": {
    "32991838": "registerDr(string)",
    "0de99991": "approveDr(address)",
    "d3cd4df4": "changeEditorAccess(address,string,string)",
    "745ada64": "disapproveDr(address)",
    "6e9960c3": "getAdmin()",
    "116461e9": "getAdminPubKey()",
    "1da3e2dc": "getAllDrs()",
    "a53f514d": "getAllPts()",
    "cce9d43e": "getDrHash(address)",
    "21639f04": "getDrOfPt()",
    "dc823aaf": "getDrPubKey(address)",
    "8f7f43a9": "getPatViewers()",
    "e2877b4e": "getPendingDrs()",
    "4df0a2d4": "getPtGeneralHash(address)",
    "3d8198b4": "getPtRecordHash(address)",
    "d0d9a5e3": "getPtsOfDr()",
    "b1e758a4": "grantViewerAccess(address)",
    "24d7806c": "isAdmin(address)",
    "996440c6": "isDoctor(address)",
    "6d4bce20": "isDrPending(address)",
    "290c61b0": "isDrRegistered(address)",
    "8f9c79ed": "isPatient(address)",
    "ccfaed16": "registerDrConfirm(string)",
    "a03de49e": "registerPt(string,string)",
    "5b0a7aad": "removeEditorAccess(string,string)",
    "f7a03a1e": "revokeViewerAccess(address)",
    "afb97e3d": "setAdminPubKey(string)",
    "99eedd2a": "setDrHash(string)",
    "88c432e1": "setPtGeneralHash(string)",
    "c70597ad": "setPtRecordHash(address,string)"
  },
  "gasEstimates": {
    "Creation": {
      "codeDepositCost": "3274600",
      "executionCost": "27907",
      "totalCost": "3302507"
    },
    "External": {
      "approveDr(address)": "infinite",
      "changeEditorAccess(address,string,string)": "infinite",
      "disapproveDr(address)": "infinite",
      "getAdmin()": "2573",
      "getAdminPubKey()": "infinite",
      "getAllDrs()": "infinite",
      "getAllPts()": "infinite",
      "getDrHash(address)": "infinite",
      "getDrOfPt()": "infinite",
      "getDrPubKey(address)": "infinite",
      "getPatViewers()": "infinite",
      "getPendingDrs()": "infinite",
      "getPtGeneralHash(address)": "infinite",
      "getPtRecordHash(address)": "infinite",
      "getPtsOfDr()": "infinite",
      "grantViewerAccess(address)": "infinite",
      "isAdmin(address)": "2913",
      "isDoctor(address)": "infinite",
      "isDrPending(address)": "infinite",
      "isDrRegistered(address)": "infinite",
      "isPatient(address)": "infinite",
      "registerDr(string)": "infinite",
      "registerDrConfirm(string)": "infinite",
      "registerPt(string,string)": "infinite",
      "removeEditorAccess(string,string)": "infinite",
      "revokeViewerAccess(address)": "infinite",
      "setAdminPubKey(string)": "infinite",
      "setDrHash(string)": "infinite",
      "setPtGeneralHash(string)": "infinite",
      "setPtRecordHash(address,string)": "infinite"
    }
  },
  "devdoc": {
    "kind": "dev",
    "methods": {},
    "version": 1
  },
  "userdoc": {
    "kind": "user",
    "methods": {},
    "version": 1
  },
  "Runtime Bytecode": {
    "immutableReferences": {},
    "linkReferences": {},
    "object": "608060405234801561001057600080fd5b50600436106101da5760003560e01c80638f9c79ed11610104578063c70597ad116100a2578063d3cd4df411610071578063d3cd4df414610565578063dc823aaf14610581578063e2877b4e146105b1578063f7a03a1e146105cf576101da565b8063c70597ad146104df578063cce9d43e146104fb578063ccfaed161461052b578063d0d9a5e314610547576101da565b8063a03de49e116100de578063a03de49e1461046d578063a53f514d14610489578063afb97e3d146104a7578063b1e758a4146104c3576101da565b80638f9c79ed146103f1578063996440c61461042157806399eedd2a14610451576101da565b80633d8198b41161017c5780636e9960c31161014b5780636e9960c31461037d578063745ada641461039b57806388c432e1146103b75780638f7f43a9146103d3576101da565b80633d8198b4146102d15780634df0a2d4146103015780635b0a7aad146103315780636d4bce201461034d576101da565b806321639f04116101b857806321639f041461023757806324d7806c14610255578063290c61b01461028557806332991838146102b5576101da565b80630de99991146101df578063116461e9146101fb5780631da3e2dc14610219575b600080fd5b6101f960048036038101906101f49190613190565b6105eb565b005b61020361066e565b604051610210919061324d565b60405180910390f35b610221610703565b60405161022e919061332d565b60405180910390f35b61023f610717565b60405161024c919061335e565b60405180910390f35b61026f600480360381019061026a9190613190565b6107c3565b60405161027c9190613394565b60405180910390f35b61029f600480360381019061029a9190613190565b61082f565b6040516102ac9190613394565b60405180910390f35b6102cf60048036038101906102ca91906134e4565b61084f565b005b6102eb60048036038101906102e69190613190565b61090f565b6040516102f8919061324d565b60405180910390f35b61031b60048036038101906103169190613190565b610c3a565b604051610328919061324d565b60405180910390f35b61034b6004803603810190610346919061352d565b610eae565b005b61036760048036038101906103629190613190565b61109f565b6040516103749190613394565b60405180910390f35b6103856110bf565b604051610392919061335e565b60405180910390f35b6103b560048036038101906103b09190613190565b6110eb565b005b6103d160048036038101906103cc91906134e4565b6111a3565b005b6103db6111fe565b6040516103e8919061332d565b60405180910390f35b61040b60048036038101906104069190613190565b61130e565b6040516104189190613394565b60405180910390f35b61043b60048036038101906104369190613190565b61132e565b6040516104489190613394565b60405180910390f35b61046b600480360381019061046691906134e4565b6113e2565b005b6104876004803603810190610482919061352d565b611565565b005b6104916116f6565b60405161049e919061332d565b60405180910390f35b6104c160048036038101906104bc91906134e4565b61170a565b005b6104dd60048036038101906104d89190613190565b61175f565b005b6104f960048036038101906104f491906135a5565b611967565b005b61051560048036038101906105109190613190565b611ad0565b604051610522919061324d565b60405180910390f35b610545600480360381019061054091906134e4565b611b2f565b005b61054f611c61565b60405161055c919061332d565b60405180910390f35b61057f600480360381019061057a9190613601565b611e54565b005b61059b60048036038101906105969190613190565b611fb8565b6040516105a8919061324d565b60405180910390f35b6105b961208c565b6040516105c6919061332d565b60405180910390f35b6105e960048036038101906105e49190613190565b612120565b005b6105f4336107c3565b61062a576040517f4d371dc700000000000000000000000000000000000000000000000000000000815260040160405180910390fd5b6106338161132e565b61066b5761064e8160056000016121f990919063ffffffff16565b1561066b5761066a81600060020161228c90919063ffffffff16565b5b50565b606060006001018054610680906136bb565b80601f01602080910402602001604051908101604052809291908181526020018280546106ac906136bb565b80156106f95780601f106106ce576101008083540402835291602001916106f9565b820191906000526020600020905b8154815290600101906020018083116106dc57829003601f168201915b5050505050905090565b6060610712600560000161250f565b905090565b60006107223361130e565b610758576040517fc11330e600000000000000000000000000000000000000000000000000000000815260040160405180910390fd5b600b60040160003373ffffffffffffffffffffffffffffffffffffffff1673ffffffffffffffffffffffffffffffffffffffff16815260200190815260200160002060000160009054906101000a900473ffffffffffffffffffffffffffffffffffffffff16905090565b60008173ffffffffffffffffffffffffffffffffffffffff166000800160009054906101000a900473ffffffffffffffffffffffffffffffffffffffff1673ffffffffffffffffffffffffffffffffffffffff1603610825576001905061082a565b600090505b919050565b60006108488260056000016121f990919063ffffffff16565b9050919050565b6108583361130e565b15610898576040517f08c379a000000000000000000000000000000000000000000000000000000000815260040161088f9061375e565b60405180910390fd5b60008151036108dc576040517f08c379a00000000000000000000000000000000000000000000000000000000081526004016108d3906137f0565b60405180910390fd5b6108f5338260056000016125a49092919063ffffffff16565b61090c33600060020161260b90919063ffffffff16565b50565b606061091a8261130e565b610950576040517fc11330e600000000000000000000000000000000000000000000000000000000815260040160405180910390fd5b8173ffffffffffffffffffffffffffffffffffffffff163373ffffffffffffffffffffffffffffffffffffffff161480610a1a57503373ffffffffffffffffffffffffffffffffffffffff16600b60040160008473ffffffffffffffffffffffffffffffffffffffff1673ffffffffffffffffffffffffffffffffffffffff16815260200190815260200160002060000160009054906101000a900473ffffffffffffffffffffffffffffffffffffffff1673ffffffffffffffffffffffffffffffffffffffff16145b80610b2057507fffffffffffffffffffffffffffffffffffffffffffffffffffffffffffffffff610b1d33600b60040160008673ffffffffffffffffffffffffffffffffffffffff1673ffffffffffffffffffffffffffffffffffffffff168152602001908152602001600020600101805480602002602001604051908101604052809291908181526020018280548015610b0a57602002820191906000526020600020905b8160009054906101000a900473ffffffffffffffffffffffffffffffffffffffff1673ffffffffffffffffffffffffffffffffffffffff1681526020019060010190808311610ac0575b505050505061276f90919063ffffffff16565b14155b15610bfa57600b60040160008373ffffffffffffffffffffffffffffffffffffffff1673ffffffffffffffffffffffffffffffffffffffff1681526020019081526020016000206002018054610b75906136bb565b80601f0160208091040260200160405190810160405280929190818152602001828054610ba1906136bb565b8015610bee5780601f10610bc357610100808354040283529160200191610bee565b820191906000526020600020905b815481529060010190602001808311610bd157829003601f168201915b50505050509050610c35565b6040517f08c379a0000000000000000000000000000000000000000000000000000000008152600401610c2c9061385c565b60405180910390fd5b919050565b6060610c458261130e565b610c7b576040517fc11330e600000000000000000000000000000000000000000000000000000000815260040160405180910390fd5b8173ffffffffffffffffffffffffffffffffffffffff163373ffffffffffffffffffffffffffffffffffffffff161480610d4557503373ffffffffffffffffffffffffffffffffffffffff16600b60040160008473ffffffffffffffffffffffffffffffffffffffff1673ffffffffffffffffffffffffffffffffffffffff16815260200190815260200160002060000160009054906101000a900473ffffffffffffffffffffffffffffffffffffffff1673ffffffffffffffffffffffffffffffffffffffff16145b80610e4b57507fffffffffffffffffffffffffffffffffffffffffffffffffffffffffffffffff610e4833600b60040160008673ffffffffffffffffffffffffffffffffffffffff1673ffffffffffffffffffffffffffffffffffffffff168152602001908152602001600020600101805480602002602001604051908101604052809291908181526020018280548015610e3557602002820191906000526020600020905b8160009054906101000a900473ffffffffffffffffffffffffffffffffffffffff1673ffffffffffffffffffffffffffffffffffffffff1681526020019060010190808311610deb575b505050505061276f90919063ffffffff16565b14155b15610e6e57610e6782600b60000161281490919063ffffffff16565b9050610ea9565b6040517f08c379a0000000000000000000000000000000000000000000000000000000008152600401610ea09061385c565b60405180910390fd5b919050565b610eb73361130e565b610eed576040517fc11330e600000000000000000000000000000000000000000000000000000000815260040160405180910390fd5b6000600b60040160003373ffffffffffffffffffffffffffffffffffffffff1673ffffffffffffffffffffffffffffffffffffffff16815260200190815260200160002060000160009054906101000a900473ffffffffffffffffffffffffffffffffffffffff16905033600b60040160003373ffffffffffffffffffffffffffffffffffffffff1673ffffffffffffffffffffffffffffffffffffffff16815260200190815260200160002060000160006101000a81548173ffffffffffffffffffffffffffffffffffffffff021916908373ffffffffffffffffffffffffffffffffffffffff16021790555061102e336005800160008473ffffffffffffffffffffffffffffffffffffffff1673ffffffffffffffffffffffffffffffffffffffff16815260200190815260200160002061228c90919063ffffffff16565b6110473384600b6000016128349092919063ffffffff16565b81600b60040160003373ffffffffffffffffffffffffffffffffffffffff1673ffffffffffffffffffffffffffffffffffffffff16815260200190815260200160002060020190816110999190613a32565b50505050565b60006110b882600060020161285190919063ffffffff16565b9050919050565b60008060000160009054906101000a900473ffffffffffffffffffffffffffffffffffffffff16905090565b6110f4336107c3565b61112a576040517f4d371dc700000000000000000000000000000000000000000000000000000000815260040160405180910390fd5b6111338161109f565b611172576040517f08c379a000000000000000000000000000000000000000000000000000000000815260040161116990613b50565b60405180910390fd5b6111898160056000016128aa90919063ffffffff16565b6111a081600060020161228c90919063ffffffff16565b50565b6111ac3361130e565b6111e2576040517fc11330e600000000000000000000000000000000000000000000000000000000815260040160405180910390fd5b6111fb3382600b6000016128349092919063ffffffff16565b50565b60606112093361130e565b61123f576040517fc11330e600000000000000000000000000000000000000000000000000000000815260040160405180910390fd5b600b60040160003373ffffffffffffffffffffffffffffffffffffffff1673ffffffffffffffffffffffffffffffffffffffff16815260200190815260200160002060010180548060200260200160405190810160405280929190818152602001828054801561130457602002820191906000526020600020905b8160009054906101000a900473ffffffffffffffffffffffffffffffffffffffff1673ffffffffffffffffffffffffffffffffffffffff16815260200190600101908083116112ba575b5050505050905090565b600061132782600b6000016121f990919063ffffffff16565b9050919050565b60006113478260056000016121f990919063ffffffff16565b61135457600090506113dd565b61136b82600060020161285190919063ffffffff16565b1561137957600090506113dd565b6000600560040160008473ffffffffffffffffffffffffffffffffffffffff1673ffffffffffffffffffffffffffffffffffffffff16815260200190815260200160002080546113c8906136bb565b9050036113d857600090506113dd565b600190505b919050565b6113f93360056000016121f990919063ffffffff16565b61142f576040517ffe2fc9c600000000000000000000000000000000000000000000000000000000815260040160405180910390fd5b61144633600060020161285190919063ffffffff16565b1561147d576040517ff873d3b700000000000000000000000000000000000000000000000000000000815260040160405180910390fd5b6000600560040160003373ffffffffffffffffffffffffffffffffffffffff1673ffffffffffffffffffffffffffffffffffffffff16815260200190815260200160002080546114cc906136bb565b905003611505576040517fa30132d500000000000000000000000000000000000000000000000000000000815260040160405180910390fd5b6000815103611549576040517f08c379a000000000000000000000000000000000000000000000000000000000815260040161154090613be2565b60405180910390fd5b611562338260056000016128349092919063ffffffff16565b50565b61156e3361082f565b8061157e575061157d3361132e565b5b156115be576040517f08c379a00000000000000000000000000000000000000000000000000000000081526004016115b590613c74565b60405180910390fd5b6000825103611602576040517f08c379a00000000000000000000000000000000000000000000000000000000081526004016115f9906137f0565b60405180910390fd5b61161b3383600b6000016125a49092919063ffffffff16565b33600b60040160003373ffffffffffffffffffffffffffffffffffffffff1673ffffffffffffffffffffffffffffffffffffffff16815260200190815260200160002060000160006101000a81548173ffffffffffffffffffffffffffffffffffffffff021916908373ffffffffffffffffffffffffffffffffffffffff16021790555080600b60040160003373ffffffffffffffffffffffffffffffffffffffff1673ffffffffffffffffffffffffffffffffffffffff16815260200190815260200160002060020190816116f19190613a32565b505050565b6060611705600b60000161250f565b905090565b611713336107c3565b611749576040517f4d371dc700000000000000000000000000000000000000000000000000000000815260040160405180910390fd5b806000600101908161175b9190613a32565b5050565b6117683361130e565b61179e576040517fc11330e600000000000000000000000000000000000000000000000000000000815260040160405180910390fd5b6117a78161132e565b6117dd576040517ffe2fc9c600000000000000000000000000000000000000000000000000000000815260040160405180910390fd5b6118b981600b60040160003373ffffffffffffffffffffffffffffffffffffffff1673ffffffffffffffffffffffffffffffffffffffff1681526020019081526020016000206001018054806020026020016040519081016040528092919081815260200182805480156118a657602002820191906000526020600020905b8160009054906101000a900473ffffffffffffffffffffffffffffffffffffffff1673ffffffffffffffffffffffffffffffffffffffff168152602001906001019080831161185c575b505050505061290d90919063ffffffff16565b61196457600b60040160003373ffffffffffffffffffffffffffffffffffffffff1673ffffffffffffffffffffffffffffffffffffffff168152602001908152602001600020600101819080600181540180825580915050600190039060005260206000200160009091909190916101000a81548173ffffffffffffffffffffffffffffffffffffffff021916908373ffffffffffffffffffffffffffffffffffffffff1602179055505b50565b6119708261130e565b6119a6576040517fc11330e600000000000000000000000000000000000000000000000000000000815260040160405180910390fd5b3373ffffffffffffffffffffffffffffffffffffffff16600b60040160008473ffffffffffffffffffffffffffffffffffffffff1673ffffffffffffffffffffffffffffffffffffffff16815260200190815260200160002060000160009054906101000a900473ffffffffffffffffffffffffffffffffffffffff1673ffffffffffffffffffffffffffffffffffffffff1614611a79576040517f08c379a0000000000000000000000000000000000000000000000000000000008152600401611a709061385c565b60405180910390fd5b80600b60040160008473ffffffffffffffffffffffffffffffffffffffff1673ffffffffffffffffffffffffffffffffffffffff1681526020019081526020016000206002019081611acb9190613a32565b505050565b6060611adb8261082f565b611b11576040517ffe2fc9c600000000000000000000000000000000000000000000000000000000815260040160405180910390fd5b611b2882600560000161281490919063ffffffff16565b9050919050565b6000815103611b73576040517f08c379a0000000000000000000000000000000000000000000000000000000008152600401611b6a90613d06565b60405180910390fd5b611b8a3360056000016121f990919063ffffffff16565b611bc0576040517ffe2fc9c600000000000000000000000000000000000000000000000000000000815260040160405180910390fd5b611bd733600060020161285190919063ffffffff16565b15611c0e576040517ff873d3b700000000000000000000000000000000000000000000000000000000815260040160405180910390fd5b80600560040160003373ffffffffffffffffffffffffffffffffffffffff1673ffffffffffffffffffffffffffffffffffffffff1681526020019081526020016000209081611c5d9190613a32565b5050565b6060611c7a3360056000016121f990919063ffffffff16565b611cb0576040517ffe2fc9c600000000000000000000000000000000000000000000000000000000815260040160405180910390fd5b611cc733600060020161285190919063ffffffff16565b15611cfe576040517ff873d3b700000000000000000000000000000000000000000000000000000000815260040160405180910390fd5b6000600560040160003373ffffffffffffffffffffffffffffffffffffffff1673ffffffffffffffffffffffffffffffffffffffff1681526020019081526020016000208054611d4d906136bb565b905003611d86576040517fa30132d500000000000000000000000000000000000000000000000000000000815260040160405180910390fd5b6005800160003373ffffffffffffffffffffffffffffffffffffffff1673ffffffffffffffffffffffffffffffffffffffff168152602001908152602001600020600001805480602002602001604051908101604052809291908181526020018280548015611e4a57602002820191906000526020600020905b8160009054906101000a900473ffffffffffffffffffffffffffffffffffffffff1673ffffffffffffffffffffffffffffffffffffffff1681526020019060010190808311611e00575b5050505050905090565b611e5d3361130e565b611e93576040517fc11330e600000000000000000000000000000000000000000000000000000000815260040160405180910390fd5b611e9c8361132e565b611ed2576040517ffe2fc9c600000000000000000000000000000000000000000000000000000000815260040160405180910390fd5b611edc8282610eae565b82600b60040160003373ffffffffffffffffffffffffffffffffffffffff1673ffffffffffffffffffffffffffffffffffffffff16815260200190815260200160002060000160006101000a81548173ffffffffffffffffffffffffffffffffffffffff021916908373ffffffffffffffffffffffffffffffffffffffff160217905550611fb3336005800160008673ffffffffffffffffffffffffffffffffffffffff1673ffffffffffffffffffffffffffffffffffffffff16815260200190815260200160002061260b90919063ffffffff16565b505050565b6060600560040160008373ffffffffffffffffffffffffffffffffffffffff1673ffffffffffffffffffffffffffffffffffffffff1681526020019081526020016000208054612007906136bb565b80601f0160208091040260200160405190810160405280929190818152602001828054612033906136bb565b80156120805780601f1061205557610100808354040283529160200191612080565b820191906000526020600020905b81548152906001019060200180831161206357829003601f168201915b50505050509050919050565b6060600060020160000180548060200260200160405190810160405280929190818152602001828054801561211657602002820191906000526020600020905b8160009054906101000a900473ffffffffffffffffffffffffffffffffffffffff1673ffffffffffffffffffffffffffffffffffffffff16815260200190600101908083116120cc575b5050505050905090565b6121293361130e565b61215f576040517fc11330e600000000000000000000000000000000000000000000000000000000815260040160405180910390fd5b6121688161132e565b61219e576040517ffe2fc9c600000000000000000000000000000000000000000000000000000000815260040160405180910390fd5b6121f581600b60040160003373ffffffffffffffffffffffffffffffffffffffff1673ffffffffffffffffffffffffffffffffffffffff16815260200190815260200160002060010161294490919063ffffffff16565b5050565b60008073ffffffffffffffffffffffffffffffffffffffff168273ffffffffffffffffffffffffffffffffffffffff1603612269576040517f08c379a000000000000000000000000000000000000000000000000000000000815260040161226090613d98565b60405180910390fd5b60006122818385600001612b6990919063ffffffff16565b511415905092915050565b8160010160008273ffffffffffffffffffffffffffffffffffffffff1673ffffffffffffffffffffffffffffffffffffffff16815260200190815260200160002060009054906101000a900460ff161561250b578160010160008273ffffffffffffffffffffffffffffffffffffffff1673ffffffffffffffffffffffffffffffffffffffff16815260200190815260200160002060006101000a81549060ff021916905560008260020160008373ffffffffffffffffffffffffffffffffffffffff1673ffffffffffffffffffffffffffffffffffffffff16815260200190815260200160002054905060006001846000018054905061238d9190613de7565b905060008460000182815481106123a7576123a6613e1b565b5b9060005260206000200160009054906101000a900473ffffffffffffffffffffffffffffffffffffffff169050828560020160008373ffffffffffffffffffffffffffffffffffffffff1673ffffffffffffffffffffffffffffffffffffffff168152602001908152602001600020819055508460020160008573ffffffffffffffffffffffffffffffffffffffff1673ffffffffffffffffffffffffffffffffffffffff168152602001908152602001600020600090558085600001848154811061247657612475613e1b565b5b9060005260206000200160006101000a81548173ffffffffffffffffffffffffffffffffffffffff021916908373ffffffffffffffffffffffffffffffffffffffff160217905550846000018054806124d2576124d1613e4a565b5b6001900381819060005260206000200160006101000a81549073ffffffffffffffffffffffffffffffffffffffff021916905590555050505b5050565b60608160000160000180548060200260200160405190810160405280929190818152602001828054801561259857602002820191906000526020600020905b8160009054906101000a900473ffffffffffffffffffffffffffffffffffffffff1673ffffffffffffffffffffffffffffffffffffffff168152602001906001019080831161254e575b50505050509050919050565b6125ae83836121f9565b156125ee576040517f08c379a00000000000000000000000000000000000000000000000000000000081526004016125e590613ec5565b60405180910390fd5b612606828285600001612c3d9092919063ffffffff16565b505050565b8160010160008273ffffffffffffffffffffffffffffffffffffffff1673ffffffffffffffffffffffffffffffffffffffff16815260200190815260200160002060009054906101000a900460ff1661276b5760018260010160008373ffffffffffffffffffffffffffffffffffffffff1673ffffffffffffffffffffffffffffffffffffffff16815260200190815260200160002060006101000a81548160ff02191690831515021790555081600001805490508260020160008373ffffffffffffffffffffffffffffffffffffffff1673ffffffffffffffffffffffffffffffffffffffff1681526020019081526020016000208190555081600001819080600181540180825580915050600190039060005260206000200160009091909190916101000a81548173ffffffffffffffffffffffffffffffffffffffff021916908373ffffffffffffffffffffffffffffffffffffffff1602179055505b5050565b600080600090505b83518110156127e9578273ffffffffffffffffffffffffffffffffffffffff168482815181106127aa576127a9613e1b565b5b602002602001015173ffffffffffffffffffffffffffffffffffffffff16036127d6578091505061280e565b80806127e190613ee5565b915050612777565b507fffffffffffffffffffffffffffffffffffffffffffffffffffffffffffffffff90505b92915050565b606061282c8284600001612b6990919063ffffffff16565b905092915050565b61284c828285600001612c3d9092919063ffffffff16565b505050565b60008260010160008373ffffffffffffffffffffffffffffffffffffffff1673ffffffffffffffffffffffffffffffffffffffff16815260200190815260200160002060009054906101000a900460ff16905092915050565b6128b482826121f9565b6128f3576040517f08c379a00000000000000000000000000000000000000000000000000000000081526004016128ea90613f9f565b60405180910390fd5b6129098183600001612df190919063ffffffff16565b5050565b60007fffffffffffffffffffffffffffffffffffffffffffffffffffffffffffffffff61293a848461276f565b1415905092915050565b6000806129d6848054806020026020016040519081016040528092919081815260200182805480156129cb57602002820191906000526020600020905b8160009054906101000a900473ffffffffffffffffffffffffffffffffffffffff1673ffffffffffffffffffffffffffffffffffffffff1681526020019060010190808311612981575b50505050508461276f565b90507fffffffffffffffffffffffffffffffffffffffffffffffffffffffffffffffff8103612a09576000915050612b63565b600084805480602002602001604051908101604052809291908181526020018280548015612a8c57602002820191906000526020600020905b8160009054906101000a900473ffffffffffffffffffffffffffffffffffffffff1673ffffffffffffffffffffffffffffffffffffffff1681526020019060010190808311612a42575b505050505090508060018251612aa29190613de7565b81518110612ab357612ab2613e1b565b5b6020026020010151858381548110612ace57612acd613e1b565b5b9060005260206000200160006101000a81548173ffffffffffffffffffffffffffffffffffffffff021916908373ffffffffffffffffffffffffffffffffffffffff16021790555084805480612b2757612b26613e4a565b5b6001900381819060005260206000200160006101000a81549073ffffffffffffffffffffffffffffffffffffffff021916905590556001925050505b92915050565b60608260010160008373ffffffffffffffffffffffffffffffffffffffff1673ffffffffffffffffffffffffffffffffffffffff1681526020019081526020016000208054612bb7906136bb565b80601f0160208091040260200160405190810160405280929190818152602001828054612be3906136bb565b8015612c305780601f10612c0557610100808354040283529160200191612c30565b820191906000526020600020905b815481529060010190602001808311612c1357829003601f168201915b5050505050905092915050565b8260030160008373ffffffffffffffffffffffffffffffffffffffff1673ffffffffffffffffffffffffffffffffffffffff16815260200190815260200160002060009054906101000a900460ff16612d9d5782600001805490508360020160008473ffffffffffffffffffffffffffffffffffffffff1673ffffffffffffffffffffffffffffffffffffffff1681526020019081526020016000208190555060018360030160008473ffffffffffffffffffffffffffffffffffffffff1673ffffffffffffffffffffffffffffffffffffffff16815260200190815260200160002060006101000a81548160ff02191690831515021790555082600001829080600181540180825580915050600190039060005260206000200160009091909190916101000a81548173ffffffffffffffffffffffffffffffffffffffff021916908373ffffffffffffffffffffffffffffffffffffffff1602179055505b808360010160008473ffffffffffffffffffffffffffffffffffffffff1673ffffffffffffffffffffffffffffffffffffffff1681526020019081526020016000209081612deb9190613a32565b50505050565b8160030160008273ffffffffffffffffffffffffffffffffffffffff1673ffffffffffffffffffffffffffffffffffffffff16815260200190815260200160002060009054906101000a900460ff16156130bd578160010160008273ffffffffffffffffffffffffffffffffffffffff1673ffffffffffffffffffffffffffffffffffffffff1681526020019081526020016000206000612e9291906130c1565b8160030160008273ffffffffffffffffffffffffffffffffffffffff1673ffffffffffffffffffffffffffffffffffffffff16815260200190815260200160002060006101000a81549060ff021916905560008260020160008373ffffffffffffffffffffffffffffffffffffffff1673ffffffffffffffffffffffffffffffffffffffff168152602001908152602001600020549050600060018460000180549050612f3f9190613de7565b90506000846000018281548110612f5957612f58613e1b565b5b9060005260206000200160009054906101000a900473ffffffffffffffffffffffffffffffffffffffff169050828560020160008373ffffffffffffffffffffffffffffffffffffffff1673ffffffffffffffffffffffffffffffffffffffff168152602001908152602001600020819055508460020160008573ffffffffffffffffffffffffffffffffffffffff1673ffffffffffffffffffffffffffffffffffffffff168152602001908152602001600020600090558085600001848154811061302857613027613e1b565b5b9060005260206000200160006101000a81548173ffffffffffffffffffffffffffffffffffffffff021916908373ffffffffffffffffffffffffffffffffffffffff1602179055508460000180548061308457613083613e4a565b5b6001900381819060005260206000200160006101000a81549073ffffffffffffffffffffffffffffffffffffffff021916905590555050505b5050565b5080546130cd906136bb565b6000825580601f106130df57506130fe565b601f0160209004906000526020600020908101906130fd9190613101565b5b50565b5b8082111561311a576000816000905550600101613102565b5090565b6000604051905090565b600080fd5b600080fd5b600073ffffffffffffffffffffffffffffffffffffffff82169050919050565b600061315d82613132565b9050919050565b61316d81613152565b811461317857600080fd5b50565b60008135905061318a81613164565b92915050565b6000602082840312156131a6576131a5613128565b5b60006131b48482850161317b565b91505092915050565b600081519050919050565b600082825260208201905092915050565b60005b838110156131f75780820151818401526020810190506131dc565b60008484015250505050565b6000601f19601f8301169050919050565b600061321f826131bd565b61322981856131c8565b93506132398185602086016131d9565b61324281613203565b840191505092915050565b600060208201905081810360008301526132678184613214565b905092915050565b600081519050919050565b600082825260208201905092915050565b6000819050602082019050919050565b6132a481613152565b82525050565b60006132b6838361329b565b60208301905092915050565b6000602082019050919050565b60006132da8261326f565b6132e4818561327a565b93506132ef8361328b565b8060005b8381101561332057815161330788826132aa565b9750613312836132c2565b9250506001810190506132f3565b5085935050505092915050565b6000602082019050818103600083015261334781846132cf565b905092915050565b61335881613152565b82525050565b6000602082019050613373600083018461334f565b92915050565b60008115159050919050565b61338e81613379565b82525050565b60006020820190506133a96000830184613385565b92915050565b600080fd5b600080fd5b7f4e487b7100000000000000000000000000000000000000000000000000000000600052604160045260246000fd5b6133f182613203565b810181811067ffffffffffffffff821117156134105761340f6133b9565b5b80604052505050565b600061342361311e565b905061342f82826133e8565b919050565b600067ffffffffffffffff82111561344f5761344e6133b9565b5b61345882613203565b9050602081019050919050565b82818337600083830152505050565b600061348761348284613434565b613419565b9050828152602081018484840111156134a3576134a26133b4565b5b6134ae848285613465565b509392505050565b600082601f8301126134cb576134ca6133af565b5b81356134db848260208601613474565b91505092915050565b6000602082840312156134fa576134f9613128565b5b600082013567ffffffffffffffff8111156135185761351761312d565b5b613524848285016134b6565b91505092915050565b6000806040838503121561354457613543613128565b5b600083013567ffffffffffffffff8111156135625761356161312d565b5b61356e858286016134b6565b925050602083013567ffffffffffffffff81111561358f5761358e61312d565b5b61359b858286016134b6565b9150509250929050565b600080604083850312156135bc576135bb613128565b5b60006135ca8582860161317b565b925050602083013567ffffffffffffffff8111156135eb576135ea61312d565b5b6135f7858286016134b6565b9150509250929050565b60008060006060848603121561361a57613619613128565b5b60006136288682870161317b565b935050602084013567ffffffffffffffff8111156136495761364861312d565b5b613655868287016134b6565b925050604084013567ffffffffffffffff8111156136765761367561312d565b5b613682868287016134b6565b9150509250925092565b7f4e487b7100000000000000000000000000000000000000000000000000000000600052602260045260246000fd5b600060028204905060018216806136d357607f821691505b6020821081036136e6576136e561368c565b5b50919050565b7f436f6e74726163743a204164647265737320616c72656164792072656769737460008201527f657265642061732070617469656e740000000000000000000000000000000000602082015250565b6000613748602f836131c8565b9150613753826136ec565b604082019050919050565b600060208201905081810360008301526137778161373b565b9050919050565b7f436f6e74726163743a20456d7074792068617368206973206e6f7420616c6c6f60008201527f7765640000000000000000000000000000000000000000000000000000000000602082015250565b60006137da6023836131c8565b91506137e58261377e565b604082019050919050565b60006020820190508181036000830152613809816137cd565b9050919050565b7f4e6f7420416c6c6f776564000000000000000000000000000000000000000000600082015250565b6000613846600b836131c8565b915061385182613810565b602082019050919050565b6000602082019050818103600083015261387581613839565b9050919050565b60008190508160005260206000209050919050565b60006020601f8301049050919050565b600082821b905092915050565b6000600883026138de7fffffffffffffffffffffffffffffffffffffffffffffffffffffffffffffffff826138a1565b6138e886836138a1565b95508019841693508086168417925050509392505050565b6000819050919050565b6000819050919050565b600061392f61392a61392584613900565b61390a565b613900565b9050919050565b6000819050919050565b61394983613914565b61395d61395582613936565b8484546138ae565b825550505050565b600090565b613972613965565b61397d818484613940565b505050565b5b818110156139a15761399660008261396a565b600181019050613983565b5050565b601f8211156139e6576139b78161387c565b6139c084613891565b810160208510156139cf578190505b6139e36139db85613891565b830182613982565b50505b505050565b600082821c905092915050565b6000613a09600019846008026139eb565b1980831691505092915050565b6000613a2283836139f8565b9150826002028217905092915050565b613a3b826131bd565b67ffffffffffffffff811115613a5457613a536133b9565b5b613a5e82546136bb565b613a698282856139a5565b600060209050601f831160018114613a9c5760008415613a8a578287015190505b613a948582613a16565b865550613afc565b601f198416613aaa8661387c565b60005b82811015613ad257848901518255600182019150602085019450602081019050613aad565b86831015613aef5784890151613aeb601f8916826139f8565b8355505b6001600288020188555050505b505050505050565b7f436f6e74726163743a20446f63746f72206e6f74207265676973746572656400600082015250565b6000613b3a601f836131c8565b9150613b4582613b04565b602082019050919050565b60006020820190508181036000830152613b6981613b2d565b9050919050565b7f436f6e74726163743a20456d7074792068617368206973206e6f7420616c6c6f60008201527f7765642100000000000000000000000000000000000000000000000000000000602082015250565b6000613bcc6024836131c8565b9150613bd782613b70565b604082019050919050565b60006020820190508181036000830152613bfb81613bbf565b9050919050565b7f436f6e74726163743a204164647265737320616c72656164792072656769737460008201527f6572656420617320646f63746f72000000000000000000000000000000000000602082015250565b6000613c5e602e836131c8565b9150613c6982613c02565b604082019050919050565b60006020820190508181036000830152613c8d81613c51565b9050919050565b7f436f6e74726163743a20456d707479207075626c6963206b6579206973206e6f60008201527f7420616c6c6f7765642100000000000000000000000000000000000000000000602082015250565b6000613cf0602a836131c8565b9150613cfb82613c94565b604082019050919050565b60006020820190508181036000830152613d1f81613ce3565b9050919050565b7f526f6c65733a206163636f756e7420697320746865207a65726f20616464726560008201527f7373000000000000000000000000000000000000000000000000000000000000602082015250565b6000613d826022836131c8565b9150613d8d82613d26565b604082019050919050565b60006020820190508181036000830152613db181613d75565b9050919050565b7f4e487b7100000000000000000000000000000000000000000000000000000000600052601160045260246000fd5b6000613df282613900565b9150613dfd83613900565b9250828203905081811115613e1557613e14613db8565b5b92915050565b7f4e487b7100000000000000000000000000000000000000000000000000000000600052603260045260246000fd5b7f4e487b7100000000000000000000000000000000000000000000000000000000600052603160045260246000fd5b7f526f6c65733a206163636f756e7420616c72656164792068617320726f6c6500600082015250565b6000613eaf601f836131c8565b9150613eba82613e79565b602082019050919050565b60006020820190508181036000830152613ede81613ea2565b9050919050565b6000613ef082613900565b91507fffffffffffffffffffffffffffffffffffffffffffffffffffffffffffffffff8203613f2257613f21613db8565b5b600182019050919050565b7f526f6c65733a206163636f756e7420646f6573206e6f74206861766520726f6c60008201527f6500000000000000000000000000000000000000000000000000000000000000602082015250565b6000613f896021836131c8565b9150613f9482613f2d565b604082019050919050565b60006020820190508181036000830152613fb881613f7c565b905091905056fea264697066735822122010f0314003e796602d0b2d9d91c3327ad01a115a519d00a05ca8eb53932645fb64736f6c63430008120033",
    "opcodes": "PUSH1 0x80 PUSH1 0x40 MSTORE CALLVALUE DUP1 ISZERO PUSH2 0x10 JUMPI PUSH1 0x0 DUP1 REVERT JUMPDEST POP PUSH1 0x4 CALLDATASIZE LT PUSH2 0x1DA JUMPI PUSH1 0x0 CALLDATALOAD PUSH1 0xE0 SHR DUP1 PUSH4 0x8F9C79ED GT PUSH2 0x104 JUMPI DUP1 PUSH4 0xC70597AD GT PUSH2 0xA2 JUMPI DUP1 PUSH4 0xD3CD4DF4 GT PUSH2 0x71 JUMPI DUP1 PUSH4 0xD3CD4DF4 EQ PUSH2 0x565 JUMPI DUP1 PUSH4 0xDC823AAF EQ PUSH2 0x581 JUMPI DUP1 PUSH4 0xE2877B4E EQ PUSH2 0x5B1 JUMPI DUP1 PUSH4 0xF7A03A1E EQ PUSH2 0x5CF JUMPI PUSH2 0x1DA JUMP JUMPDEST DUP1 PUSH4 0xC70597AD EQ PUSH2 0x4DF JUMPI DUP1 PUSH4 0xCCE9D43E EQ PUSH2 0x4FB JUMPI DUP1 PUSH4 0xCCFAED16 EQ PUSH2 0x52B JUMPI DUP1 PUSH4 0xD0D9A5E3 EQ PUSH2 0x547 JUMPI PUSH2 0x1DA JUMP JUMPDEST DUP1 PUSH4 0xA03DE49E GT PUSH2 0xDE JUMPI DUP1 PUSH4 0xA03DE49E EQ PUSH2 0x46D JUMPI DUP1 PUSH4 0xA53F514D EQ PUSH2 0x489 JUMPI DUP1 PUSH4 0xAFB97E3D EQ PUSH2 0x4A7 JUMPI DUP1 PUSH4 0xB1E758A4 EQ PUSH2 0x4C3 JUMPI PUSH2 0x1DA JUMP JUMPDEST DUP1 PUSH4 0x8F9C79ED EQ PUSH2 0x3F1 JUMPI DUP1 PUSH4 0x996440C6 EQ PUSH2 0x421 JUMPI DUP1 PUSH4 0x99EEDD2A EQ PUSH2 0x451 JUMPI PUSH2 0x1DA JUMP JUMPDEST DUP1 PUSH4 0x3D8198B4 GT PUSH2 0x17C JUMPI DUP1 PUSH4 0x6E9960C3 GT PUSH2 0x14B JUMPI DUP1 PUSH4 0x6E9960C3 EQ PUSH2 0x37D JUMPI DUP1 PUSH4 0x745ADA64 EQ PUSH2 0x39B JUMPI DUP1 PUSH4 0x88C432E1 EQ PUSH2 0x3B7 JUMPI DUP1 PUSH4 0x8F7F43A9 EQ PUSH2 0x3D3 JUMPI PUSH2 0x1DA JUMP JUMPDEST DUP1 PUSH4 0x3D8198B4 EQ PUSH2 0x2D1 JUMPI DUP1 PUSH4 0x4DF0A2D4 EQ PUSH2 0x301 JUMPI DUP1 PUSH4 0x5B0A7AAD EQ PUSH2 0x331 JUMPI DUP1 PUSH4 0x6D4BCE20 EQ PUSH2 0x34D JUMPI PUSH2 0x1DA JUMP JUMPDEST DUP1 PUSH4 0x21639F04 GT PUSH2 0x1B8 JUMPI DUP1 PUSH4 0x21639F04 EQ PUSH2 0x237 JUMPI DUP1 PUSH4 0x24D7806C EQ PUSH2 0x255 JUMPI DUP1 PUSH4 0x290C61B0 EQ PUSH2 0x285 JUMPI DUP1 PUSH4 0x32991838 EQ PUSH2 0x2B5 JUMPI PUSH2 0x1DA JUMP JUMPDEST DUP1 PUSH4 0xDE99991 EQ PUSH2 0x1DF JUMPI DUP1 PUSH4 0x116461E9 EQ PUSH2 0x1FB JUMPI DUP1 PUSH4 0x1DA3E2DC EQ PUSH2 0x219 JUMPI JUMPDEST PUSH1 0x0 DUP1 REVERT JUMPDEST PUSH2 0x1F9 PUSH1 0x4 DUP1 CALLDATASIZE SUB DUP2 ADD SWAP1 PUSH2 0x1F4 SWAP2 SWAP1 PUSH2 0x3190 JUMP JUMPDEST PUSH2 0x5EB JUMP JUMPDEST STOP JUMPDEST PUSH2 0x203 PUSH2 0x66E JUMP JUMPDEST PUSH1 0x40 MLOAD PUSH2 0x210 SWAP2 SWAP1 PUSH2 0x324D JUMP JUMPDEST PUSH1 0x40 MLOAD DUP1 SWAP2 SUB SWAP1 RETURN JUMPDEST PUSH2 0x221 PUSH2 0x703 JUMP JUMPDEST PUSH1 0x40 MLOAD PUSH2 0x22E SWAP2 SWAP1 PUSH2 0x332D JUMP JUMPDEST PUSH1 0x40 MLOAD DUP1 SWAP2 SUB SWAP1 RETURN JUMPDEST PUSH2 0x23F PUSH2 0x717 JUMP JUMPDEST PUSH1 0x40 MLOAD PUSH2 0x24C SWAP2 SWAP1 PUSH2 0x335E JUMP JUMPDEST PUSH1 0x40 MLOAD DUP1 SWAP2 SUB SWAP1 RETURN JUMPDEST PUSH2 0x26F PUSH1 0x4 DUP1 CALLDATASIZE SUB DUP2 ADD SWAP1 PUSH2 0x26A SWAP2 SWAP1 PUSH2 0x3190 JUMP JUMPDEST PUSH2 0x7C3 JUMP JUMPDEST PUSH1 0x40 MLOAD PUSH2 0x27C SWAP2 SWAP1 PUSH2 0x3394 JUMP JUMPDEST PUSH1 0x40 MLOAD DUP1 SWAP2 SUB SWAP1 RETURN JUMPDEST PUSH2 0x29F PUSH1 0x4 DUP1 CALLDATASIZE SUB DUP2 ADD SWAP1 PUSH2 0x29A SWAP2 SWAP1 PUSH2 0x3190 JUMP JUMPDEST PUSH2 0x82F JUMP JUMPDEST PUSH1 0x40 MLOAD PUSH2 0x2AC SWAP2 SWAP1 PUSH2 0x3394 JUMP JUMPDEST PUSH1 0x40 MLOAD DUP1 SWAP2 SUB SWAP1 RETURN JUMPDEST PUSH2 0x2CF PUSH1 0x4 DUP1 CALLDATASIZE SUB DUP2 ADD SWAP1 PUSH2 0x2CA SWAP2 SWAP1 PUSH2 0x34E4 JUMP JUMPDEST PUSH2 0x84F JUMP JUMPDEST STOP JUMPDEST PUSH2 0x2EB PUSH1 0x4 DUP1 CALLDATASIZE SUB DUP2 ADD SWAP1 PUSH2 0x2E6 SWAP2 SWAP1 PUSH2 0x3190 JUMP JUMPDEST PUSH2 0x90F JUMP JUMPDEST PUSH1 0x40 MLOAD PUSH2 0x2F8 SWAP2 SWAP1 PUSH2 0x324D JUMP JUMPDEST PUSH1 0x40 MLOAD DUP1 SWAP2 SUB SWAP1 RETURN JUMPDEST PUSH2 0x31B PUSH1 0x4 DUP1 CALLDATASIZE SUB DUP2 ADD SWAP1 PUSH2 0x316 SWAP2 SWAP1 PUSH2 0x3190 JUMP JUMPDEST PUSH2 0xC3A JUMP JUMPDEST PUSH1 0x40 MLOAD PUSH2 0x328 SWAP2 SWAP1 PUSH2 0x324D JUMP JUMPDEST PUSH1 0x40 MLOAD DUP1 SWAP2 SUB SWAP1 RETURN JUMPDEST PUSH2 0x34B PUSH1 0x4 DUP1 CALLDATASIZE SUB DUP2 ADD SWAP1 PUSH2 0x346 SWAP2 SWAP1 PUSH2 0x352D JUMP JUMPDEST PUSH2 0xEAE JUMP JUMPDEST STOP JUMPDEST PUSH2 0x367 PUSH1 0x4 DUP1 CALLDATASIZE SUB DUP2 ADD SWAP1 PUSH2 0x362 SWAP2 SWAP1 PUSH2 0x3190 JUMP JUMPDEST PUSH2 0x109F JUMP JUMPDEST PUSH1 0x40 MLOAD PUSH2 0x374 SWAP2 SWAP1 PUSH2 0x3394 JUMP JUMPDEST PUSH1 0x40 MLOAD DUP1 SWAP2 SUB SWAP1 RETURN JUMPDEST PUSH2 0x385 PUSH2 0x10BF JUMP JUMPDEST PUSH1 0x40 MLOAD PUSH2 0x392 SWAP2 SWAP1 PUSH2 0x335E JUMP JUMPDEST PUSH1 0x40 MLOAD DUP1 SWAP2 SUB SWAP1 RETURN JUMPDEST PUSH2 0x3B5 PUSH1 0x4 DUP1 CALLDATASIZE SUB DUP2 ADD SWAP1 PUSH2 0x3B0 SWAP2 SWAP1 PUSH2 0x3190 JUMP JUMPDEST PUSH2 0x10EB JUMP JUMPDEST STOP JUMPDEST PUSH2 0x3D1 PUSH1 0x4 DUP1 CALLDATASIZE SUB DUP2 ADD SWAP1 PUSH2 0x3CC SWAP2 SWAP1 PUSH2 0x34E4 JUMP JUMPDEST PUSH2 0x11A3 JUMP JUMPDEST STOP JUMPDEST PUSH2 0x3DB PUSH2 0x11FE JUMP JUMPDEST PUSH1 0x40 MLOAD PUSH2 0x3E8 SWAP2 SWAP1 PUSH2 0x332D JUMP JUMPDEST PUSH1 0x40 MLOAD DUP1 SWAP2 SUB SWAP1 RETURN JUMPDEST PUSH2 0x40B PUSH1 0x4 DUP1 CALLDATASIZE SUB DUP2 ADD SWAP1 PUSH2 0x406 SWAP2 SWAP1 PUSH2 0x3190 JUMP JUMPDEST PUSH2 0x130E JUMP JUMPDEST PUSH1 0x40 MLOAD PUSH2 0x418 SWAP2 SWAP1 PUSH2 0x3394 JUMP JUMPDEST PUSH1 0x40 MLOAD DUP1 SWAP2 SUB SWAP1 RETURN JUMPDEST PUSH2 0x43B PUSH1 0x4 DUP1 CALLDATASIZE SUB DUP2 ADD SWAP1 PUSH2 0x436 SWAP2 SWAP1 PUSH2 0x3190 JUMP JUMPDEST PUSH2 0x132E JUMP JUMPDEST PUSH1 0x40 MLOAD PUSH2 0x448 SWAP2 SWAP1 PUSH2 0x3394 JUMP JUMPDEST PUSH1 0x40 MLOAD DUP1 SWAP2 SUB SWAP1 RETURN JUMPDEST PUSH2 0x46B PUSH1 0x4 DUP1 CALLDATASIZE SUB DUP2 ADD SWAP1 PUSH2 0x466 SWAP2 SWAP1 PUSH2 0x34E4 JUMP JUMPDEST PUSH2 0x13E2 JUMP JUMPDEST STOP JUMPDEST PUSH2 0x487 PUSH1 0x4 DUP1 CALLDATASIZE SUB DUP2 ADD SWAP1 PUSH2 0x482 SWAP2 SWAP1 PUSH2 0x352D JUMP JUMPDEST PUSH2 0x1565 JUMP JUMPDEST STOP JUMPDEST PUSH2 0x491 PUSH2 0x16F6 JUMP JUMPDEST PUSH1 0x40 MLOAD PUSH2 0x49E SWAP2 SWAP1 PUSH2 0x332D JUMP JUMPDEST PUSH1 0x40 MLOAD DUP1 SWAP2 SUB SWAP1 RETURN JUMPDEST PUSH2 0x4C1 PUSH1 0x4 DUP1 CALLDATASIZE SUB DUP2 ADD SWAP1 PUSH2 0x4BC SWAP2 SWAP1 PUSH2 0x34E4 JUMP JUMPDEST PUSH2 0x170A JUMP JUMPDEST STOP JUMPDEST PUSH2 0x4DD PUSH1 0x4 DUP1 CALLDATASIZE SUB DUP2 ADD SWAP1 PUSH2 0x4D8 SWAP2 SWAP1 PUSH2 0x3190 JUMP JUMPDEST PUSH2 0x175F JUMP JUMPDEST STOP JUMPDEST PUSH2 0x4F9 PUSH1 0x4 DUP1 CALLDATASIZE SUB DUP2 ADD SWAP1 PUSH2 0x4F4 SWAP2 SWAP1 PUSH2 0x35A5 JUMP JUMPDEST PUSH2 0x1967 JUMP JUMPDEST STOP JUMPDEST PUSH2 0x515 PUSH1 0x4 DUP1 CALLDATASIZE SUB DUP2 ADD SWAP1 PUSH2 0x510 SWAP2 SWAP1 PUSH2 0x3190 JUMP JUMPDEST PUSH2 0x1AD0 JUMP JUMPDEST PUSH1 0x40 MLOAD PUSH2 0x522 SWAP2 SWAP1 PUSH2 0x324D JUMP JUMPDEST PUSH1 0x40 MLOAD DUP1 SWAP2 SUB SWAP1 RETURN JUMPDEST PUSH2 0x545 PUSH1 0x4 DUP1 CALLDATASIZE SUB DUP2 ADD SWAP1 PUSH2 0x540 SWAP2 SWAP1 PUSH2 0x34E4 JUMP JUMPDEST PUSH2 0x1B2F JUMP JUMPDEST STOP JUMPDEST PUSH2 0x54F PUSH2 0x1C61 JUMP JUMPDEST PUSH1 0x40 MLOAD PUSH2 0x55C SWAP2 SWAP1 PUSH2 0x332D JUMP JUMPDEST PUSH1 0x40 MLOAD DUP1 SWAP2 SUB SWAP1 RETURN JUMPDEST PUSH2 0x57F PUSH1 0x4 DUP1 CALLDATASIZE SUB DUP2 ADD SWAP1 PUSH2 0x57A SWAP2 SWAP1 PUSH2 0x3601 JUMP JUMPDEST PUSH2 0x1E54 JUMP JUMPDEST STOP JUMPDEST PUSH2 0x59B PUSH1 0x4 DUP1 CALLDATASIZE SUB DUP2 ADD SWAP1 PUSH2 0x596 SWAP2 SWAP1 PUSH2 0x3190 JUMP JUMPDEST PUSH2 0x1FB8 JUMP JUMPDEST PUSH1 0x40 MLOAD PUSH2 0x5A8 SWAP2 SWAP1 PUSH2 0x324D JUMP JUMPDEST PUSH1 0x40 MLOAD DUP1 SWAP2 SUB SWAP1 RETURN JUMPDEST PUSH2 0x5B9 PUSH2 0x208C JUMP JUMPDEST PUSH1 0x40 MLOAD PUSH2 0x5C6 SWAP2 SWAP1 PUSH2 0x332D JUMP JUMPDEST PUSH1 0x40 MLOAD DUP1 SWAP2 SUB SWAP1 RETURN JUMPDEST PUSH2 0x5E9 PUSH1 0x4 DUP1 CALLDATASIZE SUB DUP2 ADD SWAP1 PUSH2 0x5E4 SWAP2 SWAP1 PUSH2 0x3190 JUMP JUMPDEST PUSH2 0x2120 JUMP JUMPDEST STOP JUMPDEST PUSH2 0x5F4 CALLER PUSH2 0x7C3 JUMP JUMPDEST PUSH2 0x62A JUMPI PUSH1 0x40 MLOAD PUSH32 0x4D371DC700000000000000000000000000000000000000000000000000000000 DUP2 MSTORE PUSH1 0x4 ADD PUSH1 0x40 MLOAD DUP1 SWAP2 SUB SWAP1 REVERT JUMPDEST PUSH2 0x633 DUP2 PUSH2 0x132E JUMP JUMPDEST PUSH2 0x66B JUMPI PUSH2 0x64E DUP2 PUSH1 0x5 PUSH1 0x0 ADD PUSH2 0x21F9 SWAP1 SWAP2 SWAP1 PUSH4 0xFFFFFFFF AND JUMP JUMPDEST ISZERO PUSH2 0x66B JUMPI PUSH2 0x66A DUP2 PUSH1 0x0 PUSH1 0x2 ADD PUSH2 0x228C SWAP1 SWAP2 SWAP1 PUSH4 0xFFFFFFFF AND JUMP JUMPDEST JUMPDEST POP JUMP JUMPDEST PUSH1 0x60 PUSH1 0x0 PUSH1 0x1 ADD DUP1 SLOAD PUSH2 0x680 SWAP1 PUSH2 0x36BB JUMP JUMPDEST DUP1 PUSH1 0x1F ADD PUSH1 0x20 DUP1 SWAP2 DIV MUL PUSH1 0x20 ADD PUSH1 0x40 MLOAD SWAP1 DUP2 ADD PUSH1 0x40 MSTORE DUP1 SWAP3 SWAP2 SWAP1 DUP2 DUP2 MSTORE PUSH1 0x20 ADD DUP3 DUP1 SLOAD PUSH2 0x6AC SWAP1 PUSH2 0x36BB JUMP JUMPDEST DUP1 ISZERO PUSH2 0x6F9 JUMPI DUP1 PUSH1 0x1F LT PUSH2 0x6CE JUMPI PUSH2 0x100 DUP1 DUP4 SLOAD DIV MUL DUP4 MSTORE SWAP2 PUSH1 0x20 ADD SWAP2 PUSH2 0x6F9 JUMP JUMPDEST DUP3 ADD SWAP2 SWAP1 PUSH1 0x0 MSTORE PUSH1 0x20 PUSH1 0x0 KECCAK256 SWAP1 JUMPDEST DUP2 SLOAD DUP2 MSTORE SWAP1 PUSH1 0x1 ADD SWAP1 PUSH1 0x20 ADD DUP1 DUP4 GT PUSH2 0x6DC JUMPI DUP3 SWAP1 SUB PUSH1 0x1F AND DUP3 ADD SWAP2 JUMPDEST POP POP POP POP POP SWAP1 POP SWAP1 JUMP JUMPDEST PUSH1 0x60 PUSH2 0x712 PUSH1 0x5 PUSH1 0x0 ADD PUSH2 0x250F JUMP JUMPDEST SWAP1 POP SWAP1 JUMP JUMPDEST PUSH1 0x0 PUSH2 0x722 CALLER PUSH2 0x130E JUMP JUMPDEST PUSH2 0x758 JUMPI PUSH1 0x40 MLOAD PUSH32 0xC11330E600000000000000000000000000000000000000000000000000000000 DUP2 MSTORE PUSH1 0x4 ADD PUSH1 0x40 MLOAD DUP1 SWAP2 SUB SWAP1 REVERT JUMPDEST PUSH1 0xB PUSH1 0x4 ADD PUSH1 0x0 CALLER PUSH20 0xFFFFFFFFFFFFFFFFFFFFFFFFFFFFFFFFFFFFFFFF AND PUSH20 0xFFFFFFFFFFFFFFFFFFFFFFFFFFFFFFFFFFFFFFFF AND DUP2 MSTORE PUSH1 0x20 ADD SWAP1 DUP2 MSTORE PUSH1 0x20 ADD PUSH1 0x0 KECCAK256 PUSH1 0x0 ADD PUSH1 0x0 SWAP1 SLOAD SWAP1 PUSH2 0x100 EXP SWAP1 DIV PUSH20 0xFFFFFFFFFFFFFFFFFFFFFFFFFFFFFFFFFFFFFFFF AND SWAP1 POP SWAP1 JUMP JUMPDEST PUSH1 0x0 DUP2 PUSH20 0xFFFFFFFFFFFFFFFFFFFFFFFFFFFFFFFFFFFFFFFF AND PUSH1 0x0 DUP1 ADD PUSH1 0x0 SWAP1 SLOAD SWAP1 PUSH2 0x100 EXP SWAP1 DIV PUSH20 0xFFFFFFFFFFFFFFFFFFFFFFFFFFFFFFFFFFFFFFFF AND PUSH20 0xFFFFFFFFFFFFFFFFFFFFFFFFFFFFFFFFFFFFFFFF AND SUB PUSH2 0x825 JUMPI PUSH1 0x1 SWAP1 POP PUSH2 0x82A JUMP JUMPDEST PUSH1 0x0 SWAP1 POP JUMPDEST SWAP2 SWAP1 POP JUMP JUMPDEST PUSH1 0x0 PUSH2 0x848 DUP3 PUSH1 0x5 PUSH1 0x0 ADD PUSH2 0x21F9 SWAP1 SWAP2 SWAP1 PUSH4 0xFFFFFFFF AND JUMP JUMPDEST SWAP1 POP SWAP2 SWAP1 POP JUMP JUMPDEST PUSH2 0x858 CALLER PUSH2 0x130E JUMP JUMPDEST ISZERO PUSH2 0x898 JUMPI PUSH1 0x40 MLOAD PUSH32 0x8C379A000000000000000000000000000000000000000000000000000000000 DUP2 MSTORE PUSH1 0x4 ADD PUSH2 0x88F SWAP1 PUSH2 0x375E JUMP JUMPDEST PUSH1 0x40 MLOAD DUP1 SWAP2 SUB SWAP1 REVERT JUMPDEST PUSH1 0x0 DUP2 MLOAD SUB PUSH2 0x8DC JUMPI PUSH1 0x40 MLOAD PUSH32 0x8C379A000000000000000000000000000000000000000000000000000000000 DUP2 MSTORE PUSH1 0x4 ADD PUSH2 0x8D3 SWAP1 PUSH2 0x37F0 JUMP JUMPDEST PUSH1 0x40 MLOAD DUP1 SWAP2 SUB SWAP1 REVERT JUMPDEST PUSH2 0x8F5 CALLER DUP3 PUSH1 0x5 PUSH1 0x0 ADD PUSH2 0x25A4 SWAP1 SWAP3 SWAP2 SWAP1 PUSH4 0xFFFFFFFF AND JUMP JUMPDEST PUSH2 0x90C CALLER PUSH1 0x0 PUSH1 0x2 ADD PUSH2 0x260B SWAP1 SWAP2 SWAP1 PUSH4 0xFFFFFFFF AND JUMP JUMPDEST POP JUMP JUMPDEST PUSH1 0x60 PUSH2 0x91A DUP3 PUSH2 0x130E JUMP JUMPDEST PUSH2 0x950 JUMPI PUSH1 0x40 MLOAD PUSH32 0xC11330E600000000000000000000000000000000000000000000000000000000 DUP2 MSTORE PUSH1 0x4 ADD PUSH1 0x40 MLOAD DUP1 SWAP2 SUB SWAP1 REVERT JUMPDEST DUP2 PUSH20 0xFFFFFFFFFFFFFFFFFFFFFFFFFFFFFFFFFFFFFFFF AND CALLER PUSH20 0xFFFFFFFFFFFFFFFFFFFFFFFFFFFFFFFFFFFFFFFF AND EQ DUP1 PUSH2 0xA1A JUMPI POP CALLER PUSH20 0xFFFFFFFFFFFFFFFFFFFFFFFFFFFFFFFFFFFFFFFF AND PUSH1 0xB PUSH1 0x4 ADD PUSH1 0x0 DUP5 PUSH20 0xFFFFFFFFFFFFFFFFFFFFFFFFFFFFFFFFFFFFFFFF AND PUSH20 0xFFFFFFFFFFFFFFFFFFFFFFFFFFFFFFFFFFFFFFFF AND DUP2 MSTORE PUSH1 0x20 ADD SWAP1 DUP2 MSTORE PUSH1 0x20 ADD PUSH1 0x0 KECCAK256 PUSH1 0x0 ADD PUSH1 0x0 SWAP1 SLOAD SWAP1 PUSH2 0x100 EXP SWAP1 DIV PUSH20 0xFFFFFFFFFFFFFFFFFFFFFFFFFFFFFFFFFFFFFFFF AND PUSH20 0xFFFFFFFFFFFFFFFFFFFFFFFFFFFFFFFFFFFFFFFF AND EQ JUMPDEST DUP1 PUSH2 0xB20 JUMPI POP PUSH32 0xFFFFFFFFFFFFFFFFFFFFFFFFFFFFFFFFFFFFFFFFFFFFFFFFFFFFFFFFFFFFFFFF PUSH2 0xB1D CALLER PUSH1 0xB PUSH1 0x4 ADD PUSH1 0x0 DUP7 PUSH20 0xFFFFFFFFFFFFFFFFFFFFFFFFFFFFFFFFFFFFFFFF AND PUSH20 0xFFFFFFFFFFFFFFFFFFFFFFFFFFFFFFFFFFFFFFFF AND DUP2 MSTORE PUSH1 0x20 ADD SWAP1 DUP2 MSTORE PUSH1 0x20 ADD PUSH1 0x0 KECCAK256 PUSH1 0x1 ADD DUP1 SLOAD DUP1 PUSH1 0x20 MUL PUSH1 0x20 ADD PUSH1 0x40 MLOAD SWAP1 DUP2 ADD PUSH1 0x40 MSTORE DUP1 SWAP3 SWAP2 SWAP1 DUP2 DUP2 MSTORE PUSH1 0x20 ADD DUP3 DUP1 SLOAD DUP1 ISZERO PUSH2 0xB0A JUMPI PUSH1 0x20 MUL DUP3 ADD SWAP2 SWAP1 PUSH1 0x0 MSTORE PUSH1 0x20 PUSH1 0x0 KECCAK256 SWAP1 JUMPDEST DUP2 PUSH1 0x0 SWAP1 SLOAD SWAP1 PUSH2 0x100 EXP SWAP1 DIV PUSH20 0xFFFFFFFFFFFFFFFFFFFFFFFFFFFFFFFFFFFFFFFF AND PUSH20 0xFFFFFFFFFFFFFFFFFFFFFFFFFFFFFFFFFFFFFFFF AND DUP2 MSTORE PUSH1 0x20 ADD SWAP1 PUSH1 0x1 ADD SWAP1 DUP1 DUP4 GT PUSH2 0xAC0 JUMPI JUMPDEST POP POP POP POP POP PUSH2 0x276F SWAP1 SWAP2 SWAP1 PUSH4 0xFFFFFFFF AND JUMP JUMPDEST EQ ISZERO JUMPDEST ISZERO PUSH2 0xBFA JUMPI PUSH1 0xB PUSH1 0x4 ADD PUSH1 0x0 DUP4 PUSH20 0xFFFFFFFFFFFFFFFFFFFFFFFFFFFFFFFFFFFFFFFF AND PUSH20 0xFFFFFFFFFFFFFFFFFFFFFFFFFFFFFFFFFFFFFFFF AND DUP2 MSTORE PUSH1 0x20 ADD SWAP1 DUP2 MSTORE PUSH1 0x20 ADD PUSH1 0x0 KECCAK256 PUSH1 0x2 ADD DUP1 SLOAD PUSH2 0xB75 SWAP1 PUSH2 0x36BB JUMP JUMPDEST DUP1 PUSH1 0x1F ADD PUSH1 0x20 DUP1 SWAP2 DIV MUL PUSH1 0x20 ADD PUSH1 0x40 MLOAD SWAP1 DUP2 ADD PUSH1 0x40 MSTORE DUP1 SWAP3 SWAP2 SWAP1 DUP2 DUP2 MSTORE PUSH1 0x20 ADD DUP3 DUP1 SLOAD PUSH2 0xBA1 SWAP1 PUSH2 0x36BB JUMP JUMPDEST DUP1 ISZERO PUSH2 0xBEE JUMPI DUP1 PUSH1 0x1F LT PUSH2 0xBC3 JUMPI PUSH2 0x100 DUP1 DUP4 SLOAD DIV MUL DUP4 MSTORE SWAP2 PUSH1 0x20 ADD SWAP2 PUSH2 0xBEE JUMP JUMPDEST DUP3 ADD SWAP2 SWAP1 PUSH1 0x0 MSTORE PUSH1 0x20 PUSH1 0x0 KECCAK256 SWAP1 JUMPDEST DUP2 SLOAD DUP2 MSTORE SWAP1 PUSH1 0x1 ADD SWAP1 PUSH1 0x20 ADD DUP1 DUP4 GT PUSH2 0xBD1 JUMPI DUP3 SWAP1 SUB PUSH1 0x1F AND DUP3 ADD SWAP2 JUMPDEST POP POP POP POP POP SWAP1 POP PUSH2 0xC35 JUMP JUMPDEST PUSH1 0x40 MLOAD PUSH32 0x8C379A000000000000000000000000000000000000000000000000000000000 DUP2 MSTORE PUSH1 0x4 ADD PUSH2 0xC2C SWAP1 PUSH2 0x385C JUMP JUMPDEST PUSH1 0x40 MLOAD DUP1 SWAP2 SUB SWAP1 REVERT JUMPDEST SWAP2 SWAP1 POP JUMP JUMPDEST PUSH1 0x60 PUSH2 0xC45 DUP3 PUSH2 0x130E JUMP JUMPDEST PUSH2 0xC7B JUMPI PUSH1 0x40 MLOAD PUSH32 0xC11330E600000000000000000000000000000000000000000000000000000000 DUP2 MSTORE PUSH1 0x4 ADD PUSH1 0x40 MLOAD DUP1 SWAP2 SUB SWAP1 REVERT JUMPDEST DUP2 PUSH20 0xFFFFFFFFFFFFFFFFFFFFFFFFFFFFFFFFFFFFFFFF AND CALLER PUSH20 0xFFFFFFFFFFFFFFFFFFFFFFFFFFFFFFFFFFFFFFFF AND EQ DUP1 PUSH2 0xD45 JUMPI POP CALLER PUSH20 0xFFFFFFFFFFFFFFFFFFFFFFFFFFFFFFFFFFFFFFFF AND PUSH1 0xB PUSH1 0x4 ADD PUSH1 0x0 DUP5 PUSH20 0xFFFFFFFFFFFFFFFFFFFFFFFFFFFFFFFFFFFFFFFF AND PUSH20 0xFFFFFFFFFFFFFFFFFFFFFFFFFFFFFFFFFFFFFFFF AND DUP2 MSTORE PUSH1 0x20 ADD SWAP1 DUP2 MSTORE PUSH1 0x20 ADD PUSH1 0x0 KECCAK256 PUSH1 0x0 ADD PUSH1 0x0 SWAP1 SLOAD SWAP1 PUSH2 0x100 EXP SWAP1 DIV PUSH20 0xFFFFFFFFFFFFFFFFFFFFFFFFFFFFFFFFFFFFFFFF AND PUSH20 0xFFFFFFFFFFFFFFFFFFFFFFFFFFFFFFFFFFFFFFFF AND EQ JUMPDEST DUP1 PUSH2 0xE4B JUMPI POP PUSH32 0xFFFFFFFFFFFFFFFFFFFFFFFFFFFFFFFFFFFFFFFFFFFFFFFFFFFFFFFFFFFFFFFF PUSH2 0xE48 CALLER PUSH1 0xB PUSH1 0x4 ADD PUSH1 0x0 DUP7 PUSH20 0xFFFFFFFFFFFFFFFFFFFFFFFFFFFFFFFFFFFFFFFF AND PUSH20 0xFFFFFFFFFFFFFFFFFFFFFFFFFFFFFFFFFFFFFFFF AND DUP2 MSTORE PUSH1 0x20 ADD SWAP1 DUP2 MSTORE PUSH1 0x20 ADD PUSH1 0x0 KECCAK256 PUSH1 0x1 ADD DUP1 SLOAD DUP1 PUSH1 0x20 MUL PUSH1 0x20 ADD PUSH1 0x40 MLOAD SWAP1 DUP2 ADD PUSH1 0x40 MSTORE DUP1 SWAP3 SWAP2 SWAP1 DUP2 DUP2 MSTORE PUSH1 0x20 ADD DUP3 DUP1 SLOAD DUP1 ISZERO PUSH2 0xE35 JUMPI PUSH1 0x20 MUL DUP3 ADD SWAP2 SWAP1 PUSH1 0x0 MSTORE PUSH1 0x20 PUSH1 0x0 KECCAK256 SWAP1 JUMPDEST DUP2 PUSH1 0x0 SWAP1 SLOAD SWAP1 PUSH2 0x100 EXP SWAP1 DIV PUSH20 0xFFFFFFFFFFFFFFFFFFFFFFFFFFFFFFFFFFFFFFFF AND PUSH20 0xFFFFFFFFFFFFFFFFFFFFFFFFFFFFFFFFFFFFFFFF AND DUP2 MSTORE PUSH1 0x20 ADD SWAP1 PUSH1 0x1 ADD SWAP1 DUP1 DUP4 GT PUSH2 0xDEB JUMPI JUMPDEST POP POP POP POP POP PUSH2 0x276F SWAP1 SWAP2 SWAP1 PUSH4 0xFFFFFFFF AND JUMP JUMPDEST EQ ISZERO JUMPDEST ISZERO PUSH2 0xE6E JUMPI PUSH2 0xE67 DUP3 PUSH1 0xB PUSH1 0x0 ADD PUSH2 0x2814 SWAP1 SWAP2 SWAP1 PUSH4 0xFFFFFFFF AND JUMP JUMPDEST SWAP1 POP PUSH2 0xEA9 JUMP JUMPDEST PUSH1 0x40 MLOAD PUSH32 0x8C379A000000000000000000000000000000000000000000000000000000000 DUP2 MSTORE PUSH1 0x4 ADD PUSH2 0xEA0 SWAP1 PUSH2 0x385C JUMP JUMPDEST PUSH1 0x40 MLOAD DUP1 SWAP2 SUB SWAP1 REVERT JUMPDEST SWAP2 SWAP1 POP JUMP JUMPDEST PUSH2 0xEB7 CALLER PUSH2 0x130E JUMP JUMPDEST PUSH2 0xEED JUMPI PUSH1 0x40 MLOAD PUSH32 0xC11330E600000000000000000000000000000000000000000000000000000000 DUP2 MSTORE PUSH1 0x4 ADD PUSH1 0x40 MLOAD DUP1 SWAP2 SUB SWAP1 REVERT JUMPDEST PUSH1 0x0 PUSH1 0xB PUSH1 0x4 ADD PUSH1 0x0 CALLER PUSH20 0xFFFFFFFFFFFFFFFFFFFFFFFFFFFFFFFFFFFFFFFF AND PUSH20 0xFFFFFFFFFFFFFFFFFFFFFFFFFFFFFFFFFFFFFFFF AND DUP2 MSTORE PUSH1 0x20 ADD SWAP1 DUP2 MSTORE PUSH1 0x20 ADD PUSH1 0x0 KECCAK256 PUSH1 0x0 ADD PUSH1 0x0 SWAP1 SLOAD SWAP1 PUSH2 0x100 EXP SWAP1 DIV PUSH20 0xFFFFFFFFFFFFFFFFFFFFFFFFFFFFFFFFFFFFFFFF AND SWAP1 POP CALLER PUSH1 0xB PUSH1 0x4 ADD PUSH1 0x0 CALLER PUSH20 0xFFFFFFFFFFFFFFFFFFFFFFFFFFFFFFFFFFFFFFFF AND PUSH20 0xFFFFFFFFFFFFFFFFFFFFFFFFFFFFFFFFFFFFFFFF AND DUP2 MSTORE PUSH1 0x20 ADD SWAP1 DUP2 MSTORE PUSH1 0x20 ADD PUSH1 0x0 KECCAK256 PUSH1 0x0 ADD PUSH1 0x0 PUSH2 0x100 EXP DUP2 SLOAD DUP2 PUSH20 0xFFFFFFFFFFFFFFFFFFFFFFFFFFFFFFFFFFFFFFFF MUL NOT AND SWAP1 DUP4 PUSH20 0xFFFFFFFFFFFFFFFFFFFFFFFFFFFFFFFFFFFFFFFF AND MUL OR SWAP1 SSTORE POP PUSH2 0x102E CALLER PUSH1 0x5 DUP1 ADD PUSH1 0x0 DUP5 PUSH20 0xFFFFFFFFFFFFFFFFFFFFFFFFFFFFFFFFFFFFFFFF AND PUSH20 0xFFFFFFFFFFFFFFFFFFFFFFFFFFFFFFFFFFFFFFFF AND DUP2 MSTORE PUSH1 0x20 ADD SWAP1 DUP2 MSTORE PUSH1 0x20 ADD PUSH1 0x0 KECCAK256 PUSH2 0x228C SWAP1 SWAP2 SWAP1 PUSH4 0xFFFFFFFF AND JUMP JUMPDEST PUSH2 0x1047 CALLER DUP5 PUSH1 0xB PUSH1 0x0 ADD PUSH2 0x2834 SWAP1 SWAP3 SWAP2 SWAP1 PUSH4 0xFFFFFFFF AND JUMP JUMPDEST DUP2 PUSH1 0xB PUSH1 0x4 ADD PUSH1 0x0 CALLER PUSH20 0xFFFFFFFFFFFFFFFFFFFFFFFFFFFFFFFFFFFFFFFF AND PUSH20 0xFFFFFFFFFFFFFFFFFFFFFFFFFFFFFFFFFFFFFFFF AND DUP2 MSTORE PUSH1 0x20 ADD SWAP1 DUP2 MSTORE PUSH1 0x20 ADD PUSH1 0x0 KECCAK256 PUSH1 0x2 ADD SWAP1 DUP2 PUSH2 0x1099 SWAP2 SWAP1 PUSH2 0x3A32 JUMP JUMPDEST POP POP POP POP JUMP JUMPDEST PUSH1 0x0 PUSH2 0x10B8 DUP3 PUSH1 0x0 PUSH1 0x2 ADD PUSH2 0x2851 SWAP1 SWAP2 SWAP1 PUSH4 0xFFFFFFFF AND JUMP JUMPDEST SWAP1 POP SWAP2 SWAP1 POP JUMP JUMPDEST PUSH1 0x0 DUP1 PUSH1 0x0 ADD PUSH1 0x0 SWAP1 SLOAD SWAP1 PUSH2 0x100 EXP SWAP1 DIV PUSH20 0xFFFFFFFFFFFFFFFFFFFFFFFFFFFFFFFFFFFFFFFF AND SWAP1 POP SWAP1 JUMP JUMPDEST PUSH2 0x10F4 CALLER PUSH2 0x7C3 JUMP JUMPDEST PUSH2 0x112A JUMPI PUSH1 0x40 MLOAD PUSH32 0x4D371DC700000000000000000000000000000000000000000000000000000000 DUP2 MSTORE PUSH1 0x4 ADD PUSH1 0x40 MLOAD DUP1 SWAP2 SUB SWAP1 REVERT JUMPDEST PUSH2 0x1133 DUP2 PUSH2 0x109F JUMP JUMPDEST PUSH2 0x1172 JUMPI PUSH1 0x40 MLOAD PUSH32 0x8C379A000000000000000000000000000000000000000000000000000000000 DUP2 MSTORE PUSH1 0x4 ADD PUSH2 0x1169 SWAP1 PUSH2 0x3B50 JUMP JUMPDEST PUSH1 0x40 MLOAD DUP1 SWAP2 SUB SWAP1 REVERT JUMPDEST PUSH2 0x1189 DUP2 PUSH1 0x5 PUSH1 0x0 ADD PUSH2 0x28AA SWAP1 SWAP2 SWAP1 PUSH4 0xFFFFFFFF AND JUMP JUMPDEST PUSH2 0x11A0 DUP2 PUSH1 0x0 PUSH1 0x2 ADD PUSH2 0x228C SWAP1 SWAP2 SWAP1 PUSH4 0xFFFFFFFF AND JUMP JUMPDEST POP JUMP JUMPDEST PUSH2 0x11AC CALLER PUSH2 0x130E JUMP JUMPDEST PUSH2 0x11E2 JUMPI PUSH1 0x40 MLOAD PUSH32 0xC11330E600000000000000000000000000000000000000000000000000000000 DUP2 MSTORE PUSH1 0x4 ADD PUSH1 0x40 MLOAD DUP1 SWAP2 SUB SWAP1 REVERT JUMPDEST PUSH2 0x11FB CALLER DUP3 PUSH1 0xB PUSH1 0x0 ADD PUSH2 0x2834 SWAP1 SWAP3 SWAP2 SWAP1 PUSH4 0xFFFFFFFF AND JUMP JUMPDEST POP JUMP JUMPDEST PUSH1 0x60 PUSH2 0x1209 CALLER PUSH2 0x130E JUMP JUMPDEST PUSH2 0x123F JUMPI PUSH1 0x40 MLOAD PUSH32 0xC11330E600000000000000000000000000000000000000000000000000000000 DUP2 MSTORE PUSH1 0x4 ADD PUSH1 0x40 MLOAD DUP1 SWAP2 SUB SWAP1 REVERT JUMPDEST PUSH1 0xB PUSH1 0x4 ADD PUSH1 0x0 CALLER PUSH20 0xFFFFFFFFFFFFFFFFFFFFFFFFFFFFFFFFFFFFFFFF AND PUSH20 0xFFFFFFFFFFFFFFFFFFFFFFFFFFFFFFFFFFFFFFFF AND DUP2 MSTORE PUSH1 0x20 ADD SWAP1 DUP2 MSTORE PUSH1 0x20 ADD PUSH1 0x0 KECCAK256 PUSH1 0x1 ADD DUP1 SLOAD DUP1 PUSH1 0x20 MUL PUSH1 0x20 ADD PUSH1 0x40 MLOAD SWAP1 DUP2 ADD PUSH1 0x40 MSTORE DUP1 SWAP3 SWAP2 SWAP1 DUP2 DUP2 MSTORE PUSH1 0x20 ADD DUP3 DUP1 SLOAD DUP1 ISZERO PUSH2 0x1304 JUMPI PUSH1 0x20 MUL DUP3 ADD SWAP2 SWAP1 PUSH1 0x0 MSTORE PUSH1 0x20 PUSH1 0x0 KECCAK256 SWAP1 JUMPDEST DUP2 PUSH1 0x0 SWAP1 SLOAD SWAP1 PUSH2 0x100 EXP SWAP1 DIV PUSH20 0xFFFFFFFFFFFFFFFFFFFFFFFFFFFFFFFFFFFFFFFF AND PUSH20 0xFFFFFFFFFFFFFFFFFFFFFFFFFFFFFFFFFFFFFFFF AND DUP2 MSTORE PUSH1 0x20 ADD SWAP1 PUSH1 0x1 ADD SWAP1 DUP1 DUP4 GT PUSH2 0x12BA JUMPI JUMPDEST POP POP POP POP POP SWAP1 POP SWAP1 JUMP JUMPDEST PUSH1 0x0 PUSH2 0x1327 DUP3 PUSH1 0xB PUSH1 0x0 ADD PUSH2 0x21F9 SWAP1 SWAP2 SWAP1 PUSH4 0xFFFFFFFF AND JUMP JUMPDEST SWAP1 POP SWAP2 SWAP1 POP JUMP JUMPDEST PUSH1 0x0 PUSH2 0x1347 DUP3 PUSH1 0x5 PUSH1 0x0 ADD PUSH2 0x21F9 SWAP1 SWAP2 SWAP1 PUSH4 0xFFFFFFFF AND JUMP JUMPDEST PUSH2 0x1354 JUMPI PUSH1 0x0 SWAP1 POP PUSH2 0x13DD JUMP JUMPDEST PUSH2 0x136B DUP3 PUSH1 0x0 PUSH1 0x2 ADD PUSH2 0x2851 SWAP1 SWAP2 SWAP1 PUSH4 0xFFFFFFFF AND JUMP JUMPDEST ISZERO PUSH2 0x1379 JUMPI PUSH1 0x0 SWAP1 POP PUSH2 0x13DD JUMP JUMPDEST PUSH1 0x0 PUSH1 0x5 PUSH1 0x4 ADD PUSH1 0x0 DUP5 PUSH20 0xFFFFFFFFFFFFFFFFFFFFFFFFFFFFFFFFFFFFFFFF AND PUSH20 0xFFFFFFFFFFFFFFFFFFFFFFFFFFFFFFFFFFFFFFFF AND DUP2 MSTORE PUSH1 0x20 ADD SWAP1 DUP2 MSTORE PUSH1 0x20 ADD PUSH1 0x0 KECCAK256 DUP1 SLOAD PUSH2 0x13C8 SWAP1 PUSH2 0x36BB JUMP JUMPDEST SWAP1 POP SUB PUSH2 0x13D8 JUMPI PUSH1 0x0 SWAP1 POP PUSH2 0x13DD JUMP JUMPDEST PUSH1 0x1 SWAP1 POP JUMPDEST SWAP2 SWAP1 POP JUMP JUMPDEST PUSH2 0x13F9 CALLER PUSH1 0x5 PUSH1 0x0 ADD PUSH2 0x21F9 SWAP1 SWAP2 SWAP1 PUSH4 0xFFFFFFFF AND JUMP JUMPDEST PUSH2 0x142F JUMPI PUSH1 0x40 MLOAD PUSH32 0xFE2FC9C600000000000000000000000000000000000000000000000000000000 DUP2 MSTORE PUSH1 0x4 ADD PUSH1 0x40 MLOAD DUP1 SWAP2 SUB SWAP1 REVERT JUMPDEST PUSH2 0x1446 CALLER PUSH1 0x0 PUSH1 0x2 ADD PUSH2 0x2851 SWAP1 SWAP2 SWAP1 PUSH4 0xFFFFFFFF AND JUMP JUMPDEST ISZERO PUSH2 0x147D JUMPI PUSH1 0x40 MLOAD PUSH32 0xF873D3B700000000000000000000000000000000000000000000000000000000 DUP2 MSTORE PUSH1 0x4 ADD PUSH1 0x40 MLOAD DUP1 SWAP2 SUB SWAP1 REVERT JUMPDEST PUSH1 0x0 PUSH1 0x5 PUSH1 0x4 ADD PUSH1 0x0 CALLER PUSH20 0xFFFFFFFFFFFFFFFFFFFFFFFFFFFFFFFFFFFFFFFF AND PUSH20 0xFFFFFFFFFFFFFFFFFFFFFFFFFFFFFFFFFFFFFFFF AND DUP2 MSTORE PUSH1 0x20 ADD SWAP1 DUP2 MSTORE PUSH1 0x20 ADD PUSH1 0x0 KECCAK256 DUP1 SLOAD PUSH2 0x14CC SWAP1 PUSH2 0x36BB JUMP JUMPDEST SWAP1 POP SUB PUSH2 0x1505 JUMPI PUSH1 0x40 MLOAD PUSH32 0xA30132D500000000000000000000000000000000000000000000000000000000 DUP2 MSTORE PUSH1 0x4 ADD PUSH1 0x40 MLOAD DUP1 SWAP2 SUB SWAP1 REVERT JUMPDEST PUSH1 0x0 DUP2 MLOAD SUB PUSH2 0x1549 JUMPI PUSH1 0x40 MLOAD PUSH32 0x8C379A000000000000000000000000000000000000000000000000000000000 DUP2 MSTORE PUSH1 0x4 ADD PUSH2 0x1540 SWAP1 PUSH2 0x3BE2 JUMP JUMPDEST PUSH1 0x40 MLOAD DUP1 SWAP2 SUB SWAP1 REVERT JUMPDEST PUSH2 0x1562 CALLER DUP3 PUSH1 0x5 PUSH1 0x0 ADD PUSH2 0x2834 SWAP1 SWAP3 SWAP2 SWAP1 PUSH4 0xFFFFFFFF AND JUMP JUMPDEST POP JUMP JUMPDEST PUSH2 0x156E CALLER PUSH2 0x82F JUMP JUMPDEST DUP1 PUSH2 0x157E JUMPI POP PUSH2 0x157D CALLER PUSH2 0x132E JUMP JUMPDEST JUMPDEST ISZERO PUSH2 0x15BE JUMPI PUSH1 0x40 MLOAD PUSH32 0x8C379A000000000000000000000000000000000000000000000000000000000 DUP2 MSTORE PUSH1 0x4 ADD PUSH2 0x15B5 SWAP1 PUSH2 0x3C74 JUMP JUMPDEST PUSH1 0x40 MLOAD DUP1 SWAP2 SUB SWAP1 REVERT JUMPDEST PUSH1 0x0 DUP3 MLOAD SUB PUSH2 0x1602 JUMPI PUSH1 0x40 MLOAD PUSH32 0x8C379A000000000000000000000000000000000000000000000000000000000 DUP2 MSTORE PUSH1 0x4 ADD PUSH2 0x15F9 SWAP1 PUSH2 0x37F0 JUMP JUMPDEST PUSH1 0x40 MLOAD DUP1 SWAP2 SUB SWAP1 REVERT JUMPDEST PUSH2 0x161B CALLER DUP4 PUSH1 0xB PUSH1 0x0 ADD PUSH2 0x25A4 SWAP1 SWAP3 SWAP2 SWAP1 PUSH4 0xFFFFFFFF AND JUMP JUMPDEST CALLER PUSH1 0xB PUSH1 0x4 ADD PUSH1 0x0 CALLER PUSH20 0xFFFFFFFFFFFFFFFFFFFFFFFFFFFFFFFFFFFFFFFF AND PUSH20 0xFFFFFFFFFFFFFFFFFFFFFFFFFFFFFFFFFFFFFFFF AND DUP2 MSTORE PUSH1 0x20 ADD SWAP1 DUP2 MSTORE PUSH1 0x20 ADD PUSH1 0x0 KECCAK256 PUSH1 0x0 ADD PUSH1 0x0 PUSH2 0x100 EXP DUP2 SLOAD DUP2 PUSH20 0xFFFFFFFFFFFFFFFFFFFFFFFFFFFFFFFFFFFFFFFF MUL NOT AND SWAP1 DUP4 PUSH20 0xFFFFFFFFFFFFFFFFFFFFFFFFFFFFFFFFFFFFFFFF AND MUL OR SWAP1 SSTORE POP DUP1 PUSH1 0xB PUSH1 0x4 ADD PUSH1 0x0 CALLER PUSH20 0xFFFFFFFFFFFFFFFFFFFFFFFFFFFFFFFFFFFFFFFF AND PUSH20 0xFFFFFFFFFFFFFFFFFFFFFFFFFFFFFFFFFFFFFFFF AND DUP2 MSTORE PUSH1 0x20 ADD SWAP1 DUP2 MSTORE PUSH1 0x20 ADD PUSH1 0x0 KECCAK256 PUSH1 0x2 ADD SWAP1 DUP2 PUSH2 0x16F1 SWAP2 SWAP1 PUSH2 0x3A32 JUMP JUMPDEST POP POP POP JUMP JUMPDEST PUSH1 0x60 PUSH2 0x1705 PUSH1 0xB PUSH1 0x0 ADD PUSH2 0x250F JUMP JUMPDEST SWAP1 POP SWAP1 JUMP JUMPDEST PUSH2 0x1713 CALLER PUSH2 0x7C3 JUMP JUMPDEST PUSH2 0x1749 JUMPI PUSH1 0x40 MLOAD PUSH32 0x4D371DC700000000000000000000000000000000000000000000000000000000 DUP2 MSTORE PUSH1 0x4 ADD PUSH1 0x40 MLOAD DUP1 SWAP2 SUB SWAP1 REVERT JUMPDEST DUP1 PUSH1 0x0 PUSH1 0x1 ADD SWAP1 DUP2 PUSH2 0x175B SWAP2 SWAP1 PUSH2 0x3A32 JUMP JUMPDEST POP POP JUMP JUMPDEST PUSH2 0x1768 CALLER PUSH2 0x130E JUMP JUMPDEST PUSH2 0x179E JUMPI PUSH1 0x40 MLOAD PUSH32 0xC11330E600000000000000000000000000000000000000000000000000000000 DUP2 MSTORE PUSH1 0x4 ADD PUSH1 0x40 MLOAD DUP1 SWAP2 SUB SWAP1 REVERT JUMPDEST PUSH2 0x17A7 DUP2 PUSH2 0x132E JUMP JUMPDEST PUSH2 0x17DD JUMPI PUSH1 0x40 MLOAD PUSH32 0xFE2FC9C600000000000000000000000000000000000000000000000000000000 DUP2 MSTORE PUSH1 0x4 ADD PUSH1 0x40 MLOAD DUP1 SWAP2 SUB SWAP1 REVERT JUMPDEST PUSH2 0x18B9 DUP2 PUSH1 0xB PUSH1 0x4 ADD PUSH1 0x0 CALLER PUSH20 0xFFFFFFFFFFFFFFFFFFFFFFFFFFFFFFFFFFFFFFFF AND PUSH20 0xFFFFFFFFFFFFFFFFFFFFFFFFFFFFFFFFFFFFFFFF AND DUP2 MSTORE PUSH1 0x20 ADD SWAP1 DUP2 MSTORE PUSH1 0x20 ADD PUSH1 0x0 KECCAK256 PUSH1 0x1 ADD DUP1 SLOAD DUP1 PUSH1 0x20 MUL PUSH1 0x20 ADD PUSH1 0x40 MLOAD SWAP1 DUP2 ADD PUSH1 0x40 MSTORE DUP1 SWAP3 SWAP2 SWAP1 DUP2 DUP2 MSTORE PUSH1 0x20 ADD DUP3 DUP1 SLOAD DUP1 ISZERO PUSH2 0x18A6 JUMPI PUSH1 0x20 MUL DUP3 ADD SWAP2 SWAP1 PUSH1 0x0 MSTORE PUSH1 0x20 PUSH1 0x0 KECCAK256 SWAP1 JUMPDEST DUP2 PUSH1 0x0 SWAP1 SLOAD SWAP1 PUSH2 0x100 EXP SWAP1 DIV PUSH20 0xFFFFFFFFFFFFFFFFFFFFFFFFFFFFFFFFFFFFFFFF AND PUSH20 0xFFFFFFFFFFFFFFFFFFFFFFFFFFFFFFFFFFFFFFFF AND DUP2 MSTORE PUSH1 0x20 ADD SWAP1 PUSH1 0x1 ADD SWAP1 DUP1 DUP4 GT PUSH2 0x185C JUMPI JUMPDEST POP POP POP POP POP PUSH2 0x290D SWAP1 SWAP2 SWAP1 PUSH4 0xFFFFFFFF AND JUMP JUMPDEST PUSH2 0x1964 JUMPI PUSH1 0xB PUSH1 0x4 ADD PUSH1 0x0 CALLER PUSH20 0xFFFFFFFFFFFFFFFFFFFFFFFFFFFFFFFFFFFFFFFF AND PUSH20 0xFFFFFFFFFFFFFFFFFFFFFFFFFFFFFFFFFFFFFFFF AND DUP2 MSTORE PUSH1 0x20 ADD SWAP1 DUP2 MSTORE PUSH1 0x20 ADD PUSH1 0x0 KECCAK256 PUSH1 0x1 ADD DUP2 SWAP1 DUP1 PUSH1 0x1 DUP2 SLOAD ADD DUP1 DUP3 SSTORE DUP1 SWAP2 POP POP PUSH1 0x1 SWAP1 SUB SWAP1 PUSH1 0x0 MSTORE PUSH1 0x20 PUSH1 0x0 KECCAK256 ADD PUSH1 0x0 SWAP1 SWAP2 SWAP1 SWAP2 SWAP1 SWAP2 PUSH2 0x100 EXP DUP2 SLOAD DUP2 PUSH20 0xFFFFFFFFFFFFFFFFFFFFFFFFFFFFFFFFFFFFFFFF MUL NOT AND SWAP1 DUP4 PUSH20 0xFFFFFFFFFFFFFFFFFFFFFFFFFFFFFFFFFFFFFFFF AND MUL OR SWAP1 SSTORE POP JUMPDEST POP JUMP JUMPDEST PUSH2 0x1970 DUP3 PUSH2 0x130E JUMP JUMPDEST PUSH2 0x19A6 JUMPI PUSH1 0x40 MLOAD PUSH32 0xC11330E600000000000000000000000000000000000000000000000000000000 DUP2 MSTORE PUSH1 0x4 ADD PUSH1 0x40 MLOAD DUP1 SWAP2 SUB SWAP1 REVERT JUMPDEST CALLER PUSH20 0xFFFFFFFFFFFFFFFFFFFFFFFFFFFFFFFFFFFFFFFF AND PUSH1 0xB PUSH1 0x4 ADD PUSH1 0x0 DUP5 PUSH20 0xFFFFFFFFFFFFFFFFFFFFFFFFFFFFFFFFFFFFFFFF AND PUSH20 0xFFFFFFFFFFFFFFFFFFFFFFFFFFFFFFFFFFFFFFFF AND DUP2 MSTORE PUSH1 0x20 ADD SWAP1 DUP2 MSTORE PUSH1 0x20 ADD PUSH1 0x0 KECCAK256 PUSH1 0x0 ADD PUSH1 0x0 SWAP1 SLOAD SWAP1 PUSH2 0x100 EXP SWAP1 DIV PUSH20 0xFFFFFFFFFFFFFFFFFFFFFFFFFFFFFFFFFFFFFFFF AND PUSH20 0xFFFFFFFFFFFFFFFFFFFFFFFFFFFFFFFFFFFFFFFF AND EQ PUSH2 0x1A79 JUMPI PUSH1 0x40 MLOAD PUSH32 0x8C379A000000000000000000000000000000000000000000000000000000000 DUP2 MSTORE PUSH1 0x4 ADD PUSH2 0x1A70 SWAP1 PUSH2 0x385C JUMP JUMPDEST PUSH1 0x40 MLOAD DUP1 SWAP2 SUB SWAP1 REVERT JUMPDEST DUP1 PUSH1 0xB PUSH1 0x4 ADD PUSH1 0x0 DUP5 PUSH20 0xFFFFFFFFFFFFFFFFFFFFFFFFFFFFFFFFFFFFFFFF AND PUSH20 0xFFFFFFFFFFFFFFFFFFFFFFFFFFFFFFFFFFFFFFFF AND DUP2 MSTORE PUSH1 0x20 ADD SWAP1 DUP2 MSTORE PUSH1 0x20 ADD PUSH1 0x0 KECCAK256 PUSH1 0x2 ADD SWAP1 DUP2 PUSH2 0x1ACB SWAP2 SWAP1 PUSH2 0x3A32 JUMP JUMPDEST POP POP POP JUMP JUMPDEST PUSH1 0x60 PUSH2 0x1ADB DUP3 PUSH2 0x82F JUMP JUMPDEST PUSH2 0x1B11 JUMPI PUSH1 0x40 MLOAD PUSH32 0xFE2FC9C600000000000000000000000000000000000000000000000000000000 DUP2 MSTORE PUSH1 0x4 ADD PUSH1 0x40 MLOAD DUP1 SWAP2 SUB SWAP1 REVERT JUMPDEST PUSH2 0x1B28 DUP3 PUSH1 0x5 PUSH1 0x0 ADD PUSH2 0x2814 SWAP1 SWAP2 SWAP1 PUSH4 0xFFFFFFFF AND JUMP JUMPDEST SWAP1 POP SWAP2 SWAP1 POP JUMP JUMPDEST PUSH1 0x0 DUP2 MLOAD SUB PUSH2 0x1B73 JUMPI PUSH1 0x40 MLOAD PUSH32 0x8C379A000000000000000000000000000000000000000000000000000000000 DUP2 MSTORE PUSH1 0x4 ADD PUSH2 0x1B6A SWAP1 PUSH2 0x3D06 JUMP JUMPDEST PUSH1 0x40 MLOAD DUP1 SWAP2 SUB SWAP1 REVERT JUMPDEST PUSH2 0x1B8A CALLER PUSH1 0x5 PUSH1 0x0 ADD PUSH2 0x21F9 SWAP1 SWAP2 SWAP1 PUSH4 0xFFFFFFFF AND JUMP JUMPDEST PUSH2 0x1BC0 JUMPI PUSH1 0x40 MLOAD PUSH32 0xFE2FC9C600000000000000000000000000000000000000000000000000000000 DUP2 MSTORE PUSH1 0x4 ADD PUSH1 0x40 MLOAD DUP1 SWAP2 SUB SWAP1 REVERT JUMPDEST PUSH2 0x1BD7 CALLER PUSH1 0x0 PUSH1 0x2 ADD PUSH2 0x2851 SWAP1 SWAP2 SWAP1 PUSH4 0xFFFFFFFF AND JUMP JUMPDEST ISZERO PUSH2 0x1C0E JUMPI PUSH1 0x40 MLOAD PUSH32 0xF873D3B700000000000000000000000000000000000000000000000000000000 DUP2 MSTORE PUSH1 0x4 ADD PUSH1 0x40 MLOAD DUP1 SWAP2 SUB SWAP1 REVERT JUMPDEST DUP1 PUSH1 0x5 PUSH1 0x4 ADD PUSH1 0x0 CALLER PUSH20 0xFFFFFFFFFFFFFFFFFFFFFFFFFFFFFFFFFFFFFFFF AND PUSH20 0xFFFFFFFFFFFFFFFFFFFFFFFFFFFFFFFFFFFFFFFF AND DUP2 MSTORE PUSH1 0x20 ADD SWAP1 DUP2 MSTORE PUSH1 0x20 ADD PUSH1 0x0 KECCAK256 SWAP1 DUP2 PUSH2 0x1C5D SWAP2 SWAP1 PUSH2 0x3A32 JUMP JUMPDEST POP POP JUMP JUMPDEST PUSH1 0x60 PUSH2 0x1C7A CALLER PUSH1 0x5 PUSH1 0x0 ADD PUSH2 0x21F9 SWAP1 SWAP2 SWAP1 PUSH4 0xFFFFFFFF AND JUMP JUMPDEST PUSH2 0x1CB0 JUMPI PUSH1 0x40 MLOAD PUSH32 0xFE2FC9C600000000000000000000000000000000000000000000000000000000 DUP2 MSTORE PUSH1 0x4 ADD PUSH1 0x40 MLOAD DUP1 SWAP2 SUB SWAP1 REVERT JUMPDEST PUSH2 0x1CC7 CALLER PUSH1 0x0 PUSH1 0x2 ADD PUSH2 0x2851 SWAP1 SWAP2 SWAP1 PUSH4 0xFFFFFFFF AND JUMP JUMPDEST ISZERO PUSH2 0x1CFE JUMPI PUSH1 0x40 MLOAD PUSH32 0xF873D3B700000000000000000000000000000000000000000000000000000000 DUP2 MSTORE PUSH1 0x4 ADD PUSH1 0x40 MLOAD DUP1 SWAP2 SUB SWAP1 REVERT JUMPDEST PUSH1 0x0 PUSH1 0x5 PUSH1 0x4 ADD PUSH1 0x0 CALLER PUSH20 0xFFFFFFFFFFFFFFFFFFFFFFFFFFFFFFFFFFFFFFFF AND PUSH20 0xFFFFFFFFFFFFFFFFFFFFFFFFFFFFFFFFFFFFFFFF AND DUP2 MSTORE PUSH1 0x20 ADD SWAP1 DUP2 MSTORE PUSH1 0x20 ADD PUSH1 0x0 KECCAK256 DUP1 SLOAD PUSH2 0x1D4D SWAP1 PUSH2 0x36BB JUMP JUMPDEST SWAP1 POP SUB PUSH2 0x1D86 JUMPI PUSH1 0x40 MLOAD PUSH32 0xA30132D500000000000000000000000000000000000000000000000000000000 DUP2 MSTORE PUSH1 0x4 ADD PUSH1 0x40 MLOAD DUP1 SWAP2 SUB SWAP1 REVERT JUMPDEST PUSH1 0x5 DUP1 ADD PUSH1 0x0 CALLER PUSH20 0xFFFFFFFFFFFFFFFFFFFFFFFFFFFFFFFFFFFFFFFF AND PUSH20 0xFFFFFFFFFFFFFFFFFFFFFFFFFFFFFFFFFFFFFFFF AND DUP2 MSTORE PUSH1 0x20 ADD SWAP1 DUP2 MSTORE PUSH1 0x20 ADD PUSH1 0x0 KECCAK256 PUSH1 0x0 ADD DUP1 SLOAD DUP1 PUSH1 0x20 MUL PUSH1 0x20 ADD PUSH1 0x40 MLOAD SWAP1 DUP2 ADD PUSH1 0x40 MSTORE DUP1 SWAP3 SWAP2 SWAP1 DUP2 DUP2 MSTORE PUSH1 0x20 ADD DUP3 DUP1 SLOAD DUP1 ISZERO PUSH2 0x1E4A JUMPI PUSH1 0x20 MUL DUP3 ADD SWAP2 SWAP1 PUSH1 0x0 MSTORE PUSH1 0x20 PUSH1 0x0 KECCAK256 SWAP1 JUMPDEST DUP2 PUSH1 0x0 SWAP1 SLOAD SWAP1 PUSH2 0x100 EXP SWAP1 DIV PUSH20 0xFFFFFFFFFFFFFFFFFFFFFFFFFFFFFFFFFFFFFFFF AND PUSH20 0xFFFFFFFFFFFFFFFFFFFFFFFFFFFFFFFFFFFFFFFF AND DUP2 MSTORE PUSH1 0x20 ADD SWAP1 PUSH1 0x1 ADD SWAP1 DUP1 DUP4 GT PUSH2 0x1E00 JUMPI JUMPDEST POP POP POP POP POP SWAP1 POP SWAP1 JUMP JUMPDEST PUSH2 0x1E5D CALLER PUSH2 0x130E JUMP JUMPDEST PUSH2 0x1E93 JUMPI PUSH1 0x40 MLOAD PUSH32 0xC11330E600000000000000000000000000000000000000000000000000000000 DUP2 MSTORE PUSH1 0x4 ADD PUSH1 0x40 MLOAD DUP1 SWAP2 SUB SWAP1 REVERT JUMPDEST PUSH2 0x1E9C DUP4 PUSH2 0x132E JUMP JUMPDEST PUSH2 0x1ED2 JUMPI PUSH1 0x40 MLOAD PUSH32 0xFE2FC9C600000000000000000000000000000000000000000000000000000000 DUP2 MSTORE PUSH1 0x4 ADD PUSH1 0x40 MLOAD DUP1 SWAP2 SUB SWAP1 REVERT JUMPDEST PUSH2 0x1EDC DUP3 DUP3 PUSH2 0xEAE JUMP JUMPDEST DUP3 PUSH1 0xB PUSH1 0x4 ADD PUSH1 0x0 CALLER PUSH20 0xFFFFFFFFFFFFFFFFFFFFFFFFFFFFFFFFFFFFFFFF AND PUSH20 0xFFFFFFFFFFFFFFFFFFFFFFFFFFFFFFFFFFFFFFFF AND DUP2 MSTORE PUSH1 0x20 ADD SWAP1 DUP2 MSTORE PUSH1 0x20 ADD PUSH1 0x0 KECCAK256 PUSH1 0x0 ADD PUSH1 0x0 PUSH2 0x100 EXP DUP2 SLOAD DUP2 PUSH20 0xFFFFFFFFFFFFFFFFFFFFFFFFFFFFFFFFFFFFFFFF MUL NOT AND SWAP1 DUP4 PUSH20 0xFFFFFFFFFFFFFFFFFFFFFFFFFFFFFFFFFFFFFFFF AND MUL OR SWAP1 SSTORE POP PUSH2 0x1FB3 CALLER PUSH1 0x5 DUP1 ADD PUSH1 0x0 DUP7 PUSH20 0xFFFFFFFFFFFFFFFFFFFFFFFFFFFFFFFFFFFFFFFF AND PUSH20 0xFFFFFFFFFFFFFFFFFFFFFFFFFFFFFFFFFFFFFFFF AND DUP2 MSTORE PUSH1 0x20 ADD SWAP1 DUP2 MSTORE PUSH1 0x20 ADD PUSH1 0x0 KECCAK256 PUSH2 0x260B SWAP1 SWAP2 SWAP1 PUSH4 0xFFFFFFFF AND JUMP JUMPDEST POP POP POP JUMP JUMPDEST PUSH1 0x60 PUSH1 0x5 PUSH1 0x4 ADD PUSH1 0x0 DUP4 PUSH20 0xFFFFFFFFFFFFFFFFFFFFFFFFFFFFFFFFFFFFFFFF AND PUSH20 0xFFFFFFFFFFFFFFFFFFFFFFFFFFFFFFFFFFFFFFFF AND DUP2 MSTORE PUSH1 0x20 ADD SWAP1 DUP2 MSTORE PUSH1 0x20 ADD PUSH1 0x0 KECCAK256 DUP1 SLOAD PUSH2 0x2007 SWAP1 PUSH2 0x36BB JUMP JUMPDEST DUP1 PUSH1 0x1F ADD PUSH1 0x20 DUP1 SWAP2 DIV MUL PUSH1 0x20 ADD PUSH1 0x40 MLOAD SWAP1 DUP2 ADD PUSH1 0x40 MSTORE DUP1 SWAP3 SWAP2 SWAP1 DUP2 DUP2 MSTORE PUSH1 0x20 ADD DUP3 DUP1 SLOAD PUSH2 0x2033 SWAP1 PUSH2 0x36BB JUMP JUMPDEST DUP1 ISZERO PUSH2 0x2080 JUMPI DUP1 PUSH1 0x1F LT PUSH2 0x2055 JUMPI PUSH2 0x100 DUP1 DUP4 SLOAD DIV MUL DUP4 MSTORE SWAP2 PUSH1 0x20 ADD SWAP2 PUSH2 0x2080 JUMP JUMPDEST DUP3 ADD SWAP2 SWAP1 PUSH1 0x0 MSTORE PUSH1 0x20 PUSH1 0x0 KECCAK256 SWAP1 JUMPDEST DUP2 SLOAD DUP2 MSTORE SWAP1 PUSH1 0x1 ADD SWAP1 PUSH1 0x20 ADD DUP1 DUP4 GT PUSH2 0x2063 JUMPI DUP3 SWAP1 SUB PUSH1 0x1F AND DUP3 ADD SWAP2 JUMPDEST POP POP POP POP POP SWAP1 POP SWAP2 SWAP1 POP JUMP JUMPDEST PUSH1 0x60 PUSH1 0x0 PUSH1 0x2 ADD PUSH1 0x0 ADD DUP1 SLOAD DUP1 PUSH1 0x20 MUL PUSH1 0x20 ADD PUSH1 0x40 MLOAD SWAP1 DUP2 ADD PUSH1 0x40 MSTORE DUP1 SWAP3 SWAP2 SWAP1 DUP2 DUP2 MSTORE PUSH1 0x20 ADD DUP3 DUP1 SLOAD DUP1 ISZERO PUSH2 0x2116 JUMPI PUSH1 0x20 MUL DUP3 ADD SWAP2 SWAP1 PUSH1 0x0 MSTORE PUSH1 0x20 PUSH1 0x0 KECCAK256 SWAP1 JUMPDEST DUP2 PUSH1 0x0 SWAP1 SLOAD SWAP1 PUSH2 0x100 EXP SWAP1 DIV PUSH20 0xFFFFFFFFFFFFFFFFFFFFFFFFFFFFFFFFFFFFFFFF AND PUSH20 0xFFFFFFFFFFFFFFFFFFFFFFFFFFFFFFFFFFFFFFFF AND DUP2 MSTORE PUSH1 0x20 ADD SWAP1 PUSH1 0x1 ADD SWAP1 DUP1 DUP4 GT PUSH2 0x20CC JUMPI JUMPDEST POP POP POP POP POP SWAP1 POP SWAP1 JUMP JUMPDEST PUSH2 0x2129 CALLER PUSH2 0x130E JUMP JUMPDEST PUSH2 0x215F JUMPI PUSH1 0x40 MLOAD PUSH32 0xC11330E600000000000000000000000000000000000000000000000000000000 DUP2 MSTORE PUSH1 0x4 ADD PUSH1 0x40 MLOAD DUP1 SWAP2 SUB SWAP1 REVERT JUMPDEST PUSH2 0x2168 DUP2 PUSH2 0x132E JUMP JUMPDEST PUSH2 0x219E JUMPI PUSH1 0x40 MLOAD PUSH32 0xFE2FC9C600000000000000000000000000000000000000000000000000000000 DUP2 MSTORE PUSH1 0x4 ADD PUSH1 0x40 MLOAD DUP1 SWAP2 SUB SWAP1 REVERT JUMPDEST PUSH2 0x21F5 DUP2 PUSH1 0xB PUSH1 0x4 ADD PUSH1 0x0 CALLER PUSH20 0xFFFFFFFFFFFFFFFFFFFFFFFFFFFFFFFFFFFFFFFF AND PUSH20 0xFFFFFFFFFFFFFFFFFFFFFFFFFFFFFFFFFFFFFFFF AND DUP2 MSTORE PUSH1 0x20 ADD SWAP1 DUP2 MSTORE PUSH1 0x20 ADD PUSH1 0x0 KECCAK256 PUSH1 0x1 ADD PUSH2 0x2944 SWAP1 SWAP2 SWAP1 PUSH4 0xFFFFFFFF AND JUMP JUMPDEST POP POP JUMP JUMPDEST PUSH1 0x0 DUP1 PUSH20 0xFFFFFFFFFFFFFFFFFFFFFFFFFFFFFFFFFFFFFFFF AND DUP3 PUSH20 0xFFFFFFFFFFFFFFFFFFFFFFFFFFFFFFFFFFFFFFFF AND SUB PUSH2 0x2269 JUMPI PUSH1 0x40 MLOAD PUSH32 0x8C379A000000000000000000000000000000000000000000000000000000000 DUP2 MSTORE PUSH1 0x4 ADD PUSH2 0x2260 SWAP1 PUSH2 0x3D98 JUMP JUMPDEST PUSH1 0x40 MLOAD DUP1 SWAP2 SUB SWAP1 REVERT JUMPDEST PUSH1 0x0 PUSH2 0x2281 DUP4 DUP6 PUSH1 0x0 ADD PUSH2 0x2B69 SWAP1 SWAP2 SWAP1 PUSH4 0xFFFFFFFF AND JUMP JUMPDEST MLOAD EQ ISZERO SWAP1 POP SWAP3 SWAP2 POP POP JUMP JUMPDEST DUP2 PUSH1 0x1 ADD PUSH1 0x0 DUP3 PUSH20 0xFFFFFFFFFFFFFFFFFFFFFFFFFFFFFFFFFFFFFFFF AND PUSH20 0xFFFFFFFFFFFFFFFFFFFFFFFFFFFFFFFFFFFFFFFF AND DUP2 MSTORE PUSH1 0x20 ADD SWAP1 DUP2 MSTORE PUSH1 0x20 ADD PUSH1 0x0 KECCAK256 PUSH1 0x0 SWAP1 SLOAD SWAP1 PUSH2 0x100 EXP SWAP1 DIV PUSH1 0xFF AND ISZERO PUSH2 0x250B JUMPI DUP2 PUSH1 0x1 ADD PUSH1 0x0 DUP3 PUSH20 0xFFFFFFFFFFFFFFFFFFFFFFFFFFFFFFFFFFFFFFFF AND PUSH20 0xFFFFFFFFFFFFFFFFFFFFFFFFFFFFFFFFFFFFFFFF AND DUP2 MSTORE PUSH1 0x20 ADD SWAP1 DUP2 MSTORE PUSH1 0x20 ADD PUSH1 0x0 KECCAK256 PUSH1 0x0 PUSH2 0x100 EXP DUP2 SLOAD SWAP1 PUSH1 0xFF MUL NOT AND SWAP1 SSTORE PUSH1 0x0 DUP3 PUSH1 0x2 ADD PUSH1 0x0 DUP4 PUSH20 0xFFFFFFFFFFFFFFFFFFFFFFFFFFFFFFFFFFFFFFFF AND PUSH20 0xFFFFFFFFFFFFFFFFFFFFFFFFFFFFFFFFFFFFFFFF AND DUP2 MSTORE PUSH1 0x20 ADD SWAP1 DUP2 MSTORE PUSH1 0x20 ADD PUSH1 0x0 KECCAK256 SLOAD SWAP1 POP PUSH1 0x0 PUSH1 0x1 DUP5 PUSH1 0x0 ADD DUP1 SLOAD SWAP1 POP PUSH2 0x238D SWAP2 SWAP1 PUSH2 0x3DE7 JUMP JUMPDEST SWAP1 POP PUSH1 0x0 DUP5 PUSH1 0x0 ADD DUP3 DUP2 SLOAD DUP2 LT PUSH2 0x23A7 JUMPI PUSH2 0x23A6 PUSH2 0x3E1B JUMP JUMPDEST JUMPDEST SWAP1 PUSH1 0x0 MSTORE PUSH1 0x20 PUSH1 0x0 KECCAK256 ADD PUSH1 0x0 SWAP1 SLOAD SWAP1 PUSH2 0x100 EXP SWAP1 DIV PUSH20 0xFFFFFFFFFFFFFFFFFFFFFFFFFFFFFFFFFFFFFFFF AND SWAP1 POP DUP3 DUP6 PUSH1 0x2 ADD PUSH1 0x0 DUP4 PUSH20 0xFFFFFFFFFFFFFFFFFFFFFFFFFFFFFFFFFFFFFFFF AND PUSH20 0xFFFFFFFFFFFFFFFFFFFFFFFFFFFFFFFFFFFFFFFF AND DUP2 MSTORE PUSH1 0x20 ADD SWAP1 DUP2 MSTORE PUSH1 0x20 ADD PUSH1 0x0 KECCAK256 DUP2 SWAP1 SSTORE POP DUP5 PUSH1 0x2 ADD PUSH1 0x0 DUP6 PUSH20 0xFFFFFFFFFFFFFFFFFFFFFFFFFFFFFFFFFFFFFFFF AND PUSH20 0xFFFFFFFFFFFFFFFFFFFFFFFFFFFFFFFFFFFFFFFF AND DUP2 MSTORE PUSH1 0x20 ADD SWAP1 DUP2 MSTORE PUSH1 0x20 ADD PUSH1 0x0 KECCAK256 PUSH1 0x0 SWAP1 SSTORE DUP1 DUP6 PUSH1 0x0 ADD DUP5 DUP2 SLOAD DUP2 LT PUSH2 0x2476 JUMPI PUSH2 0x2475 PUSH2 0x3E1B JUMP JUMPDEST JUMPDEST SWAP1 PUSH1 0x0 MSTORE PUSH1 0x20 PUSH1 0x0 KECCAK256 ADD PUSH1 0x0 PUSH2 0x100 EXP DUP2 SLOAD DUP2 PUSH20 0xFFFFFFFFFFFFFFFFFFFFFFFFFFFFFFFFFFFFFFFF MUL NOT AND SWAP1 DUP4 PUSH20 0xFFFFFFFFFFFFFFFFFFFFFFFFFFFFFFFFFFFFFFFF AND MUL OR SWAP1 SSTORE POP DUP5 PUSH1 0x0 ADD DUP1 SLOAD DUP1 PUSH2 0x24D2 JUMPI PUSH2 0x24D1 PUSH2 0x3E4A JUMP JUMPDEST JUMPDEST PUSH1 0x1 SWAP1 SUB DUP2 DUP2 SWAP1 PUSH1 0x0 MSTORE PUSH1 0x20 PUSH1 0x0 KECCAK256 ADD PUSH1 0x0 PUSH2 0x100 EXP DUP2 SLOAD SWAP1 PUSH20 0xFFFFFFFFFFFFFFFFFFFFFFFFFFFFFFFFFFFFFFFF MUL NOT AND SWAP1 SSTORE SWAP1 SSTORE POP POP POP JUMPDEST POP POP JUMP JUMPDEST PUSH1 0x60 DUP2 PUSH1 0x0 ADD PUSH1 0x0 ADD DUP1 SLOAD DUP1 PUSH1 0x20 MUL PUSH1 0x20 ADD PUSH1 0x40 MLOAD SWAP1 DUP2 ADD PUSH1 0x40 MSTORE DUP1 SWAP3 SWAP2 SWAP1 DUP2 DUP2 MSTORE PUSH1 0x20 ADD DUP3 DUP1 SLOAD DUP1 ISZERO PUSH2 0x2598 JUMPI PUSH1 0x20 MUL DUP3 ADD SWAP2 SWAP1 PUSH1 0x0 MSTORE PUSH1 0x20 PUSH1 0x0 KECCAK256 SWAP1 JUMPDEST DUP2 PUSH1 0x0 SWAP1 SLOAD SWAP1 PUSH2 0x100 EXP SWAP1 DIV PUSH20 0xFFFFFFFFFFFFFFFFFFFFFFFFFFFFFFFFFFFFFFFF AND PUSH20 0xFFFFFFFFFFFFFFFFFFFFFFFFFFFFFFFFFFFFFFFF AND DUP2 MSTORE PUSH1 0x20 ADD SWAP1 PUSH1 0x1 ADD SWAP1 DUP1 DUP4 GT PUSH2 0x254E JUMPI JUMPDEST POP POP POP POP POP SWAP1 POP SWAP2 SWAP1 POP JUMP JUMPDEST PUSH2 0x25AE DUP4 DUP4 PUSH2 0x21F9 JUMP JUMPDEST ISZERO PUSH2 0x25EE JUMPI PUSH1 0x40 MLOAD PUSH32 0x8C379A000000000000000000000000000000000000000000000000000000000 DUP2 MSTORE PUSH1 0x4 ADD PUSH2 0x25E5 SWAP1 PUSH2 0x3EC5 JUMP JUMPDEST PUSH1 0x40 MLOAD DUP1 SWAP2 SUB SWAP1 REVERT JUMPDEST PUSH2 0x2606 DUP3 DUP3 DUP6 PUSH1 0x0 ADD PUSH2 0x2C3D SWAP1 SWAP3 SWAP2 SWAP1 PUSH4 0xFFFFFFFF AND JUMP JUMPDEST POP POP POP JUMP JUMPDEST DUP2 PUSH1 0x1 ADD PUSH1 0x0 DUP3 PUSH20 0xFFFFFFFFFFFFFFFFFFFFFFFFFFFFFFFFFFFFFFFF AND PUSH20 0xFFFFFFFFFFFFFFFFFFFFFFFFFFFFFFFFFFFFFFFF AND DUP2 MSTORE PUSH1 0x20 ADD SWAP1 DUP2 MSTORE PUSH1 0x20 ADD PUSH1 0x0 KECCAK256 PUSH1 0x0 SWAP1 SLOAD SWAP1 PUSH2 0x100 EXP SWAP1 DIV PUSH1 0xFF AND PUSH2 0x276B JUMPI PUSH1 0x1 DUP3 PUSH1 0x1 ADD PUSH1 0x0 DUP4 PUSH20 0xFFFFFFFFFFFFFFFFFFFFFFFFFFFFFFFFFFFFFFFF AND PUSH20 0xFFFFFFFFFFFFFFFFFFFFFFFFFFFFFFFFFFFFFFFF AND DUP2 MSTORE PUSH1 0x20 ADD SWAP1 DUP2 MSTORE PUSH1 0x20 ADD PUSH1 0x0 KECCAK256 PUSH1 0x0 PUSH2 0x100 EXP DUP2 SLOAD DUP2 PUSH1 0xFF MUL NOT AND SWAP1 DUP4 ISZERO ISZERO MUL OR SWAP1 SSTORE POP DUP2 PUSH1 0x0 ADD DUP1 SLOAD SWAP1 POP DUP3 PUSH1 0x2 ADD PUSH1 0x0 DUP4 PUSH20 0xFFFFFFFFFFFFFFFFFFFFFFFFFFFFFFFFFFFFFFFF AND PUSH20 0xFFFFFFFFFFFFFFFFFFFFFFFFFFFFFFFFFFFFFFFF AND DUP2 MSTORE PUSH1 0x20 ADD SWAP1 DUP2 MSTORE PUSH1 0x20 ADD PUSH1 0x0 KECCAK256 DUP2 SWAP1 SSTORE POP DUP2 PUSH1 0x0 ADD DUP2 SWAP1 DUP1 PUSH1 0x1 DUP2 SLOAD ADD DUP1 DUP3 SSTORE DUP1 SWAP2 POP POP PUSH1 0x1 SWAP1 SUB SWAP1 PUSH1 0x0 MSTORE PUSH1 0x20 PUSH1 0x0 KECCAK256 ADD PUSH1 0x0 SWAP1 SWAP2 SWAP1 SWAP2 SWAP1 SWAP2 PUSH2 0x100 EXP DUP2 SLOAD DUP2 PUSH20 0xFFFFFFFFFFFFFFFFFFFFFFFFFFFFFFFFFFFFFFFF MUL NOT AND SWAP1 DUP4 PUSH20 0xFFFFFFFFFFFFFFFFFFFFFFFFFFFFFFFFFFFFFFFF AND MUL OR SWAP1 SSTORE POP JUMPDEST POP POP JUMP JUMPDEST PUSH1 0x0 DUP1 PUSH1 0x0 SWAP1 POP JUMPDEST DUP4 MLOAD DUP2 LT ISZERO PUSH2 0x27E9 JUMPI DUP3 PUSH20 0xFFFFFFFFFFFFFFFFFFFFFFFFFFFFFFFFFFFFFFFF AND DUP5 DUP3 DUP2 MLOAD DUP2 LT PUSH2 0x27AA JUMPI PUSH2 0x27A9 PUSH2 0x3E1B JUMP JUMPDEST JUMPDEST PUSH1 0x20 MUL PUSH1 0x20 ADD ADD MLOAD PUSH20 0xFFFFFFFFFFFFFFFFFFFFFFFFFFFFFFFFFFFFFFFF AND SUB PUSH2 0x27D6 JUMPI DUP1 SWAP2 POP POP PUSH2 0x280E JUMP JUMPDEST DUP1 DUP1 PUSH2 0x27E1 SWAP1 PUSH2 0x3EE5 JUMP JUMPDEST SWAP2 POP POP PUSH2 0x2777 JUMP JUMPDEST POP PUSH32 0xFFFFFFFFFFFFFFFFFFFFFFFFFFFFFFFFFFFFFFFFFFFFFFFFFFFFFFFFFFFFFFFF SWAP1 POP JUMPDEST SWAP3 SWAP2 POP POP JUMP JUMPDEST PUSH1 0x60 PUSH2 0x282C DUP3 DUP5 PUSH1 0x0 ADD PUSH2 0x2B69 SWAP1 SWAP2 SWAP1 PUSH4 0xFFFFFFFF AND JUMP JUMPDEST SWAP1 POP SWAP3 SWAP2 POP POP JUMP JUMPDEST PUSH2 0x284C DUP3 DUP3 DUP6 PUSH1 0x0 ADD PUSH2 0x2C3D SWAP1 SWAP3 SWAP2 SWAP1 PUSH4 0xFFFFFFFF AND JUMP JUMPDEST POP POP POP JUMP JUMPDEST PUSH1 0x0 DUP3 PUSH1 0x1 ADD PUSH1 0x0 DUP4 PUSH20 0xFFFFFFFFFFFFFFFFFFFFFFFFFFFFFFFFFFFFFFFF AND PUSH20 0xFFFFFFFFFFFFFFFFFFFFFFFFFFFFFFFFFFFFFFFF AND DUP2 MSTORE PUSH1 0x20 ADD SWAP1 DUP2 MSTORE PUSH1 0x20 ADD PUSH1 0x0 KECCAK256 PUSH1 0x0 SWAP1 SLOAD SWAP1 PUSH2 0x100 EXP SWAP1 DIV PUSH1 0xFF AND SWAP1 POP SWAP3 SWAP2 POP POP JUMP JUMPDEST PUSH2 0x28B4 DUP3 DUP3 PUSH2 0x21F9 JUMP JUMPDEST PUSH2 0x28F3 JUMPI PUSH1 0x40 MLOAD PUSH32 0x8C379A000000000000000000000000000000000000000000000000000000000 DUP2 MSTORE PUSH1 0x4 ADD PUSH2 0x28EA SWAP1 PUSH2 0x3F9F JUMP JUMPDEST PUSH1 0x40 MLOAD DUP1 SWAP2 SUB SWAP1 REVERT JUMPDEST PUSH2 0x2909 DUP2 DUP4 PUSH1 0x0 ADD PUSH2 0x2DF1 SWAP1 SWAP2 SWAP1 PUSH4 0xFFFFFFFF AND JUMP JUMPDEST POP POP JUMP JUMPDEST PUSH1 0x0 PUSH32 0xFFFFFFFFFFFFFFFFFFFFFFFFFFFFFFFFFFFFFFFFFFFFFFFFFFFFFFFFFFFFFFFF PUSH2 0x293A DUP5 DUP5 PUSH2 0x276F JUMP JUMPDEST EQ ISZERO SWAP1 POP SWAP3 SWAP2 POP POP JUMP JUMPDEST PUSH1 0x0 DUP1 PUSH2 0x29D6 DUP5 DUP1 SLOAD DUP1 PUSH1 0x20 MUL PUSH1 0x20 ADD PUSH1 0x40 MLOAD SWAP1 DUP2 ADD PUSH1 0x40 MSTORE DUP1 SWAP3 SWAP2 SWAP1 DUP2 DUP2 MSTORE PUSH1 0x20 ADD DUP3 DUP1 SLOAD DUP1 ISZERO PUSH2 0x29CB JUMPI PUSH1 0x20 MUL DUP3 ADD SWAP2 SWAP1 PUSH1 0x0 MSTORE PUSH1 0x20 PUSH1 0x0 KECCAK256 SWAP1 JUMPDEST DUP2 PUSH1 0x0 SWAP1 SLOAD SWAP1 PUSH2 0x100 EXP SWAP1 DIV PUSH20 0xFFFFFFFFFFFFFFFFFFFFFFFFFFFFFFFFFFFFFFFF AND PUSH20 0xFFFFFFFFFFFFFFFFFFFFFFFFFFFFFFFFFFFFFFFF AND DUP2 MSTORE PUSH1 0x20 ADD SWAP1 PUSH1 0x1 ADD SWAP1 DUP1 DUP4 GT PUSH2 0x2981 JUMPI JUMPDEST POP POP POP POP POP DUP5 PUSH2 0x276F JUMP JUMPDEST SWAP1 POP PUSH32 0xFFFFFFFFFFFFFFFFFFFFFFFFFFFFFFFFFFFFFFFFFFFFFFFFFFFFFFFFFFFFFFFF DUP2 SUB PUSH2 0x2A09 JUMPI PUSH1 0x0 SWAP2 POP POP PUSH2 0x2B63 JUMP JUMPDEST PUSH1 0x0 DUP5 DUP1 SLOAD DUP1 PUSH1 0x20 MUL PUSH1 0x20 ADD PUSH1 0x40 MLOAD SWAP1 DUP2 ADD PUSH1 0x40 MSTORE DUP1 SWAP3 SWAP2 SWAP1 DUP2 DUP2 MSTORE PUSH1 0x20 ADD DUP3 DUP1 SLOAD DUP1 ISZERO PUSH2 0x2A8C JUMPI PUSH1 0x20 MUL DUP3 ADD SWAP2 SWAP1 PUSH1 0x0 MSTORE PUSH1 0x20 PUSH1 0x0 KECCAK256 SWAP1 JUMPDEST DUP2 PUSH1 0x0 SWAP1 SLOAD SWAP1 PUSH2 0x100 EXP SWAP1 DIV PUSH20 0xFFFFFFFFFFFFFFFFFFFFFFFFFFFFFFFFFFFFFFFF AND PUSH20 0xFFFFFFFFFFFFFFFFFFFFFFFFFFFFFFFFFFFFFFFF AND DUP2 MSTORE PUSH1 0x20 ADD SWAP1 PUSH1 0x1 ADD SWAP1 DUP1 DUP4 GT PUSH2 0x2A42 JUMPI JUMPDEST POP POP POP POP POP SWAP1 POP DUP1 PUSH1 0x1 DUP3 MLOAD PUSH2 0x2AA2 SWAP2 SWAP1 PUSH2 0x3DE7 JUMP JUMPDEST DUP2 MLOAD DUP2 LT PUSH2 0x2AB3 JUMPI PUSH2 0x2AB2 PUSH2 0x3E1B JUMP JUMPDEST JUMPDEST PUSH1 0x20 MUL PUSH1 0x20 ADD ADD MLOAD DUP6 DUP4 DUP2 SLOAD DUP2 LT PUSH2 0x2ACE JUMPI PUSH2 0x2ACD PUSH2 0x3E1B JUMP JUMPDEST JUMPDEST SWAP1 PUSH1 0x0 MSTORE PUSH1 0x20 PUSH1 0x0 KECCAK256 ADD PUSH1 0x0 PUSH2 0x100 EXP DUP2 SLOAD DUP2 PUSH20 0xFFFFFFFFFFFFFFFFFFFFFFFFFFFFFFFFFFFFFFFF MUL NOT AND SWAP1 DUP4 PUSH20 0xFFFFFFFFFFFFFFFFFFFFFFFFFFFFFFFFFFFFFFFF AND MUL OR SWAP1 SSTORE POP DUP5 DUP1 SLOAD DUP1 PUSH2 0x2B27 JUMPI PUSH2 0x2B26 PUSH2 0x3E4A JUMP JUMPDEST JUMPDEST PUSH1 0x1 SWAP1 SUB DUP2 DUP2 SWAP1 PUSH1 0x0 MSTORE PUSH1 0x20 PUSH1 0x0 KECCAK256 ADD PUSH1 0x0 PUSH2 0x100 EXP DUP2 SLOAD SWAP1 PUSH20 0xFFFFFFFFFFFFFFFFFFFFFFFFFFFFFFFFFFFFFFFF MUL NOT AND SWAP1 SSTORE SWAP1 SSTORE PUSH1 0x1 SWAP3 POP POP POP JUMPDEST SWAP3 SWAP2 POP POP JUMP JUMPDEST PUSH1 0x60 DUP3 PUSH1 0x1 ADD PUSH1 0x0 DUP4 PUSH20 0xFFFFFFFFFFFFFFFFFFFFFFFFFFFFFFFFFFFFFFFF AND PUSH20 0xFFFFFFFFFFFFFFFFFFFFFFFFFFFFFFFFFFFFFFFF AND DUP2 MSTORE PUSH1 0x20 ADD SWAP1 DUP2 MSTORE PUSH1 0x20 ADD PUSH1 0x0 KECCAK256 DUP1 SLOAD PUSH2 0x2BB7 SWAP1 PUSH2 0x36BB JUMP JUMPDEST DUP1 PUSH1 0x1F ADD PUSH1 0x20 DUP1 SWAP2 DIV MUL PUSH1 0x20 ADD PUSH1 0x40 MLOAD SWAP1 DUP2 ADD PUSH1 0x40 MSTORE DUP1 SWAP3 SWAP2 SWAP1 DUP2 DUP2 MSTORE PUSH1 0x20 ADD DUP3 DUP1 SLOAD PUSH2 0x2BE3 SWAP1 PUSH2 0x36BB JUMP JUMPDEST DUP1 ISZERO PUSH2 0x2C30 JUMPI DUP1 PUSH1 0x1F LT PUSH2 0x2C05 JUMPI PUSH2 0x100 DUP1 DUP4 SLOAD DIV MUL DUP4 MSTORE SWAP2 PUSH1 0x20 ADD SWAP2 PUSH2 0x2C30 JUMP JUMPDEST DUP3 ADD SWAP2 SWAP1 PUSH1 0x0 MSTORE PUSH1 0x20 PUSH1 0x0 KECCAK256 SWAP1 JUMPDEST DUP2 SLOAD DUP2 MSTORE SWAP1 PUSH1 0x1 ADD SWAP1 PUSH1 0x20 ADD DUP1 DUP4 GT PUSH2 0x2C13 JUMPI DUP3 SWAP1 SUB PUSH1 0x1F AND DUP3 ADD SWAP2 JUMPDEST POP POP POP POP POP SWAP1 POP SWAP3 SWAP2 POP POP JUMP JUMPDEST DUP3 PUSH1 0x3 ADD PUSH1 0x0 DUP4 PUSH20 0xFFFFFFFFFFFFFFFFFFFFFFFFFFFFFFFFFFFFFFFF AND PUSH20 0xFFFFFFFFFFFFFFFFFFFFFFFFFFFFFFFFFFFFFFFF AND DUP2 MSTORE PUSH1 0x20 ADD SWAP1 DUP2 MSTORE PUSH1 0x20 ADD PUSH1 0x0 KECCAK256 PUSH1 0x0 SWAP1 SLOAD SWAP1 PUSH2 0x100 EXP SWAP1 DIV PUSH1 0xFF AND PUSH2 0x2D9D JUMPI DUP3 PUSH1 0x0 ADD DUP1 SLOAD SWAP1 POP DUP4 PUSH1 0x2 ADD PUSH1 0x0 DUP5 PUSH20 0xFFFFFFFFFFFFFFFFFFFFFFFFFFFFFFFFFFFFFFFF AND PUSH20 0xFFFFFFFFFFFFFFFFFFFFFFFFFFFFFFFFFFFFFFFF AND DUP2 MSTORE PUSH1 0x20 ADD SWAP1 DUP2 MSTORE PUSH1 0x20 ADD PUSH1 0x0 KECCAK256 DUP2 SWAP1 SSTORE POP PUSH1 0x1 DUP4 PUSH1 0x3 ADD PUSH1 0x0 DUP5 PUSH20 0xFFFFFFFFFFFFFFFFFFFFFFFFFFFFFFFFFFFFFFFF AND PUSH20 0xFFFFFFFFFFFFFFFFFFFFFFFFFFFFFFFFFFFFFFFF AND DUP2 MSTORE PUSH1 0x20 ADD SWAP1 DUP2 MSTORE PUSH1 0x20 ADD PUSH1 0x0 KECCAK256 PUSH1 0x0 PUSH2 0x100 EXP DUP2 SLOAD DUP2 PUSH1 0xFF MUL NOT AND SWAP1 DUP4 ISZERO ISZERO MUL OR SWAP1 SSTORE POP DUP3 PUSH1 0x0 ADD DUP3 SWAP1 DUP1 PUSH1 0x1 DUP2 SLOAD ADD DUP1 DUP3 SSTORE DUP1 SWAP2 POP POP PUSH1 0x1 SWAP1 SUB SWAP1 PUSH1 0x0 MSTORE PUSH1 0x20 PUSH1 0x0 KECCAK256 ADD PUSH1 0x0 SWAP1 SWAP2 SWAP1 SWAP2 SWAP1 SWAP2 PUSH2 0x100 EXP DUP2 SLOAD DUP2 PUSH20 0xFFFFFFFFFFFFFFFFFFFFFFFFFFFFFFFFFFFFFFFF MUL NOT AND SWAP1 DUP4 PUSH20 0xFFFFFFFFFFFFFFFFFFFFFFFFFFFFFFFFFFFFFFFF AND MUL OR SWAP1 SSTORE POP JUMPDEST DUP1 DUP4 PUSH1 0x1 ADD PUSH1 0x0 DUP5 PUSH20 0xFFFFFFFFFFFFFFFFFFFFFFFFFFFFFFFFFFFFFFFF AND PUSH20 0xFFFFFFFFFFFFFFFFFFFFFFFFFFFFFFFFFFFFFFFF AND DUP2 MSTORE PUSH1 0x20 ADD SWAP1 DUP2 MSTORE PUSH1 0x20 ADD PUSH1 0x0 KECCAK256 SWAP1 DUP2 PUSH2 0x2DEB SWAP2 SWAP1 PUSH2 0x3A32 JUMP JUMPDEST POP POP POP POP JUMP JUMPDEST DUP2 PUSH1 0x3 ADD PUSH1 0x0 DUP3 PUSH20 0xFFFFFFFFFFFFFFFFFFFFFFFFFFFFFFFFFFFFFFFF AND PUSH20 0xFFFFFFFFFFFFFFFFFFFFFFFFFFFFFFFFFFFFFFFF AND DUP2 MSTORE PUSH1 0x20 ADD SWAP1 DUP2 MSTORE PUSH1 0x20 ADD PUSH1 0x0 KECCAK256 PUSH1 0x0 SWAP1 SLOAD SWAP1 PUSH2 0x100 EXP SWAP1 DIV PUSH1 0xFF AND ISZERO PUSH2 0x30BD JUMPI DUP2 PUSH1 0x1 ADD PUSH1 0x0 DUP3 PUSH20 0xFFFFFFFFFFFFFFFFFFFFFFFFFFFFFFFFFFFFFFFF AND PUSH20 0xFFFFFFFFFFFFFFFFFFFFFFFFFFFFFFFFFFFFFFFF AND DUP2 MSTORE PUSH1 0x20 ADD SWAP1 DUP2 MSTORE PUSH1 0x20 ADD PUSH1 0x0 KECCAK256 PUSH1 0x0 PUSH2 0x2E92 SWAP2 SWAP1 PUSH2 0x30C1 JUMP JUMPDEST DUP2 PUSH1 0x3 ADD PUSH1 0x0 DUP3 PUSH20 0xFFFFFFFFFFFFFFFFFFFFFFFFFFFFFFFFFFFFFFFF AND PUSH20 0xFFFFFFFFFFFFFFFFFFFFFFFFFFFFFFFFFFFFFFFF AND DUP2 MSTORE PUSH1 0x20 ADD SWAP1 DUP2 MSTORE PUSH1 0x20 ADD PUSH1 0x0 KECCAK256 PUSH1 0x0 PUSH2 0x100 EXP DUP2 SLOAD SWAP1 PUSH1 0xFF MUL NOT AND SWAP1 SSTORE PUSH1 0x0 DUP3 PUSH1 0x2 ADD PUSH1 0x0 DUP4 PUSH20 0xFFFFFFFFFFFFFFFFFFFFFFFFFFFFFFFFFFFFFFFF AND PUSH20 0xFFFFFFFFFFFFFFFFFFFFFFFFFFFFFFFFFFFFFFFF AND DUP2 MSTORE PUSH1 0x20 ADD SWAP1 DUP2 MSTORE PUSH1 0x20 ADD PUSH1 0x0 KECCAK256 SLOAD SWAP1 POP PUSH1 0x0 PUSH1 0x1 DUP5 PUSH1 0x0 ADD DUP1 SLOAD SWAP1 POP PUSH2 0x2F3F SWAP2 SWAP1 PUSH2 0x3DE7 JUMP JUMPDEST SWAP1 POP PUSH1 0x0 DUP5 PUSH1 0x0 ADD DUP3 DUP2 SLOAD DUP2 LT PUSH2 0x2F59 JUMPI PUSH2 0x2F58 PUSH2 0x3E1B JUMP JUMPDEST JUMPDEST SWAP1 PUSH1 0x0 MSTORE PUSH1 0x20 PUSH1 0x0 KECCAK256 ADD PUSH1 0x0 SWAP1 SLOAD SWAP1 PUSH2 0x100 EXP SWAP1 DIV PUSH20 0xFFFFFFFFFFFFFFFFFFFFFFFFFFFFFFFFFFFFFFFF AND SWAP1 POP DUP3 DUP6 PUSH1 0x2 ADD PUSH1 0x0 DUP4 PUSH20 0xFFFFFFFFFFFFFFFFFFFFFFFFFFFFFFFFFFFFFFFF AND PUSH20 0xFFFFFFFFFFFFFFFFFFFFFFFFFFFFFFFFFFFFFFFF AND DUP2 MSTORE PUSH1 0x20 ADD SWAP1 DUP2 MSTORE PUSH1 0x20 ADD PUSH1 0x0 KECCAK256 DUP2 SWAP1 SSTORE POP DUP5 PUSH1 0x2 ADD PUSH1 0x0 DUP6 PUSH20 0xFFFFFFFFFFFFFFFFFFFFFFFFFFFFFFFFFFFFFFFF AND PUSH20 0xFFFFFFFFFFFFFFFFFFFFFFFFFFFFFFFFFFFFFFFF AND DUP2 MSTORE PUSH1 0x20 ADD SWAP1 DUP2 MSTORE PUSH1 0x20 ADD PUSH1 0x0 KECCAK256 PUSH1 0x0 SWAP1 SSTORE DUP1 DUP6 PUSH1 0x0 ADD DUP5 DUP2 SLOAD DUP2 LT PUSH2 0x3028 JUMPI PUSH2 0x3027 PUSH2 0x3E1B JUMP JUMPDEST JUMPDEST SWAP1 PUSH1 0x0 MSTORE PUSH1 0x20 PUSH1 0x0 KECCAK256 ADD PUSH1 0x0 PUSH2 0x100 EXP DUP2 SLOAD DUP2 PUSH20 0xFFFFFFFFFFFFFFFFFFFFFFFFFFFFFFFFFFFFFFFF MUL NOT AND SWAP1 DUP4 PUSH20 0xFFFFFFFFFFFFFFFFFFFFFFFFFFFFFFFFFFFFFFFF AND MUL OR SWAP1 SSTORE POP DUP5 PUSH1 0x0 ADD DUP1 SLOAD DUP1 PUSH2 0x3084 JUMPI PUSH2 0x3083 PUSH2 0x3E4A JUMP JUMPDEST JUMPDEST PUSH1 0x1 SWAP1 SUB DUP2 DUP2 SWAP1 PUSH1 0x0 MSTORE PUSH1 0x20 PUSH1 0x0 KECCAK256 ADD PUSH1 0x0 PUSH2 0x100 EXP DUP2 SLOAD SWAP1 PUSH20 0xFFFFFFFFFFFFFFFFFFFFFFFFFFFFFFFFFFFFFFFF MUL NOT AND SWAP1 SSTORE SWAP1 SSTORE POP POP POP JUMPDEST POP POP JUMP JUMPDEST POP DUP1 SLOAD PUSH2 0x30CD SWAP1 PUSH2 0x36BB JUMP JUMPDEST PUSH1 0x0 DUP3 SSTORE DUP1 PUSH1 0x1F LT PUSH2 0x30DF JUMPI POP PUSH2 0x30FE JUMP JUMPDEST PUSH1 0x1F ADD PUSH1 0x20 SWAP1 DIV SWAP1 PUSH1 0x0 MSTORE PUSH1 0x20 PUSH1 0x0 KECCAK256 SWAP1 DUP2 ADD SWAP1 PUSH2 0x30FD SWAP2 SWAP1 PUSH2 0x3101 JUMP JUMPDEST JUMPDEST POP JUMP JUMPDEST JUMPDEST DUP1 DUP3 GT ISZERO PUSH2 0x311A JUMPI PUSH1 0x0 DUP2 PUSH1 0x0 SWAP1 SSTORE POP PUSH1 0x1 ADD PUSH2 0x3102 JUMP JUMPDEST POP SWAP1 JUMP JUMPDEST PUSH1 0x0 PUSH1 0x40 MLOAD SWAP1 POP SWAP1 JUMP JUMPDEST PUSH1 0x0 DUP1 REVERT JUMPDEST PUSH1 0x0 DUP1 REVERT JUMPDEST PUSH1 0x0 PUSH20 0xFFFFFFFFFFFFFFFFFFFFFFFFFFFFFFFFFFFFFFFF DUP3 AND SWAP1 POP SWAP2 SWAP1 POP JUMP JUMPDEST PUSH1 0x0 PUSH2 0x315D DUP3 PUSH2 0x3132 JUMP JUMPDEST SWAP1 POP SWAP2 SWAP1 POP JUMP JUMPDEST PUSH2 0x316D DUP2 PUSH2 0x3152 JUMP JUMPDEST DUP2 EQ PUSH2 0x3178 JUMPI PUSH1 0x0 DUP1 REVERT JUMPDEST POP JUMP JUMPDEST PUSH1 0x0 DUP2 CALLDATALOAD SWAP1 POP PUSH2 0x318A DUP2 PUSH2 0x3164 JUMP JUMPDEST SWAP3 SWAP2 POP POP JUMP JUMPDEST PUSH1 0x0 PUSH1 0x20 DUP3 DUP5 SUB SLT ISZERO PUSH2 0x31A6 JUMPI PUSH2 0x31A5 PUSH2 0x3128 JUMP JUMPDEST JUMPDEST PUSH1 0x0 PUSH2 0x31B4 DUP5 DUP3 DUP6 ADD PUSH2 0x317B JUMP JUMPDEST SWAP2 POP POP SWAP3 SWAP2 POP POP JUMP JUMPDEST PUSH1 0x0 DUP2 MLOAD SWAP1 POP SWAP2 SWAP1 POP JUMP JUMPDEST PUSH1 0x0 DUP3 DUP3 MSTORE PUSH1 0x20 DUP3 ADD SWAP1 POP SWAP3 SWAP2 POP POP JUMP JUMPDEST PUSH1 0x0 JUMPDEST DUP4 DUP2 LT ISZERO PUSH2 0x31F7 JUMPI DUP1 DUP3 ADD MLOAD DUP2 DUP5 ADD MSTORE PUSH1 0x20 DUP2 ADD SWAP1 POP PUSH2 0x31DC JUMP JUMPDEST PUSH1 0x0 DUP5 DUP5 ADD MSTORE POP POP POP POP JUMP JUMPDEST PUSH1 0x0 PUSH1 0x1F NOT PUSH1 0x1F DUP4 ADD AND SWAP1 POP SWAP2 SWAP1 POP JUMP JUMPDEST PUSH1 0x0 PUSH2 0x321F DUP3 PUSH2 0x31BD JUMP JUMPDEST PUSH2 0x3229 DUP2 DUP6 PUSH2 0x31C8 JUMP JUMPDEST SWAP4 POP PUSH2 0x3239 DUP2 DUP6 PUSH1 0x20 DUP7 ADD PUSH2 0x31D9 JUMP JUMPDEST PUSH2 0x3242 DUP2 PUSH2 0x3203 JUMP JUMPDEST DUP5 ADD SWAP2 POP POP SWAP3 SWAP2 POP POP JUMP JUMPDEST PUSH1 0x0 PUSH1 0x20 DUP3 ADD SWAP1 POP DUP2 DUP2 SUB PUSH1 0x0 DUP4 ADD MSTORE PUSH2 0x3267 DUP2 DUP5 PUSH2 0x3214 JUMP JUMPDEST SWAP1 POP SWAP3 SWAP2 POP POP JUMP JUMPDEST PUSH1 0x0 DUP2 MLOAD SWAP1 POP SWAP2 SWAP1 POP JUMP JUMPDEST PUSH1 0x0 DUP3 DUP3 MSTORE PUSH1 0x20 DUP3 ADD SWAP1 POP SWAP3 SWAP2 POP POP JUMP JUMPDEST PUSH1 0x0 DUP2 SWAP1 POP PUSH1 0x20 DUP3 ADD SWAP1 POP SWAP2 SWAP1 POP JUMP JUMPDEST PUSH2 0x32A4 DUP2 PUSH2 0x3152 JUMP JUMPDEST DUP3 MSTORE POP POP JUMP JUMPDEST PUSH1 0x0 PUSH2 0x32B6 DUP4 DUP4 PUSH2 0x329B JUMP JUMPDEST PUSH1 0x20 DUP4 ADD SWAP1 POP SWAP3 SWAP2 POP POP JUMP JUMPDEST PUSH1 0x0 PUSH1 0x20 DUP3 ADD SWAP1 POP SWAP2 SWAP1 POP JUMP JUMPDEST PUSH1 0x0 PUSH2 0x32DA DUP3 PUSH2 0x326F JUMP JUMPDEST PUSH2 0x32E4 DUP2 DUP6 PUSH2 0x327A JUMP JUMPDEST SWAP4 POP PUSH2 0x32EF DUP4 PUSH2 0x328B JUMP JUMPDEST DUP1 PUSH1 0x0 JUMPDEST DUP4 DUP2 LT ISZERO PUSH2 0x3320 JUMPI DUP2 MLOAD PUSH2 0x3307 DUP9 DUP3 PUSH2 0x32AA JUMP JUMPDEST SWAP8 POP PUSH2 0x3312 DUP4 PUSH2 0x32C2 JUMP JUMPDEST SWAP3 POP POP PUSH1 0x1 DUP2 ADD SWAP1 POP PUSH2 0x32F3 JUMP JUMPDEST POP DUP6 SWAP4 POP POP POP POP SWAP3 SWAP2 POP POP JUMP JUMPDEST PUSH1 0x0 PUSH1 0x20 DUP3 ADD SWAP1 POP DUP2 DUP2 SUB PUSH1 0x0 DUP4 ADD MSTORE PUSH2 0x3347 DUP2 DUP5 PUSH2 0x32CF JUMP JUMPDEST SWAP1 POP SWAP3 SWAP2 POP POP JUMP JUMPDEST PUSH2 0x3358 DUP2 PUSH2 0x3152 JUMP JUMPDEST DUP3 MSTORE POP POP JUMP JUMPDEST PUSH1 0x0 PUSH1 0x20 DUP3 ADD SWAP1 POP PUSH2 0x3373 PUSH1 0x0 DUP4 ADD DUP5 PUSH2 0x334F JUMP JUMPDEST SWAP3 SWAP2 POP POP JUMP JUMPDEST PUSH1 0x0 DUP2 ISZERO ISZERO SWAP1 POP SWAP2 SWAP1 POP JUMP JUMPDEST PUSH2 0x338E DUP2 PUSH2 0x3379 JUMP JUMPDEST DUP3 MSTORE POP POP JUMP JUMPDEST PUSH1 0x0 PUSH1 0x20 DUP3 ADD SWAP1 POP PUSH2 0x33A9 PUSH1 0x0 DUP4 ADD DUP5 PUSH2 0x3385 JUMP JUMPDEST SWAP3 SWAP2 POP POP JUMP JUMPDEST PUSH1 0x0 DUP1 REVERT JUMPDEST PUSH1 0x0 DUP1 REVERT JUMPDEST PUSH32 0x4E487B7100000000000000000000000000000000000000000000000000000000 PUSH1 0x0 MSTORE PUSH1 0x41 PUSH1 0x4 MSTORE PUSH1 0x24 PUSH1 0x0 REVERT JUMPDEST PUSH2 0x33F1 DUP3 PUSH2 0x3203 JUMP JUMPDEST DUP2 ADD DUP2 DUP2 LT PUSH8 0xFFFFFFFFFFFFFFFF DUP3 GT OR ISZERO PUSH2 0x3410 JUMPI PUSH2 0x340F PUSH2 0x33B9 JUMP JUMPDEST JUMPDEST DUP1 PUSH1 0x40 MSTORE POP POP POP JUMP JUMPDEST PUSH1 0x0 PUSH2 0x3423 PUSH2 0x311E JUMP JUMPDEST SWAP1 POP PUSH2 0x342F DUP3 DUP3 PUSH2 0x33E8 JUMP JUMPDEST SWAP2 SWAP1 POP JUMP JUMPDEST PUSH1 0x0 PUSH8 0xFFFFFFFFFFFFFFFF DUP3 GT ISZERO PUSH2 0x344F JUMPI PUSH2 0x344E PUSH2 0x33B9 JUMP JUMPDEST JUMPDEST PUSH2 0x3458 DUP3 PUSH2 0x3203 JUMP JUMPDEST SWAP1 POP PUSH1 0x20 DUP2 ADD SWAP1 POP SWAP2 SWAP1 POP JUMP JUMPDEST DUP3 DUP2 DUP4 CALLDATACOPY PUSH1 0x0 DUP4 DUP4 ADD MSTORE POP POP POP JUMP JUMPDEST PUSH1 0x0 PUSH2 0x3487 PUSH2 0x3482 DUP5 PUSH2 0x3434 JUMP JUMPDEST PUSH2 0x3419 JUMP JUMPDEST SWAP1 POP DUP3 DUP2 MSTORE PUSH1 0x20 DUP2 ADD DUP5 DUP5 DUP5 ADD GT ISZERO PUSH2 0x34A3 JUMPI PUSH2 0x34A2 PUSH2 0x33B4 JUMP JUMPDEST JUMPDEST PUSH2 0x34AE DUP5 DUP3 DUP6 PUSH2 0x3465 JUMP JUMPDEST POP SWAP4 SWAP3 POP POP POP JUMP JUMPDEST PUSH1 0x0 DUP3 PUSH1 0x1F DUP4 ADD SLT PUSH2 0x34CB JUMPI PUSH2 0x34CA PUSH2 0x33AF JUMP JUMPDEST JUMPDEST DUP2 CALLDATALOAD PUSH2 0x34DB DUP5 DUP3 PUSH1 0x20 DUP7 ADD PUSH2 0x3474 JUMP JUMPDEST SWAP2 POP POP SWAP3 SWAP2 POP POP JUMP JUMPDEST PUSH1 0x0 PUSH1 0x20 DUP3 DUP5 SUB SLT ISZERO PUSH2 0x34FA JUMPI PUSH2 0x34F9 PUSH2 0x3128 JUMP JUMPDEST JUMPDEST PUSH1 0x0 DUP3 ADD CALLDATALOAD PUSH8 0xFFFFFFFFFFFFFFFF DUP2 GT ISZERO PUSH2 0x3518 JUMPI PUSH2 0x3517 PUSH2 0x312D JUMP JUMPDEST JUMPDEST PUSH2 0x3524 DUP5 DUP3 DUP6 ADD PUSH2 0x34B6 JUMP JUMPDEST SWAP2 POP POP SWAP3 SWAP2 POP POP JUMP JUMPDEST PUSH1 0x0 DUP1 PUSH1 0x40 DUP4 DUP6 SUB SLT ISZERO PUSH2 0x3544 JUMPI PUSH2 0x3543 PUSH2 0x3128 JUMP JUMPDEST JUMPDEST PUSH1 0x0 DUP4 ADD CALLDATALOAD PUSH8 0xFFFFFFFFFFFFFFFF DUP2 GT ISZERO PUSH2 0x3562 JUMPI PUSH2 0x3561 PUSH2 0x312D JUMP JUMPDEST JUMPDEST PUSH2 0x356E DUP6 DUP3 DUP7 ADD PUSH2 0x34B6 JUMP JUMPDEST SWAP3 POP POP PUSH1 0x20 DUP4 ADD CALLDATALOAD PUSH8 0xFFFFFFFFFFFFFFFF DUP2 GT ISZERO PUSH2 0x358F JUMPI PUSH2 0x358E PUSH2 0x312D JUMP JUMPDEST JUMPDEST PUSH2 0x359B DUP6 DUP3 DUP7 ADD PUSH2 0x34B6 JUMP JUMPDEST SWAP2 POP POP SWAP3 POP SWAP3 SWAP1 POP JUMP JUMPDEST PUSH1 0x0 DUP1 PUSH1 0x40 DUP4 DUP6 SUB SLT ISZERO PUSH2 0x35BC JUMPI PUSH2 0x35BB PUSH2 0x3128 JUMP JUMPDEST JUMPDEST PUSH1 0x0 PUSH2 0x35CA DUP6 DUP3 DUP7 ADD PUSH2 0x317B JUMP JUMPDEST SWAP3 POP POP PUSH1 0x20 DUP4 ADD CALLDATALOAD PUSH8 0xFFFFFFFFFFFFFFFF DUP2 GT ISZERO PUSH2 0x35EB JUMPI PUSH2 0x35EA PUSH2 0x312D JUMP JUMPDEST JUMPDEST PUSH2 0x35F7 DUP6 DUP3 DUP7 ADD PUSH2 0x34B6 JUMP JUMPDEST SWAP2 POP POP SWAP3 POP SWAP3 SWAP1 POP JUMP JUMPDEST PUSH1 0x0 DUP1 PUSH1 0x0 PUSH1 0x60 DUP5 DUP7 SUB SLT ISZERO PUSH2 0x361A JUMPI PUSH2 0x3619 PUSH2 0x3128 JUMP JUMPDEST JUMPDEST PUSH1 0x0 PUSH2 0x3628 DUP7 DUP3 DUP8 ADD PUSH2 0x317B JUMP JUMPDEST SWAP4 POP POP PUSH1 0x20 DUP5 ADD CALLDATALOAD PUSH8 0xFFFFFFFFFFFFFFFF DUP2 GT ISZERO PUSH2 0x3649 JUMPI PUSH2 0x3648 PUSH2 0x312D JUMP JUMPDEST JUMPDEST PUSH2 0x3655 DUP7 DUP3 DUP8 ADD PUSH2 0x34B6 JUMP JUMPDEST SWAP3 POP POP PUSH1 0x40 DUP5 ADD CALLDATALOAD PUSH8 0xFFFFFFFFFFFFFFFF DUP2 GT ISZERO PUSH2 0x3676 JUMPI PUSH2 0x3675 PUSH2 0x312D JUMP JUMPDEST JUMPDEST PUSH2 0x3682 DUP7 DUP3 DUP8 ADD PUSH2 0x34B6 JUMP JUMPDEST SWAP2 POP POP SWAP3 POP SWAP3 POP SWAP3 JUMP JUMPDEST PUSH32 0x4E487B7100000000000000000000000000000000000000000000000000000000 PUSH1 0x0 MSTORE PUSH1 0x22 PUSH1 0x4 MSTORE PUSH1 0x24 PUSH1 0x0 REVERT JUMPDEST PUSH1 0x0 PUSH1 0x2 DUP3 DIV SWAP1 POP PUSH1 0x1 DUP3 AND DUP1 PUSH2 0x36D3 JUMPI PUSH1 0x7F DUP3 AND SWAP2 POP JUMPDEST PUSH1 0x20 DUP3 LT DUP2 SUB PUSH2 0x36E6 JUMPI PUSH2 0x36E5 PUSH2 0x368C JUMP JUMPDEST JUMPDEST POP SWAP2 SWAP1 POP JUMP JUMPDEST PUSH32 0x436F6E74726163743A204164647265737320616C726561647920726567697374 PUSH1 0x0 DUP3 ADD MSTORE PUSH32 0x657265642061732070617469656E740000000000000000000000000000000000 PUSH1 0x20 DUP3 ADD MSTORE POP JUMP JUMPDEST PUSH1 0x0 PUSH2 0x3748 PUSH1 0x2F DUP4 PUSH2 0x31C8 JUMP JUMPDEST SWAP2 POP PUSH2 0x3753 DUP3 PUSH2 0x36EC JUMP JUMPDEST PUSH1 0x40 DUP3 ADD SWAP1 POP SWAP2 SWAP1 POP JUMP JUMPDEST PUSH1 0x0 PUSH1 0x20 DUP3 ADD SWAP1 POP DUP2 DUP2 SUB PUSH1 0x0 DUP4 ADD MSTORE PUSH2 0x3777 DUP2 PUSH2 0x373B JUMP JUMPDEST SWAP1 POP SWAP2 SWAP1 POP JUMP JUMPDEST PUSH32 0x436F6E74726163743A20456D7074792068617368206973206E6F7420616C6C6F PUSH1 0x0 DUP3 ADD MSTORE PUSH32 0x7765640000000000000000000000000000000000000000000000000000000000 PUSH1 0x20 DUP3 ADD MSTORE POP JUMP JUMPDEST PUSH1 0x0 PUSH2 0x37DA PUSH1 0x23 DUP4 PUSH2 0x31C8 JUMP JUMPDEST SWAP2 POP PUSH2 0x37E5 DUP3 PUSH2 0x377E JUMP JUMPDEST PUSH1 0x40 DUP3 ADD SWAP1 POP SWAP2 SWAP1 POP JUMP JUMPDEST PUSH1 0x0 PUSH1 0x20 DUP3 ADD SWAP1 POP DUP2 DUP2 SUB PUSH1 0x0 DUP4 ADD MSTORE PUSH2 0x3809 DUP2 PUSH2 0x37CD JUMP JUMPDEST SWAP1 POP SWAP2 SWAP1 POP JUMP JUMPDEST PUSH32 0x4E6F7420416C6C6F776564000000000000000000000000000000000000000000 PUSH1 0x0 DUP3 ADD MSTORE POP JUMP JUMPDEST PUSH1 0x0 PUSH2 0x3846 PUSH1 0xB DUP4 PUSH2 0x31C8 JUMP JUMPDEST SWAP2 POP PUSH2 0x3851 DUP3 PUSH2 0x3810 JUMP JUMPDEST PUSH1 0x20 DUP3 ADD SWAP1 POP SWAP2 SWAP1 POP JUMP JUMPDEST PUSH1 0x0 PUSH1 0x20 DUP3 ADD SWAP1 POP DUP2 DUP2 SUB PUSH1 0x0 DUP4 ADD MSTORE PUSH2 0x3875 DUP2 PUSH2 0x3839 JUMP JUMPDEST SWAP1 POP SWAP2 SWAP1 POP JUMP JUMPDEST PUSH1 0x0 DUP2 SWAP1 POP DUP2 PUSH1 0x0 MSTORE PUSH1 0x20 PUSH1 0x0 KECCAK256 SWAP1 POP SWAP2 SWAP1 POP JUMP JUMPDEST PUSH1 0x0 PUSH1 0x20 PUSH1 0x1F DUP4 ADD DIV SWAP1 POP SWAP2 SWAP1 POP JUMP JUMPDEST PUSH1 0x0 DUP3 DUP3 SHL SWAP1 POP SWAP3 SWAP2 POP POP JUMP JUMPDEST PUSH1 0x0 PUSH1 0x8 DUP4 MUL PUSH2 0x38DE PUSH32 0xFFFFFFFFFFFFFFFFFFFFFFFFFFFFFFFFFFFFFFFFFFFFFFFFFFFFFFFFFFFFFFFF DUP3 PUSH2 0x38A1 JUMP JUMPDEST PUSH2 0x38E8 DUP7 DUP4 PUSH2 0x38A1 JUMP JUMPDEST SWAP6 POP DUP1 NOT DUP5 AND SWAP4 POP DUP1 DUP7 AND DUP5 OR SWAP3 POP POP POP SWAP4 SWAP3 POP POP POP JUMP JUMPDEST PUSH1 0x0 DUP2 SWAP1 POP SWAP2 SWAP1 POP JUMP JUMPDEST PUSH1 0x0 DUP2 SWAP1 POP SWAP2 SWAP1 POP JUMP JUMPDEST PUSH1 0x0 PUSH2 0x392F PUSH2 0x392A PUSH2 0x3925 DUP5 PUSH2 0x3900 JUMP JUMPDEST PUSH2 0x390A JUMP JUMPDEST PUSH2 0x3900 JUMP JUMPDEST SWAP1 POP SWAP2 SWAP1 POP JUMP JUMPDEST PUSH1 0x0 DUP2 SWAP1 POP SWAP2 SWAP1 POP JUMP JUMPDEST PUSH2 0x3949 DUP4 PUSH2 0x3914 JUMP JUMPDEST PUSH2 0x395D PUSH2 0x3955 DUP3 PUSH2 0x3936 JUMP JUMPDEST DUP5 DUP5 SLOAD PUSH2 0x38AE JUMP JUMPDEST DUP3 SSTORE POP POP POP POP JUMP JUMPDEST PUSH1 0x0 SWAP1 JUMP JUMPDEST PUSH2 0x3972 PUSH2 0x3965 JUMP JUMPDEST PUSH2 0x397D DUP2 DUP5 DUP5 PUSH2 0x3940 JUMP JUMPDEST POP POP POP JUMP JUMPDEST JUMPDEST DUP2 DUP2 LT ISZERO PUSH2 0x39A1 JUMPI PUSH2 0x3996 PUSH1 0x0 DUP3 PUSH2 0x396A JUMP JUMPDEST PUSH1 0x1 DUP2 ADD SWAP1 POP PUSH2 0x3983 JUMP JUMPDEST POP POP JUMP JUMPDEST PUSH1 0x1F DUP3 GT ISZERO PUSH2 0x39E6 JUMPI PUSH2 0x39B7 DUP2 PUSH2 0x387C JUMP JUMPDEST PUSH2 0x39C0 DUP5 PUSH2 0x3891 JUMP JUMPDEST DUP2 ADD PUSH1 0x20 DUP6 LT ISZERO PUSH2 0x39CF JUMPI DUP2 SWAP1 POP JUMPDEST PUSH2 0x39E3 PUSH2 0x39DB DUP6 PUSH2 0x3891 JUMP JUMPDEST DUP4 ADD DUP3 PUSH2 0x3982 JUMP JUMPDEST POP POP JUMPDEST POP POP POP JUMP JUMPDEST PUSH1 0x0 DUP3 DUP3 SHR SWAP1 POP SWAP3 SWAP2 POP POP JUMP JUMPDEST PUSH1 0x0 PUSH2 0x3A09 PUSH1 0x0 NOT DUP5 PUSH1 0x8 MUL PUSH2 0x39EB JUMP JUMPDEST NOT DUP1 DUP4 AND SWAP2 POP POP SWAP3 SWAP2 POP POP JUMP JUMPDEST PUSH1 0x0 PUSH2 0x3A22 DUP4 DUP4 PUSH2 0x39F8 JUMP JUMPDEST SWAP2 POP DUP3 PUSH1 0x2 MUL DUP3 OR SWAP1 POP SWAP3 SWAP2 POP POP JUMP JUMPDEST PUSH2 0x3A3B DUP3 PUSH2 0x31BD JUMP JUMPDEST PUSH8 0xFFFFFFFFFFFFFFFF DUP2 GT ISZERO PUSH2 0x3A54 JUMPI PUSH2 0x3A53 PUSH2 0x33B9 JUMP JUMPDEST JUMPDEST PUSH2 0x3A5E DUP3 SLOAD PUSH2 0x36BB JUMP JUMPDEST PUSH2 0x3A69 DUP3 DUP3 DUP6 PUSH2 0x39A5 JUMP JUMPDEST PUSH1 0x0 PUSH1 0x20 SWAP1 POP PUSH1 0x1F DUP4 GT PUSH1 0x1 DUP2 EQ PUSH2 0x3A9C JUMPI PUSH1 0x0 DUP5 ISZERO PUSH2 0x3A8A JUMPI DUP3 DUP8 ADD MLOAD SWAP1 POP JUMPDEST PUSH2 0x3A94 DUP6 DUP3 PUSH2 0x3A16 JUMP JUMPDEST DUP7 SSTORE POP PUSH2 0x3AFC JUMP JUMPDEST PUSH1 0x1F NOT DUP5 AND PUSH2 0x3AAA DUP7 PUSH2 0x387C JUMP JUMPDEST PUSH1 0x0 JUMPDEST DUP3 DUP2 LT ISZERO PUSH2 0x3AD2 JUMPI DUP5 DUP10 ADD MLOAD DUP3 SSTORE PUSH1 0x1 DUP3 ADD SWAP2 POP PUSH1 0x20 DUP6 ADD SWAP5 POP PUSH1 0x20 DUP2 ADD SWAP1 POP PUSH2 0x3AAD JUMP JUMPDEST DUP7 DUP4 LT ISZERO PUSH2 0x3AEF JUMPI DUP5 DUP10 ADD MLOAD PUSH2 0x3AEB PUSH1 0x1F DUP10 AND DUP3 PUSH2 0x39F8 JUMP JUMPDEST DUP4 SSTORE POP JUMPDEST PUSH1 0x1 PUSH1 0x2 DUP9 MUL ADD DUP9 SSTORE POP POP POP JUMPDEST POP POP POP POP POP POP JUMP JUMPDEST PUSH32 0x436F6E74726163743A20446F63746F72206E6F74207265676973746572656400 PUSH1 0x0 DUP3 ADD MSTORE POP JUMP JUMPDEST PUSH1 0x0 PUSH2 0x3B3A PUSH1 0x1F DUP4 PUSH2 0x31C8 JUMP JUMPDEST SWAP2 POP PUSH2 0x3B45 DUP3 PUSH2 0x3B04 JUMP JUMPDEST PUSH1 0x20 DUP3 ADD SWAP1 POP SWAP2 SWAP1 POP JUMP JUMPDEST PUSH1 0x0 PUSH1 0x20 DUP3 ADD SWAP1 POP DUP2 DUP2 SUB PUSH1 0x0 DUP4 ADD MSTORE PUSH2 0x3B69 DUP2 PUSH2 0x3B2D JUMP JUMPDEST SWAP1 POP SWAP2 SWAP1 POP JUMP JUMPDEST PUSH32 0x436F6E74726163743A20456D7074792068617368206973206E6F7420616C6C6F PUSH1 0x0 DUP3 ADD MSTORE PUSH32 0x7765642100000000000000000000000000000000000000000000000000000000 PUSH1 0x20 DUP3 ADD MSTORE POP JUMP JUMPDEST PUSH1 0x0 PUSH2 0x3BCC PUSH1 0x24 DUP4 PUSH2 0x31C8 JUMP JUMPDEST SWAP2 POP PUSH2 0x3BD7 DUP3 PUSH2 0x3B70 JUMP JUMPDEST PUSH1 0x40 DUP3 ADD SWAP1 POP SWAP2 SWAP1 POP JUMP JUMPDEST PUSH1 0x0 PUSH1 0x20 DUP3 ADD SWAP1 POP DUP2 DUP2 SUB PUSH1 0x0 DUP4 ADD MSTORE PUSH2 0x3BFB DUP2 PUSH2 0x3BBF JUMP JUMPDEST SWAP1 POP SWAP2 SWAP1 POP JUMP JUMPDEST PUSH32 0x436F6E74726163743A204164647265737320616C726561647920726567697374 PUSH1 0x0 DUP3 ADD MSTORE PUSH32 0x6572656420617320646F63746F72000000000000000000000000000000000000 PUSH1 0x20 DUP3 ADD MSTORE POP JUMP JUMPDEST PUSH1 0x0 PUSH2 0x3C5E PUSH1 0x2E DUP4 PUSH2 0x31C8 JUMP JUMPDEST SWAP2 POP PUSH2 0x3C69 DUP3 PUSH2 0x3C02 JUMP JUMPDEST PUSH1 0x40 DUP3 ADD SWAP1 POP SWAP2 SWAP1 POP JUMP JUMPDEST PUSH1 0x0 PUSH1 0x20 DUP3 ADD SWAP1 POP DUP2 DUP2 SUB PUSH1 0x0 DUP4 ADD MSTORE PUSH2 0x3C8D DUP2 PUSH2 0x3C51 JUMP JUMPDEST SWAP1 POP SWAP2 SWAP1 POP JUMP JUMPDEST PUSH32 0x436F6E74726163743A20456D707479207075626C6963206B6579206973206E6F PUSH1 0x0 DUP3 ADD MSTORE PUSH32 0x7420616C6C6F7765642100000000000000000000000000000000000000000000 PUSH1 0x20 DUP3 ADD MSTORE POP JUMP JUMPDEST PUSH1 0x0 PUSH2 0x3CF0 PUSH1 0x2A DUP4 PUSH2 0x31C8 JUMP JUMPDEST SWAP2 POP PUSH2 0x3CFB DUP3 PUSH2 0x3C94 JUMP JUMPDEST PUSH1 0x40 DUP3 ADD SWAP1 POP SWAP2 SWAP1 POP JUMP JUMPDEST PUSH1 0x0 PUSH1 0x20 DUP3 ADD SWAP1 POP DUP2 DUP2 SUB PUSH1 0x0 DUP4 ADD MSTORE PUSH2 0x3D1F DUP2 PUSH2 0x3CE3 JUMP JUMPDEST SWAP1 POP SWAP2 SWAP1 POP JUMP JUMPDEST PUSH32 0x526F6C65733A206163636F756E7420697320746865207A65726F206164647265 PUSH1 0x0 DUP3 ADD MSTORE PUSH32 0x7373000000000000000000000000000000000000000000000000000000000000 PUSH1 0x20 DUP3 ADD MSTORE POP JUMP JUMPDEST PUSH1 0x0 PUSH2 0x3D82 PUSH1 0x22 DUP4 PUSH2 0x31C8 JUMP JUMPDEST SWAP2 POP PUSH2 0x3D8D DUP3 PUSH2 0x3D26 JUMP JUMPDEST PUSH1 0x40 DUP3 ADD SWAP1 POP SWAP2 SWAP1 POP JUMP JUMPDEST PUSH1 0x0 PUSH1 0x20 DUP3 ADD SWAP1 POP DUP2 DUP2 SUB PUSH1 0x0 DUP4 ADD MSTORE PUSH2 0x3DB1 DUP2 PUSH2 0x3D75 JUMP JUMPDEST SWAP1 POP SWAP2 SWAP1 POP JUMP JUMPDEST PUSH32 0x4E487B7100000000000000000000000000000000000000000000000000000000 PUSH1 0x0 MSTORE PUSH1 0x11 PUSH1 0x4 MSTORE PUSH1 0x24 PUSH1 0x0 REVERT JUMPDEST PUSH1 0x0 PUSH2 0x3DF2 DUP3 PUSH2 0x3900 JUMP JUMPDEST SWAP2 POP PUSH2 0x3DFD DUP4 PUSH2 0x3900 JUMP JUMPDEST SWAP3 POP DUP3 DUP3 SUB SWAP1 POP DUP2 DUP2 GT ISZERO PUSH2 0x3E15 JUMPI PUSH2 0x3E14 PUSH2 0x3DB8 JUMP JUMPDEST JUMPDEST SWAP3 SWAP2 POP POP JUMP JUMPDEST PUSH32 0x4E487B7100000000000000000000000000000000000000000000000000000000 PUSH1 0x0 MSTORE PUSH1 0x32 PUSH1 0x4 MSTORE PUSH1 0x24 PUSH1 0x0 REVERT JUMPDEST PUSH32 0x4E487B7100000000000000000000000000000000000000000000000000000000 PUSH1 0x0 MSTORE PUSH1 0x31 PUSH1 0x4 MSTORE PUSH1 0x24 PUSH1 0x0 REVERT JUMPDEST PUSH32 0x526F6C65733A206163636F756E7420616C72656164792068617320726F6C6500 PUSH1 0x0 DUP3 ADD MSTORE POP JUMP JUMPDEST PUSH1 0x0 PUSH2 0x3EAF PUSH1 0x1F DUP4 PUSH2 0x31C8 JUMP JUMPDEST SWAP2 POP PUSH2 0x3EBA DUP3 PUSH2 0x3E79 JUMP JUMPDEST PUSH1 0x20 DUP3 ADD SWAP1 POP SWAP2 SWAP1 POP JUMP JUMPDEST PUSH1 0x0 PUSH1 0x20 DUP3 ADD SWAP1 POP DUP2 DUP2 SUB PUSH1 0x0 DUP4 ADD MSTORE PUSH2 0x3EDE DUP2 PUSH2 0x3EA2 JUMP JUMPDEST SWAP1 POP SWAP2 SWAP1 POP JUMP JUMPDEST PUSH1 0x0 PUSH2 0x3EF0 DUP3 PUSH2 0x3900 JUMP JUMPDEST SWAP2 POP PUSH32 0xFFFFFFFFFFFFFFFFFFFFFFFFFFFFFFFFFFFFFFFFFFFFFFFFFFFFFFFFFFFFFFFF DUP3 SUB PUSH2 0x3F22 JUMPI PUSH2 0x3F21 PUSH2 0x3DB8 JUMP JUMPDEST JUMPDEST PUSH1 0x1 DUP3 ADD SWAP1 POP SWAP2 SWAP1 POP JUMP JUMPDEST PUSH32 0x526F6C65733A206163636F756E7420646F6573206E6F74206861766520726F6C PUSH1 0x0 DUP3 ADD MSTORE PUSH32 0x6500000000000000000000000000000000000000000000000000000000000000 PUSH1 0x20 DUP3 ADD MSTORE POP JUMP JUMPDEST PUSH1 0x0 PUSH2 0x3F89 PUSH1 0x21 DUP4 PUSH2 0x31C8 JUMP JUMPDEST SWAP2 POP PUSH2 0x3F94 DUP3 PUSH2 0x3F2D JUMP JUMPDEST PUSH1 0x40 DUP3 ADD SWAP1 POP SWAP2 SWAP1 POP JUMP JUMPDEST PUSH1 0x0 PUSH1 0x20 DUP3 ADD SWAP1 POP DUP2 DUP2 SUB PUSH1 0x0 DUP4 ADD MSTORE PUSH2 0x3FB8 DUP2 PUSH2 0x3F7C JUMP JUMPDEST SWAP1 POP SWAP2 SWAP1 POP JUMP INVALID LOG2 PUSH5 0x6970667358 0x22 SLT KECCAK256 LT CREATE BALANCE BLOCKHASH SUB 0xE7 SWAP7 PUSH1 0x2D SIGNEXTEND 0x2D SWAP14 SWAP2 0xC3 ORIGIN PUSH27 0xD01A115A519D00A05CA8EB53932645FB64736F6C63430008120033 "
  },
  "Assembly": ".code\n  PUSH 80\t\t\tcontract Contract {\\n    // us...\n  PUSH 40\t\t\tcontract Contract {\\n    // us...\n  MSTORE \t\t\tcontract Contract {\\n    // us...\n  CALLVALUE \t\t\tconstructor() {\\n        admin...\n  DUP1 \t\t\tconstructor() {\\n        admin...\n  ISZERO \t\t\tconstructor() {\\n        admin...\n  PUSH [tag] 1\t\t\tconstructor() {\\n        admin...\n  JUMPI \t\t\tconstructor() {\\n        admin...\n  PUSH 0\t\t\tconstructor() {\\n        admin...\n  DUP1 \t\t\tconstructor() {\\n        admin...\n  REVERT \t\t\tconstructor() {\\n        admin...\ntag 1\t\t\tconstructor() {\\n        admin...\n  JUMPDEST \t\t\tconstructor() {\\n        admin...\n  POP \t\t\tconstructor() {\\n        admin...\n  CALLER \t\t\tmsg.sender\n  PUSH 0\t\t\tadmin\n  DUP1 \t\t\tadmin.user\n  ADD \t\t\tadmin.user\n  PUSH 0\t\t\tadmin.user\n  PUSH 100\t\t\tadmin.user = msg.sender\n  EXP \t\t\tadmin.user = msg.sender\n  DUP2 \t\t\tadmin.user = msg.sender\n  SLOAD \t\t\tadmin.user = msg.sender\n  DUP2 \t\t\tadmin.user = msg.sender\n  PUSH FFFFFFFFFFFFFFFFFFFFFFFFFFFFFFFFFFFFFFFF\t\t\tadmin.user = msg.sender\n  MUL \t\t\tadmin.user = msg.sender\n  NOT \t\t\tadmin.user = msg.sender\n  AND \t\t\tadmin.user = msg.sender\n  SWAP1 \t\t\tadmin.user = msg.sender\n  DUP4 \t\t\tadmin.user = msg.sender\n  PUSH FFFFFFFFFFFFFFFFFFFFFFFFFFFFFFFFFFFFFFFF\t\t\tadmin.user = msg.sender\n  AND \t\t\tadmin.user = msg.sender\n  MUL \t\t\tadmin.user = msg.sender\n  OR \t\t\tadmin.user = msg.sender\n  SWAP1 \t\t\tadmin.user = msg.sender\n  SSTORE \t\t\tadmin.user = msg.sender\n  POP \t\t\tadmin.user = msg.sender\n  PUSH #[$] 0000000000000000000000000000000000000000000000000000000000000000\t\t\tcontract Contract {\\n    // us...\n  DUP1 \t\t\tcontract Contract {\\n    // us...\n  PUSH [$] 0000000000000000000000000000000000000000000000000000000000000000\t\t\tcontract Contract {\\n    // us...\n  PUSH 0\t\t\tcontract Contract {\\n    // us...\n  CODECOPY \t\t\tcontract Contract {\\n    // us...\n  PUSH 0\t\t\tcontract Contract {\\n    // us...\n  RETURN \t\t\tcontract Contract {\\n    // us...\n.data\n  0:\n    .code\n      PUSH 80\t\t\tcontract Contract {\\n    // us...\n      PUSH 40\t\t\tcontract Contract {\\n    // us...\n      MSTORE \t\t\tcontract Contract {\\n    // us...\n      CALLVALUE \t\t\tcontract Contract {\\n    // us...\n      DUP1 \t\t\tcontract Contract {\\n    // us...\n      ISZERO \t\t\tcontract Contract {\\n    // us...\n      PUSH [tag] 1\t\t\tcontract Contract {\\n    // us...\n      JUMPI \t\t\tcontract Contract {\\n    // us...\n      PUSH 0\t\t\tcontract Contract {\\n    // us...\n      DUP1 \t\t\tcontract Contract {\\n    // us...\n      REVERT \t\t\tcontract Contract {\\n    // us...\n    tag 1\t\t\tcontract Contract {\\n    // us...\n      JUMPDEST \t\t\tcontract Contract {\\n    // us...\n      POP \t\t\tcontract Contract {\\n    // us...\n      PUSH 4\t\t\tcontract Contract {\\n    // us...\n      CALLDATASIZE \t\t\tcontract Contract {\\n    // us...\n      LT \t\t\tcontract Contract {\\n    // us...\n      PUSH [tag] 2\t\t\tcontract Contract {\\n    // us...\n      JUMPI \t\t\tcontract Contract {\\n    // us...\n      PUSH 0\t\t\tcontract Contract {\\n    // us...\n      CALLDATALOAD \t\t\tcontract Contract {\\n    // us...\n      PUSH E0\t\t\tcontract Contract {\\n    // us...\n      SHR \t\t\tcontract Contract {\\n    // us...\n      DUP1 \t\t\tcontract Contract {\\n    // us...\n      PUSH 8F9C79ED\t\t\tcontract Contract {\\n    // us...\n      GT \t\t\tcontract Contract {\\n    // us...\n      PUSH [tag] 33\t\t\tcontract Contract {\\n    // us...\n      JUMPI \t\t\tcontract Contract {\\n    // us...\n      DUP1 \t\t\tcontract Contract {\\n    // us...\n      PUSH C70597AD\t\t\tcontract Contract {\\n    // us...\n      GT \t\t\tcontract Contract {\\n    // us...\n      PUSH [tag] 34\t\t\tcontract Contract {\\n    // us...\n      JUMPI \t\t\tcontract Contract {\\n    // us...\n      DUP1 \t\t\tcontract Contract {\\n    // us...\n      PUSH D3CD4DF4\t\t\tcontract Contract {\\n    // us...\n      GT \t\t\tcontract Contract {\\n    // us...\n      PUSH [tag] 35\t\t\tcontract Contract {\\n    // us...\n      JUMPI \t\t\tcontract Contract {\\n    // us...\n      DUP1 \t\t\tcontract Contract {\\n    // us...\n      PUSH D3CD4DF4\t\t\tcontract Contract {\\n    // us...\n      EQ \t\t\tcontract Contract {\\n    // us...\n      PUSH [tag] 29\t\t\tcontract Contract {\\n    // us...\n      JUMPI \t\t\tcontract Contract {\\n    // us...\n      DUP1 \t\t\tcontract Contract {\\n    // us...\n      PUSH DC823AAF\t\t\tcontract Contract {\\n    // us...\n      EQ \t\t\tcontract Contract {\\n    // us...\n      PUSH [tag] 30\t\t\tcontract Contract {\\n    // us...\n      JUMPI \t\t\tcontract Contract {\\n    // us...\n      DUP1 \t\t\tcontract Contract {\\n    // us...\n      PUSH E2877B4E\t\t\tcontract Contract {\\n    // us...\n      EQ \t\t\tcontract Contract {\\n    // us...\n      PUSH [tag] 31\t\t\tcontract Contract {\\n    // us...\n      JUMPI \t\t\tcontract Contract {\\n    // us...\n      DUP1 \t\t\tcontract Contract {\\n    // us...\n      PUSH F7A03A1E\t\t\tcontract Contract {\\n    // us...\n      EQ \t\t\tcontract Contract {\\n    // us...\n      PUSH [tag] 32\t\t\tcontract Contract {\\n    // us...\n      JUMPI \t\t\tcontract Contract {\\n    // us...\n      PUSH [tag] 2\t\t\tcontract Contract {\\n    // us...\n      JUMP \t\t\tcontract Contract {\\n    // us...\n    tag 35\t\t\tcontract Contract {\\n    // us...\n      JUMPDEST \t\t\tcontract Contract {\\n    // us...\n      DUP1 \t\t\tcontract Contract {\\n    // us...\n      PUSH C70597AD\t\t\tcontract Contract {\\n    // us...\n      EQ \t\t\tcontract Contract {\\n    // us...\n      PUSH [tag] 25\t\t\tcontract Contract {\\n    // us...\n      JUMPI \t\t\tcontract Contract {\\n    // us...\n      DUP1 \t\t\tcontract Contract {\\n    // us...\n      PUSH CCE9D43E\t\t\tcontract Contract {\\n    // us...\n      EQ \t\t\tcontract Contract {\\n    // us...\n      PUSH [tag] 26\t\t\tcontract Contract {\\n    // us...\n      JUMPI \t\t\tcontract Contract {\\n    // us...\n      DUP1 \t\t\tcontract Contract {\\n    // us...\n      PUSH CCFAED16\t\t\tcontract Contract {\\n    // us...\n      EQ \t\t\tcontract Contract {\\n    // us...\n      PUSH [tag] 27\t\t\tcontract Contract {\\n    // us...\n      JUMPI \t\t\tcontract Contract {\\n    // us...\n      DUP1 \t\t\tcontract Contract {\\n    // us...\n      PUSH D0D9A5E3\t\t\tcontract Contract {\\n    // us...\n      EQ \t\t\tcontract Contract {\\n    // us...\n      PUSH [tag] 28\t\t\tcontract Contract {\\n    // us...\n      JUMPI \t\t\tcontract Contract {\\n    // us...\n      PUSH [tag] 2\t\t\tcontract Contract {\\n    // us...\n      JUMP \t\t\tcontract Contract {\\n    // us...\n    tag 34\t\t\tcontract Contract {\\n    // us...\n      JUMPDEST \t\t\tcontract Contract {\\n    // us...\n      DUP1 \t\t\tcontract Contract {\\n    // us...\n      PUSH A03DE49E\t\t\tcontract Contract {\\n    // us...\n      GT \t\t\tcontract Contract {\\n    // us...\n      PUSH [tag] 36\t\t\tcontract Contract {\\n    // us...\n      JUMPI \t\t\tcontract Contract {\\n    // us...\n      DUP1 \t\t\tcontract Contract {\\n    // us...\n      PUSH A03DE49E\t\t\tcontract Contract {\\n    // us...\n      EQ \t\t\tcontract Contract {\\n    // us...\n      PUSH [tag] 21\t\t\tcontract Contract {\\n    // us...\n      JUMPI \t\t\tcontract Contract {\\n    // us...\n      DUP1 \t\t\tcontract Contract {\\n    // us...\n      PUSH A53F514D\t\t\tcontract Contract {\\n    // us...\n      EQ \t\t\tcontract Contract {\\n    // us...\n      PUSH [tag] 22\t\t\tcontract Contract {\\n    // us...\n      JUMPI \t\t\tcontract Contract {\\n    // us...\n      DUP1 \t\t\tcontract Contract {\\n    // us...\n      PUSH AFB97E3D\t\t\tcontract Contract {\\n    // us...\n      EQ \t\t\tcontract Contract {\\n    // us...\n      PUSH [tag] 23\t\t\tcontract Contract {\\n    // us...\n      JUMPI \t\t\tcontract Contract {\\n    // us...\n      DUP1 \t\t\tcontract Contract {\\n    // us...\n      PUSH B1E758A4\t\t\tcontract Contract {\\n    // us...\n      EQ \t\t\tcontract Contract {\\n    // us...\n      PUSH [tag] 24\t\t\tcontract Contract {\\n    // us...\n      JUMPI \t\t\tcontract Contract {\\n    // us...\n      PUSH [tag] 2\t\t\tcontract Contract {\\n    // us...\n      JUMP \t\t\tcontract Contract {\\n    // us...\n    tag 36\t\t\tcontract Contract {\\n    // us...\n      JUMPDEST \t\t\tcontract Contract {\\n    // us...\n      DUP1 \t\t\tcontract Contract {\\n    // us...\n      PUSH 8F9C79ED\t\t\tcontract Contract {\\n    // us...\n      EQ \t\t\tcontract Contract {\\n    // us...\n      PUSH [tag] 18\t\t\tcontract Contract {\\n    // us...\n      JUMPI \t\t\tcontract Contract {\\n    // us...\n      DUP1 \t\t\tcontract Contract {\\n    // us...\n      PUSH 996440C6\t\t\tcontract Contract {\\n    // us...\n      EQ \t\t\tcontract Contract {\\n    // us...\n      PUSH [tag] 19\t\t\tcontract Contract {\\n    // us...\n      JUMPI \t\t\tcontract Contract {\\n    // us...\n      DUP1 \t\t\tcontract Contract {\\n    // us...\n      PUSH 99EEDD2A\t\t\tcontract Contract {\\n    // us...\n      EQ \t\t\tcontract Contract {\\n    // us...\n      PUSH [tag] 20\t\t\tcontract Contract {\\n    // us...\n      JUMPI \t\t\tcontract Contract {\\n    // us...\n      PUSH [tag] 2\t\t\tcontract Contract {\\n    // us...\n      JUMP \t\t\tcontract Contract {\\n    // us...\n    tag 33\t\t\tcontract Contract {\\n    // us...\n      JUMPDEST \t\t\tcontract Contract {\\n    // us...\n      DUP1 \t\t\tcontract Contract {\\n    // us...\n      PUSH 3D8198B4\t\t\tcontract Contract {\\n    // us...\n      GT \t\t\tcontract Contract {\\n    // us...\n      PUSH [tag] 37\t\t\tcontract Contract {\\n    // us...\n      JUMPI \t\t\tcontract Contract {\\n    // us...\n      DUP1 \t\t\tcontract Contract {\\n    // us...\n      PUSH 6E9960C3\t\t\tcontract Contract {\\n    // us...\n      GT \t\t\tcontract Contract {\\n    // us...\n      PUSH [tag] 38\t\t\tcontract Contract {\\n    // us...\n      JUMPI \t\t\tcontract Contract {\\n    // us...\n      DUP1 \t\t\tcontract Contract {\\n    // us...\n      PUSH 6E9960C3\t\t\tcontract Contract {\\n    // us...\n      EQ \t\t\tcontract Contract {\\n    // us...\n      PUSH [tag] 14\t\t\tcontract Contract {\\n    // us...\n      JUMPI \t\t\tcontract Contract {\\n    // us...\n      DUP1 \t\t\tcontract Contract {\\n    // us...\n      PUSH 745ADA64\t\t\tcontract Contract {\\n    // us...\n      EQ \t\t\tcontract Contract {\\n    // us...\n      PUSH [tag] 15\t\t\tcontract Contract {\\n    // us...\n      JUMPI \t\t\tcontract Contract {\\n    // us...\n      DUP1 \t\t\tcontract Contract {\\n    // us...\n      PUSH 88C432E1\t\t\tcontract Contract {\\n    // us...\n      EQ \t\t\tcontract Contract {\\n    // us...\n      PUSH [tag] 16\t\t\tcontract Contract {\\n    // us...\n      JUMPI \t\t\tcontract Contract {\\n    // us...\n      DUP1 \t\t\tcontract Contract {\\n    // us...\n      PUSH 8F7F43A9\t\t\tcontract Contract {\\n    // us...\n      EQ \t\t\tcontract Contract {\\n    // us...\n      PUSH [tag] 17\t\t\tcontract Contract {\\n    // us...\n      JUMPI \t\t\tcontract Contract {\\n    // us...\n      PUSH [tag] 2\t\t\tcontract Contract {\\n    // us...\n      JUMP \t\t\tcontract Contract {\\n    // us...\n    tag 38\t\t\tcontract Contract {\\n    // us...\n      JUMPDEST \t\t\tcontract Contract {\\n    // us...\n      DUP1 \t\t\tcontract Contract {\\n    // us...\n      PUSH 3D8198B4\t\t\tcontract Contract {\\n    // us...\n      EQ \t\t\tcontract Contract {\\n    // us...\n      PUSH [tag] 10\t\t\tcontract Contract {\\n    // us...\n      JUMPI \t\t\tcontract Contract {\\n    // us...\n      DUP1 \t\t\tcontract Contract {\\n    // us...\n      PUSH 4DF0A2D4\t\t\tcontract Contract {\\n    // us...\n      EQ \t\t\tcontract Contract {\\n    // us...\n      PUSH [tag] 11\t\t\tcontract Contract {\\n    // us...\n      JUMPI \t\t\tcontract Contract {\\n    // us...\n      DUP1 \t\t\tcontract Contract {\\n    // us...\n      PUSH 5B0A7AAD\t\t\tcontract Contract {\\n    // us...\n      EQ \t\t\tcontract Contract {\\n    // us...\n      PUSH [tag] 12\t\t\tcontract Contract {\\n    // us...\n      JUMPI \t\t\tcontract Contract {\\n    // us...\n      DUP1 \t\t\tcontract Contract {\\n    // us...\n      PUSH 6D4BCE20\t\t\tcontract Contract {\\n    // us...\n      EQ \t\t\tcontract Contract {\\n    // us...\n      PUSH [tag] 13\t\t\tcontract Contract {\\n    // us...\n      JUMPI \t\t\tcontract Contract {\\n    // us...\n      PUSH [tag] 2\t\t\tcontract Contract {\\n    // us...\n      JUMP \t\t\tcontract Contract {\\n    // us...\n    tag 37\t\t\tcontract Contract {\\n    // us...\n      JUMPDEST \t\t\tcontract Contract {\\n    // us...\n      DUP1 \t\t\tcontract Contract {\\n    // us...\n      PUSH 21639F04\t\t\tcontract Contract {\\n    // us...\n      GT \t\t\tcontract Contract {\\n    // us...\n      PUSH [tag] 39\t\t\tcontract Contract {\\n    // us...\n      JUMPI \t\t\tcontract Contract {\\n    // us...\n      DUP1 \t\t\tcontract Contract {\\n    // us...\n      PUSH 21639F04\t\t\tcontract Contract {\\n    // us...\n      EQ \t\t\tcontract Contract {\\n    // us...\n      PUSH [tag] 6\t\t\tcontract Contract {\\n    // us...\n      JUMPI \t\t\tcontract Contract {\\n    // us...\n      DUP1 \t\t\tcontract Contract {\\n    // us...\n      PUSH 24D7806C\t\t\tcontract Contract {\\n    // us...\n      EQ \t\t\tcontract Contract {\\n    // us...\n      PUSH [tag] 7\t\t\tcontract Contract {\\n    // us...\n      JUMPI \t\t\tcontract Contract {\\n    // us...\n      DUP1 \t\t\tcontract Contract {\\n    // us...\n      PUSH 290C61B0\t\t\tcontract Contract {\\n    // us...\n      EQ \t\t\tcontract Contract {\\n    // us...\n      PUSH [tag] 8\t\t\tcontract Contract {\\n    // us...\n      JUMPI \t\t\tcontract Contract {\\n    // us...\n      DUP1 \t\t\tcontract Contract {\\n    // us...\n      PUSH 32991838\t\t\tcontract Contract {\\n    // us...\n      EQ \t\t\tcontract Contract {\\n    // us...\n      PUSH [tag] 9\t\t\tcontract Contract {\\n    // us...\n      JUMPI \t\t\tcontract Contract {\\n    // us...\n      PUSH [tag] 2\t\t\tcontract Contract {\\n    // us...\n      JUMP \t\t\tcontract Contract {\\n    // us...\n    tag 39\t\t\tcontract Contract {\\n    // us...\n      JUMPDEST \t\t\tcontract Contract {\\n    // us...\n      DUP1 \t\t\tcontract Contract {\\n    // us...\n      PUSH DE99991\t\t\tcontract Contract {\\n    // us...\n      EQ \t\t\tcontract Contract {\\n    // us...\n      PUSH [tag] 3\t\t\tcontract Contract {\\n    // us...\n      JUMPI \t\t\tcontract Contract {\\n    // us...\n      DUP1 \t\t\tcontract Contract {\\n    // us...\n      PUSH 116461E9\t\t\tcontract Contract {\\n    // us...\n      EQ \t\t\tcontract Contract {\\n    // us...\n      PUSH [tag] 4\t\t\tcontract Contract {\\n    // us...\n      JUMPI \t\t\tcontract Contract {\\n    // us...\n      DUP1 \t\t\tcontract Contract {\\n    // us...\n      PUSH 1DA3E2DC\t\t\tcontract Contract {\\n    // us...\n      EQ \t\t\tcontract Contract {\\n    // us...\n      PUSH [tag] 5\t\t\tcontract Contract {\\n    // us...\n      JUMPI \t\t\tcontract Contract {\\n    // us...\n    tag 2\t\t\tcontract Contract {\\n    // us...\n      JUMPDEST \t\t\tcontract Contract {\\n    // us...\n      PUSH 0\t\t\tcontract Contract {\\n    // us...\n      DUP1 \t\t\tcontract Contract {\\n    // us...\n      REVERT \t\t\tcontract Contract {\\n    // us...\n    tag 3\t\t\tfunction approveDr(address _ad...\n      JUMPDEST \t\t\tfunction approveDr(address _ad...\n      PUSH [tag] 40\t\t\tfunction approveDr(address _ad...\n      PUSH 4\t\t\tfunction approveDr(address _ad...\n      DUP1 \t\t\tfunction approveDr(address _ad...\n      CALLDATASIZE \t\t\tfunction approveDr(address _ad...\n      SUB \t\t\tfunction approveDr(address _ad...\n      DUP2 \t\t\tfunction approveDr(address _ad...\n      ADD \t\t\tfunction approveDr(address _ad...\n      SWAP1 \t\t\tfunction approveDr(address _ad...\n      PUSH [tag] 41\t\t\tfunction approveDr(address _ad...\n      SWAP2 \t\t\tfunction approveDr(address _ad...\n      SWAP1 \t\t\tfunction approveDr(address _ad...\n      PUSH [tag] 42\t\t\tfunction approveDr(address _ad...\n      JUMP \t\t\tfunction approveDr(address _ad...\n    tag 41\t\t\tfunction approveDr(address _ad...\n      JUMPDEST \t\t\tfunction approveDr(address _ad...\n      PUSH [tag] 43\t\t\tfunction approveDr(address _ad...\n      JUMP \t\t\tfunction approveDr(address _ad...\n    tag 40\t\t\tfunction approveDr(address _ad...\n      JUMPDEST \t\t\tfunction approveDr(address _ad...\n      STOP \t\t\tfunction approveDr(address _ad...\n    tag 4\t\t\tfunction getAdminPubKey() publ...\n      JUMPDEST \t\t\tfunction getAdminPubKey() publ...\n      PUSH [tag] 44\t\t\tfunction getAdminPubKey() publ...\n      PUSH [tag] 45\t\t\tfunction getAdminPubKey() publ...\n      JUMP \t\t\tfunction getAdminPubKey() publ...\n    tag 44\t\t\tfunction getAdminPubKey() publ...\n      JUMPDEST \t\t\tfunction getAdminPubKey() publ...\n      PUSH 40\t\t\tfunction getAdminPubKey() publ...\n      MLOAD \t\t\tfunction getAdminPubKey() publ...\n      PUSH [tag] 46\t\t\tfunction getAdminPubKey() publ...\n      SWAP2 \t\t\tfunction getAdminPubKey() publ...\n      SWAP1 \t\t\tfunction getAdminPubKey() publ...\n      PUSH [tag] 47\t\t\tfunction getAdminPubKey() publ...\n      JUMP \t\t\tfunction getAdminPubKey() publ...\n    tag 46\t\t\tfunction getAdminPubKey() publ...\n      JUMPDEST \t\t\tfunction getAdminPubKey() publ...\n      PUSH 40\t\t\tfunction getAdminPubKey() publ...\n      MLOAD \t\t\tfunction getAdminPubKey() publ...\n      DUP1 \t\t\tfunction getAdminPubKey() publ...\n      SWAP2 \t\t\tfunction getAdminPubKey() publ...\n      SUB \t\t\tfunction getAdminPubKey() publ...\n      SWAP1 \t\t\tfunction getAdminPubKey() publ...\n      RETURN \t\t\tfunction getAdminPubKey() publ...\n    tag 5\t\t\tfunction getAllDrs() public vi...\n      JUMPDEST \t\t\tfunction getAllDrs() public vi...\n      PUSH [tag] 48\t\t\tfunction getAllDrs() public vi...\n      PUSH [tag] 49\t\t\tfunction getAllDrs() public vi...\n      JUMP \t\t\tfunction getAllDrs() public vi...\n    tag 48\t\t\tfunction getAllDrs() public vi...\n      JUMPDEST \t\t\tfunction getAllDrs() public vi...\n      PUSH 40\t\t\tfunction getAllDrs() public vi...\n      MLOAD \t\t\tfunction getAllDrs() public vi...\n      PUSH [tag] 50\t\t\tfunction getAllDrs() public vi...\n      SWAP2 \t\t\tfunction getAllDrs() public vi...\n      SWAP1 \t\t\tfunction getAllDrs() public vi...\n      PUSH [tag] 51\t\t\tfunction getAllDrs() public vi...\n      JUMP \t\t\tfunction getAllDrs() public vi...\n    tag 50\t\t\tfunction getAllDrs() public vi...\n      JUMPDEST \t\t\tfunction getAllDrs() public vi...\n      PUSH 40\t\t\tfunction getAllDrs() public vi...\n      MLOAD \t\t\tfunction getAllDrs() public vi...\n      DUP1 \t\t\tfunction getAllDrs() public vi...\n      SWAP2 \t\t\tfunction getAllDrs() public vi...\n      SUB \t\t\tfunction getAllDrs() public vi...\n      SWAP1 \t\t\tfunction getAllDrs() public vi...\n      RETURN \t\t\tfunction getAllDrs() public vi...\n    tag 6\t\t\tfunction getDrOfPt() public vi...\n      JUMPDEST \t\t\tfunction getDrOfPt() public vi...\n      PUSH [tag] 52\t\t\tfunction getDrOfPt() public vi...\n      PUSH [tag] 53\t\t\tfunction getDrOfPt() public vi...\n      JUMP \t\t\tfunction getDrOfPt() public vi...\n    tag 52\t\t\tfunction getDrOfPt() public vi...\n      JUMPDEST \t\t\tfunction getDrOfPt() public vi...\n      PUSH 40\t\t\tfunction getDrOfPt() public vi...\n      MLOAD \t\t\tfunction getDrOfPt() public vi...\n      PUSH [tag] 54\t\t\tfunction getDrOfPt() public vi...\n      SWAP2 \t\t\tfunction getDrOfPt() public vi...\n      SWAP1 \t\t\tfunction getDrOfPt() public vi...\n      PUSH [tag] 55\t\t\tfunction getDrOfPt() public vi...\n      JUMP \t\t\tfunction getDrOfPt() public vi...\n    tag 54\t\t\tfunction getDrOfPt() public vi...\n      JUMPDEST \t\t\tfunction getDrOfPt() public vi...\n      PUSH 40\t\t\tfunction getDrOfPt() public vi...\n      MLOAD \t\t\tfunction getDrOfPt() public vi...\n      DUP1 \t\t\tfunction getDrOfPt() public vi...\n      SWAP2 \t\t\tfunction getDrOfPt() public vi...\n      SUB \t\t\tfunction getDrOfPt() public vi...\n      SWAP1 \t\t\tfunction getDrOfPt() public vi...\n      RETURN \t\t\tfunction getDrOfPt() public vi...\n    tag 7\t\t\tfunction isAdmin(address _addr...\n      JUMPDEST \t\t\tfunction isAdmin(address _addr...\n      PUSH [tag] 56\t\t\tfunction isAdmin(address _addr...\n      PUSH 4\t\t\tfunction isAdmin(address _addr...\n      DUP1 \t\t\tfunction isAdmin(address _addr...\n      CALLDATASIZE \t\t\tfunction isAdmin(address _addr...\n      SUB \t\t\tfunction isAdmin(address _addr...\n      DUP2 \t\t\tfunction isAdmin(address _addr...\n      ADD \t\t\tfunction isAdmin(address _addr...\n      SWAP1 \t\t\tfunction isAdmin(address _addr...\n      PUSH [tag] 57\t\t\tfunction isAdmin(address _addr...\n      SWAP2 \t\t\tfunction isAdmin(address _addr...\n      SWAP1 \t\t\tfunction isAdmin(address _addr...\n      PUSH [tag] 42\t\t\tfunction isAdmin(address _addr...\n      JUMP \t\t\tfunction isAdmin(address _addr...\n    tag 57\t\t\tfunction isAdmin(address _addr...\n      JUMPDEST \t\t\tfunction isAdmin(address _addr...\n      PUSH [tag] 58\t\t\tfunction isAdmin(address _addr...\n      JUMP \t\t\tfunction isAdmin(address _addr...\n    tag 56\t\t\tfunction isAdmin(address _addr...\n      JUMPDEST \t\t\tfunction isAdmin(address _addr...\n      PUSH 40\t\t\tfunction isAdmin(address _addr...\n      MLOAD \t\t\tfunction isAdmin(address _addr...\n      PUSH [tag] 59\t\t\tfunction isAdmin(address _addr...\n      SWAP2 \t\t\tfunction isAdmin(address _addr...\n      SWAP1 \t\t\tfunction isAdmin(address _addr...\n      PUSH [tag] 60\t\t\tfunction isAdmin(address _addr...\n      JUMP \t\t\tfunction isAdmin(address _addr...\n    tag 59\t\t\tfunction isAdmin(address _addr...\n      JUMPDEST \t\t\tfunction isAdmin(address _addr...\n      PUSH 40\t\t\tfunction isAdmin(address _addr...\n      MLOAD \t\t\tfunction isAdmin(address _addr...\n      DUP1 \t\t\tfunction isAdmin(address _addr...\n      SWAP2 \t\t\tfunction isAdmin(address _addr...\n      SUB \t\t\tfunction isAdmin(address _addr...\n      SWAP1 \t\t\tfunction isAdmin(address _addr...\n      RETURN \t\t\tfunction isAdmin(address _addr...\n    tag 8\t\t\tfunction isDrRegistered(addres...\n      JUMPDEST \t\t\tfunction isDrRegistered(addres...\n      PUSH [tag] 61\t\t\tfunction isDrRegistered(addres...\n      PUSH 4\t\t\tfunction isDrRegistered(addres...\n      DUP1 \t\t\tfunction isDrRegistered(addres...\n      CALLDATASIZE \t\t\tfunction isDrRegistered(addres...\n      SUB \t\t\tfunction isDrRegistered(addres...\n      DUP2 \t\t\tfunction isDrRegistered(addres...\n      ADD \t\t\tfunction isDrRegistered(addres...\n      SWAP1 \t\t\tfunction isDrRegistered(addres...\n      PUSH [tag] 62\t\t\tfunction isDrRegistered(addres...\n      SWAP2 \t\t\tfunction isDrRegistered(addres...\n      SWAP1 \t\t\tfunction isDrRegistered(addres...\n      PUSH [tag] 42\t\t\tfunction isDrRegistered(addres...\n      JUMP \t\t\tfunction isDrRegistered(addres...\n    tag 62\t\t\tfunction isDrRegistered(addres...\n      JUMPDEST \t\t\tfunction isDrRegistered(addres...\n      PUSH [tag] 63\t\t\tfunction isDrRegistered(addres...\n      JUMP \t\t\tfunction isDrRegistered(addres...\n    tag 61\t\t\tfunction isDrRegistered(addres...\n      JUMPDEST \t\t\tfunction isDrRegistered(addres...\n      PUSH 40\t\t\tfunction isDrRegistered(addres...\n      MLOAD \t\t\tfunction isDrRegistered(addres...\n      PUSH [tag] 64\t\t\tfunction isDrRegistered(addres...\n      SWAP2 \t\t\tfunction isDrRegistered(addres...\n      SWAP1 \t\t\tfunction isDrRegistered(addres...\n      PUSH [tag] 60\t\t\tfunction isDrRegistered(addres...\n      JUMP \t\t\tfunction isDrRegistered(addres...\n    tag 64\t\t\tfunction isDrRegistered(addres...\n      JUMPDEST \t\t\tfunction isDrRegistered(addres...\n      PUSH 40\t\t\tfunction isDrRegistered(addres...\n      MLOAD \t\t\tfunction isDrRegistered(addres...\n      DUP1 \t\t\tfunction isDrRegistered(addres...\n      SWAP2 \t\t\tfunction isDrRegistered(addres...\n      SUB \t\t\tfunction isDrRegistered(addres...\n      SWAP1 \t\t\tfunction isDrRegistered(addres...\n      RETURN \t\t\tfunction isDrRegistered(addres...\n    tag 9\t\t\tfunction registerDr(string mem...\n      JUMPDEST \t\t\tfunction registerDr(string mem...\n      PUSH [tag] 65\t\t\tfunction registerDr(string mem...\n      PUSH 4\t\t\tfunction registerDr(string mem...\n      DUP1 \t\t\tfunction registerDr(string mem...\n      CALLDATASIZE \t\t\tfunction registerDr(string mem...\n      SUB \t\t\tfunction registerDr(string mem...\n      DUP2 \t\t\tfunction registerDr(string mem...\n      ADD \t\t\tfunction registerDr(string mem...\n      SWAP1 \t\t\tfunction registerDr(string mem...\n      PUSH [tag] 66\t\t\tfunction registerDr(string mem...\n      SWAP2 \t\t\tfunction registerDr(string mem...\n      SWAP1 \t\t\tfunction registerDr(string mem...\n      PUSH [tag] 67\t\t\tfunction registerDr(string mem...\n      JUMP \t\t\tfunction registerDr(string mem...\n    tag 66\t\t\tfunction registerDr(string mem...\n      JUMPDEST \t\t\tfunction registerDr(string mem...\n      PUSH [tag] 68\t\t\tfunction registerDr(string mem...\n      JUMP \t\t\tfunction registerDr(string mem...\n    tag 65\t\t\tfunction registerDr(string mem...\n      JUMPDEST \t\t\tfunction registerDr(string mem...\n      STOP \t\t\tfunction registerDr(string mem...\n    tag 10\t\t\tfunction getPtRecordHash(addre...\n      JUMPDEST \t\t\tfunction getPtRecordHash(addre...\n      PUSH [tag] 69\t\t\tfunction getPtRecordHash(addre...\n      PUSH 4\t\t\tfunction getPtRecordHash(addre...\n      DUP1 \t\t\tfunction getPtRecordHash(addre...\n      CALLDATASIZE \t\t\tfunction getPtRecordHash(addre...\n      SUB \t\t\tfunction getPtRecordHash(addre...\n      DUP2 \t\t\tfunction getPtRecordHash(addre...\n      ADD \t\t\tfunction getPtRecordHash(addre...\n      SWAP1 \t\t\tfunction getPtRecordHash(addre...\n      PUSH [tag] 70\t\t\tfunction getPtRecordHash(addre...\n      SWAP2 \t\t\tfunction getPtRecordHash(addre...\n      SWAP1 \t\t\tfunction getPtRecordHash(addre...\n      PUSH [tag] 42\t\t\tfunction getPtRecordHash(addre...\n      JUMP \t\t\tfunction getPtRecordHash(addre...\n    tag 70\t\t\tfunction getPtRecordHash(addre...\n      JUMPDEST \t\t\tfunction getPtRecordHash(addre...\n      PUSH [tag] 71\t\t\tfunction getPtRecordHash(addre...\n      JUMP \t\t\tfunction getPtRecordHash(addre...\n    tag 69\t\t\tfunction getPtRecordHash(addre...\n      JUMPDEST \t\t\tfunction getPtRecordHash(addre...\n      PUSH 40\t\t\tfunction getPtRecordHash(addre...\n      MLOAD \t\t\tfunction getPtRecordHash(addre...\n      PUSH [tag] 72\t\t\tfunction getPtRecordHash(addre...\n      SWAP2 \t\t\tfunction getPtRecordHash(addre...\n      SWAP1 \t\t\tfunction getPtRecordHash(addre...\n      PUSH [tag] 47\t\t\tfunction getPtRecordHash(addre...\n      JUMP \t\t\tfunction getPtRecordHash(addre...\n    tag 72\t\t\tfunction getPtRecordHash(addre...\n      JUMPDEST \t\t\tfunction getPtRecordHash(addre...\n      PUSH 40\t\t\tfunction getPtRecordHash(addre...\n      MLOAD \t\t\tfunction getPtRecordHash(addre...\n      DUP1 \t\t\tfunction getPtRecordHash(addre...\n      SWAP2 \t\t\tfunction getPtRecordHash(addre...\n      SUB \t\t\tfunction getPtRecordHash(addre...\n      SWAP1 \t\t\tfunction getPtRecordHash(addre...\n      RETURN \t\t\tfunction getPtRecordHash(addre...\n    tag 11\t\t\tfunction getPtGeneralHash(addr...\n      JUMPDEST \t\t\tfunction getPtGeneralHash(addr...\n      PUSH [tag] 73\t\t\tfunction getPtGeneralHash(addr...\n      PUSH 4\t\t\tfunction getPtGeneralHash(addr...\n      DUP1 \t\t\tfunction getPtGeneralHash(addr...\n      CALLDATASIZE \t\t\tfunction getPtGeneralHash(addr...\n      SUB \t\t\tfunction getPtGeneralHash(addr...\n      DUP2 \t\t\tfunction getPtGeneralHash(addr...\n      ADD \t\t\tfunction getPtGeneralHash(addr...\n      SWAP1 \t\t\tfunction getPtGeneralHash(addr...\n      PUSH [tag] 74\t\t\tfunction getPtGeneralHash(addr...\n      SWAP2 \t\t\tfunction getPtGeneralHash(addr...\n      SWAP1 \t\t\tfunction getPtGeneralHash(addr...\n      PUSH [tag] 42\t\t\tfunction getPtGeneralHash(addr...\n      JUMP \t\t\tfunction getPtGeneralHash(addr...\n    tag 74\t\t\tfunction getPtGeneralHash(addr...\n      JUMPDEST \t\t\tfunction getPtGeneralHash(addr...\n      PUSH [tag] 75\t\t\tfunction getPtGeneralHash(addr...\n      JUMP \t\t\tfunction getPtGeneralHash(addr...\n    tag 73\t\t\tfunction getPtGeneralHash(addr...\n      JUMPDEST \t\t\tfunction getPtGeneralHash(addr...\n      PUSH 40\t\t\tfunction getPtGeneralHash(addr...\n      MLOAD \t\t\tfunction getPtGeneralHash(addr...\n      PUSH [tag] 76\t\t\tfunction getPtGeneralHash(addr...\n      SWAP2 \t\t\tfunction getPtGeneralHash(addr...\n      SWAP1 \t\t\tfunction getPtGeneralHash(addr...\n      PUSH [tag] 47\t\t\tfunction getPtGeneralHash(addr...\n      JUMP \t\t\tfunction getPtGeneralHash(addr...\n    tag 76\t\t\tfunction getPtGeneralHash(addr...\n      JUMPDEST \t\t\tfunction getPtGeneralHash(addr...\n      PUSH 40\t\t\tfunction getPtGeneralHash(addr...\n      MLOAD \t\t\tfunction getPtGeneralHash(addr...\n      DUP1 \t\t\tfunction getPtGeneralHash(addr...\n      SWAP2 \t\t\tfunction getPtGeneralHash(addr...\n      SUB \t\t\tfunction getPtGeneralHash(addr...\n      SWAP1 \t\t\tfunction getPtGeneralHash(addr...\n      RETURN \t\t\tfunction getPtGeneralHash(addr...\n    tag 12\t\t\tfunction removeEditorAccess(\\n...\n      JUMPDEST \t\t\tfunction removeEditorAccess(\\n...\n      PUSH [tag] 77\t\t\tfunction removeEditorAccess(\\n...\n      PUSH 4\t\t\tfunction removeEditorAccess(\\n...\n      DUP1 \t\t\tfunction removeEditorAccess(\\n...\n      CALLDATASIZE \t\t\tfunction removeEditorAccess(\\n...\n      SUB \t\t\tfunction removeEditorAccess(\\n...\n      DUP2 \t\t\tfunction removeEditorAccess(\\n...\n      ADD \t\t\tfunction removeEditorAccess(\\n...\n      SWAP1 \t\t\tfunction removeEditorAccess(\\n...\n      PUSH [tag] 78\t\t\tfunction removeEditorAccess(\\n...\n      SWAP2 \t\t\tfunction removeEditorAccess(\\n...\n      SWAP1 \t\t\tfunction removeEditorAccess(\\n...\n      PUSH [tag] 79\t\t\tfunction removeEditorAccess(\\n...\n      JUMP \t\t\tfunction removeEditorAccess(\\n...\n    tag 78\t\t\tfunction removeEditorAccess(\\n...\n      JUMPDEST \t\t\tfunction removeEditorAccess(\\n...\n      PUSH [tag] 80\t\t\tfunction removeEditorAccess(\\n...\n      JUMP \t\t\tfunction removeEditorAccess(\\n...\n    tag 77\t\t\tfunction removeEditorAccess(\\n...\n      JUMPDEST \t\t\tfunction removeEditorAccess(\\n...\n      STOP \t\t\tfunction removeEditorAccess(\\n...\n    tag 13\t\t\tfunction isDrPending(address _...\n      JUMPDEST \t\t\tfunction isDrPending(address _...\n      PUSH [tag] 81\t\t\tfunction isDrPending(address _...\n      PUSH 4\t\t\tfunction isDrPending(address _...\n      DUP1 \t\t\tfunction isDrPending(address _...\n      CALLDATASIZE \t\t\tfunction isDrPending(address _...\n      SUB \t\t\tfunction isDrPending(address _...\n      DUP2 \t\t\tfunction isDrPending(address _...\n      ADD \t\t\tfunction isDrPending(address _...\n      SWAP1 \t\t\tfunction isDrPending(address _...\n      PUSH [tag] 82\t\t\tfunction isDrPending(address _...\n      SWAP2 \t\t\tfunction isDrPending(address _...\n      SWAP1 \t\t\tfunction isDrPending(address _...\n      PUSH [tag] 42\t\t\tfunction isDrPending(address _...\n      JUMP \t\t\tfunction isDrPending(address _...\n    tag 82\t\t\tfunction isDrPending(address _...\n      JUMPDEST \t\t\tfunction isDrPending(address _...\n      PUSH [tag] 83\t\t\tfunction isDrPending(address _...\n      JUMP \t\t\tfunction isDrPending(address _...\n    tag 81\t\t\tfunction isDrPending(address _...\n      JUMPDEST \t\t\tfunction isDrPending(address _...\n      PUSH 40\t\t\tfunction isDrPending(address _...\n      MLOAD \t\t\tfunction isDrPending(address _...\n      PUSH [tag] 84\t\t\tfunction isDrPending(address _...\n      SWAP2 \t\t\tfunction isDrPending(address _...\n      SWAP1 \t\t\tfunction isDrPending(address _...\n      PUSH [tag] 60\t\t\tfunction isDrPending(address _...\n      JUMP \t\t\tfunction isDrPending(address _...\n    tag 84\t\t\tfunction isDrPending(address _...\n      JUMPDEST \t\t\tfunction isDrPending(address _...\n      PUSH 40\t\t\tfunction isDrPending(address _...\n      MLOAD \t\t\tfunction isDrPending(address _...\n      DUP1 \t\t\tfunction isDrPending(address _...\n      SWAP2 \t\t\tfunction isDrPending(address _...\n      SUB \t\t\tfunction isDrPending(address _...\n      SWAP1 \t\t\tfunction isDrPending(address _...\n      RETURN \t\t\tfunction isDrPending(address _...\n    tag 14\t\t\tfunction getAdmin() public vie...\n      JUMPDEST \t\t\tfunction getAdmin() public vie...\n      PUSH [tag] 85\t\t\tfunction getAdmin() public vie...\n      PUSH [tag] 86\t\t\tfunction getAdmin() public vie...\n      JUMP \t\t\tfunction getAdmin() public vie...\n    tag 85\t\t\tfunction getAdmin() public vie...\n      JUMPDEST \t\t\tfunction getAdmin() public vie...\n      PUSH 40\t\t\tfunction getAdmin() public vie...\n      MLOAD \t\t\tfunction getAdmin() public vie...\n      PUSH [tag] 87\t\t\tfunction getAdmin() public vie...\n      SWAP2 \t\t\tfunction getAdmin() public vie...\n      SWAP1 \t\t\tfunction getAdmin() public vie...\n      PUSH [tag] 55\t\t\tfunction getAdmin() public vie...\n      JUMP \t\t\tfunction getAdmin() public vie...\n    tag 87\t\t\tfunction getAdmin() public vie...\n      JUMPDEST \t\t\tfunction getAdmin() public vie...\n      PUSH 40\t\t\tfunction getAdmin() public vie...\n      MLOAD \t\t\tfunction getAdmin() public vie...\n      DUP1 \t\t\tfunction getAdmin() public vie...\n      SWAP2 \t\t\tfunction getAdmin() public vie...\n      SUB \t\t\tfunction getAdmin() public vie...\n      SWAP1 \t\t\tfunction getAdmin() public vie...\n      RETURN \t\t\tfunction getAdmin() public vie...\n    tag 15\t\t\tfunction disapproveDr(address ...\n      JUMPDEST \t\t\tfunction disapproveDr(address ...\n      PUSH [tag] 88\t\t\tfunction disapproveDr(address ...\n      PUSH 4\t\t\tfunction disapproveDr(address ...\n      DUP1 \t\t\tfunction disapproveDr(address ...\n      CALLDATASIZE \t\t\tfunction disapproveDr(address ...\n      SUB \t\t\tfunction disapproveDr(address ...\n      DUP2 \t\t\tfunction disapproveDr(address ...\n      ADD \t\t\tfunction disapproveDr(address ...\n      SWAP1 \t\t\tfunction disapproveDr(address ...\n      PUSH [tag] 89\t\t\tfunction disapproveDr(address ...\n      SWAP2 \t\t\tfunction disapproveDr(address ...\n      SWAP1 \t\t\tfunction disapproveDr(address ...\n      PUSH [tag] 42\t\t\tfunction disapproveDr(address ...\n      JUMP \t\t\tfunction disapproveDr(address ...\n    tag 89\t\t\tfunction disapproveDr(address ...\n      JUMPDEST \t\t\tfunction disapproveDr(address ...\n      PUSH [tag] 90\t\t\tfunction disapproveDr(address ...\n      JUMP \t\t\tfunction disapproveDr(address ...\n    tag 88\t\t\tfunction disapproveDr(address ...\n      JUMPDEST \t\t\tfunction disapproveDr(address ...\n      STOP \t\t\tfunction disapproveDr(address ...\n    tag 16\t\t\tfunction setPtGeneralHash(stri...\n      JUMPDEST \t\t\tfunction setPtGeneralHash(stri...\n      PUSH [tag] 91\t\t\tfunction setPtGeneralHash(stri...\n      PUSH 4\t\t\tfunction setPtGeneralHash(stri...\n      DUP1 \t\t\tfunction setPtGeneralHash(stri...\n      CALLDATASIZE \t\t\tfunction setPtGeneralHash(stri...\n      SUB \t\t\tfunction setPtGeneralHash(stri...\n      DUP2 \t\t\tfunction setPtGeneralHash(stri...\n      ADD \t\t\tfunction setPtGeneralHash(stri...\n      SWAP1 \t\t\tfunction setPtGeneralHash(stri...\n      PUSH [tag] 92\t\t\tfunction setPtGeneralHash(stri...\n      SWAP2 \t\t\tfunction setPtGeneralHash(stri...\n      SWAP1 \t\t\tfunction setPtGeneralHash(stri...\n      PUSH [tag] 67\t\t\tfunction setPtGeneralHash(stri...\n      JUMP \t\t\tfunction setPtGeneralHash(stri...\n    tag 92\t\t\tfunction setPtGeneralHash(stri...\n      JUMPDEST \t\t\tfunction setPtGeneralHash(stri...\n      PUSH [tag] 93\t\t\tfunction setPtGeneralHash(stri...\n      JUMP \t\t\tfunction setPtGeneralHash(stri...\n    tag 91\t\t\tfunction setPtGeneralHash(stri...\n      JUMPDEST \t\t\tfunction setPtGeneralHash(stri...\n      STOP \t\t\tfunction setPtGeneralHash(stri...\n    tag 17\t\t\tfunction getPatViewers() publi...\n      JUMPDEST \t\t\tfunction getPatViewers() publi...\n      PUSH [tag] 94\t\t\tfunction getPatViewers() publi...\n      PUSH [tag] 95\t\t\tfunction getPatViewers() publi...\n      JUMP \t\t\tfunction getPatViewers() publi...\n    tag 94\t\t\tfunction getPatViewers() publi...\n      JUMPDEST \t\t\tfunction getPatViewers() publi...\n      PUSH 40\t\t\tfunction getPatViewers() publi...\n      MLOAD \t\t\tfunction getPatViewers() publi...\n      PUSH [tag] 96\t\t\tfunction getPatViewers() publi...\n      SWAP2 \t\t\tfunction getPatViewers() publi...\n      SWAP1 \t\t\tfunction getPatViewers() publi...\n      PUSH [tag] 51\t\t\tfunction getPatViewers() publi...\n      JUMP \t\t\tfunction getPatViewers() publi...\n    tag 96\t\t\tfunction getPatViewers() publi...\n      JUMPDEST \t\t\tfunction getPatViewers() publi...\n      PUSH 40\t\t\tfunction getPatViewers() publi...\n      MLOAD \t\t\tfunction getPatViewers() publi...\n      DUP1 \t\t\tfunction getPatViewers() publi...\n      SWAP2 \t\t\tfunction getPatViewers() publi...\n      SUB \t\t\tfunction getPatViewers() publi...\n      SWAP1 \t\t\tfunction getPatViewers() publi...\n      RETURN \t\t\tfunction getPatViewers() publi...\n    tag 18\t\t\tfunction isPatient(address _ad...\n      JUMPDEST \t\t\tfunction isPatient(address _ad...\n      PUSH [tag] 97\t\t\tfunction isPatient(address _ad...\n      PUSH 4\t\t\tfunction isPatient(address _ad...\n      DUP1 \t\t\tfunction isPatient(address _ad...\n      CALLDATASIZE \t\t\tfunction isPatient(address _ad...\n      SUB \t\t\tfunction isPatient(address _ad...\n      DUP2 \t\t\tfunction isPatient(address _ad...\n      ADD \t\t\tfunction isPatient(address _ad...\n      SWAP1 \t\t\tfunction isPatient(address _ad...\n      PUSH [tag] 98\t\t\tfunction isPatient(address _ad...\n      SWAP2 \t\t\tfunction isPatient(address _ad...\n      SWAP1 \t\t\tfunction isPatient(address _ad...\n      PUSH [tag] 42\t\t\tfunction isPatient(address _ad...\n      JUMP \t\t\tfunction isPatient(address _ad...\n    tag 98\t\t\tfunction isPatient(address _ad...\n      JUMPDEST \t\t\tfunction isPatient(address _ad...\n      PUSH [tag] 99\t\t\tfunction isPatient(address _ad...\n      JUMP \t\t\tfunction isPatient(address _ad...\n    tag 97\t\t\tfunction isPatient(address _ad...\n      JUMPDEST \t\t\tfunction isPatient(address _ad...\n      PUSH 40\t\t\tfunction isPatient(address _ad...\n      MLOAD \t\t\tfunction isPatient(address _ad...\n      PUSH [tag] 100\t\t\tfunction isPatient(address _ad...\n      SWAP2 \t\t\tfunction isPatient(address _ad...\n      SWAP1 \t\t\tfunction isPatient(address _ad...\n      PUSH [tag] 60\t\t\tfunction isPatient(address _ad...\n      JUMP \t\t\tfunction isPatient(address _ad...\n    tag 100\t\t\tfunction isPatient(address _ad...\n      JUMPDEST \t\t\tfunction isPatient(address _ad...\n      PUSH 40\t\t\tfunction isPatient(address _ad...\n      MLOAD \t\t\tfunction isPatient(address _ad...\n      DUP1 \t\t\tfunction isPatient(address _ad...\n      SWAP2 \t\t\tfunction isPatient(address _ad...\n      SUB \t\t\tfunction isPatient(address _ad...\n      SWAP1 \t\t\tfunction isPatient(address _ad...\n      RETURN \t\t\tfunction isPatient(address _ad...\n    tag 19\t\t\tfunction isDoctor(address _add...\n      JUMPDEST \t\t\tfunction isDoctor(address _add...\n      PUSH [tag] 101\t\t\tfunction isDoctor(address _add...\n      PUSH 4\t\t\tfunction isDoctor(address _add...\n      DUP1 \t\t\tfunction isDoctor(address _add...\n      CALLDATASIZE \t\t\tfunction isDoctor(address _add...\n      SUB \t\t\tfunction isDoctor(address _add...\n      DUP2 \t\t\tfunction isDoctor(address _add...\n      ADD \t\t\tfunction isDoctor(address _add...\n      SWAP1 \t\t\tfunction isDoctor(address _add...\n      PUSH [tag] 102\t\t\tfunction isDoctor(address _add...\n      SWAP2 \t\t\tfunction isDoctor(address _add...\n      SWAP1 \t\t\tfunction isDoctor(address _add...\n      PUSH [tag] 42\t\t\tfunction isDoctor(address _add...\n      JUMP \t\t\tfunction isDoctor(address _add...\n    tag 102\t\t\tfunction isDoctor(address _add...\n      JUMPDEST \t\t\tfunction isDoctor(address _add...\n      PUSH [tag] 103\t\t\tfunction isDoctor(address _add...\n      JUMP \t\t\tfunction isDoctor(address _add...\n    tag 101\t\t\tfunction isDoctor(address _add...\n      JUMPDEST \t\t\tfunction isDoctor(address _add...\n      PUSH 40\t\t\tfunction isDoctor(address _add...\n      MLOAD \t\t\tfunction isDoctor(address _add...\n      PUSH [tag] 104\t\t\tfunction isDoctor(address _add...\n      SWAP2 \t\t\tfunction isDoctor(address _add...\n      SWAP1 \t\t\tfunction isDoctor(address _add...\n      PUSH [tag] 60\t\t\tfunction isDoctor(address _add...\n      JUMP \t\t\tfunction isDoctor(address _add...\n    tag 104\t\t\tfunction isDoctor(address _add...\n      JUMPDEST \t\t\tfunction isDoctor(address _add...\n      PUSH 40\t\t\tfunction isDoctor(address _add...\n      MLOAD \t\t\tfunction isDoctor(address _add...\n      DUP1 \t\t\tfunction isDoctor(address _add...\n      SWAP2 \t\t\tfunction isDoctor(address _add...\n      SUB \t\t\tfunction isDoctor(address _add...\n      SWAP1 \t\t\tfunction isDoctor(address _add...\n      RETURN \t\t\tfunction isDoctor(address _add...\n    tag 20\t\t\tfunction setDrHash(string memo...\n      JUMPDEST \t\t\tfunction setDrHash(string memo...\n      PUSH [tag] 105\t\t\tfunction setDrHash(string memo...\n      PUSH 4\t\t\tfunction setDrHash(string memo...\n      DUP1 \t\t\tfunction setDrHash(string memo...\n      CALLDATASIZE \t\t\tfunction setDrHash(string memo...\n      SUB \t\t\tfunction setDrHash(string memo...\n      DUP2 \t\t\tfunction setDrHash(string memo...\n      ADD \t\t\tfunction setDrHash(string memo...\n      SWAP1 \t\t\tfunction setDrHash(string memo...\n      PUSH [tag] 106\t\t\tfunction setDrHash(string memo...\n      SWAP2 \t\t\tfunction setDrHash(string memo...\n      SWAP1 \t\t\tfunction setDrHash(string memo...\n      PUSH [tag] 67\t\t\tfunction setDrHash(string memo...\n      JUMP \t\t\tfunction setDrHash(string memo...\n    tag 106\t\t\tfunction setDrHash(string memo...\n      JUMPDEST \t\t\tfunction setDrHash(string memo...\n      PUSH [tag] 107\t\t\tfunction setDrHash(string memo...\n      JUMP \t\t\tfunction setDrHash(string memo...\n    tag 105\t\t\tfunction setDrHash(string memo...\n      JUMPDEST \t\t\tfunction setDrHash(string memo...\n      STOP \t\t\tfunction setDrHash(string memo...\n    tag 21\t\t\tfunction registerPt(string mem...\n      JUMPDEST \t\t\tfunction registerPt(string mem...\n      PUSH [tag] 108\t\t\tfunction registerPt(string mem...\n      PUSH 4\t\t\tfunction registerPt(string mem...\n      DUP1 \t\t\tfunction registerPt(string mem...\n      CALLDATASIZE \t\t\tfunction registerPt(string mem...\n      SUB \t\t\tfunction registerPt(string mem...\n      DUP2 \t\t\tfunction registerPt(string mem...\n      ADD \t\t\tfunction registerPt(string mem...\n      SWAP1 \t\t\tfunction registerPt(string mem...\n      PUSH [tag] 109\t\t\tfunction registerPt(string mem...\n      SWAP2 \t\t\tfunction registerPt(string mem...\n      SWAP1 \t\t\tfunction registerPt(string mem...\n      PUSH [tag] 79\t\t\tfunction registerPt(string mem...\n      JUMP \t\t\tfunction registerPt(string mem...\n    tag 109\t\t\tfunction registerPt(string mem...\n      JUMPDEST \t\t\tfunction registerPt(string mem...\n      PUSH [tag] 110\t\t\tfunction registerPt(string mem...\n      JUMP \t\t\tfunction registerPt(string mem...\n    tag 108\t\t\tfunction registerPt(string mem...\n      JUMPDEST \t\t\tfunction registerPt(string mem...\n      STOP \t\t\tfunction registerPt(string mem...\n    tag 22\t\t\tfunction getAllPts() public vi...\n      JUMPDEST \t\t\tfunction getAllPts() public vi...\n      PUSH [tag] 111\t\t\tfunction getAllPts() public vi...\n      PUSH [tag] 112\t\t\tfunction getAllPts() public vi...\n      JUMP \t\t\tfunction getAllPts() public vi...\n    tag 111\t\t\tfunction getAllPts() public vi...\n      JUMPDEST \t\t\tfunction getAllPts() public vi...\n      PUSH 40\t\t\tfunction getAllPts() public vi...\n      MLOAD \t\t\tfunction getAllPts() public vi...\n      PUSH [tag] 113\t\t\tfunction getAllPts() public vi...\n      SWAP2 \t\t\tfunction getAllPts() public vi...\n      SWAP1 \t\t\tfunction getAllPts() public vi...\n      PUSH [tag] 51\t\t\tfunction getAllPts() public vi...\n      JUMP \t\t\tfunction getAllPts() public vi...\n    tag 113\t\t\tfunction getAllPts() public vi...\n      JUMPDEST \t\t\tfunction getAllPts() public vi...\n      PUSH 40\t\t\tfunction getAllPts() public vi...\n      MLOAD \t\t\tfunction getAllPts() public vi...\n      DUP1 \t\t\tfunction getAllPts() public vi...\n      SWAP2 \t\t\tfunction getAllPts() public vi...\n      SUB \t\t\tfunction getAllPts() public vi...\n      SWAP1 \t\t\tfunction getAllPts() public vi...\n      RETURN \t\t\tfunction getAllPts() public vi...\n    tag 23\t\t\tfunction setAdminPubKey(string...\n      JUMPDEST \t\t\tfunction setAdminPubKey(string...\n      PUSH [tag] 114\t\t\tfunction setAdminPubKey(string...\n      PUSH 4\t\t\tfunction setAdminPubKey(string...\n      DUP1 \t\t\tfunction setAdminPubKey(string...\n      CALLDATASIZE \t\t\tfunction setAdminPubKey(string...\n      SUB \t\t\tfunction setAdminPubKey(string...\n      DUP2 \t\t\tfunction setAdminPubKey(string...\n      ADD \t\t\tfunction setAdminPubKey(string...\n      SWAP1 \t\t\tfunction setAdminPubKey(string...\n      PUSH [tag] 115\t\t\tfunction setAdminPubKey(string...\n      SWAP2 \t\t\tfunction setAdminPubKey(string...\n      SWAP1 \t\t\tfunction setAdminPubKey(string...\n      PUSH [tag] 67\t\t\tfunction setAdminPubKey(string...\n      JUMP \t\t\tfunction setAdminPubKey(string...\n    tag 115\t\t\tfunction setAdminPubKey(string...\n      JUMPDEST \t\t\tfunction setAdminPubKey(string...\n      PUSH [tag] 116\t\t\tfunction setAdminPubKey(string...\n      JUMP \t\t\tfunction setAdminPubKey(string...\n    tag 114\t\t\tfunction setAdminPubKey(string...\n      JUMPDEST \t\t\tfunction setAdminPubKey(string...\n      STOP \t\t\tfunction setAdminPubKey(string...\n    tag 24\t\t\tfunction grantViewerAccess(add...\n      JUMPDEST \t\t\tfunction grantViewerAccess(add...\n      PUSH [tag] 117\t\t\tfunction grantViewerAccess(add...\n      PUSH 4\t\t\tfunction grantViewerAccess(add...\n      DUP1 \t\t\tfunction grantViewerAccess(add...\n      CALLDATASIZE \t\t\tfunction grantViewerAccess(add...\n      SUB \t\t\tfunction grantViewerAccess(add...\n      DUP2 \t\t\tfunction grantViewerAccess(add...\n      ADD \t\t\tfunction grantViewerAccess(add...\n      SWAP1 \t\t\tfunction grantViewerAccess(add...\n      PUSH [tag] 118\t\t\tfunction grantViewerAccess(add...\n      SWAP2 \t\t\tfunction grantViewerAccess(add...\n      SWAP1 \t\t\tfunction grantViewerAccess(add...\n      PUSH [tag] 42\t\t\tfunction grantViewerAccess(add...\n      JUMP \t\t\tfunction grantViewerAccess(add...\n    tag 118\t\t\tfunction grantViewerAccess(add...\n      JUMPDEST \t\t\tfunction grantViewerAccess(add...\n      PUSH [tag] 119\t\t\tfunction grantViewerAccess(add...\n      JUMP \t\t\tfunction grantViewerAccess(add...\n    tag 117\t\t\tfunction grantViewerAccess(add...\n      JUMPDEST \t\t\tfunction grantViewerAccess(add...\n      STOP \t\t\tfunction grantViewerAccess(add...\n    tag 25\t\t\tfunction setPtRecordHash(addre...\n      JUMPDEST \t\t\tfunction setPtRecordHash(addre...\n      PUSH [tag] 120\t\t\tfunction setPtRecordHash(addre...\n      PUSH 4\t\t\tfunction setPtRecordHash(addre...\n      DUP1 \t\t\tfunction setPtRecordHash(addre...\n      CALLDATASIZE \t\t\tfunction setPtRecordHash(addre...\n      SUB \t\t\tfunction setPtRecordHash(addre...\n      DUP2 \t\t\tfunction setPtRecordHash(addre...\n      ADD \t\t\tfunction setPtRecordHash(addre...\n      SWAP1 \t\t\tfunction setPtRecordHash(addre...\n      PUSH [tag] 121\t\t\tfunction setPtRecordHash(addre...\n      SWAP2 \t\t\tfunction setPtRecordHash(addre...\n      SWAP1 \t\t\tfunction setPtRecordHash(addre...\n      PUSH [tag] 122\t\t\tfunction setPtRecordHash(addre...\n      JUMP \t\t\tfunction setPtRecordHash(addre...\n    tag 121\t\t\tfunction setPtRecordHash(addre...\n      JUMPDEST \t\t\tfunction setPtRecordHash(addre...\n      PUSH [tag] 123\t\t\tfunction setPtRecordHash(addre...\n      JUMP \t\t\tfunction setPtRecordHash(addre...\n    tag 120\t\t\tfunction setPtRecordHash(addre...\n      JUMPDEST \t\t\tfunction setPtRecordHash(addre...\n      STOP \t\t\tfunction setPtRecordHash(addre...\n    tag 26\t\t\tfunction getDrHash(address _ad...\n      JUMPDEST \t\t\tfunction getDrHash(address _ad...\n      PUSH [tag] 124\t\t\tfunction getDrHash(address _ad...\n      PUSH 4\t\t\tfunction getDrHash(address _ad...\n      DUP1 \t\t\tfunction getDrHash(address _ad...\n      CALLDATASIZE \t\t\tfunction getDrHash(address _ad...\n      SUB \t\t\tfunction getDrHash(address _ad...\n      DUP2 \t\t\tfunction getDrHash(address _ad...\n      ADD \t\t\tfunction getDrHash(address _ad...\n      SWAP1 \t\t\tfunction getDrHash(address _ad...\n      PUSH [tag] 125\t\t\tfunction getDrHash(address _ad...\n      SWAP2 \t\t\tfunction getDrHash(address _ad...\n      SWAP1 \t\t\tfunction getDrHash(address _ad...\n      PUSH [tag] 42\t\t\tfunction getDrHash(address _ad...\n      JUMP \t\t\tfunction getDrHash(address _ad...\n    tag 125\t\t\tfunction getDrHash(address _ad...\n      JUMPDEST \t\t\tfunction getDrHash(address _ad...\n      PUSH [tag] 126\t\t\tfunction getDrHash(address _ad...\n      JUMP \t\t\tfunction getDrHash(address _ad...\n    tag 124\t\t\tfunction getDrHash(address _ad...\n      JUMPDEST \t\t\tfunction getDrHash(address _ad...\n      PUSH 40\t\t\tfunction getDrHash(address _ad...\n      MLOAD \t\t\tfunction getDrHash(address _ad...\n      PUSH [tag] 127\t\t\tfunction getDrHash(address _ad...\n      SWAP2 \t\t\tfunction getDrHash(address _ad...\n      SWAP1 \t\t\tfunction getDrHash(address _ad...\n      PUSH [tag] 47\t\t\tfunction getDrHash(address _ad...\n      JUMP \t\t\tfunction getDrHash(address _ad...\n    tag 127\t\t\tfunction getDrHash(address _ad...\n      JUMPDEST \t\t\tfunction getDrHash(address _ad...\n      PUSH 40\t\t\tfunction getDrHash(address _ad...\n      MLOAD \t\t\tfunction getDrHash(address _ad...\n      DUP1 \t\t\tfunction getDrHash(address _ad...\n      SWAP2 \t\t\tfunction getDrHash(address _ad...\n      SUB \t\t\tfunction getDrHash(address _ad...\n      SWAP1 \t\t\tfunction getDrHash(address _ad...\n      RETURN \t\t\tfunction getDrHash(address _ad...\n    tag 27\t\t\tfunction registerDrConfirm(str...\n      JUMPDEST \t\t\tfunction registerDrConfirm(str...\n      PUSH [tag] 128\t\t\tfunction registerDrConfirm(str...\n      PUSH 4\t\t\tfunction registerDrConfirm(str...\n      DUP1 \t\t\tfunction registerDrConfirm(str...\n      CALLDATASIZE \t\t\tfunction registerDrConfirm(str...\n      SUB \t\t\tfunction registerDrConfirm(str...\n      DUP2 \t\t\tfunction registerDrConfirm(str...\n      ADD \t\t\tfunction registerDrConfirm(str...\n      SWAP1 \t\t\tfunction registerDrConfirm(str...\n      PUSH [tag] 129\t\t\tfunction registerDrConfirm(str...\n      SWAP2 \t\t\tfunction registerDrConfirm(str...\n      SWAP1 \t\t\tfunction registerDrConfirm(str...\n      PUSH [tag] 67\t\t\tfunction registerDrConfirm(str...\n      JUMP \t\t\tfunction registerDrConfirm(str...\n    tag 129\t\t\tfunction registerDrConfirm(str...\n      JUMPDEST \t\t\tfunction registerDrConfirm(str...\n      PUSH [tag] 130\t\t\tfunction registerDrConfirm(str...\n      JUMP \t\t\tfunction registerDrConfirm(str...\n    tag 128\t\t\tfunction registerDrConfirm(str...\n      JUMPDEST \t\t\tfunction registerDrConfirm(str...\n      STOP \t\t\tfunction registerDrConfirm(str...\n    tag 28\t\t\tfunction getPtsOfDr() public v...\n      JUMPDEST \t\t\tfunction getPtsOfDr() public v...\n      PUSH [tag] 131\t\t\tfunction getPtsOfDr() public v...\n      PUSH [tag] 132\t\t\tfunction getPtsOfDr() public v...\n      JUMP \t\t\tfunction getPtsOfDr() public v...\n    tag 131\t\t\tfunction getPtsOfDr() public v...\n      JUMPDEST \t\t\tfunction getPtsOfDr() public v...\n      PUSH 40\t\t\tfunction getPtsOfDr() public v...\n      MLOAD \t\t\tfunction getPtsOfDr() public v...\n      PUSH [tag] 133\t\t\tfunction getPtsOfDr() public v...\n      SWAP2 \t\t\tfunction getPtsOfDr() public v...\n      SWAP1 \t\t\tfunction getPtsOfDr() public v...\n      PUSH [tag] 51\t\t\tfunction getPtsOfDr() public v...\n      JUMP \t\t\tfunction getPtsOfDr() public v...\n    tag 133\t\t\tfunction getPtsOfDr() public v...\n      JUMPDEST \t\t\tfunction getPtsOfDr() public v...\n      PUSH 40\t\t\tfunction getPtsOfDr() public v...\n      MLOAD \t\t\tfunction getPtsOfDr() public v...\n      DUP1 \t\t\tfunction getPtsOfDr() public v...\n      SWAP2 \t\t\tfunction getPtsOfDr() public v...\n      SUB \t\t\tfunction getPtsOfDr() public v...\n      SWAP1 \t\t\tfunction getPtsOfDr() public v...\n      RETURN \t\t\tfunction getPtsOfDr() public v...\n    tag 29\t\t\tfunction changeEditorAccess(\\n...\n      JUMPDEST \t\t\tfunction changeEditorAccess(\\n...\n      PUSH [tag] 134\t\t\tfunction changeEditorAccess(\\n...\n      PUSH 4\t\t\tfunction changeEditorAccess(\\n...\n      DUP1 \t\t\tfunction changeEditorAccess(\\n...\n      CALLDATASIZE \t\t\tfunction changeEditorAccess(\\n...\n      SUB \t\t\tfunction changeEditorAccess(\\n...\n      DUP2 \t\t\tfunction changeEditorAccess(\\n...\n      ADD \t\t\tfunction changeEditorAccess(\\n...\n      SWAP1 \t\t\tfunction changeEditorAccess(\\n...\n      PUSH [tag] 135\t\t\tfunction changeEditorAccess(\\n...\n      SWAP2 \t\t\tfunction changeEditorAccess(\\n...\n      SWAP1 \t\t\tfunction changeEditorAccess(\\n...\n      PUSH [tag] 136\t\t\tfunction changeEditorAccess(\\n...\n      JUMP \t\t\tfunction changeEditorAccess(\\n...\n    tag 135\t\t\tfunction changeEditorAccess(\\n...\n      JUMPDEST \t\t\tfunction changeEditorAccess(\\n...\n      PUSH [tag] 137\t\t\tfunction changeEditorAccess(\\n...\n      JUMP \t\t\tfunction changeEditorAccess(\\n...\n    tag 134\t\t\tfunction changeEditorAccess(\\n...\n      JUMPDEST \t\t\tfunction changeEditorAccess(\\n...\n      STOP \t\t\tfunction changeEditorAccess(\\n...\n    tag 30\t\t\tfunction getDrPubKey(address _...\n      JUMPDEST \t\t\tfunction getDrPubKey(address _...\n      PUSH [tag] 138\t\t\tfunction getDrPubKey(address _...\n      PUSH 4\t\t\tfunction getDrPubKey(address _...\n      DUP1 \t\t\tfunction getDrPubKey(address _...\n      CALLDATASIZE \t\t\tfunction getDrPubKey(address _...\n      SUB \t\t\tfunction getDrPubKey(address _...\n      DUP2 \t\t\tfunction getDrPubKey(address _...\n      ADD \t\t\tfunction getDrPubKey(address _...\n      SWAP1 \t\t\tfunction getDrPubKey(address _...\n      PUSH [tag] 139\t\t\tfunction getDrPubKey(address _...\n      SWAP2 \t\t\tfunction getDrPubKey(address _...\n      SWAP1 \t\t\tfunction getDrPubKey(address _...\n      PUSH [tag] 42\t\t\tfunction getDrPubKey(address _...\n      JUMP \t\t\tfunction getDrPubKey(address _...\n    tag 139\t\t\tfunction getDrPubKey(address _...\n      JUMPDEST \t\t\tfunction getDrPubKey(address _...\n      PUSH [tag] 140\t\t\tfunction getDrPubKey(address _...\n      JUMP \t\t\tfunction getDrPubKey(address _...\n    tag 138\t\t\tfunction getDrPubKey(address _...\n      JUMPDEST \t\t\tfunction getDrPubKey(address _...\n      PUSH 40\t\t\tfunction getDrPubKey(address _...\n      MLOAD \t\t\tfunction getDrPubKey(address _...\n      PUSH [tag] 141\t\t\tfunction getDrPubKey(address _...\n      SWAP2 \t\t\tfunction getDrPubKey(address _...\n      SWAP1 \t\t\tfunction getDrPubKey(address _...\n      PUSH [tag] 47\t\t\tfunction getDrPubKey(address _...\n      JUMP \t\t\tfunction getDrPubKey(address _...\n    tag 141\t\t\tfunction getDrPubKey(address _...\n      JUMPDEST \t\t\tfunction getDrPubKey(address _...\n      PUSH 40\t\t\tfunction getDrPubKey(address _...\n      MLOAD \t\t\tfunction getDrPubKey(address _...\n      DUP1 \t\t\tfunction getDrPubKey(address _...\n      SWAP2 \t\t\tfunction getDrPubKey(address _...\n      SUB \t\t\tfunction getDrPubKey(address _...\n      SWAP1 \t\t\tfunction getDrPubKey(address _...\n      RETURN \t\t\tfunction getDrPubKey(address _...\n    tag 31\t\t\tfunction getPendingDrs() publi...\n      JUMPDEST \t\t\tfunction getPendingDrs() publi...\n      PUSH [tag] 142\t\t\tfunction getPendingDrs() publi...\n      PUSH [tag] 143\t\t\tfunction getPendingDrs() publi...\n      JUMP \t\t\tfunction getPendingDrs() publi...\n    tag 142\t\t\tfunction getPendingDrs() publi...\n      JUMPDEST \t\t\tfunction getPendingDrs() publi...\n      PUSH 40\t\t\tfunction getPendingDrs() publi...\n      MLOAD \t\t\tfunction getPendingDrs() publi...\n      PUSH [tag] 144\t\t\tfunction getPendingDrs() publi...\n      SWAP2 \t\t\tfunction getPendingDrs() publi...\n      SWAP1 \t\t\tfunction getPendingDrs() publi...\n      PUSH [tag] 51\t\t\tfunction getPendingDrs() publi...\n      JUMP \t\t\tfunction getPendingDrs() publi...\n    tag 144\t\t\tfunction getPendingDrs() publi...\n      JUMPDEST \t\t\tfunction getPendingDrs() publi...\n      PUSH 40\t\t\tfunction getPendingDrs() publi...\n      MLOAD \t\t\tfunction getPendingDrs() publi...\n      DUP1 \t\t\tfunction getPendingDrs() publi...\n      SWAP2 \t\t\tfunction getPendingDrs() publi...\n      SUB \t\t\tfunction getPendingDrs() publi...\n      SWAP1 \t\t\tfunction getPendingDrs() publi...\n      RETURN \t\t\tfunction getPendingDrs() publi...\n    tag 32\t\t\tfunction revokeViewerAccess(ad...\n      JUMPDEST \t\t\tfunction revokeViewerAccess(ad...\n      PUSH [tag] 145\t\t\tfunction revokeViewerAccess(ad...\n      PUSH 4\t\t\tfunction revokeViewerAccess(ad...\n      DUP1 \t\t\tfunction revokeViewerAccess(ad...\n      CALLDATASIZE \t\t\tfunction revokeViewerAccess(ad...\n      SUB \t\t\tfunction revokeViewerAccess(ad...\n      DUP2 \t\t\tfunction revokeViewerAccess(ad...\n      ADD \t\t\tfunction revokeViewerAccess(ad...\n      SWAP1 \t\t\tfunction revokeViewerAccess(ad...\n      PUSH [tag] 146\t\t\tfunction revokeViewerAccess(ad...\n      SWAP2 \t\t\tfunction revokeViewerAccess(ad...\n      SWAP1 \t\t\tfunction revokeViewerAccess(ad...\n      PUSH [tag] 42\t\t\tfunction revokeViewerAccess(ad...\n      JUMP \t\t\tfunction revokeViewerAccess(ad...\n    tag 146\t\t\tfunction revokeViewerAccess(ad...\n      JUMPDEST \t\t\tfunction revokeViewerAccess(ad...\n      PUSH [tag] 147\t\t\tfunction revokeViewerAccess(ad...\n      JUMP \t\t\tfunction revokeViewerAccess(ad...\n    tag 145\t\t\tfunction revokeViewerAccess(ad...\n      JUMPDEST \t\t\tfunction revokeViewerAccess(ad...\n      STOP \t\t\tfunction revokeViewerAccess(ad...\n    tag 43\t\t\tfunction approveDr(address _ad...\n      JUMPDEST \t\t\tfunction approveDr(address _ad...\n      PUSH [tag] 149\t\t\tisAdmin(msg.sender)\n      CALLER \t\t\tmsg.sender\n      PUSH [tag] 58\t\t\tisAdmin\n      JUMP \t\t\tisAdmin(msg.sender)\n    tag 149\t\t\tisAdmin(msg.sender)\n      JUMPDEST \t\t\tisAdmin(msg.sender)\n      PUSH [tag] 150\t\t\tif (!isAdmin(msg.sender)) reve...\n      JUMPI \t\t\tif (!isAdmin(msg.sender)) reve...\n      PUSH 40\t\t\tContract__NotAdmin()\n      MLOAD \t\t\tContract__NotAdmin()\n      PUSH 4D371DC700000000000000000000000000000000000000000000000000000000\t\t\tContract__NotAdmin()\n      DUP2 \t\t\tContract__NotAdmin()\n      MSTORE \t\t\tContract__NotAdmin()\n      PUSH 4\t\t\tContract__NotAdmin()\n      ADD \t\t\tContract__NotAdmin()\n      PUSH 40\t\t\tContract__NotAdmin()\n      MLOAD \t\t\tContract__NotAdmin()\n      DUP1 \t\t\tContract__NotAdmin()\n      SWAP2 \t\t\tContract__NotAdmin()\n      SUB \t\t\tContract__NotAdmin()\n      SWAP1 \t\t\tContract__NotAdmin()\n      REVERT \t\t\tContract__NotAdmin()\n    tag 150\t\t\tif (!isAdmin(msg.sender)) reve...\n      JUMPDEST \t\t\tif (!isAdmin(msg.sender)) reve...\n      PUSH [tag] 152\t\t\tisDoctor(_address)\n      DUP2 \t\t\t_address\n      PUSH [tag] 103\t\t\tisDoctor\n      JUMP \t\t\tisDoctor(_address)\n    tag 152\t\t\tisDoctor(_address)\n      JUMPDEST \t\t\tisDoctor(_address)\n      PUSH [tag] 151\t\t\treturn;\n      JUMPI \t\t\tif (isDoctor(_address)) return...\n      PUSH [tag] 154\t\t\tdoctors.users.has(_address)\n      DUP2 \t\t\t_address\n      PUSH 5\t\t\tdoctors\n      PUSH 0\t\t\tdoctors.users\n      ADD \t\t\tdoctors.users\n      PUSH [tag] 155\t\t\tdoctors.users.has\n      SWAP1 \t\t\tdoctors.users.has\n      SWAP2 \t\t\tdoctors.users.has(_address)\n      SWAP1 \t\t\tdoctors.users.has(_address)\n      PUSH FFFFFFFF\t\t\tdoctors.users.has(_address)\n      AND \t\t\tdoctors.users.has(_address)\n      JUMP \t\t\tdoctors.users.has(_address)\n    tag 154\t\t\tdoctors.users.has(_address)\n      JUMPDEST \t\t\tdoctors.users.has(_address)\n      ISZERO \t\t\tif (!doctors.users.has(_addres...\n      PUSH [tag] 151\t\t\treturn;\n      JUMPI \t\t\tif (!doctors.users.has(_addres...\n      PUSH [tag] 157\t\t\tadmin.pending_doctors.unset(_a...\n      DUP2 \t\t\t_address\n      PUSH 0\t\t\tadmin\n      PUSH 2\t\t\tadmin.pending_doctors\n      ADD \t\t\tadmin.pending_doctors\n      PUSH [tag] 158\t\t\tadmin.pending_doctors.unset\n      SWAP1 \t\t\tadmin.pending_doctors.unset\n      SWAP2 \t\t\tadmin.pending_doctors.unset(_a...\n      SWAP1 \t\t\tadmin.pending_doctors.unset(_a...\n      PUSH FFFFFFFF\t\t\tadmin.pending_doctors.unset(_a...\n      AND \t\t\tadmin.pending_doctors.unset(_a...\n      JUMP \t\t\tadmin.pending_doctors.unset(_a...\n    tag 157\t\t\tadmin.pending_doctors.unset(_a...\n      JUMPDEST \t\t\tadmin.pending_doctors.unset(_a...\n    tag 151\t\t\t_\n      JUMPDEST \t\t\t_\n      POP \t\t\tfunction approveDr(address _ad...\n      JUMP \t\t\tfunction approveDr(address _ad...\n    tag 45\t\t\tfunction getAdminPubKey() publ...\n      JUMPDEST \t\t\tfunction getAdminPubKey() publ...\n      PUSH 60\t\t\tstring memory\n      PUSH 0\t\t\tadmin\n      PUSH 1\t\t\tadmin.public_key\n      ADD \t\t\tadmin.public_key\n      DUP1 \t\t\treturn admin.public_key\n      SLOAD \t\t\treturn admin.public_key\n      PUSH [tag] 160\t\t\treturn admin.public_key\n      SWAP1 \t\t\treturn admin.public_key\n      PUSH [tag] 161\t\t\treturn admin.public_key\n      JUMP \t\t\treturn admin.public_key\n    tag 160\t\t\treturn admin.public_key\n      JUMPDEST \t\t\treturn admin.public_key\n      DUP1 \t\t\treturn admin.public_key\n      PUSH 1F\t\t\treturn admin.public_key\n      ADD \t\t\treturn admin.public_key\n      PUSH 20\t\t\treturn admin.public_key\n      DUP1 \t\t\treturn admin.public_key\n      SWAP2 \t\t\treturn admin.public_key\n      DIV \t\t\treturn admin.public_key\n      MUL \t\t\treturn admin.public_key\n      PUSH 20\t\t\treturn admin.public_key\n      ADD \t\t\treturn admin.public_key\n      PUSH 40\t\t\treturn admin.public_key\n      MLOAD \t\t\treturn admin.public_key\n      SWAP1 \t\t\treturn admin.public_key\n      DUP2 \t\t\treturn admin.public_key\n      ADD \t\t\treturn admin.public_key\n      PUSH 40\t\t\treturn admin.public_key\n      MSTORE \t\t\treturn admin.public_key\n      DUP1 \t\t\treturn admin.public_key\n      SWAP3 \t\t\treturn admin.public_key\n      SWAP2 \t\t\treturn admin.public_key\n      SWAP1 \t\t\treturn admin.public_key\n      DUP2 \t\t\treturn admin.public_key\n      DUP2 \t\t\treturn admin.public_key\n      MSTORE \t\t\treturn admin.public_key\n      PUSH 20\t\t\treturn admin.public_key\n      ADD \t\t\treturn admin.public_key\n      DUP3 \t\t\treturn admin.public_key\n      DUP1 \t\t\treturn admin.public_key\n      SLOAD \t\t\treturn admin.public_key\n      PUSH [tag] 162\t\t\treturn admin.public_key\n      SWAP1 \t\t\treturn admin.public_key\n      PUSH [tag] 161\t\t\treturn admin.public_key\n      JUMP \t\t\treturn admin.public_key\n    tag 162\t\t\treturn admin.public_key\n      JUMPDEST \t\t\treturn admin.public_key\n      DUP1 \t\t\treturn admin.public_key\n      ISZERO \t\t\treturn admin.public_key\n      PUSH [tag] 163\t\t\treturn admin.public_key\n      JUMPI \t\t\treturn admin.public_key\n      DUP1 \t\t\treturn admin.public_key\n      PUSH 1F\t\t\treturn admin.public_key\n      LT \t\t\treturn admin.public_key\n      PUSH [tag] 164\t\t\treturn admin.public_key\n      JUMPI \t\t\treturn admin.public_key\n      PUSH 100\t\t\treturn admin.public_key\n      DUP1 \t\t\treturn admin.public_key\n      DUP4 \t\t\treturn admin.public_key\n      SLOAD \t\t\treturn admin.public_key\n      DIV \t\t\treturn admin.public_key\n      MUL \t\t\treturn admin.public_key\n      DUP4 \t\t\treturn admin.public_key\n      MSTORE \t\t\treturn admin.public_key\n      SWAP2 \t\t\treturn admin.public_key\n      PUSH 20\t\t\treturn admin.public_key\n      ADD \t\t\treturn admin.public_key\n      SWAP2 \t\t\treturn admin.public_key\n      PUSH [tag] 163\t\t\treturn admin.public_key\n      JUMP \t\t\treturn admin.public_key\n    tag 164\t\t\treturn admin.public_key\n      JUMPDEST \t\t\treturn admin.public_key\n      DUP3 \t\t\treturn admin.public_key\n      ADD \t\t\treturn admin.public_key\n      SWAP2 \t\t\treturn admin.public_key\n      SWAP1 \t\t\treturn admin.public_key\n      PUSH 0\t\t\treturn admin.public_key\n      MSTORE \t\t\treturn admin.public_key\n      PUSH 20\t\t\treturn admin.public_key\n      PUSH 0\t\t\treturn admin.public_key\n      KECCAK256 \t\t\treturn admin.public_key\n      SWAP1 \t\t\treturn admin.public_key\n    tag 165\t\t\treturn admin.public_key\n      JUMPDEST \t\t\treturn admin.public_key\n      DUP2 \t\t\treturn admin.public_key\n      SLOAD \t\t\treturn admin.public_key\n      DUP2 \t\t\treturn admin.public_key\n      MSTORE \t\t\treturn admin.public_key\n      SWAP1 \t\t\treturn admin.public_key\n      PUSH 1\t\t\treturn admin.public_key\n      ADD \t\t\treturn admin.public_key\n      SWAP1 \t\t\treturn admin.public_key\n      PUSH 20\t\t\treturn admin.public_key\n      ADD \t\t\treturn admin.public_key\n      DUP1 \t\t\treturn admin.public_key\n      DUP4 \t\t\treturn admin.public_key\n      GT \t\t\treturn admin.public_key\n      PUSH [tag] 165\t\t\treturn admin.public_key\n      JUMPI \t\t\treturn admin.public_key\n      DUP3 \t\t\treturn admin.public_key\n      SWAP1 \t\t\treturn admin.public_key\n      SUB \t\t\treturn admin.public_key\n      PUSH 1F\t\t\treturn admin.public_key\n      AND \t\t\treturn admin.public_key\n      DUP3 \t\t\treturn admin.public_key\n      ADD \t\t\treturn admin.public_key\n      SWAP2 \t\t\treturn admin.public_key\n    tag 163\t\t\treturn admin.public_key\n      JUMPDEST \t\t\treturn admin.public_key\n      POP \t\t\treturn admin.public_key\n      POP \t\t\treturn admin.public_key\n      POP \t\t\treturn admin.public_key\n      POP \t\t\treturn admin.public_key\n      POP \t\t\treturn admin.public_key\n      SWAP1 \t\t\treturn admin.public_key\n      POP \t\t\treturn admin.public_key\n      SWAP1 \t\t\tfunction getAdminPubKey() publ...\n      JUMP \t\t\tfunction getAdminPubKey() publ...\n    tag 49\t\t\tfunction getAllDrs() public vi...\n      JUMPDEST \t\t\tfunction getAllDrs() public vi...\n      PUSH 60\t\t\taddress[] memory\n      PUSH [tag] 167\t\t\tdoctors.users.getMembers()\n      PUSH 5\t\t\tdoctors\n      PUSH 0\t\t\tdoctors.users\n      ADD \t\t\tdoctors.users\n      PUSH [tag] 168\t\t\tdoctors.users.getMembers\n      JUMP \t\t\tdoctors.users.getMembers()\n    tag 167\t\t\tdoctors.users.getMembers()\n      JUMPDEST \t\t\tdoctors.users.getMembers()\n      SWAP1 \t\t\treturn doctors.users.getMember...\n      POP \t\t\treturn doctors.users.getMember...\n      SWAP1 \t\t\tfunction getAllDrs() public vi...\n      JUMP \t\t\tfunction getAllDrs() public vi...\n    tag 53\t\t\tfunction getDrOfPt() public vi...\n      JUMPDEST \t\t\tfunction getDrOfPt() public vi...\n      PUSH 0\t\t\taddress\n      PUSH [tag] 170\t\t\tisPatient(msg.sender)\n      CALLER \t\t\tmsg.sender\n      PUSH [tag] 99\t\t\tisPatient\n      JUMP \t\t\tisPatient(msg.sender)\n    tag 170\t\t\tisPatient(msg.sender)\n      JUMPDEST \t\t\tisPatient(msg.sender)\n      PUSH [tag] 171\t\t\tif (!isPatient(msg.sender)) re...\n      JUMPI \t\t\tif (!isPatient(msg.sender)) re...\n      PUSH 40\t\t\tContract__NotPatient()\n      MLOAD \t\t\tContract__NotPatient()\n      PUSH C11330E600000000000000000000000000000000000000000000000000000000\t\t\tContract__NotPatient()\n      DUP2 \t\t\tContract__NotPatient()\n      MSTORE \t\t\tContract__NotPatient()\n      PUSH 4\t\t\tContract__NotPatient()\n      ADD \t\t\tContract__NotPatient()\n      PUSH 40\t\t\tContract__NotPatient()\n      MLOAD \t\t\tContract__NotPatient()\n      DUP1 \t\t\tContract__NotPatient()\n      SWAP2 \t\t\tContract__NotPatient()\n      SUB \t\t\tContract__NotPatient()\n      SWAP1 \t\t\tContract__NotPatient()\n      REVERT \t\t\tContract__NotPatient()\n    tag 171\t\t\tif (!isPatient(msg.sender)) re...\n      JUMPDEST \t\t\tif (!isPatient(msg.sender)) re...\n      PUSH B\t\t\tpatients\n      PUSH 4\t\t\tpatients.records\n      ADD \t\t\tpatients.records\n      PUSH 0\t\t\tpatients.records[msg.sender]\n      CALLER \t\t\tmsg.sender\n      PUSH FFFFFFFFFFFFFFFFFFFFFFFFFFFFFFFFFFFFFFFF\t\t\tpatients.records[msg.sender]\n      AND \t\t\tpatients.records[msg.sender]\n      PUSH FFFFFFFFFFFFFFFFFFFFFFFFFFFFFFFFFFFFFFFF\t\t\tpatients.records[msg.sender]\n      AND \t\t\tpatients.records[msg.sender]\n      DUP2 \t\t\tpatients.records[msg.sender]\n      MSTORE \t\t\tpatients.records[msg.sender]\n      PUSH 20\t\t\tpatients.records[msg.sender]\n      ADD \t\t\tpatients.records[msg.sender]\n      SWAP1 \t\t\tpatients.records[msg.sender]\n      DUP2 \t\t\tpatients.records[msg.sender]\n      MSTORE \t\t\tpatients.records[msg.sender]\n      PUSH 20\t\t\tpatients.records[msg.sender]\n      ADD \t\t\tpatients.records[msg.sender]\n      PUSH 0\t\t\tpatients.records[msg.sender]\n      KECCAK256 \t\t\tpatients.records[msg.sender]\n      PUSH 0\t\t\tpatients.records[msg.sender].e...\n      ADD \t\t\tpatients.records[msg.sender].e...\n      PUSH 0\t\t\tpatients.records[msg.sender].e...\n      SWAP1 \t\t\tpatients.records[msg.sender].e...\n      SLOAD \t\t\tpatients.records[msg.sender].e...\n      SWAP1 \t\t\tpatients.records[msg.sender].e...\n      PUSH 100\t\t\tpatients.records[msg.sender].e...\n      EXP \t\t\tpatients.records[msg.sender].e...\n      SWAP1 \t\t\tpatients.records[msg.sender].e...\n      DIV \t\t\tpatients.records[msg.sender].e...\n      PUSH FFFFFFFFFFFFFFFFFFFFFFFFFFFFFFFFFFFFFFFF\t\t\tpatients.records[msg.sender].e...\n      AND \t\t\tpatients.records[msg.sender].e...\n      SWAP1 \t\t\treturn patients.records[msg.se...\n      POP \t\t\treturn patients.records[msg.se...\n      SWAP1 \t\t\tfunction getDrOfPt() public vi...\n      JUMP \t\t\tfunction getDrOfPt() public vi...\n    tag 58\t\t\tfunction isAdmin(address _addr...\n      JUMPDEST \t\t\tfunction isAdmin(address _addr...\n      PUSH 0\t\t\tbool\n      DUP2 \t\t\t_address\n      PUSH FFFFFFFFFFFFFFFFFFFFFFFFFFFFFFFFFFFFFFFF\t\t\tadmin.user == _address\n      AND \t\t\tadmin.user == _address\n      PUSH 0\t\t\tadmin\n      DUP1 \t\t\tadmin.user\n      ADD \t\t\tadmin.user\n      PUSH 0\t\t\tadmin.user\n      SWAP1 \t\t\tadmin.user\n      SLOAD \t\t\tadmin.user\n      SWAP1 \t\t\tadmin.user\n      PUSH 100\t\t\tadmin.user\n      EXP \t\t\tadmin.user\n      SWAP1 \t\t\tadmin.user\n      DIV \t\t\tadmin.user\n      PUSH FFFFFFFFFFFFFFFFFFFFFFFFFFFFFFFFFFFFFFFF\t\t\tadmin.user\n      AND \t\t\tadmin.user\n      PUSH FFFFFFFFFFFFFFFFFFFFFFFFFFFFFFFFFFFFFFFF\t\t\tadmin.user == _address\n      AND \t\t\tadmin.user == _address\n      SUB \t\t\tadmin.user == _address\n      PUSH [tag] 174\t\t\tif (admin.user == _address) re...\n      JUMPI \t\t\tif (admin.user == _address) re...\n      PUSH 1\t\t\ttrue\n      SWAP1 \t\t\treturn true\n      POP \t\t\treturn true\n      PUSH [tag] 173\t\t\treturn true\n      JUMP \t\t\treturn true\n    tag 174\t\t\tif (admin.user == _address) re...\n      JUMPDEST \t\t\tif (admin.user == _address) re...\n      PUSH 0\t\t\tfalse\n      SWAP1 \t\t\treturn false\n      POP \t\t\treturn false\n    tag 173\t\t\tfunction isAdmin(address _addr...\n      JUMPDEST \t\t\tfunction isAdmin(address _addr...\n      SWAP2 \t\t\tfunction isAdmin(address _addr...\n      SWAP1 \t\t\tfunction isAdmin(address _addr...\n      POP \t\t\tfunction isAdmin(address _addr...\n      JUMP \t\t\tfunction isAdmin(address _addr...\n    tag 63\t\t\tfunction isDrRegistered(addres...\n      JUMPDEST \t\t\tfunction isDrRegistered(addres...\n      PUSH 0\t\t\tbool\n      PUSH [tag] 176\t\t\tdoctors.users.has(_address)\n      DUP3 \t\t\t_address\n      PUSH 5\t\t\tdoctors\n      PUSH 0\t\t\tdoctors.users\n      ADD \t\t\tdoctors.users\n      PUSH [tag] 155\t\t\tdoctors.users.has\n      SWAP1 \t\t\tdoctors.users.has\n      SWAP2 \t\t\tdoctors.users.has(_address)\n      SWAP1 \t\t\tdoctors.users.has(_address)\n      PUSH FFFFFFFF\t\t\tdoctors.users.has(_address)\n      AND \t\t\tdoctors.users.has(_address)\n      JUMP \t\t\tdoctors.users.has(_address)\n    tag 176\t\t\tdoctors.users.has(_address)\n      JUMPDEST \t\t\tdoctors.users.has(_address)\n      SWAP1 \t\t\treturn doctors.users.has(_addr...\n      POP \t\t\treturn doctors.users.has(_addr...\n      SWAP2 \t\t\tfunction isDrRegistered(addres...\n      SWAP1 \t\t\tfunction isDrRegistered(addres...\n      POP \t\t\tfunction isDrRegistered(addres...\n      JUMP \t\t\tfunction isDrRegistered(addres...\n    tag 68\t\t\tfunction registerDr(string mem...\n      JUMPDEST \t\t\tfunction registerDr(string mem...\n      PUSH [tag] 178\t\t\tisPatient(msg.sender)\n      CALLER \t\t\tmsg.sender\n      PUSH [tag] 99\t\t\tisPatient\n      JUMP \t\t\tisPatient(msg.sender)\n    tag 178\t\t\tisPatient(msg.sender)\n      JUMPDEST \t\t\tisPatient(msg.sender)\n      ISZERO \t\t\tif (isPatient(msg.sender)) rev...\n      PUSH [tag] 179\t\t\tif (isPatient(msg.sender)) rev...\n      JUMPI \t\t\tif (isPatient(msg.sender)) rev...\n      PUSH 40\t\t\trevert(\"Contract: Address alre...\n      MLOAD \t\t\trevert(\"Contract: Address alre...\n      PUSH 8C379A000000000000000000000000000000000000000000000000000000000\t\t\trevert(\"Contract: Address alre...\n      DUP2 \t\t\trevert(\"Contract: Address alre...\n      MSTORE \t\t\trevert(\"Contract: Address alre...\n      PUSH 4\t\t\trevert(\"Contract: Address alre...\n      ADD \t\t\trevert(\"Contract: Address alre...\n      PUSH [tag] 180\t\t\trevert(\"Contract: Address alre...\n      SWAP1 \t\t\trevert(\"Contract: Address alre...\n      PUSH [tag] 181\t\t\trevert(\"Contract: Address alre...\n      JUMP \t\t\trevert(\"Contract: Address alre...\n    tag 180\t\t\trevert(\"Contract: Address alre...\n      JUMPDEST \t\t\trevert(\"Contract: Address alre...\n      PUSH 40\t\t\trevert(\"Contract: Address alre...\n      MLOAD \t\t\trevert(\"Contract: Address alre...\n      DUP1 \t\t\trevert(\"Contract: Address alre...\n      SWAP2 \t\t\trevert(\"Contract: Address alre...\n      SUB \t\t\trevert(\"Contract: Address alre...\n      SWAP1 \t\t\trevert(\"Contract: Address alre...\n      REVERT \t\t\trevert(\"Contract: Address alre...\n    tag 179\t\t\tif (isPatient(msg.sender)) rev...\n      JUMPDEST \t\t\tif (isPatient(msg.sender)) rev...\n      PUSH 0\t\t\t0\n      DUP2 \t\t\t_hash\n      MLOAD \t\t\tbytes(_hash).length\n      SUB \t\t\tbytes(_hash).length == 0\n      PUSH [tag] 182\t\t\tif (bytes(_hash).length == 0) ...\n      JUMPI \t\t\tif (bytes(_hash).length == 0) ...\n      PUSH 40\t\t\trevert(\"Contract: Empty hash i...\n      MLOAD \t\t\trevert(\"Contract: Empty hash i...\n      PUSH 8C379A000000000000000000000000000000000000000000000000000000000\t\t\trevert(\"Contract: Empty hash i...\n      DUP2 \t\t\trevert(\"Contract: Empty hash i...\n      MSTORE \t\t\trevert(\"Contract: Empty hash i...\n      PUSH 4\t\t\trevert(\"Contract: Empty hash i...\n      ADD \t\t\trevert(\"Contract: Empty hash i...\n      PUSH [tag] 183\t\t\trevert(\"Contract: Empty hash i...\n      SWAP1 \t\t\trevert(\"Contract: Empty hash i...\n      PUSH [tag] 184\t\t\trevert(\"Contract: Empty hash i...\n      JUMP \t\t\trevert(\"Contract: Empty hash i...\n    tag 183\t\t\trevert(\"Contract: Empty hash i...\n      JUMPDEST \t\t\trevert(\"Contract: Empty hash i...\n      PUSH 40\t\t\trevert(\"Contract: Empty hash i...\n      MLOAD \t\t\trevert(\"Contract: Empty hash i...\n      DUP1 \t\t\trevert(\"Contract: Empty hash i...\n      SWAP2 \t\t\trevert(\"Contract: Empty hash i...\n      SUB \t\t\trevert(\"Contract: Empty hash i...\n      SWAP1 \t\t\trevert(\"Contract: Empty hash i...\n      REVERT \t\t\trevert(\"Contract: Empty hash i...\n    tag 182\t\t\tif (bytes(_hash).length == 0) ...\n      JUMPDEST \t\t\tif (bytes(_hash).length == 0) ...\n      PUSH [tag] 185\t\t\tdoctors.users.add(msg.sender, ...\n      CALLER \t\t\tmsg.sender\n      DUP3 \t\t\t_hash\n      PUSH 5\t\t\tdoctors\n      PUSH 0\t\t\tdoctors.users\n      ADD \t\t\tdoctors.users\n      PUSH [tag] 186\t\t\tdoctors.users.add\n      SWAP1 \t\t\tdoctors.users.add\n      SWAP3 \t\t\tdoctors.users.add(msg.sender, ...\n      SWAP2 \t\t\tdoctors.users.add(msg.sender, ...\n      SWAP1 \t\t\tdoctors.users.add(msg.sender, ...\n      PUSH FFFFFFFF\t\t\tdoctors.users.add(msg.sender, ...\n      AND \t\t\tdoctors.users.add(msg.sender, ...\n      JUMP \t\t\tdoctors.users.add(msg.sender, ...\n    tag 185\t\t\tdoctors.users.add(msg.sender, ...\n      JUMPDEST \t\t\tdoctors.users.add(msg.sender, ...\n      PUSH [tag] 187\t\t\tadmin.pending_doctors.set(msg....\n      CALLER \t\t\tmsg.sender\n      PUSH 0\t\t\tadmin\n      PUSH 2\t\t\tadmin.pending_doctors\n      ADD \t\t\tadmin.pending_doctors\n      PUSH [tag] 188\t\t\tadmin.pending_doctors.set\n      SWAP1 \t\t\tadmin.pending_doctors.set\n      SWAP2 \t\t\tadmin.pending_doctors.set(msg....\n      SWAP1 \t\t\tadmin.pending_doctors.set(msg....\n      PUSH FFFFFFFF\t\t\tadmin.pending_doctors.set(msg....\n      AND \t\t\tadmin.pending_doctors.set(msg....\n      JUMP \t\t\tadmin.pending_doctors.set(msg....\n    tag 187\t\t\tadmin.pending_doctors.set(msg....\n      JUMPDEST \t\t\tadmin.pending_doctors.set(msg....\n      POP \t\t\tfunction registerDr(string mem...\n      JUMP \t\t\tfunction registerDr(string mem...\n    tag 71\t\t\tfunction getPtRecordHash(addre...\n      JUMPDEST \t\t\tfunction getPtRecordHash(addre...\n      PUSH 60\t\t\tstring memory\n      PUSH [tag] 190\t\t\tisPatient(_address)\n      DUP3 \t\t\t_address\n      PUSH [tag] 99\t\t\tisPatient\n      JUMP \t\t\tisPatient(_address)\n    tag 190\t\t\tisPatient(_address)\n      JUMPDEST \t\t\tisPatient(_address)\n      PUSH [tag] 191\t\t\tif (!isPatient(_address)) reve...\n      JUMPI \t\t\tif (!isPatient(_address)) reve...\n      PUSH 40\t\t\tContract__NotPatient()\n      MLOAD \t\t\tContract__NotPatient()\n      PUSH C11330E600000000000000000000000000000000000000000000000000000000\t\t\tContract__NotPatient()\n      DUP2 \t\t\tContract__NotPatient()\n      MSTORE \t\t\tContract__NotPatient()\n      PUSH 4\t\t\tContract__NotPatient()\n      ADD \t\t\tContract__NotPatient()\n      PUSH 40\t\t\tContract__NotPatient()\n      MLOAD \t\t\tContract__NotPatient()\n      DUP1 \t\t\tContract__NotPatient()\n      SWAP2 \t\t\tContract__NotPatient()\n      SUB \t\t\tContract__NotPatient()\n      SWAP1 \t\t\tContract__NotPatient()\n      REVERT \t\t\tContract__NotPatient()\n    tag 191\t\t\tif (!isPatient(_address)) reve...\n      JUMPDEST \t\t\tif (!isPatient(_address)) reve...\n      DUP2 \t\t\t_address\n      PUSH FFFFFFFFFFFFFFFFFFFFFFFFFFFFFFFFFFFFFFFF\t\t\tmsg.sender == _address\n      AND \t\t\tmsg.sender == _address\n      CALLER \t\t\tmsg.sender\n      PUSH FFFFFFFFFFFFFFFFFFFFFFFFFFFFFFFFFFFFFFFF\t\t\tmsg.sender == _address\n      AND \t\t\tmsg.sender == _address\n      EQ \t\t\tmsg.sender == _address\n      DUP1 \t\t\tmsg.sender == _address ||\\n   ...\n      PUSH [tag] 192\t\t\tmsg.sender == _address ||\\n   ...\n      JUMPI \t\t\tmsg.sender == _address ||\\n   ...\n      POP \t\t\tmsg.sender == _address ||\\n   ...\n      CALLER \t\t\tmsg.sender\n      PUSH FFFFFFFFFFFFFFFFFFFFFFFFFFFFFFFFFFFFFFFF\t\t\tpatients.records[_address].edi...\n      AND \t\t\tpatients.records[_address].edi...\n      PUSH B\t\t\tpatients\n      PUSH 4\t\t\tpatients.records\n      ADD \t\t\tpatients.records\n      PUSH 0\t\t\tpatients.records[_address]\n      DUP5 \t\t\t_address\n      PUSH FFFFFFFFFFFFFFFFFFFFFFFFFFFFFFFFFFFFFFFF\t\t\tpatients.records[_address]\n      AND \t\t\tpatients.records[_address]\n      PUSH FFFFFFFFFFFFFFFFFFFFFFFFFFFFFFFFFFFFFFFF\t\t\tpatients.records[_address]\n      AND \t\t\tpatients.records[_address]\n      DUP2 \t\t\tpatients.records[_address]\n      MSTORE \t\t\tpatients.records[_address]\n      PUSH 20\t\t\tpatients.records[_address]\n      ADD \t\t\tpatients.records[_address]\n      SWAP1 \t\t\tpatients.records[_address]\n      DUP2 \t\t\tpatients.records[_address]\n      MSTORE \t\t\tpatients.records[_address]\n      PUSH 20\t\t\tpatients.records[_address]\n      ADD \t\t\tpatients.records[_address]\n      PUSH 0\t\t\tpatients.records[_address]\n      KECCAK256 \t\t\tpatients.records[_address]\n      PUSH 0\t\t\tpatients.records[_address].edi...\n      ADD \t\t\tpatients.records[_address].edi...\n      PUSH 0\t\t\tpatients.records[_address].edi...\n      SWAP1 \t\t\tpatients.records[_address].edi...\n      SLOAD \t\t\tpatients.records[_address].edi...\n      SWAP1 \t\t\tpatients.records[_address].edi...\n      PUSH 100\t\t\tpatients.records[_address].edi...\n      EXP \t\t\tpatients.records[_address].edi...\n      SWAP1 \t\t\tpatients.records[_address].edi...\n      DIV \t\t\tpatients.records[_address].edi...\n      PUSH FFFFFFFFFFFFFFFFFFFFFFFFFFFFFFFFFFFFFFFF\t\t\tpatients.records[_address].edi...\n      AND \t\t\tpatients.records[_address].edi...\n      PUSH FFFFFFFFFFFFFFFFFFFFFFFFFFFFFFFFFFFFFFFF\t\t\tpatients.records[_address].edi...\n      AND \t\t\tpatients.records[_address].edi...\n      EQ \t\t\tpatients.records[_address].edi...\n    tag 192\t\t\tmsg.sender == _address ||\\n   ...\n      JUMPDEST \t\t\tmsg.sender == _address ||\\n   ...\n      DUP1 \t\t\tmsg.sender == _address ||\\n   ...\n      PUSH [tag] 193\t\t\tmsg.sender == _address ||\\n   ...\n      JUMPI \t\t\tmsg.sender == _address ||\\n   ...\n      POP \t\t\tmsg.sender == _address ||\\n   ...\n      PUSH FFFFFFFFFFFFFFFFFFFFFFFFFFFFFFFFFFFFFFFFFFFFFFFFFFFFFFFFFFFFFFFF\t\t\t-1\n      PUSH [tag] 194\t\t\tpatients.records[_address].vie...\n      CALLER \t\t\tmsg.sender\n      PUSH B\t\t\tpatients\n      PUSH 4\t\t\tpatients.records\n      ADD \t\t\tpatients.records\n      PUSH 0\t\t\tpatients.records[_address]\n      DUP7 \t\t\t_address\n      PUSH FFFFFFFFFFFFFFFFFFFFFFFFFFFFFFFFFFFFFFFF\t\t\tpatients.records[_address]\n      AND \t\t\tpatients.records[_address]\n      PUSH FFFFFFFFFFFFFFFFFFFFFFFFFFFFFFFFFFFFFFFF\t\t\tpatients.records[_address]\n      AND \t\t\tpatients.records[_address]\n      DUP2 \t\t\tpatients.records[_address]\n      MSTORE \t\t\tpatients.records[_address]\n      PUSH 20\t\t\tpatients.records[_address]\n      ADD \t\t\tpatients.records[_address]\n      SWAP1 \t\t\tpatients.records[_address]\n      DUP2 \t\t\tpatients.records[_address]\n      MSTORE \t\t\tpatients.records[_address]\n      PUSH 20\t\t\tpatients.records[_address]\n      ADD \t\t\tpatients.records[_address]\n      PUSH 0\t\t\tpatients.records[_address]\n      KECCAK256 \t\t\tpatients.records[_address]\n      PUSH 1\t\t\tpatients.records[_address].vie...\n      ADD \t\t\tpatients.records[_address].vie...\n      DUP1 \t\t\tpatients.records[_address].vie...\n      SLOAD \t\t\tpatients.records[_address].vie...\n      DUP1 \t\t\tpatients.records[_address].vie...\n      PUSH 20\t\t\tpatients.records[_address].vie...\n      MUL \t\t\tpatients.records[_address].vie...\n      PUSH 20\t\t\tpatients.records[_address].vie...\n      ADD \t\t\tpatients.records[_address].vie...\n      PUSH 40\t\t\tpatients.records[_address].vie...\n      MLOAD \t\t\tpatients.records[_address].vie...\n      SWAP1 \t\t\tpatients.records[_address].vie...\n      DUP2 \t\t\tpatients.records[_address].vie...\n      ADD \t\t\tpatients.records[_address].vie...\n      PUSH 40\t\t\tpatients.records[_address].vie...\n      MSTORE \t\t\tpatients.records[_address].vie...\n      DUP1 \t\t\tpatients.records[_address].vie...\n      SWAP3 \t\t\tpatients.records[_address].vie...\n      SWAP2 \t\t\tpatients.records[_address].vie...\n      SWAP1 \t\t\tpatients.records[_address].vie...\n      DUP2 \t\t\tpatients.records[_address].vie...\n      DUP2 \t\t\tpatients.records[_address].vie...\n      MSTORE \t\t\tpatients.records[_address].vie...\n      PUSH 20\t\t\tpatients.records[_address].vie...\n      ADD \t\t\tpatients.records[_address].vie...\n      DUP3 \t\t\tpatients.records[_address].vie...\n      DUP1 \t\t\tpatients.records[_address].vie...\n      SLOAD \t\t\tpatients.records[_address].vie...\n      DUP1 \t\t\tpatients.records[_address].vie...\n      ISZERO \t\t\tpatients.records[_address].vie...\n      PUSH [tag] 195\t\t\tpatients.records[_address].vie...\n      JUMPI \t\t\tpatients.records[_address].vie...\n      PUSH 20\t\t\tpatients.records[_address].vie...\n      MUL \t\t\tpatients.records[_address].vie...\n      DUP3 \t\t\tpatients.records[_address].vie...\n      ADD \t\t\tpatients.records[_address].vie...\n      SWAP2 \t\t\tpatients.records[_address].vie...\n      SWAP1 \t\t\tpatients.records[_address].vie...\n      PUSH 0\t\t\tpatients.records[_address].vie...\n      MSTORE \t\t\tpatients.records[_address].vie...\n      PUSH 20\t\t\tpatients.records[_address].vie...\n      PUSH 0\t\t\tpatients.records[_address].vie...\n      KECCAK256 \t\t\tpatients.records[_address].vie...\n      SWAP1 \t\t\tpatients.records[_address].vie...\n    tag 196\t\t\tpatients.records[_address].vie...\n      JUMPDEST \t\t\tpatients.records[_address].vie...\n      DUP2 \t\t\tpatients.records[_address].vie...\n      PUSH 0\t\t\tpatients.records[_address].vie...\n      SWAP1 \t\t\tpatients.records[_address].vie...\n      SLOAD \t\t\tpatients.records[_address].vie...\n      SWAP1 \t\t\tpatients.records[_address].vie...\n      PUSH 100\t\t\tpatients.records[_address].vie...\n      EXP \t\t\tpatients.records[_address].vie...\n      SWAP1 \t\t\tpatients.records[_address].vie...\n      DIV \t\t\tpatients.records[_address].vie...\n      PUSH FFFFFFFFFFFFFFFFFFFFFFFFFFFFFFFFFFFFFFFF\t\t\tpatients.records[_address].vie...\n      AND \t\t\tpatients.records[_address].vie...\n      PUSH FFFFFFFFFFFFFFFFFFFFFFFFFFFFFFFFFFFFFFFF\t\t\tpatients.records[_address].vie...\n      AND \t\t\tpatients.records[_address].vie...\n      DUP2 \t\t\tpatients.records[_address].vie...\n      MSTORE \t\t\tpatients.records[_address].vie...\n      PUSH 20\t\t\tpatients.records[_address].vie...\n      ADD \t\t\tpatients.records[_address].vie...\n      SWAP1 \t\t\tpatients.records[_address].vie...\n      PUSH 1\t\t\tpatients.records[_address].vie...\n      ADD \t\t\tpatients.records[_address].vie...\n      SWAP1 \t\t\tpatients.records[_address].vie...\n      DUP1 \t\t\tpatients.records[_address].vie...\n      DUP4 \t\t\tpatients.records[_address].vie...\n      GT \t\t\tpatients.records[_address].vie...\n      PUSH [tag] 196\t\t\tpatients.records[_address].vie...\n      JUMPI \t\t\tpatients.records[_address].vie...\n    tag 195\t\t\tpatients.records[_address].vie...\n      JUMPDEST \t\t\tpatients.records[_address].vie...\n      POP \t\t\tpatients.records[_address].vie...\n      POP \t\t\tpatients.records[_address].vie...\n      POP \t\t\tpatients.records[_address].vie...\n      POP \t\t\tpatients.records[_address].vie...\n      POP \t\t\tpatients.records[_address].vie...\n      PUSH [tag] 197\t\t\tpatients.records[_address].vie...\n      SWAP1 \t\t\tpatients.records[_address].vie...\n      SWAP2 \t\t\tpatients.records[_address].vie...\n      SWAP1 \t\t\tpatients.records[_address].vie...\n      PUSH FFFFFFFF\t\t\tpatients.records[_address].vie...\n      AND \t\t\tpatients.records[_address].vie...\n      JUMP \t\t\tpatients.records[_address].vie...\n    tag 194\t\t\tpatients.records[_address].vie...\n      JUMPDEST \t\t\tpatients.records[_address].vie...\n      EQ \t\t\tpatients.records[_address].vie...\n      ISZERO \t\t\tpatients.records[_address].vie...\n    tag 193\t\t\tmsg.sender == _address ||\\n   ...\n      JUMPDEST \t\t\tmsg.sender == _address ||\\n   ...\n      ISZERO \t\t\tif (\\n            msg.sender =...\n      PUSH [tag] 198\t\t\tif (\\n            msg.sender =...\n      JUMPI \t\t\tif (\\n            msg.sender =...\n      PUSH B\t\t\tpatients\n      PUSH 4\t\t\tpatients.records\n      ADD \t\t\tpatients.records\n      PUSH 0\t\t\tpatients.records[_address]\n      DUP4 \t\t\t_address\n      PUSH FFFFFFFFFFFFFFFFFFFFFFFFFFFFFFFFFFFFFFFF\t\t\tpatients.records[_address]\n      AND \t\t\tpatients.records[_address]\n      PUSH FFFFFFFFFFFFFFFFFFFFFFFFFFFFFFFFFFFFFFFF\t\t\tpatients.records[_address]\n      AND \t\t\tpatients.records[_address]\n      DUP2 \t\t\tpatients.records[_address]\n      MSTORE \t\t\tpatients.records[_address]\n      PUSH 20\t\t\tpatients.records[_address]\n      ADD \t\t\tpatients.records[_address]\n      SWAP1 \t\t\tpatients.records[_address]\n      DUP2 \t\t\tpatients.records[_address]\n      MSTORE \t\t\tpatients.records[_address]\n      PUSH 20\t\t\tpatients.records[_address]\n      ADD \t\t\tpatients.records[_address]\n      PUSH 0\t\t\tpatients.records[_address]\n      KECCAK256 \t\t\tpatients.records[_address]\n      PUSH 2\t\t\tpatients.records[_address].key...\n      ADD \t\t\tpatients.records[_address].key...\n      DUP1 \t\t\treturn patients.records[_addre...\n      SLOAD \t\t\treturn patients.records[_addre...\n      PUSH [tag] 199\t\t\treturn patients.records[_addre...\n      SWAP1 \t\t\treturn patients.records[_addre...\n      PUSH [tag] 161\t\t\treturn patients.records[_addre...\n      JUMP \t\t\treturn patients.records[_addre...\n    tag 199\t\t\treturn patients.records[_addre...\n      JUMPDEST \t\t\treturn patients.records[_addre...\n      DUP1 \t\t\treturn patients.records[_addre...\n      PUSH 1F\t\t\treturn patients.records[_addre...\n      ADD \t\t\treturn patients.records[_addre...\n      PUSH 20\t\t\treturn patients.records[_addre...\n      DUP1 \t\t\treturn patients.records[_addre...\n      SWAP2 \t\t\treturn patients.records[_addre...\n      DIV \t\t\treturn patients.records[_addre...\n      MUL \t\t\treturn patients.records[_addre...\n      PUSH 20\t\t\treturn patients.records[_addre...\n      ADD \t\t\treturn patients.records[_addre...\n      PUSH 40\t\t\treturn patients.records[_addre...\n      MLOAD \t\t\treturn patients.records[_addre...\n      SWAP1 \t\t\treturn patients.records[_addre...\n      DUP2 \t\t\treturn patients.records[_addre...\n      ADD \t\t\treturn patients.records[_addre...\n      PUSH 40\t\t\treturn patients.records[_addre...\n      MSTORE \t\t\treturn patients.records[_addre...\n      DUP1 \t\t\treturn patients.records[_addre...\n      SWAP3 \t\t\treturn patients.records[_addre...\n      SWAP2 \t\t\treturn patients.records[_addre...\n      SWAP1 \t\t\treturn patients.records[_addre...\n      DUP2 \t\t\treturn patients.records[_addre...\n      DUP2 \t\t\treturn patients.records[_addre...\n      MSTORE \t\t\treturn patients.records[_addre...\n      PUSH 20\t\t\treturn patients.records[_addre...\n      ADD \t\t\treturn patients.records[_addre...\n      DUP3 \t\t\treturn patients.records[_addre...\n      DUP1 \t\t\treturn patients.records[_addre...\n      SLOAD \t\t\treturn patients.records[_addre...\n      PUSH [tag] 200\t\t\treturn patients.records[_addre...\n      SWAP1 \t\t\treturn patients.records[_addre...\n      PUSH [tag] 161\t\t\treturn patients.records[_addre...\n      JUMP \t\t\treturn patients.records[_addre...\n    tag 200\t\t\treturn patients.records[_addre...\n      JUMPDEST \t\t\treturn patients.records[_addre...\n      DUP1 \t\t\treturn patients.records[_addre...\n      ISZERO \t\t\treturn patients.records[_addre...\n      PUSH [tag] 201\t\t\treturn patients.records[_addre...\n      JUMPI \t\t\treturn patients.records[_addre...\n      DUP1 \t\t\treturn patients.records[_addre...\n      PUSH 1F\t\t\treturn patients.records[_addre...\n      LT \t\t\treturn patients.records[_addre...\n      PUSH [tag] 202\t\t\treturn patients.records[_addre...\n      JUMPI \t\t\treturn patients.records[_addre...\n      PUSH 100\t\t\treturn patients.records[_addre...\n      DUP1 \t\t\treturn patients.records[_addre...\n      DUP4 \t\t\treturn patients.records[_addre...\n      SLOAD \t\t\treturn patients.records[_addre...\n      DIV \t\t\treturn patients.records[_addre...\n      MUL \t\t\treturn patients.records[_addre...\n      DUP4 \t\t\treturn patients.records[_addre...\n      MSTORE \t\t\treturn patients.records[_addre...\n      SWAP2 \t\t\treturn patients.records[_addre...\n      PUSH 20\t\t\treturn patients.records[_addre...\n      ADD \t\t\treturn patients.records[_addre...\n      SWAP2 \t\t\treturn patients.records[_addre...\n      PUSH [tag] 201\t\t\treturn patients.records[_addre...\n      JUMP \t\t\treturn patients.records[_addre...\n    tag 202\t\t\treturn patients.records[_addre...\n      JUMPDEST \t\t\treturn patients.records[_addre...\n      DUP3 \t\t\treturn patients.records[_addre...\n      ADD \t\t\treturn patients.records[_addre...\n      SWAP2 \t\t\treturn patients.records[_addre...\n      SWAP1 \t\t\treturn patients.records[_addre...\n      PUSH 0\t\t\treturn patients.records[_addre...\n      MSTORE \t\t\treturn patients.records[_addre...\n      PUSH 20\t\t\treturn patients.records[_addre...\n      PUSH 0\t\t\treturn patients.records[_addre...\n      KECCAK256 \t\t\treturn patients.records[_addre...\n      SWAP1 \t\t\treturn patients.records[_addre...\n    tag 203\t\t\treturn patients.records[_addre...\n      JUMPDEST \t\t\treturn patients.records[_addre...\n      DUP2 \t\t\treturn patients.records[_addre...\n      SLOAD \t\t\treturn patients.records[_addre...\n      DUP2 \t\t\treturn patients.records[_addre...\n      MSTORE \t\t\treturn patients.records[_addre...\n      SWAP1 \t\t\treturn patients.records[_addre...\n      PUSH 1\t\t\treturn patients.records[_addre...\n      ADD \t\t\treturn patients.records[_addre...\n      SWAP1 \t\t\treturn patients.records[_addre...\n      PUSH 20\t\t\treturn patients.records[_addre...\n      ADD \t\t\treturn patients.records[_addre...\n      DUP1 \t\t\treturn patients.records[_addre...\n      DUP4 \t\t\treturn patients.records[_addre...\n      GT \t\t\treturn patients.records[_addre...\n      PUSH [tag] 203\t\t\treturn patients.records[_addre...\n      JUMPI \t\t\treturn patients.records[_addre...\n      DUP3 \t\t\treturn patients.records[_addre...\n      SWAP1 \t\t\treturn patients.records[_addre...\n      SUB \t\t\treturn patients.records[_addre...\n      PUSH 1F\t\t\treturn patients.records[_addre...\n      AND \t\t\treturn patients.records[_addre...\n      DUP3 \t\t\treturn patients.records[_addre...\n      ADD \t\t\treturn patients.records[_addre...\n      SWAP2 \t\t\treturn patients.records[_addre...\n    tag 201\t\t\treturn patients.records[_addre...\n      JUMPDEST \t\t\treturn patients.records[_addre...\n      POP \t\t\treturn patients.records[_addre...\n      POP \t\t\treturn patients.records[_addre...\n      POP \t\t\treturn patients.records[_addre...\n      POP \t\t\treturn patients.records[_addre...\n      POP \t\t\treturn patients.records[_addre...\n      SWAP1 \t\t\treturn patients.records[_addre...\n      POP \t\t\treturn patients.records[_addre...\n      PUSH [tag] 189\t\t\treturn patients.records[_addre...\n      JUMP \t\t\treturn patients.records[_addre...\n    tag 198\t\t\tif (\\n            msg.sender =...\n      JUMPDEST \t\t\tif (\\n            msg.sender =...\n      PUSH 40\t\t\trevert(\"Not Allowed\")\n      MLOAD \t\t\trevert(\"Not Allowed\")\n      PUSH 8C379A000000000000000000000000000000000000000000000000000000000\t\t\trevert(\"Not Allowed\")\n      DUP2 \t\t\trevert(\"Not Allowed\")\n      MSTORE \t\t\trevert(\"Not Allowed\")\n      PUSH 4\t\t\trevert(\"Not Allowed\")\n      ADD \t\t\trevert(\"Not Allowed\")\n      PUSH [tag] 204\t\t\trevert(\"Not Allowed\")\n      SWAP1 \t\t\trevert(\"Not Allowed\")\n      PUSH [tag] 205\t\t\trevert(\"Not Allowed\")\n      JUMP \t\t\trevert(\"Not Allowed\")\n    tag 204\t\t\trevert(\"Not Allowed\")\n      JUMPDEST \t\t\trevert(\"Not Allowed\")\n      PUSH 40\t\t\trevert(\"Not Allowed\")\n      MLOAD \t\t\trevert(\"Not Allowed\")\n      DUP1 \t\t\trevert(\"Not Allowed\")\n      SWAP2 \t\t\trevert(\"Not Allowed\")\n      SUB \t\t\trevert(\"Not Allowed\")\n      SWAP1 \t\t\trevert(\"Not Allowed\")\n      REVERT \t\t\trevert(\"Not Allowed\")\n    tag 189\t\t\tfunction getPtRecordHash(addre...\n      JUMPDEST \t\t\tfunction getPtRecordHash(addre...\n      SWAP2 \t\t\tfunction getPtRecordHash(addre...\n      SWAP1 \t\t\tfunction getPtRecordHash(addre...\n      POP \t\t\tfunction getPtRecordHash(addre...\n      JUMP \t\t\tfunction getPtRecordHash(addre...\n    tag 75\t\t\tfunction getPtGeneralHash(addr...\n      JUMPDEST \t\t\tfunction getPtGeneralHash(addr...\n      PUSH 60\t\t\tstring memory\n      PUSH [tag] 207\t\t\tisPatient(_address)\n      DUP3 \t\t\t_address\n      PUSH [tag] 99\t\t\tisPatient\n      JUMP \t\t\tisPatient(_address)\n    tag 207\t\t\tisPatient(_address)\n      JUMPDEST \t\t\tisPatient(_address)\n      PUSH [tag] 208\t\t\tif (!isPatient(_address)) reve...\n      JUMPI \t\t\tif (!isPatient(_address)) reve...\n      PUSH 40\t\t\tContract__NotPatient()\n      MLOAD \t\t\tContract__NotPatient()\n      PUSH C11330E600000000000000000000000000000000000000000000000000000000\t\t\tContract__NotPatient()\n      DUP2 \t\t\tContract__NotPatient()\n      MSTORE \t\t\tContract__NotPatient()\n      PUSH 4\t\t\tContract__NotPatient()\n      ADD \t\t\tContract__NotPatient()\n      PUSH 40\t\t\tContract__NotPatient()\n      MLOAD \t\t\tContract__NotPatient()\n      DUP1 \t\t\tContract__NotPatient()\n      SWAP2 \t\t\tContract__NotPatient()\n      SUB \t\t\tContract__NotPatient()\n      SWAP1 \t\t\tContract__NotPatient()\n      REVERT \t\t\tContract__NotPatient()\n    tag 208\t\t\tif (!isPatient(_address)) reve...\n      JUMPDEST \t\t\tif (!isPatient(_address)) reve...\n      DUP2 \t\t\t_address\n      PUSH FFFFFFFFFFFFFFFFFFFFFFFFFFFFFFFFFFFFFFFF\t\t\tmsg.sender == _address\n      AND \t\t\tmsg.sender == _address\n      CALLER \t\t\tmsg.sender\n      PUSH FFFFFFFFFFFFFFFFFFFFFFFFFFFFFFFFFFFFFFFF\t\t\tmsg.sender == _address\n      AND \t\t\tmsg.sender == _address\n      EQ \t\t\tmsg.sender == _address\n      DUP1 \t\t\tmsg.sender == _address ||\\n   ...\n      PUSH [tag] 209\t\t\tmsg.sender == _address ||\\n   ...\n      JUMPI \t\t\tmsg.sender == _address ||\\n   ...\n      POP \t\t\tmsg.sender == _address ||\\n   ...\n      CALLER \t\t\tmsg.sender\n      PUSH FFFFFFFFFFFFFFFFFFFFFFFFFFFFFFFFFFFFFFFF\t\t\tpatients.records[_address].edi...\n      AND \t\t\tpatients.records[_address].edi...\n      PUSH B\t\t\tpatients\n      PUSH 4\t\t\tpatients.records\n      ADD \t\t\tpatients.records\n      PUSH 0\t\t\tpatients.records[_address]\n      DUP5 \t\t\t_address\n      PUSH FFFFFFFFFFFFFFFFFFFFFFFFFFFFFFFFFFFFFFFF\t\t\tpatients.records[_address]\n      AND \t\t\tpatients.records[_address]\n      PUSH FFFFFFFFFFFFFFFFFFFFFFFFFFFFFFFFFFFFFFFF\t\t\tpatients.records[_address]\n      AND \t\t\tpatients.records[_address]\n      DUP2 \t\t\tpatients.records[_address]\n      MSTORE \t\t\tpatients.records[_address]\n      PUSH 20\t\t\tpatients.records[_address]\n      ADD \t\t\tpatients.records[_address]\n      SWAP1 \t\t\tpatients.records[_address]\n      DUP2 \t\t\tpatients.records[_address]\n      MSTORE \t\t\tpatients.records[_address]\n      PUSH 20\t\t\tpatients.records[_address]\n      ADD \t\t\tpatients.records[_address]\n      PUSH 0\t\t\tpatients.records[_address]\n      KECCAK256 \t\t\tpatients.records[_address]\n      PUSH 0\t\t\tpatients.records[_address].edi...\n      ADD \t\t\tpatients.records[_address].edi...\n      PUSH 0\t\t\tpatients.records[_address].edi...\n      SWAP1 \t\t\tpatients.records[_address].edi...\n      SLOAD \t\t\tpatients.records[_address].edi...\n      SWAP1 \t\t\tpatients.records[_address].edi...\n      PUSH 100\t\t\tpatients.records[_address].edi...\n      EXP \t\t\tpatients.records[_address].edi...\n      SWAP1 \t\t\tpatients.records[_address].edi...\n      DIV \t\t\tpatients.records[_address].edi...\n      PUSH FFFFFFFFFFFFFFFFFFFFFFFFFFFFFFFFFFFFFFFF\t\t\tpatients.records[_address].edi...\n      AND \t\t\tpatients.records[_address].edi...\n      PUSH FFFFFFFFFFFFFFFFFFFFFFFFFFFFFFFFFFFFFFFF\t\t\tpatients.records[_address].edi...\n      AND \t\t\tpatients.records[_address].edi...\n      EQ \t\t\tpatients.records[_address].edi...\n    tag 209\t\t\tmsg.sender == _address ||\\n   ...\n      JUMPDEST \t\t\tmsg.sender == _address ||\\n   ...\n      DUP1 \t\t\tmsg.sender == _address ||\\n   ...\n      PUSH [tag] 210\t\t\tmsg.sender == _address ||\\n   ...\n      JUMPI \t\t\tmsg.sender == _address ||\\n   ...\n      POP \t\t\tmsg.sender == _address ||\\n   ...\n      PUSH FFFFFFFFFFFFFFFFFFFFFFFFFFFFFFFFFFFFFFFFFFFFFFFFFFFFFFFFFFFFFFFF\t\t\t-1\n      PUSH [tag] 211\t\t\tpatients.records[_address].vie...\n      CALLER \t\t\tmsg.sender\n      PUSH B\t\t\tpatients\n      PUSH 4\t\t\tpatients.records\n      ADD \t\t\tpatients.records\n      PUSH 0\t\t\tpatients.records[_address]\n      DUP7 \t\t\t_address\n      PUSH FFFFFFFFFFFFFFFFFFFFFFFFFFFFFFFFFFFFFFFF\t\t\tpatients.records[_address]\n      AND \t\t\tpatients.records[_address]\n      PUSH FFFFFFFFFFFFFFFFFFFFFFFFFFFFFFFFFFFFFFFF\t\t\tpatients.records[_address]\n      AND \t\t\tpatients.records[_address]\n      DUP2 \t\t\tpatients.records[_address]\n      MSTORE \t\t\tpatients.records[_address]\n      PUSH 20\t\t\tpatients.records[_address]\n      ADD \t\t\tpatients.records[_address]\n      SWAP1 \t\t\tpatients.records[_address]\n      DUP2 \t\t\tpatients.records[_address]\n      MSTORE \t\t\tpatients.records[_address]\n      PUSH 20\t\t\tpatients.records[_address]\n      ADD \t\t\tpatients.records[_address]\n      PUSH 0\t\t\tpatients.records[_address]\n      KECCAK256 \t\t\tpatients.records[_address]\n      PUSH 1\t\t\tpatients.records[_address].vie...\n      ADD \t\t\tpatients.records[_address].vie...\n      DUP1 \t\t\tpatients.records[_address].vie...\n      SLOAD \t\t\tpatients.records[_address].vie...\n      DUP1 \t\t\tpatients.records[_address].vie...\n      PUSH 20\t\t\tpatients.records[_address].vie...\n      MUL \t\t\tpatients.records[_address].vie...\n      PUSH 20\t\t\tpatients.records[_address].vie...\n      ADD \t\t\tpatients.records[_address].vie...\n      PUSH 40\t\t\tpatients.records[_address].vie...\n      MLOAD \t\t\tpatients.records[_address].vie...\n      SWAP1 \t\t\tpatients.records[_address].vie...\n      DUP2 \t\t\tpatients.records[_address].vie...\n      ADD \t\t\tpatients.records[_address].vie...\n      PUSH 40\t\t\tpatients.records[_address].vie...\n      MSTORE \t\t\tpatients.records[_address].vie...\n      DUP1 \t\t\tpatients.records[_address].vie...\n      SWAP3 \t\t\tpatients.records[_address].vie...\n      SWAP2 \t\t\tpatients.records[_address].vie...\n      SWAP1 \t\t\tpatients.records[_address].vie...\n      DUP2 \t\t\tpatients.records[_address].vie...\n      DUP2 \t\t\tpatients.records[_address].vie...\n      MSTORE \t\t\tpatients.records[_address].vie...\n      PUSH 20\t\t\tpatients.records[_address].vie...\n      ADD \t\t\tpatients.records[_address].vie...\n      DUP3 \t\t\tpatients.records[_address].vie...\n      DUP1 \t\t\tpatients.records[_address].vie...\n      SLOAD \t\t\tpatients.records[_address].vie...\n      DUP1 \t\t\tpatients.records[_address].vie...\n      ISZERO \t\t\tpatients.records[_address].vie...\n      PUSH [tag] 212\t\t\tpatients.records[_address].vie...\n      JUMPI \t\t\tpatients.records[_address].vie...\n      PUSH 20\t\t\tpatients.records[_address].vie...\n      MUL \t\t\tpatients.records[_address].vie...\n      DUP3 \t\t\tpatients.records[_address].vie...\n      ADD \t\t\tpatients.records[_address].vie...\n      SWAP2 \t\t\tpatients.records[_address].vie...\n      SWAP1 \t\t\tpatients.records[_address].vie...\n      PUSH 0\t\t\tpatients.records[_address].vie...\n      MSTORE \t\t\tpatients.records[_address].vie...\n      PUSH 20\t\t\tpatients.records[_address].vie...\n      PUSH 0\t\t\tpatients.records[_address].vie...\n      KECCAK256 \t\t\tpatients.records[_address].vie...\n      SWAP1 \t\t\tpatients.records[_address].vie...\n    tag 213\t\t\tpatients.records[_address].vie...\n      JUMPDEST \t\t\tpatients.records[_address].vie...\n      DUP2 \t\t\tpatients.records[_address].vie...\n      PUSH 0\t\t\tpatients.records[_address].vie...\n      SWAP1 \t\t\tpatients.records[_address].vie...\n      SLOAD \t\t\tpatients.records[_address].vie...\n      SWAP1 \t\t\tpatients.records[_address].vie...\n      PUSH 100\t\t\tpatients.records[_address].vie...\n      EXP \t\t\tpatients.records[_address].vie...\n      SWAP1 \t\t\tpatients.records[_address].vie...\n      DIV \t\t\tpatients.records[_address].vie...\n      PUSH FFFFFFFFFFFFFFFFFFFFFFFFFFFFFFFFFFFFFFFF\t\t\tpatients.records[_address].vie...\n      AND \t\t\tpatients.records[_address].vie...\n      PUSH FFFFFFFFFFFFFFFFFFFFFFFFFFFFFFFFFFFFFFFF\t\t\tpatients.records[_address].vie...\n      AND \t\t\tpatients.records[_address].vie...\n      DUP2 \t\t\tpatients.records[_address].vie...\n      MSTORE \t\t\tpatients.records[_address].vie...\n      PUSH 20\t\t\tpatients.records[_address].vie...\n      ADD \t\t\tpatients.records[_address].vie...\n      SWAP1 \t\t\tpatients.records[_address].vie...\n      PUSH 1\t\t\tpatients.records[_address].vie...\n      ADD \t\t\tpatients.records[_address].vie...\n      SWAP1 \t\t\tpatients.records[_address].vie...\n      DUP1 \t\t\tpatients.records[_address].vie...\n      DUP4 \t\t\tpatients.records[_address].vie...\n      GT \t\t\tpatients.records[_address].vie...\n      PUSH [tag] 213\t\t\tpatients.records[_address].vie...\n      JUMPI \t\t\tpatients.records[_address].vie...\n    tag 212\t\t\tpatients.records[_address].vie...\n      JUMPDEST \t\t\tpatients.records[_address].vie...\n      POP \t\t\tpatients.records[_address].vie...\n      POP \t\t\tpatients.records[_address].vie...\n      POP \t\t\tpatients.records[_address].vie...\n      POP \t\t\tpatients.records[_address].vie...\n      POP \t\t\tpatients.records[_address].vie...\n      PUSH [tag] 197\t\t\tpatients.records[_address].vie...\n      SWAP1 \t\t\tpatients.records[_address].vie...\n      SWAP2 \t\t\tpatients.records[_address].vie...\n      SWAP1 \t\t\tpatients.records[_address].vie...\n      PUSH FFFFFFFF\t\t\tpatients.records[_address].vie...\n      AND \t\t\tpatients.records[_address].vie...\n      JUMP \t\t\tpatients.records[_address].vie...\n    tag 211\t\t\tpatients.records[_address].vie...\n      JUMPDEST \t\t\tpatients.records[_address].vie...\n      EQ \t\t\tpatients.records[_address].vie...\n      ISZERO \t\t\tpatients.records[_address].vie...\n    tag 210\t\t\tmsg.sender == _address ||\\n   ...\n      JUMPDEST \t\t\tmsg.sender == _address ||\\n   ...\n      ISZERO \t\t\tif (\\n            msg.sender =...\n      PUSH [tag] 214\t\t\tif (\\n            msg.sender =...\n      JUMPI \t\t\tif (\\n            msg.sender =...\n      PUSH [tag] 215\t\t\tpatients.users.getHash(_addres...\n      DUP3 \t\t\t_address\n      PUSH B\t\t\tpatients\n      PUSH 0\t\t\tpatients.users\n      ADD \t\t\tpatients.users\n      PUSH [tag] 216\t\t\tpatients.users.getHash\n      SWAP1 \t\t\tpatients.users.getHash\n      SWAP2 \t\t\tpatients.users.getHash(_addres...\n      SWAP1 \t\t\tpatients.users.getHash(_addres...\n      PUSH FFFFFFFF\t\t\tpatients.users.getHash(_addres...\n      AND \t\t\tpatients.users.getHash(_addres...\n      JUMP \t\t\tpatients.users.getHash(_addres...\n    tag 215\t\t\tpatients.users.getHash(_addres...\n      JUMPDEST \t\t\tpatients.users.getHash(_addres...\n      SWAP1 \t\t\treturn patients.users.getHash(...\n      POP \t\t\treturn patients.users.getHash(...\n      PUSH [tag] 206\t\t\treturn patients.users.getHash(...\n      JUMP \t\t\treturn patients.users.getHash(...\n    tag 214\t\t\tif (\\n            msg.sender =...\n      JUMPDEST \t\t\tif (\\n            msg.sender =...\n      PUSH 40\t\t\trevert(\"Not Allowed\")\n      MLOAD \t\t\trevert(\"Not Allowed\")\n      PUSH 8C379A000000000000000000000000000000000000000000000000000000000\t\t\trevert(\"Not Allowed\")\n      DUP2 \t\t\trevert(\"Not Allowed\")\n      MSTORE \t\t\trevert(\"Not Allowed\")\n      PUSH 4\t\t\trevert(\"Not Allowed\")\n      ADD \t\t\trevert(\"Not Allowed\")\n      PUSH [tag] 217\t\t\trevert(\"Not Allowed\")\n      SWAP1 \t\t\trevert(\"Not Allowed\")\n      PUSH [tag] 205\t\t\trevert(\"Not Allowed\")\n      JUMP \t\t\trevert(\"Not Allowed\")\n    tag 217\t\t\trevert(\"Not Allowed\")\n      JUMPDEST \t\t\trevert(\"Not Allowed\")\n      PUSH 40\t\t\trevert(\"Not Allowed\")\n      MLOAD \t\t\trevert(\"Not Allowed\")\n      DUP1 \t\t\trevert(\"Not Allowed\")\n      SWAP2 \t\t\trevert(\"Not Allowed\")\n      SUB \t\t\trevert(\"Not Allowed\")\n      SWAP1 \t\t\trevert(\"Not Allowed\")\n      REVERT \t\t\trevert(\"Not Allowed\")\n    tag 206\t\t\tfunction getPtGeneralHash(addr...\n      JUMPDEST \t\t\tfunction getPtGeneralHash(addr...\n      SWAP2 \t\t\tfunction getPtGeneralHash(addr...\n      SWAP1 \t\t\tfunction getPtGeneralHash(addr...\n      POP \t\t\tfunction getPtGeneralHash(addr...\n      JUMP \t\t\tfunction getPtGeneralHash(addr...\n    tag 80\t\t\tfunction removeEditorAccess(\\n...\n      JUMPDEST \t\t\tfunction removeEditorAccess(\\n...\n      PUSH [tag] 219\t\t\tisPatient(msg.sender)\n      CALLER \t\t\tmsg.sender\n      PUSH [tag] 99\t\t\tisPatient\n      JUMP \t\t\tisPatient(msg.sender)\n    tag 219\t\t\tisPatient(msg.sender)\n      JUMPDEST \t\t\tisPatient(msg.sender)\n      PUSH [tag] 220\t\t\tif (!isPatient(msg.sender)) re...\n      JUMPI \t\t\tif (!isPatient(msg.sender)) re...\n      PUSH 40\t\t\tContract__NotPatient()\n      MLOAD \t\t\tContract__NotPatient()\n      PUSH C11330E600000000000000000000000000000000000000000000000000000000\t\t\tContract__NotPatient()\n      DUP2 \t\t\tContract__NotPatient()\n      MSTORE \t\t\tContract__NotPatient()\n      PUSH 4\t\t\tContract__NotPatient()\n      ADD \t\t\tContract__NotPatient()\n      PUSH 40\t\t\tContract__NotPatient()\n      MLOAD \t\t\tContract__NotPatient()\n      DUP1 \t\t\tContract__NotPatient()\n      SWAP2 \t\t\tContract__NotPatient()\n      SUB \t\t\tContract__NotPatient()\n      SWAP1 \t\t\tContract__NotPatient()\n      REVERT \t\t\tContract__NotPatient()\n    tag 220\t\t\tif (!isPatient(msg.sender)) re...\n      JUMPDEST \t\t\tif (!isPatient(msg.sender)) re...\n      PUSH 0\t\t\taddress old_editor\n      PUSH B\t\t\tpatients\n      PUSH 4\t\t\tpatients.records\n      ADD \t\t\tpatients.records\n      PUSH 0\t\t\tpatients.records[msg.sender]\n      CALLER \t\t\tmsg.sender\n      PUSH FFFFFFFFFFFFFFFFFFFFFFFFFFFFFFFFFFFFFFFF\t\t\tpatients.records[msg.sender]\n      AND \t\t\tpatients.records[msg.sender]\n      PUSH FFFFFFFFFFFFFFFFFFFFFFFFFFFFFFFFFFFFFFFF\t\t\tpatients.records[msg.sender]\n      AND \t\t\tpatients.records[msg.sender]\n      DUP2 \t\t\tpatients.records[msg.sender]\n      MSTORE \t\t\tpatients.records[msg.sender]\n      PUSH 20\t\t\tpatients.records[msg.sender]\n      ADD \t\t\tpatients.records[msg.sender]\n      SWAP1 \t\t\tpatients.records[msg.sender]\n      DUP2 \t\t\tpatients.records[msg.sender]\n      MSTORE \t\t\tpatients.records[msg.sender]\n      PUSH 20\t\t\tpatients.records[msg.sender]\n      ADD \t\t\tpatients.records[msg.sender]\n      PUSH 0\t\t\tpatients.records[msg.sender]\n      KECCAK256 \t\t\tpatients.records[msg.sender]\n      PUSH 0\t\t\tpatients.records[msg.sender].e...\n      ADD \t\t\tpatients.records[msg.sender].e...\n      PUSH 0\t\t\tpatients.records[msg.sender].e...\n      SWAP1 \t\t\tpatients.records[msg.sender].e...\n      SLOAD \t\t\tpatients.records[msg.sender].e...\n      SWAP1 \t\t\tpatients.records[msg.sender].e...\n      PUSH 100\t\t\tpatients.records[msg.sender].e...\n      EXP \t\t\tpatients.records[msg.sender].e...\n      SWAP1 \t\t\tpatients.records[msg.sender].e...\n      DIV \t\t\tpatients.records[msg.sender].e...\n      PUSH FFFFFFFFFFFFFFFFFFFFFFFFFFFFFFFFFFFFFFFF\t\t\tpatients.records[msg.sender].e...\n      AND \t\t\tpatients.records[msg.sender].e...\n      SWAP1 \t\t\taddress old_editor = patients....\n      POP \t\t\taddress old_editor = patients....\n      CALLER \t\t\tmsg.sender\n      PUSH B\t\t\tpatients\n      PUSH 4\t\t\tpatients.records\n      ADD \t\t\tpatients.records\n      PUSH 0\t\t\tpatients.records[msg.sender]\n      CALLER \t\t\tmsg.sender\n      PUSH FFFFFFFFFFFFFFFFFFFFFFFFFFFFFFFFFFFFFFFF\t\t\tpatients.records[msg.sender]\n      AND \t\t\tpatients.records[msg.sender]\n      PUSH FFFFFFFFFFFFFFFFFFFFFFFFFFFFFFFFFFFFFFFF\t\t\tpatients.records[msg.sender]\n      AND \t\t\tpatients.records[msg.sender]\n      DUP2 \t\t\tpatients.records[msg.sender]\n      MSTORE \t\t\tpatients.records[msg.sender]\n      PUSH 20\t\t\tpatients.records[msg.sender]\n      ADD \t\t\tpatients.records[msg.sender]\n      SWAP1 \t\t\tpatients.records[msg.sender]\n      DUP2 \t\t\tpatients.records[msg.sender]\n      MSTORE \t\t\tpatients.records[msg.sender]\n      PUSH 20\t\t\tpatients.records[msg.sender]\n      ADD \t\t\tpatients.records[msg.sender]\n      PUSH 0\t\t\tpatients.records[msg.sender]\n      KECCAK256 \t\t\tpatients.records[msg.sender]\n      PUSH 0\t\t\tpatients.records[msg.sender].e...\n      ADD \t\t\tpatients.records[msg.sender].e...\n      PUSH 0\t\t\tpatients.records[msg.sender].e...\n      PUSH 100\t\t\tpatients.records[msg.sender].e...\n      EXP \t\t\tpatients.records[msg.sender].e...\n      DUP2 \t\t\tpatients.records[msg.sender].e...\n      SLOAD \t\t\tpatients.records[msg.sender].e...\n      DUP2 \t\t\tpatients.records[msg.sender].e...\n      PUSH FFFFFFFFFFFFFFFFFFFFFFFFFFFFFFFFFFFFFFFF\t\t\tpatients.records[msg.sender].e...\n      MUL \t\t\tpatients.records[msg.sender].e...\n      NOT \t\t\tpatients.records[msg.sender].e...\n      AND \t\t\tpatients.records[msg.sender].e...\n      SWAP1 \t\t\tpatients.records[msg.sender].e...\n      DUP4 \t\t\tpatients.records[msg.sender].e...\n      PUSH FFFFFFFFFFFFFFFFFFFFFFFFFFFFFFFFFFFFFFFF\t\t\tpatients.records[msg.sender].e...\n      AND \t\t\tpatients.records[msg.sender].e...\n      MUL \t\t\tpatients.records[msg.sender].e...\n      OR \t\t\tpatients.records[msg.sender].e...\n      SWAP1 \t\t\tpatients.records[msg.sender].e...\n      SSTORE \t\t\tpatients.records[msg.sender].e...\n      POP \t\t\tpatients.records[msg.sender].e...\n      PUSH [tag] 222\t\t\tdoctors.docToPatAccess[old_edi...\n      CALLER \t\t\tmsg.sender\n      PUSH 5\t\t\tdoctors\n      DUP1 \t\t\tdoctors.docToPatAccess\n      ADD \t\t\tdoctors.docToPatAccess\n      PUSH 0\t\t\tdoctors.docToPatAccess[old_edi...\n      DUP5 \t\t\told_editor\n      PUSH FFFFFFFFFFFFFFFFFFFFFFFFFFFFFFFFFFFFFFFF\t\t\tdoctors.docToPatAccess[old_edi...\n      AND \t\t\tdoctors.docToPatAccess[old_edi...\n      PUSH FFFFFFFFFFFFFFFFFFFFFFFFFFFFFFFFFFFFFFFF\t\t\tdoctors.docToPatAccess[old_edi...\n      AND \t\t\tdoctors.docToPatAccess[old_edi...\n      DUP2 \t\t\tdoctors.docToPatAccess[old_edi...\n      MSTORE \t\t\tdoctors.docToPatAccess[old_edi...\n      PUSH 20\t\t\tdoctors.docToPatAccess[old_edi...\n      ADD \t\t\tdoctors.docToPatAccess[old_edi...\n      SWAP1 \t\t\tdoctors.docToPatAccess[old_edi...\n      DUP2 \t\t\tdoctors.docToPatAccess[old_edi...\n      MSTORE \t\t\tdoctors.docToPatAccess[old_edi...\n      PUSH 20\t\t\tdoctors.docToPatAccess[old_edi...\n      ADD \t\t\tdoctors.docToPatAccess[old_edi...\n      PUSH 0\t\t\tdoctors.docToPatAccess[old_edi...\n      KECCAK256 \t\t\tdoctors.docToPatAccess[old_edi...\n      PUSH [tag] 158\t\t\tdoctors.docToPatAccess[old_edi...\n      SWAP1 \t\t\tdoctors.docToPatAccess[old_edi...\n      SWAP2 \t\t\tdoctors.docToPatAccess[old_edi...\n      SWAP1 \t\t\tdoctors.docToPatAccess[old_edi...\n      PUSH FFFFFFFF\t\t\tdoctors.docToPatAccess[old_edi...\n      AND \t\t\tdoctors.docToPatAccess[old_edi...\n      JUMP \t\t\tdoctors.docToPatAccess[old_edi...\n    tag 222\t\t\tdoctors.docToPatAccess[old_edi...\n      JUMPDEST \t\t\tdoctors.docToPatAccess[old_edi...\n      PUSH [tag] 223\t\t\tpatients.users.setHash(msg.sen...\n      CALLER \t\t\tmsg.sender\n      DUP5 \t\t\t_general_hash\n      PUSH B\t\t\tpatients\n      PUSH 0\t\t\tpatients.users\n      ADD \t\t\tpatients.users\n      PUSH [tag] 224\t\t\tpatients.users.setHash\n      SWAP1 \t\t\tpatients.users.setHash\n      SWAP3 \t\t\tpatients.users.setHash(msg.sen...\n      SWAP2 \t\t\tpatients.users.setHash(msg.sen...\n      SWAP1 \t\t\tpatients.users.setHash(msg.sen...\n      PUSH FFFFFFFF\t\t\tpatients.users.setHash(msg.sen...\n      AND \t\t\tpatients.users.setHash(msg.sen...\n      JUMP \t\t\tpatients.users.setHash(msg.sen...\n    tag 223\t\t\tpatients.users.setHash(msg.sen...\n      JUMPDEST \t\t\tpatients.users.setHash(msg.sen...\n      DUP2 \t\t\t_key_hash\n      PUSH B\t\t\tpatients\n      PUSH 4\t\t\tpatients.records\n      ADD \t\t\tpatients.records\n      PUSH 0\t\t\tpatients.records[msg.sender]\n      CALLER \t\t\tmsg.sender\n      PUSH FFFFFFFFFFFFFFFFFFFFFFFFFFFFFFFFFFFFFFFF\t\t\tpatients.records[msg.sender]\n      AND \t\t\tpatients.records[msg.sender]\n      PUSH FFFFFFFFFFFFFFFFFFFFFFFFFFFFFFFFFFFFFFFF\t\t\tpatients.records[msg.sender]\n      AND \t\t\tpatients.records[msg.sender]\n      DUP2 \t\t\tpatients.records[msg.sender]\n      MSTORE \t\t\tpatients.records[msg.sender]\n      PUSH 20\t\t\tpatients.records[msg.sender]\n      ADD \t\t\tpatients.records[msg.sender]\n      SWAP1 \t\t\tpatients.records[msg.sender]\n      DUP2 \t\t\tpatients.records[msg.sender]\n      MSTORE \t\t\tpatients.records[msg.sender]\n      PUSH 20\t\t\tpatients.records[msg.sender]\n      ADD \t\t\tpatients.records[msg.sender]\n      PUSH 0\t\t\tpatients.records[msg.sender]\n      KECCAK256 \t\t\tpatients.records[msg.sender]\n      PUSH 2\t\t\tpatients.records[msg.sender].k...\n      ADD \t\t\tpatients.records[msg.sender].k...\n      SWAP1 \t\t\tpatients.records[msg.sender].k...\n      DUP2 \t\t\tpatients.records[msg.sender].k...\n      PUSH [tag] 225\t\t\tpatients.records[msg.sender].k...\n      SWAP2 \t\t\tpatients.records[msg.sender].k...\n      SWAP1 \t\t\tpatients.records[msg.sender].k...\n      PUSH [tag] 226\t\t\tpatients.records[msg.sender].k...\n      JUMP \t\t\tpatients.records[msg.sender].k...\n    tag 225\t\t\tpatients.records[msg.sender].k...\n      JUMPDEST \t\t\tpatients.records[msg.sender].k...\n      POP \t\t\tpatients.records[msg.sender].k...\n      POP \t\t\t{\\n        address old_editor ...\n      POP \t\t\tfunction removeEditorAccess(\\n...\n      POP \t\t\tfunction removeEditorAccess(\\n...\n      JUMP \t\t\tfunction removeEditorAccess(\\n...\n    tag 83\t\t\tfunction isDrPending(address _...\n      JUMPDEST \t\t\tfunction isDrPending(address _...\n      PUSH 0\t\t\tbool\n      PUSH [tag] 228\t\t\tadmin.pending_doctors.get(_add...\n      DUP3 \t\t\t_address\n      PUSH 0\t\t\tadmin\n      PUSH 2\t\t\tadmin.pending_doctors\n      ADD \t\t\tadmin.pending_doctors\n      PUSH [tag] 229\t\t\tadmin.pending_doctors.get\n      SWAP1 \t\t\tadmin.pending_doctors.get\n      SWAP2 \t\t\tadmin.pending_doctors.get(_add...\n      SWAP1 \t\t\tadmin.pending_doctors.get(_add...\n      PUSH FFFFFFFF\t\t\tadmin.pending_doctors.get(_add...\n      AND \t\t\tadmin.pending_doctors.get(_add...\n      JUMP \t\t\tadmin.pending_doctors.get(_add...\n    tag 228\t\t\tadmin.pending_doctors.get(_add...\n      JUMPDEST \t\t\tadmin.pending_doctors.get(_add...\n      SWAP1 \t\t\treturn admin.pending_doctors.g...\n      POP \t\t\treturn admin.pending_doctors.g...\n      SWAP2 \t\t\tfunction isDrPending(address _...\n      SWAP1 \t\t\tfunction isDrPending(address _...\n      POP \t\t\tfunction isDrPending(address _...\n      JUMP \t\t\tfunction isDrPending(address _...\n    tag 86\t\t\tfunction getAdmin() public vie...\n      JUMPDEST \t\t\tfunction getAdmin() public vie...\n      PUSH 0\t\t\taddress\n      DUP1 \t\t\tadmin\n      PUSH 0\t\t\tadmin.user\n      ADD \t\t\tadmin.user\n      PUSH 0\t\t\tadmin.user\n      SWAP1 \t\t\tadmin.user\n      SLOAD \t\t\tadmin.user\n      SWAP1 \t\t\tadmin.user\n      PUSH 100\t\t\tadmin.user\n      EXP \t\t\tadmin.user\n      SWAP1 \t\t\tadmin.user\n      DIV \t\t\tadmin.user\n      PUSH FFFFFFFFFFFFFFFFFFFFFFFFFFFFFFFFFFFFFFFF\t\t\tadmin.user\n      AND \t\t\tadmin.user\n      SWAP1 \t\t\treturn admin.user\n      POP \t\t\treturn admin.user\n      SWAP1 \t\t\tfunction getAdmin() public vie...\n      JUMP \t\t\tfunction getAdmin() public vie...\n    tag 90\t\t\tfunction disapproveDr(address ...\n      JUMPDEST \t\t\tfunction disapproveDr(address ...\n      PUSH [tag] 232\t\t\tisAdmin(msg.sender)\n      CALLER \t\t\tmsg.sender\n      PUSH [tag] 58\t\t\tisAdmin\n      JUMP \t\t\tisAdmin(msg.sender)\n    tag 232\t\t\tisAdmin(msg.sender)\n      JUMPDEST \t\t\tisAdmin(msg.sender)\n      PUSH [tag] 233\t\t\tif (!isAdmin(msg.sender)) reve...\n      JUMPI \t\t\tif (!isAdmin(msg.sender)) reve...\n      PUSH 40\t\t\tContract__NotAdmin()\n      MLOAD \t\t\tContract__NotAdmin()\n      PUSH 4D371DC700000000000000000000000000000000000000000000000000000000\t\t\tContract__NotAdmin()\n      DUP2 \t\t\tContract__NotAdmin()\n      MSTORE \t\t\tContract__NotAdmin()\n      PUSH 4\t\t\tContract__NotAdmin()\n      ADD \t\t\tContract__NotAdmin()\n      PUSH 40\t\t\tContract__NotAdmin()\n      MLOAD \t\t\tContract__NotAdmin()\n      DUP1 \t\t\tContract__NotAdmin()\n      SWAP2 \t\t\tContract__NotAdmin()\n      SUB \t\t\tContract__NotAdmin()\n      SWAP1 \t\t\tContract__NotAdmin()\n      REVERT \t\t\tContract__NotAdmin()\n    tag 233\t\t\tif (!isAdmin(msg.sender)) reve...\n      JUMPDEST \t\t\tif (!isAdmin(msg.sender)) reve...\n      PUSH [tag] 235\t\t\tisDrPending(_address)\n      DUP2 \t\t\t_address\n      PUSH [tag] 83\t\t\tisDrPending\n      JUMP \t\t\tisDrPending(_address)\n    tag 235\t\t\tisDrPending(_address)\n      JUMPDEST \t\t\tisDrPending(_address)\n      PUSH [tag] 236\t\t\tif (!isDrPending(_address)) re...\n      JUMPI \t\t\tif (!isDrPending(_address)) re...\n      PUSH 40\t\t\trevert(\"Contract: Doctor not r...\n      MLOAD \t\t\trevert(\"Contract: Doctor not r...\n      PUSH 8C379A000000000000000000000000000000000000000000000000000000000\t\t\trevert(\"Contract: Doctor not r...\n      DUP2 \t\t\trevert(\"Contract: Doctor not r...\n      MSTORE \t\t\trevert(\"Contract: Doctor not r...\n      PUSH 4\t\t\trevert(\"Contract: Doctor not r...\n      ADD \t\t\trevert(\"Contract: Doctor not r...\n      PUSH [tag] 237\t\t\trevert(\"Contract: Doctor not r...\n      SWAP1 \t\t\trevert(\"Contract: Doctor not r...\n      PUSH [tag] 238\t\t\trevert(\"Contract: Doctor not r...\n      JUMP \t\t\trevert(\"Contract: Doctor not r...\n    tag 237\t\t\trevert(\"Contract: Doctor not r...\n      JUMPDEST \t\t\trevert(\"Contract: Doctor not r...\n      PUSH 40\t\t\trevert(\"Contract: Doctor not r...\n      MLOAD \t\t\trevert(\"Contract: Doctor not r...\n      DUP1 \t\t\trevert(\"Contract: Doctor not r...\n      SWAP2 \t\t\trevert(\"Contract: Doctor not r...\n      SUB \t\t\trevert(\"Contract: Doctor not r...\n      SWAP1 \t\t\trevert(\"Contract: Doctor not r...\n      REVERT \t\t\trevert(\"Contract: Doctor not r...\n    tag 236\t\t\tif (!isDrPending(_address)) re...\n      JUMPDEST \t\t\tif (!isDrPending(_address)) re...\n      PUSH [tag] 239\t\t\tdoctors.users.remove(_address)\n      DUP2 \t\t\t_address\n      PUSH 5\t\t\tdoctors\n      PUSH 0\t\t\tdoctors.users\n      ADD \t\t\tdoctors.users\n      PUSH [tag] 240\t\t\tdoctors.users.remove\n      SWAP1 \t\t\tdoctors.users.remove\n      SWAP2 \t\t\tdoctors.users.remove(_address)\n      SWAP1 \t\t\tdoctors.users.remove(_address)\n      PUSH FFFFFFFF\t\t\tdoctors.users.remove(_address)\n      AND \t\t\tdoctors.users.remove(_address)\n      JUMP \t\t\tdoctors.users.remove(_address)\n    tag 239\t\t\tdoctors.users.remove(_address)\n      JUMPDEST \t\t\tdoctors.users.remove(_address)\n      PUSH [tag] 241\t\t\tadmin.pending_doctors.unset(_a...\n      DUP2 \t\t\t_address\n      PUSH 0\t\t\tadmin\n      PUSH 2\t\t\tadmin.pending_doctors\n      ADD \t\t\tadmin.pending_doctors\n      PUSH [tag] 158\t\t\tadmin.pending_doctors.unset\n      SWAP1 \t\t\tadmin.pending_doctors.unset\n      SWAP2 \t\t\tadmin.pending_doctors.unset(_a...\n      SWAP1 \t\t\tadmin.pending_doctors.unset(_a...\n      PUSH FFFFFFFF\t\t\tadmin.pending_doctors.unset(_a...\n      AND \t\t\tadmin.pending_doctors.unset(_a...\n      JUMP \t\t\tadmin.pending_doctors.unset(_a...\n    tag 241\t\t\tadmin.pending_doctors.unset(_a...\n      JUMPDEST \t\t\tadmin.pending_doctors.unset(_a...\n      POP \t\t\tfunction disapproveDr(address ...\n      JUMP \t\t\tfunction disapproveDr(address ...\n    tag 93\t\t\tfunction setPtGeneralHash(stri...\n      JUMPDEST \t\t\tfunction setPtGeneralHash(stri...\n      PUSH [tag] 243\t\t\tisPatient(msg.sender)\n      CALLER \t\t\tmsg.sender\n      PUSH [tag] 99\t\t\tisPatient\n      JUMP \t\t\tisPatient(msg.sender)\n    tag 243\t\t\tisPatient(msg.sender)\n      JUMPDEST \t\t\tisPatient(msg.sender)\n      PUSH [tag] 244\t\t\tif (!isPatient(msg.sender)) re...\n      JUMPI \t\t\tif (!isPatient(msg.sender)) re...\n      PUSH 40\t\t\tContract__NotPatient()\n      MLOAD \t\t\tContract__NotPatient()\n      PUSH C11330E600000000000000000000000000000000000000000000000000000000\t\t\tContract__NotPatient()\n      DUP2 \t\t\tContract__NotPatient()\n      MSTORE \t\t\tContract__NotPatient()\n      PUSH 4\t\t\tContract__NotPatient()\n      ADD \t\t\tContract__NotPatient()\n      PUSH 40\t\t\tContract__NotPatient()\n      MLOAD \t\t\tContract__NotPatient()\n      DUP1 \t\t\tContract__NotPatient()\n      SWAP2 \t\t\tContract__NotPatient()\n      SUB \t\t\tContract__NotPatient()\n      SWAP1 \t\t\tContract__NotPatient()\n      REVERT \t\t\tContract__NotPatient()\n    tag 244\t\t\tif (!isPatient(msg.sender)) re...\n      JUMPDEST \t\t\tif (!isPatient(msg.sender)) re...\n      PUSH [tag] 246\t\t\tpatients.users.setHash(msg.sen...\n      CALLER \t\t\tmsg.sender\n      DUP3 \t\t\t_hash\n      PUSH B\t\t\tpatients\n      PUSH 0\t\t\tpatients.users\n      ADD \t\t\tpatients.users\n      PUSH [tag] 224\t\t\tpatients.users.setHash\n      SWAP1 \t\t\tpatients.users.setHash\n      SWAP3 \t\t\tpatients.users.setHash(msg.sen...\n      SWAP2 \t\t\tpatients.users.setHash(msg.sen...\n      SWAP1 \t\t\tpatients.users.setHash(msg.sen...\n      PUSH FFFFFFFF\t\t\tpatients.users.setHash(msg.sen...\n      AND \t\t\tpatients.users.setHash(msg.sen...\n      JUMP \t\t\tpatients.users.setHash(msg.sen...\n    tag 246\t\t\tpatients.users.setHash(msg.sen...\n      JUMPDEST \t\t\tpatients.users.setHash(msg.sen...\n      POP \t\t\tfunction setPtGeneralHash(stri...\n      JUMP \t\t\tfunction setPtGeneralHash(stri...\n    tag 95\t\t\tfunction getPatViewers() publi...\n      JUMPDEST \t\t\tfunction getPatViewers() publi...\n      PUSH 60\t\t\taddress[] memory\n      PUSH [tag] 248\t\t\tisPatient(msg.sender)\n      CALLER \t\t\tmsg.sender\n      PUSH [tag] 99\t\t\tisPatient\n      JUMP \t\t\tisPatient(msg.sender)\n    tag 248\t\t\tisPatient(msg.sender)\n      JUMPDEST \t\t\tisPatient(msg.sender)\n      PUSH [tag] 249\t\t\tif (!isPatient(msg.sender)) re...\n      JUMPI \t\t\tif (!isPatient(msg.sender)) re...\n      PUSH 40\t\t\tContract__NotPatient()\n      MLOAD \t\t\tContract__NotPatient()\n      PUSH C11330E600000000000000000000000000000000000000000000000000000000\t\t\tContract__NotPatient()\n      DUP2 \t\t\tContract__NotPatient()\n      MSTORE \t\t\tContract__NotPatient()\n      PUSH 4\t\t\tContract__NotPatient()\n      ADD \t\t\tContract__NotPatient()\n      PUSH 40\t\t\tContract__NotPatient()\n      MLOAD \t\t\tContract__NotPatient()\n      DUP1 \t\t\tContract__NotPatient()\n      SWAP2 \t\t\tContract__NotPatient()\n      SUB \t\t\tContract__NotPatient()\n      SWAP1 \t\t\tContract__NotPatient()\n      REVERT \t\t\tContract__NotPatient()\n    tag 249\t\t\tif (!isPatient(msg.sender)) re...\n      JUMPDEST \t\t\tif (!isPatient(msg.sender)) re...\n      PUSH B\t\t\tpatients\n      PUSH 4\t\t\tpatients.records\n      ADD \t\t\tpatients.records\n      PUSH 0\t\t\tpatients.records[msg.sender]\n      CALLER \t\t\tmsg.sender\n      PUSH FFFFFFFFFFFFFFFFFFFFFFFFFFFFFFFFFFFFFFFF\t\t\tpatients.records[msg.sender]\n      AND \t\t\tpatients.records[msg.sender]\n      PUSH FFFFFFFFFFFFFFFFFFFFFFFFFFFFFFFFFFFFFFFF\t\t\tpatients.records[msg.sender]\n      AND \t\t\tpatients.records[msg.sender]\n      DUP2 \t\t\tpatients.records[msg.sender]\n      MSTORE \t\t\tpatients.records[msg.sender]\n      PUSH 20\t\t\tpatients.records[msg.sender]\n      ADD \t\t\tpatients.records[msg.sender]\n      SWAP1 \t\t\tpatients.records[msg.sender]\n      DUP2 \t\t\tpatients.records[msg.sender]\n      MSTORE \t\t\tpatients.records[msg.sender]\n      PUSH 20\t\t\tpatients.records[msg.sender]\n      ADD \t\t\tpatients.records[msg.sender]\n      PUSH 0\t\t\tpatients.records[msg.sender]\n      KECCAK256 \t\t\tpatients.records[msg.sender]\n      PUSH 1\t\t\tpatients.records[msg.sender].v...\n      ADD \t\t\tpatients.records[msg.sender].v...\n      DUP1 \t\t\treturn patients.records[msg.se...\n      SLOAD \t\t\treturn patients.records[msg.se...\n      DUP1 \t\t\treturn patients.records[msg.se...\n      PUSH 20\t\t\treturn patients.records[msg.se...\n      MUL \t\t\treturn patients.records[msg.se...\n      PUSH 20\t\t\treturn patients.records[msg.se...\n      ADD \t\t\treturn patients.records[msg.se...\n      PUSH 40\t\t\treturn patients.records[msg.se...\n      MLOAD \t\t\treturn patients.records[msg.se...\n      SWAP1 \t\t\treturn patients.records[msg.se...\n      DUP2 \t\t\treturn patients.records[msg.se...\n      ADD \t\t\treturn patients.records[msg.se...\n      PUSH 40\t\t\treturn patients.records[msg.se...\n      MSTORE \t\t\treturn patients.records[msg.se...\n      DUP1 \t\t\treturn patients.records[msg.se...\n      SWAP3 \t\t\treturn patients.records[msg.se...\n      SWAP2 \t\t\treturn patients.records[msg.se...\n      SWAP1 \t\t\treturn patients.records[msg.se...\n      DUP2 \t\t\treturn patients.records[msg.se...\n      DUP2 \t\t\treturn patients.records[msg.se...\n      MSTORE \t\t\treturn patients.records[msg.se...\n      PUSH 20\t\t\treturn patients.records[msg.se...\n      ADD \t\t\treturn patients.records[msg.se...\n      DUP3 \t\t\treturn patients.records[msg.se...\n      DUP1 \t\t\treturn patients.records[msg.se...\n      SLOAD \t\t\treturn patients.records[msg.se...\n      DUP1 \t\t\treturn patients.records[msg.se...\n      ISZERO \t\t\treturn patients.records[msg.se...\n      PUSH [tag] 251\t\t\treturn patients.records[msg.se...\n      JUMPI \t\t\treturn patients.records[msg.se...\n      PUSH 20\t\t\treturn patients.records[msg.se...\n      MUL \t\t\treturn patients.records[msg.se...\n      DUP3 \t\t\treturn patients.records[msg.se...\n      ADD \t\t\treturn patients.records[msg.se...\n      SWAP2 \t\t\treturn patients.records[msg.se...\n      SWAP1 \t\t\treturn patients.records[msg.se...\n      PUSH 0\t\t\treturn patients.records[msg.se...\n      MSTORE \t\t\treturn patients.records[msg.se...\n      PUSH 20\t\t\treturn patients.records[msg.se...\n      PUSH 0\t\t\treturn patients.records[msg.se...\n      KECCAK256 \t\t\treturn patients.records[msg.se...\n      SWAP1 \t\t\treturn patients.records[msg.se...\n    tag 252\t\t\treturn patients.records[msg.se...\n      JUMPDEST \t\t\treturn patients.records[msg.se...\n      DUP2 \t\t\treturn patients.records[msg.se...\n      PUSH 0\t\t\treturn patients.records[msg.se...\n      SWAP1 \t\t\treturn patients.records[msg.se...\n      SLOAD \t\t\treturn patients.records[msg.se...\n      SWAP1 \t\t\treturn patients.records[msg.se...\n      PUSH 100\t\t\treturn patients.records[msg.se...\n      EXP \t\t\treturn patients.records[msg.se...\n      SWAP1 \t\t\treturn patients.records[msg.se...\n      DIV \t\t\treturn patients.records[msg.se...\n      PUSH FFFFFFFFFFFFFFFFFFFFFFFFFFFFFFFFFFFFFFFF\t\t\treturn patients.records[msg.se...\n      AND \t\t\treturn patients.records[msg.se...\n      PUSH FFFFFFFFFFFFFFFFFFFFFFFFFFFFFFFFFFFFFFFF\t\t\treturn patients.records[msg.se...\n      AND \t\t\treturn patients.records[msg.se...\n      DUP2 \t\t\treturn patients.records[msg.se...\n      MSTORE \t\t\treturn patients.records[msg.se...\n      PUSH 20\t\t\treturn patients.records[msg.se...\n      ADD \t\t\treturn patients.records[msg.se...\n      SWAP1 \t\t\treturn patients.records[msg.se...\n      PUSH 1\t\t\treturn patients.records[msg.se...\n      ADD \t\t\treturn patients.records[msg.se...\n      SWAP1 \t\t\treturn patients.records[msg.se...\n      DUP1 \t\t\treturn patients.records[msg.se...\n      DUP4 \t\t\treturn patients.records[msg.se...\n      GT \t\t\treturn patients.records[msg.se...\n      PUSH [tag] 252\t\t\treturn patients.records[msg.se...\n      JUMPI \t\t\treturn patients.records[msg.se...\n    tag 251\t\t\treturn patients.records[msg.se...\n      JUMPDEST \t\t\treturn patients.records[msg.se...\n      POP \t\t\treturn patients.records[msg.se...\n      POP \t\t\treturn patients.records[msg.se...\n      POP \t\t\treturn patients.records[msg.se...\n      POP \t\t\treturn patients.records[msg.se...\n      POP \t\t\treturn patients.records[msg.se...\n      SWAP1 \t\t\treturn patients.records[msg.se...\n      POP \t\t\treturn patients.records[msg.se...\n      SWAP1 \t\t\tfunction getPatViewers() publi...\n      JUMP \t\t\tfunction getPatViewers() publi...\n    tag 99\t\t\tfunction isPatient(address _ad...\n      JUMPDEST \t\t\tfunction isPatient(address _ad...\n      PUSH 0\t\t\tbool\n      PUSH [tag] 254\t\t\tpatients.users.has(_address)\n      DUP3 \t\t\t_address\n      PUSH B\t\t\tpatients\n      PUSH 0\t\t\tpatients.users\n      ADD \t\t\tpatients.users\n      PUSH [tag] 155\t\t\tpatients.users.has\n      SWAP1 \t\t\tpatients.users.has\n      SWAP2 \t\t\tpatients.users.has(_address)\n      SWAP1 \t\t\tpatients.users.has(_address)\n      PUSH FFFFFFFF\t\t\tpatients.users.has(_address)\n      AND \t\t\tpatients.users.has(_address)\n      JUMP \t\t\tpatients.users.has(_address)\n    tag 254\t\t\tpatients.users.has(_address)\n      JUMPDEST \t\t\tpatients.users.has(_address)\n      SWAP1 \t\t\treturn patients.users.has(_add...\n      POP \t\t\treturn patients.users.has(_add...\n      SWAP2 \t\t\tfunction isPatient(address _ad...\n      SWAP1 \t\t\tfunction isPatient(address _ad...\n      POP \t\t\tfunction isPatient(address _ad...\n      JUMP \t\t\tfunction isPatient(address _ad...\n    tag 103\t\t\tfunction isDoctor(address _add...\n      JUMPDEST \t\t\tfunction isDoctor(address _add...\n      PUSH 0\t\t\tbool\n      PUSH [tag] 256\t\t\tdoctors.users.has(_address)\n      DUP3 \t\t\t_address\n      PUSH 5\t\t\tdoctors\n      PUSH 0\t\t\tdoctors.users\n      ADD \t\t\tdoctors.users\n      PUSH [tag] 155\t\t\tdoctors.users.has\n      SWAP1 \t\t\tdoctors.users.has\n      SWAP2 \t\t\tdoctors.users.has(_address)\n      SWAP1 \t\t\tdoctors.users.has(_address)\n      PUSH FFFFFFFF\t\t\tdoctors.users.has(_address)\n      AND \t\t\tdoctors.users.has(_address)\n      JUMP \t\t\tdoctors.users.has(_address)\n    tag 256\t\t\tdoctors.users.has(_address)\n      JUMPDEST \t\t\tdoctors.users.has(_address)\n      PUSH [tag] 257\t\t\tif (!doctors.users.has(_addres...\n      JUMPI \t\t\tif (!doctors.users.has(_addres...\n      PUSH 0\t\t\tfalse\n      SWAP1 \t\t\treturn false\n      POP \t\t\treturn false\n      PUSH [tag] 255\t\t\treturn false\n      JUMP \t\t\treturn false\n    tag 257\t\t\tif (!doctors.users.has(_addres...\n      JUMPDEST \t\t\tif (!doctors.users.has(_addres...\n      PUSH [tag] 258\t\t\tadmin.pending_doctors.get(_add...\n      DUP3 \t\t\t_address\n      PUSH 0\t\t\tadmin\n      PUSH 2\t\t\tadmin.pending_doctors\n      ADD \t\t\tadmin.pending_doctors\n      PUSH [tag] 229\t\t\tadmin.pending_doctors.get\n      SWAP1 \t\t\tadmin.pending_doctors.get\n      SWAP2 \t\t\tadmin.pending_doctors.get(_add...\n      SWAP1 \t\t\tadmin.pending_doctors.get(_add...\n      PUSH FFFFFFFF\t\t\tadmin.pending_doctors.get(_add...\n      AND \t\t\tadmin.pending_doctors.get(_add...\n      JUMP \t\t\tadmin.pending_doctors.get(_add...\n    tag 258\t\t\tadmin.pending_doctors.get(_add...\n      JUMPDEST \t\t\tadmin.pending_doctors.get(_add...\n      ISZERO \t\t\tif (admin.pending_doctors.get(...\n      PUSH [tag] 259\t\t\tif (admin.pending_doctors.get(...\n      JUMPI \t\t\tif (admin.pending_doctors.get(...\n      PUSH 0\t\t\tfalse\n      SWAP1 \t\t\treturn false\n      POP \t\t\treturn false\n      PUSH [tag] 255\t\t\treturn false\n      JUMP \t\t\treturn false\n    tag 259\t\t\tif (admin.pending_doctors.get(...\n      JUMPDEST \t\t\tif (admin.pending_doctors.get(...\n      PUSH 0\t\t\t0\n      PUSH 5\t\t\tdoctors\n      PUSH 4\t\t\tdoctors.public_keys\n      ADD \t\t\tdoctors.public_keys\n      PUSH 0\t\t\tdoctors.public_keys[_address]\n      DUP5 \t\t\t_address\n      PUSH FFFFFFFFFFFFFFFFFFFFFFFFFFFFFFFFFFFFFFFF\t\t\tdoctors.public_keys[_address]\n      AND \t\t\tdoctors.public_keys[_address]\n      PUSH FFFFFFFFFFFFFFFFFFFFFFFFFFFFFFFFFFFFFFFF\t\t\tdoctors.public_keys[_address]\n      AND \t\t\tdoctors.public_keys[_address]\n      DUP2 \t\t\tdoctors.public_keys[_address]\n      MSTORE \t\t\tdoctors.public_keys[_address]\n      PUSH 20\t\t\tdoctors.public_keys[_address]\n      ADD \t\t\tdoctors.public_keys[_address]\n      SWAP1 \t\t\tdoctors.public_keys[_address]\n      DUP2 \t\t\tdoctors.public_keys[_address]\n      MSTORE \t\t\tdoctors.public_keys[_address]\n      PUSH 20\t\t\tdoctors.public_keys[_address]\n      ADD \t\t\tdoctors.public_keys[_address]\n      PUSH 0\t\t\tdoctors.public_keys[_address]\n      KECCAK256 \t\t\tdoctors.public_keys[_address]\n      DUP1 \t\t\tbytes(doctors.public_keys[_add...\n      SLOAD \t\t\tbytes(doctors.public_keys[_add...\n      PUSH [tag] 260\t\t\tbytes(doctors.public_keys[_add...\n      SWAP1 \t\t\tbytes(doctors.public_keys[_add...\n      PUSH [tag] 161\t\t\tbytes(doctors.public_keys[_add...\n      JUMP \t\t\tbytes(doctors.public_keys[_add...\n    tag 260\t\t\tbytes(doctors.public_keys[_add...\n      JUMPDEST \t\t\tbytes(doctors.public_keys[_add...\n      SWAP1 \t\t\tbytes(doctors.public_keys[_add...\n      POP \t\t\tbytes(doctors.public_keys[_add...\n      SUB \t\t\tbytes(doctors.public_keys[_add...\n      PUSH [tag] 261\t\t\tif (bytes(doctors.public_keys[...\n      JUMPI \t\t\tif (bytes(doctors.public_keys[...\n      PUSH 0\t\t\tfalse\n      SWAP1 \t\t\treturn false\n      POP \t\t\treturn false\n      PUSH [tag] 255\t\t\treturn false\n      JUMP \t\t\treturn false\n    tag 261\t\t\tif (bytes(doctors.public_keys[...\n      JUMPDEST \t\t\tif (bytes(doctors.public_keys[...\n      PUSH 1\t\t\ttrue\n      SWAP1 \t\t\treturn true\n      POP \t\t\treturn true\n    tag 255\t\t\tfunction isDoctor(address _add...\n      JUMPDEST \t\t\tfunction isDoctor(address _add...\n      SWAP2 \t\t\tfunction isDoctor(address _add...\n      SWAP1 \t\t\tfunction isDoctor(address _add...\n      POP \t\t\tfunction isDoctor(address _add...\n      JUMP \t\t\tfunction isDoctor(address _add...\n    tag 107\t\t\tfunction setDrHash(string memo...\n      JUMPDEST \t\t\tfunction setDrHash(string memo...\n      PUSH [tag] 263\t\t\tdoctors.users.has(msg.sender)\n      CALLER \t\t\tmsg.sender\n      PUSH 5\t\t\tdoctors\n      PUSH 0\t\t\tdoctors.users\n      ADD \t\t\tdoctors.users\n      PUSH [tag] 155\t\t\tdoctors.users.has\n      SWAP1 \t\t\tdoctors.users.has\n      SWAP2 \t\t\tdoctors.users.has(msg.sender)\n      SWAP1 \t\t\tdoctors.users.has(msg.sender)\n      PUSH FFFFFFFF\t\t\tdoctors.users.has(msg.sender)\n      AND \t\t\tdoctors.users.has(msg.sender)\n      JUMP \t\t\tdoctors.users.has(msg.sender)\n    tag 263\t\t\tdoctors.users.has(msg.sender)\n      JUMPDEST \t\t\tdoctors.users.has(msg.sender)\n      PUSH [tag] 264\t\t\tif (!doctors.users.has(msg.sen...\n      JUMPI \t\t\tif (!doctors.users.has(msg.sen...\n      PUSH 40\t\t\tContract__NotDoctor()\n      MLOAD \t\t\tContract__NotDoctor()\n      PUSH FE2FC9C600000000000000000000000000000000000000000000000000000000\t\t\tContract__NotDoctor()\n      DUP2 \t\t\tContract__NotDoctor()\n      MSTORE \t\t\tContract__NotDoctor()\n      PUSH 4\t\t\tContract__NotDoctor()\n      ADD \t\t\tContract__NotDoctor()\n      PUSH 40\t\t\tContract__NotDoctor()\n      MLOAD \t\t\tContract__NotDoctor()\n      DUP1 \t\t\tContract__NotDoctor()\n      SWAP2 \t\t\tContract__NotDoctor()\n      SUB \t\t\tContract__NotDoctor()\n      SWAP1 \t\t\tContract__NotDoctor()\n      REVERT \t\t\tContract__NotDoctor()\n    tag 264\t\t\tif (!doctors.users.has(msg.sen...\n      JUMPDEST \t\t\tif (!doctors.users.has(msg.sen...\n      PUSH [tag] 265\t\t\tadmin.pending_doctors.get(msg....\n      CALLER \t\t\tmsg.sender\n      PUSH 0\t\t\tadmin\n      PUSH 2\t\t\tadmin.pending_doctors\n      ADD \t\t\tadmin.pending_doctors\n      PUSH [tag] 229\t\t\tadmin.pending_doctors.get\n      SWAP1 \t\t\tadmin.pending_doctors.get\n      SWAP2 \t\t\tadmin.pending_doctors.get(msg....\n      SWAP1 \t\t\tadmin.pending_doctors.get(msg....\n      PUSH FFFFFFFF\t\t\tadmin.pending_doctors.get(msg....\n      AND \t\t\tadmin.pending_doctors.get(msg....\n      JUMP \t\t\tadmin.pending_doctors.get(msg....\n    tag 265\t\t\tadmin.pending_doctors.get(msg....\n      JUMPDEST \t\t\tadmin.pending_doctors.get(msg....\n      ISZERO \t\t\tif (admin.pending_doctors.get(...\n      PUSH [tag] 266\t\t\tif (admin.pending_doctors.get(...\n      JUMPI \t\t\tif (admin.pending_doctors.get(...\n      PUSH 40\t\t\tContract__PendingDoctorApprova...\n      MLOAD \t\t\tContract__PendingDoctorApprova...\n      PUSH F873D3B700000000000000000000000000000000000000000000000000000000\t\t\tContract__PendingDoctorApprova...\n      DUP2 \t\t\tContract__PendingDoctorApprova...\n      MSTORE \t\t\tContract__PendingDoctorApprova...\n      PUSH 4\t\t\tContract__PendingDoctorApprova...\n      ADD \t\t\tContract__PendingDoctorApprova...\n      PUSH 40\t\t\tContract__PendingDoctorApprova...\n      MLOAD \t\t\tContract__PendingDoctorApprova...\n      DUP1 \t\t\tContract__PendingDoctorApprova...\n      SWAP2 \t\t\tContract__PendingDoctorApprova...\n      SUB \t\t\tContract__PendingDoctorApprova...\n      SWAP1 \t\t\tContract__PendingDoctorApprova...\n      REVERT \t\t\tContract__PendingDoctorApprova...\n    tag 266\t\t\tif (admin.pending_doctors.get(...\n      JUMPDEST \t\t\tif (admin.pending_doctors.get(...\n      PUSH 0\t\t\t0\n      PUSH 5\t\t\tdoctors\n      PUSH 4\t\t\tdoctors.public_keys\n      ADD \t\t\tdoctors.public_keys\n      PUSH 0\t\t\tdoctors.public_keys[msg.sender...\n      CALLER \t\t\tmsg.sender\n      PUSH FFFFFFFFFFFFFFFFFFFFFFFFFFFFFFFFFFFFFFFF\t\t\tdoctors.public_keys[msg.sender...\n      AND \t\t\tdoctors.public_keys[msg.sender...\n      PUSH FFFFFFFFFFFFFFFFFFFFFFFFFFFFFFFFFFFFFFFF\t\t\tdoctors.public_keys[msg.sender...\n      AND \t\t\tdoctors.public_keys[msg.sender...\n      DUP2 \t\t\tdoctors.public_keys[msg.sender...\n      MSTORE \t\t\tdoctors.public_keys[msg.sender...\n      PUSH 20\t\t\tdoctors.public_keys[msg.sender...\n      ADD \t\t\tdoctors.public_keys[msg.sender...\n      SWAP1 \t\t\tdoctors.public_keys[msg.sender...\n      DUP2 \t\t\tdoctors.public_keys[msg.sender...\n      MSTORE \t\t\tdoctors.public_keys[msg.sender...\n      PUSH 20\t\t\tdoctors.public_keys[msg.sender...\n      ADD \t\t\tdoctors.public_keys[msg.sender...\n      PUSH 0\t\t\tdoctors.public_keys[msg.sender...\n      KECCAK256 \t\t\tdoctors.public_keys[msg.sender...\n      DUP1 \t\t\tbytes(doctors.public_keys[msg....\n      SLOAD \t\t\tbytes(doctors.public_keys[msg....\n      PUSH [tag] 267\t\t\tbytes(doctors.public_keys[msg....\n      SWAP1 \t\t\tbytes(doctors.public_keys[msg....\n      PUSH [tag] 161\t\t\tbytes(doctors.public_keys[msg....\n      JUMP \t\t\tbytes(doctors.public_keys[msg....\n    tag 267\t\t\tbytes(doctors.public_keys[msg....\n      JUMPDEST \t\t\tbytes(doctors.public_keys[msg....\n      SWAP1 \t\t\tbytes(doctors.public_keys[msg....\n      POP \t\t\tbytes(doctors.public_keys[msg....\n      SUB \t\t\tbytes(doctors.public_keys[msg....\n      PUSH [tag] 268\t\t\tif (bytes(doctors.public_keys[...\n      JUMPI \t\t\tif (bytes(doctors.public_keys[...\n      PUSH 40\t\t\tContract__DoctorPublicKeyMissi...\n      MLOAD \t\t\tContract__DoctorPublicKeyMissi...\n      PUSH A30132D500000000000000000000000000000000000000000000000000000000\t\t\tContract__DoctorPublicKeyMissi...\n      DUP2 \t\t\tContract__DoctorPublicKeyMissi...\n      MSTORE \t\t\tContract__DoctorPublicKeyMissi...\n      PUSH 4\t\t\tContract__DoctorPublicKeyMissi...\n      ADD \t\t\tContract__DoctorPublicKeyMissi...\n      PUSH 40\t\t\tContract__DoctorPublicKeyMissi...\n      MLOAD \t\t\tContract__DoctorPublicKeyMissi...\n      DUP1 \t\t\tContract__DoctorPublicKeyMissi...\n      SWAP2 \t\t\tContract__DoctorPublicKeyMissi...\n      SUB \t\t\tContract__DoctorPublicKeyMissi...\n      SWAP1 \t\t\tContract__DoctorPublicKeyMissi...\n      REVERT \t\t\tContract__DoctorPublicKeyMissi...\n    tag 268\t\t\tif (bytes(doctors.public_keys[...\n      JUMPDEST \t\t\tif (bytes(doctors.public_keys[...\n      PUSH 0\t\t\t0\n      DUP2 \t\t\t_hash\n      MLOAD \t\t\tbytes(_hash).length\n      SUB \t\t\tbytes(_hash).length == 0\n      PUSH [tag] 270\t\t\tif (bytes(_hash).length == 0) ...\n      JUMPI \t\t\tif (bytes(_hash).length == 0) ...\n      PUSH 40\t\t\trevert(\"Contract: Empty hash i...\n      MLOAD \t\t\trevert(\"Contract: Empty hash i...\n      PUSH 8C379A000000000000000000000000000000000000000000000000000000000\t\t\trevert(\"Contract: Empty hash i...\n      DUP2 \t\t\trevert(\"Contract: Empty hash i...\n      MSTORE \t\t\trevert(\"Contract: Empty hash i...\n      PUSH 4\t\t\trevert(\"Contract: Empty hash i...\n      ADD \t\t\trevert(\"Contract: Empty hash i...\n      PUSH [tag] 271\t\t\trevert(\"Contract: Empty hash i...\n      SWAP1 \t\t\trevert(\"Contract: Empty hash i...\n      PUSH [tag] 272\t\t\trevert(\"Contract: Empty hash i...\n      JUMP \t\t\trevert(\"Contract: Empty hash i...\n    tag 271\t\t\trevert(\"Contract: Empty hash i...\n      JUMPDEST \t\t\trevert(\"Contract: Empty hash i...\n      PUSH 40\t\t\trevert(\"Contract: Empty hash i...\n      MLOAD \t\t\trevert(\"Contract: Empty hash i...\n      DUP1 \t\t\trevert(\"Contract: Empty hash i...\n      SWAP2 \t\t\trevert(\"Contract: Empty hash i...\n      SUB \t\t\trevert(\"Contract: Empty hash i...\n      SWAP1 \t\t\trevert(\"Contract: Empty hash i...\n      REVERT \t\t\trevert(\"Contract: Empty hash i...\n    tag 270\t\t\tif (bytes(_hash).length == 0) ...\n      JUMPDEST \t\t\tif (bytes(_hash).length == 0) ...\n      PUSH [tag] 273\t\t\tdoctors.users.setHash(msg.send...\n      CALLER \t\t\tmsg.sender\n      DUP3 \t\t\t_hash\n      PUSH 5\t\t\tdoctors\n      PUSH 0\t\t\tdoctors.users\n      ADD \t\t\tdoctors.users\n      PUSH [tag] 224\t\t\tdoctors.users.setHash\n      SWAP1 \t\t\tdoctors.users.setHash\n      SWAP3 \t\t\tdoctors.users.setHash(msg.send...\n      SWAP2 \t\t\tdoctors.users.setHash(msg.send...\n      SWAP1 \t\t\tdoctors.users.setHash(msg.send...\n      PUSH FFFFFFFF\t\t\tdoctors.users.setHash(msg.send...\n      AND \t\t\tdoctors.users.setHash(msg.send...\n      JUMP \t\t\tdoctors.users.setHash(msg.send...\n    tag 273\t\t\tdoctors.users.setHash(msg.send...\n      JUMPDEST \t\t\tdoctors.users.setHash(msg.send...\n      POP \t\t\tfunction setDrHash(string memo...\n      JUMP \t\t\tfunction setDrHash(string memo...\n    tag 110\t\t\tfunction registerPt(string mem...\n      JUMPDEST \t\t\tfunction registerPt(string mem...\n      PUSH [tag] 275\t\t\tisDrRegistered(msg.sender)\n      CALLER \t\t\tmsg.sender\n      PUSH [tag] 63\t\t\tisDrRegistered\n      JUMP \t\t\tisDrRegistered(msg.sender)\n    tag 275\t\t\tisDrRegistered(msg.sender)\n      JUMPDEST \t\t\tisDrRegistered(msg.sender)\n      DUP1 \t\t\tisDrRegistered(msg.sender) || ...\n      PUSH [tag] 276\t\t\tisDrRegistered(msg.sender) || ...\n      JUMPI \t\t\tisDrRegistered(msg.sender) || ...\n      POP \t\t\tisDrRegistered(msg.sender) || ...\n      PUSH [tag] 277\t\t\tisDoctor(msg.sender)\n      CALLER \t\t\tmsg.sender\n      PUSH [tag] 103\t\t\tisDoctor\n      JUMP \t\t\tisDoctor(msg.sender)\n    tag 277\t\t\tisDoctor(msg.sender)\n      JUMPDEST \t\t\tisDoctor(msg.sender)\n    tag 276\t\t\tisDrRegistered(msg.sender) || ...\n      JUMPDEST \t\t\tisDrRegistered(msg.sender) || ...\n      ISZERO \t\t\tif (isDrRegistered(msg.sender)...\n      PUSH [tag] 278\t\t\tif (isDrRegistered(msg.sender)...\n      JUMPI \t\t\tif (isDrRegistered(msg.sender)...\n      PUSH 40\t\t\trevert(\"Contract: Address alre...\n      MLOAD \t\t\trevert(\"Contract: Address alre...\n      PUSH 8C379A000000000000000000000000000000000000000000000000000000000\t\t\trevert(\"Contract: Address alre...\n      DUP2 \t\t\trevert(\"Contract: Address alre...\n      MSTORE \t\t\trevert(\"Contract: Address alre...\n      PUSH 4\t\t\trevert(\"Contract: Address alre...\n      ADD \t\t\trevert(\"Contract: Address alre...\n      PUSH [tag] 279\t\t\trevert(\"Contract: Address alre...\n      SWAP1 \t\t\trevert(\"Contract: Address alre...\n      PUSH [tag] 280\t\t\trevert(\"Contract: Address alre...\n      JUMP \t\t\trevert(\"Contract: Address alre...\n    tag 279\t\t\trevert(\"Contract: Address alre...\n      JUMPDEST \t\t\trevert(\"Contract: Address alre...\n      PUSH 40\t\t\trevert(\"Contract: Address alre...\n      MLOAD \t\t\trevert(\"Contract: Address alre...\n      DUP1 \t\t\trevert(\"Contract: Address alre...\n      SWAP2 \t\t\trevert(\"Contract: Address alre...\n      SUB \t\t\trevert(\"Contract: Address alre...\n      SWAP1 \t\t\trevert(\"Contract: Address alre...\n      REVERT \t\t\trevert(\"Contract: Address alre...\n    tag 278\t\t\tif (isDrRegistered(msg.sender)...\n      JUMPDEST \t\t\tif (isDrRegistered(msg.sender)...\n      PUSH 0\t\t\t0\n      DUP3 \t\t\t_hash\n      MLOAD \t\t\tbytes(_hash).length\n      SUB \t\t\tbytes(_hash).length == 0\n      PUSH [tag] 281\t\t\tif (bytes(_hash).length == 0) ...\n      JUMPI \t\t\tif (bytes(_hash).length == 0) ...\n      PUSH 40\t\t\trevert(\"Contract: Empty hash i...\n      MLOAD \t\t\trevert(\"Contract: Empty hash i...\n      PUSH 8C379A000000000000000000000000000000000000000000000000000000000\t\t\trevert(\"Contract: Empty hash i...\n      DUP2 \t\t\trevert(\"Contract: Empty hash i...\n      MSTORE \t\t\trevert(\"Contract: Empty hash i...\n      PUSH 4\t\t\trevert(\"Contract: Empty hash i...\n      ADD \t\t\trevert(\"Contract: Empty hash i...\n      PUSH [tag] 282\t\t\trevert(\"Contract: Empty hash i...\n      SWAP1 \t\t\trevert(\"Contract: Empty hash i...\n      PUSH [tag] 184\t\t\trevert(\"Contract: Empty hash i...\n      JUMP \t\t\trevert(\"Contract: Empty hash i...\n    tag 282\t\t\trevert(\"Contract: Empty hash i...\n      JUMPDEST \t\t\trevert(\"Contract: Empty hash i...\n      PUSH 40\t\t\trevert(\"Contract: Empty hash i...\n      MLOAD \t\t\trevert(\"Contract: Empty hash i...\n      DUP1 \t\t\trevert(\"Contract: Empty hash i...\n      SWAP2 \t\t\trevert(\"Contract: Empty hash i...\n      SUB \t\t\trevert(\"Contract: Empty hash i...\n      SWAP1 \t\t\trevert(\"Contract: Empty hash i...\n      REVERT \t\t\trevert(\"Contract: Empty hash i...\n    tag 281\t\t\tif (bytes(_hash).length == 0) ...\n      JUMPDEST \t\t\tif (bytes(_hash).length == 0) ...\n      PUSH [tag] 283\t\t\tpatients.users.add(msg.sender,...\n      CALLER \t\t\tmsg.sender\n      DUP4 \t\t\t_hash\n      PUSH B\t\t\tpatients\n      PUSH 0\t\t\tpatients.users\n      ADD \t\t\tpatients.users\n      PUSH [tag] 186\t\t\tpatients.users.add\n      SWAP1 \t\t\tpatients.users.add\n      SWAP3 \t\t\tpatients.users.add(msg.sender,...\n      SWAP2 \t\t\tpatients.users.add(msg.sender,...\n      SWAP1 \t\t\tpatients.users.add(msg.sender,...\n      PUSH FFFFFFFF\t\t\tpatients.users.add(msg.sender,...\n      AND \t\t\tpatients.users.add(msg.sender,...\n      JUMP \t\t\tpatients.users.add(msg.sender,...\n    tag 283\t\t\tpatients.users.add(msg.sender,...\n      JUMPDEST \t\t\tpatients.users.add(msg.sender,...\n      CALLER \t\t\tmsg.sender\n      PUSH B\t\t\tpatients\n      PUSH 4\t\t\tpatients.records\n      ADD \t\t\tpatients.records\n      PUSH 0\t\t\tpatients.records[msg.sender]\n      CALLER \t\t\tmsg.sender\n      PUSH FFFFFFFFFFFFFFFFFFFFFFFFFFFFFFFFFFFFFFFF\t\t\tpatients.records[msg.sender]\n      AND \t\t\tpatients.records[msg.sender]\n      PUSH FFFFFFFFFFFFFFFFFFFFFFFFFFFFFFFFFFFFFFFF\t\t\tpatients.records[msg.sender]\n      AND \t\t\tpatients.records[msg.sender]\n      DUP2 \t\t\tpatients.records[msg.sender]\n      MSTORE \t\t\tpatients.records[msg.sender]\n      PUSH 20\t\t\tpatients.records[msg.sender]\n      ADD \t\t\tpatients.records[msg.sender]\n      SWAP1 \t\t\tpatients.records[msg.sender]\n      DUP2 \t\t\tpatients.records[msg.sender]\n      MSTORE \t\t\tpatients.records[msg.sender]\n      PUSH 20\t\t\tpatients.records[msg.sender]\n      ADD \t\t\tpatients.records[msg.sender]\n      PUSH 0\t\t\tpatients.records[msg.sender]\n      KECCAK256 \t\t\tpatients.records[msg.sender]\n      PUSH 0\t\t\tpatients.records[msg.sender].e...\n      ADD \t\t\tpatients.records[msg.sender].e...\n      PUSH 0\t\t\tpatients.records[msg.sender].e...\n      PUSH 100\t\t\tpatients.records[msg.sender].e...\n      EXP \t\t\tpatients.records[msg.sender].e...\n      DUP2 \t\t\tpatients.records[msg.sender].e...\n      SLOAD \t\t\tpatients.records[msg.sender].e...\n      DUP2 \t\t\tpatients.records[msg.sender].e...\n      PUSH FFFFFFFFFFFFFFFFFFFFFFFFFFFFFFFFFFFFFFFF\t\t\tpatients.records[msg.sender].e...\n      MUL \t\t\tpatients.records[msg.sender].e...\n      NOT \t\t\tpatients.records[msg.sender].e...\n      AND \t\t\tpatients.records[msg.sender].e...\n      SWAP1 \t\t\tpatients.records[msg.sender].e...\n      DUP4 \t\t\tpatients.records[msg.sender].e...\n      PUSH FFFFFFFFFFFFFFFFFFFFFFFFFFFFFFFFFFFFFFFF\t\t\tpatients.records[msg.sender].e...\n      AND \t\t\tpatients.records[msg.sender].e...\n      MUL \t\t\tpatients.records[msg.sender].e...\n      OR \t\t\tpatients.records[msg.sender].e...\n      SWAP1 \t\t\tpatients.records[msg.sender].e...\n      SSTORE \t\t\tpatients.records[msg.sender].e...\n      POP \t\t\tpatients.records[msg.sender].e...\n      DUP1 \t\t\t_key_data_hash\n      PUSH B\t\t\tpatients\n      PUSH 4\t\t\tpatients.records\n      ADD \t\t\tpatients.records\n      PUSH 0\t\t\tpatients.records[msg.sender]\n      CALLER \t\t\tmsg.sender\n      PUSH FFFFFFFFFFFFFFFFFFFFFFFFFFFFFFFFFFFFFFFF\t\t\tpatients.records[msg.sender]\n      AND \t\t\tpatients.records[msg.sender]\n      PUSH FFFFFFFFFFFFFFFFFFFFFFFFFFFFFFFFFFFFFFFF\t\t\tpatients.records[msg.sender]\n      AND \t\t\tpatients.records[msg.sender]\n      DUP2 \t\t\tpatients.records[msg.sender]\n      MSTORE \t\t\tpatients.records[msg.sender]\n      PUSH 20\t\t\tpatients.records[msg.sender]\n      ADD \t\t\tpatients.records[msg.sender]\n      SWAP1 \t\t\tpatients.records[msg.sender]\n      DUP2 \t\t\tpatients.records[msg.sender]\n      MSTORE \t\t\tpatients.records[msg.sender]\n      PUSH 20\t\t\tpatients.records[msg.sender]\n      ADD \t\t\tpatients.records[msg.sender]\n      PUSH 0\t\t\tpatients.records[msg.sender]\n      KECCAK256 \t\t\tpatients.records[msg.sender]\n      PUSH 2\t\t\tpatients.records[msg.sender].k...\n      ADD \t\t\tpatients.records[msg.sender].k...\n      SWAP1 \t\t\tpatients.records[msg.sender].k...\n      DUP2 \t\t\tpatients.records[msg.sender].k...\n      PUSH [tag] 284\t\t\tpatients.records[msg.sender].k...\n      SWAP2 \t\t\tpatients.records[msg.sender].k...\n      SWAP1 \t\t\tpatients.records[msg.sender].k...\n      PUSH [tag] 226\t\t\tpatients.records[msg.sender].k...\n      JUMP \t\t\tpatients.records[msg.sender].k...\n    tag 284\t\t\tpatients.records[msg.sender].k...\n      JUMPDEST \t\t\tpatients.records[msg.sender].k...\n      POP \t\t\tpatients.records[msg.sender].k...\n      POP \t\t\tfunction registerPt(string mem...\n      POP \t\t\tfunction registerPt(string mem...\n      JUMP \t\t\tfunction registerPt(string mem...\n    tag 112\t\t\tfunction getAllPts() public vi...\n      JUMPDEST \t\t\tfunction getAllPts() public vi...\n      PUSH 60\t\t\taddress[] memory\n      PUSH [tag] 286\t\t\tpatients.users.getMembers()\n      PUSH B\t\t\tpatients\n      PUSH 0\t\t\tpatients.users\n      ADD \t\t\tpatients.users\n      PUSH [tag] 168\t\t\tpatients.users.getMembers\n      JUMP \t\t\tpatients.users.getMembers()\n    tag 286\t\t\tpatients.users.getMembers()\n      JUMPDEST \t\t\tpatients.users.getMembers()\n      SWAP1 \t\t\treturn patients.users.getMembe...\n      POP \t\t\treturn patients.users.getMembe...\n      SWAP1 \t\t\tfunction getAllPts() public vi...\n      JUMP \t\t\tfunction getAllPts() public vi...\n    tag 116\t\t\tfunction setAdminPubKey(string...\n      JUMPDEST \t\t\tfunction setAdminPubKey(string...\n      PUSH [tag] 288\t\t\tisAdmin(msg.sender)\n      CALLER \t\t\tmsg.sender\n      PUSH [tag] 58\t\t\tisAdmin\n      JUMP \t\t\tisAdmin(msg.sender)\n    tag 288\t\t\tisAdmin(msg.sender)\n      JUMPDEST \t\t\tisAdmin(msg.sender)\n      PUSH [tag] 289\t\t\tif (!isAdmin(msg.sender)) reve...\n      JUMPI \t\t\tif (!isAdmin(msg.sender)) reve...\n      PUSH 40\t\t\tContract__NotAdmin()\n      MLOAD \t\t\tContract__NotAdmin()\n      PUSH 4D371DC700000000000000000000000000000000000000000000000000000000\t\t\tContract__NotAdmin()\n      DUP2 \t\t\tContract__NotAdmin()\n      MSTORE \t\t\tContract__NotAdmin()\n      PUSH 4\t\t\tContract__NotAdmin()\n      ADD \t\t\tContract__NotAdmin()\n      PUSH 40\t\t\tContract__NotAdmin()\n      MLOAD \t\t\tContract__NotAdmin()\n      DUP1 \t\t\tContract__NotAdmin()\n      SWAP2 \t\t\tContract__NotAdmin()\n      SUB \t\t\tContract__NotAdmin()\n      SWAP1 \t\t\tContract__NotAdmin()\n      REVERT \t\t\tContract__NotAdmin()\n    tag 289\t\t\tif (!isAdmin(msg.sender)) reve...\n      JUMPDEST \t\t\tif (!isAdmin(msg.sender)) reve...\n      DUP1 \t\t\t_public_key\n      PUSH 0\t\t\tadmin\n      PUSH 1\t\t\tadmin.public_key\n      ADD \t\t\tadmin.public_key\n      SWAP1 \t\t\tadmin.public_key = _public_key\n      DUP2 \t\t\tadmin.public_key = _public_key\n      PUSH [tag] 291\t\t\tadmin.public_key = _public_key\n      SWAP2 \t\t\tadmin.public_key = _public_key\n      SWAP1 \t\t\tadmin.public_key = _public_key\n      PUSH [tag] 226\t\t\tadmin.public_key = _public_key\n      JUMP \t\t\tadmin.public_key = _public_key\n    tag 291\t\t\tadmin.public_key = _public_key\n      JUMPDEST \t\t\tadmin.public_key = _public_key\n      POP \t\t\tadmin.public_key = _public_key\n      POP \t\t\tfunction setAdminPubKey(string...\n      JUMP \t\t\tfunction setAdminPubKey(string...\n    tag 119\t\t\tfunction grantViewerAccess(add...\n      JUMPDEST \t\t\tfunction grantViewerAccess(add...\n      PUSH [tag] 293\t\t\tisPatient(msg.sender)\n      CALLER \t\t\tmsg.sender\n      PUSH [tag] 99\t\t\tisPatient\n      JUMP \t\t\tisPatient(msg.sender)\n    tag 293\t\t\tisPatient(msg.sender)\n      JUMPDEST \t\t\tisPatient(msg.sender)\n      PUSH [tag] 294\t\t\tif (!isPatient(msg.sender)) re...\n      JUMPI \t\t\tif (!isPatient(msg.sender)) re...\n      PUSH 40\t\t\tContract__NotPatient()\n      MLOAD \t\t\tContract__NotPatient()\n      PUSH C11330E600000000000000000000000000000000000000000000000000000000\t\t\tContract__NotPatient()\n      DUP2 \t\t\tContract__NotPatient()\n      MSTORE \t\t\tContract__NotPatient()\n      PUSH 4\t\t\tContract__NotPatient()\n      ADD \t\t\tContract__NotPatient()\n      PUSH 40\t\t\tContract__NotPatient()\n      MLOAD \t\t\tContract__NotPatient()\n      DUP1 \t\t\tContract__NotPatient()\n      SWAP2 \t\t\tContract__NotPatient()\n      SUB \t\t\tContract__NotPatient()\n      SWAP1 \t\t\tContract__NotPatient()\n      REVERT \t\t\tContract__NotPatient()\n    tag 294\t\t\tif (!isPatient(msg.sender)) re...\n      JUMPDEST \t\t\tif (!isPatient(msg.sender)) re...\n      PUSH [tag] 296\t\t\tisDoctor(_address)\n      DUP2 \t\t\t_address\n      PUSH [tag] 103\t\t\tisDoctor\n      JUMP \t\t\tisDoctor(_address)\n    tag 296\t\t\tisDoctor(_address)\n      JUMPDEST \t\t\tisDoctor(_address)\n      PUSH [tag] 297\t\t\tif (!isDoctor(_address)) rever...\n      JUMPI \t\t\tif (!isDoctor(_address)) rever...\n      PUSH 40\t\t\tContract__NotDoctor()\n      MLOAD \t\t\tContract__NotDoctor()\n      PUSH FE2FC9C600000000000000000000000000000000000000000000000000000000\t\t\tContract__NotDoctor()\n      DUP2 \t\t\tContract__NotDoctor()\n      MSTORE \t\t\tContract__NotDoctor()\n      PUSH 4\t\t\tContract__NotDoctor()\n      ADD \t\t\tContract__NotDoctor()\n      PUSH 40\t\t\tContract__NotDoctor()\n      MLOAD \t\t\tContract__NotDoctor()\n      DUP1 \t\t\tContract__NotDoctor()\n      SWAP2 \t\t\tContract__NotDoctor()\n      SUB \t\t\tContract__NotDoctor()\n      SWAP1 \t\t\tContract__NotDoctor()\n      REVERT \t\t\tContract__NotDoctor()\n    tag 297\t\t\tif (!isDoctor(_address)) rever...\n      JUMPDEST \t\t\tif (!isDoctor(_address)) rever...\n      PUSH [tag] 298\t\t\tpatients.records[msg.sender].v...\n      DUP2 \t\t\t_address\n      PUSH B\t\t\tpatients\n      PUSH 4\t\t\tpatients.records\n      ADD \t\t\tpatients.records\n      PUSH 0\t\t\tpatients.records[msg.sender]\n      CALLER \t\t\tmsg.sender\n      PUSH FFFFFFFFFFFFFFFFFFFFFFFFFFFFFFFFFFFFFFFF\t\t\tpatients.records[msg.sender]\n      AND \t\t\tpatients.records[msg.sender]\n      PUSH FFFFFFFFFFFFFFFFFFFFFFFFFFFFFFFFFFFFFFFF\t\t\tpatients.records[msg.sender]\n      AND \t\t\tpatients.records[msg.sender]\n      DUP2 \t\t\tpatients.records[msg.sender]\n      MSTORE \t\t\tpatients.records[msg.sender]\n      PUSH 20\t\t\tpatients.records[msg.sender]\n      ADD \t\t\tpatients.records[msg.sender]\n      SWAP1 \t\t\tpatients.records[msg.sender]\n      DUP2 \t\t\tpatients.records[msg.sender]\n      MSTORE \t\t\tpatients.records[msg.sender]\n      PUSH 20\t\t\tpatients.records[msg.sender]\n      ADD \t\t\tpatients.records[msg.sender]\n      PUSH 0\t\t\tpatients.records[msg.sender]\n      KECCAK256 \t\t\tpatients.records[msg.sender]\n      PUSH 1\t\t\tpatients.records[msg.sender].v...\n      ADD \t\t\tpatients.records[msg.sender].v...\n      DUP1 \t\t\tpatients.records[msg.sender].v...\n      SLOAD \t\t\tpatients.records[msg.sender].v...\n      DUP1 \t\t\tpatients.records[msg.sender].v...\n      PUSH 20\t\t\tpatients.records[msg.sender].v...\n      MUL \t\t\tpatients.records[msg.sender].v...\n      PUSH 20\t\t\tpatients.records[msg.sender].v...\n      ADD \t\t\tpatients.records[msg.sender].v...\n      PUSH 40\t\t\tpatients.records[msg.sender].v...\n      MLOAD \t\t\tpatients.records[msg.sender].v...\n      SWAP1 \t\t\tpatients.records[msg.sender].v...\n      DUP2 \t\t\tpatients.records[msg.sender].v...\n      ADD \t\t\tpatients.records[msg.sender].v...\n      PUSH 40\t\t\tpatients.records[msg.sender].v...\n      MSTORE \t\t\tpatients.records[msg.sender].v...\n      DUP1 \t\t\tpatients.records[msg.sender].v...\n      SWAP3 \t\t\tpatients.records[msg.sender].v...\n      SWAP2 \t\t\tpatients.records[msg.sender].v...\n      SWAP1 \t\t\tpatients.records[msg.sender].v...\n      DUP2 \t\t\tpatients.records[msg.sender].v...\n      DUP2 \t\t\tpatients.records[msg.sender].v...\n      MSTORE \t\t\tpatients.records[msg.sender].v...\n      PUSH 20\t\t\tpatients.records[msg.sender].v...\n      ADD \t\t\tpatients.records[msg.sender].v...\n      DUP3 \t\t\tpatients.records[msg.sender].v...\n      DUP1 \t\t\tpatients.records[msg.sender].v...\n      SLOAD \t\t\tpatients.records[msg.sender].v...\n      DUP1 \t\t\tpatients.records[msg.sender].v...\n      ISZERO \t\t\tpatients.records[msg.sender].v...\n      PUSH [tag] 299\t\t\tpatients.records[msg.sender].v...\n      JUMPI \t\t\tpatients.records[msg.sender].v...\n      PUSH 20\t\t\tpatients.records[msg.sender].v...\n      MUL \t\t\tpatients.records[msg.sender].v...\n      DUP3 \t\t\tpatients.records[msg.sender].v...\n      ADD \t\t\tpatients.records[msg.sender].v...\n      SWAP2 \t\t\tpatients.records[msg.sender].v...\n      SWAP1 \t\t\tpatients.records[msg.sender].v...\n      PUSH 0\t\t\tpatients.records[msg.sender].v...\n      MSTORE \t\t\tpatients.records[msg.sender].v...\n      PUSH 20\t\t\tpatients.records[msg.sender].v...\n      PUSH 0\t\t\tpatients.records[msg.sender].v...\n      KECCAK256 \t\t\tpatients.records[msg.sender].v...\n      SWAP1 \t\t\tpatients.records[msg.sender].v...\n    tag 300\t\t\tpatients.records[msg.sender].v...\n      JUMPDEST \t\t\tpatients.records[msg.sender].v...\n      DUP2 \t\t\tpatients.records[msg.sender].v...\n      PUSH 0\t\t\tpatients.records[msg.sender].v...\n      SWAP1 \t\t\tpatients.records[msg.sender].v...\n      SLOAD \t\t\tpatients.records[msg.sender].v...\n      SWAP1 \t\t\tpatients.records[msg.sender].v...\n      PUSH 100\t\t\tpatients.records[msg.sender].v...\n      EXP \t\t\tpatients.records[msg.sender].v...\n      SWAP1 \t\t\tpatients.records[msg.sender].v...\n      DIV \t\t\tpatients.records[msg.sender].v...\n      PUSH FFFFFFFFFFFFFFFFFFFFFFFFFFFFFFFFFFFFFFFF\t\t\tpatients.records[msg.sender].v...\n      AND \t\t\tpatients.records[msg.sender].v...\n      PUSH FFFFFFFFFFFFFFFFFFFFFFFFFFFFFFFFFFFFFFFF\t\t\tpatients.records[msg.sender].v...\n      AND \t\t\tpatients.records[msg.sender].v...\n      DUP2 \t\t\tpatients.records[msg.sender].v...\n      MSTORE \t\t\tpatients.records[msg.sender].v...\n      PUSH 20\t\t\tpatients.records[msg.sender].v...\n      ADD \t\t\tpatients.records[msg.sender].v...\n      SWAP1 \t\t\tpatients.records[msg.sender].v...\n      PUSH 1\t\t\tpatients.records[msg.sender].v...\n      ADD \t\t\tpatients.records[msg.sender].v...\n      SWAP1 \t\t\tpatients.records[msg.sender].v...\n      DUP1 \t\t\tpatients.records[msg.sender].v...\n      DUP4 \t\t\tpatients.records[msg.sender].v...\n      GT \t\t\tpatients.records[msg.sender].v...\n      PUSH [tag] 300\t\t\tpatients.records[msg.sender].v...\n      JUMPI \t\t\tpatients.records[msg.sender].v...\n    tag 299\t\t\tpatients.records[msg.sender].v...\n      JUMPDEST \t\t\tpatients.records[msg.sender].v...\n      POP \t\t\tpatients.records[msg.sender].v...\n      POP \t\t\tpatients.records[msg.sender].v...\n      POP \t\t\tpatients.records[msg.sender].v...\n      POP \t\t\tpatients.records[msg.sender].v...\n      POP \t\t\tpatients.records[msg.sender].v...\n      PUSH [tag] 301\t\t\tpatients.records[msg.sender].v...\n      SWAP1 \t\t\tpatients.records[msg.sender].v...\n      SWAP2 \t\t\tpatients.records[msg.sender].v...\n      SWAP1 \t\t\tpatients.records[msg.sender].v...\n      PUSH FFFFFFFF\t\t\tpatients.records[msg.sender].v...\n      AND \t\t\tpatients.records[msg.sender].v...\n      JUMP \t\t\tpatients.records[msg.sender].v...\n    tag 298\t\t\tpatients.records[msg.sender].v...\n      JUMPDEST \t\t\tpatients.records[msg.sender].v...\n      PUSH [tag] 302\t\t\tif (!patients.records[msg.send...\n      JUMPI \t\t\tif (!patients.records[msg.send...\n      PUSH B\t\t\tpatients\n      PUSH 4\t\t\tpatients.records\n      ADD \t\t\tpatients.records\n      PUSH 0\t\t\tpatients.records[msg.sender]\n      CALLER \t\t\tmsg.sender\n      PUSH FFFFFFFFFFFFFFFFFFFFFFFFFFFFFFFFFFFFFFFF\t\t\tpatients.records[msg.sender]\n      AND \t\t\tpatients.records[msg.sender]\n      PUSH FFFFFFFFFFFFFFFFFFFFFFFFFFFFFFFFFFFFFFFF\t\t\tpatients.records[msg.sender]\n      AND \t\t\tpatients.records[msg.sender]\n      DUP2 \t\t\tpatients.records[msg.sender]\n      MSTORE \t\t\tpatients.records[msg.sender]\n      PUSH 20\t\t\tpatients.records[msg.sender]\n      ADD \t\t\tpatients.records[msg.sender]\n      SWAP1 \t\t\tpatients.records[msg.sender]\n      DUP2 \t\t\tpatients.records[msg.sender]\n      MSTORE \t\t\tpatients.records[msg.sender]\n      PUSH 20\t\t\tpatients.records[msg.sender]\n      ADD \t\t\tpatients.records[msg.sender]\n      PUSH 0\t\t\tpatients.records[msg.sender]\n      KECCAK256 \t\t\tpatients.records[msg.sender]\n      PUSH 1\t\t\tpatients.records[msg.sender].v...\n      ADD \t\t\tpatients.records[msg.sender].v...\n      DUP2 \t\t\t_address\n      SWAP1 \t\t\tpatients.records[msg.sender].v...\n      DUP1 \t\t\tpatients.records[msg.sender].v...\n      PUSH 1\t\t\tpatients.records[msg.sender].v...\n      DUP2 \t\t\tpatients.records[msg.sender].v...\n      SLOAD \t\t\tpatients.records[msg.sender].v...\n      ADD \t\t\tpatients.records[msg.sender].v...\n      DUP1 \t\t\tpatients.records[msg.sender].v...\n      DUP3 \t\t\tpatients.records[msg.sender].v...\n      SSTORE \t\t\tpatients.records[msg.sender].v...\n      DUP1 \t\t\tpatients.records[msg.sender].v...\n      SWAP2 \t\t\tpatients.records[msg.sender].v...\n      POP \t\t\tpatients.records[msg.sender].v...\n      POP \t\t\tpatients.records[msg.sender].v...\n      PUSH 1\t\t\tpatients.records[msg.sender].v...\n      SWAP1 \t\t\tpatients.records[msg.sender].v...\n      SUB \t\t\tpatients.records[msg.sender].v...\n      SWAP1 \t\t\tpatients.records[msg.sender].v...\n      PUSH 0\t\t\tpatients.records[msg.sender].v...\n      MSTORE \t\t\tpatients.records[msg.sender].v...\n      PUSH 20\t\t\tpatients.records[msg.sender].v...\n      PUSH 0\t\t\tpatients.records[msg.sender].v...\n      KECCAK256 \t\t\tpatients.records[msg.sender].v...\n      ADD \t\t\tpatients.records[msg.sender].v...\n      PUSH 0\t\t\tpatients.records[msg.sender].v...\n      SWAP1 \t\t\tpatients.records[msg.sender].v...\n      SWAP2 \t\t\tpatients.records[msg.sender].v...\n      SWAP1 \t\t\tpatients.records[msg.sender].v...\n      SWAP2 \t\t\tpatients.records[msg.sender].v...\n      SWAP1 \t\t\tpatients.records[msg.sender].v...\n      SWAP2 \t\t\tpatients.records[msg.sender].v...\n      PUSH 100\t\t\tpatients.records[msg.sender].v...\n      EXP \t\t\tpatients.records[msg.sender].v...\n      DUP2 \t\t\tpatients.records[msg.sender].v...\n      SLOAD \t\t\tpatients.records[msg.sender].v...\n      DUP2 \t\t\tpatients.records[msg.sender].v...\n      PUSH FFFFFFFFFFFFFFFFFFFFFFFFFFFFFFFFFFFFFFFF\t\t\tpatients.records[msg.sender].v...\n      MUL \t\t\tpatients.records[msg.sender].v...\n      NOT \t\t\tpatients.records[msg.sender].v...\n      AND \t\t\tpatients.records[msg.sender].v...\n      SWAP1 \t\t\tpatients.records[msg.sender].v...\n      DUP4 \t\t\tpatients.records[msg.sender].v...\n      PUSH FFFFFFFFFFFFFFFFFFFFFFFFFFFFFFFFFFFFFFFF\t\t\tpatients.records[msg.sender].v...\n      AND \t\t\tpatients.records[msg.sender].v...\n      MUL \t\t\tpatients.records[msg.sender].v...\n      OR \t\t\tpatients.records[msg.sender].v...\n      SWAP1 \t\t\tpatients.records[msg.sender].v...\n      SSTORE \t\t\tpatients.records[msg.sender].v...\n      POP \t\t\tpatients.records[msg.sender].v...\n    tag 302\t\t\tif (!patients.records[msg.send...\n      JUMPDEST \t\t\tif (!patients.records[msg.send...\n      POP \t\t\tfunction grantViewerAccess(add...\n      JUMP \t\t\tfunction grantViewerAccess(add...\n    tag 123\t\t\tfunction setPtRecordHash(addre...\n      JUMPDEST \t\t\tfunction setPtRecordHash(addre...\n      PUSH [tag] 305\t\t\tisPatient(_address)\n      DUP3 \t\t\t_address\n      PUSH [tag] 99\t\t\tisPatient\n      JUMP \t\t\tisPatient(_address)\n    tag 305\t\t\tisPatient(_address)\n      JUMPDEST \t\t\tisPatient(_address)\n      PUSH [tag] 306\t\t\tif (!isPatient(_address)) reve...\n      JUMPI \t\t\tif (!isPatient(_address)) reve...\n      PUSH 40\t\t\tContract__NotPatient()\n      MLOAD \t\t\tContract__NotPatient()\n      PUSH C11330E600000000000000000000000000000000000000000000000000000000\t\t\tContract__NotPatient()\n      DUP2 \t\t\tContract__NotPatient()\n      MSTORE \t\t\tContract__NotPatient()\n      PUSH 4\t\t\tContract__NotPatient()\n      ADD \t\t\tContract__NotPatient()\n      PUSH 40\t\t\tContract__NotPatient()\n      MLOAD \t\t\tContract__NotPatient()\n      DUP1 \t\t\tContract__NotPatient()\n      SWAP2 \t\t\tContract__NotPatient()\n      SUB \t\t\tContract__NotPatient()\n      SWAP1 \t\t\tContract__NotPatient()\n      REVERT \t\t\tContract__NotPatient()\n    tag 306\t\t\tif (!isPatient(_address)) reve...\n      JUMPDEST \t\t\tif (!isPatient(_address)) reve...\n      CALLER \t\t\tmsg.sender\n      PUSH FFFFFFFFFFFFFFFFFFFFFFFFFFFFFFFFFFFFFFFF\t\t\tpatients.records[_address].edi...\n      AND \t\t\tpatients.records[_address].edi...\n      PUSH B\t\t\tpatients\n      PUSH 4\t\t\tpatients.records\n      ADD \t\t\tpatients.records\n      PUSH 0\t\t\tpatients.records[_address]\n      DUP5 \t\t\t_address\n      PUSH FFFFFFFFFFFFFFFFFFFFFFFFFFFFFFFFFFFFFFFF\t\t\tpatients.records[_address]\n      AND \t\t\tpatients.records[_address]\n      PUSH FFFFFFFFFFFFFFFFFFFFFFFFFFFFFFFFFFFFFFFF\t\t\tpatients.records[_address]\n      AND \t\t\tpatients.records[_address]\n      DUP2 \t\t\tpatients.records[_address]\n      MSTORE \t\t\tpatients.records[_address]\n      PUSH 20\t\t\tpatients.records[_address]\n      ADD \t\t\tpatients.records[_address]\n      SWAP1 \t\t\tpatients.records[_address]\n      DUP2 \t\t\tpatients.records[_address]\n      MSTORE \t\t\tpatients.records[_address]\n      PUSH 20\t\t\tpatients.records[_address]\n      ADD \t\t\tpatients.records[_address]\n      PUSH 0\t\t\tpatients.records[_address]\n      KECCAK256 \t\t\tpatients.records[_address]\n      PUSH 0\t\t\tpatients.records[_address].edi...\n      ADD \t\t\tpatients.records[_address].edi...\n      PUSH 0\t\t\tpatients.records[_address].edi...\n      SWAP1 \t\t\tpatients.records[_address].edi...\n      SLOAD \t\t\tpatients.records[_address].edi...\n      SWAP1 \t\t\tpatients.records[_address].edi...\n      PUSH 100\t\t\tpatients.records[_address].edi...\n      EXP \t\t\tpatients.records[_address].edi...\n      SWAP1 \t\t\tpatients.records[_address].edi...\n      DIV \t\t\tpatients.records[_address].edi...\n      PUSH FFFFFFFFFFFFFFFFFFFFFFFFFFFFFFFFFFFFFFFF\t\t\tpatients.records[_address].edi...\n      AND \t\t\tpatients.records[_address].edi...\n      PUSH FFFFFFFFFFFFFFFFFFFFFFFFFFFFFFFFFFFFFFFF\t\t\tpatients.records[_address].edi...\n      AND \t\t\tpatients.records[_address].edi...\n      EQ \t\t\tpatients.records[_address].edi...\n      PUSH [tag] 307\t\t\tif (!(patients.records[_addres...\n      JUMPI \t\t\tif (!(patients.records[_addres...\n      PUSH 40\t\t\trevert(\"Not Allowed\")\n      MLOAD \t\t\trevert(\"Not Allowed\")\n      PUSH 8C379A000000000000000000000000000000000000000000000000000000000\t\t\trevert(\"Not Allowed\")\n      DUP2 \t\t\trevert(\"Not Allowed\")\n      MSTORE \t\t\trevert(\"Not Allowed\")\n      PUSH 4\t\t\trevert(\"Not Allowed\")\n      ADD \t\t\trevert(\"Not Allowed\")\n      PUSH [tag] 308\t\t\trevert(\"Not Allowed\")\n      SWAP1 \t\t\trevert(\"Not Allowed\")\n      PUSH [tag] 205\t\t\trevert(\"Not Allowed\")\n      JUMP \t\t\trevert(\"Not Allowed\")\n    tag 308\t\t\trevert(\"Not Allowed\")\n      JUMPDEST \t\t\trevert(\"Not Allowed\")\n      PUSH 40\t\t\trevert(\"Not Allowed\")\n      MLOAD \t\t\trevert(\"Not Allowed\")\n      DUP1 \t\t\trevert(\"Not Allowed\")\n      SWAP2 \t\t\trevert(\"Not Allowed\")\n      SUB \t\t\trevert(\"Not Allowed\")\n      SWAP1 \t\t\trevert(\"Not Allowed\")\n      REVERT \t\t\trevert(\"Not Allowed\")\n    tag 307\t\t\tif (!(patients.records[_addres...\n      JUMPDEST \t\t\tif (!(patients.records[_addres...\n      DUP1 \t\t\t_hash\n      PUSH B\t\t\tpatients\n      PUSH 4\t\t\tpatients.records\n      ADD \t\t\tpatients.records\n      PUSH 0\t\t\tpatients.records[_address]\n      DUP5 \t\t\t_address\n      PUSH FFFFFFFFFFFFFFFFFFFFFFFFFFFFFFFFFFFFFFFF\t\t\tpatients.records[_address]\n      AND \t\t\tpatients.records[_address]\n      PUSH FFFFFFFFFFFFFFFFFFFFFFFFFFFFFFFFFFFFFFFF\t\t\tpatients.records[_address]\n      AND \t\t\tpatients.records[_address]\n      DUP2 \t\t\tpatients.records[_address]\n      MSTORE \t\t\tpatients.records[_address]\n      PUSH 20\t\t\tpatients.records[_address]\n      ADD \t\t\tpatients.records[_address]\n      SWAP1 \t\t\tpatients.records[_address]\n      DUP2 \t\t\tpatients.records[_address]\n      MSTORE \t\t\tpatients.records[_address]\n      PUSH 20\t\t\tpatients.records[_address]\n      ADD \t\t\tpatients.records[_address]\n      PUSH 0\t\t\tpatients.records[_address]\n      KECCAK256 \t\t\tpatients.records[_address]\n      PUSH 2\t\t\tpatients.records[_address].key...\n      ADD \t\t\tpatients.records[_address].key...\n      SWAP1 \t\t\tpatients.records[_address].key...\n      DUP2 \t\t\tpatients.records[_address].key...\n      PUSH [tag] 309\t\t\tpatients.records[_address].key...\n      SWAP2 \t\t\tpatients.records[_address].key...\n      SWAP1 \t\t\tpatients.records[_address].key...\n      PUSH [tag] 226\t\t\tpatients.records[_address].key...\n      JUMP \t\t\tpatients.records[_address].key...\n    tag 309\t\t\tpatients.records[_address].key...\n      JUMPDEST \t\t\tpatients.records[_address].key...\n      POP \t\t\tpatients.records[_address].key...\n      POP \t\t\tfunction setPtRecordHash(addre...\n      POP \t\t\tfunction setPtRecordHash(addre...\n      JUMP \t\t\tfunction setPtRecordHash(addre...\n    tag 126\t\t\tfunction getDrHash(address _ad...\n      JUMPDEST \t\t\tfunction getDrHash(address _ad...\n      PUSH 60\t\t\tstring memory\n      PUSH [tag] 311\t\t\tisDrRegistered(_address)\n      DUP3 \t\t\t_address\n      PUSH [tag] 63\t\t\tisDrRegistered\n      JUMP \t\t\tisDrRegistered(_address)\n    tag 311\t\t\tisDrRegistered(_address)\n      JUMPDEST \t\t\tisDrRegistered(_address)\n      PUSH [tag] 312\t\t\tif (!isDrRegistered(_address))...\n      JUMPI \t\t\tif (!isDrRegistered(_address))...\n      PUSH 40\t\t\tContract__NotDoctor()\n      MLOAD \t\t\tContract__NotDoctor()\n      PUSH FE2FC9C600000000000000000000000000000000000000000000000000000000\t\t\tContract__NotDoctor()\n      DUP2 \t\t\tContract__NotDoctor()\n      MSTORE \t\t\tContract__NotDoctor()\n      PUSH 4\t\t\tContract__NotDoctor()\n      ADD \t\t\tContract__NotDoctor()\n      PUSH 40\t\t\tContract__NotDoctor()\n      MLOAD \t\t\tContract__NotDoctor()\n      DUP1 \t\t\tContract__NotDoctor()\n      SWAP2 \t\t\tContract__NotDoctor()\n      SUB \t\t\tContract__NotDoctor()\n      SWAP1 \t\t\tContract__NotDoctor()\n      REVERT \t\t\tContract__NotDoctor()\n    tag 312\t\t\tif (!isDrRegistered(_address))...\n      JUMPDEST \t\t\tif (!isDrRegistered(_address))...\n      PUSH [tag] 313\t\t\tdoctors.users.getHash(_address...\n      DUP3 \t\t\t_address\n      PUSH 5\t\t\tdoctors\n      PUSH 0\t\t\tdoctors.users\n      ADD \t\t\tdoctors.users\n      PUSH [tag] 216\t\t\tdoctors.users.getHash\n      SWAP1 \t\t\tdoctors.users.getHash\n      SWAP2 \t\t\tdoctors.users.getHash(_address...\n      SWAP1 \t\t\tdoctors.users.getHash(_address...\n      PUSH FFFFFFFF\t\t\tdoctors.users.getHash(_address...\n      AND \t\t\tdoctors.users.getHash(_address...\n      JUMP \t\t\tdoctors.users.getHash(_address...\n    tag 313\t\t\tdoctors.users.getHash(_address...\n      JUMPDEST \t\t\tdoctors.users.getHash(_address...\n      SWAP1 \t\t\treturn doctors.users.getHash(_...\n      POP \t\t\treturn doctors.users.getHash(_...\n      SWAP2 \t\t\tfunction getDrHash(address _ad...\n      SWAP1 \t\t\tfunction getDrHash(address _ad...\n      POP \t\t\tfunction getDrHash(address _ad...\n      JUMP \t\t\tfunction getDrHash(address _ad...\n    tag 130\t\t\tfunction registerDrConfirm(str...\n      JUMPDEST \t\t\tfunction registerDrConfirm(str...\n      PUSH 0\t\t\t0\n      DUP2 \t\t\t_public_key\n      MLOAD \t\t\tbytes(_public_key).length\n      SUB \t\t\tbytes(_public_key).length == 0\n      PUSH [tag] 315\t\t\tif (bytes(_public_key).length ...\n      JUMPI \t\t\tif (bytes(_public_key).length ...\n      PUSH 40\t\t\trevert(\"Contract: Empty public...\n      MLOAD \t\t\trevert(\"Contract: Empty public...\n      PUSH 8C379A000000000000000000000000000000000000000000000000000000000\t\t\trevert(\"Contract: Empty public...\n      DUP2 \t\t\trevert(\"Contract: Empty public...\n      MSTORE \t\t\trevert(\"Contract: Empty public...\n      PUSH 4\t\t\trevert(\"Contract: Empty public...\n      ADD \t\t\trevert(\"Contract: Empty public...\n      PUSH [tag] 316\t\t\trevert(\"Contract: Empty public...\n      SWAP1 \t\t\trevert(\"Contract: Empty public...\n      PUSH [tag] 317\t\t\trevert(\"Contract: Empty public...\n      JUMP \t\t\trevert(\"Contract: Empty public...\n    tag 316\t\t\trevert(\"Contract: Empty public...\n      JUMPDEST \t\t\trevert(\"Contract: Empty public...\n      PUSH 40\t\t\trevert(\"Contract: Empty public...\n      MLOAD \t\t\trevert(\"Contract: Empty public...\n      DUP1 \t\t\trevert(\"Contract: Empty public...\n      SWAP2 \t\t\trevert(\"Contract: Empty public...\n      SUB \t\t\trevert(\"Contract: Empty public...\n      SWAP1 \t\t\trevert(\"Contract: Empty public...\n      REVERT \t\t\trevert(\"Contract: Empty public...\n    tag 315\t\t\tif (bytes(_public_key).length ...\n      JUMPDEST \t\t\tif (bytes(_public_key).length ...\n      PUSH [tag] 318\t\t\tdoctors.users.has(msg.sender)\n      CALLER \t\t\tmsg.sender\n      PUSH 5\t\t\tdoctors\n      PUSH 0\t\t\tdoctors.users\n      ADD \t\t\tdoctors.users\n      PUSH [tag] 155\t\t\tdoctors.users.has\n      SWAP1 \t\t\tdoctors.users.has\n      SWAP2 \t\t\tdoctors.users.has(msg.sender)\n      SWAP1 \t\t\tdoctors.users.has(msg.sender)\n      PUSH FFFFFFFF\t\t\tdoctors.users.has(msg.sender)\n      AND \t\t\tdoctors.users.has(msg.sender)\n      JUMP \t\t\tdoctors.users.has(msg.sender)\n    tag 318\t\t\tdoctors.users.has(msg.sender)\n      JUMPDEST \t\t\tdoctors.users.has(msg.sender)\n      PUSH [tag] 319\t\t\tif (!doctors.users.has(msg.sen...\n      JUMPI \t\t\tif (!doctors.users.has(msg.sen...\n      PUSH 40\t\t\tContract__NotDoctor()\n      MLOAD \t\t\tContract__NotDoctor()\n      PUSH FE2FC9C600000000000000000000000000000000000000000000000000000000\t\t\tContract__NotDoctor()\n      DUP2 \t\t\tContract__NotDoctor()\n      MSTORE \t\t\tContract__NotDoctor()\n      PUSH 4\t\t\tContract__NotDoctor()\n      ADD \t\t\tContract__NotDoctor()\n      PUSH 40\t\t\tContract__NotDoctor()\n      MLOAD \t\t\tContract__NotDoctor()\n      DUP1 \t\t\tContract__NotDoctor()\n      SWAP2 \t\t\tContract__NotDoctor()\n      SUB \t\t\tContract__NotDoctor()\n      SWAP1 \t\t\tContract__NotDoctor()\n      REVERT \t\t\tContract__NotDoctor()\n    tag 319\t\t\tif (!doctors.users.has(msg.sen...\n      JUMPDEST \t\t\tif (!doctors.users.has(msg.sen...\n      PUSH [tag] 320\t\t\tadmin.pending_doctors.get(msg....\n      CALLER \t\t\tmsg.sender\n      PUSH 0\t\t\tadmin\n      PUSH 2\t\t\tadmin.pending_doctors\n      ADD \t\t\tadmin.pending_doctors\n      PUSH [tag] 229\t\t\tadmin.pending_doctors.get\n      SWAP1 \t\t\tadmin.pending_doctors.get\n      SWAP2 \t\t\tadmin.pending_doctors.get(msg....\n      SWAP1 \t\t\tadmin.pending_doctors.get(msg....\n      PUSH FFFFFFFF\t\t\tadmin.pending_doctors.get(msg....\n      AND \t\t\tadmin.pending_doctors.get(msg....\n      JUMP \t\t\tadmin.pending_doctors.get(msg....\n    tag 320\t\t\tadmin.pending_doctors.get(msg....\n      JUMPDEST \t\t\tadmin.pending_doctors.get(msg....\n      ISZERO \t\t\tif (admin.pending_doctors.get(...\n      PUSH [tag] 321\t\t\tif (admin.pending_doctors.get(...\n      JUMPI \t\t\tif (admin.pending_doctors.get(...\n      PUSH 40\t\t\tContract__PendingDoctorApprova...\n      MLOAD \t\t\tContract__PendingDoctorApprova...\n      PUSH F873D3B700000000000000000000000000000000000000000000000000000000\t\t\tContract__PendingDoctorApprova...\n      DUP2 \t\t\tContract__PendingDoctorApprova...\n      MSTORE \t\t\tContract__PendingDoctorApprova...\n      PUSH 4\t\t\tContract__PendingDoctorApprova...\n      ADD \t\t\tContract__PendingDoctorApprova...\n      PUSH 40\t\t\tContract__PendingDoctorApprova...\n      MLOAD \t\t\tContract__PendingDoctorApprova...\n      DUP1 \t\t\tContract__PendingDoctorApprova...\n      SWAP2 \t\t\tContract__PendingDoctorApprova...\n      SUB \t\t\tContract__PendingDoctorApprova...\n      SWAP1 \t\t\tContract__PendingDoctorApprova...\n      REVERT \t\t\tContract__PendingDoctorApprova...\n    tag 321\t\t\tif (admin.pending_doctors.get(...\n      JUMPDEST \t\t\tif (admin.pending_doctors.get(...\n      DUP1 \t\t\t_public_key\n      PUSH 5\t\t\tdoctors\n      PUSH 4\t\t\tdoctors.public_keys\n      ADD \t\t\tdoctors.public_keys\n      PUSH 0\t\t\tdoctors.public_keys[msg.sender...\n      CALLER \t\t\tmsg.sender\n      PUSH FFFFFFFFFFFFFFFFFFFFFFFFFFFFFFFFFFFFFFFF\t\t\tdoctors.public_keys[msg.sender...\n      AND \t\t\tdoctors.public_keys[msg.sender...\n      PUSH FFFFFFFFFFFFFFFFFFFFFFFFFFFFFFFFFFFFFFFF\t\t\tdoctors.public_keys[msg.sender...\n      AND \t\t\tdoctors.public_keys[msg.sender...\n      DUP2 \t\t\tdoctors.public_keys[msg.sender...\n      MSTORE \t\t\tdoctors.public_keys[msg.sender...\n      PUSH 20\t\t\tdoctors.public_keys[msg.sender...\n      ADD \t\t\tdoctors.public_keys[msg.sender...\n      SWAP1 \t\t\tdoctors.public_keys[msg.sender...\n      DUP2 \t\t\tdoctors.public_keys[msg.sender...\n      MSTORE \t\t\tdoctors.public_keys[msg.sender...\n      PUSH 20\t\t\tdoctors.public_keys[msg.sender...\n      ADD \t\t\tdoctors.public_keys[msg.sender...\n      PUSH 0\t\t\tdoctors.public_keys[msg.sender...\n      KECCAK256 \t\t\tdoctors.public_keys[msg.sender...\n      SWAP1 \t\t\tdoctors.public_keys[msg.sender...\n      DUP2 \t\t\tdoctors.public_keys[msg.sender...\n      PUSH [tag] 322\t\t\tdoctors.public_keys[msg.sender...\n      SWAP2 \t\t\tdoctors.public_keys[msg.sender...\n      SWAP1 \t\t\tdoctors.public_keys[msg.sender...\n      PUSH [tag] 226\t\t\tdoctors.public_keys[msg.sender...\n      JUMP \t\t\tdoctors.public_keys[msg.sender...\n    tag 322\t\t\tdoctors.public_keys[msg.sender...\n      JUMPDEST \t\t\tdoctors.public_keys[msg.sender...\n      POP \t\t\tdoctors.public_keys[msg.sender...\n      POP \t\t\tfunction registerDrConfirm(str...\n      JUMP \t\t\tfunction registerDrConfirm(str...\n    tag 132\t\t\tfunction getPtsOfDr() public v...\n      JUMPDEST \t\t\tfunction getPtsOfDr() public v...\n      PUSH 60\t\t\taddress[] memory\n      PUSH [tag] 324\t\t\tdoctors.users.has(msg.sender)\n      CALLER \t\t\tmsg.sender\n      PUSH 5\t\t\tdoctors\n      PUSH 0\t\t\tdoctors.users\n      ADD \t\t\tdoctors.users\n      PUSH [tag] 155\t\t\tdoctors.users.has\n      SWAP1 \t\t\tdoctors.users.has\n      SWAP2 \t\t\tdoctors.users.has(msg.sender)\n      SWAP1 \t\t\tdoctors.users.has(msg.sender)\n      PUSH FFFFFFFF\t\t\tdoctors.users.has(msg.sender)\n      AND \t\t\tdoctors.users.has(msg.sender)\n      JUMP \t\t\tdoctors.users.has(msg.sender)\n    tag 324\t\t\tdoctors.users.has(msg.sender)\n      JUMPDEST \t\t\tdoctors.users.has(msg.sender)\n      PUSH [tag] 325\t\t\tif (!doctors.users.has(msg.sen...\n      JUMPI \t\t\tif (!doctors.users.has(msg.sen...\n      PUSH 40\t\t\tContract__NotDoctor()\n      MLOAD \t\t\tContract__NotDoctor()\n      PUSH FE2FC9C600000000000000000000000000000000000000000000000000000000\t\t\tContract__NotDoctor()\n      DUP2 \t\t\tContract__NotDoctor()\n      MSTORE \t\t\tContract__NotDoctor()\n      PUSH 4\t\t\tContract__NotDoctor()\n      ADD \t\t\tContract__NotDoctor()\n      PUSH 40\t\t\tContract__NotDoctor()\n      MLOAD \t\t\tContract__NotDoctor()\n      DUP1 \t\t\tContract__NotDoctor()\n      SWAP2 \t\t\tContract__NotDoctor()\n      SUB \t\t\tContract__NotDoctor()\n      SWAP1 \t\t\tContract__NotDoctor()\n      REVERT \t\t\tContract__NotDoctor()\n    tag 325\t\t\tif (!doctors.users.has(msg.sen...\n      JUMPDEST \t\t\tif (!doctors.users.has(msg.sen...\n      PUSH [tag] 326\t\t\tadmin.pending_doctors.get(msg....\n      CALLER \t\t\tmsg.sender\n      PUSH 0\t\t\tadmin\n      PUSH 2\t\t\tadmin.pending_doctors\n      ADD \t\t\tadmin.pending_doctors\n      PUSH [tag] 229\t\t\tadmin.pending_doctors.get\n      SWAP1 \t\t\tadmin.pending_doctors.get\n      SWAP2 \t\t\tadmin.pending_doctors.get(msg....\n      SWAP1 \t\t\tadmin.pending_doctors.get(msg....\n      PUSH FFFFFFFF\t\t\tadmin.pending_doctors.get(msg....\n      AND \t\t\tadmin.pending_doctors.get(msg....\n      JUMP \t\t\tadmin.pending_doctors.get(msg....\n    tag 326\t\t\tadmin.pending_doctors.get(msg....\n      JUMPDEST \t\t\tadmin.pending_doctors.get(msg....\n      ISZERO \t\t\tif (admin.pending_doctors.get(...\n      PUSH [tag] 327\t\t\tif (admin.pending_doctors.get(...\n      JUMPI \t\t\tif (admin.pending_doctors.get(...\n      PUSH 40\t\t\tContract__PendingDoctorApprova...\n      MLOAD \t\t\tContract__PendingDoctorApprova...\n      PUSH F873D3B700000000000000000000000000000000000000000000000000000000\t\t\tContract__PendingDoctorApprova...\n      DUP2 \t\t\tContract__PendingDoctorApprova...\n      MSTORE \t\t\tContract__PendingDoctorApprova...\n      PUSH 4\t\t\tContract__PendingDoctorApprova...\n      ADD \t\t\tContract__PendingDoctorApprova...\n      PUSH 40\t\t\tContract__PendingDoctorApprova...\n      MLOAD \t\t\tContract__PendingDoctorApprova...\n      DUP1 \t\t\tContract__PendingDoctorApprova...\n      SWAP2 \t\t\tContract__PendingDoctorApprova...\n      SUB \t\t\tContract__PendingDoctorApprova...\n      SWAP1 \t\t\tContract__PendingDoctorApprova...\n      REVERT \t\t\tContract__PendingDoctorApprova...\n    tag 327\t\t\tif (admin.pending_doctors.get(...\n      JUMPDEST \t\t\tif (admin.pending_doctors.get(...\n      PUSH 0\t\t\t0\n      PUSH 5\t\t\tdoctors\n      PUSH 4\t\t\tdoctors.public_keys\n      ADD \t\t\tdoctors.public_keys\n      PUSH 0\t\t\tdoctors.public_keys[msg.sender...\n      CALLER \t\t\tmsg.sender\n      PUSH FFFFFFFFFFFFFFFFFFFFFFFFFFFFFFFFFFFFFFFF\t\t\tdoctors.public_keys[msg.sender...\n      AND \t\t\tdoctors.public_keys[msg.sender...\n      PUSH FFFFFFFFFFFFFFFFFFFFFFFFFFFFFFFFFFFFFFFF\t\t\tdoctors.public_keys[msg.sender...\n      AND \t\t\tdoctors.public_keys[msg.sender...\n      DUP2 \t\t\tdoctors.public_keys[msg.sender...\n      MSTORE \t\t\tdoctors.public_keys[msg.sender...\n      PUSH 20\t\t\tdoctors.public_keys[msg.sender...\n      ADD \t\t\tdoctors.public_keys[msg.sender...\n      SWAP1 \t\t\tdoctors.public_keys[msg.sender...\n      DUP2 \t\t\tdoctors.public_keys[msg.sender...\n      MSTORE \t\t\tdoctors.public_keys[msg.sender...\n      PUSH 20\t\t\tdoctors.public_keys[msg.sender...\n      ADD \t\t\tdoctors.public_keys[msg.sender...\n      PUSH 0\t\t\tdoctors.public_keys[msg.sender...\n      KECCAK256 \t\t\tdoctors.public_keys[msg.sender...\n      DUP1 \t\t\tbytes(doctors.public_keys[msg....\n      SLOAD \t\t\tbytes(doctors.public_keys[msg....\n      PUSH [tag] 328\t\t\tbytes(doctors.public_keys[msg....\n      SWAP1 \t\t\tbytes(doctors.public_keys[msg....\n      PUSH [tag] 161\t\t\tbytes(doctors.public_keys[msg....\n      JUMP \t\t\tbytes(doctors.public_keys[msg....\n    tag 328\t\t\tbytes(doctors.public_keys[msg....\n      JUMPDEST \t\t\tbytes(doctors.public_keys[msg....\n      SWAP1 \t\t\tbytes(doctors.public_keys[msg....\n      POP \t\t\tbytes(doctors.public_keys[msg....\n      SUB \t\t\tbytes(doctors.public_keys[msg....\n      PUSH [tag] 329\t\t\tif (bytes(doctors.public_keys[...\n      JUMPI \t\t\tif (bytes(doctors.public_keys[...\n      PUSH 40\t\t\tContract__DoctorPublicKeyMissi...\n      MLOAD \t\t\tContract__DoctorPublicKeyMissi...\n      PUSH A30132D500000000000000000000000000000000000000000000000000000000\t\t\tContract__DoctorPublicKeyMissi...\n      DUP2 \t\t\tContract__DoctorPublicKeyMissi...\n      MSTORE \t\t\tContract__DoctorPublicKeyMissi...\n      PUSH 4\t\t\tContract__DoctorPublicKeyMissi...\n      ADD \t\t\tContract__DoctorPublicKeyMissi...\n      PUSH 40\t\t\tContract__DoctorPublicKeyMissi...\n      MLOAD \t\t\tContract__DoctorPublicKeyMissi...\n      DUP1 \t\t\tContract__DoctorPublicKeyMissi...\n      SWAP2 \t\t\tContract__DoctorPublicKeyMissi...\n      SUB \t\t\tContract__DoctorPublicKeyMissi...\n      SWAP1 \t\t\tContract__DoctorPublicKeyMissi...\n      REVERT \t\t\tContract__DoctorPublicKeyMissi...\n    tag 329\t\t\tif (bytes(doctors.public_keys[...\n      JUMPDEST \t\t\tif (bytes(doctors.public_keys[...\n      PUSH 5\t\t\tdoctors\n      DUP1 \t\t\tdoctors.docToPatAccess\n      ADD \t\t\tdoctors.docToPatAccess\n      PUSH 0\t\t\tdoctors.docToPatAccess[msg.sen...\n      CALLER \t\t\tmsg.sender\n      PUSH FFFFFFFFFFFFFFFFFFFFFFFFFFFFFFFFFFFFFFFF\t\t\tdoctors.docToPatAccess[msg.sen...\n      AND \t\t\tdoctors.docToPatAccess[msg.sen...\n      PUSH FFFFFFFFFFFFFFFFFFFFFFFFFFFFFFFFFFFFFFFF\t\t\tdoctors.docToPatAccess[msg.sen...\n      AND \t\t\tdoctors.docToPatAccess[msg.sen...\n      DUP2 \t\t\tdoctors.docToPatAccess[msg.sen...\n      MSTORE \t\t\tdoctors.docToPatAccess[msg.sen...\n      PUSH 20\t\t\tdoctors.docToPatAccess[msg.sen...\n      ADD \t\t\tdoctors.docToPatAccess[msg.sen...\n      SWAP1 \t\t\tdoctors.docToPatAccess[msg.sen...\n      DUP2 \t\t\tdoctors.docToPatAccess[msg.sen...\n      MSTORE \t\t\tdoctors.docToPatAccess[msg.sen...\n      PUSH 20\t\t\tdoctors.docToPatAccess[msg.sen...\n      ADD \t\t\tdoctors.docToPatAccess[msg.sen...\n      PUSH 0\t\t\tdoctors.docToPatAccess[msg.sen...\n      KECCAK256 \t\t\tdoctors.docToPatAccess[msg.sen...\n      PUSH 0\t\t\tdoctors.docToPatAccess[msg.sen...\n      ADD \t\t\tdoctors.docToPatAccess[msg.sen...\n      DUP1 \t\t\treturn doctors.docToPatAccess[...\n      SLOAD \t\t\treturn doctors.docToPatAccess[...\n      DUP1 \t\t\treturn doctors.docToPatAccess[...\n      PUSH 20\t\t\treturn doctors.docToPatAccess[...\n      MUL \t\t\treturn doctors.docToPatAccess[...\n      PUSH 20\t\t\treturn doctors.docToPatAccess[...\n      ADD \t\t\treturn doctors.docToPatAccess[...\n      PUSH 40\t\t\treturn doctors.docToPatAccess[...\n      MLOAD \t\t\treturn doctors.docToPatAccess[...\n      SWAP1 \t\t\treturn doctors.docToPatAccess[...\n      DUP2 \t\t\treturn doctors.docToPatAccess[...\n      ADD \t\t\treturn doctors.docToPatAccess[...\n      PUSH 40\t\t\treturn doctors.docToPatAccess[...\n      MSTORE \t\t\treturn doctors.docToPatAccess[...\n      DUP1 \t\t\treturn doctors.docToPatAccess[...\n      SWAP3 \t\t\treturn doctors.docToPatAccess[...\n      SWAP2 \t\t\treturn doctors.docToPatAccess[...\n      SWAP1 \t\t\treturn doctors.docToPatAccess[...\n      DUP2 \t\t\treturn doctors.docToPatAccess[...\n      DUP2 \t\t\treturn doctors.docToPatAccess[...\n      MSTORE \t\t\treturn doctors.docToPatAccess[...\n      PUSH 20\t\t\treturn doctors.docToPatAccess[...\n      ADD \t\t\treturn doctors.docToPatAccess[...\n      DUP3 \t\t\treturn doctors.docToPatAccess[...\n      DUP1 \t\t\treturn doctors.docToPatAccess[...\n      SLOAD \t\t\treturn doctors.docToPatAccess[...\n      DUP1 \t\t\treturn doctors.docToPatAccess[...\n      ISZERO \t\t\treturn doctors.docToPatAccess[...\n      PUSH [tag] 331\t\t\treturn doctors.docToPatAccess[...\n      JUMPI \t\t\treturn doctors.docToPatAccess[...\n      PUSH 20\t\t\treturn doctors.docToPatAccess[...\n      MUL \t\t\treturn doctors.docToPatAccess[...\n      DUP3 \t\t\treturn doctors.docToPatAccess[...\n      ADD \t\t\treturn doctors.docToPatAccess[...\n      SWAP2 \t\t\treturn doctors.docToPatAccess[...\n      SWAP1 \t\t\treturn doctors.docToPatAccess[...\n      PUSH 0\t\t\treturn doctors.docToPatAccess[...\n      MSTORE \t\t\treturn doctors.docToPatAccess[...\n      PUSH 20\t\t\treturn doctors.docToPatAccess[...\n      PUSH 0\t\t\treturn doctors.docToPatAccess[...\n      KECCAK256 \t\t\treturn doctors.docToPatAccess[...\n      SWAP1 \t\t\treturn doctors.docToPatAccess[...\n    tag 332\t\t\treturn doctors.docToPatAccess[...\n      JUMPDEST \t\t\treturn doctors.docToPatAccess[...\n      DUP2 \t\t\treturn doctors.docToPatAccess[...\n      PUSH 0\t\t\treturn doctors.docToPatAccess[...\n      SWAP1 \t\t\treturn doctors.docToPatAccess[...\n      SLOAD \t\t\treturn doctors.docToPatAccess[...\n      SWAP1 \t\t\treturn doctors.docToPatAccess[...\n      PUSH 100\t\t\treturn doctors.docToPatAccess[...\n      EXP \t\t\treturn doctors.docToPatAccess[...\n      SWAP1 \t\t\treturn doctors.docToPatAccess[...\n      DIV \t\t\treturn doctors.docToPatAccess[...\n      PUSH FFFFFFFFFFFFFFFFFFFFFFFFFFFFFFFFFFFFFFFF\t\t\treturn doctors.docToPatAccess[...\n      AND \t\t\treturn doctors.docToPatAccess[...\n      PUSH FFFFFFFFFFFFFFFFFFFFFFFFFFFFFFFFFFFFFFFF\t\t\treturn doctors.docToPatAccess[...\n      AND \t\t\treturn doctors.docToPatAccess[...\n      DUP2 \t\t\treturn doctors.docToPatAccess[...\n      MSTORE \t\t\treturn doctors.docToPatAccess[...\n      PUSH 20\t\t\treturn doctors.docToPatAccess[...\n      ADD \t\t\treturn doctors.docToPatAccess[...\n      SWAP1 \t\t\treturn doctors.docToPatAccess[...\n      PUSH 1\t\t\treturn doctors.docToPatAccess[...\n      ADD \t\t\treturn doctors.docToPatAccess[...\n      SWAP1 \t\t\treturn doctors.docToPatAccess[...\n      DUP1 \t\t\treturn doctors.docToPatAccess[...\n      DUP4 \t\t\treturn doctors.docToPatAccess[...\n      GT \t\t\treturn doctors.docToPatAccess[...\n      PUSH [tag] 332\t\t\treturn doctors.docToPatAccess[...\n      JUMPI \t\t\treturn doctors.docToPatAccess[...\n    tag 331\t\t\treturn doctors.docToPatAccess[...\n      JUMPDEST \t\t\treturn doctors.docToPatAccess[...\n      POP \t\t\treturn doctors.docToPatAccess[...\n      POP \t\t\treturn doctors.docToPatAccess[...\n      POP \t\t\treturn doctors.docToPatAccess[...\n      POP \t\t\treturn doctors.docToPatAccess[...\n      POP \t\t\treturn doctors.docToPatAccess[...\n      SWAP1 \t\t\treturn doctors.docToPatAccess[...\n      POP \t\t\treturn doctors.docToPatAccess[...\n      SWAP1 \t\t\tfunction getPtsOfDr() public v...\n      JUMP \t\t\tfunction getPtsOfDr() public v...\n    tag 137\t\t\tfunction changeEditorAccess(\\n...\n      JUMPDEST \t\t\tfunction changeEditorAccess(\\n...\n      PUSH [tag] 334\t\t\tisPatient(msg.sender)\n      CALLER \t\t\tmsg.sender\n      PUSH [tag] 99\t\t\tisPatient\n      JUMP \t\t\tisPatient(msg.sender)\n    tag 334\t\t\tisPatient(msg.sender)\n      JUMPDEST \t\t\tisPatient(msg.sender)\n      PUSH [tag] 335\t\t\tif (!isPatient(msg.sender)) re...\n      JUMPI \t\t\tif (!isPatient(msg.sender)) re...\n      PUSH 40\t\t\tContract__NotPatient()\n      MLOAD \t\t\tContract__NotPatient()\n      PUSH C11330E600000000000000000000000000000000000000000000000000000000\t\t\tContract__NotPatient()\n      DUP2 \t\t\tContract__NotPatient()\n      MSTORE \t\t\tContract__NotPatient()\n      PUSH 4\t\t\tContract__NotPatient()\n      ADD \t\t\tContract__NotPatient()\n      PUSH 40\t\t\tContract__NotPatient()\n      MLOAD \t\t\tContract__NotPatient()\n      DUP1 \t\t\tContract__NotPatient()\n      SWAP2 \t\t\tContract__NotPatient()\n      SUB \t\t\tContract__NotPatient()\n      SWAP1 \t\t\tContract__NotPatient()\n      REVERT \t\t\tContract__NotPatient()\n    tag 335\t\t\tif (!isPatient(msg.sender)) re...\n      JUMPDEST \t\t\tif (!isPatient(msg.sender)) re...\n      PUSH [tag] 337\t\t\tisDoctor(_address)\n      DUP4 \t\t\t_address\n      PUSH [tag] 103\t\t\tisDoctor\n      JUMP \t\t\tisDoctor(_address)\n    tag 337\t\t\tisDoctor(_address)\n      JUMPDEST \t\t\tisDoctor(_address)\n      PUSH [tag] 338\t\t\tif (!isDoctor(_address)) rever...\n      JUMPI \t\t\tif (!isDoctor(_address)) rever...\n      PUSH 40\t\t\tContract__NotDoctor()\n      MLOAD \t\t\tContract__NotDoctor()\n      PUSH FE2FC9C600000000000000000000000000000000000000000000000000000000\t\t\tContract__NotDoctor()\n      DUP2 \t\t\tContract__NotDoctor()\n      MSTORE \t\t\tContract__NotDoctor()\n      PUSH 4\t\t\tContract__NotDoctor()\n      ADD \t\t\tContract__NotDoctor()\n      PUSH 40\t\t\tContract__NotDoctor()\n      MLOAD \t\t\tContract__NotDoctor()\n      DUP1 \t\t\tContract__NotDoctor()\n      SWAP2 \t\t\tContract__NotDoctor()\n      SUB \t\t\tContract__NotDoctor()\n      SWAP1 \t\t\tContract__NotDoctor()\n      REVERT \t\t\tContract__NotDoctor()\n    tag 338\t\t\tif (!isDoctor(_address)) rever...\n      JUMPDEST \t\t\tif (!isDoctor(_address)) rever...\n      PUSH [tag] 339\t\t\tremoveEditorAccess(_general_ha...\n      DUP3 \t\t\t_general_hash\n      DUP3 \t\t\t_key_hash\n      PUSH [tag] 80\t\t\tremoveEditorAccess\n      JUMP \t\t\tremoveEditorAccess(_general_ha...\n    tag 339\t\t\tremoveEditorAccess(_general_ha...\n      JUMPDEST \t\t\tremoveEditorAccess(_general_ha...\n      DUP3 \t\t\t_address\n      PUSH B\t\t\tpatients\n      PUSH 4\t\t\tpatients.records\n      ADD \t\t\tpatients.records\n      PUSH 0\t\t\tpatients.records[msg.sender]\n      CALLER \t\t\tmsg.sender\n      PUSH FFFFFFFFFFFFFFFFFFFFFFFFFFFFFFFFFFFFFFFF\t\t\tpatients.records[msg.sender]\n      AND \t\t\tpatients.records[msg.sender]\n      PUSH FFFFFFFFFFFFFFFFFFFFFFFFFFFFFFFFFFFFFFFF\t\t\tpatients.records[msg.sender]\n      AND \t\t\tpatients.records[msg.sender]\n      DUP2 \t\t\tpatients.records[msg.sender]\n      MSTORE \t\t\tpatients.records[msg.sender]\n      PUSH 20\t\t\tpatients.records[msg.sender]\n      ADD \t\t\tpatients.records[msg.sender]\n      SWAP1 \t\t\tpatients.records[msg.sender]\n      DUP2 \t\t\tpatients.records[msg.sender]\n      MSTORE \t\t\tpatients.records[msg.sender]\n      PUSH 20\t\t\tpatients.records[msg.sender]\n      ADD \t\t\tpatients.records[msg.sender]\n      PUSH 0\t\t\tpatients.records[msg.sender]\n      KECCAK256 \t\t\tpatients.records[msg.sender]\n      PUSH 0\t\t\tpatients.records[msg.sender].e...\n      ADD \t\t\tpatients.records[msg.sender].e...\n      PUSH 0\t\t\tpatients.records[msg.sender].e...\n      PUSH 100\t\t\tpatients.records[msg.sender].e...\n      EXP \t\t\tpatients.records[msg.sender].e...\n      DUP2 \t\t\tpatients.records[msg.sender].e...\n      SLOAD \t\t\tpatients.records[msg.sender].e...\n      DUP2 \t\t\tpatients.records[msg.sender].e...\n      PUSH FFFFFFFFFFFFFFFFFFFFFFFFFFFFFFFFFFFFFFFF\t\t\tpatients.records[msg.sender].e...\n      MUL \t\t\tpatients.records[msg.sender].e...\n      NOT \t\t\tpatients.records[msg.sender].e...\n      AND \t\t\tpatients.records[msg.sender].e...\n      SWAP1 \t\t\tpatients.records[msg.sender].e...\n      DUP4 \t\t\tpatients.records[msg.sender].e...\n      PUSH FFFFFFFFFFFFFFFFFFFFFFFFFFFFFFFFFFFFFFFF\t\t\tpatients.records[msg.sender].e...\n      AND \t\t\tpatients.records[msg.sender].e...\n      MUL \t\t\tpatients.records[msg.sender].e...\n      OR \t\t\tpatients.records[msg.sender].e...\n      SWAP1 \t\t\tpatients.records[msg.sender].e...\n      SSTORE \t\t\tpatients.records[msg.sender].e...\n      POP \t\t\tpatients.records[msg.sender].e...\n      PUSH [tag] 340\t\t\tdoctors.docToPatAccess[_addres...\n      CALLER \t\t\tmsg.sender\n      PUSH 5\t\t\tdoctors\n      DUP1 \t\t\tdoctors.docToPatAccess\n      ADD \t\t\tdoctors.docToPatAccess\n      PUSH 0\t\t\tdoctors.docToPatAccess[_addres...\n      DUP7 \t\t\t_address\n      PUSH FFFFFFFFFFFFFFFFFFFFFFFFFFFFFFFFFFFFFFFF\t\t\tdoctors.docToPatAccess[_addres...\n      AND \t\t\tdoctors.docToPatAccess[_addres...\n      PUSH FFFFFFFFFFFFFFFFFFFFFFFFFFFFFFFFFFFFFFFF\t\t\tdoctors.docToPatAccess[_addres...\n      AND \t\t\tdoctors.docToPatAccess[_addres...\n      DUP2 \t\t\tdoctors.docToPatAccess[_addres...\n      MSTORE \t\t\tdoctors.docToPatAccess[_addres...\n      PUSH 20\t\t\tdoctors.docToPatAccess[_addres...\n      ADD \t\t\tdoctors.docToPatAccess[_addres...\n      SWAP1 \t\t\tdoctors.docToPatAccess[_addres...\n      DUP2 \t\t\tdoctors.docToPatAccess[_addres...\n      MSTORE \t\t\tdoctors.docToPatAccess[_addres...\n      PUSH 20\t\t\tdoctors.docToPatAccess[_addres...\n      ADD \t\t\tdoctors.docToPatAccess[_addres...\n      PUSH 0\t\t\tdoctors.docToPatAccess[_addres...\n      KECCAK256 \t\t\tdoctors.docToPatAccess[_addres...\n      PUSH [tag] 188\t\t\tdoctors.docToPatAccess[_addres...\n      SWAP1 \t\t\tdoctors.docToPatAccess[_addres...\n      SWAP2 \t\t\tdoctors.docToPatAccess[_addres...\n      SWAP1 \t\t\tdoctors.docToPatAccess[_addres...\n      PUSH FFFFFFFF\t\t\tdoctors.docToPatAccess[_addres...\n      AND \t\t\tdoctors.docToPatAccess[_addres...\n      JUMP \t\t\tdoctors.docToPatAccess[_addres...\n    tag 340\t\t\tdoctors.docToPatAccess[_addres...\n      JUMPDEST \t\t\tdoctors.docToPatAccess[_addres...\n      POP \t\t\tfunction changeEditorAccess(\\n...\n      POP \t\t\tfunction changeEditorAccess(\\n...\n      POP \t\t\tfunction changeEditorAccess(\\n...\n      JUMP \t\t\tfunction changeEditorAccess(\\n...\n    tag 140\t\t\tfunction getDrPubKey(address _...\n      JUMPDEST \t\t\tfunction getDrPubKey(address _...\n      PUSH 60\t\t\tstring memory\n      PUSH 5\t\t\tdoctors\n      PUSH 4\t\t\tdoctors.public_keys\n      ADD \t\t\tdoctors.public_keys\n      PUSH 0\t\t\tdoctors.public_keys[_address]\n      DUP4 \t\t\t_address\n      PUSH FFFFFFFFFFFFFFFFFFFFFFFFFFFFFFFFFFFFFFFF\t\t\tdoctors.public_keys[_address]\n      AND \t\t\tdoctors.public_keys[_address]\n      PUSH FFFFFFFFFFFFFFFFFFFFFFFFFFFFFFFFFFFFFFFF\t\t\tdoctors.public_keys[_address]\n      AND \t\t\tdoctors.public_keys[_address]\n      DUP2 \t\t\tdoctors.public_keys[_address]\n      MSTORE \t\t\tdoctors.public_keys[_address]\n      PUSH 20\t\t\tdoctors.public_keys[_address]\n      ADD \t\t\tdoctors.public_keys[_address]\n      SWAP1 \t\t\tdoctors.public_keys[_address]\n      DUP2 \t\t\tdoctors.public_keys[_address]\n      MSTORE \t\t\tdoctors.public_keys[_address]\n      PUSH 20\t\t\tdoctors.public_keys[_address]\n      ADD \t\t\tdoctors.public_keys[_address]\n      PUSH 0\t\t\tdoctors.public_keys[_address]\n      KECCAK256 \t\t\tdoctors.public_keys[_address]\n      DUP1 \t\t\treturn doctors.public_keys[_ad...\n      SLOAD \t\t\treturn doctors.public_keys[_ad...\n      PUSH [tag] 342\t\t\treturn doctors.public_keys[_ad...\n      SWAP1 \t\t\treturn doctors.public_keys[_ad...\n      PUSH [tag] 161\t\t\treturn doctors.public_keys[_ad...\n      JUMP \t\t\treturn doctors.public_keys[_ad...\n    tag 342\t\t\treturn doctors.public_keys[_ad...\n      JUMPDEST \t\t\treturn doctors.public_keys[_ad...\n      DUP1 \t\t\treturn doctors.public_keys[_ad...\n      PUSH 1F\t\t\treturn doctors.public_keys[_ad...\n      ADD \t\t\treturn doctors.public_keys[_ad...\n      PUSH 20\t\t\treturn doctors.public_keys[_ad...\n      DUP1 \t\t\treturn doctors.public_keys[_ad...\n      SWAP2 \t\t\treturn doctors.public_keys[_ad...\n      DIV \t\t\treturn doctors.public_keys[_ad...\n      MUL \t\t\treturn doctors.public_keys[_ad...\n      PUSH 20\t\t\treturn doctors.public_keys[_ad...\n      ADD \t\t\treturn doctors.public_keys[_ad...\n      PUSH 40\t\t\treturn doctors.public_keys[_ad...\n      MLOAD \t\t\treturn doctors.public_keys[_ad...\n      SWAP1 \t\t\treturn doctors.public_keys[_ad...\n      DUP2 \t\t\treturn doctors.public_keys[_ad...\n      ADD \t\t\treturn doctors.public_keys[_ad...\n      PUSH 40\t\t\treturn doctors.public_keys[_ad...\n      MSTORE \t\t\treturn doctors.public_keys[_ad...\n      DUP1 \t\t\treturn doctors.public_keys[_ad...\n      SWAP3 \t\t\treturn doctors.public_keys[_ad...\n      SWAP2 \t\t\treturn doctors.public_keys[_ad...\n      SWAP1 \t\t\treturn doctors.public_keys[_ad...\n      DUP2 \t\t\treturn doctors.public_keys[_ad...\n      DUP2 \t\t\treturn doctors.public_keys[_ad...\n      MSTORE \t\t\treturn doctors.public_keys[_ad...\n      PUSH 20\t\t\treturn doctors.public_keys[_ad...\n      ADD \t\t\treturn doctors.public_keys[_ad...\n      DUP3 \t\t\treturn doctors.public_keys[_ad...\n      DUP1 \t\t\treturn doctors.public_keys[_ad...\n      SLOAD \t\t\treturn doctors.public_keys[_ad...\n      PUSH [tag] 343\t\t\treturn doctors.public_keys[_ad...\n      SWAP1 \t\t\treturn doctors.public_keys[_ad...\n      PUSH [tag] 161\t\t\treturn doctors.public_keys[_ad...\n      JUMP \t\t\treturn doctors.public_keys[_ad...\n    tag 343\t\t\treturn doctors.public_keys[_ad...\n      JUMPDEST \t\t\treturn doctors.public_keys[_ad...\n      DUP1 \t\t\treturn doctors.public_keys[_ad...\n      ISZERO \t\t\treturn doctors.public_keys[_ad...\n      PUSH [tag] 344\t\t\treturn doctors.public_keys[_ad...\n      JUMPI \t\t\treturn doctors.public_keys[_ad...\n      DUP1 \t\t\treturn doctors.public_keys[_ad...\n      PUSH 1F\t\t\treturn doctors.public_keys[_ad...\n      LT \t\t\treturn doctors.public_keys[_ad...\n      PUSH [tag] 345\t\t\treturn doctors.public_keys[_ad...\n      JUMPI \t\t\treturn doctors.public_keys[_ad...\n      PUSH 100\t\t\treturn doctors.public_keys[_ad...\n      DUP1 \t\t\treturn doctors.public_keys[_ad...\n      DUP4 \t\t\treturn doctors.public_keys[_ad...\n      SLOAD \t\t\treturn doctors.public_keys[_ad...\n      DIV \t\t\treturn doctors.public_keys[_ad...\n      MUL \t\t\treturn doctors.public_keys[_ad...\n      DUP4 \t\t\treturn doctors.public_keys[_ad...\n      MSTORE \t\t\treturn doctors.public_keys[_ad...\n      SWAP2 \t\t\treturn doctors.public_keys[_ad...\n      PUSH 20\t\t\treturn doctors.public_keys[_ad...\n      ADD \t\t\treturn doctors.public_keys[_ad...\n      SWAP2 \t\t\treturn doctors.public_keys[_ad...\n      PUSH [tag] 344\t\t\treturn doctors.public_keys[_ad...\n      JUMP \t\t\treturn doctors.public_keys[_ad...\n    tag 345\t\t\treturn doctors.public_keys[_ad...\n      JUMPDEST \t\t\treturn doctors.public_keys[_ad...\n      DUP3 \t\t\treturn doctors.public_keys[_ad...\n      ADD \t\t\treturn doctors.public_keys[_ad...\n      SWAP2 \t\t\treturn doctors.public_keys[_ad...\n      SWAP1 \t\t\treturn doctors.public_keys[_ad...\n      PUSH 0\t\t\treturn doctors.public_keys[_ad...\n      MSTORE \t\t\treturn doctors.public_keys[_ad...\n      PUSH 20\t\t\treturn doctors.public_keys[_ad...\n      PUSH 0\t\t\treturn doctors.public_keys[_ad...\n      KECCAK256 \t\t\treturn doctors.public_keys[_ad...\n      SWAP1 \t\t\treturn doctors.public_keys[_ad...\n    tag 346\t\t\treturn doctors.public_keys[_ad...\n      JUMPDEST \t\t\treturn doctors.public_keys[_ad...\n      DUP2 \t\t\treturn doctors.public_keys[_ad...\n      SLOAD \t\t\treturn doctors.public_keys[_ad...\n      DUP2 \t\t\treturn doctors.public_keys[_ad...\n      MSTORE \t\t\treturn doctors.public_keys[_ad...\n      SWAP1 \t\t\treturn doctors.public_keys[_ad...\n      PUSH 1\t\t\treturn doctors.public_keys[_ad...\n      ADD \t\t\treturn doctors.public_keys[_ad...\n      SWAP1 \t\t\treturn doctors.public_keys[_ad...\n      PUSH 20\t\t\treturn doctors.public_keys[_ad...\n      ADD \t\t\treturn doctors.public_keys[_ad...\n      DUP1 \t\t\treturn doctors.public_keys[_ad...\n      DUP4 \t\t\treturn doctors.public_keys[_ad...\n      GT \t\t\treturn doctors.public_keys[_ad...\n      PUSH [tag] 346\t\t\treturn doctors.public_keys[_ad...\n      JUMPI \t\t\treturn doctors.public_keys[_ad...\n      DUP3 \t\t\treturn doctors.public_keys[_ad...\n      SWAP1 \t\t\treturn doctors.public_keys[_ad...\n      SUB \t\t\treturn doctors.public_keys[_ad...\n      PUSH 1F\t\t\treturn doctors.public_keys[_ad...\n      AND \t\t\treturn doctors.public_keys[_ad...\n      DUP3 \t\t\treturn doctors.public_keys[_ad...\n      ADD \t\t\treturn doctors.public_keys[_ad...\n      SWAP2 \t\t\treturn doctors.public_keys[_ad...\n    tag 344\t\t\treturn doctors.public_keys[_ad...\n      JUMPDEST \t\t\treturn doctors.public_keys[_ad...\n      POP \t\t\treturn doctors.public_keys[_ad...\n      POP \t\t\treturn doctors.public_keys[_ad...\n      POP \t\t\treturn doctors.public_keys[_ad...\n      POP \t\t\treturn doctors.public_keys[_ad...\n      POP \t\t\treturn doctors.public_keys[_ad...\n      SWAP1 \t\t\treturn doctors.public_keys[_ad...\n      POP \t\t\treturn doctors.public_keys[_ad...\n      SWAP2 \t\t\tfunction getDrPubKey(address _...\n      SWAP1 \t\t\tfunction getDrPubKey(address _...\n      POP \t\t\tfunction getDrPubKey(address _...\n      JUMP \t\t\tfunction getDrPubKey(address _...\n    tag 143\t\t\tfunction getPendingDrs() publi...\n      JUMPDEST \t\t\tfunction getPendingDrs() publi...\n      PUSH 60\t\t\taddress[] memory\n      PUSH 0\t\t\tadmin\n      PUSH 2\t\t\tadmin.pending_doctors\n      ADD \t\t\tadmin.pending_doctors\n      PUSH 0\t\t\tadmin.pending_doctors.keys\n      ADD \t\t\tadmin.pending_doctors.keys\n      DUP1 \t\t\treturn admin.pending_doctors.k...\n      SLOAD \t\t\treturn admin.pending_doctors.k...\n      DUP1 \t\t\treturn admin.pending_doctors.k...\n      PUSH 20\t\t\treturn admin.pending_doctors.k...\n      MUL \t\t\treturn admin.pending_doctors.k...\n      PUSH 20\t\t\treturn admin.pending_doctors.k...\n      ADD \t\t\treturn admin.pending_doctors.k...\n      PUSH 40\t\t\treturn admin.pending_doctors.k...\n      MLOAD \t\t\treturn admin.pending_doctors.k...\n      SWAP1 \t\t\treturn admin.pending_doctors.k...\n      DUP2 \t\t\treturn admin.pending_doctors.k...\n      ADD \t\t\treturn admin.pending_doctors.k...\n      PUSH 40\t\t\treturn admin.pending_doctors.k...\n      MSTORE \t\t\treturn admin.pending_doctors.k...\n      DUP1 \t\t\treturn admin.pending_doctors.k...\n      SWAP3 \t\t\treturn admin.pending_doctors.k...\n      SWAP2 \t\t\treturn admin.pending_doctors.k...\n      SWAP1 \t\t\treturn admin.pending_doctors.k...\n      DUP2 \t\t\treturn admin.pending_doctors.k...\n      DUP2 \t\t\treturn admin.pending_doctors.k...\n      MSTORE \t\t\treturn admin.pending_doctors.k...\n      PUSH 20\t\t\treturn admin.pending_doctors.k...\n      ADD \t\t\treturn admin.pending_doctors.k...\n      DUP3 \t\t\treturn admin.pending_doctors.k...\n      DUP1 \t\t\treturn admin.pending_doctors.k...\n      SLOAD \t\t\treturn admin.pending_doctors.k...\n      DUP1 \t\t\treturn admin.pending_doctors.k...\n      ISZERO \t\t\treturn admin.pending_doctors.k...\n      PUSH [tag] 348\t\t\treturn admin.pending_doctors.k...\n      JUMPI \t\t\treturn admin.pending_doctors.k...\n      PUSH 20\t\t\treturn admin.pending_doctors.k...\n      MUL \t\t\treturn admin.pending_doctors.k...\n      DUP3 \t\t\treturn admin.pending_doctors.k...\n      ADD \t\t\treturn admin.pending_doctors.k...\n      SWAP2 \t\t\treturn admin.pending_doctors.k...\n      SWAP1 \t\t\treturn admin.pending_doctors.k...\n      PUSH 0\t\t\treturn admin.pending_doctors.k...\n      MSTORE \t\t\treturn admin.pending_doctors.k...\n      PUSH 20\t\t\treturn admin.pending_doctors.k...\n      PUSH 0\t\t\treturn admin.pending_doctors.k...\n      KECCAK256 \t\t\treturn admin.pending_doctors.k...\n      SWAP1 \t\t\treturn admin.pending_doctors.k...\n    tag 349\t\t\treturn admin.pending_doctors.k...\n      JUMPDEST \t\t\treturn admin.pending_doctors.k...\n      DUP2 \t\t\treturn admin.pending_doctors.k...\n      PUSH 0\t\t\treturn admin.pending_doctors.k...\n      SWAP1 \t\t\treturn admin.pending_doctors.k...\n      SLOAD \t\t\treturn admin.pending_doctors.k...\n      SWAP1 \t\t\treturn admin.pending_doctors.k...\n      PUSH 100\t\t\treturn admin.pending_doctors.k...\n      EXP \t\t\treturn admin.pending_doctors.k...\n      SWAP1 \t\t\treturn admin.pending_doctors.k...\n      DIV \t\t\treturn admin.pending_doctors.k...\n      PUSH FFFFFFFFFFFFFFFFFFFFFFFFFFFFFFFFFFFFFFFF\t\t\treturn admin.pending_doctors.k...\n      AND \t\t\treturn admin.pending_doctors.k...\n      PUSH FFFFFFFFFFFFFFFFFFFFFFFFFFFFFFFFFFFFFFFF\t\t\treturn admin.pending_doctors.k...\n      AND \t\t\treturn admin.pending_doctors.k...\n      DUP2 \t\t\treturn admin.pending_doctors.k...\n      MSTORE \t\t\treturn admin.pending_doctors.k...\n      PUSH 20\t\t\treturn admin.pending_doctors.k...\n      ADD \t\t\treturn admin.pending_doctors.k...\n      SWAP1 \t\t\treturn admin.pending_doctors.k...\n      PUSH 1\t\t\treturn admin.pending_doctors.k...\n      ADD \t\t\treturn admin.pending_doctors.k...\n      SWAP1 \t\t\treturn admin.pending_doctors.k...\n      DUP1 \t\t\treturn admin.pending_doctors.k...\n      DUP4 \t\t\treturn admin.pending_doctors.k...\n      GT \t\t\treturn admin.pending_doctors.k...\n      PUSH [tag] 349\t\t\treturn admin.pending_doctors.k...\n      JUMPI \t\t\treturn admin.pending_doctors.k...\n    tag 348\t\t\treturn admin.pending_doctors.k...\n      JUMPDEST \t\t\treturn admin.pending_doctors.k...\n      POP \t\t\treturn admin.pending_doctors.k...\n      POP \t\t\treturn admin.pending_doctors.k...\n      POP \t\t\treturn admin.pending_doctors.k...\n      POP \t\t\treturn admin.pending_doctors.k...\n      POP \t\t\treturn admin.pending_doctors.k...\n      SWAP1 \t\t\treturn admin.pending_doctors.k...\n      POP \t\t\treturn admin.pending_doctors.k...\n      SWAP1 \t\t\tfunction getPendingDrs() publi...\n      JUMP \t\t\tfunction getPendingDrs() publi...\n    tag 147\t\t\tfunction revokeViewerAccess(ad...\n      JUMPDEST \t\t\tfunction revokeViewerAccess(ad...\n      PUSH [tag] 351\t\t\tisPatient(msg.sender)\n      CALLER \t\t\tmsg.sender\n      PUSH [tag] 99\t\t\tisPatient\n      JUMP \t\t\tisPatient(msg.sender)\n    tag 351\t\t\tisPatient(msg.sender)\n      JUMPDEST \t\t\tisPatient(msg.sender)\n      PUSH [tag] 352\t\t\tif (!isPatient(msg.sender)) re...\n      JUMPI \t\t\tif (!isPatient(msg.sender)) re...\n      PUSH 40\t\t\tContract__NotPatient()\n      MLOAD \t\t\tContract__NotPatient()\n      PUSH C11330E600000000000000000000000000000000000000000000000000000000\t\t\tContract__NotPatient()\n      DUP2 \t\t\tContract__NotPatient()\n      MSTORE \t\t\tContract__NotPatient()\n      PUSH 4\t\t\tContract__NotPatient()\n      ADD \t\t\tContract__NotPatient()\n      PUSH 40\t\t\tContract__NotPatient()\n      MLOAD \t\t\tContract__NotPatient()\n      DUP1 \t\t\tContract__NotPatient()\n      SWAP2 \t\t\tContract__NotPatient()\n      SUB \t\t\tContract__NotPatient()\n      SWAP1 \t\t\tContract__NotPatient()\n      REVERT \t\t\tContract__NotPatient()\n    tag 352\t\t\tif (!isPatient(msg.sender)) re...\n      JUMPDEST \t\t\tif (!isPatient(msg.sender)) re...\n      PUSH [tag] 354\t\t\tisDoctor(_address)\n      DUP2 \t\t\t_address\n      PUSH [tag] 103\t\t\tisDoctor\n      JUMP \t\t\tisDoctor(_address)\n    tag 354\t\t\tisDoctor(_address)\n      JUMPDEST \t\t\tisDoctor(_address)\n      PUSH [tag] 355\t\t\tif (!isDoctor(_address)) rever...\n      JUMPI \t\t\tif (!isDoctor(_address)) rever...\n      PUSH 40\t\t\tContract__NotDoctor()\n      MLOAD \t\t\tContract__NotDoctor()\n      PUSH FE2FC9C600000000000000000000000000000000000000000000000000000000\t\t\tContract__NotDoctor()\n      DUP2 \t\t\tContract__NotDoctor()\n      MSTORE \t\t\tContract__NotDoctor()\n      PUSH 4\t\t\tContract__NotDoctor()\n      ADD \t\t\tContract__NotDoctor()\n      PUSH 40\t\t\tContract__NotDoctor()\n      MLOAD \t\t\tContract__NotDoctor()\n      DUP1 \t\t\tContract__NotDoctor()\n      SWAP2 \t\t\tContract__NotDoctor()\n      SUB \t\t\tContract__NotDoctor()\n      SWAP1 \t\t\tContract__NotDoctor()\n      REVERT \t\t\tContract__NotDoctor()\n    tag 355\t\t\tif (!isDoctor(_address)) rever...\n      JUMPDEST \t\t\tif (!isDoctor(_address)) rever...\n      PUSH [tag] 356\t\t\tpatients.records[msg.sender].v...\n      DUP2 \t\t\t_address\n      PUSH B\t\t\tpatients\n      PUSH 4\t\t\tpatients.records\n      ADD \t\t\tpatients.records\n      PUSH 0\t\t\tpatients.records[msg.sender]\n      CALLER \t\t\tmsg.sender\n      PUSH FFFFFFFFFFFFFFFFFFFFFFFFFFFFFFFFFFFFFFFF\t\t\tpatients.records[msg.sender]\n      AND \t\t\tpatients.records[msg.sender]\n      PUSH FFFFFFFFFFFFFFFFFFFFFFFFFFFFFFFFFFFFFFFF\t\t\tpatients.records[msg.sender]\n      AND \t\t\tpatients.records[msg.sender]\n      DUP2 \t\t\tpatients.records[msg.sender]\n      MSTORE \t\t\tpatients.records[msg.sender]\n      PUSH 20\t\t\tpatients.records[msg.sender]\n      ADD \t\t\tpatients.records[msg.sender]\n      SWAP1 \t\t\tpatients.records[msg.sender]\n      DUP2 \t\t\tpatients.records[msg.sender]\n      MSTORE \t\t\tpatients.records[msg.sender]\n      PUSH 20\t\t\tpatients.records[msg.sender]\n      ADD \t\t\tpatients.records[msg.sender]\n      PUSH 0\t\t\tpatients.records[msg.sender]\n      KECCAK256 \t\t\tpatients.records[msg.sender]\n      PUSH 1\t\t\tpatients.records[msg.sender].v...\n      ADD \t\t\tpatients.records[msg.sender].v...\n      PUSH [tag] 357\t\t\tpatients.records[msg.sender].v...\n      SWAP1 \t\t\tpatients.records[msg.sender].v...\n      SWAP2 \t\t\tpatients.records[msg.sender].v...\n      SWAP1 \t\t\tpatients.records[msg.sender].v...\n      PUSH FFFFFFFF\t\t\tpatients.records[msg.sender].v...\n      AND \t\t\tpatients.records[msg.sender].v...\n      JUMP \t\t\tpatients.records[msg.sender].v...\n    tag 356\t\t\tpatients.records[msg.sender].v...\n      JUMPDEST \t\t\tpatients.records[msg.sender].v...\n      POP \t\t\tpatients.records[msg.sender].v...\n      POP \t\t\tfunction revokeViewerAccess(ad...\n      JUMP \t\t\tfunction revokeViewerAccess(ad...\n    tag 155\t\t\t      string public_key;\\n    ...\n      JUMPDEST \t\t\t      string public_key;\\n    ...\n      PUSH 0\t\t\t   }\n      DUP1 \t\t\to\n      PUSH FFFFFFFFFFFFFFFFFFFFFFFFFFFFFFFFFFFFFFFF\t\t\ts {\\n        Roles.Rol\n      AND \t\t\ts {\\n        Roles.Rol\n      DUP3 \t\t\ts {\\n   \n      PUSH FFFFFFFFFFFFFFFFFFFFFFFFFFFFFFFFFFFFFFFF\t\t\ts {\\n        Roles.Rol\n      AND \t\t\ts {\\n        Roles.Rol\n      SUB \t\t\ts {\\n        Roles.Rol\n      PUSH [tag] 359\t\t\t Patients {\\n        Roles.Rol...\n      JUMPI \t\t\t Patients {\\n        Roles.Rol...\n      PUSH 40\t\t\t Patients {\\n        Roles.Rol...\n      MLOAD \t\t\t Patients {\\n        Roles.Rol...\n      PUSH 8C379A000000000000000000000000000000000000000000000000000000000\t\t\t Patients {\\n        Roles.Rol...\n      DUP2 \t\t\t Patients {\\n        Roles.Rol...\n      MSTORE \t\t\t Patients {\\n        Roles.Rol...\n      PUSH 4\t\t\t Patients {\\n        Roles.Rol...\n      ADD \t\t\t Patients {\\n        Roles.Rol...\n      PUSH [tag] 360\t\t\t Patients {\\n        Roles.Rol...\n      SWAP1 \t\t\t Patients {\\n        Roles.Rol...\n      PUSH [tag] 361\t\t\t Patients {\\n        Roles.Rol...\n      JUMP \t\t\t Patients {\\n        Roles.Rol...\n    tag 360\t\t\t Patients {\\n        Roles.Rol...\n      JUMPDEST \t\t\t Patients {\\n        Roles.Rol...\n      PUSH 40\t\t\t Patients {\\n        Roles.Rol...\n      MLOAD \t\t\t Patients {\\n        Roles.Rol...\n      DUP1 \t\t\t Patients {\\n        Roles.Rol...\n      SWAP2 \t\t\t Patients {\\n        Roles.Rol...\n      SUB \t\t\t Patients {\\n        Roles.Rol...\n      SWAP1 \t\t\t Patients {\\n        Roles.Rol...\n      REVERT \t\t\t Patients {\\n        Roles.Rol...\n    tag 359\t\t\t Patients {\\n        Roles.Rol...\n      JUMPDEST \t\t\t Patients {\\n        Roles.Rol...\n      PUSH 0\t\t\tl\n      PUSH [tag] 362\t\t\t  }\\n\\n    struct Doctors \n      DUP4 \t\t\tDoctors\n      DUP6 \t\t\t  }\\n\n      PUSH 0\t\t\t  }\\n\\n    st\n      ADD \t\t\t  }\\n\\n    st\n      PUSH [tag] 363\t\t\t  }\\n\\n    struct\n      SWAP1 \t\t\t  }\\n\\n    struct\n      SWAP2 \t\t\t  }\\n\\n    struct Doctors \n      SWAP1 \t\t\t  }\\n\\n    struct Doctors \n      PUSH FFFFFFFF\t\t\t  }\\n\\n    struct Doctors \n      AND \t\t\t  }\\n\\n    struct Doctors \n      JUMP \t\t\t  }\\n\\n    struct Doctors \n    tag 362\t\t\t  }\\n\\n    struct Doctors \n      JUMPDEST \t\t\t  }\\n\\n    struct Doctors \n      MLOAD \t\t\tds;\\n    }\\n\\n    struct Docto...\n      EQ \t\t\tds;\\n    }\\n\\n    struct Docto...\n      ISZERO \t\t\tds;\\n    }\\n\\n    struct Docto...\n      SWAP1 \t\t\t) records;\\n    }\\n\\n    struc...\n      POP \t\t\t) records;\\n    }\\n\\n    struc...\n      SWAP3 \t\t\t      string public_key;\\n    ...\n      SWAP2 \t\t\t      string public_key;\\n    ...\n      POP \t\t\t      string public_key;\\n    ...\n      POP \t\t\t      string public_key;\\n    ...\n      JUMP \t\t\t      string public_key;\\n    ...\n    tag 158\t\t\t hashes\\n    Admin private adm...\n      JUMPDEST \t\t\t hashes\\n    Admin private adm...\n      DUP2 \t\t\tien\n      PUSH 1\t\t\tients priv\n      ADD \t\t\tients priv\n      PUSH 0\t\t\tients private p\n      DUP3 \t\t\tte \n      PUSH FFFFFFFFFFFFFFFFFFFFFFFFFFFFFFFFFFFFFFFF\t\t\tients private p\n      AND \t\t\tients private p\n      PUSH FFFFFFFFFFFFFFFFFFFFFFFFFFFFFFFFFFFFFFFF\t\t\tients private p\n      AND \t\t\tients private p\n      DUP2 \t\t\tients private p\n      MSTORE \t\t\tients private p\n      PUSH 20\t\t\tients private p\n      ADD \t\t\tients private p\n      SWAP1 \t\t\tients private p\n      DUP2 \t\t\tients private p\n      MSTORE \t\t\tients private p\n      PUSH 20\t\t\tients private p\n      ADD \t\t\tients private p\n      PUSH 0\t\t\tients private p\n      KECCAK256 \t\t\tients private p\n      PUSH 0\t\t\tients private p\n      SWAP1 \t\t\tients private p\n      SLOAD \t\t\tients private p\n      SWAP1 \t\t\tients private p\n      PUSH 100\t\t\tients private p\n      EXP \t\t\tients private p\n      SWAP1 \t\t\tients private p\n      DIV \t\t\tients private p\n      PUSH FF\t\t\tients private p\n      AND \t\t\tients private p\n      ISZERO \t\t\t  Patients private patients;\\n\n      PUSH [tag] 364\t\t\tients;\\n\n      JUMPI \t\t\t  Patients private patients;\\n\n      DUP2 \t\t\t   \n      PUSH 1\t\t\t        ad\n      ADD \t\t\t        ad\n      PUSH 0\t\t\t        admin.u\n      DUP3 \t\t\tin.\n      PUSH FFFFFFFFFFFFFFFFFFFFFFFFFFFFFFFFFFFFFFFF\t\t\t        admin.u\n      AND \t\t\t        admin.u\n      PUSH FFFFFFFFFFFFFFFFFFFFFFFFFFFFFFFFFFFFFFFF\t\t\t        admin.u\n      AND \t\t\t        admin.u\n      DUP2 \t\t\t        admin.u\n      MSTORE \t\t\t        admin.u\n      PUSH 20\t\t\t        admin.u\n      ADD \t\t\t        admin.u\n      SWAP1 \t\t\t        admin.u\n      DUP2 \t\t\t        admin.u\n      MSTORE \t\t\t        admin.u\n      PUSH 20\t\t\t        admin.u\n      ADD \t\t\t        admin.u\n      PUSH 0\t\t\t        admin.u\n      KECCAK256 \t\t\t        admin.u\n      PUSH 0\t\t\t        admin.u\n      PUSH 100\t\t\tor() {\\n        admin.u\n      EXP \t\t\tor() {\\n        admin.u\n      DUP2 \t\t\tor() {\\n        admin.u\n      SLOAD \t\t\tor() {\\n        admin.u\n      SWAP1 \t\t\tor() {\\n        admin.u\n      PUSH FF\t\t\tor() {\\n        admin.u\n      MUL \t\t\tor() {\\n        admin.u\n      NOT \t\t\tor() {\\n        admin.u\n      AND \t\t\tor() {\\n        admin.u\n      SWAP1 \t\t\tor() {\\n        admin.u\n      SSTORE \t\t\tor() {\\n        admin.u\n      PUSH 0\t\t\tthods\\n    fun\n      DUP3 \t\t\ton \n      PUSH 2\t\t\ton isAdmin(\n      ADD \t\t\ton isAdmin(\n      PUSH 0\t\t\ton isAdmin(addre\n      DUP4 \t\t\tddr\n      PUSH FFFFFFFFFFFFFFFFFFFFFFFFFFFFFFFFFFFFFFFF\t\t\ton isAdmin(addre\n      AND \t\t\ton isAdmin(addre\n      PUSH FFFFFFFFFFFFFFFFFFFFFFFFFFFFFFFFFFFFFFFF\t\t\ton isAdmin(addre\n      AND \t\t\ton isAdmin(addre\n      DUP2 \t\t\ton isAdmin(addre\n      MSTORE \t\t\ton isAdmin(addre\n      PUSH 20\t\t\ton isAdmin(addre\n      ADD \t\t\ton isAdmin(addre\n      SWAP1 \t\t\ton isAdmin(addre\n      DUP2 \t\t\ton isAdmin(addre\n      MSTORE \t\t\ton isAdmin(addre\n      PUSH 20\t\t\ton isAdmin(addre\n      ADD \t\t\ton isAdmin(addre\n      PUSH 0\t\t\ton isAdmin(addre\n      KECCAK256 \t\t\ton isAdmin(addre\n      SLOAD \t\t\ton isAdmin(addre\n      SWAP1 \t\t\tthods\\n    function isAdmin(ad...\n      POP \t\t\tthods\\n    function isAdmin(ad...\n      PUSH 0\t\t\ts) public view re\n      PUSH 1\t\t\t \n      DUP5 \t\t\tns \n      PUSH 0\t\t\tns (bool\n      ADD \t\t\tns (bool\n      DUP1 \t\t\tns (bool) {\\n   \n      SLOAD \t\t\tns (bool) {\\n   \n      SWAP1 \t\t\tns (bool) {\\n   \n      POP \t\t\tns (bool) {\\n   \n      PUSH [tag] 366\t\t\tns (bool) {\\n       \n      SWAP2 \t\t\tns (bool) {\\n       \n      SWAP1 \t\t\tns (bool) {\\n       \n      PUSH [tag] 367\t\t\tns (bool) {\\n       \n      JUMP \t\t\tns (bool) {\\n       \n    tag 366\t\t\tns (bool) {\\n       \n      JUMPDEST \t\t\tns (bool) {\\n       \n      SWAP1 \t\t\ts) public view returns (bool) ...\n      POP \t\t\ts) public view returns (bool) ...\n      PUSH 0\t\t\t.user == _addre\n      DUP5 \t\t\t re\n      PUSH 0\t\t\t return \n      ADD \t\t\t return \n      DUP3 \t\t\true;\\n    \n      DUP2 \t\t\t return true;\\n     \n      SLOAD \t\t\t return true;\\n     \n      DUP2 \t\t\t return true;\\n     \n      LT \t\t\t return true;\\n     \n      PUSH [tag] 368\t\t\t return true;\\n     \n      JUMPI \t\t\t return true;\\n     \n      PUSH [tag] 369\t\t\t return true;\\n     \n      PUSH [tag] 370\t\t\t return true;\\n     \n      JUMP \t\t\t return true;\\n     \n    tag 369\t\t\t return true;\\n     \n      JUMPDEST \t\t\t return true;\\n     \n    tag 368\t\t\t return true;\\n     \n      JUMPDEST \t\t\t return true;\\n     \n      SWAP1 \t\t\t return true;\\n     \n      PUSH 0\t\t\t return true;\\n     \n      MSTORE \t\t\t return true;\\n     \n      PUSH 20\t\t\t return true;\\n     \n      PUSH 0\t\t\t return true;\\n     \n      KECCAK256 \t\t\t return true;\\n     \n      ADD \t\t\t return true;\\n     \n      PUSH 0\t\t\t return true;\\n     \n      SWAP1 \t\t\t return true;\\n     \n      SLOAD \t\t\t return true;\\n     \n      SWAP1 \t\t\t return true;\\n     \n      PUSH 100\t\t\t return true;\\n     \n      EXP \t\t\t return true;\\n     \n      SWAP1 \t\t\t return true;\\n     \n      DIV \t\t\t return true;\\n     \n      PUSH FFFFFFFFFFFFFFFFFFFFFFFFFFFFFFFFFFFFFFFF\t\t\t return true;\\n     \n      AND \t\t\t return true;\\n     \n      SWAP1 \t\t\t.user == _address) return true...\n      POP \t\t\t.user == _address) return true...\n      DUP3 \t\t\tess) \n      DUP6 \t\t\tbli\n      PUSH 2\t\t\tblic view r\n      ADD \t\t\tblic view r\n      PUSH 0\t\t\tblic view returns (a\n      DUP4 \t\t\tturns (\n      PUSH FFFFFFFFFFFFFFFFFFFFFFFFFFFFFFFFFFFFFFFF\t\t\tblic view returns (a\n      AND \t\t\tblic view returns (a\n      PUSH FFFFFFFFFFFFFFFFFFFFFFFFFFFFFFFFFFFFFFFF\t\t\tblic view returns (a\n      AND \t\t\tblic view returns (a\n      DUP2 \t\t\tblic view returns (a\n      MSTORE \t\t\tblic view returns (a\n      PUSH 20\t\t\tblic view returns (a\n      ADD \t\t\tblic view returns (a\n      SWAP1 \t\t\tblic view returns (a\n      DUP2 \t\t\tblic view returns (a\n      MSTORE \t\t\tblic view returns (a\n      PUSH 20\t\t\tblic view returns (a\n      ADD \t\t\tblic view returns (a\n      PUSH 0\t\t\tblic view returns (a\n      KECCAK256 \t\t\tblic view returns (a\n      DUP2 \t\t\tblic view returns (address) \n      SWAP1 \t\t\tblic view returns (address) \n      SSTORE \t\t\tblic view returns (address) \n      POP \t\t\tblic view returns (address) \n      DUP5 \t\t\tadm\n      PUSH 2\t\t\tadmin.user;\n      ADD \t\t\tadmin.user;\n      PUSH 0\t\t\tadmin.user;\\n    \n      DUP6 \t\t\t   \n      PUSH FFFFFFFFFFFFFFFFFFFFFFFFFFFFFFFFFFFFFFFF\t\t\tadmin.user;\\n    \n      AND \t\t\tadmin.user;\\n    \n      PUSH FFFFFFFFFFFFFFFFFFFFFFFFFFFFFFFFFFFFFFFF\t\t\tadmin.user;\\n    \n      AND \t\t\tadmin.user;\\n    \n      DUP2 \t\t\tadmin.user;\\n    \n      MSTORE \t\t\tadmin.user;\\n    \n      PUSH 20\t\t\tadmin.user;\\n    \n      ADD \t\t\tadmin.user;\\n    \n      SWAP1 \t\t\tadmin.user;\\n    \n      DUP2 \t\t\tadmin.user;\\n    \n      MSTORE \t\t\tadmin.user;\\n    \n      PUSH 20\t\t\tadmin.user;\\n    \n      ADD \t\t\tadmin.user;\\n    \n      PUSH 0\t\t\tadmin.user;\\n    \n      KECCAK256 \t\t\tadmin.user;\\n    \n      PUSH 0\t\t\treturn admin.user;\\n    \n      SWAP1 \t\t\treturn admin.user;\\n    \n      SSTORE \t\t\treturn admin.user;\\n    \n      DUP1 \t\t\t public\n      DUP6 \t\t\temo\n      PUSH 0\t\t\temory _p\n      ADD \t\t\temory _p\n      DUP5 \t\t\tblic_\n      DUP2 \t\t\temory _public_k\n      SLOAD \t\t\temory _public_k\n      DUP2 \t\t\temory _public_k\n      LT \t\t\temory _public_k\n      PUSH [tag] 372\t\t\temory _public_k\n      JUMPI \t\t\temory _public_k\n      PUSH [tag] 373\t\t\temory _public_k\n      PUSH [tag] 370\t\t\temory _public_k\n      JUMP \t\t\temory _public_k\n    tag 373\t\t\temory _public_k\n      JUMPDEST \t\t\temory _public_k\n    tag 372\t\t\temory _public_k\n      JUMPDEST \t\t\temory _public_k\n      SWAP1 \t\t\temory _public_k\n      PUSH 0\t\t\temory _public_k\n      MSTORE \t\t\temory _public_k\n      PUSH 20\t\t\temory _public_k\n      PUSH 0\t\t\temory _public_k\n      KECCAK256 \t\t\temory _public_k\n      ADD \t\t\temory _public_k\n      PUSH 0\t\t\temory _public_k\n      PUSH 100\t\t\temory _public_key) public\n      EXP \t\t\temory _public_key) public\n      DUP2 \t\t\temory _public_key) public\n      SLOAD \t\t\temory _public_key) public\n      DUP2 \t\t\temory _public_key) public\n      PUSH FFFFFFFFFFFFFFFFFFFFFFFFFFFFFFFFFFFFFFFF\t\t\temory _public_key) public\n      MUL \t\t\temory _public_key) public\n      NOT \t\t\temory _public_key) public\n      AND \t\t\temory _public_key) public\n      SWAP1 \t\t\temory _public_key) public\n      DUP4 \t\t\temory _public_key) public\n      PUSH FFFFFFFFFFFFFFFFFFFFFFFFFFFFFFFFFFFFFFFF\t\t\temory _public_key) public\n      AND \t\t\temory _public_key) public\n      MUL \t\t\temory _public_key) public\n      OR \t\t\temory _public_key) public\n      SWAP1 \t\t\temory _public_key) public\n      SSTORE \t\t\temory _public_key) public\n      POP \t\t\temory _public_key) public\n      DUP5 \t\t\t {\\n\n      PUSH 0\t\t\t {\\n     \n      ADD \t\t\t {\\n     \n      DUP1 \t\t\t {\\n        adm\n      SLOAD \t\t\t {\\n        adm\n      DUP1 \t\t\t {\\n        adm\n      PUSH [tag] 375\t\t\t {\\n        adm\n      JUMPI \t\t\t {\\n        adm\n      PUSH [tag] 376\t\t\t {\\n        adm\n      PUSH [tag] 377\t\t\t {\\n        adm\n      JUMP \t\t\t {\\n        adm\n    tag 376\t\t\t {\\n        adm\n      JUMPDEST \t\t\t {\\n        adm\n    tag 375\t\t\t {\\n        adm\n      JUMPDEST \t\t\t {\\n        adm\n      PUSH 1\t\t\t {\\n        adm\n      SWAP1 \t\t\t {\\n        adm\n      SUB \t\t\t {\\n        adm\n      DUP2 \t\t\t {\\n        adm\n      DUP2 \t\t\t {\\n        adm\n      SWAP1 \t\t\t {\\n        adm\n      PUSH 0\t\t\t {\\n        adm\n      MSTORE \t\t\t {\\n        adm\n      PUSH 20\t\t\t {\\n        adm\n      PUSH 0\t\t\t {\\n        adm\n      KECCAK256 \t\t\t {\\n        adm\n      ADD \t\t\t {\\n        adm\n      PUSH 0\t\t\t {\\n        adm\n      PUSH 100\t\t\t {\\n        adm\n      EXP \t\t\t {\\n        adm\n      DUP2 \t\t\t {\\n        adm\n      SLOAD \t\t\t {\\n        adm\n      SWAP1 \t\t\t {\\n        adm\n      PUSH FFFFFFFFFFFFFFFFFFFFFFFFFFFFFFFFFFFFFFFF\t\t\t {\\n        adm\n      MUL \t\t\t {\\n        adm\n      NOT \t\t\t {\\n        adm\n      AND \t\t\t {\\n        adm\n      SWAP1 \t\t\t {\\n        adm\n      SSTORE \t\t\t {\\n        adm\n      SWAP1 \t\t\t {\\n        adm\n      SSTORE \t\t\t {\\n        adm\n      POP \t\t\toctors;\\n    Patients private ...\n      POP \t\t\toctors;\\n    Patients private ...\n      POP \t\t\toctors;\\n    Patients private ...\n    tag 364\t\t\t hashes\\n    Admin private adm...\n      JUMPDEST \t\t\t hashes\\n    Admin private adm...\n      POP \t\t\t hashes\\n    Admin private adm...\n      POP \t\t\t hashes\\n    Admin private adm...\n      JUMP \t\t\t hashes\\n    Admin private adm...\n    tag 168\t\t\ttructor() {\\n        admin.use...\n      JUMPDEST \t\t\ttructor() {\\n        admin.use...\n      PUSH 60\t\t\tin methods\\n    f\n      DUP2 \t\t\tress\n      PUSH 0\t\t\tress _addre\n      ADD \t\t\tress _addre\n      PUSH 0\t\t\tress _address) p\n      ADD \t\t\tress _address) p\n      DUP1 \t\t\tmin(address _address) p\n      SLOAD \t\t\tmin(address _address) p\n      DUP1 \t\t\tmin(address _address) p\n      PUSH 20\t\t\tmin(address _address) p\n      MUL \t\t\tmin(address _address) p\n      PUSH 20\t\t\tmin(address _address) p\n      ADD \t\t\tmin(address _address) p\n      PUSH 40\t\t\tmin(address _address) p\n      MLOAD \t\t\tmin(address _address) p\n      SWAP1 \t\t\tmin(address _address) p\n      DUP2 \t\t\tmin(address _address) p\n      ADD \t\t\tmin(address _address) p\n      PUSH 40\t\t\tmin(address _address) p\n      MSTORE \t\t\tmin(address _address) p\n      DUP1 \t\t\tmin(address _address) p\n      SWAP3 \t\t\tmin(address _address) p\n      SWAP2 \t\t\tmin(address _address) p\n      SWAP1 \t\t\tmin(address _address) p\n      DUP2 \t\t\tmin(address _address) p\n      DUP2 \t\t\tmin(address _address) p\n      MSTORE \t\t\tmin(address _address) p\n      PUSH 20\t\t\tmin(address _address) p\n      ADD \t\t\tmin(address _address) p\n      DUP3 \t\t\tmin(address _address) p\n      DUP1 \t\t\tmin(address _address) p\n      SLOAD \t\t\tmin(address _address) p\n      DUP1 \t\t\tmin(address _address) p\n      ISZERO \t\t\tmin(address _address) p\n      PUSH [tag] 380\t\t\tmin(address _address) p\n      JUMPI \t\t\tmin(address _address) p\n      PUSH 20\t\t\tmin(address _address) p\n      MUL \t\t\tmin(address _address) p\n      DUP3 \t\t\tmin(address _address) p\n      ADD \t\t\tmin(address _address) p\n      SWAP2 \t\t\tmin(address _address) p\n      SWAP1 \t\t\tmin(address _address) p\n      PUSH 0\t\t\tmin(address _address) p\n      MSTORE \t\t\tmin(address _address) p\n      PUSH 20\t\t\tmin(address _address) p\n      PUSH 0\t\t\tmin(address _address) p\n      KECCAK256 \t\t\tmin(address _address) p\n      SWAP1 \t\t\tmin(address _address) p\n    tag 381\t\t\tmin(address _address) p\n      JUMPDEST \t\t\tmin(address _address) p\n      DUP2 \t\t\tmin(address _address) p\n      PUSH 0\t\t\tmin(address _address) p\n      SWAP1 \t\t\tmin(address _address) p\n      SLOAD \t\t\tmin(address _address) p\n      SWAP1 \t\t\tmin(address _address) p\n      PUSH 100\t\t\tmin(address _address) p\n      EXP \t\t\tmin(address _address) p\n      SWAP1 \t\t\tmin(address _address) p\n      DIV \t\t\tmin(address _address) p\n      PUSH FFFFFFFFFFFFFFFFFFFFFFFFFFFFFFFFFFFFFFFF\t\t\tmin(address _address) p\n      AND \t\t\tmin(address _address) p\n      PUSH FFFFFFFFFFFFFFFFFFFFFFFFFFFFFFFFFFFFFFFF\t\t\tmin(address _address) p\n      AND \t\t\tmin(address _address) p\n      DUP2 \t\t\tmin(address _address) p\n      MSTORE \t\t\tmin(address _address) p\n      PUSH 20\t\t\tmin(address _address) p\n      ADD \t\t\tmin(address _address) p\n      SWAP1 \t\t\tmin(address _address) p\n      PUSH 1\t\t\tmin(address _address) p\n      ADD \t\t\tmin(address _address) p\n      SWAP1 \t\t\tmin(address _address) p\n      DUP1 \t\t\tmin(address _address) p\n      DUP4 \t\t\tmin(address _address) p\n      GT \t\t\tmin(address _address) p\n      PUSH [tag] 381\t\t\tmin(address _address) p\n      JUMPI \t\t\tmin(address _address) p\n    tag 380\t\t\tmin(address _address) p\n      JUMPDEST \t\t\tmin(address _address) p\n      POP \t\t\tmin(address _address) p\n      POP \t\t\tmin(address _address) p\n      POP \t\t\tmin(address _address) p\n      POP \t\t\tmin(address _address) p\n      POP \t\t\tmin(address _address) p\n      SWAP1 \t\t\tmin(address _address) p\n      POP \t\t\tmin(address _address) p\n      SWAP2 \t\t\ttructor() {\\n        admin.use...\n      SWAP1 \t\t\ttructor() {\\n        admin.use...\n      POP \t\t\ttructor() {\\n        admin.use...\n      JUMP \t\t\ttructor() {\\n        admin.use...\n    tag 186\t\t\tDoctorPublicKeyMissing();\\n\\nc...\n      JUMPDEST \t\t\tDoctorPublicKeyMissing();\\n\\nc...\n      PUSH [tag] 383\t\t\toles\\n    using Rol\n      DUP4 \t\t\t\\n   \n      DUP4 \t\t\tsing Ro\n      PUSH [tag] 155\t\t\tole\n      JUMP \t\t\toles\\n    using Rol\n    tag 383\t\t\toles\\n    using Rol\n      JUMPDEST \t\t\toles\\n    using Rol\n      ISZERO \t\t\tRoles\\n    using Rol\n      PUSH [tag] 384\t\t\truct in Roles\\n    using Roles...\n      JUMPI \t\t\truct in Roles\\n    using Roles...\n      PUSH 40\t\t\truct in Roles\\n    using Roles...\n      MLOAD \t\t\truct in Roles\\n    using Roles...\n      PUSH 8C379A000000000000000000000000000000000000000000000000000000000\t\t\truct in Roles\\n    using Roles...\n      DUP2 \t\t\truct in Roles\\n    using Roles...\n      MSTORE \t\t\truct in Roles\\n    using Roles...\n      PUSH 4\t\t\truct in Roles\\n    using Roles...\n      ADD \t\t\truct in Roles\\n    using Roles...\n      PUSH [tag] 385\t\t\truct in Roles\\n    using Roles...\n      SWAP1 \t\t\truct in Roles\\n    using Roles...\n      PUSH [tag] 386\t\t\truct in Roles\\n    using Roles...\n      JUMP \t\t\truct in Roles\\n    using Roles...\n    tag 385\t\t\truct in Roles\\n    using Roles...\n      JUMPDEST \t\t\truct in Roles\\n    using Roles...\n      PUSH 40\t\t\truct in Roles\\n    using Roles...\n      MLOAD \t\t\truct in Roles\\n    using Roles...\n      DUP1 \t\t\truct in Roles\\n    using Roles...\n      SWAP2 \t\t\truct in Roles\\n    using Roles...\n      SUB \t\t\truct in Roles\\n    using Roles...\n      SWAP1 \t\t\truct in Roles\\n    using Roles...\n      REVERT \t\t\truct in Roles\\n    using Roles...\n    tag 384\t\t\truct in Roles\\n    using Roles...\n      JUMPDEST \t\t\truct in Roles\\n    using Roles...\n      PUSH [tag] 387\t\t\tfor AddToBoolMapping.Map;\\n   ...\n      DUP3 \t\t\tping.Ma\n      DUP3 \t\t\t\\n   \n      DUP6 \t\t\tfor \n      PUSH 0\t\t\tfor AddToBo\n      ADD \t\t\tfor AddToBo\n      PUSH [tag] 388\t\t\tfor AddToBoolMa\n      SWAP1 \t\t\tfor AddToBoolMa\n      SWAP3 \t\t\tfor AddToBoolMapping.Map;\\n   ...\n      SWAP2 \t\t\tfor AddToBoolMapping.Map;\\n   ...\n      SWAP1 \t\t\tfor AddToBoolMapping.Map;\\n   ...\n      PUSH FFFFFFFF\t\t\tfor AddToBoolMapping.Map;\\n   ...\n      AND \t\t\tfor AddToBoolMapping.Map;\\n   ...\n      JUMP \t\t\tfor AddToBoolMapping.Map;\\n   ...\n    tag 387\t\t\tfor AddToBoolMapping.Map;\\n   ...\n      JUMPDEST \t\t\tfor AddToBoolMapping.Map;\\n   ...\n      POP \t\t\tDoctorPublicKeyMissing();\\n\\nc...\n      POP \t\t\tDoctorPublicKeyMissing();\\n\\nc...\n      POP \t\t\tDoctorPublicKeyMissing();\\n\\nc...\n      JUMP \t\t\tDoctorPublicKeyMissing();\\n\\nc...\n    tag 188\t\t\tapping.Map pending_doctors;\\n ...\n      JUMPDEST \t\t\tapping.Map pending_doctors;\\n ...\n      DUP2 \t\t\tole\n      PUSH 1\t\t\toles.Role \n      ADD \t\t\toles.Role \n      PUSH 0\t\t\toles.Role users\n      DUP3 \t\t\tser\n      PUSH FFFFFFFFFFFFFFFFFFFFFFFFFFFFFFFFFFFFFFFF\t\t\toles.Role users\n      AND \t\t\toles.Role users\n      PUSH FFFFFFFFFFFFFFFFFFFFFFFFFFFFFFFFFFFFFFFF\t\t\toles.Role users\n      AND \t\t\toles.Role users\n      DUP2 \t\t\toles.Role users\n      MSTORE \t\t\toles.Role users\n      PUSH 20\t\t\toles.Role users\n      ADD \t\t\toles.Role users\n      SWAP1 \t\t\toles.Role users\n      DUP2 \t\t\toles.Role users\n      MSTORE \t\t\toles.Role users\n      PUSH 20\t\t\toles.Role users\n      ADD \t\t\toles.Role users\n      PUSH 0\t\t\toles.Role users\n      KECCAK256 \t\t\toles.Role users\n      PUSH 0\t\t\toles.Role users\n      SWAP1 \t\t\toles.Role users\n      SLOAD \t\t\toles.Role users\n      SWAP1 \t\t\toles.Role users\n      PUSH 100\t\t\toles.Role users\n      EXP \t\t\toles.Role users\n      SWAP1 \t\t\toles.Role users\n      DIV \t\t\toles.Role users\n      PUSH FF\t\t\toles.Role users\n      AND \t\t\toles.Role users\n      PUSH [tag] 389\t\t\t       \n      JUMPI \t\t\t   Roles.Role users;\\n       \n      PUSH 1\t\t\t   R\n      DUP3 \t\t\tct \n      PUSH 1\t\t\tct Doctors\n      ADD \t\t\tct Doctors\n      PUSH 0\t\t\tct Doctors {\\n  \n      DUP4 \t\t\t{\\n \n      PUSH FFFFFFFFFFFFFFFFFFFFFFFFFFFFFFFFFFFFFFFF\t\t\tct Doctors {\\n  \n      AND \t\t\tct Doctors {\\n  \n      PUSH FFFFFFFFFFFFFFFFFFFFFFFFFFFFFFFFFFFFFFFF\t\t\tct Doctors {\\n  \n      AND \t\t\tct Doctors {\\n  \n      DUP2 \t\t\tct Doctors {\\n  \n      MSTORE \t\t\tct Doctors {\\n  \n      PUSH 20\t\t\tct Doctors {\\n  \n      ADD \t\t\tct Doctors {\\n  \n      SWAP1 \t\t\tct Doctors {\\n  \n      DUP2 \t\t\tct Doctors {\\n  \n      MSTORE \t\t\tct Doctors {\\n  \n      PUSH 20\t\t\tct Doctors {\\n  \n      ADD \t\t\tct Doctors {\\n  \n      PUSH 0\t\t\tct Doctors {\\n  \n      KECCAK256 \t\t\tct Doctors {\\n  \n      PUSH 0\t\t\tct Doctors {\\n  \n      PUSH 100\t\t\tct Doctors {\\n        R\n      EXP \t\t\tct Doctors {\\n        R\n      DUP2 \t\t\tct Doctors {\\n        R\n      SLOAD \t\t\tct Doctors {\\n        R\n      DUP2 \t\t\tct Doctors {\\n        R\n      PUSH FF\t\t\tct Doctors {\\n        R\n      MUL \t\t\tct Doctors {\\n        R\n      NOT \t\t\tct Doctors {\\n        R\n      AND \t\t\tct Doctors {\\n        R\n      SWAP1 \t\t\tct Doctors {\\n        R\n      DUP4 \t\t\tct Doctors {\\n        R\n      ISZERO \t\t\tct Doctors {\\n        R\n      ISZERO \t\t\tct Doctors {\\n        R\n      MUL \t\t\tct Doctors {\\n        R\n      OR \t\t\tct Doctors {\\n        R\n      SWAP1 \t\t\tct Doctors {\\n        R\n      SSTORE \t\t\tct Doctors {\\n        R\n      POP \t\t\tct Doctors {\\n        R\n      DUP2 \t\t\tadd\n      PUSH 0\t\t\taddress \n      ADD \t\t\taddress \n      DUP1 \t\t\taddress => AddT\n      SLOAD \t\t\taddress => AddT\n      SWAP1 \t\t\taddress => AddT\n      POP \t\t\taddress => AddT\n      DUP3 \t\t\ts;\\n\n      PUSH 2\t\t\ts;\\n        \n      ADD \t\t\ts;\\n        \n      PUSH 0\t\t\ts;\\n        mappi\n      DUP4 \t\t\tapp\n      PUSH FFFFFFFFFFFFFFFFFFFFFFFFFFFFFFFFFFFFFFFF\t\t\ts;\\n        mappi\n      AND \t\t\ts;\\n        mappi\n      PUSH FFFFFFFFFFFFFFFFFFFFFFFFFFFFFFFFFFFFFFFF\t\t\ts;\\n        mappi\n      AND \t\t\ts;\\n        mappi\n      DUP2 \t\t\ts;\\n        mappi\n      MSTORE \t\t\ts;\\n        mappi\n      PUSH 20\t\t\ts;\\n        mappi\n      ADD \t\t\ts;\\n        mappi\n      SWAP1 \t\t\ts;\\n        mappi\n      DUP2 \t\t\ts;\\n        mappi\n      MSTORE \t\t\ts;\\n        mappi\n      PUSH 20\t\t\ts;\\n        mappi\n      ADD \t\t\ts;\\n        mappi\n      PUSH 0\t\t\ts;\\n        mappi\n      KECCAK256 \t\t\ts;\\n        mappi\n      DUP2 \t\t\ts;\\n        mapping(address =>...\n      SWAP1 \t\t\ts;\\n        mapping(address =>...\n      SSTORE \t\t\ts;\\n        mapping(address =>...\n      POP \t\t\ts;\\n        mapping(address =>...\n      DUP2 \t\t\t   \n      PUSH 0\t\t\t   // de\n      ADD \t\t\t   // de\n      DUP2 \t\t\t ro\n      SWAP1 \t\t\t   // defining rol\n      DUP1 \t\t\t   // defining rol\n      PUSH 1\t\t\t   // defining rol\n      DUP2 \t\t\t   // defining rol\n      SLOAD \t\t\t   // defining rol\n      ADD \t\t\t   // defining rol\n      DUP1 \t\t\t   // defining rol\n      DUP3 \t\t\t   // defining rol\n      SSTORE \t\t\t   // defining rol\n      DUP1 \t\t\t   // defining rol\n      SWAP2 \t\t\t   // defining rol\n      POP \t\t\t   // defining rol\n      POP \t\t\t   // defining rol\n      PUSH 1\t\t\t   // defining rol\n      SWAP1 \t\t\t   // defining rol\n      SUB \t\t\t   // defining rol\n      SWAP1 \t\t\t   // defining rol\n      PUSH 0\t\t\t   // defining rol\n      MSTORE \t\t\t   // defining rol\n      PUSH 20\t\t\t   // defining rol\n      PUSH 0\t\t\t   // defining rol\n      KECCAK256 \t\t\t   // defining rol\n      ADD \t\t\t   // defining rol\n      PUSH 0\t\t\t   // defining rol\n      SWAP1 \t\t\t   // defining rol\n      SWAP2 \t\t\t   // defining rol\n      SWAP1 \t\t\t   // defining rol\n      SWAP2 \t\t\t   // defining rol\n      SWAP1 \t\t\t   // defining rol\n      SWAP2 \t\t\t   // defining rol\n      PUSH 100\t\t\t   // defining rol\n      EXP \t\t\t   // defining rol\n      DUP2 \t\t\t   // defining rol\n      SLOAD \t\t\t   // defining rol\n      DUP2 \t\t\t   // defining rol\n      PUSH FFFFFFFFFFFFFFFFFFFFFFFFFFFFFFFFFFFFFFFF\t\t\t   // defining rol\n      MUL \t\t\t   // defining rol\n      NOT \t\t\t   // defining rol\n      AND \t\t\t   // defining rol\n      SWAP1 \t\t\t   // defining rol\n      DUP4 \t\t\t   // defining rol\n      PUSH FFFFFFFFFFFFFFFFFFFFFFFFFFFFFFFFFFFFFFFF\t\t\t   // defining rol\n      AND \t\t\t   // defining rol\n      MUL \t\t\t   // defining rol\n      OR \t\t\t   // defining rol\n      SWAP1 \t\t\t   // defining rol\n      SSTORE \t\t\t   // defining rol\n      POP \t\t\t   // defining rol\n    tag 389\t\t\tapping.Map pending_doctors;\\n ...\n      JUMPDEST \t\t\tapping.Map pending_doctors;\\n ...\n      POP \t\t\tapping.Map pending_doctors;\\n ...\n      POP \t\t\tapping.Map pending_doctors;\\n ...\n      JUMP \t\t\tapping.Map pending_doctors;\\n ...\n    tag 197\t\t\tAddressArrayUtils.sol\";\\nimpor...\n      JUMPDEST \t\t\tAddressArrayUtils.sol\";\\nimpor...\n      PUSH 0\t\t\totAdmi\n      DUP1 \t\t\tct__NotDo\n      PUSH 0\t\t\tr\n      SWAP1 \t\t\tct__NotDoctor\n      POP \t\t\tct__NotDoctor\n    tag 393\t\t\tontract__NotDoctor();\\nerror C...\n      JUMPDEST \t\t\tontract__NotDoctor();\\nerror C...\n      DUP4 \t\t\tror\n      MLOAD \t\t\tror Contra\n      DUP2 \t\t\t;\n      LT \t\t\t;\\nerror Contra\n      ISZERO \t\t\tontract__NotDoctor();\\nerror C...\n      PUSH [tag] 394\t\t\tontract__NotDoctor();\\nerror C...\n      JUMPI \t\t\tontract__NotDoctor();\\nerror C...\n      DUP3 \t\t\tend\n      PUSH FFFFFFFFFFFFFFFFFFFFFFFFFFFFFFFFFFFFFFFF\t\t\tontract__Pend\n      AND \t\t\tontract__Pend\n      DUP5 \t\t\tont\n      DUP3 \t\t\ta\n      DUP2 \t\t\tontrac\n      MLOAD \t\t\tontrac\n      DUP2 \t\t\tontrac\n      LT \t\t\tontrac\n      PUSH [tag] 396\t\t\tontrac\n      JUMPI \t\t\tontrac\n      PUSH [tag] 397\t\t\tontrac\n      PUSH [tag] 370\t\t\tontrac\n      JUMP \t\t\tontrac\n    tag 397\t\t\tontrac\n      JUMPDEST \t\t\tontrac\n    tag 396\t\t\tontrac\n      JUMPDEST \t\t\tontrac\n      PUSH 20\t\t\tontrac\n      MUL \t\t\tontrac\n      PUSH 20\t\t\tontrac\n      ADD \t\t\tontrac\n      ADD \t\t\tontrac\n      MLOAD \t\t\tontrac\n      PUSH FFFFFFFFFFFFFFFFFFFFFFFFFFFFFFFFFFFFFFFF\t\t\tontract__Pend\n      AND \t\t\tontract__Pend\n      SUB \t\t\tontract__Pend\n      PUSH [tag] 398\t\t\tor Contract__PendingDoctorAppr...\n      JUMPI \t\t\tor Contract__PendingDoctorAppr...\n      DUP1 \t\t\tl\n      SWAP2 \t\t\tgDoctorApproval(\n      POP \t\t\tgDoctorApproval(\n      POP \t\t\tgDoctorApproval(\n      PUSH [tag] 392\t\t\tgDoctorApproval(\n      JUMP \t\t\tgDoctorApproval(\n    tag 398\t\t\tor Contract__PendingDoctorAppr...\n      JUMPDEST \t\t\tor Contract__PendingDoctorAppr...\n      DUP1 \t\t\t__N\n      DUP1 \t\t\t__N\n      PUSH [tag] 399\t\t\t__N\n      SWAP1 \t\t\t__N\n      PUSH [tag] 400\t\t\t__N\n      JUMP \t\t\t__N\n    tag 399\t\t\t__N\n      JUMPDEST \t\t\t__N\n      SWAP2 \t\t\t__N\n      POP \t\t\t__N\n      POP \t\t\t__N\n      PUSH [tag] 393\t\t\tontract__NotDoctor();\\nerror C...\n      JUMP \t\t\tontract__NotDoctor();\\nerror C...\n    tag 394\t\t\tontract__NotDoctor();\\nerror C...\n      JUMPDEST \t\t\tontract__NotDoctor();\\nerror C...\n      POP \t\t\tontract__NotDoctor();\\nerror C...\n      PUSH FFFFFFFFFFFFFFFFFFFFFFFFFFFFFFFFFFFFFFFFFFFFFFFFFFFFFFFFFFFFFFFF\t\t\tbl\n      SWAP1 \t\t\toctorPubl\n      POP \t\t\toctorPubl\n    tag 392\t\t\tAddressArrayUtils.sol\";\\nimpor...\n      JUMPDEST \t\t\tAddressArrayUtils.sol\";\\nimpor...\n      SWAP3 \t\t\tAddressArrayUtils.sol\";\\nimpor...\n      SWAP2 \t\t\tAddressArrayUtils.sol\";\\nimpor...\n      POP \t\t\tAddressArrayUtils.sol\";\\nimpor...\n      POP \t\t\tAddressArrayUtils.sol\";\\nimpor...\n      JUMP \t\t\tAddressArrayUtils.sol\";\\nimpor...\n    tag 216\t\t\t roles - contains hashes\\n    ...\n      JUMPDEST \t\t\t roles - contains hashes\\n    ...\n      PUSH 60\t\t\ts;\\n    Patien\n      PUSH [tag] 402\t\t\t;\\n\\n    // Initializing a\n      DUP3 \t\t\tlizing \n      DUP5 \t\t\t;\\n\\n \n      PUSH 0\t\t\t;\\n\\n    // I\n      ADD \t\t\t;\\n\\n    // I\n      PUSH [tag] 363\t\t\t;\\n\\n    // Initi\n      SWAP1 \t\t\t;\\n\\n    // Initi\n      SWAP2 \t\t\t;\\n\\n    // Initializing a\n      SWAP1 \t\t\t;\\n\\n    // Initializing a\n      PUSH FFFFFFFF\t\t\t;\\n\\n    // Initializing a\n      AND \t\t\t;\\n\\n    // Initializing a\n      JUMP \t\t\t;\\n\\n    // Initializing a\n    tag 402\t\t\t;\\n\\n    // Initializing a\n      JUMPDEST \t\t\t;\\n\\n    // Initializing a\n      SWAP1 \t\t\tatients;\\n\\n    // Initializin...\n      POP \t\t\tatients;\\n\\n    // Initializin...\n      SWAP3 \t\t\t roles - contains hashes\\n    ...\n      SWAP2 \t\t\t roles - contains hashes\\n    ...\n      POP \t\t\t roles - contains hashes\\n    ...\n      POP \t\t\t roles - contains hashes\\n    ...\n      JUMP \t\t\t roles - contains hashes\\n    ...\n    tag 224\t\t\t;\\n        mapping(address => ...\n      JUMPDEST \t\t\t;\\n        mapping(address => ...\n      PUSH [tag] 404\t\t\t.Map) docToPatAccess;\\n    }\\n...\n      DUP3 \t\t\tcess;\\n \n      DUP3 \t\t\t }\\n\\n \n      DUP6 \t\t\t.Map\n      PUSH 0\t\t\t.Map) docTo\n      ADD \t\t\t.Map) docTo\n      PUSH [tag] 388\t\t\t.Map) docToPatA\n      SWAP1 \t\t\t.Map) docToPatA\n      SWAP3 \t\t\t.Map) docToPatAccess;\\n    }\\n...\n      SWAP2 \t\t\t.Map) docToPatAccess;\\n    }\\n...\n      SWAP1 \t\t\t.Map) docToPatAccess;\\n    }\\n...\n      PUSH FFFFFFFF\t\t\t.Map) docToPatAccess;\\n    }\\n...\n      AND \t\t\t.Map) docToPatAccess;\\n    }\\n...\n      JUMP \t\t\t.Map) docToPatAccess;\\n    }\\n...\n    tag 404\t\t\t.Map) docToPatAccess;\\n    }\\n...\n      JUMPDEST \t\t\t.Map) docToPatAccess;\\n    }\\n...\n      POP \t\t\t;\\n        mapping(address => ...\n      POP \t\t\t;\\n        mapping(address => ...\n      POP \t\t\t;\\n        mapping(address => ...\n      JUMP \t\t\t;\\n        mapping(address => ...\n    tag 229\t\t\tdingDoctorApproval();\\nerror C...\n      JUMPDEST \t\t\tdingDoctorApproval();\\nerror C...\n      PUSH 0\t\t\tontr\n      DUP3 \t\t\t// \n      PUSH 1\t\t\t// using m\n      ADD \t\t\t// using m\n      PUSH 0\t\t\t// using method\n      DUP4 \t\t\ttho\n      PUSH FFFFFFFFFFFFFFFFFFFFFFFFFFFFFFFFFFFFFFFF\t\t\t// using method\n      AND \t\t\t// using method\n      PUSH FFFFFFFFFFFFFFFFFFFFFFFFFFFFFFFFFFFFFFFF\t\t\t// using method\n      AND \t\t\t// using method\n      DUP2 \t\t\t// using method\n      MSTORE \t\t\t// using method\n      PUSH 20\t\t\t// using method\n      ADD \t\t\t// using method\n      SWAP1 \t\t\t// using method\n      DUP2 \t\t\t// using method\n      MSTORE \t\t\t// using method\n      PUSH 20\t\t\t// using method\n      ADD \t\t\t// using method\n      PUSH 0\t\t\t// using method\n      KECCAK256 \t\t\t// using method\n      PUSH 0\t\t\t// using method\n      SWAP1 \t\t\t// using method\n      SLOAD \t\t\t// using method\n      SWAP1 \t\t\t// using method\n      PUSH 100\t\t\t// using method\n      EXP \t\t\t// using method\n      SWAP1 \t\t\t// using method\n      DIV \t\t\t// using method\n      PUSH FF\t\t\t// using method\n      AND \t\t\t// using method\n      SWAP1 \t\t\t {\\n    // using method\n      POP \t\t\t {\\n    // using method\n      SWAP3 \t\t\tdingDoctorApproval();\\nerror C...\n      SWAP2 \t\t\tdingDoctorApproval();\\nerror C...\n      POP \t\t\tdingDoctorApproval();\\nerror C...\n      POP \t\t\tdingDoctorApproval();\\nerror C...\n      JUMP \t\t\tdingDoctorApproval();\\nerror C...\n    tag 240\t\t\tArrayUtils for address[];\\n\\n ...\n      JUMPDEST \t\t\tArrayUtils for address[];\\n\\n ...\n      PUSH [tag] 407\t\t\t       address[] v\n      DUP3 \t\t\t   a\n      DUP3 \t\t\tress[] \n      PUSH [tag] 155\t\t\t   \n      JUMP \t\t\t       address[] v\n    tag 407\t\t\t       address[] v\n      JUMPDEST \t\t\t       address[] v\n      PUSH [tag] 408\t\t\tditor;\\n        address[] view...\n      JUMPI \t\t\tditor;\\n        address[] view...\n      PUSH 40\t\t\tditor;\\n        address[] view...\n      MLOAD \t\t\tditor;\\n        address[] view...\n      PUSH 8C379A000000000000000000000000000000000000000000000000000000000\t\t\tditor;\\n        address[] view...\n      DUP2 \t\t\tditor;\\n        address[] view...\n      MSTORE \t\t\tditor;\\n        address[] view...\n      PUSH 4\t\t\tditor;\\n        address[] view...\n      ADD \t\t\tditor;\\n        address[] view...\n      PUSH [tag] 409\t\t\tditor;\\n        address[] view...\n      SWAP1 \t\t\tditor;\\n        address[] view...\n      PUSH [tag] 410\t\t\tditor;\\n        address[] view...\n      JUMP \t\t\tditor;\\n        address[] view...\n    tag 409\t\t\tditor;\\n        address[] view...\n      JUMPDEST \t\t\tditor;\\n        address[] view...\n      PUSH 40\t\t\tditor;\\n        address[] view...\n      MLOAD \t\t\tditor;\\n        address[] view...\n      DUP1 \t\t\tditor;\\n        address[] view...\n      SWAP2 \t\t\tditor;\\n        address[] view...\n      SUB \t\t\tditor;\\n        address[] view...\n      SWAP1 \t\t\tditor;\\n        address[] view...\n      REVERT \t\t\tditor;\\n        address[] view...\n    tag 408\t\t\tditor;\\n        address[] view...\n      JUMPDEST \t\t\tditor;\\n        address[] view...\n      PUSH [tag] 411\t\t\t struct Admin {\\n        add\n      DUP2 \t\t\t     ad\n      DUP4 \t\t\t str\n      PUSH 0\t\t\t struct Adm\n      ADD \t\t\t struct Adm\n      PUSH [tag] 412\t\t\t struct Admin {\\n  \n      SWAP1 \t\t\t struct Admin {\\n  \n      SWAP2 \t\t\t struct Admin {\\n        add\n      SWAP1 \t\t\t struct Admin {\\n        add\n      PUSH FFFFFFFF\t\t\t struct Admin {\\n        add\n      AND \t\t\t struct Admin {\\n        add\n      JUMP \t\t\t struct Admin {\\n        add\n    tag 411\t\t\t struct Admin {\\n        add\n      JUMPDEST \t\t\t struct Admin {\\n        add\n      POP \t\t\tArrayUtils for address[];\\n\\n ...\n      POP \t\t\tArrayUtils for address[];\\n\\n ...\n      JUMP \t\t\tArrayUtils for address[];\\n\\n ...\n    tag 301\t\t\t);\\n\\ncontract Contract {\\n   ...\n      JUMPDEST \t\t\t);\\n\\ncontract Contract {\\n   ...\n      PUSH 0\t\t\tes\\n \n      PUSH FFFFFFFFFFFFFFFFFFFFFFFFFFFFFFFFFFFFFFFFFFFFFFFFFFFFFFFFFFFFFFFF\t\t\t A\n      PUSH [tag] 414\t\t\tRoles.Role;\\n    u\n      DUP5 \t\t\tle;\n      DUP5 \t\t\t   \n      PUSH [tag] 197\t\t\tRoles.R\n      JUMP \t\t\tRoles.Role;\\n    u\n    tag 414\t\t\tRoles.Role;\\n    u\n      JUMPDEST \t\t\tRoles.Role;\\n    u\n      EQ \t\t\tRoles.Role;\\n    using A\n      ISZERO \t\t\tRoles.Role;\\n    using A\n      SWAP1 \t\t\tes for Roles.Role;\\n    using ...\n      POP \t\t\tes for Roles.Role;\\n    using ...\n      SWAP3 \t\t\t);\\n\\ncontract Contract {\\n   ...\n      SWAP2 \t\t\t);\\n\\ncontract Contract {\\n   ...\n      POP \t\t\t);\\n\\ncontract Contract {\\n   ...\n      POP \t\t\t);\\n\\ncontract Contract {\\n   ...\n      JUMP \t\t\t);\\n\\ncontract Contract {\\n   ...\n    tag 357\t\t\tng for AddToBoolMapping.Map;\\n...\n      JUMPDEST \t\t\tng for AddToBoolMapping.Map;\\n...\n      PUSH 0\t\t\t;\\n\\n \n      DUP1 \t\t\tdicalRec\n      PUSH [tag] 416\t\t\t {\\n        addres\n      DUP5 \t\t\t   \n      DUP1 \t\t\t {\\n        addres\n      SLOAD \t\t\t {\\n        addres\n      DUP1 \t\t\t {\\n        addres\n      PUSH 20\t\t\t {\\n        addres\n      MUL \t\t\t {\\n        addres\n      PUSH 20\t\t\t {\\n        addres\n      ADD \t\t\t {\\n        addres\n      PUSH 40\t\t\t {\\n        addres\n      MLOAD \t\t\t {\\n        addres\n      SWAP1 \t\t\t {\\n        addres\n      DUP2 \t\t\t {\\n        addres\n      ADD \t\t\t {\\n        addres\n      PUSH 40\t\t\t {\\n        addres\n      MSTORE \t\t\t {\\n        addres\n      DUP1 \t\t\t {\\n        addres\n      SWAP3 \t\t\t {\\n        addres\n      SWAP2 \t\t\t {\\n        addres\n      SWAP1 \t\t\t {\\n        addres\n      DUP2 \t\t\t {\\n        addres\n      DUP2 \t\t\t {\\n        addres\n      MSTORE \t\t\t {\\n        addres\n      PUSH 20\t\t\t {\\n        addres\n      ADD \t\t\t {\\n        addres\n      DUP3 \t\t\t {\\n        addres\n      DUP1 \t\t\t {\\n        addres\n      SLOAD \t\t\t {\\n        addres\n      DUP1 \t\t\t {\\n        addres\n      ISZERO \t\t\t {\\n        addres\n      PUSH [tag] 417\t\t\t {\\n        addres\n      JUMPI \t\t\t {\\n        addres\n      PUSH 20\t\t\t {\\n        addres\n      MUL \t\t\t {\\n        addres\n      DUP3 \t\t\t {\\n        addres\n      ADD \t\t\t {\\n        addres\n      SWAP2 \t\t\t {\\n        addres\n      SWAP1 \t\t\t {\\n        addres\n      PUSH 0\t\t\t {\\n        addres\n      MSTORE \t\t\t {\\n        addres\n      PUSH 20\t\t\t {\\n        addres\n      PUSH 0\t\t\t {\\n        addres\n      KECCAK256 \t\t\t {\\n        addres\n      SWAP1 \t\t\t {\\n        addres\n    tag 418\t\t\t {\\n        addres\n      JUMPDEST \t\t\t {\\n        addres\n      DUP2 \t\t\t {\\n        addres\n      PUSH 0\t\t\t {\\n        addres\n      SWAP1 \t\t\t {\\n        addres\n      SLOAD \t\t\t {\\n        addres\n      SWAP1 \t\t\t {\\n        addres\n      PUSH 100\t\t\t {\\n        addres\n      EXP \t\t\t {\\n        addres\n      SWAP1 \t\t\t {\\n        addres\n      DIV \t\t\t {\\n        addres\n      PUSH FFFFFFFFFFFFFFFFFFFFFFFFFFFFFFFFFFFFFFFF\t\t\t {\\n        addres\n      AND \t\t\t {\\n        addres\n      PUSH FFFFFFFFFFFFFFFFFFFFFFFFFFFFFFFFFFFFFFFF\t\t\t {\\n        addres\n      AND \t\t\t {\\n        addres\n      DUP2 \t\t\t {\\n        addres\n      MSTORE \t\t\t {\\n        addres\n      PUSH 20\t\t\t {\\n        addres\n      ADD \t\t\t {\\n        addres\n      SWAP1 \t\t\t {\\n        addres\n      PUSH 1\t\t\t {\\n        addres\n      ADD \t\t\t {\\n        addres\n      SWAP1 \t\t\t {\\n        addres\n      DUP1 \t\t\t {\\n        addres\n      DUP4 \t\t\t {\\n        addres\n      GT \t\t\t {\\n        addres\n      PUSH [tag] 418\t\t\t {\\n        addres\n      JUMPI \t\t\t {\\n        addres\n    tag 417\t\t\t {\\n        addres\n      JUMPDEST \t\t\t {\\n        addres\n      POP \t\t\t {\\n        addres\n      POP \t\t\t {\\n        addres\n      POP \t\t\t {\\n        addres\n      POP \t\t\t {\\n        addres\n      POP \t\t\t {\\n        addres\n      DUP5 \t\t\tdre\n      PUSH [tag] 197\t\t\t {\\n    \n      JUMP \t\t\t {\\n        addres\n    tag 416\t\t\t {\\n        addres\n      JUMPDEST \t\t\t {\\n        addres\n      SWAP1 \t\t\tdicalRecord {\\n        addres\n      POP \t\t\tdicalRecord {\\n        addres\n      PUSH FFFFFFFFFFFFFFFFFFFFFFFFFFFFFFFFFFFFFFFFFFFFFFFFFFFFFFFFFFFFFFFF\t\t\tdr\n      DUP2 \t\t\t \n      SUB \t\t\t   addr\n      PUSH [tag] 419\t\t\t       address[] viewers;\n      JUMPI \t\t\t       address[] viewers;\n      PUSH 0\t\t\twers;\n      SWAP2 \t\t\ts[] viewers;\n      POP \t\t\ts[] viewers;\n      POP \t\t\ts[] viewers;\n      PUSH [tag] 415\t\t\ts[] viewers;\n      JUMP \t\t\ts[] viewers;\n    tag 419\t\t\t       address[] viewers;\n      JUMPDEST \t\t\t       address[] viewers;\n      PUSH 0\t\t\tring key_data_hash;\\n \n      DUP5 \t\t\t}\\n\\n\n      DUP1 \t\t\tring key_data_hash;\\n    }\\n\\n\n      SLOAD \t\t\tring key_data_hash;\\n    }\\n\\n\n      DUP1 \t\t\tring key_data_hash;\\n    }\\n\\n\n      PUSH 20\t\t\tring key_data_hash;\\n    }\\n\\n\n      MUL \t\t\tring key_data_hash;\\n    }\\n\\n\n      PUSH 20\t\t\tring key_data_hash;\\n    }\\n\\n\n      ADD \t\t\tring key_data_hash;\\n    }\\n\\n\n      PUSH 40\t\t\tring key_data_hash;\\n    }\\n\\n\n      MLOAD \t\t\tring key_data_hash;\\n    }\\n\\n\n      SWAP1 \t\t\tring key_data_hash;\\n    }\\n\\n\n      DUP2 \t\t\tring key_data_hash;\\n    }\\n\\n\n      ADD \t\t\tring key_data_hash;\\n    }\\n\\n\n      PUSH 40\t\t\tring key_data_hash;\\n    }\\n\\n\n      MSTORE \t\t\tring key_data_hash;\\n    }\\n\\n\n      DUP1 \t\t\tring key_data_hash;\\n    }\\n\\n\n      SWAP3 \t\t\tring key_data_hash;\\n    }\\n\\n\n      SWAP2 \t\t\tring key_data_hash;\\n    }\\n\\n\n      SWAP1 \t\t\tring key_data_hash;\\n    }\\n\\n\n      DUP2 \t\t\tring key_data_hash;\\n    }\\n\\n\n      DUP2 \t\t\tring key_data_hash;\\n    }\\n\\n\n      MSTORE \t\t\tring key_data_hash;\\n    }\\n\\n\n      PUSH 20\t\t\tring key_data_hash;\\n    }\\n\\n\n      ADD \t\t\tring key_data_hash;\\n    }\\n\\n\n      DUP3 \t\t\tring key_data_hash;\\n    }\\n\\n\n      DUP1 \t\t\tring key_data_hash;\\n    }\\n\\n\n      SLOAD \t\t\tring key_data_hash;\\n    }\\n\\n\n      DUP1 \t\t\tring key_data_hash;\\n    }\\n\\n\n      ISZERO \t\t\tring key_data_hash;\\n    }\\n\\n\n      PUSH [tag] 420\t\t\tring key_data_hash;\\n    }\\n\\n\n      JUMPI \t\t\tring key_data_hash;\\n    }\\n\\n\n      PUSH 20\t\t\tring key_data_hash;\\n    }\\n\\n\n      MUL \t\t\tring key_data_hash;\\n    }\\n\\n\n      DUP3 \t\t\tring key_data_hash;\\n    }\\n\\n\n      ADD \t\t\tring key_data_hash;\\n    }\\n\\n\n      SWAP2 \t\t\tring key_data_hash;\\n    }\\n\\n\n      SWAP1 \t\t\tring key_data_hash;\\n    }\\n\\n\n      PUSH 0\t\t\tring key_data_hash;\\n    }\\n\\n\n      MSTORE \t\t\tring key_data_hash;\\n    }\\n\\n\n      PUSH 20\t\t\tring key_data_hash;\\n    }\\n\\n\n      PUSH 0\t\t\tring key_data_hash;\\n    }\\n\\n\n      KECCAK256 \t\t\tring key_data_hash;\\n    }\\n\\n\n      SWAP1 \t\t\tring key_data_hash;\\n    }\\n\\n\n    tag 421\t\t\tring key_data_hash;\\n    }\\n\\n\n      JUMPDEST \t\t\tring key_data_hash;\\n    }\\n\\n\n      DUP2 \t\t\tring key_data_hash;\\n    }\\n\\n\n      PUSH 0\t\t\tring key_data_hash;\\n    }\\n\\n\n      SWAP1 \t\t\tring key_data_hash;\\n    }\\n\\n\n      SLOAD \t\t\tring key_data_hash;\\n    }\\n\\n\n      SWAP1 \t\t\tring key_data_hash;\\n    }\\n\\n\n      PUSH 100\t\t\tring key_data_hash;\\n    }\\n\\n\n      EXP \t\t\tring key_data_hash;\\n    }\\n\\n\n      SWAP1 \t\t\tring key_data_hash;\\n    }\\n\\n\n      DIV \t\t\tring key_data_hash;\\n    }\\n\\n\n      PUSH FFFFFFFFFFFFFFFFFFFFFFFFFFFFFFFFFFFFFFFF\t\t\tring key_data_hash;\\n    }\\n\\n\n      AND \t\t\tring key_data_hash;\\n    }\\n\\n\n      PUSH FFFFFFFFFFFFFFFFFFFFFFFFFFFFFFFFFFFFFFFF\t\t\tring key_data_hash;\\n    }\\n\\n\n      AND \t\t\tring key_data_hash;\\n    }\\n\\n\n      DUP2 \t\t\tring key_data_hash;\\n    }\\n\\n\n      MSTORE \t\t\tring key_data_hash;\\n    }\\n\\n\n      PUSH 20\t\t\tring key_data_hash;\\n    }\\n\\n\n      ADD \t\t\tring key_data_hash;\\n    }\\n\\n\n      SWAP1 \t\t\tring key_data_hash;\\n    }\\n\\n\n      PUSH 1\t\t\tring key_data_hash;\\n    }\\n\\n\n      ADD \t\t\tring key_data_hash;\\n    }\\n\\n\n      SWAP1 \t\t\tring key_data_hash;\\n    }\\n\\n\n      DUP1 \t\t\tring key_data_hash;\\n    }\\n\\n\n      DUP4 \t\t\tring key_data_hash;\\n    }\\n\\n\n      GT \t\t\tring key_data_hash;\\n    }\\n\\n\n      PUSH [tag] 421\t\t\tring key_data_hash;\\n    }\\n\\n\n      JUMPI \t\t\tring key_data_hash;\\n    }\\n\\n\n    tag 420\t\t\tring key_data_hash;\\n    }\\n\\n\n      JUMPDEST \t\t\tring key_data_hash;\\n    }\\n\\n\n      POP \t\t\tring key_data_hash;\\n    }\\n\\n\n      POP \t\t\tring key_data_hash;\\n    }\\n\\n\n      POP \t\t\tring key_data_hash;\\n    }\\n\\n\n      POP \t\t\tring key_data_hash;\\n    }\\n\\n\n      POP \t\t\tring key_data_hash;\\n    }\\n\\n\n      SWAP1 \t\t\tring key_data_hash;\\n    }\\n\\n\n      POP \t\t\tring key_data_hash;\\n    }\\n\\n\n      DUP1 \t\t\tddre\n      PUSH 1\t\t\t \n      DUP3 \t\t\ts us\n      MLOAD \t\t\ts user;\\n   \n      PUSH [tag] 422\t\t\ts user;\\n       \n      SWAP2 \t\t\ts user;\\n       \n      SWAP1 \t\t\ts user;\\n       \n      PUSH [tag] 367\t\t\ts user;\\n       \n      JUMP \t\t\ts user;\\n       \n    tag 422\t\t\ts user;\\n       \n      JUMPDEST \t\t\ts user;\\n       \n      DUP2 \t\t\tddress user;\\n        \n      MLOAD \t\t\tddress user;\\n        \n      DUP2 \t\t\tddress user;\\n        \n      LT \t\t\tddress user;\\n        \n      PUSH [tag] 423\t\t\tddress user;\\n        \n      JUMPI \t\t\tddress user;\\n        \n      PUSH [tag] 424\t\t\tddress user;\\n        \n      PUSH [tag] 370\t\t\tddress user;\\n        \n      JUMP \t\t\tddress user;\\n        \n    tag 424\t\t\tddress user;\\n        \n      JUMPDEST \t\t\tddress user;\\n        \n    tag 423\t\t\tddress user;\\n        \n      JUMPDEST \t\t\tddress user;\\n        \n      PUSH 20\t\t\tddress user;\\n        \n      MUL \t\t\tddress user;\\n        \n      PUSH 20\t\t\tddress user;\\n        \n      ADD \t\t\tddress user;\\n        \n      ADD \t\t\tddress user;\\n        \n      MLOAD \t\t\tddress user;\\n        \n      DUP6 \t\t\t Ad\n      DUP4 \t\t\t \n      DUP2 \t\t\t Admin {\\n      \n      SLOAD \t\t\t Admin {\\n      \n      DUP2 \t\t\t Admin {\\n      \n      LT \t\t\t Admin {\\n      \n      PUSH [tag] 425\t\t\t Admin {\\n      \n      JUMPI \t\t\t Admin {\\n      \n      PUSH [tag] 426\t\t\t Admin {\\n      \n      PUSH [tag] 370\t\t\t Admin {\\n      \n      JUMP \t\t\t Admin {\\n      \n    tag 426\t\t\t Admin {\\n      \n      JUMPDEST \t\t\t Admin {\\n      \n    tag 425\t\t\t Admin {\\n      \n      JUMPDEST \t\t\t Admin {\\n      \n      SWAP1 \t\t\t Admin {\\n      \n      PUSH 0\t\t\t Admin {\\n      \n      MSTORE \t\t\t Admin {\\n      \n      PUSH 20\t\t\t Admin {\\n      \n      PUSH 0\t\t\t Admin {\\n      \n      KECCAK256 \t\t\t Admin {\\n      \n      ADD \t\t\t Admin {\\n      \n      PUSH 0\t\t\t Admin {\\n      \n      PUSH 100\t\t\t Admin {\\n        address user...\n      EXP \t\t\t Admin {\\n        address user...\n      DUP2 \t\t\t Admin {\\n        address user...\n      SLOAD \t\t\t Admin {\\n        address user...\n      DUP2 \t\t\t Admin {\\n        address user...\n      PUSH FFFFFFFFFFFFFFFFFFFFFFFFFFFFFFFFFFFFFFFF\t\t\t Admin {\\n        address user...\n      MUL \t\t\t Admin {\\n        address user...\n      NOT \t\t\t Admin {\\n        address user...\n      AND \t\t\t Admin {\\n        address user...\n      SWAP1 \t\t\t Admin {\\n        address user...\n      DUP4 \t\t\t Admin {\\n        address user...\n      PUSH FFFFFFFFFFFFFFFFFFFFFFFFFFFFFFFFFFFFFFFF\t\t\t Admin {\\n        address user...\n      AND \t\t\t Admin {\\n        address user...\n      MUL \t\t\t Admin {\\n        address user...\n      OR \t\t\t Admin {\\n        address user...\n      SWAP1 \t\t\t Admin {\\n        address user...\n      SSTORE \t\t\t Admin {\\n        address user...\n      POP \t\t\t Admin {\\n        address user...\n      DUP5 \t\t\tlic\n      DUP1 \t\t\tlic_key;\\n\n      SLOAD \t\t\tlic_key;\\n\n      DUP1 \t\t\tlic_key;\\n\n      PUSH [tag] 428\t\t\tlic_key;\\n\n      JUMPI \t\t\tlic_key;\\n\n      PUSH [tag] 429\t\t\tlic_key;\\n\n      PUSH [tag] 377\t\t\tlic_key;\\n\n      JUMP \t\t\tlic_key;\\n\n    tag 429\t\t\tlic_key;\\n\n      JUMPDEST \t\t\tlic_key;\\n\n    tag 428\t\t\tlic_key;\\n\n      JUMPDEST \t\t\tlic_key;\\n\n      PUSH 1\t\t\tlic_key;\\n\n      SWAP1 \t\t\tlic_key;\\n\n      SUB \t\t\tlic_key;\\n\n      DUP2 \t\t\tlic_key;\\n\n      DUP2 \t\t\tlic_key;\\n\n      SWAP1 \t\t\tlic_key;\\n\n      PUSH 0\t\t\tlic_key;\\n\n      MSTORE \t\t\tlic_key;\\n\n      PUSH 20\t\t\tlic_key;\\n\n      PUSH 0\t\t\tlic_key;\\n\n      KECCAK256 \t\t\tlic_key;\\n\n      ADD \t\t\tlic_key;\\n\n      PUSH 0\t\t\tlic_key;\\n\n      PUSH 100\t\t\tlic_key;\\n\n      EXP \t\t\tlic_key;\\n\n      DUP2 \t\t\tlic_key;\\n\n      SLOAD \t\t\tlic_key;\\n\n      SWAP1 \t\t\tlic_key;\\n\n      PUSH FFFFFFFFFFFFFFFFFFFFFFFFFFFFFFFFFFFFFFFF\t\t\tlic_key;\\n\n      MUL \t\t\tlic_key;\\n\n      NOT \t\t\tlic_key;\\n\n      AND \t\t\tlic_key;\\n\n      SWAP1 \t\t\tlic_key;\\n\n      SSTORE \t\t\tlic_key;\\n\n      SWAP1 \t\t\tlic_key;\\n\n      SSTORE \t\t\tlic_key;\\n\n      PUSH 1\t\t\tappi\n      SWAP3 \t\t\tToBoolMappi\n      POP \t\t\tToBoolMappi\n      POP \t\t\tToBoolMappi\n      POP \t\t\tToBoolMappi\n    tag 415\t\t\tng for AddToBoolMapping.Map;\\n...\n      JUMPDEST \t\t\tng for AddToBoolMapping.Map;\\n...\n      SWAP3 \t\t\tng for AddToBoolMapping.Map;\\n...\n      SWAP2 \t\t\tng for AddToBoolMapping.Map;\\n...\n      POP \t\t\tng for AddToBoolMapping.Map;\\n...\n      POP \t\t\tng for AddToBoolMapping.Map;\\n...\n      JUMP \t\t\tng for AddToBoolMapping.Map;\\n...\n    tag 363\t\t\tblicKeyMissing();\\n\\ncontract ...\n      JUMPDEST \t\t\tblicKeyMissing();\\n\\ncontract ...\n      PUSH 60\t\t\tes for Role s\n      DUP3 \t\t\tusi\n      PUSH 1\t\t\tusing Role\n      ADD \t\t\tusing Role\n      PUSH 0\t\t\tusing Roles for\n      DUP4 \t\t\t fo\n      PUSH FFFFFFFFFFFFFFFFFFFFFFFFFFFFFFFFFFFFFFFF\t\t\tusing Roles for\n      AND \t\t\tusing Roles for\n      PUSH FFFFFFFFFFFFFFFFFFFFFFFFFFFFFFFFFFFFFFFF\t\t\tusing Roles for\n      AND \t\t\tusing Roles for\n      DUP2 \t\t\tusing Roles for\n      MSTORE \t\t\tusing Roles for\n      PUSH 20\t\t\tusing Roles for\n      ADD \t\t\tusing Roles for\n      SWAP1 \t\t\tusing Roles for\n      DUP2 \t\t\tusing Roles for\n      MSTORE \t\t\tusing Roles for\n      PUSH 20\t\t\tusing Roles for\n      ADD \t\t\tusing Roles for\n      PUSH 0\t\t\tusing Roles for\n      KECCAK256 \t\t\tusing Roles for\n      DUP1 \t\t\tes\\n    using Roles for\n      SLOAD \t\t\tes\\n    using Roles for\n      PUSH [tag] 432\t\t\tes\\n    using Roles for\n      SWAP1 \t\t\tes\\n    using Roles for\n      PUSH [tag] 161\t\t\tes\\n    using Roles for\n      JUMP \t\t\tes\\n    using Roles for\n    tag 432\t\t\tes\\n    using Roles for\n      JUMPDEST \t\t\tes\\n    using Roles for\n      DUP1 \t\t\tes\\n    using Roles for\n      PUSH 1F\t\t\tes\\n    using Roles for\n      ADD \t\t\tes\\n    using Roles for\n      PUSH 20\t\t\tes\\n    using Roles for\n      DUP1 \t\t\tes\\n    using Roles for\n      SWAP2 \t\t\tes\\n    using Roles for\n      DIV \t\t\tes\\n    using Roles for\n      MUL \t\t\tes\\n    using Roles for\n      PUSH 20\t\t\tes\\n    using Roles for\n      ADD \t\t\tes\\n    using Roles for\n      PUSH 40\t\t\tes\\n    using Roles for\n      MLOAD \t\t\tes\\n    using Roles for\n      SWAP1 \t\t\tes\\n    using Roles for\n      DUP2 \t\t\tes\\n    using Roles for\n      ADD \t\t\tes\\n    using Roles for\n      PUSH 40\t\t\tes\\n    using Roles for\n      MSTORE \t\t\tes\\n    using Roles for\n      DUP1 \t\t\tes\\n    using Roles for\n      SWAP3 \t\t\tes\\n    using Roles for\n      SWAP2 \t\t\tes\\n    using Roles for\n      SWAP1 \t\t\tes\\n    using Roles for\n      DUP2 \t\t\tes\\n    using Roles for\n      DUP2 \t\t\tes\\n    using Roles for\n      MSTORE \t\t\tes\\n    using Roles for\n      PUSH 20\t\t\tes\\n    using Roles for\n      ADD \t\t\tes\\n    using Roles for\n      DUP3 \t\t\tes\\n    using Roles for\n      DUP1 \t\t\tes\\n    using Roles for\n      SLOAD \t\t\tes\\n    using Roles for\n      PUSH [tag] 433\t\t\tes\\n    using Roles for\n      SWAP1 \t\t\tes\\n    using Roles for\n      PUSH [tag] 161\t\t\tes\\n    using Roles for\n      JUMP \t\t\tes\\n    using Roles for\n    tag 433\t\t\tes\\n    using Roles for\n      JUMPDEST \t\t\tes\\n    using Roles for\n      DUP1 \t\t\tes\\n    using Roles for\n      ISZERO \t\t\tes\\n    using Roles for\n      PUSH [tag] 434\t\t\tes\\n    using Roles for\n      JUMPI \t\t\tes\\n    using Roles for\n      DUP1 \t\t\tes\\n    using Roles for\n      PUSH 1F\t\t\tes\\n    using Roles for\n      LT \t\t\tes\\n    using Roles for\n      PUSH [tag] 435\t\t\tes\\n    using Roles for\n      JUMPI \t\t\tes\\n    using Roles for\n      PUSH 100\t\t\tes\\n    using Roles for\n      DUP1 \t\t\tes\\n    using Roles for\n      DUP4 \t\t\tes\\n    using Roles for\n      SLOAD \t\t\tes\\n    using Roles for\n      DIV \t\t\tes\\n    using Roles for\n      MUL \t\t\tes\\n    using Roles for\n      DUP4 \t\t\tes\\n    using Roles for\n      MSTORE \t\t\tes\\n    using Roles for\n      SWAP2 \t\t\tes\\n    using Roles for\n      PUSH 20\t\t\tes\\n    using Roles for\n      ADD \t\t\tes\\n    using Roles for\n      SWAP2 \t\t\tes\\n    using Roles for\n      PUSH [tag] 434\t\t\tes\\n    using Roles for\n      JUMP \t\t\tes\\n    using Roles for\n    tag 435\t\t\tes\\n    using Roles for\n      JUMPDEST \t\t\tes\\n    using Roles for\n      DUP3 \t\t\tes\\n    using Roles for\n      ADD \t\t\tes\\n    using Roles for\n      SWAP2 \t\t\tes\\n    using Roles for\n      SWAP1 \t\t\tes\\n    using Roles for\n      PUSH 0\t\t\tes\\n    using Roles for\n      MSTORE \t\t\tes\\n    using Roles for\n      PUSH 20\t\t\tes\\n    using Roles for\n      PUSH 0\t\t\tes\\n    using Roles for\n      KECCAK256 \t\t\tes\\n    using Roles for\n      SWAP1 \t\t\tes\\n    using Roles for\n    tag 436\t\t\tes\\n    using Roles for\n      JUMPDEST \t\t\tes\\n    using Roles for\n      DUP2 \t\t\tes\\n    using Roles for\n      SLOAD \t\t\tes\\n    using Roles for\n      DUP2 \t\t\tes\\n    using Roles for\n      MSTORE \t\t\tes\\n    using Roles for\n      SWAP1 \t\t\tes\\n    using Roles for\n      PUSH 1\t\t\tes\\n    using Roles for\n      ADD \t\t\tes\\n    using Roles for\n      SWAP1 \t\t\tes\\n    using Roles for\n      PUSH 20\t\t\tes\\n    using Roles for\n      ADD \t\t\tes\\n    using Roles for\n      DUP1 \t\t\tes\\n    using Roles for\n      DUP4 \t\t\tes\\n    using Roles for\n      GT \t\t\tes\\n    using Roles for\n      PUSH [tag] 436\t\t\tes\\n    using Roles for\n      JUMPI \t\t\tes\\n    using Roles for\n      DUP3 \t\t\tes\\n    using Roles for\n      SWAP1 \t\t\tes\\n    using Roles for\n      SUB \t\t\tes\\n    using Roles for\n      PUSH 1F\t\t\tes\\n    using Roles for\n      AND \t\t\tes\\n    using Roles for\n      DUP3 \t\t\tes\\n    using Roles for\n      ADD \t\t\tes\\n    using Roles for\n      SWAP2 \t\t\tes\\n    using Roles for\n    tag 434\t\t\tes\\n    using Roles for\n      JUMPDEST \t\t\tes\\n    using Roles for\n      POP \t\t\tes\\n    using Roles for\n      POP \t\t\tes\\n    using Roles for\n      POP \t\t\tes\\n    using Roles for\n      POP \t\t\tes\\n    using Roles for\n      POP \t\t\tes\\n    using Roles for\n      SWAP1 \t\t\tes\\n    using Roles for\n      POP \t\t\tes\\n    using Roles for\n      SWAP3 \t\t\tblicKeyMissing();\\n\\ncontract ...\n      SWAP2 \t\t\tblicKeyMissing();\\n\\ncontract ...\n      POP \t\t\tblicKeyMissing();\\n\\ncontract ...\n      POP \t\t\tblicKeyMissing();\\n\\ncontract ...\n      JUMP \t\t\tblicKeyMissing();\\n\\ncontract ...\n    tag 388\t\t\t{\\n        Roles.Role users;\\n...\n      JUMPDEST \t\t\t{\\n        Roles.Role users;\\n...\n      DUP3 \t\t\t   \n      PUSH 3\t\t\t    struct D\n      ADD \t\t\t    struct D\n      PUSH 0\t\t\t    struct Doctor\n      DUP4 \t\t\tcto\n      PUSH FFFFFFFFFFFFFFFFFFFFFFFFFFFFFFFFFFFFFFFF\t\t\t    struct Doctor\n      AND \t\t\t    struct Doctor\n      PUSH FFFFFFFFFFFFFFFFFFFFFFFFFFFFFFFFFFFFFFFF\t\t\t    struct Doctor\n      AND \t\t\t    struct Doctor\n      DUP2 \t\t\t    struct Doctor\n      MSTORE \t\t\t    struct Doctor\n      PUSH 20\t\t\t    struct Doctor\n      ADD \t\t\t    struct Doctor\n      SWAP1 \t\t\t    struct Doctor\n      DUP2 \t\t\t    struct Doctor\n      MSTORE \t\t\t    struct Doctor\n      PUSH 20\t\t\t    struct Doctor\n      ADD \t\t\t    struct Doctor\n      PUSH 0\t\t\t    struct Doctor\n      KECCAK256 \t\t\t    struct Doctor\n      PUSH 0\t\t\t    struct Doctor\n      SWAP1 \t\t\t    struct Doctor\n      SLOAD \t\t\t    struct Doctor\n      SWAP1 \t\t\t    struct Doctor\n      PUSH 100\t\t\t    struct Doctor\n      EXP \t\t\t    struct Doctor\n      SWAP1 \t\t\t    struct Doctor\n      DIV \t\t\t    struct Doctor\n      PUSH FF\t\t\t    struct Doctor\n      AND \t\t\t    struct Doctor\n      PUSH [tag] 438\t\t\t  }\\n\\n    struct Doctors {\\n ...\n      JUMPI \t\t\t  }\\n\\n    struct Doctors {\\n ...\n      DUP3 \t\t\ting\n      PUSH 0\t\t\ting(addr\n      ADD \t\t\ting(addr\n      DUP1 \t\t\ting(address => \n      SLOAD \t\t\ting(address => \n      SWAP1 \t\t\ting(address => \n      POP \t\t\ting(address => \n      DUP4 \t\t\t_ke\n      PUSH 2\t\t\t_keys;\\n    \n      ADD \t\t\t_keys;\\n    \n      PUSH 0\t\t\t_keys;\\n        m\n      DUP5 \t\t\t   \n      PUSH FFFFFFFFFFFFFFFFFFFFFFFFFFFFFFFFFFFFFFFF\t\t\t_keys;\\n        m\n      AND \t\t\t_keys;\\n        m\n      PUSH FFFFFFFFFFFFFFFFFFFFFFFFFFFFFFFFFFFFFFFF\t\t\t_keys;\\n        m\n      AND \t\t\t_keys;\\n        m\n      DUP2 \t\t\t_keys;\\n        m\n      MSTORE \t\t\t_keys;\\n        m\n      PUSH 20\t\t\t_keys;\\n        m\n      ADD \t\t\t_keys;\\n        m\n      SWAP1 \t\t\t_keys;\\n        m\n      DUP2 \t\t\t_keys;\\n        m\n      MSTORE \t\t\t_keys;\\n        m\n      PUSH 20\t\t\t_keys;\\n        m\n      ADD \t\t\t_keys;\\n        m\n      PUSH 0\t\t\t_keys;\\n        m\n      KECCAK256 \t\t\t_keys;\\n        m\n      DUP2 \t\t\t_keys;\\n        mapping(addres...\n      SWAP1 \t\t\t_keys;\\n        mapping(addres...\n      SSTORE \t\t\t_keys;\\n        mapping(addres...\n      POP \t\t\t_keys;\\n        mapping(addres...\n      PUSH 1\t\t\tin p\n      DUP4 \t\t\ttai\n      PUSH 3\t\t\ttains hashes\n      ADD \t\t\ttains hashes\n      PUSH 0\t\t\ttains hashes\\n    \n      DUP5 \t\t\t   \n      PUSH FFFFFFFFFFFFFFFFFFFFFFFFFFFFFFFFFFFFFFFF\t\t\ttains hashes\\n    \n      AND \t\t\ttains hashes\\n    \n      PUSH FFFFFFFFFFFFFFFFFFFFFFFFFFFFFFFFFFFFFFFF\t\t\ttains hashes\\n    \n      AND \t\t\ttains hashes\\n    \n      DUP2 \t\t\ttains hashes\\n    \n      MSTORE \t\t\ttains hashes\\n    \n      PUSH 20\t\t\ttains hashes\\n    \n      ADD \t\t\ttains hashes\\n    \n      SWAP1 \t\t\ttains hashes\\n    \n      DUP2 \t\t\ttains hashes\\n    \n      MSTORE \t\t\ttains hashes\\n    \n      PUSH 20\t\t\ttains hashes\\n    \n      ADD \t\t\ttains hashes\\n    \n      PUSH 0\t\t\ttains hashes\\n    \n      KECCAK256 \t\t\ttains hashes\\n    \n      PUSH 0\t\t\ttains hashes\\n    \n      PUSH 100\t\t\ttains hashes\\n    Admin p\n      EXP \t\t\ttains hashes\\n    Admin p\n      DUP2 \t\t\ttains hashes\\n    Admin p\n      SLOAD \t\t\ttains hashes\\n    Admin p\n      DUP2 \t\t\ttains hashes\\n    Admin p\n      PUSH FF\t\t\ttains hashes\\n    Admin p\n      MUL \t\t\ttains hashes\\n    Admin p\n      NOT \t\t\ttains hashes\\n    Admin p\n      AND \t\t\ttains hashes\\n    Admin p\n      SWAP1 \t\t\ttains hashes\\n    Admin p\n      DUP4 \t\t\ttains hashes\\n    Admin p\n      ISZERO \t\t\ttains hashes\\n    Admin p\n      ISZERO \t\t\ttains hashes\\n    Admin p\n      MUL \t\t\ttains hashes\\n    Admin p\n      OR \t\t\ttains hashes\\n    Admin p\n      SWAP1 \t\t\ttains hashes\\n    Admin p\n      SSTORE \t\t\ttains hashes\\n    Admin p\n      POP \t\t\ttains hashes\\n    Admin p\n      DUP3 \t\t\tien\n      PUSH 0\t\t\tients pr\n      ADD \t\t\tients pr\n      DUP3 \t\t\tpat\n      SWAP1 \t\t\tients private pati\n      DUP1 \t\t\tients private pati\n      PUSH 1\t\t\tients private pati\n      DUP2 \t\t\tients private pati\n      SLOAD \t\t\tients private pati\n      ADD \t\t\tients private pati\n      DUP1 \t\t\tients private pati\n      DUP3 \t\t\tients private pati\n      SSTORE \t\t\tients private pati\n      DUP1 \t\t\tients private pati\n      SWAP2 \t\t\tients private pati\n      POP \t\t\tients private pati\n      POP \t\t\tients private pati\n      PUSH 1\t\t\tients private pati\n      SWAP1 \t\t\tients private pati\n      SUB \t\t\tients private pati\n      SWAP1 \t\t\tients private pati\n      PUSH 0\t\t\tients private pati\n      MSTORE \t\t\tients private pati\n      PUSH 20\t\t\tients private pati\n      PUSH 0\t\t\tients private pati\n      KECCAK256 \t\t\tients private pati\n      ADD \t\t\tients private pati\n      PUSH 0\t\t\tients private pati\n      SWAP1 \t\t\tients private pati\n      SWAP2 \t\t\tients private pati\n      SWAP1 \t\t\tients private pati\n      SWAP2 \t\t\tients private pati\n      SWAP1 \t\t\tients private pati\n      SWAP2 \t\t\tients private pati\n      PUSH 100\t\t\tients private pati\n      EXP \t\t\tients private pati\n      DUP2 \t\t\tients private pati\n      SLOAD \t\t\tients private pati\n      DUP2 \t\t\tients private pati\n      PUSH FFFFFFFFFFFFFFFFFFFFFFFFFFFFFFFFFFFFFFFF\t\t\tients private pati\n      MUL \t\t\tients private pati\n      NOT \t\t\tients private pati\n      AND \t\t\tients private pati\n      SWAP1 \t\t\tients private pati\n      DUP4 \t\t\tients private pati\n      PUSH FFFFFFFFFFFFFFFFFFFFFFFFFFFFFFFFFFFFFFFF\t\t\tients private pati\n      AND \t\t\tients private pati\n      MUL \t\t\tients private pati\n      OR \t\t\tients private pati\n      SWAP1 \t\t\tients private pati\n      SSTORE \t\t\tients private pati\n      POP \t\t\tients private pati\n    tag 438\t\t\t  }\\n\\n    struct Doctors {\\n ...\n      JUMPDEST \t\t\t  }\\n\\n    struct Doctors {\\n ...\n      DUP1 \t\t\t  }\n      DUP4 \t\t\tr =\n      PUSH 1\t\t\tr = msg.se\n      ADD \t\t\tr = msg.se\n      PUSH 0\t\t\tr = msg.sender;\n      DUP5 \t\t\tder\n      PUSH FFFFFFFFFFFFFFFFFFFFFFFFFFFFFFFFFFFFFFFF\t\t\tr = msg.sender;\n      AND \t\t\tr = msg.sender;\n      PUSH FFFFFFFFFFFFFFFFFFFFFFFFFFFFFFFFFFFFFFFF\t\t\tr = msg.sender;\n      AND \t\t\tr = msg.sender;\n      DUP2 \t\t\tr = msg.sender;\n      MSTORE \t\t\tr = msg.sender;\n      PUSH 20\t\t\tr = msg.sender;\n      ADD \t\t\tr = msg.sender;\n      SWAP1 \t\t\tr = msg.sender;\n      DUP2 \t\t\tr = msg.sender;\n      MSTORE \t\t\tr = msg.sender;\n      PUSH 20\t\t\tr = msg.sender;\n      ADD \t\t\tr = msg.sender;\n      PUSH 0\t\t\tr = msg.sender;\n      KECCAK256 \t\t\tr = msg.sender;\n      SWAP1 \t\t\tr = msg.sender;\\n    }\n      DUP2 \t\t\tr = msg.sender;\\n    }\n      PUSH [tag] 440\t\t\tr = msg.sender;\\n    }\n      SWAP2 \t\t\tr = msg.sender;\\n    }\n      SWAP1 \t\t\tr = msg.sender;\\n    }\n      PUSH [tag] 226\t\t\tr = msg.sender;\\n    }\n      JUMP \t\t\tr = msg.sender;\\n    }\n    tag 440\t\t\tr = msg.sender;\\n    }\n      JUMPDEST \t\t\tr = msg.sender;\\n    }\n      POP \t\t\tr = msg.sender;\\n    }\n      POP \t\t\t{\\n        Roles.Role users;\\n...\n      POP \t\t\t{\\n        Roles.Role users;\\n...\n      POP \t\t\t{\\n        Roles.Role users;\\n...\n      JUMP \t\t\t{\\n        Roles.Role users;\\n...\n    tag 412\t\t\tn methods\\n    function isAdmi...\n      JUMPDEST \t\t\tn methods\\n    function isAdmi...\n      DUP2 \t\t\tboo\n      PUSH 3\t\t\tbool) {\\n    \n      ADD \t\t\tbool) {\\n    \n      PUSH 0\t\t\tbool) {\\n        i\n      DUP3 \t\t\t   \n      PUSH FFFFFFFFFFFFFFFFFFFFFFFFFFFFFFFFFFFFFFFF\t\t\tbool) {\\n        i\n      AND \t\t\tbool) {\\n        i\n      PUSH FFFFFFFFFFFFFFFFFFFFFFFFFFFFFFFFFFFFFFFF\t\t\tbool) {\\n        i\n      AND \t\t\tbool) {\\n        i\n      DUP2 \t\t\tbool) {\\n        i\n      MSTORE \t\t\tbool) {\\n        i\n      PUSH 20\t\t\tbool) {\\n        i\n      ADD \t\t\tbool) {\\n        i\n      SWAP1 \t\t\tbool) {\\n        i\n      DUP2 \t\t\tbool) {\\n        i\n      MSTORE \t\t\tbool) {\\n        i\n      PUSH 20\t\t\tbool) {\\n        i\n      ADD \t\t\tbool) {\\n        i\n      PUSH 0\t\t\tbool) {\\n        i\n      KECCAK256 \t\t\tbool) {\\n        i\n      PUSH 0\t\t\tbool) {\\n        i\n      SWAP1 \t\t\tbool) {\\n        i\n      SLOAD \t\t\tbool) {\\n        i\n      SWAP1 \t\t\tbool) {\\n        i\n      PUSH 100\t\t\tbool) {\\n        i\n      EXP \t\t\tbool) {\\n        i\n      SWAP1 \t\t\tbool) {\\n        i\n      DIV \t\t\tbool) {\\n        i\n      PUSH FF\t\t\tbool) {\\n        i\n      AND \t\t\tbool) {\\n        i\n      ISZERO \t\t\trns (bool) {\\n        if (admi...\n      PUSH [tag] 441\t\t\t(admin.\n      JUMPI \t\t\trns (bool) {\\n        if (admi...\n      DUP2 \t\t\tals\n      PUSH 1\t\t\talse;\\n    \n      ADD \t\t\talse;\\n    \n      PUSH 0\t\t\talse;\\n    }\\n\\n  \n      DUP3 \t\t\t\\n\\n \n      PUSH FFFFFFFFFFFFFFFFFFFFFFFFFFFFFFFFFFFFFFFF\t\t\talse;\\n    }\\n\\n  \n      AND \t\t\talse;\\n    }\\n\\n  \n      PUSH FFFFFFFFFFFFFFFFFFFFFFFFFFFFFFFFFFFFFFFF\t\t\talse;\\n    }\\n\\n  \n      AND \t\t\talse;\\n    }\\n\\n  \n      DUP2 \t\t\talse;\\n    }\\n\\n  \n      MSTORE \t\t\talse;\\n    }\\n\\n  \n      PUSH 20\t\t\talse;\\n    }\\n\\n  \n      ADD \t\t\talse;\\n    }\\n\\n  \n      SWAP1 \t\t\talse;\\n    }\\n\\n  \n      DUP2 \t\t\talse;\\n    }\\n\\n  \n      MSTORE \t\t\talse;\\n    }\\n\\n  \n      PUSH 20\t\t\talse;\\n    }\\n\\n  \n      ADD \t\t\talse;\\n    }\\n\\n  \n      PUSH 0\t\t\talse;\\n    }\\n\\n  \n      KECCAK256 \t\t\talse;\\n    }\\n\\n  \n      PUSH 0\t\t\talse;\\n    }\\n\\n  \n      PUSH [tag] 443\t\t\teturn false;\\n    }\\n\\n  \n      SWAP2 \t\t\teturn false;\\n    }\\n\\n  \n      SWAP1 \t\t\teturn false;\\n    }\\n\\n  \n      PUSH [tag] 444\t\t\teturn false;\\n    }\\n\\n  \n      JUMP \t\t\teturn false;\\n    }\\n\\n  \n    tag 443\t\t\teturn false;\\n    }\\n\\n  \n      JUMPDEST \t\t\teturn false;\\n    }\\n\\n  \n      DUP2 \t\t\tin(\n      PUSH 3\t\t\tin() public \n      ADD \t\t\tin() public \n      PUSH 0\t\t\tin() public view \n      DUP3 \t\t\tiew\n      PUSH FFFFFFFFFFFFFFFFFFFFFFFFFFFFFFFFFFFFFFFF\t\t\tin() public view \n      AND \t\t\tin() public view \n      PUSH FFFFFFFFFFFFFFFFFFFFFFFFFFFFFFFFFFFFFFFF\t\t\tin() public view \n      AND \t\t\tin() public view \n      DUP2 \t\t\tin() public view \n      MSTORE \t\t\tin() public view \n      PUSH 20\t\t\tin() public view \n      ADD \t\t\tin() public view \n      SWAP1 \t\t\tin() public view \n      DUP2 \t\t\tin() public view \n      MSTORE \t\t\tin() public view \n      PUSH 20\t\t\tin() public view \n      ADD \t\t\tin() public view \n      PUSH 0\t\t\tin() public view \n      KECCAK256 \t\t\tin() public view \n      PUSH 0\t\t\tin() public view \n      PUSH 100\t\t\t getAdmin() public view \n      EXP \t\t\t getAdmin() public view \n      DUP2 \t\t\t getAdmin() public view \n      SLOAD \t\t\t getAdmin() public view \n      SWAP1 \t\t\t getAdmin() public view \n      PUSH FF\t\t\t getAdmin() public view \n      MUL \t\t\t getAdmin() public view \n      NOT \t\t\t getAdmin() public view \n      AND \t\t\t getAdmin() public view \n      SWAP1 \t\t\t getAdmin() public view \n      SSTORE \t\t\t getAdmin() public view \n      PUSH 0\t\t\t.user;\\n    }\\n\n      DUP3 \t\t\t  f\n      PUSH 2\t\t\t  function \n      ADD \t\t\t  function \n      PUSH 0\t\t\t  function setAd\n      DUP4 \t\t\tetA\n      PUSH FFFFFFFFFFFFFFFFFFFFFFFFFFFFFFFFFFFFFFFF\t\t\t  function setAd\n      AND \t\t\t  function setAd\n      PUSH FFFFFFFFFFFFFFFFFFFFFFFFFFFFFFFFFFFFFFFF\t\t\t  function setAd\n      AND \t\t\t  function setAd\n      DUP2 \t\t\t  function setAd\n      MSTORE \t\t\t  function setAd\n      PUSH 20\t\t\t  function setAd\n      ADD \t\t\t  function setAd\n      SWAP1 \t\t\t  function setAd\n      DUP2 \t\t\t  function setAd\n      MSTORE \t\t\t  function setAd\n      PUSH 20\t\t\t  function setAd\n      ADD \t\t\t  function setAd\n      PUSH 0\t\t\t  function setAd\n      KECCAK256 \t\t\t  function setAd\n      SLOAD \t\t\t  function setAd\n      SWAP1 \t\t\t.user;\\n    }\\n\\n    function ...\n      POP \t\t\t.user;\\n    }\\n\\n    function ...\n      PUSH 0\t\t\tstring memory _pu\n      PUSH 1\t\t\tA\n      DUP5 \t\t\tc_k\n      PUSH 0\t\t\tc_key) p\n      ADD \t\t\tc_key) p\n      DUP1 \t\t\tc_key) public o\n      SLOAD \t\t\tc_key) public o\n      SWAP1 \t\t\tc_key) public o\n      POP \t\t\tc_key) public o\n      PUSH [tag] 445\t\t\tc_key) public onlyA\n      SWAP2 \t\t\tc_key) public onlyA\n      SWAP1 \t\t\tc_key) public onlyA\n      PUSH [tag] 367\t\t\tc_key) public onlyA\n      JUMP \t\t\tc_key) public onlyA\n    tag 445\t\t\tc_key) public onlyA\n      JUMPDEST \t\t\tc_key) public onlyA\n      SWAP1 \t\t\tstring memory _public_key) pub...\n      POP \t\t\tstring memory _public_key) pub...\n      PUSH 0\t\t\t     admin.publ\n      DUP5 \t\t\tkey\n      PUSH 0\t\t\tkey = _p\n      ADD \t\t\tkey = _p\n      DUP3 \t\t\tblic_key;\n      DUP2 \t\t\tkey = _public_key;\\n\n      SLOAD \t\t\tkey = _public_key;\\n\n      DUP2 \t\t\tkey = _public_key;\\n\n      LT \t\t\tkey = _public_key;\\n\n      PUSH [tag] 446\t\t\tkey = _public_key;\\n\n      JUMPI \t\t\tkey = _public_key;\\n\n      PUSH [tag] 447\t\t\tkey = _public_key;\\n\n      PUSH [tag] 370\t\t\tkey = _public_key;\\n\n      JUMP \t\t\tkey = _public_key;\\n\n    tag 447\t\t\tkey = _public_key;\\n\n      JUMPDEST \t\t\tkey = _public_key;\\n\n    tag 446\t\t\tkey = _public_key;\\n\n      JUMPDEST \t\t\tkey = _public_key;\\n\n      SWAP1 \t\t\tkey = _public_key;\\n\n      PUSH 0\t\t\tkey = _public_key;\\n\n      MSTORE \t\t\tkey = _public_key;\\n\n      PUSH 20\t\t\tkey = _public_key;\\n\n      PUSH 0\t\t\tkey = _public_key;\\n\n      KECCAK256 \t\t\tkey = _public_key;\\n\n      ADD \t\t\tkey = _public_key;\\n\n      PUSH 0\t\t\tkey = _public_key;\\n\n      SWAP1 \t\t\tkey = _public_key;\\n\n      SLOAD \t\t\tkey = _public_key;\\n\n      SWAP1 \t\t\tkey = _public_key;\\n\n      PUSH 100\t\t\tkey = _public_key;\\n\n      EXP \t\t\tkey = _public_key;\\n\n      SWAP1 \t\t\tkey = _public_key;\\n\n      DIV \t\t\tkey = _public_key;\\n\n      PUSH FFFFFFFFFFFFFFFFFFFFFFFFFFFFFFFFFFFFFFFF\t\t\tkey = _public_key;\\n\n      AND \t\t\tkey = _public_key;\\n\n      SWAP1 \t\t\t     admin.public_key = _publi...\n      POP \t\t\t     admin.public_key = _publi...\n      DUP3 \t\t\t{\\n   \n      DUP6 \t\t\tetu\n      PUSH 2\t\t\teturns (str\n      ADD \t\t\teturns (str\n      PUSH 0\t\t\teturns (string memor\n      DUP4 \t\t\tng memo\n      PUSH FFFFFFFFFFFFFFFFFFFFFFFFFFFFFFFFFFFFFFFF\t\t\teturns (string memor\n      AND \t\t\teturns (string memor\n      PUSH FFFFFFFFFFFFFFFFFFFFFFFFFFFFFFFFFFFFFFFF\t\t\teturns (string memor\n      AND \t\t\teturns (string memor\n      DUP2 \t\t\teturns (string memor\n      MSTORE \t\t\teturns (string memor\n      PUSH 20\t\t\teturns (string memor\n      ADD \t\t\teturns (string memor\n      SWAP1 \t\t\teturns (string memor\n      DUP2 \t\t\teturns (string memor\n      MSTORE \t\t\teturns (string memor\n      PUSH 20\t\t\teturns (string memor\n      ADD \t\t\teturns (string memor\n      PUSH 0\t\t\teturns (string memor\n      KECCAK256 \t\t\teturns (string memor\n      DUP2 \t\t\teturns (string memory) {\\n   \n      SWAP1 \t\t\teturns (string memory) {\\n   \n      SSTORE \t\t\teturns (string memory) {\\n   \n      POP \t\t\teturns (string memory) {\\n   \n      DUP5 \t\t\t.pu\n      PUSH 2\t\t\t.public_key\n      ADD \t\t\t.public_key\n      PUSH 0\t\t\t.public_key;\\n   \n      DUP6 \t\t\t\\n  \n      PUSH FFFFFFFFFFFFFFFFFFFFFFFFFFFFFFFFFFFFFFFF\t\t\t.public_key;\\n   \n      AND \t\t\t.public_key;\\n   \n      PUSH FFFFFFFFFFFFFFFFFFFFFFFFFFFFFFFFFFFFFFFF\t\t\t.public_key;\\n   \n      AND \t\t\t.public_key;\\n   \n      DUP2 \t\t\t.public_key;\\n   \n      MSTORE \t\t\t.public_key;\\n   \n      PUSH 20\t\t\t.public_key;\\n   \n      ADD \t\t\t.public_key;\\n   \n      SWAP1 \t\t\t.public_key;\\n   \n      DUP2 \t\t\t.public_key;\\n   \n      MSTORE \t\t\t.public_key;\\n   \n      PUSH 20\t\t\t.public_key;\\n   \n      ADD \t\t\t.public_key;\\n   \n      PUSH 0\t\t\t.public_key;\\n   \n      KECCAK256 \t\t\t.public_key;\\n   \n      PUSH 0\t\t\tn admin.public_key;\\n   \n      SWAP1 \t\t\tn admin.public_key;\\n   \n      SSTORE \t\t\tn admin.public_key;\\n   \n      DUP1 \t\t\tress _a\n      DUP6 \t\t\tisD\n      PUSH 0\t\t\tisDrRegi\n      ADD \t\t\tisDrRegi\n      DUP5 \t\t\ttered\n      DUP2 \t\t\tisDrRegistered(\n      SLOAD \t\t\tisDrRegistered(\n      DUP2 \t\t\tisDrRegistered(\n      LT \t\t\tisDrRegistered(\n      PUSH [tag] 449\t\t\tisDrRegistered(\n      JUMPI \t\t\tisDrRegistered(\n      PUSH [tag] 450\t\t\tisDrRegistered(\n      PUSH [tag] 370\t\t\tisDrRegistered(\n      JUMP \t\t\tisDrRegistered(\n    tag 450\t\t\tisDrRegistered(\n      JUMPDEST \t\t\tisDrRegistered(\n    tag 449\t\t\tisDrRegistered(\n      JUMPDEST \t\t\tisDrRegistered(\n      SWAP1 \t\t\tisDrRegistered(\n      PUSH 0\t\t\tisDrRegistered(\n      MSTORE \t\t\tisDrRegistered(\n      PUSH 20\t\t\tisDrRegistered(\n      PUSH 0\t\t\tisDrRegistered(\n      KECCAK256 \t\t\tisDrRegistered(\n      ADD \t\t\tisDrRegistered(\n      PUSH 0\t\t\tisDrRegistered(\n      PUSH 100\t\t\tisDrRegistered(address _a\n      EXP \t\t\tisDrRegistered(address _a\n      DUP2 \t\t\tisDrRegistered(address _a\n      SLOAD \t\t\tisDrRegistered(address _a\n      DUP2 \t\t\tisDrRegistered(address _a\n      PUSH FFFFFFFFFFFFFFFFFFFFFFFFFFFFFFFFFFFFFFFF\t\t\tisDrRegistered(address _a\n      MUL \t\t\tisDrRegistered(address _a\n      NOT \t\t\tisDrRegistered(address _a\n      AND \t\t\tisDrRegistered(address _a\n      SWAP1 \t\t\tisDrRegistered(address _a\n      DUP4 \t\t\tisDrRegistered(address _a\n      PUSH FFFFFFFFFFFFFFFFFFFFFFFFFFFFFFFFFFFFFFFF\t\t\tisDrRegistered(address _a\n      AND \t\t\tisDrRegistered(address _a\n      MUL \t\t\tisDrRegistered(address _a\n      OR \t\t\tisDrRegistered(address _a\n      SWAP1 \t\t\tisDrRegistered(address _a\n      SSTORE \t\t\tisDrRegistered(address _a\n      POP \t\t\tisDrRegistered(address _a\n      DUP5 \t\t\tbli\n      PUSH 0\t\t\tblic vie\n      ADD \t\t\tblic vie\n      DUP1 \t\t\tblic view retu\n      SLOAD \t\t\tblic view retu\n      DUP1 \t\t\tblic view retu\n      PUSH [tag] 452\t\t\tblic view retu\n      JUMPI \t\t\tblic view retu\n      PUSH [tag] 453\t\t\tblic view retu\n      PUSH [tag] 377\t\t\tblic view retu\n      JUMP \t\t\tblic view retu\n    tag 453\t\t\tblic view retu\n      JUMPDEST \t\t\tblic view retu\n    tag 452\t\t\tblic view retu\n      JUMPDEST \t\t\tblic view retu\n      PUSH 1\t\t\tblic view retu\n      SWAP1 \t\t\tblic view retu\n      SUB \t\t\tblic view retu\n      DUP2 \t\t\tblic view retu\n      DUP2 \t\t\tblic view retu\n      SWAP1 \t\t\tblic view retu\n      PUSH 0\t\t\tblic view retu\n      MSTORE \t\t\tblic view retu\n      PUSH 20\t\t\tblic view retu\n      PUSH 0\t\t\tblic view retu\n      KECCAK256 \t\t\tblic view retu\n      ADD \t\t\tblic view retu\n      PUSH 0\t\t\tblic view retu\n      PUSH 100\t\t\tblic view retu\n      EXP \t\t\tblic view retu\n      DUP2 \t\t\tblic view retu\n      SLOAD \t\t\tblic view retu\n      SWAP1 \t\t\tblic view retu\n      PUSH FFFFFFFFFFFFFFFFFFFFFFFFFFFFFFFFFFFFFFFF\t\t\tblic view retu\n      MUL \t\t\tblic view retu\n      NOT \t\t\tblic view retu\n      AND \t\t\tblic view retu\n      SWAP1 \t\t\tblic view retu\n      SSTORE \t\t\tblic view retu\n      SWAP1 \t\t\tblic view retu\n      SSTORE \t\t\tblic view retu\n      POP \t\t\t view returns (bool) {\\n      ...\n      POP \t\t\t view returns (bool) {\\n      ...\n      POP \t\t\t view returns (bool) {\\n      ...\n    tag 441\t\t\tn methods\\n    function isAdmi...\n      JUMPDEST \t\t\tn methods\\n    function isAdmi...\n      POP \t\t\tn methods\\n    function isAdmi...\n      POP \t\t\tn methods\\n    function isAdmi...\n      JUMP \t\t\tn methods\\n    function isAdmi...\n    tag 444\t\t\t\n      JUMPDEST \t\t\t\n      POP \t\t\t\n      DUP1 \t\t\t\n      SLOAD \t\t\t\n      PUSH [tag] 455\t\t\t\n      SWAP1 \t\t\t\n      PUSH [tag] 161\t\t\t\n      JUMP \t\t\t\n    tag 455\t\t\t\n      JUMPDEST \t\t\t\n      PUSH 0\t\t\t\n      DUP3 \t\t\t\n      SSTORE \t\t\t\n      DUP1 \t\t\t\n      PUSH 1F\t\t\t\n      LT \t\t\t\n      PUSH [tag] 457\t\t\t\n      JUMPI \t\t\t\n      POP \t\t\t\n      PUSH [tag] 456\t\t\t\n      JUMP \t\t\t\n    tag 457\t\t\t\n      JUMPDEST \t\t\t\n      PUSH 1F\t\t\t\n      ADD \t\t\t\n      PUSH 20\t\t\t\n      SWAP1 \t\t\t\n      DIV \t\t\t\n      SWAP1 \t\t\t\n      PUSH 0\t\t\t\n      MSTORE \t\t\t\n      PUSH 20\t\t\t\n      PUSH 0\t\t\t\n      KECCAK256 \t\t\t\n      SWAP1 \t\t\t\n      DUP2 \t\t\t\n      ADD \t\t\t\n      SWAP1 \t\t\t\n      PUSH [tag] 458\t\t\t\n      SWAP2 \t\t\t\n      SWAP1 \t\t\t\n      PUSH [tag] 459\t\t\t\n      JUMP \t\t\t\n    tag 458\t\t\t\n      JUMPDEST \t\t\t\n    tag 456\t\t\t\n      JUMPDEST \t\t\t\n      POP \t\t\t\n      JUMP \t\t\t\n    tag 459\t\t\t\n      JUMPDEST \t\t\t\n    tag 460\t\t\t\n      JUMPDEST \t\t\t\n      DUP1 \t\t\t\n      DUP3 \t\t\t\n      GT \t\t\t\n      ISZERO \t\t\t\n      PUSH [tag] 461\t\t\t\n      JUMPI \t\t\t\n      PUSH 0\t\t\t\n      DUP2 \t\t\t\n      PUSH 0\t\t\t\n      SWAP1 \t\t\t\n      SSTORE \t\t\t\n      POP \t\t\t\n      PUSH 1\t\t\t\n      ADD \t\t\t\n      PUSH [tag] 460\t\t\t\n      JUMP \t\t\t\n    tag 461\t\t\t\n      JUMPDEST \t\t\t\n      POP \t\t\t\n      SWAP1 \t\t\t\n      JUMP \t\t\t\n    tag 462\t\t\t-License-Identifier: MIT\\nprag...\n      JUMPDEST \t\t\t-License-Identifier: MIT\\nprag...\n      PUSH 0\t\t\tolidit\n      PUSH 40\t\t\t.s\n      MLOAD \t\t\t/Roles.so\n      SWAP1 \t\t\t\\nimport \"./Roles.so\n      POP \t\t\t\\nimport \"./Roles.so\n      SWAP1 \t\t\t-License-Identifier: MIT\\nprag...\n      JUMP \t\t\t-License-Identifier: MIT\\nprag...\n    tag 463\t\t\t./AddressArrayUtils.sol\";\\nimp...\n      JUMPDEST \t\t\t./AddressArrayUtils.sol\";\\nimp...\n      PUSH 0\t\t\tc\n      DUP1 \t\t\tt\n      REVERT \t\t\tact__NotDoct\n    tag 464\t\t\tContract__NotPatient();\\nerror...\n      JUMPDEST \t\t\tContract__NotPatient();\\nerror...\n      PUSH 0\t\t\to\n      DUP1 \t\t\t\\n\n      REVERT \t\t\tsing();\\n\\ncon\n    tag 465\t\t\tct {\\n    // using methods of ...\n      JUMPDEST \t\t\tct {\\n    // using methods of ...\n      PUSH 0\t\t\tr Role \n      PUSH FFFFFFFFFFFFFFFFFFFFFFFFFFFFFFFFFFFFFFFF\t\t\tor Roles.Role;\\n    using AddT...\n      DUP3 \t\t\tRoles\n      AND \t\t\ting Roles for Roles.Role;\\n   ...\n      SWAP1 \t\t\toles\\n    using Roles for Role...\n      POP \t\t\toles\\n    using Roles for Role...\n      SWAP2 \t\t\tct {\\n    // using methods of ...\n      SWAP1 \t\t\tct {\\n    // using methods of ...\n      POP \t\t\tct {\\n    // using methods of ...\n      JUMP \t\t\tct {\\n    // using methods of ...\n    tag 466\t\t\tMapping.Map;\\n    using Addres...\n      JUMPDEST \t\t\tMapping.Map;\\n    using Addres...\n      PUSH 0\t\t\tils for\n      PUSH [tag] 537\t\t\tt MedicalRecord {\\n      \n      DUP3 \t\t\t     \n      PUSH [tag] 465\t\t\tt MedicalRecord {\\n      \n      JUMP \t\t\tt MedicalRecord {\\n      \n    tag 537\t\t\tt MedicalRecord {\\n      \n      JUMPDEST \t\t\tt MedicalRecord {\\n      \n      SWAP1 \t\t\t\\n\\n    struct MedicalRecord {...\n      POP \t\t\t\\n\\n    struct MedicalRecord {...\n      SWAP2 \t\t\tMapping.Map;\\n    using Addres...\n      SWAP1 \t\t\tMapping.Map;\\n    using Addres...\n      POP \t\t\tMapping.Map;\\n    using Addres...\n      JUMP \t\t\tMapping.Map;\\n    using Addres...\n    tag 467\t\t\titor;\\n        address[] viewe...\n      JUMPDEST \t\t\titor;\\n        address[] viewe...\n      PUSH [tag] 539\t\t\t struct Admin {\\n        \n      DUP2 \t\t\t     \n      PUSH [tag] 466\t\t\t struct Admin {\\n        \n      JUMP \t\t\t struct Admin {\\n        \n    tag 539\t\t\t struct Admin {\\n        \n      JUMPDEST \t\t\t struct Admin {\\n        \n      DUP2 \t\t\t }\\n\\n \n      EQ \t\t\t    }\\n\\n    struct Admin {\\n ...\n      PUSH [tag] 540\t\t\tata_hash;\\n    }\\n\\n    struct...\n      JUMPI \t\t\tata_hash;\\n    }\\n\\n    struct...\n      PUSH 0\t\t\t \n      DUP1 \t\t\t;\n      REVERT \t\t\tss user;\\n   \n    tag 540\t\t\tata_hash;\\n    }\\n\\n    struct...\n      JUMPDEST \t\t\tata_hash;\\n    }\\n\\n    struct...\n      POP \t\t\titor;\\n        address[] viewe...\n      JUMP \t\t\titor;\\n        address[] viewe...\n    tag 468\t\t\tblic_key;\\n        AddToBoolMa...\n      JUMPDEST \t\t\tblic_key;\\n        AddToBoolMa...\n      PUSH 0\t\t\t_doct\n      DUP2 \t\t\t\\n     \n      CALLDATALOAD \t\t\tct Patients {\\n      \n      SWAP1 \t\t\t\\n    struct Patients {\\n     ...\n      POP \t\t\t\\n    struct Patients {\\n     ...\n      PUSH [tag] 542\t\t\tole users;\\n        mapping(ad...\n      DUP2 \t\t\taddre\n      PUSH [tag] 467\t\t\tole users;\\n        mapping(ad...\n      JUMP \t\t\tole users;\\n        mapping(ad...\n    tag 542\t\t\tole users;\\n        mapping(ad...\n      JUMPDEST \t\t\tole users;\\n        mapping(ad...\n      SWAP3 \t\t\tblic_key;\\n        AddToBoolMa...\n      SWAP2 \t\t\tblic_key;\\n        AddToBoolMa...\n      POP \t\t\tblic_key;\\n        AddToBoolMa...\n      POP \t\t\tblic_key;\\n        AddToBoolMa...\n      JUMP \t\t\tblic_key;\\n        AddToBoolMa...\n    tag 42\t\t\tRecord) records;\\n    }\\n\\n   ...\n      JUMPDEST \t\t\tRecord) records;\\n    }\\n\\n   ...\n      PUSH 0\t\t\tRole u\n      PUSH 20\t\t\tbl\n      DUP3 \t\t\t> string)\n      DUP5 \t\t\taddress\n      SUB \t\t\ting(address => string) \n      SLT \t\t\tmapping(address => string) pub...\n      ISZERO \t\t\t   mapping(address => string) ...\n      PUSH [tag] 544\t\t\t   mapping(address => string) ...\n      JUMPI \t\t\t   mapping(address => string) ...\n      PUSH [tag] 545\t\t\teys;\\n        mapping(address ...\n      PUSH [tag] 463\t\t\teys;\\n        mapping(address ...\n      JUMP \t\t\teys;\\n        mapping(address ...\n    tag 545\t\t\teys;\\n        mapping(address ...\n      JUMPDEST \t\t\teys;\\n        mapping(address ...\n    tag 544\t\t\t   mapping(address => string) ...\n      JUMPDEST \t\t\t   mapping(address => string) ...\n      PUSH 0\t\t\t \n      PUSH [tag] 546\t\t\t Doctors private doctors;\\n   ...\n      DUP5 \t\t\te patie\n      DUP3 \t\t\tts pri\n      DUP6 \t\t\t\\n    Pati\n      ADD \t\t\tors;\\n    Patients priv\n      PUSH [tag] 468\t\t\t Doctors private doctors;\\n   ...\n      JUMP \t\t\t Doctors private doctors;\\n   ...\n    tag 546\t\t\t Doctors private doctors;\\n   ...\n      JUMPDEST \t\t\t Doctors private doctors;\\n   ...\n      SWAP2 \t\t\tadmin;\\n    Doctors private do...\n      POP \t\t\tadmin;\\n    Doctors private do...\n      POP \t\t\tg roles - contains hashes\\n   ...\n      SWAP3 \t\t\tRecord) records;\\n    }\\n\\n   ...\n      SWAP2 \t\t\tRecord) records;\\n    }\\n\\n   ...\n      POP \t\t\tRecord) records;\\n    }\\n\\n   ...\n      POP \t\t\tRecord) records;\\n    }\\n\\n   ...\n      JUMP \t\t\tRecord) records;\\n    }\\n\\n   ...\n    tag 469\t\t\tg admin\\n    constructor() {\\n...\n      JUMPDEST \t\t\tg admin\\n    constructor() {\\n...\n      PUSH 0\t\t\t.sende\n      DUP2 \t\t\tds\\n  \n      MLOAD \t\t\t methods\\n   \n      SWAP1 \t\t\t  // Admin methods\\n   \n      POP \t\t\t  // Admin methods\\n   \n      SWAP2 \t\t\tg admin\\n    constructor() {\\n...\n      SWAP1 \t\t\tg admin\\n    constructor() {\\n...\n      POP \t\t\tg admin\\n    constructor() {\\n...\n      JUMP \t\t\tg admin\\n    constructor() {\\n...\n    tag 470\t\t\tdmin(address _address) public ...\n      JUMPDEST \t\t\tdmin(address _address) public ...\n      PUSH 0\t\t\tss) return \n      DUP3 \t\t\tlse;\\n \n      DUP3 \t\t\trn \n      MSTORE \t\t\t   return false;\\n  \n      PUSH 20\t\t\tic v\n      DUP3 \t\t\t pu\n      ADD \t\t\tin() public vi\n      SWAP1 \t\t\tfunction getAdmin() public vi\n      POP \t\t\tfunction getAdmin() public vi\n      SWAP3 \t\t\tdmin(address _address) public ...\n      SWAP2 \t\t\tdmin(address _address) public ...\n      POP \t\t\tdmin(address _address) public ...\n      POP \t\t\tdmin(address _address) public ...\n      JUMP \t\t\tdmin(address _address) public ...\n    tag 471\t\t\taddress) {\\n        return adm...\n      JUMPDEST \t\t\taddress) {\\n        return adm...\n      PUSH 0\t\t\te\n    tag 550\t\t\tlic_key) public onlyAdmin {\\n ...\n      JUMPDEST \t\t\tlic_key) public onlyAdmin {\\n ...\n      DUP4 \t\t\tc only\n      DUP2 \t\t\tb\n      LT \t\t\t public onlyA\n      ISZERO \t\t\tlic_key) public onlyAdmin {\\n ...\n      PUSH [tag] 552\t\t\tlic_key) public onlyAdmin {\\n ...\n      JUMPI \t\t\tlic_key) public onlyAdmin {\\n ...\n      DUP1 \t\t\tK\n      DUP3 \t\t\tinP\n      ADD \t\t\ttAdminPubKe\n      MLOAD \t\t\tion getAdminPubKey\n      DUP2 \t\t\tu\n      DUP5 \t\t\t   \n      ADD \t\t\t }\\n\\n    fun\n      MSTORE \t\t\tey;\\n    }\\n\\n    function get...\n      PUSH 20\t\t\tad\n      DUP2 \t\t\t \n      ADD \t\t\t       adm\n      SWAP1 \t\t\tn {\\n        adm\n      POP \t\t\tn {\\n        adm\n      PUSH [tag] 550\t\t\tlic_key) public onlyAdmin {\\n ...\n      JUMP \t\t\tlic_key) public onlyAdmin {\\n ...\n    tag 552\t\t\tlic_key) public onlyAdmin {\\n ...\n      JUMPDEST \t\t\tlic_key) public onlyAdmin {\\n ...\n      PUSH 0\t\t\t \n      DUP5 \t\t\ty) {\\n \n      DUP5 \t\t\tmem\n      ADD \t\t\ting memory) {\\n  \n      MSTORE \t\t\tns (string memory) {\\n      \n      POP \t\t\tdminPubKey(string memory _publ...\n      POP \t\t\taddress) {\\n        return adm...\n      POP \t\t\taddress) {\\n        return adm...\n      POP \t\t\taddress) {\\n        return adm...\n      JUMP \t\t\taddress) {\\n        return adm...\n    tag 472\t\t\tin.public_key;\\n    }\\n\\n    /...\n      JUMPDEST \t\t\tin.public_key;\\n    }\\n\\n    /...\n      PUSH 0\t\t\tds\\n   \n      PUSH 1F\t\t\tbl\n      NOT \t\t\t) publi\n      PUSH 1F\t\t\tdr\n      DUP4 \t\t\tess _\n      ADD \t\t\taddress _addre\n      AND \t\t\tred(address _address) public\n      SWAP1 \t\t\tsDrRegistered(address _address...\n      POP \t\t\tsDrRegistered(address _address...\n      SWAP2 \t\t\tin.public_key;\\n    }\\n\\n    /...\n      SWAP1 \t\t\tin.public_key;\\n    }\\n\\n    /...\n      POP \t\t\tin.public_key;\\n    }\\n\\n    /...\n      JUMP \t\t\tin.public_key;\\n    }\\n\\n    /...\n    tag 473\t\t\ts (bool) {\\n        return doc...\n      JUMPDEST \t\t\ts (bool) {\\n        return doc...\n      PUSH 0\t\t\tddr\n      PUSH [tag] 555\t\t\t returns (bool) {\\n        ret...\n      DUP3 \t\t\tadmin\n      PUSH [tag] 469\t\t\t returns (bool) {\\n        ret...\n      JUMP \t\t\t returns (bool) {\\n        ret...\n    tag 555\t\t\t returns (bool) {\\n        ret...\n      JUMPDEST \t\t\t returns (bool) {\\n        ret...\n      PUSH [tag] 556\t\t\tget(_address);\\n    }\\n\\n    f...\n      DUP2 \t\t\tblic v\n      DUP6 \t\t\ts) \n      PUSH [tag] 470\t\t\tget(_address);\\n    }\\n\\n    f...\n      JUMP \t\t\tget(_address);\\n    }\\n\\n    f...\n    tag 556\t\t\tget(_address);\\n    }\\n\\n    f...\n      JUMPDEST \t\t\tget(_address);\\n    }\\n\\n    f...\n      SWAP4 \t\t\toctors.get(_address);\\n    }\\n...\n      POP \t\t\toctors.get(_address);\\n    }\\n...\n      PUSH [tag] 557\t\t\ts (bool) {\\n        if (!docto...\n      DUP2 \t\t\tn fals\n      DUP6 \t\t\tret\n      PUSH 20\t\t\tress\n      DUP7 \t\t\tas(_a\n      ADD \t\t\trs.has(_address)\n      PUSH [tag] 471\t\t\ts (bool) {\\n        if (!docto...\n      JUMP \t\t\ts (bool) {\\n        if (!docto...\n    tag 557\t\t\ts (bool) {\\n        if (!docto...\n      JUMPDEST \t\t\ts (bool) {\\n        if (!docto...\n      PUSH [tag] 558\t\t\tng_doctors.get(_address)) ret\n      DUP2 \t\t\ts)) re\n      PUSH [tag] 472\t\t\tng_doctors.get(_address)) ret\n      JUMP \t\t\tng_doctors.get(_address)) ret\n    tag 558\t\t\tng_doctors.get(_address)) ret\n      JUMPDEST \t\t\tng_doctors.get(_address)) ret\n      DUP5 \t\t\tpen\n      ADD \t\t\tmin.pending_doctors.get(_addre...\n      SWAP2 \t\t\t if (admin.pending_doctors.get...\n      POP \t\t\t if (admin.pending_doctors.get...\n      POP \t\t\tss _address) public view retur...\n      SWAP3 \t\t\ts (bool) {\\n        return doc...\n      SWAP2 \t\t\ts (bool) {\\n        return doc...\n      POP \t\t\ts (bool) {\\n        return doc...\n      POP \t\t\ts (bool) {\\n        return doc...\n      JUMP \t\t\ts (bool) {\\n        return doc...\n    tag 47\t\t\t      if (bytes(doctors.public...\n      JUMPDEST \t\t\t      if (bytes(doctors.public...\n      PUSH 0\t\t\tn re\n      PUSH 20\t\t\tic\n      DUP3 \t\t\t_hash) pu\n      ADD \t\t\tory _hash) public \n      SWAP1 \t\t\tring memory _hash) public \n      POP \t\t\tring memory _hash) public \n      DUP2 \t\t\tontract: \n      DUP2 \t\t\tert(\n      SUB \t\t\t revert(\"Contract: A\n      PUSH 0\t\t\te\n      DUP4 \t\t\tnt(msg.se\n      ADD \t\t\tatient(msg.sender\n      MSTORE \t\t\tif (isPatient(msg.sender)) rev...\n      PUSH [tag] 560\t\t\tistered as patient\");\\n       ...\n      DUP2 \t\t\tact:\n      DUP5 \t\t\trt(\"Co\n      PUSH [tag] 473\t\t\tistered as patient\");\\n       ...\n      JUMP \t\t\tistered as patient\");\\n       ...\n    tag 560\t\t\tistered as patient\");\\n       ...\n      JUMPDEST \t\t\tistered as patient\");\\n       ...\n      SWAP1 \t\t\teady registered as patient\");\\...\n      POP \t\t\teady registered as patient\");\\...\n      SWAP3 \t\t\t      if (bytes(doctors.public...\n      SWAP2 \t\t\t      if (bytes(doctors.public...\n      POP \t\t\t      if (bytes(doctors.public...\n      POP \t\t\t      if (bytes(doctors.public...\n      JUMP \t\t\t      if (bytes(doctors.public...\n    tag 474\t\t\t not allowed\");\\n        docto...\n      JUMPDEST \t\t\t not allowed\");\\n        docto...\n      PUSH 0\t\t\t   adm\n      DUP2 \t\t\tender\n      MLOAD \t\t\t(msg.sender)\n      SWAP1 \t\t\toctors.set(msg.sender)\n      POP \t\t\toctors.set(msg.sender)\n      SWAP2 \t\t\t not allowed\");\\n        docto...\n      SWAP1 \t\t\t not allowed\");\\n        docto...\n      POP \t\t\t not allowed\");\\n        docto...\n      JUMP \t\t\t not allowed\");\\n        docto...\n    tag 475\t\t\tfunction approveDr(address _ad...\n      JUMPDEST \t\t\tfunction approveDr(address _ad...\n      PUSH 0\t\t\t     if (!d\n      DUP3 \t\t\tss)) r\n      DUP3 \t\t\tadd\n      MSTORE \t\t\ts.has(_address)) re\n      PUSH 20\t\t\trs.u\n      DUP3 \t\t\tdoc\n      ADD \t\t\ting_doctors.un\n      SWAP1 \t\t\t     admin.pending_doctors.un\n      POP \t\t\t     admin.pending_doctors.un\n      SWAP3 \t\t\tfunction approveDr(address _ad...\n      SWAP2 \t\t\tfunction approveDr(address _ad...\n      POP \t\t\tfunction approveDr(address _ad...\n      POP \t\t\tfunction approveDr(address _ad...\n      JUMP \t\t\tfunction approveDr(address _ad...\n    tag 476\t\t\t);\\n    }\\n\\n    function disa...\n      JUMPDEST \t\t\t);\\n    }\\n\\n    function disa...\n      PUSH 0\t\t\tmin \n      DUP2 \t\t\tPen\n      SWAP1 \t\t\tf (!isDrPen\n      POP \t\t\tf (!isDrPen\n      PUSH 20\t\t\ttrac\n      DUP3 \t\t\t(\"C\n      ADD \t\t\tvert(\"Contract\n      SWAP1 \t\t\tess)) revert(\"Contract\n      POP \t\t\tess)) revert(\"Contract\n      SWAP2 \t\t\t);\\n    }\\n\\n    function disa...\n      SWAP1 \t\t\t);\\n    }\\n\\n    function disa...\n      POP \t\t\t);\\n    }\\n\\n    function disa...\n      JUMP \t\t\t);\\n    }\\n\\n    function disa...\n    tag 477\t\t\tregistered\");\\n        doctors...\n      JUMPDEST \t\t\tregistered\");\\n        doctors...\n      PUSH [tag] 565\t\t\toctors.unset(_address);\\n\n      DUP2 \t\t\tess);\n      PUSH [tag] 466\t\t\toctors.unset(_address);\\n\n      JUMP \t\t\toctors.unset(_address);\\n\n    tag 565\t\t\toctors.unset(_address);\\n\n      JUMPDEST \t\t\toctors.unset(_address);\\n\n      DUP3 \t\t\ting\n      MSTORE \t\t\tin.pending_doctors.unset(_addr...\n      POP \t\t\tregistered\");\\n        doctors...\n      POP \t\t\tregistered\");\\n        doctors...\n      JUMP \t\t\tregistered\");\\n        doctors...\n    tag 478\t\t\tnction registerDrConfirm(strin...\n      JUMPDEST \t\t\tnction registerDrConfirm(strin...\n      PUSH 0\t\t\tif (bytes(\n      PUSH [tag] 567\t\t\t).length == 0) revert(\"Contrac...\n      DUP4 \t\t\tlic\n      DUP4 \t\t\tmpty p\n      PUSH [tag] 477\t\t\t).length == 0) revert(\"Contrac...\n      JUMP \t\t\t).length == 0) revert(\"Contrac...\n    tag 567\t\t\t).length == 0) revert(\"Contrac...\n      JUMPDEST \t\t\t).length == 0) revert(\"Contrac...\n      PUSH 20\t\t\tf (!\n      DUP4 \t\t\t   \n      ADD \t\t\t        if (!d\n      SWAP1 \t\t\tt allowed!\");\\n        if (!d\n      POP \t\t\tt allowed!\");\\n        if (!d\n      SWAP3 \t\t\tnction registerDrConfirm(strin...\n      SWAP2 \t\t\tnction registerDrConfirm(strin...\n      POP \t\t\tnction registerDrConfirm(strin...\n      POP \t\t\tnction registerDrConfirm(strin...\n      JUMP \t\t\tnction registerDrConfirm(strin...\n    tag 479\t\t\t.has(msg.sender)) revert Contr...\n      JUMPDEST \t\t\t.has(msg.sender)) revert Contr...\n      PUSH 0\t\t\ting_\n      PUSH 20\t\t\tert \n      DUP3 \t\t\t) r\n      ADD \t\t\tder)) revert C\n      SWAP1 \t\t\t(msg.sender)) revert C\n      POP \t\t\t(msg.sender)) revert C\n      SWAP2 \t\t\t.has(msg.sender)) revert Contr...\n      SWAP1 \t\t\t.has(msg.sender)) revert Contr...\n      POP \t\t\t.has(msg.sender)) revert Contr...\n      JUMP \t\t\t.has(msg.sender)) revert Contr...\n    tag 480\t\t\tdoctors.public_keys[msg.sender...\n      JUMPDEST \t\t\tdoctors.public_keys[msg.sender...\n      PUSH 0\t\t\t   \n      PUSH [tag] 570\t\t\th == 0) revert(\"Contract: Empt...\n      DUP3 \t\t\twed!\"\n      PUSH [tag] 474\t\t\th == 0) revert(\"Contract: Empt...\n      JUMP \t\t\th == 0) revert(\"Contract: Empt...\n    tag 570\t\t\th == 0) revert(\"Contract: Empt...\n      JUMPDEST \t\t\th == 0) revert(\"Contract: Empt...\n      PUSH [tag] 571\t\t\ts.users.setHash(msg.sender, _h...\n      DUP2 \t\t\tess) p\n      DUP6 \t\t\t_ad\n      PUSH [tag] 475\t\t\ts.users.setHash(msg.sender, _h...\n      JUMP \t\t\ts.users.setHash(msg.sender, _h...\n    tag 571\t\t\ts.users.setHash(msg.sender, _h...\n      JUMPDEST \t\t\ts.users.setHash(msg.sender, _h...\n      SWAP4 \t\t\t doctors.users.setHash(msg.sen...\n      POP \t\t\t doctors.users.setHash(msg.sen...\n      PUSH [tag] 572\t\t\tg memory) {\\n        if (!isDr...\n      DUP4 \t\t\t reve\n      PUSH [tag] 476\t\t\tg memory) {\\n        if (!isDr...\n      JUMP \t\t\tg memory) {\\n        if (!isDr...\n    tag 572\t\t\tg memory) {\\n        if (!isDr...\n      JUMPDEST \t\t\tg memory) {\\n        if (!isDr...\n      DUP1 \t\t\t;\\n     \n      PUSH 0\t\t\tg\n    tag 573\t\t\t doctors.users.getHash(_addres...\n      JUMPDEST \t\t\t doctors.users.getHash(_addres...\n      DUP4 \t\t\tddress\n      DUP2 \t\t\t(\n      LT \t\t\tash(_address)\n      ISZERO \t\t\t doctors.users.getHash(_addres...\n      PUSH [tag] 575\t\t\t doctors.users.getHash(_addres...\n      JUMPI \t\t\t doctors.users.getHash(_addres...\n      DUP2 \t\t\tns (st\n      MLOAD \t\t\t returns (str\n      PUSH [tag] 576\t\t\t  return doctors.public_keys[_...\n      DUP9 \t\t\t ge\n      DUP3 \t\t\t}\\n\\n    functi\n      PUSH [tag] 478\t\t\t  return doctors.public_keys[_...\n      JUMP \t\t\t  return doctors.public_keys[_...\n    tag 576\t\t\t  return doctors.public_keys[_...\n      JUMPDEST \t\t\t  return doctors.public_keys[_...\n      SWAP8 \t\t\t\\n        return doctors.publi...\n      POP \t\t\t\\n        return doctors.publi...\n      PUSH [tag] 577\t\t\tturns (address[] memory) {\\n  ...\n      DUP4 \t\t\trs.get\n      PUSH [tag] 479\t\t\tturns (address[] memory) {\\n  ...\n      JUMP \t\t\tturns (address[] memory) {\\n  ...\n    tag 577\t\t\tturns (address[] memory) {\\n  ...\n      JUMPDEST \t\t\tturns (address[] memory) {\\n  ...\n      SWAP3 \t\t\tic view returns (address[] mem...\n      POP \t\t\tic view returns (address[] mem...\n      POP \t\t\tubKey(address _address) public...\n      PUSH 1\t\t\tn\n      DUP2 \t\t\t \n      ADD \t\t\t\\n    func\n      SWAP1 \t\t\t   }\\n\\n    func\n      POP \t\t\t   }\\n\\n    func\n      PUSH [tag] 573\t\t\t doctors.users.getHash(_addres...\n      JUMP \t\t\t doctors.users.getHash(_addres...\n    tag 575\t\t\t doctors.users.getHash(_addres...\n      JUMPDEST \t\t\t doctors.users.getHash(_addres...\n      POP \t\t\ttors.users.get\n      DUP6 \t\t\tion\n      SWAP4 \t\t\t  function\n      POP \t\t\t  function\n      POP \t\t\t  if (bytes(_hash).length == 0...\n      POP \t\t\t  if (bytes(_hash).length == 0...\n      POP \t\t\t  if (bytes(_hash).length == 0...\n      SWAP3 \t\t\tdoctors.public_keys[msg.sender...\n      SWAP2 \t\t\tdoctors.public_keys[msg.sender...\n      POP \t\t\tdoctors.public_keys[msg.sender...\n      POP \t\t\tdoctors.public_keys[msg.sender...\n      JUMP \t\t\tdoctors.public_keys[msg.sender...\n    tag 51\t\t\trs() public view returns (addr...\n      JUMPDEST \t\t\trs() public view returns (addr...\n      PUSH 0\t\t\tr re\n      PUSH 20\t\t\t r\n      DUP3 \t\t\t) {\\n     \n      ADD \t\t\tmory) {\\n        re\n      SWAP1 \t\t\tess[] memory) {\\n        re\n      POP \t\t\tess[] memory) {\\n        re\n      DUP2 \t\t\t    }\\n\\n  \n      DUP2 \t\t\tkeys\n      SUB \t\t\ter].keys;\\n    }\\n\\n   \n      PUSH 0\t\t\ts\n      DUP4 \t\t\tAccess[ms\n      ADD \t\t\toPatAccess[msg.se\n      MSTORE \t\t\trs.docToPatAccess[msg.sender]....\n      PUSH [tag] 579\t\t\ts\\n    function isPatient(addr...\n      DUP2 \t\t\tas(_\n      DUP5 \t\t\ts.user\n      PUSH [tag] 480\t\t\ts\\n    function isPatient(addr...\n      JUMP \t\t\ts\\n    function isPatient(addr...\n    tag 579\t\t\ts\\n    function isPatient(addr...\n      JUMPDEST \t\t\ts\\n    function isPatient(addr...\n      SWAP1 \t\t\tt methods\\n    function isPati...\n      POP \t\t\tt methods\\n    function isPati...\n      SWAP3 \t\t\trs() public view returns (addr...\n      SWAP2 \t\t\trs() public view returns (addr...\n      POP \t\t\trs() public view returns (addr...\n      POP \t\t\trs() public view returns (addr...\n      JUMP \t\t\trs() public view returns (addr...\n    tag 481\t\t\t}\\n\\n    function registerPt(s...\n      JUMPDEST \t\t\t}\\n\\n    function registerPt(s...\n      PUSH [tag] 581\t\t\t        if (isDrRegister\n      DUP2 \t\t\tgiste\n      PUSH [tag] 466\t\t\t        if (isDrRegister\n      JUMP \t\t\t        if (isDrRegister\n    tag 581\t\t\t        if (isDrRegister\n      JUMPDEST \t\t\t        if (isDrRegister\n      DUP3 \t\t\tic \n      MSTORE \t\t\th) public {\\n        if (isDrR...\n      POP \t\t\t}\\n\\n    function registerPt(s...\n      POP \t\t\t}\\n\\n    function registerPt(s...\n      JUMP \t\t\t}\\n\\n    function registerPt(s...\n    tag 55\t\t\t) || isDoctor(msg.sender))\\n  ...\n      JUMPDEST \t\t\t) || isDoctor(msg.sender))\\n  ...\n      PUSH 0\t\t\t\");\\n\n      PUSH 20\t\t\t 0\n      DUP3 \t\t\t).length \n      ADD \t\t\thash).length == 0)\n      SWAP1 \t\t\t(bytes(_hash).length == 0)\n      POP \t\t\t(bytes(_hash).length == 0)\n      PUSH [tag] 583\t\t\tontract: Empty hash is not all...\n      PUSH 0\t\t\t.\n      DUP4 \t\t\ters.add(m\n      ADD \t\t\ts.users.add(msg.s\n      DUP5 \t\t\t  pati\n      PUSH [tag] 481\t\t\tontract: Empty hash is not all...\n      JUMP \t\t\tontract: Empty hash is not all...\n    tag 583\t\t\tontract: Empty hash is not all...\n      JUMPDEST \t\t\tontract: Empty hash is not all...\n      SWAP3 \t\t\t) || isDoctor(msg.sender))\\n  ...\n      SWAP2 \t\t\t) || isDoctor(msg.sender))\\n  ...\n      POP \t\t\t) || isDoctor(msg.sender))\\n  ...\n      POP \t\t\t) || isDoctor(msg.sender))\\n  ...\n      JUMP \t\t\t) || isDoctor(msg.sender))\\n  ...\n    tag 482\t\t\t\\n        patients.records[msg...\n      JUMPDEST \t\t\t\\n        patients.records[msg...\n      PUSH 0\t\t\ter].edi\n      DUP2 \t\t\tecord\n      ISZERO \t\t\tients.records\n      ISZERO \t\t\t    patients.records[\n      SWAP1 \t\t\tender;\\n        patients.recor...\n      POP \t\t\tender;\\n        patients.recor...\n      SWAP2 \t\t\t\\n        patients.records[msg...\n      SWAP1 \t\t\t\\n        patients.records[msg...\n      POP \t\t\t\\n        patients.records[msg...\n      JUMP \t\t\t\\n        patients.records[msg...\n    tag 483\t\t\tkey_data_hash = _key_data_hash...\n      JUMPDEST \t\t\tkey_data_hash = _key_data_hash...\n      PUSH [tag] 586\t\t\ty _hash) public onlyP\n      DUP2 \t\t\t only\n      PUSH [tag] 482\t\t\ty _hash) public onlyP\n      JUMP \t\t\ty _hash) public onlyP\n    tag 586\t\t\ty _hash) public onlyP\n      JUMPDEST \t\t\ty _hash) public onlyP\n      DUP3 \t\t\tmem\n      MSTORE \t\t\tstring memory _hash) public on...\n      POP \t\t\tkey_data_hash = _key_data_hash...\n      POP \t\t\tkey_data_hash = _key_data_hash...\n      JUMP \t\t\tkey_data_hash = _key_data_hash...\n    tag 60\t\t\t    patients.users.setHash(msg...\n      JUMPDEST \t\t\t    patients.users.setHash(msg...\n      PUSH 0\t\t\tress\n      PUSH 20\t\t\tri\n      DUP3 \t\t\treturns (\n      ADD \t\t\tiew returns (strin\n      SWAP1 \t\t\tpublic view returns (strin\n      POP \t\t\tpublic view returns (strin\n      PUSH [tag] 588\t\t\t{\\n        if (!isPatient(_add...\n      PUSH 0\t\t\tt\n      DUP4 \t\t\t__NotPati\n      ADD \t\t\tract__NotPatient(\n      DUP5 \t\t\tvert C\n      PUSH [tag] 483\t\t\t{\\n        if (!isPatient(_add...\n      JUMP \t\t\t{\\n        if (!isPatient(_add...\n    tag 588\t\t\t{\\n        if (!isPatient(_add...\n      JUMPDEST \t\t\t{\\n        if (!isPatient(_add...\n      SWAP3 \t\t\t    patients.users.setHash(msg...\n      SWAP2 \t\t\t    patients.users.setHash(msg...\n      POP \t\t\t    patients.users.setHash(msg...\n      POP \t\t\t    patients.users.setHash(msg...\n      JUMP \t\t\t    patients.users.setHash(msg...\n    tag 484\t\t\t (\\n            msg.sender == ...\n      JUMPDEST \t\t\t (\\n            msg.sender == ...\n      PUSH 0\t\t\t \n      DUP1 \t\t\t \n      REVERT \t\t\tr ||\\n       \n    tag 485\t\t\ts.records[_address].viewers.in...\n      JUMPDEST \t\t\ts.records[_address].viewers.in...\n      PUSH 0\t\t\t \n      DUP1 \t\t\t \n      REVERT \t\t\tess);\\n\\n     \n    tag 486\t\t\tot Allowed\");\\n    }\\n\\n    fu...\n      JUMPDEST \t\t\tot Allowed\");\\n    }\\n\\n    fu...\n      PUSH 4E487B7100000000000000000000000000000000000000000000000000000000\t\t\th(address _address, string mem...\n      PUSH 0\t\t\tH\n      MSTORE \t\t\ttRecordHash(address _address, ...\n      PUSH 41\t\t\tct__\n      PUSH 4\t\t\tt\n      MSTORE \t\t\tert Contract__N\n      PUSH 24\t\t\t  if\n      PUSH 0\t\t\t \n      REVERT \t\t\t();\\n        if \n    tag 487\t\t\trecords[_address].editor == ms...\n      JUMPDEST \t\t\trecords[_address].editor == ms...\n      PUSH [tag] 593\t\t\tcords[_address].key_data_ha\n      DUP3 \t\t\tta_h\n      PUSH [tag] 472\t\t\tcords[_address].key_data_ha\n      JUMP \t\t\tcords[_address].key_data_ha\n    tag 593\t\t\tcords[_address].key_data_ha\n      JUMPDEST \t\t\tcords[_address].key_data_ha\n      DUP2 \t\t\tients.\n      ADD \t\t\t patients.records[_address].ke...\n      DUP2 \t\t\t\\n     \n      DUP2 \t\t\tng memory)\n      LT \t\t\ttring memory) {\\n      \n      PUSH FFFFFFFFFFFFFFFF\t\t\tublic view returns\n      DUP3 \t\t\t _address)\n      GT \t\t\tess _address) public view retu...\n      OR \t\t\tddress _address) public view r...\n      ISZERO \t\t\th(address _address) public vie...\n      PUSH [tag] 594\t\t\th(address _address) public vie...\n      JUMPI \t\t\th(address _address) public vie...\n      PUSH [tag] 595\t\t\t (!isPatient(_addr\n      PUSH [tag] 486\t\t\t (!isPatient(_addr\n      JUMP \t\t\t (!isPatient(_addr\n    tag 595\t\t\t (!isPatient(_addr\n      JUMPDEST \t\t\t (!isPatient(_addr\n    tag 594\t\t\th(address _address) public vie...\n      JUMPDEST \t\t\th(address _address) public vie...\n      DUP1 \t\t\t_NotPatien\n      PUSH 40\t\t\tac\n      MSTORE \t\t\tt Contract__NotPatient\n      POP \t\t\tvert(\"Not Allowed\");\\n        ...\n      POP \t\t\trecords[_address].editor == ms...\n      POP \t\t\trecords[_address].editor == ms...\n      JUMP \t\t\trecords[_address].editor == ms...\n    tag 488\t\t\t if (\\n            msg.sender ...\n      JUMPDEST \t\t\t if (\\n            msg.sender ...\n      PUSH 0\t\t\tddress\n      PUSH [tag] 597\t\t\tnts.records[_address\n      PUSH [tag] 462\t\t\tnts.records[_address\n      JUMP \t\t\tnts.records[_address\n    tag 597\t\t\tnts.records[_address\n      JUMPDEST \t\t\tnts.records[_address\n      SWAP1 \t\t\t     patients.records[_address\n      POP \t\t\t     patients.records[_address\n      PUSH [tag] 598\t\t\t== msg.sender ||\\n            ...\n      DUP3 \t\t\t pat\n      DUP3 \t\t\t      \n      PUSH [tag] 487\t\t\t== msg.sender ||\\n            ...\n      JUMP \t\t\t== msg.sender ||\\n            ...\n    tag 598\t\t\t== msg.sender ||\\n            ...\n      JUMPDEST \t\t\t== msg.sender ||\\n            ...\n      SWAP2 \t\t\t if (\\n            msg.sender ...\n      SWAP1 \t\t\t if (\\n            msg.sender ...\n      POP \t\t\t if (\\n            msg.sender ...\n      JUMP \t\t\t if (\\n            msg.sender ...\n    tag 489\t\t\t[_address].viewers.indexOf(msg...\n      JUMPDEST \t\t\t[_address].viewers.indexOf(msg...\n      PUSH 0\t\t\tpati\n      PUSH FFFFFFFFFFFFFFFF\t\t\tion getAllPts() pu\n      DUP3 \t\t\t   fun\n      GT \t\t\t\\n\\n    function getAllPts() p...\n      ISZERO \t\t\t  }\\n\\n    function getAllPts(...\n      PUSH [tag] 600\t\t\t  }\\n\\n    function getAllPts(...\n      JUMPI \t\t\t  }\\n\\n    function getAllPts(...\n      PUSH [tag] 601\t\t\t view returns (add\n      PUSH [tag] 486\t\t\t view returns (add\n      JUMP \t\t\t view returns (add\n    tag 601\t\t\t view returns (add\n      JUMPDEST \t\t\t view returns (add\n    tag 600\t\t\t  }\\n\\n    function getAllPts(...\n      JUMPDEST \t\t\t  }\\n\\n    function getAllPts(...\n      PUSH [tag] 602\t\t\t     return patients.users.ge\n      DUP3 \t\t\tsers.g\n      PUSH [tag] 472\t\t\t     return patients.users.ge\n      JUMP \t\t\t     return patients.users.ge\n    tag 602\t\t\t     return patients.users.ge\n      JUMPDEST \t\t\t     return patients.users.ge\n      SWAP1 \t\t\ty) {\\n        return patients....\n      POP \t\t\ty) {\\n        return patients....\n      PUSH 20\t\t\t    \n      DUP2 \t\t\ts(\\n \n      ADD \t\t\tccess(\\n        \n      SWAP1 \t\t\teEditorAccess(\\n        \n      POP \t\t\teEditorAccess(\\n        \n      SWAP2 \t\t\t[_address].viewers.indexOf(msg...\n      SWAP1 \t\t\t[_address].viewers.indexOf(msg...\n      POP \t\t\t[_address].viewers.indexOf(msg...\n      JUMP \t\t\t[_address].viewers.indexOf(msg...\n    tag 490\t\t\tess,\\n        string memory _g...\n      JUMPDEST \t\t\tess,\\n        string memory _g...\n      DUP3 \t\t\tt {\\n  \n      DUP2 \t\t\tati\n      DUP4 \t\t\tonl\n      CALLDATACOPY \t\t\t    ) public onlyPatient {\\n  ...\n      PUSH 0\t\t\t \n      DUP4 \t\t\twhen u\n      DUP4 \t\t\tte \n      ADD \t\t\tupdate - when us\n      MSTORE \t\t\tending update - when user c\n      POP \t\t\tess,\\n        string memory _g...\n      POP \t\t\tess,\\n        string memory _g...\n      POP \t\t\tess,\\n        string memory _g...\n      JUMP \t\t\tess,\\n        string memory _g...\n    tag 491\t\t\ts, symmetric key S must be cha...\n      JUMPDEST \t\t\ts, symmetric key S must be cha...\n      PUSH 0\t\t\ttract\n      PUSH [tag] 605\t\t\t    // remove old editor acces...\n      PUSH [tag] 606\t\t\td editor access\\n        remov...\n      DUP5 \t\t\t(_gene\n      PUSH [tag] 489\t\t\td editor access\\n        remov...\n      JUMP \t\t\td editor access\\n        remov...\n    tag 606\t\t\td editor access\\n        remov...\n      JUMPDEST \t\t\td editor access\\n        remov...\n      PUSH [tag] 488\t\t\t    // remove old editor acces...\n      JUMP \t\t\t    // remove old editor acces...\n    tag 605\t\t\t    // remove old editor acces...\n      JUMPDEST \t\t\t    // remove old editor acces...\n      SWAP1 \t\t\t();\\n\\n        // remove old e...\n      POP \t\t\t();\\n\\n        // remove old e...\n      DUP3 \t\t\t      \n      DUP2 \t\t\th);\\n\\n\n      MSTORE \t\t\tkey_hash);\\n\\n        /\n      PUSH 20\t\t\t pat\n      DUP2 \t\t\t     \n      ADD \t\t\tess\\n        pati\n      DUP5 \t\t\t _a\n      DUP5 \t\t\t.edito\n      DUP5 \t\t\tnde\n      ADD \t\t\tg.sender].editor\n      GT \t\t\t[msg.sender].editor = _ad\n      ISZERO \t\t\trds[msg.sender].editor = _addr...\n      PUSH [tag] 607\t\t\trds[msg.sender].editor = _addr...\n      JUMPI \t\t\trds[msg.sender].editor = _addr...\n      PUSH [tag] 608\t\t\tss;\\n        doctors.docToPatA...\n      PUSH [tag] 485\t\t\tss;\\n        doctors.docToPatA...\n      JUMP \t\t\tss;\\n        doctors.docToPatA...\n    tag 608\t\t\tss;\\n        doctors.docToPatA...\n      JUMPDEST \t\t\tss;\\n        doctors.docToPatA...\n    tag 607\t\t\trds[msg.sender].editor = _addr...\n      JUMPDEST \t\t\trds[msg.sender].editor = _addr...\n      PUSH [tag] 609\t\t\titorAccess(\\n        string me...\n      DUP5 \t\t\t,\\n    \n      DUP3 \t\t\t_ha\n      DUP6 \t\t\tner\n      PUSH [tag] 490\t\t\titorAccess(\\n        string me...\n      JUMP \t\t\titorAccess(\\n        string me...\n    tag 609\t\t\titorAccess(\\n        string me...\n      JUMPDEST \t\t\titorAccess(\\n        string me...\n      POP \t\t\t_NotDoctor();\\n\\n        // re...\n      SWAP4 \t\t\ts, symmetric key S must be cha...\n      SWAP3 \t\t\ts, symmetric key S must be cha...\n      POP \t\t\ts, symmetric key S must be cha...\n      POP \t\t\ts, symmetric key S must be cha...\n      POP \t\t\ts, symmetric key S must be cha...\n      JUMP \t\t\ts, symmetric key S must be cha...\n    tag 492\t\t\t\\n    ) public onlyPatient {\\n...\n      JUMPDEST \t\t\t\\n    ) public onlyPatient {\\n...\n      PUSH 0\t\t\t pati\n      DUP3 \t\t\tien\n      PUSH 1F\t\t\t    \n      DUP4 \t\t\tor;\\n  \n      ADD \t\t\teditor;\\n        p\n      SLT \t\t\ter].editor;\\n        patient\n      PUSH [tag] 611\t\t\ts[msg.sender].editor;\\n       ...\n      JUMPI \t\t\ts[msg.sender].editor;\\n       ...\n      PUSH [tag] 612\t\t\tcords[msg.sender].editor = msg...\n      PUSH [tag] 484\t\t\tcords[msg.sender].editor = msg...\n      JUMP \t\t\tcords[msg.sender].editor = msg...\n    tag 612\t\t\tcords[msg.sender].editor = msg...\n      JUMPDEST \t\t\tcords[msg.sender].editor = msg...\n    tag 611\t\t\ts[msg.sender].editor;\\n       ...\n      JUMPDEST \t\t\ts[msg.sender].editor;\\n       ...\n      DUP2 \t\t\ts.user\n      CALLDATALOAD \t\t\t      patients.users\n      PUSH [tag] 613\t\t\tr, _general_hash);\\n        pa...\n      DUP5 \t\t\ty_h\n      DUP3 \t\t\tsh = _\n      PUSH 20\t\t\tdata\n      DUP7 \t\t\ter].ke\n      ADD \t\t\tsender].key_data_\n      PUSH [tag] 491\t\t\tr, _general_hash);\\n        pa...\n      JUMP \t\t\tr, _general_hash);\\n        pa...\n    tag 613\t\t\tr, _general_hash);\\n        pa...\n      JUMPDEST \t\t\tr, _general_hash);\\n        pa...\n      SWAP2 \t\t\tmsg.sender, _general_hash);\\n ...\n      POP \t\t\tmsg.sender, _general_hash);\\n ...\n      POP \t\t\tnts.records[msg.sender].editor...\n      SWAP3 \t\t\t\\n    ) public onlyPatient {\\n...\n      SWAP2 \t\t\t\\n    ) public onlyPatient {\\n...\n      POP \t\t\t\\n    ) public onlyPatient {\\n...\n      POP \t\t\t\\n    ) public onlyPatient {\\n...\n      JUMP \t\t\t\\n    ) public onlyPatient {\\n...\n    tag 67\t\t\t   function getDrOfPt() public...\n      JUMPDEST \t\t\t   function getDrOfPt() public...\n      PUSH 0\t\t\t      \n      PUSH 20\t\t\t;\\n\n      DUP3 \t\t\tnder].edi\n      DUP5 \t\t\tds[msg.\n      SUB \t\t\tecords[msg.sender].edit\n      SLT \t\t\tts.records[msg.sender].editor;...\n      ISZERO \t\t\tients.records[msg.sender].edit...\n      PUSH [tag] 615\t\t\tients.records[msg.sender].edit...\n      JUMPI \t\t\tients.records[msg.sender].edit...\n      PUSH [tag] 616\t\t\t}\\n\\n    function grantViewerA...\n      PUSH [tag] 463\t\t\t}\\n\\n    function grantViewerA...\n      JUMP \t\t\t}\\n\\n    function grantViewerA...\n    tag 616\t\t\t}\\n\\n    function grantViewerA...\n      JUMPDEST \t\t\t}\\n\\n    function grantViewerA...\n    tag 615\t\t\tients.records[msg.sender].edit...\n      JUMPDEST \t\t\tients.records[msg.sender].edit...\n      PUSH 0\t\t\t(\n      DUP3 \t\t\t        i\n      ADD \t\t\t);\\n\\n        if (!\n      CALLDATALOAD \t\t\tt__NotDoctor();\\n\\n        if ...\n      PUSH FFFFFFFFFFFFFFFF\t\t\t.viewers.contains(\n      DUP2 \t\t\t.sende\n      GT \t\t\tmsg.sender].viewers.contains(_\n      ISZERO \t\t\tds[msg.sender].viewers.contain...\n      PUSH [tag] 617\t\t\tds[msg.sender].viewers.contain...\n      JUMPI \t\t\tds[msg.sender].viewers.contain...\n      PUSH [tag] 618\t\t\tress)) {\\n            patients...\n      PUSH [tag] 464\t\t\tress)) {\\n            patients...\n      JUMP \t\t\tress)) {\\n            patients...\n    tag 618\t\t\tress)) {\\n            patients...\n      JUMPDEST \t\t\tress)) {\\n            patients...\n    tag 617\t\t\tds[msg.sender].viewers.contain...\n      JUMPDEST \t\t\tds[msg.sender].viewers.contain...\n      PUSH [tag] 619\t\t\tevokeViewerAccess(address _add...\n      DUP5 \t\t\t{\\n     \n      DUP3 \t\t\tyPatie\n      DUP6 \t\t\t public o\n      ADD \t\t\tess) public onlyPatien\n      PUSH [tag] 492\t\t\tevokeViewerAccess(address _add...\n      JUMP \t\t\tevokeViewerAccess(address _add...\n    tag 619\t\t\tevokeViewerAccess(address _add...\n      JUMPDEST \t\t\tevokeViewerAccess(address _add...\n      SWAP2 \t\t\tfunction revokeViewerAccess(ad...\n      POP \t\t\tfunction revokeViewerAccess(ad...\n      POP \t\t\ttor(_address)) revert Contract...\n      SWAP3 \t\t\t   function getDrOfPt() public...\n      SWAP2 \t\t\t   function getDrOfPt() public...\n      POP \t\t\t   function getDrOfPt() public...\n      POP \t\t\t   function getDrOfPt() public...\n      JUMP \t\t\t   function getDrOfPt() public...\n    tag 79\t\t\then user revokes access, symme...\n      JUMPDEST \t\t\then user revokes access, symme...\n      PUSH 0\t\t\t) reve\n      DUP1 \t\t\t Contr\n      PUSH 40\t\t\t[m\n      DUP4 \t\t\tents.reco\n      DUP6 \t\t\t     pa\n      SUB \t\t\t\\n        patients.recor\n      SLT \t\t\t();\\n\\n        patients.record...\n      ISZERO \t\t\ttor();\\n\\n        patients.rec...\n      PUSH [tag] 621\t\t\ttor();\\n\\n        patients.rec...\n      JUMPI \t\t\ttor();\\n\\n        patients.rec...\n      PUSH [tag] 622\t\t\tender].viewers.remove(_address...\n      PUSH [tag] 463\t\t\tender].viewers.remove(_address...\n      JUMP \t\t\tender].viewers.remove(_address...\n    tag 622\t\t\tender].viewers.remove(_address...\n      JUMPDEST \t\t\tender].viewers.remove(_address...\n    tag 621\t\t\ttor();\\n\\n        patients.rec...\n      JUMPDEST \t\t\ttor();\\n\\n        patients.rec...\n      PUSH 0\t\t\tc\n      DUP4 \t\t\tpatients.\n      ADD \t\t\turn patients.reco\n      CALLDATALOAD \t\t\t{\\n        return patients.rec...\n      PUSH FFFFFFFFFFFFFFFF\t\t\t }\\n\\n    // modifie\n      DUP2 \t\t\ters;\\n \n      GT \t\t\tiewers;\\n    }\\n\\n    // modif...\n      ISZERO \t\t\t].viewers;\\n    }\\n\\n    // mo...\n      PUSH [tag] 623\t\t\t].viewers;\\n    }\\n\\n    // mo...\n      JUMPI \t\t\t].viewers;\\n    }\\n\\n    // mo...\n      PUSH [tag] 624\t\t\t   modifier onlyAdmin() {\\n   ...\n      PUSH [tag] 464\t\t\t   modifier onlyAdmin() {\\n   ...\n      JUMP \t\t\t   modifier onlyAdmin() {\\n   ...\n    tag 624\t\t\t   modifier onlyAdmin() {\\n   ...\n      JUMPDEST \t\t\t   modifier onlyAdmin() {\\n   ...\n    tag 623\t\t\t].viewers;\\n    }\\n\\n    // mo...\n      JUMPDEST \t\t\t].viewers;\\n    }\\n\\n    // mo...\n      PUSH [tag] 625\t\t\t\\n\\n    modifier onlyDoctor() ...\n      DUP6 \t\t\ts.has(m\n      DUP3 \t\t\ttors.u\n      DUP7 \t\t\t   if (!d\n      ADD \t\t\t       if (!doctors.us\n      PUSH [tag] 492\t\t\t\\n\\n    modifier onlyDoctor() ...\n      JUMP \t\t\t\\n\\n    modifier onlyDoctor() ...\n    tag 625\t\t\t\\n\\n    modifier onlyDoctor() ...\n      JUMPDEST \t\t\t\\n\\n    modifier onlyDoctor() ...\n      SWAP3 \t\t\t  _;\\n    }\\n\\n    modifier on...\n      POP \t\t\t  _;\\n    }\\n\\n    modifier on...\n      POP \t\t\tt returns (address[] memory) {...\n      PUSH 20\t\t\tt(\n      DUP4 \t\t\t_doctors.\n      ADD \t\t\tding_doctors.get(m\n      CALLDATALOAD \t\t\tif (admin.pending_doctors.get(...\n      PUSH FFFFFFFFFFFFFFFF\t\t\t_PendingDoctorAppr\n      DUP2 \t\t\tontrac\n      GT \t\t\tt Contract__PendingDoctorAppro\n      ISZERO \t\t\tvert Contract__PendingDoctorAp...\n      PUSH [tag] 626\t\t\tvert Contract__PendingDoctorAp...\n      JUMPI \t\t\tvert Contract__PendingDoctorAp...\n      PUSH [tag] 627\t\t\t();\\n        if (bytes(doctors...\n      PUSH [tag] 464\t\t\t();\\n        if (bytes(doctors...\n      JUMP \t\t\t();\\n        if (bytes(doctors...\n    tag 627\t\t\t();\\n        if (bytes(doctors...\n      JUMPDEST \t\t\t();\\n        if (bytes(doctors...\n    tag 626\t\t\tvert Contract__PendingDoctorAp...\n      JUMPDEST \t\t\tvert Contract__PendingDoctorAp...\n      PUSH [tag] 628\t\t\tblicKeyMissing();\\n        _;\\...\n      DUP6 \t\t\ttient()\n      DUP3 \t\t\ter onl\n      DUP7 \t\t\t\\n    modi\n      ADD \t\t\t  }\\n\\n    modifier only\n      PUSH [tag] 492\t\t\tblicKeyMissing();\\n        _;\\...\n      JUMP \t\t\tblicKeyMissing();\\n        _;\\...\n    tag 628\t\t\tblicKeyMissing();\\n        _;\\...\n      JUMPDEST \t\t\tblicKeyMissing();\\n        _;\\...\n      SWAP2 \t\t\t__DoctorPublicKeyMissing();\\n ...\n      POP \t\t\t__DoctorPublicKeyMissing();\\n ...\n      POP \t\t\tntract__NotDoctor();\\n        ...\n      SWAP3 \t\t\then user revokes access, symme...\n      POP \t\t\then user revokes access, symme...\n      SWAP3 \t\t\then user revokes access, symme...\n      SWAP1 \t\t\then user revokes access, symme...\n      POP \t\t\then user revokes access, symme...\n      JUMP \t\t\then user revokes access, symme...\n    tag 122\t\t\tt(msg.sender)) revert Contract...\n      JUMPDEST \t\t\tt(msg.sender)) revert Contract...\n      PUSH 0\t\t\t\n      DUP1 \t\t\t\n      PUSH 40\t\t\t\n      DUP4 \t\t\t\n      DUP6 \t\t\t\n      SUB \t\t\t\n      SLT \t\t\t\n      ISZERO \t\t\t\n      PUSH [tag] 630\t\t\t\n      JUMPI \t\t\t\n      PUSH [tag] 631\t\t\t\n      PUSH [tag] 463\t\t\t\n      JUMP \t\t\t\n    tag 631\t\t\t\n      JUMPDEST \t\t\t\n    tag 630\t\t\t\n      JUMPDEST \t\t\t\n      PUSH 0\t\t\t\n      PUSH [tag] 632\t\t\t\n      DUP6 \t\t\t\n      DUP3 \t\t\t\n      DUP7 \t\t\t\n      ADD \t\t\t\n      PUSH [tag] 468\t\t\t\n      JUMP \t\t\t\n    tag 632\t\t\t\n      JUMPDEST \t\t\t\n      SWAP3 \t\t\t\n      POP \t\t\t\n      POP \t\t\t\n      PUSH 20\t\t\t\n      DUP4 \t\t\t\n      ADD \t\t\t\n      CALLDATALOAD \t\t\t\n      PUSH FFFFFFFFFFFFFFFF\t\t\t\n      DUP2 \t\t\t\n      GT \t\t\t\n      ISZERO \t\t\t\n      PUSH [tag] 633\t\t\t\n      JUMPI \t\t\t\n      PUSH [tag] 634\t\t\t\n      PUSH [tag] 464\t\t\t\n      JUMP \t\t\t\n    tag 634\t\t\t\n      JUMPDEST \t\t\t\n    tag 633\t\t\t\n      JUMPDEST \t\t\t\n      PUSH [tag] 635\t\t\t\n      DUP6 \t\t\t\n      DUP3 \t\t\t\n      DUP7 \t\t\t\n      ADD \t\t\t\n      PUSH [tag] 492\t\t\t\n      JUMP \t\t\t\n    tag 635\t\t\t\n      JUMPDEST \t\t\t\n      SWAP2 \t\t\t\n      POP \t\t\t\n      POP \t\t\t\n      SWAP3 \t\t\tt(msg.sender)) revert Contract...\n      POP \t\t\tt(msg.sender)) revert Contract...\n      SWAP3 \t\t\tt(msg.sender)) revert Contract...\n      SWAP1 \t\t\tt(msg.sender)) revert Contract...\n      POP \t\t\tt(msg.sender)) revert Contract...\n      JUMP \t\t\tt(msg.sender)) revert Contract...\n    tag 136\t\t\t\n      JUMPDEST \t\t\t\n      PUSH 0\t\t\t\n      DUP1 \t\t\t\n      PUSH 0\t\t\t\n      PUSH 60\t\t\t\n      DUP5 \t\t\t\n      DUP7 \t\t\t\n      SUB \t\t\t\n      SLT \t\t\t\n      ISZERO \t\t\t\n      PUSH [tag] 637\t\t\t\n      JUMPI \t\t\t\n      PUSH [tag] 638\t\t\t\n      PUSH [tag] 463\t\t\t\n      JUMP \t\t\t\n    tag 638\t\t\t\n      JUMPDEST \t\t\t\n    tag 637\t\t\t\n      JUMPDEST \t\t\t\n      PUSH 0\t\t\t\n      PUSH [tag] 639\t\t\t\n      DUP7 \t\t\t\n      DUP3 \t\t\t\n      DUP8 \t\t\t\n      ADD \t\t\t\n      PUSH [tag] 468\t\t\t\n      JUMP \t\t\t\n    tag 639\t\t\t\n      JUMPDEST \t\t\t\n      SWAP4 \t\t\t\n      POP \t\t\t\n      POP \t\t\t\n      PUSH 20\t\t\t\n      DUP5 \t\t\t\n      ADD \t\t\t\n      CALLDATALOAD \t\t\t\n      PUSH FFFFFFFFFFFFFFFF\t\t\t\n      DUP2 \t\t\t\n      GT \t\t\t\n      ISZERO \t\t\t\n      PUSH [tag] 640\t\t\t\n      JUMPI \t\t\t\n      PUSH [tag] 641\t\t\t\n      PUSH [tag] 464\t\t\t\n      JUMP \t\t\t\n    tag 641\t\t\t\n      JUMPDEST \t\t\t\n    tag 640\t\t\t\n      JUMPDEST \t\t\t\n      PUSH [tag] 642\t\t\t\n      DUP7 \t\t\t\n      DUP3 \t\t\t\n      DUP8 \t\t\t\n      ADD \t\t\t\n      PUSH [tag] 492\t\t\t\n      JUMP \t\t\t\n    tag 642\t\t\t\n      JUMPDEST \t\t\t\n      SWAP3 \t\t\t\n      POP \t\t\t\n      POP \t\t\t\n      PUSH 40\t\t\t\n      DUP5 \t\t\t\n      ADD \t\t\t\n      CALLDATALOAD \t\t\t\n      PUSH FFFFFFFFFFFFFFFF\t\t\t\n      DUP2 \t\t\t\n      GT \t\t\t\n      ISZERO \t\t\t\n      PUSH [tag] 643\t\t\t\n      JUMPI \t\t\t\n      PUSH [tag] 644\t\t\t\n      PUSH [tag] 464\t\t\t\n      JUMP \t\t\t\n    tag 644\t\t\t\n      JUMPDEST \t\t\t\n    tag 643\t\t\t\n      JUMPDEST \t\t\t\n      PUSH [tag] 645\t\t\t\n      DUP7 \t\t\t\n      DUP3 \t\t\t\n      DUP8 \t\t\t\n      ADD \t\t\t\n      PUSH [tag] 492\t\t\t\n      JUMP \t\t\t\n    tag 645\t\t\t\n      JUMPDEST \t\t\t\n      SWAP2 \t\t\t\n      POP \t\t\t\n      POP \t\t\t\n      SWAP3 \t\t\t\n      POP \t\t\t\n      SWAP3 \t\t\t\n      POP \t\t\t\n      SWAP3 \t\t\t\n      JUMP \t\t\t\n    tag 493\t\t\t\n      JUMPDEST \t\t\t\n      PUSH 4E487B7100000000000000000000000000000000000000000000000000000000\t\t\t\n      PUSH 0\t\t\t\n      MSTORE \t\t\t\n      PUSH 22\t\t\t\n      PUSH 4\t\t\t\n      MSTORE \t\t\t\n      PUSH 24\t\t\t\n      PUSH 0\t\t\t\n      REVERT \t\t\t\n    tag 161\t\t\t\n      JUMPDEST \t\t\t\n      PUSH 0\t\t\t\n      PUSH 2\t\t\t\n      DUP3 \t\t\t\n      DIV \t\t\t\n      SWAP1 \t\t\t\n      POP \t\t\t\n      PUSH 1\t\t\t\n      DUP3 \t\t\t\n      AND \t\t\t\n      DUP1 \t\t\t\n      PUSH [tag] 648\t\t\t\n      JUMPI \t\t\t\n      PUSH 7F\t\t\t\n      DUP3 \t\t\t\n      AND \t\t\t\n      SWAP2 \t\t\t\n      POP \t\t\t\n    tag 648\t\t\t\n      JUMPDEST \t\t\t\n      PUSH 20\t\t\t\n      DUP3 \t\t\t\n      LT \t\t\t\n      DUP2 \t\t\t\n      SUB \t\t\t\n      PUSH [tag] 649\t\t\t\n      JUMPI \t\t\t\n      PUSH [tag] 650\t\t\t\n      PUSH [tag] 493\t\t\t\n      JUMP \t\t\t\n    tag 650\t\t\t\n      JUMPDEST \t\t\t\n    tag 649\t\t\t\n      JUMPDEST \t\t\t\n      POP \t\t\t\n      SWAP2 \t\t\t\n      SWAP1 \t\t\t\n      POP \t\t\t\n      JUMP \t\t\t\n    tag 494\t\t\t\n      JUMPDEST \t\t\t\n      PUSH 436F6E74726163743A204164647265737320616C726561647920726567697374\t\t\t\n      PUSH 0\t\t\t\n      DUP3 \t\t\t\n      ADD \t\t\t\n      MSTORE \t\t\t\n      PUSH 657265642061732070617469656E740000000000000000000000000000000000\t\t\t\n      PUSH 20\t\t\t\n      DUP3 \t\t\t\n      ADD \t\t\t\n      MSTORE \t\t\t\n      POP \t\t\t\n      JUMP \t\t\t\n    tag 495\t\t\t\n      JUMPDEST \t\t\t\n      PUSH 0\t\t\t\n      PUSH [tag] 653\t\t\t\n      PUSH 2F\t\t\t\n      DUP4 \t\t\t\n      PUSH [tag] 470\t\t\t\n      JUMP \t\t\t\n    tag 653\t\t\t\n      JUMPDEST \t\t\t\n      SWAP2 \t\t\t\n      POP \t\t\t\n      PUSH [tag] 654\t\t\t\n      DUP3 \t\t\t\n      PUSH [tag] 494\t\t\t\n      JUMP \t\t\t\n    tag 654\t\t\t\n      JUMPDEST \t\t\t\n      PUSH 40\t\t\t\n      DUP3 \t\t\t\n      ADD \t\t\t\n      SWAP1 \t\t\t\n      POP \t\t\t\n      SWAP2 \t\t\t\n      SWAP1 \t\t\t\n      POP \t\t\t\n      JUMP \t\t\t\n    tag 181\t\t\t\n      JUMPDEST \t\t\t\n      PUSH 0\t\t\t\n      PUSH 20\t\t\t\n      DUP3 \t\t\t\n      ADD \t\t\t\n      SWAP1 \t\t\t\n      POP \t\t\t\n      DUP2 \t\t\t\n      DUP2 \t\t\t\n      SUB \t\t\t\n      PUSH 0\t\t\t\n      DUP4 \t\t\t\n      ADD \t\t\t\n      MSTORE \t\t\t\n      PUSH [tag] 656\t\t\t\n      DUP2 \t\t\t\n      PUSH [tag] 495\t\t\t\n      JUMP \t\t\t\n    tag 656\t\t\t\n      JUMPDEST \t\t\t\n      SWAP1 \t\t\t\n      POP \t\t\t\n      SWAP2 \t\t\t\n      SWAP1 \t\t\t\n      POP \t\t\t\n      JUMP \t\t\t\n    tag 496\t\t\t\n      JUMPDEST \t\t\t\n      PUSH 436F6E74726163743A20456D7074792068617368206973206E6F7420616C6C6F\t\t\t\n      PUSH 0\t\t\t\n      DUP3 \t\t\t\n      ADD \t\t\t\n      MSTORE \t\t\t\n      PUSH 7765640000000000000000000000000000000000000000000000000000000000\t\t\t\n      PUSH 20\t\t\t\n      DUP3 \t\t\t\n      ADD \t\t\t\n      MSTORE \t\t\t\n      POP \t\t\t\n      JUMP \t\t\t\n    tag 497\t\t\t\n      JUMPDEST \t\t\t\n      PUSH 0\t\t\t\n      PUSH [tag] 659\t\t\t\n      PUSH 23\t\t\t\n      DUP4 \t\t\t\n      PUSH [tag] 470\t\t\t\n      JUMP \t\t\t\n    tag 659\t\t\t\n      JUMPDEST \t\t\t\n      SWAP2 \t\t\t\n      POP \t\t\t\n      PUSH [tag] 660\t\t\t\n      DUP3 \t\t\t\n      PUSH [tag] 496\t\t\t\n      JUMP \t\t\t\n    tag 660\t\t\t\n      JUMPDEST \t\t\t\n      PUSH 40\t\t\t\n      DUP3 \t\t\t\n      ADD \t\t\t\n      SWAP1 \t\t\t\n      POP \t\t\t\n      SWAP2 \t\t\t\n      SWAP1 \t\t\t\n      POP \t\t\t\n      JUMP \t\t\t\n    tag 184\t\t\t\n      JUMPDEST \t\t\t\n      PUSH 0\t\t\t\n      PUSH 20\t\t\t\n      DUP3 \t\t\t\n      ADD \t\t\t\n      SWAP1 \t\t\t\n      POP \t\t\t\n      DUP2 \t\t\t\n      DUP2 \t\t\t\n      SUB \t\t\t\n      PUSH 0\t\t\t\n      DUP4 \t\t\t\n      ADD \t\t\t\n      MSTORE \t\t\t\n      PUSH [tag] 662\t\t\t\n      DUP2 \t\t\t\n      PUSH [tag] 497\t\t\t\n      JUMP \t\t\t\n    tag 662\t\t\t\n      JUMPDEST \t\t\t\n      SWAP1 \t\t\t\n      POP \t\t\t\n      SWAP2 \t\t\t\n      SWAP1 \t\t\t\n      POP \t\t\t\n      JUMP \t\t\t\n    tag 498\t\t\t\n      JUMPDEST \t\t\t\n      PUSH 4E6F7420416C6C6F776564000000000000000000000000000000000000000000\t\t\t\n      PUSH 0\t\t\t\n      DUP3 \t\t\t\n      ADD \t\t\t\n      MSTORE \t\t\t\n      POP \t\t\t\n      JUMP \t\t\t\n    tag 499\t\t\t\n      JUMPDEST \t\t\t\n      PUSH 0\t\t\t\n      PUSH [tag] 665\t\t\t\n      PUSH B\t\t\t\n      DUP4 \t\t\t\n      PUSH [tag] 470\t\t\t\n      JUMP \t\t\t\n    tag 665\t\t\t\n      JUMPDEST \t\t\t\n      SWAP2 \t\t\t\n      POP \t\t\t\n      PUSH [tag] 666\t\t\t\n      DUP3 \t\t\t\n      PUSH [tag] 498\t\t\t\n      JUMP \t\t\t\n    tag 666\t\t\t\n      JUMPDEST \t\t\t\n      PUSH 20\t\t\t\n      DUP3 \t\t\t\n      ADD \t\t\t\n      SWAP1 \t\t\t\n      POP \t\t\t\n      SWAP2 \t\t\t\n      SWAP1 \t\t\t\n      POP \t\t\t\n      JUMP \t\t\t\n    tag 205\t\t\t\n      JUMPDEST \t\t\t\n      PUSH 0\t\t\t\n      PUSH 20\t\t\t\n      DUP3 \t\t\t\n      ADD \t\t\t\n      SWAP1 \t\t\t\n      POP \t\t\t\n      DUP2 \t\t\t\n      DUP2 \t\t\t\n      SUB \t\t\t\n      PUSH 0\t\t\t\n      DUP4 \t\t\t\n      ADD \t\t\t\n      MSTORE \t\t\t\n      PUSH [tag] 668\t\t\t\n      DUP2 \t\t\t\n      PUSH [tag] 499\t\t\t\n      JUMP \t\t\t\n    tag 668\t\t\t\n      JUMPDEST \t\t\t\n      SWAP1 \t\t\t\n      POP \t\t\t\n      SWAP2 \t\t\t\n      SWAP1 \t\t\t\n      POP \t\t\t\n      JUMP \t\t\t\n    tag 500\t\t\t\n      JUMPDEST \t\t\t\n      PUSH 0\t\t\t\n      DUP2 \t\t\t\n      SWAP1 \t\t\t\n      POP \t\t\t\n      DUP2 \t\t\t\n      PUSH 0\t\t\t\n      MSTORE \t\t\t\n      PUSH 20\t\t\t\n      PUSH 0\t\t\t\n      KECCAK256 \t\t\t\n      SWAP1 \t\t\t\n      POP \t\t\t\n      SWAP2 \t\t\t\n      SWAP1 \t\t\t\n      POP \t\t\t\n      JUMP \t\t\t\n    tag 501\t\t\t\n      JUMPDEST \t\t\t\n      PUSH 0\t\t\t\n      PUSH 20\t\t\t\n      PUSH 1F\t\t\t\n      DUP4 \t\t\t\n      ADD \t\t\t\n      DIV \t\t\t\n      SWAP1 \t\t\t\n      POP \t\t\t\n      SWAP2 \t\t\t\n      SWAP1 \t\t\t\n      POP \t\t\t\n      JUMP \t\t\t\n    tag 502\t\t\t\n      JUMPDEST \t\t\t\n      PUSH 0\t\t\t\n      DUP3 \t\t\t\n      DUP3 \t\t\t\n      SHL \t\t\t\n      SWAP1 \t\t\t\n      POP \t\t\t\n      SWAP3 \t\t\t\n      SWAP2 \t\t\t\n      POP \t\t\t\n      POP \t\t\t\n      JUMP \t\t\t\n    tag 503\t\t\t\n      JUMPDEST \t\t\t\n      PUSH 0\t\t\t\n      PUSH 8\t\t\t\n      DUP4 \t\t\t\n      MUL \t\t\t\n      PUSH [tag] 673\t\t\t\n      PUSH FFFFFFFFFFFFFFFFFFFFFFFFFFFFFFFFFFFFFFFFFFFFFFFFFFFFFFFFFFFFFFFF\t\t\t\n      DUP3 \t\t\t\n      PUSH [tag] 502\t\t\t\n      JUMP \t\t\t\n    tag 673\t\t\t\n      JUMPDEST \t\t\t\n      PUSH [tag] 674\t\t\t\n      DUP7 \t\t\t\n      DUP4 \t\t\t\n      PUSH [tag] 502\t\t\t\n      JUMP \t\t\t\n    tag 674\t\t\t\n      JUMPDEST \t\t\t\n      SWAP6 \t\t\t\n      POP \t\t\t\n      DUP1 \t\t\t\n      NOT \t\t\t\n      DUP5 \t\t\t\n      AND \t\t\t\n      SWAP4 \t\t\t\n      POP \t\t\t\n      DUP1 \t\t\t\n      DUP7 \t\t\t\n      AND \t\t\t\n      DUP5 \t\t\t\n      OR \t\t\t\n      SWAP3 \t\t\t\n      POP \t\t\t\n      POP \t\t\t\n      POP \t\t\t\n      SWAP4 \t\t\t\n      SWAP3 \t\t\t\n      POP \t\t\t\n      POP \t\t\t\n      POP \t\t\t\n      JUMP \t\t\t\n    tag 504\t\t\t\n      JUMPDEST \t\t\t\n      PUSH 0\t\t\t\n      DUP2 \t\t\t\n      SWAP1 \t\t\t\n      POP \t\t\t\n      SWAP2 \t\t\t\n      SWAP1 \t\t\t\n      POP \t\t\t\n      JUMP \t\t\t\n    tag 505\t\t\t\n      JUMPDEST \t\t\t\n      PUSH 0\t\t\t\n      DUP2 \t\t\t\n      SWAP1 \t\t\t\n      POP \t\t\t\n      SWAP2 \t\t\t\n      SWAP1 \t\t\t\n      POP \t\t\t\n      JUMP \t\t\t\n    tag 506\t\t\t\n      JUMPDEST \t\t\t\n      PUSH 0\t\t\t\n      PUSH [tag] 678\t\t\t\n      PUSH [tag] 679\t\t\t\n      PUSH [tag] 680\t\t\t\n      DUP5 \t\t\t\n      PUSH [tag] 504\t\t\t\n      JUMP \t\t\t\n    tag 680\t\t\t\n      JUMPDEST \t\t\t\n      PUSH [tag] 505\t\t\t\n      JUMP \t\t\t\n    tag 679\t\t\t\n      JUMPDEST \t\t\t\n      PUSH [tag] 504\t\t\t\n      JUMP \t\t\t\n    tag 678\t\t\t\n      JUMPDEST \t\t\t\n      SWAP1 \t\t\t\n      POP \t\t\t\n      SWAP2 \t\t\t\n      SWAP1 \t\t\t\n      POP \t\t\t\n      JUMP \t\t\t\n    tag 507\t\t\t\n      JUMPDEST \t\t\t\n      PUSH 0\t\t\t\n      DUP2 \t\t\t\n      SWAP1 \t\t\t\n      POP \t\t\t\n      SWAP2 \t\t\t\n      SWAP1 \t\t\t\n      POP \t\t\t\n      JUMP \t\t\t\n    tag 508\t\t\t\n      JUMPDEST \t\t\t\n      PUSH [tag] 683\t\t\t\n      DUP4 \t\t\t\n      PUSH [tag] 506\t\t\t\n      JUMP \t\t\t\n    tag 683\t\t\t\n      JUMPDEST \t\t\t\n      PUSH [tag] 684\t\t\t\n      PUSH [tag] 685\t\t\t\n      DUP3 \t\t\t\n      PUSH [tag] 507\t\t\t\n      JUMP \t\t\t\n    tag 685\t\t\t\n      JUMPDEST \t\t\t\n      DUP5 \t\t\t\n      DUP5 \t\t\t\n      SLOAD \t\t\t\n      PUSH [tag] 503\t\t\t\n      JUMP \t\t\t\n    tag 684\t\t\t\n      JUMPDEST \t\t\t\n      DUP3 \t\t\t\n      SSTORE \t\t\t\n      POP \t\t\t\n      POP \t\t\t\n      POP \t\t\t\n      POP \t\t\t\n      JUMP \t\t\t\n    tag 509\t\t\t\n      JUMPDEST \t\t\t\n      PUSH 0\t\t\t\n      SWAP1 \t\t\t\n      JUMP \t\t\t\n    tag 510\t\t\t\n      JUMPDEST \t\t\t\n      PUSH [tag] 688\t\t\t\n      PUSH [tag] 509\t\t\t\n      JUMP \t\t\t\n    tag 688\t\t\t\n      JUMPDEST \t\t\t\n      PUSH [tag] 689\t\t\t\n      DUP2 \t\t\t\n      DUP5 \t\t\t\n      DUP5 \t\t\t\n      PUSH [tag] 508\t\t\t\n      JUMP \t\t\t\n    tag 689\t\t\t\n      JUMPDEST \t\t\t\n      POP \t\t\t\n      POP \t\t\t\n      POP \t\t\t\n      JUMP \t\t\t\n    tag 511\t\t\t\n      JUMPDEST \t\t\t\n    tag 691\t\t\t\n      JUMPDEST \t\t\t\n      DUP2 \t\t\t\n      DUP2 \t\t\t\n      LT \t\t\t\n      ISZERO \t\t\t\n      PUSH [tag] 693\t\t\t\n      JUMPI \t\t\t\n      PUSH [tag] 694\t\t\t\n      PUSH 0\t\t\t\n      DUP3 \t\t\t\n      PUSH [tag] 510\t\t\t\n      JUMP \t\t\t\n    tag 694\t\t\t\n      JUMPDEST \t\t\t\n      PUSH 1\t\t\t\n      DUP2 \t\t\t\n      ADD \t\t\t\n      SWAP1 \t\t\t\n      POP \t\t\t\n      PUSH [tag] 691\t\t\t\n      JUMP \t\t\t\n    tag 693\t\t\t\n      JUMPDEST \t\t\t\n      POP \t\t\t\n      POP \t\t\t\n      JUMP \t\t\t\n    tag 512\t\t\t\n      JUMPDEST \t\t\t\n      PUSH 1F\t\t\t\n      DUP3 \t\t\t\n      GT \t\t\t\n      ISZERO \t\t\t\n      PUSH [tag] 696\t\t\t\n      JUMPI \t\t\t\n      PUSH [tag] 697\t\t\t\n      DUP2 \t\t\t\n      PUSH [tag] 500\t\t\t\n      JUMP \t\t\t\n    tag 697\t\t\t\n      JUMPDEST \t\t\t\n      PUSH [tag] 698\t\t\t\n      DUP5 \t\t\t\n      PUSH [tag] 501\t\t\t\n      JUMP \t\t\t\n    tag 698\t\t\t\n      JUMPDEST \t\t\t\n      DUP2 \t\t\t\n      ADD \t\t\t\n      PUSH 20\t\t\t\n      DUP6 \t\t\t\n      LT \t\t\t\n      ISZERO \t\t\t\n      PUSH [tag] 699\t\t\t\n      JUMPI \t\t\t\n      DUP2 \t\t\t\n      SWAP1 \t\t\t\n      POP \t\t\t\n    tag 699\t\t\t\n      JUMPDEST \t\t\t\n      PUSH [tag] 700\t\t\t\n      PUSH [tag] 701\t\t\t\n      DUP6 \t\t\t\n      PUSH [tag] 501\t\t\t\n      JUMP \t\t\t\n    tag 701\t\t\t\n      JUMPDEST \t\t\t\n      DUP4 \t\t\t\n      ADD \t\t\t\n      DUP3 \t\t\t\n      PUSH [tag] 511\t\t\t\n      JUMP \t\t\t\n    tag 700\t\t\t\n      JUMPDEST \t\t\t\n      POP \t\t\t\n      POP \t\t\t\n    tag 696\t\t\t\n      JUMPDEST \t\t\t\n      POP \t\t\t\n      POP \t\t\t\n      POP \t\t\t\n      JUMP \t\t\t\n    tag 513\t\t\t\n      JUMPDEST \t\t\t\n      PUSH 0\t\t\t\n      DUP3 \t\t\t\n      DUP3 \t\t\t\n      SHR \t\t\t\n      SWAP1 \t\t\t\n      POP \t\t\t\n      SWAP3 \t\t\t\n      SWAP2 \t\t\t\n      POP \t\t\t\n      POP \t\t\t\n      JUMP \t\t\t\n    tag 514\t\t\t\n      JUMPDEST \t\t\t\n      PUSH 0\t\t\t\n      PUSH [tag] 704\t\t\t\n      PUSH 0\t\t\t\n      NOT \t\t\t\n      DUP5 \t\t\t\n      PUSH 8\t\t\t\n      MUL \t\t\t\n      PUSH [tag] 513\t\t\t\n      JUMP \t\t\t\n    tag 704\t\t\t\n      JUMPDEST \t\t\t\n      NOT \t\t\t\n      DUP1 \t\t\t\n      DUP4 \t\t\t\n      AND \t\t\t\n      SWAP2 \t\t\t\n      POP \t\t\t\n      POP \t\t\t\n      SWAP3 \t\t\t\n      SWAP2 \t\t\t\n      POP \t\t\t\n      POP \t\t\t\n      JUMP \t\t\t\n    tag 515\t\t\t\n      JUMPDEST \t\t\t\n      PUSH 0\t\t\t\n      PUSH [tag] 706\t\t\t\n      DUP4 \t\t\t\n      DUP4 \t\t\t\n      PUSH [tag] 514\t\t\t\n      JUMP \t\t\t\n    tag 706\t\t\t\n      JUMPDEST \t\t\t\n      SWAP2 \t\t\t\n      POP \t\t\t\n      DUP3 \t\t\t\n      PUSH 2\t\t\t\n      MUL \t\t\t\n      DUP3 \t\t\t\n      OR \t\t\t\n      SWAP1 \t\t\t\n      POP \t\t\t\n      SWAP3 \t\t\t\n      SWAP2 \t\t\t\n      POP \t\t\t\n      POP \t\t\t\n      JUMP \t\t\t\n    tag 226\t\t\t\n      JUMPDEST \t\t\t\n      PUSH [tag] 708\t\t\t\n      DUP3 \t\t\t\n      PUSH [tag] 469\t\t\t\n      JUMP \t\t\t\n    tag 708\t\t\t\n      JUMPDEST \t\t\t\n      PUSH FFFFFFFFFFFFFFFF\t\t\t\n      DUP2 \t\t\t\n      GT \t\t\t\n      ISZERO \t\t\t\n      PUSH [tag] 709\t\t\t\n      JUMPI \t\t\t\n      PUSH [tag] 710\t\t\t\n      PUSH [tag] 486\t\t\t\n      JUMP \t\t\t\n    tag 710\t\t\t\n      JUMPDEST \t\t\t\n    tag 709\t\t\t\n      JUMPDEST \t\t\t\n      PUSH [tag] 711\t\t\t\n      DUP3 \t\t\t\n      SLOAD \t\t\t\n      PUSH [tag] 161\t\t\t\n      JUMP \t\t\t\n    tag 711\t\t\t\n      JUMPDEST \t\t\t\n      PUSH [tag] 712\t\t\t\n      DUP3 \t\t\t\n      DUP3 \t\t\t\n      DUP6 \t\t\t\n      PUSH [tag] 512\t\t\t\n      JUMP \t\t\t\n    tag 712\t\t\t\n      JUMPDEST \t\t\t\n      PUSH 0\t\t\t\n      PUSH 20\t\t\t\n      SWAP1 \t\t\t\n      POP \t\t\t\n      PUSH 1F\t\t\t\n      DUP4 \t\t\t\n      GT \t\t\t\n      PUSH 1\t\t\t\n      DUP2 \t\t\t\n      EQ \t\t\t\n      PUSH [tag] 714\t\t\t\n      JUMPI \t\t\t\n      PUSH 0\t\t\t\n      DUP5 \t\t\t\n      ISZERO \t\t\t\n      PUSH [tag] 715\t\t\t\n      JUMPI \t\t\t\n      DUP3 \t\t\t\n      DUP8 \t\t\t\n      ADD \t\t\t\n      MLOAD \t\t\t\n      SWAP1 \t\t\t\n      POP \t\t\t\n    tag 715\t\t\t\n      JUMPDEST \t\t\t\n      PUSH [tag] 716\t\t\t\n      DUP6 \t\t\t\n      DUP3 \t\t\t\n      PUSH [tag] 515\t\t\t\n      JUMP \t\t\t\n    tag 716\t\t\t\n      JUMPDEST \t\t\t\n      DUP7 \t\t\t\n      SSTORE \t\t\t\n      POP \t\t\t\n      PUSH [tag] 713\t\t\t\n      JUMP \t\t\t\n    tag 714\t\t\t\n      JUMPDEST \t\t\t\n      PUSH 1F\t\t\t\n      NOT \t\t\t\n      DUP5 \t\t\t\n      AND \t\t\t\n      PUSH [tag] 717\t\t\t\n      DUP7 \t\t\t\n      PUSH [tag] 500\t\t\t\n      JUMP \t\t\t\n    tag 717\t\t\t\n      JUMPDEST \t\t\t\n      PUSH 0\t\t\t\n    tag 718\t\t\t\n      JUMPDEST \t\t\t\n      DUP3 \t\t\t\n      DUP2 \t\t\t\n      LT \t\t\t\n      ISZERO \t\t\t\n      PUSH [tag] 720\t\t\t\n      JUMPI \t\t\t\n      DUP5 \t\t\t\n      DUP10 \t\t\t\n      ADD \t\t\t\n      MLOAD \t\t\t\n      DUP3 \t\t\t\n      SSTORE \t\t\t\n      PUSH 1\t\t\t\n      DUP3 \t\t\t\n      ADD \t\t\t\n      SWAP2 \t\t\t\n      POP \t\t\t\n      PUSH 20\t\t\t\n      DUP6 \t\t\t\n      ADD \t\t\t\n      SWAP5 \t\t\t\n      POP \t\t\t\n      PUSH 20\t\t\t\n      DUP2 \t\t\t\n      ADD \t\t\t\n      SWAP1 \t\t\t\n      POP \t\t\t\n      PUSH [tag] 718\t\t\t\n      JUMP \t\t\t\n    tag 720\t\t\t\n      JUMPDEST \t\t\t\n      DUP7 \t\t\t\n      DUP4 \t\t\t\n      LT \t\t\t\n      ISZERO \t\t\t\n      PUSH [tag] 721\t\t\t\n      JUMPI \t\t\t\n      DUP5 \t\t\t\n      DUP10 \t\t\t\n      ADD \t\t\t\n      MLOAD \t\t\t\n      PUSH [tag] 722\t\t\t\n      PUSH 1F\t\t\t\n      DUP10 \t\t\t\n      AND \t\t\t\n      DUP3 \t\t\t\n      PUSH [tag] 514\t\t\t\n      JUMP \t\t\t\n    tag 722\t\t\t\n      JUMPDEST \t\t\t\n      DUP4 \t\t\t\n      SSTORE \t\t\t\n      POP \t\t\t\n    tag 721\t\t\t\n      JUMPDEST \t\t\t\n      PUSH 1\t\t\t\n      PUSH 2\t\t\t\n      DUP9 \t\t\t\n      MUL \t\t\t\n      ADD \t\t\t\n      DUP9 \t\t\t\n      SSTORE \t\t\t\n      POP \t\t\t\n      POP \t\t\t\n      POP \t\t\t\n    tag 713\t\t\t\n      JUMPDEST \t\t\t\n      POP \t\t\t\n      POP \t\t\t\n      POP \t\t\t\n      POP \t\t\t\n      POP \t\t\t\n      POP \t\t\t\n      JUMP \t\t\t\n    tag 516\t\t\t\n      JUMPDEST \t\t\t\n      PUSH 436F6E74726163743A20446F63746F72206E6F74207265676973746572656400\t\t\t\n      PUSH 0\t\t\t\n      DUP3 \t\t\t\n      ADD \t\t\t\n      MSTORE \t\t\t\n      POP \t\t\t\n      JUMP \t\t\t\n    tag 517\t\t\t\n      JUMPDEST \t\t\t\n      PUSH 0\t\t\t\n      PUSH [tag] 725\t\t\t\n      PUSH 1F\t\t\t\n      DUP4 \t\t\t\n      PUSH [tag] 470\t\t\t\n      JUMP \t\t\t\n    tag 725\t\t\t\n      JUMPDEST \t\t\t\n      SWAP2 \t\t\t\n      POP \t\t\t\n      PUSH [tag] 726\t\t\t\n      DUP3 \t\t\t\n      PUSH [tag] 516\t\t\t\n      JUMP \t\t\t\n    tag 726\t\t\t\n      JUMPDEST \t\t\t\n      PUSH 20\t\t\t\n      DUP3 \t\t\t\n      ADD \t\t\t\n      SWAP1 \t\t\t\n      POP \t\t\t\n      SWAP2 \t\t\t\n      SWAP1 \t\t\t\n      POP \t\t\t\n      JUMP \t\t\t\n    tag 238\t\t\t\n      JUMPDEST \t\t\t\n      PUSH 0\t\t\t\n      PUSH 20\t\t\t\n      DUP3 \t\t\t\n      ADD \t\t\t\n      SWAP1 \t\t\t\n      POP \t\t\t\n      DUP2 \t\t\t\n      DUP2 \t\t\t\n      SUB \t\t\t\n      PUSH 0\t\t\t\n      DUP4 \t\t\t\n      ADD \t\t\t\n      MSTORE \t\t\t\n      PUSH [tag] 728\t\t\t\n      DUP2 \t\t\t\n      PUSH [tag] 517\t\t\t\n      JUMP \t\t\t\n    tag 728\t\t\t\n      JUMPDEST \t\t\t\n      SWAP1 \t\t\t\n      POP \t\t\t\n      SWAP2 \t\t\t\n      SWAP1 \t\t\t\n      POP \t\t\t\n      JUMP \t\t\t\n    tag 518\t\t\t\n      JUMPDEST \t\t\t\n      PUSH 436F6E74726163743A20456D7074792068617368206973206E6F7420616C6C6F\t\t\t\n      PUSH 0\t\t\t\n      DUP3 \t\t\t\n      ADD \t\t\t\n      MSTORE \t\t\t\n      PUSH 7765642100000000000000000000000000000000000000000000000000000000\t\t\t\n      PUSH 20\t\t\t\n      DUP3 \t\t\t\n      ADD \t\t\t\n      MSTORE \t\t\t\n      POP \t\t\t\n      JUMP \t\t\t\n    tag 519\t\t\t\n      JUMPDEST \t\t\t\n      PUSH 0\t\t\t\n      PUSH [tag] 731\t\t\t\n      PUSH 24\t\t\t\n      DUP4 \t\t\t\n      PUSH [tag] 470\t\t\t\n      JUMP \t\t\t\n    tag 731\t\t\t\n      JUMPDEST \t\t\t\n      SWAP2 \t\t\t\n      POP \t\t\t\n      PUSH [tag] 732\t\t\t\n      DUP3 \t\t\t\n      PUSH [tag] 518\t\t\t\n      JUMP \t\t\t\n    tag 732\t\t\t\n      JUMPDEST \t\t\t\n      PUSH 40\t\t\t\n      DUP3 \t\t\t\n      ADD \t\t\t\n      SWAP1 \t\t\t\n      POP \t\t\t\n      SWAP2 \t\t\t\n      SWAP1 \t\t\t\n      POP \t\t\t\n      JUMP \t\t\t\n    tag 272\t\t\t\n      JUMPDEST \t\t\t\n      PUSH 0\t\t\t\n      PUSH 20\t\t\t\n      DUP3 \t\t\t\n      ADD \t\t\t\n      SWAP1 \t\t\t\n      POP \t\t\t\n      DUP2 \t\t\t\n      DUP2 \t\t\t\n      SUB \t\t\t\n      PUSH 0\t\t\t\n      DUP4 \t\t\t\n      ADD \t\t\t\n      MSTORE \t\t\t\n      PUSH [tag] 734\t\t\t\n      DUP2 \t\t\t\n      PUSH [tag] 519\t\t\t\n      JUMP \t\t\t\n    tag 734\t\t\t\n      JUMPDEST \t\t\t\n      SWAP1 \t\t\t\n      POP \t\t\t\n      SWAP2 \t\t\t\n      SWAP1 \t\t\t\n      POP \t\t\t\n      JUMP \t\t\t\n    tag 520\t\t\t\n      JUMPDEST \t\t\t\n      PUSH 436F6E74726163743A204164647265737320616C726561647920726567697374\t\t\t\n      PUSH 0\t\t\t\n      DUP3 \t\t\t\n      ADD \t\t\t\n      MSTORE \t\t\t\n      PUSH 6572656420617320646F63746F72000000000000000000000000000000000000\t\t\t\n      PUSH 20\t\t\t\n      DUP3 \t\t\t\n      ADD \t\t\t\n      MSTORE \t\t\t\n      POP \t\t\t\n      JUMP \t\t\t\n    tag 521\t\t\t\n      JUMPDEST \t\t\t\n      PUSH 0\t\t\t\n      PUSH [tag] 737\t\t\t\n      PUSH 2E\t\t\t\n      DUP4 \t\t\t\n      PUSH [tag] 470\t\t\t\n      JUMP \t\t\t\n    tag 737\t\t\t\n      JUMPDEST \t\t\t\n      SWAP2 \t\t\t\n      POP \t\t\t\n      PUSH [tag] 738\t\t\t\n      DUP3 \t\t\t\n      PUSH [tag] 520\t\t\t\n      JUMP \t\t\t\n    tag 738\t\t\t\n      JUMPDEST \t\t\t\n      PUSH 40\t\t\t\n      DUP3 \t\t\t\n      ADD \t\t\t\n      SWAP1 \t\t\t\n      POP \t\t\t\n      SWAP2 \t\t\t\n      SWAP1 \t\t\t\n      POP \t\t\t\n      JUMP \t\t\t\n    tag 280\t\t\t\n      JUMPDEST \t\t\t\n      PUSH 0\t\t\t\n      PUSH 20\t\t\t\n      DUP3 \t\t\t\n      ADD \t\t\t\n      SWAP1 \t\t\t\n      POP \t\t\t\n      DUP2 \t\t\t\n      DUP2 \t\t\t\n      SUB \t\t\t\n      PUSH 0\t\t\t\n      DUP4 \t\t\t\n      ADD \t\t\t\n      MSTORE \t\t\t\n      PUSH [tag] 740\t\t\t\n      DUP2 \t\t\t\n      PUSH [tag] 521\t\t\t\n      JUMP \t\t\t\n    tag 740\t\t\t\n      JUMPDEST \t\t\t\n      SWAP1 \t\t\t\n      POP \t\t\t\n      SWAP2 \t\t\t\n      SWAP1 \t\t\t\n      POP \t\t\t\n      JUMP \t\t\t\n    tag 522\t\t\t\n      JUMPDEST \t\t\t\n      PUSH 436F6E74726163743A20456D707479207075626C6963206B6579206973206E6F\t\t\t\n      PUSH 0\t\t\t\n      DUP3 \t\t\t\n      ADD \t\t\t\n      MSTORE \t\t\t\n      PUSH 7420616C6C6F7765642100000000000000000000000000000000000000000000\t\t\t\n      PUSH 20\t\t\t\n      DUP3 \t\t\t\n      ADD \t\t\t\n      MSTORE \t\t\t\n      POP \t\t\t\n      JUMP \t\t\t\n    tag 523\t\t\t\n      JUMPDEST \t\t\t\n      PUSH 0\t\t\t\n      PUSH [tag] 743\t\t\t\n      PUSH 2A\t\t\t\n      DUP4 \t\t\t\n      PUSH [tag] 470\t\t\t\n      JUMP \t\t\t\n    tag 743\t\t\t\n      JUMPDEST \t\t\t\n      SWAP2 \t\t\t\n      POP \t\t\t\n      PUSH [tag] 744\t\t\t\n      DUP3 \t\t\t\n      PUSH [tag] 522\t\t\t\n      JUMP \t\t\t\n    tag 744\t\t\t\n      JUMPDEST \t\t\t\n      PUSH 40\t\t\t\n      DUP3 \t\t\t\n      ADD \t\t\t\n      SWAP1 \t\t\t\n      POP \t\t\t\n      SWAP2 \t\t\t\n      SWAP1 \t\t\t\n      POP \t\t\t\n      JUMP \t\t\t\n    tag 317\t\t\t\n      JUMPDEST \t\t\t\n      PUSH 0\t\t\t\n      PUSH 20\t\t\t\n      DUP3 \t\t\t\n      ADD \t\t\t\n      SWAP1 \t\t\t\n      POP \t\t\t\n      DUP2 \t\t\t\n      DUP2 \t\t\t\n      SUB \t\t\t\n      PUSH 0\t\t\t\n      DUP4 \t\t\t\n      ADD \t\t\t\n      MSTORE \t\t\t\n      PUSH [tag] 746\t\t\t\n      DUP2 \t\t\t\n      PUSH [tag] 523\t\t\t\n      JUMP \t\t\t\n    tag 746\t\t\t\n      JUMPDEST \t\t\t\n      SWAP1 \t\t\t\n      POP \t\t\t\n      SWAP2 \t\t\t\n      SWAP1 \t\t\t\n      POP \t\t\t\n      JUMP \t\t\t\n    tag 524\t\t\t\n      JUMPDEST \t\t\t\n      PUSH 526F6C65733A206163636F756E7420697320746865207A65726F206164647265\t\t\t\n      PUSH 0\t\t\t\n      DUP3 \t\t\t\n      ADD \t\t\t\n      MSTORE \t\t\t\n      PUSH 7373000000000000000000000000000000000000000000000000000000000000\t\t\t\n      PUSH 20\t\t\t\n      DUP3 \t\t\t\n      ADD \t\t\t\n      MSTORE \t\t\t\n      POP \t\t\t\n      JUMP \t\t\t\n    tag 525\t\t\t\n      JUMPDEST \t\t\t\n      PUSH 0\t\t\t\n      PUSH [tag] 749\t\t\t\n      PUSH 22\t\t\t\n      DUP4 \t\t\t\n      PUSH [tag] 470\t\t\t\n      JUMP \t\t\t\n    tag 749\t\t\t\n      JUMPDEST \t\t\t\n      SWAP2 \t\t\t\n      POP \t\t\t\n      PUSH [tag] 750\t\t\t\n      DUP3 \t\t\t\n      PUSH [tag] 524\t\t\t\n      JUMP \t\t\t\n    tag 750\t\t\t\n      JUMPDEST \t\t\t\n      PUSH 40\t\t\t\n      DUP3 \t\t\t\n      ADD \t\t\t\n      SWAP1 \t\t\t\n      POP \t\t\t\n      SWAP2 \t\t\t\n      SWAP1 \t\t\t\n      POP \t\t\t\n      JUMP \t\t\t\n    tag 361\t\t\t\n      JUMPDEST \t\t\t\n      PUSH 0\t\t\t\n      PUSH 20\t\t\t\n      DUP3 \t\t\t\n      ADD \t\t\t\n      SWAP1 \t\t\t\n      POP \t\t\t\n      DUP2 \t\t\t\n      DUP2 \t\t\t\n      SUB \t\t\t\n      PUSH 0\t\t\t\n      DUP4 \t\t\t\n      ADD \t\t\t\n      MSTORE \t\t\t\n      PUSH [tag] 752\t\t\t\n      DUP2 \t\t\t\n      PUSH [tag] 525\t\t\t\n      JUMP \t\t\t\n    tag 752\t\t\t\n      JUMPDEST \t\t\t\n      SWAP1 \t\t\t\n      POP \t\t\t\n      SWAP2 \t\t\t\n      SWAP1 \t\t\t\n      POP \t\t\t\n      JUMP \t\t\t\n    tag 526\t\t\t\n      JUMPDEST \t\t\t\n      PUSH 4E487B7100000000000000000000000000000000000000000000000000000000\t\t\t\n      PUSH 0\t\t\t\n      MSTORE \t\t\t\n      PUSH 11\t\t\t\n      PUSH 4\t\t\t\n      MSTORE \t\t\t\n      PUSH 24\t\t\t\n      PUSH 0\t\t\t\n      REVERT \t\t\t\n    tag 367\t\t\t\n      JUMPDEST \t\t\t\n      PUSH 0\t\t\t\n      PUSH [tag] 755\t\t\t\n      DUP3 \t\t\t\n      PUSH [tag] 504\t\t\t\n      JUMP \t\t\t\n    tag 755\t\t\t\n      JUMPDEST \t\t\t\n      SWAP2 \t\t\t\n      POP \t\t\t\n      PUSH [tag] 756\t\t\t\n      DUP4 \t\t\t\n      PUSH [tag] 504\t\t\t\n      JUMP \t\t\t\n    tag 756\t\t\t\n      JUMPDEST \t\t\t\n      SWAP3 \t\t\t\n      POP \t\t\t\n      DUP3 \t\t\t\n      DUP3 \t\t\t\n      SUB \t\t\t\n      SWAP1 \t\t\t\n      POP \t\t\t\n      DUP2 \t\t\t\n      DUP2 \t\t\t\n      GT \t\t\t\n      ISZERO \t\t\t\n      PUSH [tag] 757\t\t\t\n      JUMPI \t\t\t\n      PUSH [tag] 758\t\t\t\n      PUSH [tag] 526\t\t\t\n      JUMP \t\t\t\n    tag 758\t\t\t\n      JUMPDEST \t\t\t\n    tag 757\t\t\t\n      JUMPDEST \t\t\t\n      SWAP3 \t\t\t\n      SWAP2 \t\t\t\n      POP \t\t\t\n      POP \t\t\t\n      JUMP \t\t\t\n    tag 370\t\t\t\n      JUMPDEST \t\t\t\n      PUSH 4E487B7100000000000000000000000000000000000000000000000000000000\t\t\t\n      PUSH 0\t\t\t\n      MSTORE \t\t\t\n      PUSH 32\t\t\t\n      PUSH 4\t\t\t\n      MSTORE \t\t\t\n      PUSH 24\t\t\t\n      PUSH 0\t\t\t\n      REVERT \t\t\t\n    tag 377\t\t\t\n      JUMPDEST \t\t\t\n      PUSH 4E487B7100000000000000000000000000000000000000000000000000000000\t\t\t\n      PUSH 0\t\t\t\n      MSTORE \t\t\t\n      PUSH 31\t\t\t\n      PUSH 4\t\t\t\n      MSTORE \t\t\t\n      PUSH 24\t\t\t\n      PUSH 0\t\t\t\n      REVERT \t\t\t\n    tag 527\t\t\t\n      JUMPDEST \t\t\t\n      PUSH 526F6C65733A206163636F756E7420616C72656164792068617320726F6C6500\t\t\t\n      PUSH 0\t\t\t\n      DUP3 \t\t\t\n      ADD \t\t\t\n      MSTORE \t\t\t\n      POP \t\t\t\n      JUMP \t\t\t\n    tag 528\t\t\t\n      JUMPDEST \t\t\t\n      PUSH 0\t\t\t\n      PUSH [tag] 763\t\t\t\n      PUSH 1F\t\t\t\n      DUP4 \t\t\t\n      PUSH [tag] 470\t\t\t\n      JUMP \t\t\t\n    tag 763\t\t\t\n      JUMPDEST \t\t\t\n      SWAP2 \t\t\t\n      POP \t\t\t\n      PUSH [tag] 764\t\t\t\n      DUP3 \t\t\t\n      PUSH [tag] 527\t\t\t\n      JUMP \t\t\t\n    tag 764\t\t\t\n      JUMPDEST \t\t\t\n      PUSH 20\t\t\t\n      DUP3 \t\t\t\n      ADD \t\t\t\n      SWAP1 \t\t\t\n      POP \t\t\t\n      SWAP2 \t\t\t\n      SWAP1 \t\t\t\n      POP \t\t\t\n      JUMP \t\t\t\n    tag 386\t\t\t\n      JUMPDEST \t\t\t\n      PUSH 0\t\t\t\n      PUSH 20\t\t\t\n      DUP3 \t\t\t\n      ADD \t\t\t\n      SWAP1 \t\t\t\n      POP \t\t\t\n      DUP2 \t\t\t\n      DUP2 \t\t\t\n      SUB \t\t\t\n      PUSH 0\t\t\t\n      DUP4 \t\t\t\n      ADD \t\t\t\n      MSTORE \t\t\t\n      PUSH [tag] 766\t\t\t\n      DUP2 \t\t\t\n      PUSH [tag] 528\t\t\t\n      JUMP \t\t\t\n    tag 766\t\t\t\n      JUMPDEST \t\t\t\n      SWAP1 \t\t\t\n      POP \t\t\t\n      SWAP2 \t\t\t\n      SWAP1 \t\t\t\n      POP \t\t\t\n      JUMP \t\t\t\n    tag 400\t\t\t\n      JUMPDEST \t\t\t\n      PUSH 0\t\t\t\n      PUSH [tag] 768\t\t\t\n      DUP3 \t\t\t\n      PUSH [tag] 504\t\t\t\n      JUMP \t\t\t\n    tag 768\t\t\t\n      JUMPDEST \t\t\t\n      SWAP2 \t\t\t\n      POP \t\t\t\n      PUSH FFFFFFFFFFFFFFFFFFFFFFFFFFFFFFFFFFFFFFFFFFFFFFFFFFFFFFFFFFFFFFFF\t\t\t\n      DUP3 \t\t\t\n      SUB \t\t\t\n      PUSH [tag] 769\t\t\t\n      JUMPI \t\t\t\n      PUSH [tag] 770\t\t\t\n      PUSH [tag] 526\t\t\t\n      JUMP \t\t\t\n    tag 770\t\t\t\n      JUMPDEST \t\t\t\n    tag 769\t\t\t\n      JUMPDEST \t\t\t\n      PUSH 1\t\t\t\n      DUP3 \t\t\t\n      ADD \t\t\t\n      SWAP1 \t\t\t\n      POP \t\t\t\n      SWAP2 \t\t\t\n      SWAP1 \t\t\t\n      POP \t\t\t\n      JUMP \t\t\t\n    tag 529\t\t\t\n      JUMPDEST \t\t\t\n      PUSH 526F6C65733A206163636F756E7420646F6573206E6F74206861766520726F6C\t\t\t\n      PUSH 0\t\t\t\n      DUP3 \t\t\t\n      ADD \t\t\t\n      MSTORE \t\t\t\n      PUSH 6500000000000000000000000000000000000000000000000000000000000000\t\t\t\n      PUSH 20\t\t\t\n      DUP3 \t\t\t\n      ADD \t\t\t\n      MSTORE \t\t\t\n      POP \t\t\t\n      JUMP \t\t\t\n    tag 530\t\t\t\n      JUMPDEST \t\t\t\n      PUSH 0\t\t\t\n      PUSH [tag] 773\t\t\t\n      PUSH 21\t\t\t\n      DUP4 \t\t\t\n      PUSH [tag] 470\t\t\t\n      JUMP \t\t\t\n    tag 773\t\t\t\n      JUMPDEST \t\t\t\n      SWAP2 \t\t\t\n      POP \t\t\t\n      PUSH [tag] 774\t\t\t\n      DUP3 \t\t\t\n      PUSH [tag] 529\t\t\t\n      JUMP \t\t\t\n    tag 774\t\t\t\n      JUMPDEST \t\t\t\n      PUSH 40\t\t\t\n      DUP3 \t\t\t\n      ADD \t\t\t\n      SWAP1 \t\t\t\n      POP \t\t\t\n      SWAP2 \t\t\t\n      SWAP1 \t\t\t\n      POP \t\t\t\n      JUMP \t\t\t\n    tag 410\t\t\t\n      JUMPDEST \t\t\t\n      PUSH 0\t\t\t\n      PUSH 20\t\t\t\n      DUP3 \t\t\t\n      ADD \t\t\t\n      SWAP1 \t\t\t\n      POP \t\t\t\n      DUP2 \t\t\t\n      DUP2 \t\t\t\n      SUB \t\t\t\n      PUSH 0\t\t\t\n      DUP4 \t\t\t\n      ADD \t\t\t\n      MSTORE \t\t\t\n      PUSH [tag] 776\t\t\t\n      DUP2 \t\t\t\n      PUSH [tag] 530\t\t\t\n      JUMP \t\t\t\n    tag 776\t\t\t\n      JUMPDEST \t\t\t\n      SWAP1 \t\t\t\n      POP \t\t\t\n      SWAP2 \t\t\t\n      SWAP1 \t\t\t\n      POP \t\t\t\n      JUMP \t\t\t\n    .data\n"
}