{
  "address": "0x55594Eac5E014fA7bc4c2b9C11f762489FCe2Ee1",
  "abi": [
    {
      "inputs": [
        {
          "internalType": "contract MinimalForwarder",
          "name": "forwarder",
          "type": "address"
        }
      ],
      "stateMutability": "nonpayable",
      "type": "constructor"
    },
    {
      "inputs": [],
      "name": "Contract__DoctorPublicKeyMissing",
      "type": "error"
    },
    {
      "inputs": [],
      "name": "Contract__NotAdmin",
      "type": "error"
    },
    {
      "inputs": [],
      "name": "Contract__NotDoctor",
      "type": "error"
    },
    {
      "inputs": [],
      "name": "Contract__NotPatient",
      "type": "error"
    },
    {
      "inputs": [],
      "name": "Contract__PendingDoctorApproval",
      "type": "error"
    },
    {
      "anonymous": false,
      "inputs": [
        {
          "indexed": true,
          "internalType": "address",
          "name": "_doctor",
          "type": "address"
        }
      ],
      "name": "DoctorApproved",
      "type": "event"
    },
    {
      "anonymous": false,
      "inputs": [
        {
          "indexed": true,
          "internalType": "address",
          "name": "_doctor",
          "type": "address"
        }
      ],
      "name": "DoctorDataChanged",
      "type": "event"
    },
    {
      "anonymous": false,
      "inputs": [
        {
          "indexed": true,
          "internalType": "address",
          "name": "_doctor",
          "type": "address"
        }
      ],
      "name": "DoctorDisapproved",
      "type": "event"
    },
    {
      "anonymous": false,
      "inputs": [
        {
          "indexed": true,
          "internalType": "address",
          "name": "_patient",
          "type": "address"
        },
        {
          "indexed": true,
          "internalType": "address",
          "name": "_newEditor",
          "type": "address"
        }
      ],
      "name": "GrantedDataAccess",
      "type": "event"
    },
    {
      "anonymous": false,
      "inputs": [
        {
          "indexed": false,
          "internalType": "uint8",
          "name": "version",
          "type": "uint8"
        }
      ],
      "name": "Initialized",
      "type": "event"
    },
    {
      "anonymous": false,
      "inputs": [
        {
          "indexed": true,
          "internalType": "address",
          "name": "_doctor",
          "type": "address"
        }
      ],
      "name": "NewDoctorRegistered",
      "type": "event"
    },
    {
      "anonymous": false,
      "inputs": [
        {
          "indexed": true,
          "internalType": "address",
          "name": "_patient",
          "type": "address"
        }
      ],
      "name": "NewPatientRegistered",
      "type": "event"
    },
    {
      "anonymous": false,
      "inputs": [
        {
          "indexed": true,
          "internalType": "address",
          "name": "_patient",
          "type": "address"
        }
      ],
      "name": "PatientGeneralDataChanged",
      "type": "event"
    },
    {
      "anonymous": false,
      "inputs": [
        {
          "indexed": true,
          "internalType": "address",
          "name": "_patient",
          "type": "address"
        },
        {
          "indexed": true,
          "internalType": "address",
          "name": "_editor",
          "type": "address"
        }
      ],
      "name": "PatientMedicalRecordChanged",
      "type": "event"
    },
    {
      "anonymous": false,
      "inputs": [
        {
          "indexed": true,
          "internalType": "address",
          "name": "_patient",
          "type": "address"
        },
        {
          "indexed": true,
          "internalType": "address",
          "name": "_oldEditor",
          "type": "address"
        }
      ],
      "name": "RevokedDataAccess",
      "type": "event"
    },
    {
      "inputs": [
        {
          "internalType": "address",
          "name": "_address",
          "type": "address"
        }
      ],
      "name": "approveDr",
      "outputs": [],
      "stateMutability": "nonpayable",
      "type": "function"
    },
    {
      "inputs": [
        {
          "internalType": "address",
          "name": "_address",
          "type": "address"
        },
        {
          "internalType": "string",
          "name": "_general_hash",
          "type": "string"
        },
        {
          "internalType": "string",
          "name": "_key_hash",
          "type": "string"
        }
      ],
      "name": "changeEditorAccess",
      "outputs": [],
      "stateMutability": "nonpayable",
      "type": "function"
    },
    {
      "inputs": [],
      "name": "deleteDr",
      "outputs": [],
      "stateMutability": "nonpayable",
      "type": "function"
    },
    {
      "inputs": [],
      "name": "deletePt",
      "outputs": [],
      "stateMutability": "nonpayable",
      "type": "function"
    },
    {
      "inputs": [
        {
          "internalType": "address",
          "name": "_address",
          "type": "address"
        }
      ],
      "name": "disapproveDr",
      "outputs": [],
      "stateMutability": "nonpayable",
      "type": "function"
    },
    {
      "inputs": [],
      "name": "getAdmin",
      "outputs": [
        {
          "internalType": "address",
          "name": "",
          "type": "address"
        }
      ],
      "stateMutability": "view",
      "type": "function"
    },
    {
      "inputs": [],
      "name": "getAdminPubKey",
      "outputs": [
        {
          "internalType": "string",
          "name": "",
          "type": "string"
        }
      ],
      "stateMutability": "view",
      "type": "function"
    },
    {
      "inputs": [],
      "name": "getAllDrs",
      "outputs": [
        {
          "internalType": "address[]",
          "name": "",
          "type": "address[]"
        }
      ],
      "stateMutability": "view",
      "type": "function"
    },
    {
      "inputs": [],
      "name": "getAllPts",
      "outputs": [
        {
          "internalType": "address[]",
          "name": "",
          "type": "address[]"
        }
      ],
      "stateMutability": "view",
      "type": "function"
    },
    {
      "inputs": [
        {
          "internalType": "address",
          "name": "_address",
          "type": "address"
        }
      ],
      "name": "getDrHash",
      "outputs": [
        {
          "internalType": "string",
          "name": "",
          "type": "string"
        }
      ],
      "stateMutability": "view",
      "type": "function"
    },
    {
      "inputs": [],
      "name": "getDrOfPt",
      "outputs": [
        {
          "internalType": "address",
          "name": "",
          "type": "address"
        }
      ],
      "stateMutability": "view",
      "type": "function"
    },
    {
      "inputs": [
        {
          "internalType": "address",
          "name": "_address",
          "type": "address"
        }
      ],
      "name": "getDrPubKey",
      "outputs": [
        {
          "internalType": "string",
          "name": "",
          "type": "string"
        }
      ],
      "stateMutability": "view",
      "type": "function"
    },
    {
      "inputs": [],
      "name": "getPatViewers",
      "outputs": [
        {
          "internalType": "address[]",
          "name": "",
          "type": "address[]"
        }
      ],
      "stateMutability": "view",
      "type": "function"
    },
    {
      "inputs": [],
      "name": "getPendingDrs",
      "outputs": [
        {
          "internalType": "address[]",
          "name": "",
          "type": "address[]"
        }
      ],
      "stateMutability": "view",
      "type": "function"
    },
    {
      "inputs": [
        {
          "internalType": "address",
          "name": "_address",
          "type": "address"
        }
      ],
      "name": "getPtGeneralHash",
      "outputs": [
        {
          "internalType": "string",
          "name": "",
          "type": "string"
        }
      ],
      "stateMutability": "view",
      "type": "function"
    },
    {
      "inputs": [
        {
          "internalType": "address",
          "name": "_address",
          "type": "address"
        }
      ],
      "name": "getPtRecordHash",
      "outputs": [
        {
          "internalType": "string",
          "name": "",
          "type": "string"
        }
      ],
      "stateMutability": "view",
      "type": "function"
    },
    {
      "inputs": [],
      "name": "getPtsOfDr",
      "outputs": [
        {
          "internalType": "address[]",
          "name": "",
          "type": "address[]"
        }
      ],
      "stateMutability": "view",
      "type": "function"
    },
    {
      "inputs": [
        {
          "internalType": "address",
          "name": "_address",
          "type": "address"
        }
      ],
      "name": "grantViewerAccess",
      "outputs": [],
      "stateMutability": "nonpayable",
      "type": "function"
    },
    {
      "inputs": [],
      "name": "initialize",
      "outputs": [],
      "stateMutability": "nonpayable",
      "type": "function"
    },
    {
      "inputs": [
        {
          "internalType": "address",
          "name": "_address",
          "type": "address"
        }
      ],
      "name": "isAdmin",
      "outputs": [
        {
          "internalType": "bool",
          "name": "",
          "type": "bool"
        }
      ],
      "stateMutability": "view",
      "type": "function"
    },
    {
      "inputs": [
        {
          "internalType": "address",
          "name": "_address",
          "type": "address"
        }
      ],
      "name": "isDoctor",
      "outputs": [
        {
          "internalType": "bool",
          "name": "",
          "type": "bool"
        }
      ],
      "stateMutability": "view",
      "type": "function"
    },
    {
      "inputs": [
        {
          "internalType": "address",
          "name": "_address",
          "type": "address"
        }
      ],
      "name": "isDrPending",
      "outputs": [
        {
          "internalType": "bool",
          "name": "",
          "type": "bool"
        }
      ],
      "stateMutability": "view",
      "type": "function"
    },
    {
      "inputs": [
        {
          "internalType": "address",
          "name": "_address",
          "type": "address"
        }
      ],
      "name": "isDrRegistered",
      "outputs": [
        {
          "internalType": "bool",
          "name": "",
          "type": "bool"
        }
      ],
      "stateMutability": "view",
      "type": "function"
    },
    {
      "inputs": [
        {
          "internalType": "address",
          "name": "_address",
          "type": "address"
        }
      ],
      "name": "isPatient",
      "outputs": [
        {
          "internalType": "bool",
          "name": "",
          "type": "bool"
        }
      ],
      "stateMutability": "view",
      "type": "function"
    },
    {
      "inputs": [
        {
          "internalType": "address",
          "name": "forwarder",
          "type": "address"
        }
      ],
      "name": "isTrustedForwarder",
      "outputs": [
        {
          "internalType": "bool",
          "name": "",
          "type": "bool"
        }
      ],
      "stateMutability": "view",
      "type": "function"
    },
    {
      "inputs": [
        {
          "internalType": "string",
          "name": "_hash",
          "type": "string"
        }
      ],
      "name": "registerDr",
      "outputs": [],
      "stateMutability": "nonpayable",
      "type": "function"
    },
    {
      "inputs": [
        {
          "internalType": "string",
          "name": "_public_key",
          "type": "string"
        }
      ],
      "name": "registerDrConfirm",
      "outputs": [],
      "stateMutability": "nonpayable",
      "type": "function"
    },
    {
      "inputs": [
        {
          "internalType": "string",
          "name": "_hash",
          "type": "string"
        },
        {
          "internalType": "string",
          "name": "_key_data_hash",
          "type": "string"
        }
      ],
      "name": "registerPt",
      "outputs": [],
      "stateMutability": "nonpayable",
      "type": "function"
    },
    {
      "inputs": [
        {
          "internalType": "string",
          "name": "_general_hash",
          "type": "string"
        },
        {
          "internalType": "string",
          "name": "_key_hash",
          "type": "string"
        }
      ],
      "name": "removeEditorAccess",
      "outputs": [],
      "stateMutability": "nonpayable",
      "type": "function"
    },
    {
      "inputs": [
        {
          "internalType": "address",
          "name": "_address",
          "type": "address"
        }
      ],
      "name": "revokeViewerAccess",
      "outputs": [],
      "stateMutability": "nonpayable",
      "type": "function"
    },
    {
      "inputs": [
        {
          "internalType": "string",
          "name": "_public_key",
          "type": "string"
        }
      ],
      "name": "setAdminPubKey",
      "outputs": [],
      "stateMutability": "nonpayable",
      "type": "function"
    },
    {
      "inputs": [
        {
          "internalType": "string",
          "name": "_hash",
          "type": "string"
        }
      ],
      "name": "setDrHash",
      "outputs": [],
      "stateMutability": "nonpayable",
      "type": "function"
    },
    {
      "inputs": [
        {
          "internalType": "address",
          "name": "_address",
          "type": "address"
        },
        {
          "internalType": "string",
          "name": "_generalHash",
          "type": "string"
        },
        {
          "internalType": "string",
          "name": "_recordHash",
          "type": "string"
        }
      ],
      "name": "setPtBothHash",
      "outputs": [],
      "stateMutability": "nonpayable",
      "type": "function"
    },
    {
      "inputs": [
        {
          "internalType": "string",
          "name": "_hash",
          "type": "string"
        }
      ],
      "name": "setPtGeneralHash",
      "outputs": [],
      "stateMutability": "nonpayable",
      "type": "function"
    },
    {
      "inputs": [
        {
          "internalType": "address",
          "name": "_address",
          "type": "address"
        },
        {
          "internalType": "string",
          "name": "_hash",
          "type": "string"
        }
      ],
      "name": "setPtRecordHash",
      "outputs": [],
      "stateMutability": "nonpayable",
      "type": "function"
    }
  ],
  "transactionHash": "0xa2da7dcd3f16ee0825af6f11dc1e0f28caa339431a0ba6ea19d1c4bf1a8e946a",
  "args": [
    "0x1120604bE3d82F0c715A1de2e971190C16bb0518"
  ],
  "numDeployments": 2,
  "solcInputHash": "78e71ea176752ef7066cafcf32a490e9",
  "bytecode": "0x60a06040523480156200001157600080fd5b5060405162004bf738038062004bf78339818101604052810190620000379190620000f2565b808073ffffffffffffffffffffffffffffffffffffffff1660808173ffffffffffffffffffffffffffffffffffffffff1681525050505062000124565b600080fd5b600073ffffffffffffffffffffffffffffffffffffffff82169050919050565b6000620000a68262000079565b9050919050565b6000620000ba8262000099565b9050919050565b620000cc81620000ad565b8114620000d857600080fd5b50565b600081519050620000ec81620000c1565b92915050565b6000602082840312156200010b576200010a62000074565b5b60006200011b84828501620000db565b91505092915050565b608051614ab76200014060003960006111f90152614ab76000f3fe608060405234801561001057600080fd5b50600436106102115760003560e01c80638129fc1c11610125578063b1e758a4116100ad578063d0d9a5e31161007c578063d0d9a5e3146105e8578063d3cd4df414610606578063dc823aaf14610622578063e2877b4e14610652578063f7a03a1e1461067057610211565b8063b1e758a414610564578063c70597ad14610580578063cce9d43e1461059c578063ccfaed16146105cc57610211565b8063996440c6116100f4578063996440c6146104c257806399eedd2a146104f2578063a03de49e1461050e578063a53f514d1461052a578063afb97e3d1461054857610211565b80638129fc1c1461044e57806388c432e1146104585780638f7f43a9146104745780638f9c79ed1461049257610211565b806332991838116101a85780635b0a7aad116101775780635b0a7aad146103be5780636d4bce20146103da5780636e9960c31461040a578063745ada641461042857806377a5c9881461044457610211565b806332991838146103125780633d8198b41461032e5780634df0a2d41461035e578063572b6c051461038e57610211565b806321639f04116101e457806321639f041461028a57806324d7806c146102a8578063290c61b0146102d857806330d97c0d1461030857610211565b80630de9999114610216578063116461e91461023257806312ad660f146102505780631da3e2dc1461026c575b600080fd5b610230600480360381019061022b9190613b54565b61068c565b005b61023a610759565b6040516102479190613c11565b60405180910390f35b61026a60048036038101906102659190613d68565b6107ee565b005b6102746108be565b6040516102819190613eb1565b60405180910390f35b6102926108d2565b60405161029f9190613ee2565b60405180910390f35b6102c260048036038101906102bd9190613b54565b61098c565b6040516102cf9190613f18565b60405180910390f35b6102f260048036038101906102ed9190613b54565b6109f9565b6040516102ff9190613f18565b60405180910390f35b610310610a19565b005b61032c60048036038101906103279190613f33565b610abd565b005b61034860048036038101906103439190613b54565b610c2c565b6040516103559190613c11565b60405180910390f35b61037860048036038101906103739190613b54565b610f6c565b6040516103859190613c11565b60405180910390f35b6103a860048036038101906103a39190613b54565b6111f5565b6040516103b59190613f18565b60405180910390f35b6103d860048036038101906103d39190613f7c565b61124d565b005b6103f460048036038101906103ef9190613b54565b6114d1565b6040516104019190613f18565b60405180910390f35b6104126114f1565b60405161041f9190613ee2565b60405180910390f35b610442600480360381019061043d9190613b54565b61151e565b005b61044c611620565b005b610456611739565b005b610472600480360381019061046d9190613f33565b6117f1565b005b61047c6118a4565b6040516104899190613eb1565b60405180910390f35b6104ac60048036038101906104a79190613b54565b6119c2565b6040516104b99190613f18565b60405180910390f35b6104dc60048036038101906104d79190613b54565b6119e2565b6040516104e99190613f18565b60405180910390f35b61050c60048036038101906105079190613f33565b611a96565b005b61052860048036038101906105239190613f7c565b611c7f565b005b610532611ed4565b60405161053f9190613eb1565b60405180910390f35b610562600480360381019061055d9190613f33565b611ee8565b005b61057e60048036038101906105799190613b54565b611f44565b005b61059a60048036038101906105959190613ff4565b612161565b005b6105b660048036038101906105b19190613b54565b612332565b6040516105c39190613c11565b60405180910390f35b6105e660048036038101906105e19190613f33565b612391565b005b6105f0612528565b6040516105fd9190613eb1565b60405180910390f35b610620600480360381019061061b9190613d68565b612738565b005b61063c60048036038101906106379190613b54565b612913565b6040516106499190613c11565b60405180910390f35b61065a6129e7565b6040516106679190613eb1565b60405180910390f35b61068a60048036038101906106859190613b54565b612a7b565b005b61069c610697612b62565b61098c565b6106d2576040517f4d371dc700000000000000000000000000000000000000000000000000000000815260040160405180910390fd5b6106db816119e2565b610756576106f681606a600001612b9490919063ffffffff16565b1561075657610712816065600201612c2790919063ffffffff16565b8073ffffffffffffffffffffffffffffffffffffffff167fcc36c734faf3e8e1867fdfc3adcdcab90ac2d8e24d1a4e6a06f4212045a4e75e60405160405180910390a25b50565b60606065600101805461076b9061407f565b80601f01602080910402602001604051908101604052809291908181526020018280546107979061407f565b80156107e45780601f106107b9576101008083540402835291602001916107e4565b820191906000526020600020905b8154815290600101906020018083116107c757829003601f168201915b5050505050905090565b600082511461080157610800826117f1565b5b6000815114610815576108148382612161565b5b8273ffffffffffffffffffffffffffffffffffffffff167f761ac9ea6e18b18cdd3a3714e9ac70aa66e7d1d23a452407770c07a9185b14c560405160405180910390a2610860612b62565b73ffffffffffffffffffffffffffffffffffffffff168373ffffffffffffffffffffffffffffffffffffffff167f4639ebd09dc70ce58aa60012fc9d4c5b060a92d2956bb3028238b2b6cdbe283e60405160405180910390a3505050565b60606108cd606a600001612eaa565b905090565b60006108e46108df612b62565b6119c2565b61091a576040517fc11330e600000000000000000000000000000000000000000000000000000000815260040160405180910390fd5b60706004016000610929612b62565b73ffffffffffffffffffffffffffffffffffffffff1673ffffffffffffffffffffffffffffffffffffffff16815260200190815260200160002060000160009054906101000a900473ffffffffffffffffffffffffffffffffffffffff16905090565b60008173ffffffffffffffffffffffffffffffffffffffff16606560000160009054906101000a900473ffffffffffffffffffffffffffffffffffffffff1673ffffffffffffffffffffffffffffffffffffffff16036109ef57600190506109f4565b600090505b919050565b6000610a1282606a600001612b9490919063ffffffff16565b9050919050565b610a29610a24612b62565b61098c565b15610a69576040517f08c379a0000000000000000000000000000000000000000000000000000000008152600401610a6090614122565b60405180910390fd5b610a79610a74612b62565b6109f9565b15610abb57610a9c610a89612b62565b606a600001612f3f90919063ffffffff16565b610aba610aa7612b62565b6065600201612c2790919063ffffffff16565b5b565b610acd610ac8612b62565b61098c565b15610b0d576040517f08c379a0000000000000000000000000000000000000000000000000000000008152600401610b0490614122565b60405180910390fd5b610b1d610b18612b62565b6119c2565b15610b5d576040517f08c379a0000000000000000000000000000000000000000000000000000000008152600401610b54906141b4565b60405180910390fd5b6000815103610ba1576040517f08c379a0000000000000000000000000000000000000000000000000000000008152600401610b9890614246565b60405180910390fd5b610bc1610bac612b62565b82606a600001612fa29092919063ffffffff16565b610bdf610bcc612b62565b606560020161300990919063ffffffff16565b610be7612b62565b73ffffffffffffffffffffffffffffffffffffffff167fdc1a017eaaa583cd9a9dbdf0d570cc5f2a31af0d845ab933a9ac1e85b44fabdc60405160405180910390a250565b6060610c37826119c2565b610c6d576040517fc11330e600000000000000000000000000000000000000000000000000000000815260040160405180910390fd5b8173ffffffffffffffffffffffffffffffffffffffff16610c8c612b62565b73ffffffffffffffffffffffffffffffffffffffff161480610d455750610cb1612b62565b73ffffffffffffffffffffffffffffffffffffffff16607060040160008473ffffffffffffffffffffffffffffffffffffffff1673ffffffffffffffffffffffffffffffffffffffff16815260200190815260200160002060000160009054906101000a900473ffffffffffffffffffffffffffffffffffffffff1673ffffffffffffffffffffffffffffffffffffffff16145b80610e5257507fffffffffffffffffffffffffffffffffffffffffffffffffffffffffffffffff610e4f610d77612b62565b607060040160008673ffffffffffffffffffffffffffffffffffffffff1673ffffffffffffffffffffffffffffffffffffffff168152602001908152602001600020600101805480602002602001604051908101604052809291908181526020018280548015610e3c57602002820191906000526020600020905b8160009054906101000a900473ffffffffffffffffffffffffffffffffffffffff1673ffffffffffffffffffffffffffffffffffffffff1681526020019060010190808311610df2575b505050505061316d90919063ffffffff16565b14155b15610f2c57607060040160008373ffffffffffffffffffffffffffffffffffffffff1673ffffffffffffffffffffffffffffffffffffffff1681526020019081526020016000206002018054610ea79061407f565b80601f0160208091040260200160405190810160405280929190818152602001828054610ed39061407f565b8015610f205780601f10610ef557610100808354040283529160200191610f20565b820191906000526020600020905b815481529060010190602001808311610f0357829003601f168201915b50505050509050610f67565b6040517f08c379a0000000000000000000000000000000000000000000000000000000008152600401610f5e906142b2565b60405180910390fd5b919050565b6060610f77826119c2565b610fad576040517fc11330e600000000000000000000000000000000000000000000000000000000815260040160405180910390fd5b8173ffffffffffffffffffffffffffffffffffffffff16610fcc612b62565b73ffffffffffffffffffffffffffffffffffffffff1614806110855750610ff1612b62565b73ffffffffffffffffffffffffffffffffffffffff16607060040160008473ffffffffffffffffffffffffffffffffffffffff1673ffffffffffffffffffffffffffffffffffffffff16815260200190815260200160002060000160009054906101000a900473ffffffffffffffffffffffffffffffffffffffff1673ffffffffffffffffffffffffffffffffffffffff16145b8061119257507fffffffffffffffffffffffffffffffffffffffffffffffffffffffffffffffff61118f6110b7612b62565b607060040160008673ffffffffffffffffffffffffffffffffffffffff1673ffffffffffffffffffffffffffffffffffffffff16815260200190815260200160002060010180548060200260200160405190810160405280929190818152602001828054801561117c57602002820191906000526020600020905b8160009054906101000a900473ffffffffffffffffffffffffffffffffffffffff1673ffffffffffffffffffffffffffffffffffffffff1681526020019060010190808311611132575b505050505061316d90919063ffffffff16565b14155b156111b5576111ae82607060000161321290919063ffffffff16565b90506111f0565b6040517f08c379a00000000000000000000000000000000000000000000000000000000081526004016111e7906142b2565b60405180910390fd5b919050565b60007f000000000000000000000000000000000000000000000000000000000000000073ffffffffffffffffffffffffffffffffffffffff168273ffffffffffffffffffffffffffffffffffffffff16149050919050565b61125d611258612b62565b6119c2565b611293576040517fc11330e600000000000000000000000000000000000000000000000000000000815260040160405180910390fd5b6000607060040160006112a4612b62565b73ffffffffffffffffffffffffffffffffffffffff1673ffffffffffffffffffffffffffffffffffffffff16815260200190815260200160002060000160009054906101000a900473ffffffffffffffffffffffffffffffffffffffff16905061130c612b62565b6070600401600061131b612b62565b73ffffffffffffffffffffffffffffffffffffffff1673ffffffffffffffffffffffffffffffffffffffff16815260200190815260200160002060000160006101000a81548173ffffffffffffffffffffffffffffffffffffffff021916908373ffffffffffffffffffffffffffffffffffffffff1602179055506113f16113a1612b62565b606a60050160008473ffffffffffffffffffffffffffffffffffffffff1673ffffffffffffffffffffffffffffffffffffffff168152602001908152602001600020612c2790919063ffffffff16565b6114116113fc612b62565b8460706000016132329092919063ffffffff16565b8160706004016000611421612b62565b73ffffffffffffffffffffffffffffffffffffffff1673ffffffffffffffffffffffffffffffffffffffff168152602001908152602001600020600201908161146a9190614488565b508073ffffffffffffffffffffffffffffffffffffffff1661148a612b62565b73ffffffffffffffffffffffffffffffffffffffff167ff16ef4b7b555540b0c4e62e7dcb98191a0423d45dcafbbc8427da7482341ec3360405160405180910390a3505050565b60006114ea82606560020161324f90919063ffffffff16565b9050919050565b6000606560000160009054906101000a900473ffffffffffffffffffffffffffffffffffffffff16905090565b61152e611529612b62565b61098c565b611564576040517f4d371dc700000000000000000000000000000000000000000000000000000000815260040160405180910390fd5b61156d816114d1565b6115ac576040517f08c379a00000000000000000000000000000000000000000000000000000000081526004016115a3906145a6565b60405180910390fd5b6115c381606a600001612f3f90919063ffffffff16565b6115da816065600201612c2790919063ffffffff16565b8073ffffffffffffffffffffffffffffffffffffffff167f6076307a6e243fae4d646a3225cc57b9e8b008e6e370ad60ec665a1f118b821460405160405180910390a250565b61163061162b612b62565b61098c565b15611670576040517f08c379a000000000000000000000000000000000000000000000000000000000815260040161166790614122565b60405180910390fd5b61168061167b612b62565b6119c2565b15611737576116a3611690612b62565b6070600001612f3f90919063ffffffff16565b607060040160006116b2612b62565b73ffffffffffffffffffffffffffffffffffffffff1673ffffffffffffffffffffffffffffffffffffffff168152602001908152602001600020600080820160006101000a81549073ffffffffffffffffffffffffffffffffffffffff02191690556001820160006117249190613a64565b6002820160006117349190613a85565b50505b565b607560009054906101000a900460ff1615611789576040517f08c379a000000000000000000000000000000000000000000000000000000000815260040161178090614612565b60405180910390fd5b611791612b62565b606560000160006101000a81548173ffffffffffffffffffffffffffffffffffffffff021916908373ffffffffffffffffffffffffffffffffffffffff1602179055506001607560006101000a81548160ff021916908315150217905550565b6118016117fc612b62565b6119c2565b611837576040517fc11330e600000000000000000000000000000000000000000000000000000000815260040160405180910390fd5b611857611842612b62565b8260706000016132329092919063ffffffff16565b61185f612b62565b73ffffffffffffffffffffffffffffffffffffffff167f761ac9ea6e18b18cdd3a3714e9ac70aa66e7d1d23a452407770c07a9185b14c560405160405180910390a250565b60606118b66118b1612b62565b6119c2565b6118ec576040517fc11330e600000000000000000000000000000000000000000000000000000000815260040160405180910390fd5b607060040160006118fb612b62565b73ffffffffffffffffffffffffffffffffffffffff1673ffffffffffffffffffffffffffffffffffffffff1681526020019081526020016000206001018054806020026020016040519081016040528092919081815260200182805480156119b857602002820191906000526020600020905b8160009054906101000a900473ffffffffffffffffffffffffffffffffffffffff1673ffffffffffffffffffffffffffffffffffffffff168152602001906001019080831161196e575b5050505050905090565b60006119db826070600001612b9490919063ffffffff16565b9050919050565b60006119fb82606a600001612b9490919063ffffffff16565b611a085760009050611a91565b611a1f82606560020161324f90919063ffffffff16565b15611a2d5760009050611a91565b6000606a60040160008473ffffffffffffffffffffffffffffffffffffffff1673ffffffffffffffffffffffffffffffffffffffff1681526020019081526020016000208054611a7c9061407f565b905003611a8c5760009050611a91565b600190505b919050565b611ab4611aa1612b62565b606a600001612b9490919063ffffffff16565b611aea576040517ffe2fc9c600000000000000000000000000000000000000000000000000000000815260040160405180910390fd5b611b08611af5612b62565b606560020161324f90919063ffffffff16565b15611b3f576040517ff873d3b700000000000000000000000000000000000000000000000000000000815260040160405180910390fd5b6000606a6004016000611b50612b62565b73ffffffffffffffffffffffffffffffffffffffff1673ffffffffffffffffffffffffffffffffffffffff1681526020019081526020016000208054611b959061407f565b905003611bce576040517fa30132d500000000000000000000000000000000000000000000000000000000815260040160405180910390fd5b6000815103611c12576040517f08c379a0000000000000000000000000000000000000000000000000000000008152600401611c09906146a4565b60405180910390fd5b611c32611c1d612b62565b82606a6000016132329092919063ffffffff16565b611c3a612b62565b73ffffffffffffffffffffffffffffffffffffffff167f9b1ff2c5c0b9625245e5c023b81bfd70f68c959adb2ef11c90bad77ed1eae3ec60405160405180910390a250565b611c8f611c8a612b62565b61098c565b15611ccf576040517f08c379a0000000000000000000000000000000000000000000000000000000008152600401611cc690614122565b60405180910390fd5b611cdf611cda612b62565b6109f9565b80611cf65750611cf5611cf0612b62565b6119e2565b5b15611d36576040517f08c379a0000000000000000000000000000000000000000000000000000000008152600401611d2d90614736565b60405180910390fd5b6000825103611d7a576040517f08c379a0000000000000000000000000000000000000000000000000000000008152600401611d7190614246565b60405180910390fd5b611d9a611d85612b62565b836070600001612fa29092919063ffffffff16565b611da2612b62565b60706004016000611db1612b62565b73ffffffffffffffffffffffffffffffffffffffff1673ffffffffffffffffffffffffffffffffffffffff16815260200190815260200160002060000160006101000a81548173ffffffffffffffffffffffffffffffffffffffff021916908373ffffffffffffffffffffffffffffffffffffffff1602179055508060706004016000611e3c612b62565b73ffffffffffffffffffffffffffffffffffffffff1673ffffffffffffffffffffffffffffffffffffffff1681526020019081526020016000206002019081611e859190614488565b50611e8e612b62565b73ffffffffffffffffffffffffffffffffffffffff167f5e4c57283e6661a15bd50f709358b454ee373c0009cf6e48c70ec7618232cff760405160405180910390a25050565b6060611ee36070600001612eaa565b905090565b611ef8611ef3612b62565b61098c565b611f2e576040517f4d371dc700000000000000000000000000000000000000000000000000000000815260040160405180910390fd5b8060656001019081611f409190614488565b5050565b611f54611f4f612b62565b6119c2565b611f8a576040517fc11330e600000000000000000000000000000000000000000000000000000000815260040160405180910390fd5b611f93816119e2565b611fc9576040517ffe2fc9c600000000000000000000000000000000000000000000000000000000815260040160405180910390fd5b6120ac8160706004016000611fdc612b62565b73ffffffffffffffffffffffffffffffffffffffff1673ffffffffffffffffffffffffffffffffffffffff16815260200190815260200160002060010180548060200260200160405190810160405280929190818152602001828054801561209957602002820191906000526020600020905b8160009054906101000a900473ffffffffffffffffffffffffffffffffffffffff1673ffffffffffffffffffffffffffffffffffffffff168152602001906001019080831161204f575b50505050506132a890919063ffffffff16565b61215e57607060040160006120bf612b62565b73ffffffffffffffffffffffffffffffffffffffff1673ffffffffffffffffffffffffffffffffffffffff168152602001908152602001600020600101819080600181540180825580915050600190039060005260206000200160009091909190916101000a81548173ffffffffffffffffffffffffffffffffffffffff021916908373ffffffffffffffffffffffffffffffffffffffff1602179055505b50565b61216a826119c2565b6121a0576040517fc11330e600000000000000000000000000000000000000000000000000000000815260040160405180910390fd5b6121a8612b62565b73ffffffffffffffffffffffffffffffffffffffff16607060040160008473ffffffffffffffffffffffffffffffffffffffff1673ffffffffffffffffffffffffffffffffffffffff16815260200190815260200160002060000160009054906101000a900473ffffffffffffffffffffffffffffffffffffffff1673ffffffffffffffffffffffffffffffffffffffff161461227a576040517f08c379a0000000000000000000000000000000000000000000000000000000008152600401612271906142b2565b60405180910390fd5b80607060040160008473ffffffffffffffffffffffffffffffffffffffff1673ffffffffffffffffffffffffffffffffffffffff16815260200190815260200160002060020190816122cc9190614488565b506122d5612b62565b73ffffffffffffffffffffffffffffffffffffffff168273ffffffffffffffffffffffffffffffffffffffff167f4639ebd09dc70ce58aa60012fc9d4c5b060a92d2956bb3028238b2b6cdbe283e60405160405180910390a35050565b606061233d826109f9565b612373576040517ffe2fc9c600000000000000000000000000000000000000000000000000000000815260040160405180910390fd5b61238a82606a60000161321290919063ffffffff16565b9050919050565b6123a161239c612b62565b61098c565b156123e1576040517f08c379a00000000000000000000000000000000000000000000000000000000081526004016123d890614122565b60405180910390fd5b6000815103612425576040517f08c379a000000000000000000000000000000000000000000000000000000000815260040161241c906147c8565b60405180910390fd5b612443612430612b62565b606a600001612b9490919063ffffffff16565b612479576040517ffe2fc9c600000000000000000000000000000000000000000000000000000000815260040160405180910390fd5b612497612484612b62565b606560020161324f90919063ffffffff16565b156124ce576040517ff873d3b700000000000000000000000000000000000000000000000000000000815260040160405180910390fd5b80606a60040160006124de612b62565b73ffffffffffffffffffffffffffffffffffffffff1673ffffffffffffffffffffffffffffffffffffffff16815260200190815260200160002090816125249190614488565b5050565b6060612548612535612b62565b606a600001612b9490919063ffffffff16565b61257e576040517ffe2fc9c600000000000000000000000000000000000000000000000000000000815260040160405180910390fd5b61259c612589612b62565b606560020161324f90919063ffffffff16565b156125d3576040517ff873d3b700000000000000000000000000000000000000000000000000000000815260040160405180910390fd5b6000606a60040160006125e4612b62565b73ffffffffffffffffffffffffffffffffffffffff1673ffffffffffffffffffffffffffffffffffffffff16815260200190815260200160002080546126299061407f565b905003612662576040517fa30132d500000000000000000000000000000000000000000000000000000000815260040160405180910390fd5b606a6005016000612671612b62565b73ffffffffffffffffffffffffffffffffffffffff1673ffffffffffffffffffffffffffffffffffffffff16815260200190815260200160002060000180548060200260200160405190810160405280929190818152602001828054801561272e57602002820191906000526020600020905b8160009054906101000a900473ffffffffffffffffffffffffffffffffffffffff1673ffffffffffffffffffffffffffffffffffffffff16815260200190600101908083116126e4575b5050505050905090565b612748612743612b62565b6119c2565b61277e576040517fc11330e600000000000000000000000000000000000000000000000000000000815260040160405180910390fd5b612787836119e2565b6127bd576040517ffe2fc9c600000000000000000000000000000000000000000000000000000000815260040160405180910390fd5b6127c7828261124d565b82607060040160006127d7612b62565b73ffffffffffffffffffffffffffffffffffffffff1673ffffffffffffffffffffffffffffffffffffffff16815260200190815260200160002060000160006101000a81548173ffffffffffffffffffffffffffffffffffffffff021916908373ffffffffffffffffffffffffffffffffffffffff1602179055506128ad61285d612b62565b606a60050160008673ffffffffffffffffffffffffffffffffffffffff1673ffffffffffffffffffffffffffffffffffffffff16815260200190815260200160002061300990919063ffffffff16565b8273ffffffffffffffffffffffffffffffffffffffff166128cc612b62565b73ffffffffffffffffffffffffffffffffffffffff167f8530b5eee078e08cca1f31ac43d1de021d8bc88633de63211167c795bc8c92a960405160405180910390a3505050565b6060606a60040160008373ffffffffffffffffffffffffffffffffffffffff1673ffffffffffffffffffffffffffffffffffffffff16815260200190815260200160002080546129629061407f565b80601f016020809104026020016040519081016040528092919081815260200182805461298e9061407f565b80156129db5780601f106129b0576101008083540402835291602001916129db565b820191906000526020600020905b8154815290600101906020018083116129be57829003601f168201915b50505050509050919050565b60606065600201600001805480602002602001604051908101604052809291908181526020018280548015612a7157602002820191906000526020600020905b8160009054906101000a900473ffffffffffffffffffffffffffffffffffffffff1673ffffffffffffffffffffffffffffffffffffffff1681526020019060010190808311612a27575b5050505050905090565b612a8b612a86612b62565b6119c2565b612ac1576040517fc11330e600000000000000000000000000000000000000000000000000000000815260040160405180910390fd5b612aca816119e2565b612b00576040517ffe2fc9c600000000000000000000000000000000000000000000000000000000815260040160405180910390fd5b612b5e8160706004016000612b13612b62565b73ffffffffffffffffffffffffffffffffffffffff1673ffffffffffffffffffffffffffffffffffffffff1681526020019081526020016000206001016132df90919063ffffffff16565b5050565b6000612b6d336111f5565b15612b8157601436033560601c9050612b90565b612b89613504565b9050612b91565b5b90565b60008073ffffffffffffffffffffffffffffffffffffffff168273ffffffffffffffffffffffffffffffffffffffff1603612c04576040517f08c379a0000000000000000000000000000000000000000000000000000000008152600401612bfb9061485a565b60405180910390fd5b6000612c1c838560000161350c90919063ffffffff16565b511415905092915050565b8160010160008273ffffffffffffffffffffffffffffffffffffffff1673ffffffffffffffffffffffffffffffffffffffff16815260200190815260200160002060009054906101000a900460ff1615612ea6578160010160008273ffffffffffffffffffffffffffffffffffffffff1673ffffffffffffffffffffffffffffffffffffffff16815260200190815260200160002060006101000a81549060ff021916905560008260020160008373ffffffffffffffffffffffffffffffffffffffff1673ffffffffffffffffffffffffffffffffffffffff168152602001908152602001600020549050600060018460000180549050612d2891906148a9565b90506000846000018281548110612d4257612d416148dd565b5b9060005260206000200160009054906101000a900473ffffffffffffffffffffffffffffffffffffffff169050828560020160008373ffffffffffffffffffffffffffffffffffffffff1673ffffffffffffffffffffffffffffffffffffffff168152602001908152602001600020819055508460020160008573ffffffffffffffffffffffffffffffffffffffff1673ffffffffffffffffffffffffffffffffffffffff1681526020019081526020016000206000905580856000018481548110612e1157612e106148dd565b5b9060005260206000200160006101000a81548173ffffffffffffffffffffffffffffffffffffffff021916908373ffffffffffffffffffffffffffffffffffffffff16021790555084600001805480612e6d57612e6c61490c565b5b6001900381819060005260206000200160006101000a81549073ffffffffffffffffffffffffffffffffffffffff021916905590555050505b5050565b606081600001600001805480602002602001604051908101604052809291908181526020018280548015612f3357602002820191906000526020600020905b8160009054906101000a900473ffffffffffffffffffffffffffffffffffffffff1673ffffffffffffffffffffffffffffffffffffffff1681526020019060010190808311612ee9575b50505050509050919050565b612f498282612b94565b612f88576040517f08c379a0000000000000000000000000000000000000000000000000000000008152600401612f7f906149ad565b60405180910390fd5b612f9e81836000016135e090919063ffffffff16565b5050565b612fac8383612b94565b15612fec576040517f08c379a0000000000000000000000000000000000000000000000000000000008152600401612fe390614a19565b60405180910390fd5b6130048282856000016138b09092919063ffffffff16565b505050565b8160010160008273ffffffffffffffffffffffffffffffffffffffff1673ffffffffffffffffffffffffffffffffffffffff16815260200190815260200160002060009054906101000a900460ff166131695760018260010160008373ffffffffffffffffffffffffffffffffffffffff1673ffffffffffffffffffffffffffffffffffffffff16815260200190815260200160002060006101000a81548160ff02191690831515021790555081600001805490508260020160008373ffffffffffffffffffffffffffffffffffffffff1673ffffffffffffffffffffffffffffffffffffffff1681526020019081526020016000208190555081600001819080600181540180825580915050600190039060005260206000200160009091909190916101000a81548173ffffffffffffffffffffffffffffffffffffffff021916908373ffffffffffffffffffffffffffffffffffffffff1602179055505b5050565b600080600090505b83518110156131e7578273ffffffffffffffffffffffffffffffffffffffff168482815181106131a8576131a76148dd565b5b602002602001015173ffffffffffffffffffffffffffffffffffffffff16036131d4578091505061320c565b80806131df90614a39565b915050613175565b507fffffffffffffffffffffffffffffffffffffffffffffffffffffffffffffffff90505b92915050565b606061322a828460000161350c90919063ffffffff16565b905092915050565b61324a8282856000016138b09092919063ffffffff16565b505050565b60008260010160008373ffffffffffffffffffffffffffffffffffffffff1673ffffffffffffffffffffffffffffffffffffffff16815260200190815260200160002060009054906101000a900460ff16905092915050565b60007fffffffffffffffffffffffffffffffffffffffffffffffffffffffffffffffff6132d5848461316d565b1415905092915050565b6000806133718480548060200260200160405190810160405280929190818152602001828054801561336657602002820191906000526020600020905b8160009054906101000a900473ffffffffffffffffffffffffffffffffffffffff1673ffffffffffffffffffffffffffffffffffffffff168152602001906001019080831161331c575b50505050508461316d565b90507fffffffffffffffffffffffffffffffffffffffffffffffffffffffffffffffff81036133a45760009150506134fe565b60008480548060200260200160405190810160405280929190818152602001828054801561342757602002820191906000526020600020905b8160009054906101000a900473ffffffffffffffffffffffffffffffffffffffff1673ffffffffffffffffffffffffffffffffffffffff16815260200190600101908083116133dd575b50505050509050806001825161343d91906148a9565b8151811061344e5761344d6148dd565b5b6020026020010151858381548110613469576134686148dd565b5b9060005260206000200160006101000a81548173ffffffffffffffffffffffffffffffffffffffff021916908373ffffffffffffffffffffffffffffffffffffffff160217905550848054806134c2576134c161490c565b5b6001900381819060005260206000200160006101000a81549073ffffffffffffffffffffffffffffffffffffffff021916905590556001925050505b92915050565b600033905090565b60608260010160008373ffffffffffffffffffffffffffffffffffffffff1673ffffffffffffffffffffffffffffffffffffffff168152602001908152602001600020805461355a9061407f565b80601f01602080910402602001604051908101604052809291908181526020018280546135869061407f565b80156135d35780601f106135a8576101008083540402835291602001916135d3565b820191906000526020600020905b8154815290600101906020018083116135b657829003601f168201915b5050505050905092915050565b8160030160008273ffffffffffffffffffffffffffffffffffffffff1673ffffffffffffffffffffffffffffffffffffffff16815260200190815260200160002060009054906101000a900460ff16156138ac578160010160008273ffffffffffffffffffffffffffffffffffffffff1673ffffffffffffffffffffffffffffffffffffffff16815260200190815260200160002060006136819190613a85565b8160030160008273ffffffffffffffffffffffffffffffffffffffff1673ffffffffffffffffffffffffffffffffffffffff16815260200190815260200160002060006101000a81549060ff021916905560008260020160008373ffffffffffffffffffffffffffffffffffffffff1673ffffffffffffffffffffffffffffffffffffffff16815260200190815260200160002054905060006001846000018054905061372e91906148a9565b90506000846000018281548110613748576137476148dd565b5b9060005260206000200160009054906101000a900473ffffffffffffffffffffffffffffffffffffffff169050828560020160008373ffffffffffffffffffffffffffffffffffffffff1673ffffffffffffffffffffffffffffffffffffffff168152602001908152602001600020819055508460020160008573ffffffffffffffffffffffffffffffffffffffff1673ffffffffffffffffffffffffffffffffffffffff1681526020019081526020016000206000905580856000018481548110613817576138166148dd565b5b9060005260206000200160006101000a81548173ffffffffffffffffffffffffffffffffffffffff021916908373ffffffffffffffffffffffffffffffffffffffff160217905550846000018054806138735761387261490c565b5b6001900381819060005260206000200160006101000a81549073ffffffffffffffffffffffffffffffffffffffff021916905590555050505b5050565b8260030160008373ffffffffffffffffffffffffffffffffffffffff1673ffffffffffffffffffffffffffffffffffffffff16815260200190815260200160002060009054906101000a900460ff16613a105782600001805490508360020160008473ffffffffffffffffffffffffffffffffffffffff1673ffffffffffffffffffffffffffffffffffffffff1681526020019081526020016000208190555060018360030160008473ffffffffffffffffffffffffffffffffffffffff1673ffffffffffffffffffffffffffffffffffffffff16815260200190815260200160002060006101000a81548160ff02191690831515021790555082600001829080600181540180825580915050600190039060005260206000200160009091909190916101000a81548173ffffffffffffffffffffffffffffffffffffffff021916908373ffffffffffffffffffffffffffffffffffffffff1602179055505b808360010160008473ffffffffffffffffffffffffffffffffffffffff1673ffffffffffffffffffffffffffffffffffffffff1681526020019081526020016000209081613a5e9190614488565b50505050565b5080546000825590600052602060002090810190613a829190613ac5565b50565b508054613a919061407f565b6000825580601f10613aa35750613ac2565b601f016020900490600052602060002090810190613ac19190613ac5565b5b50565b5b80821115613ade576000816000905550600101613ac6565b5090565b6000604051905090565b600080fd5b600080fd5b600073ffffffffffffffffffffffffffffffffffffffff82169050919050565b6000613b2182613af6565b9050919050565b613b3181613b16565b8114613b3c57600080fd5b50565b600081359050613b4e81613b28565b92915050565b600060208284031215613b6a57613b69613aec565b5b6000613b7884828501613b3f565b91505092915050565b600081519050919050565b600082825260208201905092915050565b60005b83811015613bbb578082015181840152602081019050613ba0565b60008484015250505050565b6000601f19601f8301169050919050565b6000613be382613b81565b613bed8185613b8c565b9350613bfd818560208601613b9d565b613c0681613bc7565b840191505092915050565b60006020820190508181036000830152613c2b8184613bd8565b905092915050565b600080fd5b600080fd5b7f4e487b7100000000000000000000000000000000000000000000000000000000600052604160045260246000fd5b613c7582613bc7565b810181811067ffffffffffffffff82111715613c9457613c93613c3d565b5b80604052505050565b6000613ca7613ae2565b9050613cb38282613c6c565b919050565b600067ffffffffffffffff821115613cd357613cd2613c3d565b5b613cdc82613bc7565b9050602081019050919050565b82818337600083830152505050565b6000613d0b613d0684613cb8565b613c9d565b905082815260208101848484011115613d2757613d26613c38565b5b613d32848285613ce9565b509392505050565b600082601f830112613d4f57613d4e613c33565b5b8135613d5f848260208601613cf8565b91505092915050565b600080600060608486031215613d8157613d80613aec565b5b6000613d8f86828701613b3f565b935050602084013567ffffffffffffffff811115613db057613daf613af1565b5b613dbc86828701613d3a565b925050604084013567ffffffffffffffff811115613ddd57613ddc613af1565b5b613de986828701613d3a565b9150509250925092565b600081519050919050565b600082825260208201905092915050565b6000819050602082019050919050565b613e2881613b16565b82525050565b6000613e3a8383613e1f565b60208301905092915050565b6000602082019050919050565b6000613e5e82613df3565b613e688185613dfe565b9350613e7383613e0f565b8060005b83811015613ea4578151613e8b8882613e2e565b9750613e9683613e46565b925050600181019050613e77565b5085935050505092915050565b60006020820190508181036000830152613ecb8184613e53565b905092915050565b613edc81613b16565b82525050565b6000602082019050613ef76000830184613ed3565b92915050565b60008115159050919050565b613f1281613efd565b82525050565b6000602082019050613f2d6000830184613f09565b92915050565b600060208284031215613f4957613f48613aec565b5b600082013567ffffffffffffffff811115613f6757613f66613af1565b5b613f7384828501613d3a565b91505092915050565b60008060408385031215613f9357613f92613aec565b5b600083013567ffffffffffffffff811115613fb157613fb0613af1565b5b613fbd85828601613d3a565b925050602083013567ffffffffffffffff811115613fde57613fdd613af1565b5b613fea85828601613d3a565b9150509250929050565b6000806040838503121561400b5761400a613aec565b5b600061401985828601613b3f565b925050602083013567ffffffffffffffff81111561403a57614039613af1565b5b61404685828601613d3a565b9150509250929050565b7f4e487b7100000000000000000000000000000000000000000000000000000000600052602260045260246000fd5b6000600282049050600182168061409757607f821691505b6020821081036140aa576140a9614050565b5b50919050565b7f436f6e74726163743a2041646d696e2063616e6e6f742072656769737465722060008201527f666f72206f7468657220726f6c65730000000000000000000000000000000000602082015250565b600061410c602f83613b8c565b9150614117826140b0565b604082019050919050565b6000602082019050818103600083015261413b816140ff565b9050919050565b7f436f6e74726163743a204164647265737320616c72656164792072656769737460008201527f657265642061732070617469656e740000000000000000000000000000000000602082015250565b600061419e602f83613b8c565b91506141a982614142565b604082019050919050565b600060208201905081810360008301526141cd81614191565b9050919050565b7f436f6e74726163743a20456d7074792068617368206973206e6f7420616c6c6f60008201527f7765640000000000000000000000000000000000000000000000000000000000602082015250565b6000614230602383613b8c565b915061423b826141d4565b604082019050919050565b6000602082019050818103600083015261425f81614223565b9050919050565b7f4e6f7420416c6c6f776564000000000000000000000000000000000000000000600082015250565b600061429c600b83613b8c565b91506142a782614266565b602082019050919050565b600060208201905081810360008301526142cb8161428f565b9050919050565b60008190508160005260206000209050919050565b60006020601f8301049050919050565b600082821b905092915050565b6000600883026143347fffffffffffffffffffffffffffffffffffffffffffffffffffffffffffffffff826142f7565b61433e86836142f7565b95508019841693508086168417925050509392505050565b6000819050919050565b6000819050919050565b600061438561438061437b84614356565b614360565b614356565b9050919050565b6000819050919050565b61439f8361436a565b6143b36143ab8261438c565b848454614304565b825550505050565b600090565b6143c86143bb565b6143d3818484614396565b505050565b5b818110156143f7576143ec6000826143c0565b6001810190506143d9565b5050565b601f82111561443c5761440d816142d2565b614416846142e7565b81016020851015614425578190505b614439614431856142e7565b8301826143d8565b50505b505050565b600082821c905092915050565b600061445f60001984600802614441565b1980831691505092915050565b6000614478838361444e565b9150826002028217905092915050565b61449182613b81565b67ffffffffffffffff8111156144aa576144a9613c3d565b5b6144b4825461407f565b6144bf8282856143fb565b600060209050601f8311600181146144f257600084156144e0578287015190505b6144ea858261446c565b865550614552565b601f198416614500866142d2565b60005b8281101561452857848901518255600182019150602085019450602081019050614503565b868310156145455784890151614541601f89168261444e565b8355505b6001600288020188555050505b505050505050565b7f436f6e74726163743a20446f63746f72206e6f74207265676973746572656400600082015250565b6000614590601f83613b8c565b915061459b8261455a565b602082019050919050565b600060208201905081810360008301526145bf81614583565b9050919050565b7f436f6e747261637420616c726561647920696e697469616c697a656421000000600082015250565b60006145fc601d83613b8c565b9150614607826145c6565b602082019050919050565b6000602082019050818103600083015261462b816145ef565b9050919050565b7f436f6e74726163743a20456d7074792068617368206973206e6f7420616c6c6f60008201527f7765642100000000000000000000000000000000000000000000000000000000602082015250565b600061468e602483613b8c565b915061469982614632565b604082019050919050565b600060208201905081810360008301526146bd81614681565b9050919050565b7f436f6e74726163743a204164647265737320616c72656164792072656769737460008201527f6572656420617320646f63746f72000000000000000000000000000000000000602082015250565b6000614720602e83613b8c565b915061472b826146c4565b604082019050919050565b6000602082019050818103600083015261474f81614713565b9050919050565b7f436f6e74726163743a20456d707479207075626c6963206b6579206973206e6f60008201527f7420616c6c6f7765642100000000000000000000000000000000000000000000602082015250565b60006147b2602a83613b8c565b91506147bd82614756565b604082019050919050565b600060208201905081810360008301526147e1816147a5565b9050919050565b7f526f6c65733a206163636f756e7420697320746865207a65726f20616464726560008201527f7373000000000000000000000000000000000000000000000000000000000000602082015250565b6000614844602283613b8c565b915061484f826147e8565b604082019050919050565b6000602082019050818103600083015261487381614837565b9050919050565b7f4e487b7100000000000000000000000000000000000000000000000000000000600052601160045260246000fd5b60006148b482614356565b91506148bf83614356565b92508282039050818111156148d7576148d661487a565b5b92915050565b7f4e487b7100000000000000000000000000000000000000000000000000000000600052603260045260246000fd5b7f4e487b7100000000000000000000000000000000000000000000000000000000600052603160045260246000fd5b7f526f6c65733a206163636f756e7420646f6573206e6f74206861766520726f6c60008201527f6500000000000000000000000000000000000000000000000000000000000000602082015250565b6000614997602183613b8c565b91506149a28261493b565b604082019050919050565b600060208201905081810360008301526149c68161498a565b9050919050565b7f526f6c65733a206163636f756e7420616c72656164792068617320726f6c6500600082015250565b6000614a03601f83613b8c565b9150614a0e826149cd565b602082019050919050565b60006020820190508181036000830152614a32816149f6565b9050919050565b6000614a4482614356565b91507fffffffffffffffffffffffffffffffffffffffffffffffffffffffffffffffff8203614a7657614a7561487a565b5b60018201905091905056fea26469706673582212207f989c6cd038b55d932aa9c5f5053e78e3432b0504a31a85eac3026a24e63f8264736f6c63430008110033",
  "devdoc": {
    "kind": "dev",
    "methods": {
      "constructor": {
        "custom:oz-upgrades-unsafe-allow": "constructor"
      }
    },
    "version": 1
  },
  "userdoc": {
    "kind": "user",
    "methods": {},
    "version": 1
  },
  "storageLayout": {
    "storage": [
      {
        "astId": 93,
        "contract": "contracts/Contract.sol:Contract",
        "label": "_initialized",
        "offset": 0,
        "slot": "0",
        "type": "t_uint8"
      },
      {
        "astId": 96,
        "contract": "contracts/Contract.sol:Contract",
        "label": "_initializing",
        "offset": 1,
        "slot": "0",
        "type": "t_bool"
      },
      {
        "astId": 580,
        "contract": "contracts/Contract.sol:Contract",
        "label": "__gap",
        "offset": 0,
        "slot": "1",
        "type": "t_array(t_uint256)50_storage"
      },
      {
        "astId": 85,
        "contract": "contracts/Contract.sol:Contract",
        "label": "__gap",
        "offset": 0,
        "slot": "51",
        "type": "t_array(t_uint256)50_storage"
      },
      {
        "astId": 2929,
        "contract": "contracts/Contract.sol:Contract",
        "label": "admin",
        "offset": 0,
        "slot": "101",
        "type": "t_struct(Admin)2904_storage"
      },
      {
        "astId": 2932,
        "contract": "contracts/Contract.sol:Contract",
        "label": "doctors",
        "offset": 0,
        "slot": "106",
        "type": "t_struct(Doctors)2926_storage"
      },
      {
        "astId": 2935,
        "contract": "contracts/Contract.sol:Contract",
        "label": "patients",
        "offset": 0,
        "slot": "112",
        "type": "t_struct(Patients)2913_storage"
      },
      {
        "astId": 2937,
        "contract": "contracts/Contract.sol:Contract",
        "label": "initialized",
        "offset": 0,
        "slot": "117",
        "type": "t_bool"
      }
    ],
    "types": {
      "t_address": {
        "encoding": "inplace",
        "label": "address",
        "numberOfBytes": "20"
      },
      "t_array(t_address)dyn_storage": {
        "base": "t_address",
        "encoding": "dynamic_array",
        "label": "address[]",
        "numberOfBytes": "32"
      },
      "t_array(t_uint256)50_storage": {
        "base": "t_uint256",
        "encoding": "inplace",
        "label": "uint256[50]",
        "numberOfBytes": "1600"
      },
      "t_bool": {
        "encoding": "inplace",
        "label": "bool",
        "numberOfBytes": "1"
      },
      "t_mapping(t_address,t_bool)": {
        "encoding": "mapping",
        "key": "t_address",
        "label": "mapping(address => bool)",
        "numberOfBytes": "32",
        "value": "t_bool"
      },
      "t_mapping(t_address,t_string_storage)": {
        "encoding": "mapping",
        "key": "t_address",
        "label": "mapping(address => string)",
        "numberOfBytes": "32",
        "value": "t_string_storage"
      },
      "t_mapping(t_address,t_struct(Map)2321_storage)": {
        "encoding": "mapping",
        "key": "t_address",
        "label": "mapping(address => struct AddToBoolMapping.Map)",
        "numberOfBytes": "32",
        "value": "t_struct(Map)2321_storage"
      },
      "t_mapping(t_address,t_struct(MedicalRecord)2896_storage)": {
        "encoding": "mapping",
        "key": "t_address",
        "label": "mapping(address => struct Contract.MedicalRecord)",
        "numberOfBytes": "32",
        "value": "t_struct(MedicalRecord)2896_storage"
      },
      "t_mapping(t_address,t_uint256)": {
        "encoding": "mapping",
        "key": "t_address",
        "label": "mapping(address => uint256)",
        "numberOfBytes": "32",
        "value": "t_uint256"
      },
      "t_string_storage": {
        "encoding": "bytes",
        "label": "string",
        "numberOfBytes": "32"
      },
      "t_struct(Admin)2904_storage": {
        "encoding": "inplace",
        "label": "struct Contract.Admin",
        "members": [
          {
            "astId": 2898,
            "contract": "contracts/Contract.sol:Contract",
            "label": "user",
            "offset": 0,
            "slot": "0",
            "type": "t_address"
          },
          {
            "astId": 2900,
            "contract": "contracts/Contract.sol:Contract",
            "label": "public_key",
            "offset": 0,
            "slot": "1",
            "type": "t_string_storage"
          },
          {
            "astId": 2903,
            "contract": "contracts/Contract.sol:Contract",
            "label": "pending_doctors",
            "offset": 0,
            "slot": "2",
            "type": "t_struct(Map)2321_storage"
          }
        ],
        "numberOfBytes": "160"
      },
      "t_struct(Doctors)2926_storage": {
        "encoding": "inplace",
        "label": "struct Contract.Doctors",
        "members": [
          {
            "astId": 2916,
            "contract": "contracts/Contract.sol:Contract",
            "label": "users",
            "offset": 0,
            "slot": "0",
            "type": "t_struct(Role)4052_storage"
          },
          {
            "astId": 2920,
            "contract": "contracts/Contract.sol:Contract",
            "label": "public_keys",
            "offset": 0,
            "slot": "4",
            "type": "t_mapping(t_address,t_string_storage)"
          },
          {
            "astId": 2925,
            "contract": "contracts/Contract.sol:Contract",
            "label": "docToPatAccess",
            "offset": 0,
            "slot": "5",
            "type": "t_mapping(t_address,t_struct(Map)2321_storage)"
          }
        ],
        "numberOfBytes": "192"
      },
      "t_struct(Map)2321_storage": {
        "encoding": "inplace",
        "label": "struct AddToBoolMapping.Map",
        "members": [
          {
            "astId": 2312,
            "contract": "contracts/Contract.sol:Contract",
            "label": "keys",
            "offset": 0,
            "slot": "0",
            "type": "t_array(t_address)dyn_storage"
          },
          {
            "astId": 2316,
            "contract": "contracts/Contract.sol:Contract",
            "label": "values",
            "offset": 0,
            "slot": "1",
            "type": "t_mapping(t_address,t_bool)"
          },
          {
            "astId": 2320,
            "contract": "contracts/Contract.sol:Contract",
            "label": "indexOf",
            "offset": 0,
            "slot": "2",
            "type": "t_mapping(t_address,t_uint256)"
          }
        ],
        "numberOfBytes": "96"
      },
      "t_struct(Map)2512_storage": {
        "encoding": "inplace",
        "label": "struct AddToStrMapping.Map",
        "members": [
          {
            "astId": 2499,
            "contract": "contracts/Contract.sol:Contract",
            "label": "keys",
            "offset": 0,
            "slot": "0",
            "type": "t_array(t_address)dyn_storage"
          },
          {
            "astId": 2503,
            "contract": "contracts/Contract.sol:Contract",
            "label": "values",
            "offset": 0,
            "slot": "1",
            "type": "t_mapping(t_address,t_string_storage)"
          },
          {
            "astId": 2507,
            "contract": "contracts/Contract.sol:Contract",
            "label": "indexOf",
            "offset": 0,
            "slot": "2",
            "type": "t_mapping(t_address,t_uint256)"
          },
          {
            "astId": 2511,
            "contract": "contracts/Contract.sol:Contract",
            "label": "inserted",
            "offset": 0,
            "slot": "3",
            "type": "t_mapping(t_address,t_bool)"
          }
        ],
        "numberOfBytes": "128"
      },
      "t_struct(MedicalRecord)2896_storage": {
        "encoding": "inplace",
        "label": "struct Contract.MedicalRecord",
        "members": [
          {
            "astId": 2890,
            "contract": "contracts/Contract.sol:Contract",
            "label": "editor",
            "offset": 0,
            "slot": "0",
            "type": "t_address"
          },
          {
            "astId": 2893,
            "contract": "contracts/Contract.sol:Contract",
            "label": "viewers",
            "offset": 0,
            "slot": "1",
            "type": "t_array(t_address)dyn_storage"
          },
          {
            "astId": 2895,
            "contract": "contracts/Contract.sol:Contract",
            "label": "key_data_hash",
            "offset": 0,
            "slot": "2",
            "type": "t_string_storage"
          }
        ],
        "numberOfBytes": "96"
      },
      "t_struct(Patients)2913_storage": {
        "encoding": "inplace",
        "label": "struct Contract.Patients",
        "members": [
          {
            "astId": 2907,
            "contract": "contracts/Contract.sol:Contract",
            "label": "users",
            "offset": 0,
            "slot": "0",
            "type": "t_struct(Role)4052_storage"
          },
          {
            "astId": 2912,
            "contract": "contracts/Contract.sol:Contract",
            "label": "records",
            "offset": 0,
            "slot": "4",
            "type": "t_mapping(t_address,t_struct(MedicalRecord)2896_storage)"
          }
        ],
        "numberOfBytes": "160"
      },
      "t_struct(Role)4052_storage": {
        "encoding": "inplace",
        "label": "struct Roles.Role",
        "members": [
          {
            "astId": 4051,
            "contract": "contracts/Contract.sol:Contract",
            "label": "bearer",
            "offset": 0,
            "slot": "0",
            "type": "t_struct(Map)2512_storage"
          }
        ],
        "numberOfBytes": "128"
      },
      "t_uint256": {
        "encoding": "inplace",
        "label": "uint256",
        "numberOfBytes": "32"
      },
      "t_uint8": {
        "encoding": "inplace",
        "label": "uint8",
        "numberOfBytes": "1"
      }
    }
  }
}