{
  "address": "0xC8C25273f85C94D839325b39A12f8Fc8415dDd3A",
  "abi": [
    {
      "inputs": [
        {
          "internalType": "contract MinimalForwarder",
          "name": "forwarder",
          "type": "address"
        }
      ],
      "stateMutability": "nonpayable",
      "type": "constructor"
    },
    {
      "inputs": [],
      "name": "Contract__DoctorPublicKeyMissing",
      "type": "error"
    },
    {
      "inputs": [],
      "name": "Contract__NotAdmin",
      "type": "error"
    },
    {
      "inputs": [],
      "name": "Contract__NotDoctor",
      "type": "error"
    },
    {
      "inputs": [],
      "name": "Contract__NotPatient",
      "type": "error"
    },
    {
      "inputs": [],
      "name": "Contract__PendingDoctorApproval",
      "type": "error"
    },
    {
      "anonymous": false,
      "inputs": [
        {
          "indexed": false,
          "internalType": "uint8",
          "name": "version",
          "type": "uint8"
        }
      ],
      "name": "Initialized",
      "type": "event"
    },
    {
      "inputs": [
        {
          "internalType": "address",
          "name": "_address",
          "type": "address"
        }
      ],
      "name": "approveDr",
      "outputs": [],
      "stateMutability": "nonpayable",
      "type": "function"
    },
    {
      "inputs": [
        {
          "internalType": "address",
          "name": "_address",
          "type": "address"
        },
        {
          "internalType": "string",
          "name": "_general_hash",
          "type": "string"
        },
        {
          "internalType": "string",
          "name": "_key_hash",
          "type": "string"
        }
      ],
      "name": "changeEditorAccess",
      "outputs": [],
      "stateMutability": "nonpayable",
      "type": "function"
    },
    {
      "inputs": [
        {
          "internalType": "address",
          "name": "_address",
          "type": "address"
        }
      ],
      "name": "disapproveDr",
      "outputs": [],
      "stateMutability": "nonpayable",
      "type": "function"
    },
    {
      "inputs": [],
      "name": "getAdmin",
      "outputs": [
        {
          "internalType": "address",
          "name": "",
          "type": "address"
        }
      ],
      "stateMutability": "view",
      "type": "function"
    },
    {
      "inputs": [],
      "name": "getAdminPubKey",
      "outputs": [
        {
          "internalType": "string",
          "name": "",
          "type": "string"
        }
      ],
      "stateMutability": "view",
      "type": "function"
    },
    {
      "inputs": [],
      "name": "getAllDrs",
      "outputs": [
        {
          "internalType": "address[]",
          "name": "",
          "type": "address[]"
        }
      ],
      "stateMutability": "view",
      "type": "function"
    },
    {
      "inputs": [],
      "name": "getAllPts",
      "outputs": [
        {
          "internalType": "address[]",
          "name": "",
          "type": "address[]"
        }
      ],
      "stateMutability": "view",
      "type": "function"
    },
    {
      "inputs": [
        {
          "internalType": "address",
          "name": "_address",
          "type": "address"
        }
      ],
      "name": "getDrHash",
      "outputs": [
        {
          "internalType": "string",
          "name": "",
          "type": "string"
        }
      ],
      "stateMutability": "view",
      "type": "function"
    },
    {
      "inputs": [],
      "name": "getDrOfPt",
      "outputs": [
        {
          "internalType": "address",
          "name": "",
          "type": "address"
        }
      ],
      "stateMutability": "view",
      "type": "function"
    },
    {
      "inputs": [
        {
          "internalType": "address",
          "name": "_address",
          "type": "address"
        }
      ],
      "name": "getDrPubKey",
      "outputs": [
        {
          "internalType": "string",
          "name": "",
          "type": "string"
        }
      ],
      "stateMutability": "view",
      "type": "function"
    },
    {
      "inputs": [],
      "name": "getPatViewers",
      "outputs": [
        {
          "internalType": "address[]",
          "name": "",
          "type": "address[]"
        }
      ],
      "stateMutability": "view",
      "type": "function"
    },
    {
      "inputs": [],
      "name": "getPendingDrs",
      "outputs": [
        {
          "internalType": "address[]",
          "name": "",
          "type": "address[]"
        }
      ],
      "stateMutability": "view",
      "type": "function"
    },
    {
      "inputs": [
        {
          "internalType": "address",
          "name": "_address",
          "type": "address"
        }
      ],
      "name": "getPtGeneralHash",
      "outputs": [
        {
          "internalType": "string",
          "name": "",
          "type": "string"
        }
      ],
      "stateMutability": "view",
      "type": "function"
    },
    {
      "inputs": [
        {
          "internalType": "address",
          "name": "_address",
          "type": "address"
        }
      ],
      "name": "getPtRecordHash",
      "outputs": [
        {
          "internalType": "string",
          "name": "",
          "type": "string"
        }
      ],
      "stateMutability": "view",
      "type": "function"
    },
    {
      "inputs": [],
      "name": "getPtsOfDr",
      "outputs": [
        {
          "internalType": "address[]",
          "name": "",
          "type": "address[]"
        }
      ],
      "stateMutability": "view",
      "type": "function"
    },
    {
      "inputs": [
        {
          "internalType": "address",
          "name": "_address",
          "type": "address"
        }
      ],
      "name": "grantViewerAccess",
      "outputs": [],
      "stateMutability": "nonpayable",
      "type": "function"
    },
    {
      "inputs": [],
      "name": "initialize",
      "outputs": [],
      "stateMutability": "nonpayable",
      "type": "function"
    },
    {
      "inputs": [
        {
          "internalType": "address",
          "name": "_address",
          "type": "address"
        }
      ],
      "name": "isAdmin",
      "outputs": [
        {
          "internalType": "bool",
          "name": "",
          "type": "bool"
        }
      ],
      "stateMutability": "view",
      "type": "function"
    },
    {
      "inputs": [
        {
          "internalType": "address",
          "name": "_address",
          "type": "address"
        }
      ],
      "name": "isDoctor",
      "outputs": [
        {
          "internalType": "bool",
          "name": "",
          "type": "bool"
        }
      ],
      "stateMutability": "view",
      "type": "function"
    },
    {
      "inputs": [
        {
          "internalType": "address",
          "name": "_address",
          "type": "address"
        }
      ],
      "name": "isDrPending",
      "outputs": [
        {
          "internalType": "bool",
          "name": "",
          "type": "bool"
        }
      ],
      "stateMutability": "view",
      "type": "function"
    },
    {
      "inputs": [
        {
          "internalType": "address",
          "name": "_address",
          "type": "address"
        }
      ],
      "name": "isDrRegistered",
      "outputs": [
        {
          "internalType": "bool",
          "name": "",
          "type": "bool"
        }
      ],
      "stateMutability": "view",
      "type": "function"
    },
    {
      "inputs": [
        {
          "internalType": "address",
          "name": "_address",
          "type": "address"
        }
      ],
      "name": "isPatient",
      "outputs": [
        {
          "internalType": "bool",
          "name": "",
          "type": "bool"
        }
      ],
      "stateMutability": "view",
      "type": "function"
    },
    {
      "inputs": [
        {
          "internalType": "address",
          "name": "forwarder",
          "type": "address"
        }
      ],
      "name": "isTrustedForwarder",
      "outputs": [
        {
          "internalType": "bool",
          "name": "",
          "type": "bool"
        }
      ],
      "stateMutability": "view",
      "type": "function"
    },
    {
      "inputs": [
        {
          "internalType": "string",
          "name": "_hash",
          "type": "string"
        }
      ],
      "name": "registerDr",
      "outputs": [],
      "stateMutability": "nonpayable",
      "type": "function"
    },
    {
      "inputs": [
        {
          "internalType": "string",
          "name": "_public_key",
          "type": "string"
        }
      ],
      "name": "registerDrConfirm",
      "outputs": [],
      "stateMutability": "nonpayable",
      "type": "function"
    },
    {
      "inputs": [
        {
          "internalType": "string",
          "name": "_hash",
          "type": "string"
        },
        {
          "internalType": "string",
          "name": "_key_data_hash",
          "type": "string"
        }
      ],
      "name": "registerPt",
      "outputs": [],
      "stateMutability": "nonpayable",
      "type": "function"
    },
    {
      "inputs": [
        {
          "internalType": "string",
          "name": "_general_hash",
          "type": "string"
        },
        {
          "internalType": "string",
          "name": "_key_hash",
          "type": "string"
        }
      ],
      "name": "removeEditorAccess",
      "outputs": [],
      "stateMutability": "nonpayable",
      "type": "function"
    },
    {
      "inputs": [
        {
          "internalType": "address",
          "name": "_address",
          "type": "address"
        }
      ],
      "name": "revokeViewerAccess",
      "outputs": [],
      "stateMutability": "nonpayable",
      "type": "function"
    },
    {
      "inputs": [
        {
          "internalType": "string",
          "name": "_public_key",
          "type": "string"
        }
      ],
      "name": "setAdminPubKey",
      "outputs": [],
      "stateMutability": "nonpayable",
      "type": "function"
    },
    {
      "inputs": [
        {
          "internalType": "string",
          "name": "_hash",
          "type": "string"
        }
      ],
      "name": "setDrHash",
      "outputs": [],
      "stateMutability": "nonpayable",
      "type": "function"
    },
    {
      "inputs": [
        {
          "internalType": "address",
          "name": "_address",
          "type": "address"
        },
        {
          "internalType": "string",
          "name": "_generalHash",
          "type": "string"
        },
        {
          "internalType": "string",
          "name": "_recordHash",
          "type": "string"
        }
      ],
      "name": "setPtBothHash",
      "outputs": [],
      "stateMutability": "nonpayable",
      "type": "function"
    },
    {
      "inputs": [
        {
          "internalType": "string",
          "name": "_hash",
          "type": "string"
        }
      ],
      "name": "setPtGeneralHash",
      "outputs": [],
      "stateMutability": "nonpayable",
      "type": "function"
    },
    {
      "inputs": [
        {
          "internalType": "address",
          "name": "_address",
          "type": "address"
        },
        {
          "internalType": "string",
          "name": "_hash",
          "type": "string"
        }
      ],
      "name": "setPtRecordHash",
      "outputs": [],
      "stateMutability": "nonpayable",
      "type": "function"
    }
  ],
  "transactionHash": "0x567573959e322d79cc43cbd7d450675215b092d609a31a94a1439f745d150b37",
  "args": [
    "0xFbe60dB617725293562fDdaf8349250a04F8062f"
  ],
  "numDeployments": 1,
  "solcInputHash": "373d2e61dbd73731c6bacaa22d95ca1b",
  "bytecode": "0x60a06040523480156200001157600080fd5b506040516200467a3803806200467a8339818101604052810190620000379190620000f2565b808073ffffffffffffffffffffffffffffffffffffffff1660808173ffffffffffffffffffffffffffffffffffffffff1681525050505062000124565b600080fd5b600073ffffffffffffffffffffffffffffffffffffffff82169050919050565b6000620000a68262000079565b9050919050565b6000620000ba8262000099565b9050919050565b620000cc81620000ad565b8114620000d857600080fd5b50565b600081519050620000ec81620000c1565b92915050565b6000602082840312156200010b576200010a62000074565b5b60006200011b84828501620000db565b91505092915050565b60805161453a620001406000396000610ffa015261453a6000f3fe608060405234801561001057600080fd5b50600436106101fb5760003560e01c806388c432e11161011a578063b1e758a4116100ad578063d0d9a5e31161007c578063d0d9a5e3146105be578063d3cd4df4146105dc578063dc823aaf146105f8578063e2877b4e14610628578063f7a03a1e14610646576101fb565b8063b1e758a41461053a578063c70597ad14610556578063cce9d43e14610572578063ccfaed16146105a2576101fb565b806399eedd2a116100e957806399eedd2a146104c8578063a03de49e146104e4578063a53f514d14610500578063afb97e3d1461051e576101fb565b806388c432e11461042e5780638f7f43a91461044a5780638f9c79ed14610468578063996440c614610498576101fb565b80633d8198b4116101925780636d4bce20116101615780636d4bce20146103ba5780636e9960c3146103ea578063745ada64146104085780638129fc1c14610424576101fb565b80633d8198b41461030e5780634df0a2d41461033e578063572b6c051461036e5780635b0a7aad1461039e576101fb565b806321639f04116101ce57806321639f041461027457806324d7806c14610292578063290c61b0146102c257806332991838146102f2576101fb565b80630de9999114610200578063116461e91461021c57806312ad660f1461023a5780631da3e2dc14610256575b600080fd5b61021a600480360381019061021591906135d7565b610662565b005b6102246106ec565b6040516102319190613694565b60405180910390f35b610254600480360381019061024f91906137eb565b610781565b005b61025e6107ad565b60405161026b9190613934565b60405180910390f35b61027c6107c1565b6040516102899190613965565b60405180910390f35b6102ac60048036038101906102a791906135d7565b61087b565b6040516102b9919061399b565b60405180910390f35b6102dc60048036038101906102d791906135d7565b6108e8565b6040516102e9919061399b565b60405180910390f35b61030c600480360381019061030791906139b6565b610908565b005b610328600480360381019061032391906135d7565b610a2d565b6040516103359190613694565b60405180910390f35b610358600480360381019061035391906135d7565b610d6d565b6040516103659190613694565b60405180910390f35b610388600480360381019061038391906135d7565b610ff6565b604051610395919061399b565b60405180910390f35b6103b860048036038101906103b391906139ff565b61104e565b005b6103d460048036038101906103cf91906135d7565b611271565b6040516103e1919061399b565b60405180910390f35b6103f2611291565b6040516103ff9190613965565b60405180910390f35b610422600480360381019061041d91906135d7565b6112be565b005b61042c61137d565b005b610448600480360381019061044391906139b6565b611435565b005b61045261149e565b60405161045f9190613934565b60405180910390f35b610482600480360381019061047d91906135d7565b6115bc565b60405161048f919061399b565b60405180910390f35b6104b260048036038101906104ad91906135d7565b6115dc565b6040516104bf919061399b565b60405180910390f35b6104e260048036038101906104dd91906139b6565b611690565b005b6104fe60048036038101906104f991906139ff565b61182f565b005b610508611a3a565b6040516105159190613934565b60405180910390f35b610538600480360381019061053391906139b6565b611a4e565b005b610554600480360381019061054f91906135d7565b611aaa565b005b610570600480360381019061056b9190613a77565b611cc7565b005b61058c600480360381019061058791906135d7565b611e37565b6040516105999190613694565b60405180910390f35b6105bc60048036038101906105b791906139b6565b611e96565b005b6105c661202d565b6040516105d39190613934565b60405180910390f35b6105f660048036038101906105f191906137eb565b61223d565b005b610612600480360381019061060d91906135d7565b6123b7565b60405161061f9190613694565b60405180910390f35b61063061248b565b60405161063d9190613934565b60405180910390f35b610660600480360381019061065b91906135d7565b61251f565b005b61067261066d612606565b61087b565b6106a8576040517f4d371dc700000000000000000000000000000000000000000000000000000000815260040160405180910390fd5b6106b1816115dc565b6106e9576106cc81606a60000161263890919063ffffffff16565b156106e9576106e88160656002016126cb90919063ffffffff16565b5b50565b6060606560010180546106fe90613b02565b80601f016020809104026020016040519081016040528092919081815260200182805461072a90613b02565b80156107775780601f1061074c57610100808354040283529160200191610777565b820191906000526020600020905b81548152906001019060200180831161075a57829003601f168201915b5050505050905090565b60008251146107945761079382611435565b5b60008151146107a8576107a78382611cc7565b5b505050565b60606107bc606a60000161294e565b905090565b60006107d36107ce612606565b6115bc565b610809576040517fc11330e600000000000000000000000000000000000000000000000000000000815260040160405180910390fd5b60706004016000610818612606565b73ffffffffffffffffffffffffffffffffffffffff1673ffffffffffffffffffffffffffffffffffffffff16815260200190815260200160002060000160009054906101000a900473ffffffffffffffffffffffffffffffffffffffff16905090565b60008173ffffffffffffffffffffffffffffffffffffffff16606560000160009054906101000a900473ffffffffffffffffffffffffffffffffffffffff1673ffffffffffffffffffffffffffffffffffffffff16036108de57600190506108e3565b600090505b919050565b600061090182606a60000161263890919063ffffffff16565b9050919050565b610918610913612606565b61087b565b15610958576040517f08c379a000000000000000000000000000000000000000000000000000000000815260040161094f90613ba5565b60405180910390fd5b610968610963612606565b6115bc565b156109a8576040517f08c379a000000000000000000000000000000000000000000000000000000000815260040161099f90613c37565b60405180910390fd5b60008151036109ec576040517f08c379a00000000000000000000000000000000000000000000000000000000081526004016109e390613cc9565b60405180910390fd5b610a0c6109f7612606565b82606a6000016129e39092919063ffffffff16565b610a2a610a17612606565b6065600201612a4a90919063ffffffff16565b50565b6060610a38826115bc565b610a6e576040517fc11330e600000000000000000000000000000000000000000000000000000000815260040160405180910390fd5b8173ffffffffffffffffffffffffffffffffffffffff16610a8d612606565b73ffffffffffffffffffffffffffffffffffffffff161480610b465750610ab2612606565b73ffffffffffffffffffffffffffffffffffffffff16607060040160008473ffffffffffffffffffffffffffffffffffffffff1673ffffffffffffffffffffffffffffffffffffffff16815260200190815260200160002060000160009054906101000a900473ffffffffffffffffffffffffffffffffffffffff1673ffffffffffffffffffffffffffffffffffffffff16145b80610c5357507fffffffffffffffffffffffffffffffffffffffffffffffffffffffffffffffff610c50610b78612606565b607060040160008673ffffffffffffffffffffffffffffffffffffffff1673ffffffffffffffffffffffffffffffffffffffff168152602001908152602001600020600101805480602002602001604051908101604052809291908181526020018280548015610c3d57602002820191906000526020600020905b8160009054906101000a900473ffffffffffffffffffffffffffffffffffffffff1673ffffffffffffffffffffffffffffffffffffffff1681526020019060010190808311610bf3575b5050505050612bae90919063ffffffff16565b14155b15610d2d57607060040160008373ffffffffffffffffffffffffffffffffffffffff1673ffffffffffffffffffffffffffffffffffffffff1681526020019081526020016000206002018054610ca890613b02565b80601f0160208091040260200160405190810160405280929190818152602001828054610cd490613b02565b8015610d215780601f10610cf657610100808354040283529160200191610d21565b820191906000526020600020905b815481529060010190602001808311610d0457829003601f168201915b50505050509050610d68565b6040517f08c379a0000000000000000000000000000000000000000000000000000000008152600401610d5f90613d35565b60405180910390fd5b919050565b6060610d78826115bc565b610dae576040517fc11330e600000000000000000000000000000000000000000000000000000000815260040160405180910390fd5b8173ffffffffffffffffffffffffffffffffffffffff16610dcd612606565b73ffffffffffffffffffffffffffffffffffffffff161480610e865750610df2612606565b73ffffffffffffffffffffffffffffffffffffffff16607060040160008473ffffffffffffffffffffffffffffffffffffffff1673ffffffffffffffffffffffffffffffffffffffff16815260200190815260200160002060000160009054906101000a900473ffffffffffffffffffffffffffffffffffffffff1673ffffffffffffffffffffffffffffffffffffffff16145b80610f9357507fffffffffffffffffffffffffffffffffffffffffffffffffffffffffffffffff610f90610eb8612606565b607060040160008673ffffffffffffffffffffffffffffffffffffffff1673ffffffffffffffffffffffffffffffffffffffff168152602001908152602001600020600101805480602002602001604051908101604052809291908181526020018280548015610f7d57602002820191906000526020600020905b8160009054906101000a900473ffffffffffffffffffffffffffffffffffffffff1673ffffffffffffffffffffffffffffffffffffffff1681526020019060010190808311610f33575b5050505050612bae90919063ffffffff16565b14155b15610fb657610faf826070600001612c5390919063ffffffff16565b9050610ff1565b6040517f08c379a0000000000000000000000000000000000000000000000000000000008152600401610fe890613d35565b60405180910390fd5b919050565b60007f000000000000000000000000000000000000000000000000000000000000000073ffffffffffffffffffffffffffffffffffffffff168273ffffffffffffffffffffffffffffffffffffffff16149050919050565b61105e611059612606565b6115bc565b611094576040517fc11330e600000000000000000000000000000000000000000000000000000000815260040160405180910390fd5b6000607060040160006110a5612606565b73ffffffffffffffffffffffffffffffffffffffff1673ffffffffffffffffffffffffffffffffffffffff16815260200190815260200160002060000160009054906101000a900473ffffffffffffffffffffffffffffffffffffffff16905061110d612606565b6070600401600061111c612606565b73ffffffffffffffffffffffffffffffffffffffff1673ffffffffffffffffffffffffffffffffffffffff16815260200190815260200160002060000160006101000a81548173ffffffffffffffffffffffffffffffffffffffff021916908373ffffffffffffffffffffffffffffffffffffffff1602179055506111f26111a2612606565b606a60050160008473ffffffffffffffffffffffffffffffffffffffff1673ffffffffffffffffffffffffffffffffffffffff1681526020019081526020016000206126cb90919063ffffffff16565b6112126111fd612606565b846070600001612c739092919063ffffffff16565b8160706004016000611222612606565b73ffffffffffffffffffffffffffffffffffffffff1673ffffffffffffffffffffffffffffffffffffffff168152602001908152602001600020600201908161126b9190613f0b565b50505050565b600061128a826065600201612c9090919063ffffffff16565b9050919050565b6000606560000160009054906101000a900473ffffffffffffffffffffffffffffffffffffffff16905090565b6112ce6112c9612606565b61087b565b611304576040517f4d371dc700000000000000000000000000000000000000000000000000000000815260040160405180910390fd5b61130d81611271565b61134c576040517f08c379a000000000000000000000000000000000000000000000000000000000815260040161134390614029565b60405180910390fd5b61136381606a600001612ce990919063ffffffff16565b61137a8160656002016126cb90919063ffffffff16565b50565b607560009054906101000a900460ff16156113cd576040517f08c379a00000000000000000000000000000000000000000000000000000000081526004016113c490614095565b60405180910390fd5b6113d5612606565b606560000160006101000a81548173ffffffffffffffffffffffffffffffffffffffff021916908373ffffffffffffffffffffffffffffffffffffffff1602179055506001607560006101000a81548160ff021916908315150217905550565b611445611440612606565b6115bc565b61147b576040517fc11330e600000000000000000000000000000000000000000000000000000000815260040160405180910390fd5b61149b611486612606565b826070600001612c739092919063ffffffff16565b50565b60606114b06114ab612606565b6115bc565b6114e6576040517fc11330e600000000000000000000000000000000000000000000000000000000815260040160405180910390fd5b607060040160006114f5612606565b73ffffffffffffffffffffffffffffffffffffffff1673ffffffffffffffffffffffffffffffffffffffff1681526020019081526020016000206001018054806020026020016040519081016040528092919081815260200182805480156115b257602002820191906000526020600020905b8160009054906101000a900473ffffffffffffffffffffffffffffffffffffffff1673ffffffffffffffffffffffffffffffffffffffff1681526020019060010190808311611568575b5050505050905090565b60006115d582607060000161263890919063ffffffff16565b9050919050565b60006115f582606a60000161263890919063ffffffff16565b611602576000905061168b565b611619826065600201612c9090919063ffffffff16565b15611627576000905061168b565b6000606a60040160008473ffffffffffffffffffffffffffffffffffffffff1673ffffffffffffffffffffffffffffffffffffffff168152602001908152602001600020805461167690613b02565b905003611686576000905061168b565b600190505b919050565b6116ae61169b612606565b606a60000161263890919063ffffffff16565b6116e4576040517ffe2fc9c600000000000000000000000000000000000000000000000000000000815260040160405180910390fd5b6117026116ef612606565b6065600201612c9090919063ffffffff16565b15611739576040517ff873d3b700000000000000000000000000000000000000000000000000000000815260040160405180910390fd5b6000606a600401600061174a612606565b73ffffffffffffffffffffffffffffffffffffffff1673ffffffffffffffffffffffffffffffffffffffff168152602001908152602001600020805461178f90613b02565b9050036117c8576040517fa30132d500000000000000000000000000000000000000000000000000000000815260040160405180910390fd5b600081510361180c576040517f08c379a000000000000000000000000000000000000000000000000000000000815260040161180390614127565b60405180910390fd5b61182c611817612606565b82606a600001612c739092919063ffffffff16565b50565b61183f61183a612606565b61087b565b1561187f576040517f08c379a000000000000000000000000000000000000000000000000000000000815260040161187690613ba5565b60405180910390fd5b61188f61188a612606565b6108e8565b806118a657506118a56118a0612606565b6115dc565b5b156118e6576040517f08c379a00000000000000000000000000000000000000000000000000000000081526004016118dd906141b9565b60405180910390fd5b600082510361192a576040517f08c379a000000000000000000000000000000000000000000000000000000000815260040161192190613cc9565b60405180910390fd5b61194a611935612606565b8360706000016129e39092919063ffffffff16565b611952612606565b60706004016000611961612606565b73ffffffffffffffffffffffffffffffffffffffff1673ffffffffffffffffffffffffffffffffffffffff16815260200190815260200160002060000160006101000a81548173ffffffffffffffffffffffffffffffffffffffff021916908373ffffffffffffffffffffffffffffffffffffffff16021790555080607060040160006119ec612606565b73ffffffffffffffffffffffffffffffffffffffff1673ffffffffffffffffffffffffffffffffffffffff1681526020019081526020016000206002019081611a359190613f0b565b505050565b6060611a49607060000161294e565b905090565b611a5e611a59612606565b61087b565b611a94576040517f4d371dc700000000000000000000000000000000000000000000000000000000815260040160405180910390fd5b8060656001019081611aa69190613f0b565b5050565b611aba611ab5612606565b6115bc565b611af0576040517fc11330e600000000000000000000000000000000000000000000000000000000815260040160405180910390fd5b611af9816115dc565b611b2f576040517ffe2fc9c600000000000000000000000000000000000000000000000000000000815260040160405180910390fd5b611c128160706004016000611b42612606565b73ffffffffffffffffffffffffffffffffffffffff1673ffffffffffffffffffffffffffffffffffffffff168152602001908152602001600020600101805480602002602001604051908101604052809291908181526020018280548015611bff57602002820191906000526020600020905b8160009054906101000a900473ffffffffffffffffffffffffffffffffffffffff1673ffffffffffffffffffffffffffffffffffffffff1681526020019060010190808311611bb5575b5050505050612d4c90919063ffffffff16565b611cc45760706004016000611c25612606565b73ffffffffffffffffffffffffffffffffffffffff1673ffffffffffffffffffffffffffffffffffffffff168152602001908152602001600020600101819080600181540180825580915050600190039060005260206000200160009091909190916101000a81548173ffffffffffffffffffffffffffffffffffffffff021916908373ffffffffffffffffffffffffffffffffffffffff1602179055505b50565b611cd0826115bc565b611d06576040517fc11330e600000000000000000000000000000000000000000000000000000000815260040160405180910390fd5b611d0e612606565b73ffffffffffffffffffffffffffffffffffffffff16607060040160008473ffffffffffffffffffffffffffffffffffffffff1673ffffffffffffffffffffffffffffffffffffffff16815260200190815260200160002060000160009054906101000a900473ffffffffffffffffffffffffffffffffffffffff1673ffffffffffffffffffffffffffffffffffffffff1614611de0576040517f08c379a0000000000000000000000000000000000000000000000000000000008152600401611dd790613d35565b60405180910390fd5b80607060040160008473ffffffffffffffffffffffffffffffffffffffff1673ffffffffffffffffffffffffffffffffffffffff1681526020019081526020016000206002019081611e329190613f0b565b505050565b6060611e42826108e8565b611e78576040517ffe2fc9c600000000000000000000000000000000000000000000000000000000815260040160405180910390fd5b611e8f82606a600001612c5390919063ffffffff16565b9050919050565b611ea6611ea1612606565b61087b565b15611ee6576040517f08c379a0000000000000000000000000000000000000000000000000000000008152600401611edd90613ba5565b60405180910390fd5b6000815103611f2a576040517f08c379a0000000000000000000000000000000000000000000000000000000008152600401611f219061424b565b60405180910390fd5b611f48611f35612606565b606a60000161263890919063ffffffff16565b611f7e576040517ffe2fc9c600000000000000000000000000000000000000000000000000000000815260040160405180910390fd5b611f9c611f89612606565b6065600201612c9090919063ffffffff16565b15611fd3576040517ff873d3b700000000000000000000000000000000000000000000000000000000815260040160405180910390fd5b80606a6004016000611fe3612606565b73ffffffffffffffffffffffffffffffffffffffff1673ffffffffffffffffffffffffffffffffffffffff16815260200190815260200160002090816120299190613f0b565b5050565b606061204d61203a612606565b606a60000161263890919063ffffffff16565b612083576040517ffe2fc9c600000000000000000000000000000000000000000000000000000000815260040160405180910390fd5b6120a161208e612606565b6065600201612c9090919063ffffffff16565b156120d8576040517ff873d3b700000000000000000000000000000000000000000000000000000000815260040160405180910390fd5b6000606a60040160006120e9612606565b73ffffffffffffffffffffffffffffffffffffffff1673ffffffffffffffffffffffffffffffffffffffff168152602001908152602001600020805461212e90613b02565b905003612167576040517fa30132d500000000000000000000000000000000000000000000000000000000815260040160405180910390fd5b606a6005016000612176612606565b73ffffffffffffffffffffffffffffffffffffffff1673ffffffffffffffffffffffffffffffffffffffff16815260200190815260200160002060000180548060200260200160405190810160405280929190818152602001828054801561223357602002820191906000526020600020905b8160009054906101000a900473ffffffffffffffffffffffffffffffffffffffff1673ffffffffffffffffffffffffffffffffffffffff16815260200190600101908083116121e9575b5050505050905090565b61224d612248612606565b6115bc565b612283576040517fc11330e600000000000000000000000000000000000000000000000000000000815260040160405180910390fd5b61228c836115dc565b6122c2576040517ffe2fc9c600000000000000000000000000000000000000000000000000000000815260040160405180910390fd5b6122cc828261104e565b82607060040160006122dc612606565b73ffffffffffffffffffffffffffffffffffffffff1673ffffffffffffffffffffffffffffffffffffffff16815260200190815260200160002060000160006101000a81548173ffffffffffffffffffffffffffffffffffffffff021916908373ffffffffffffffffffffffffffffffffffffffff1602179055506123b2612362612606565b606a60050160008673ffffffffffffffffffffffffffffffffffffffff1673ffffffffffffffffffffffffffffffffffffffff168152602001908152602001600020612a4a90919063ffffffff16565b505050565b6060606a60040160008373ffffffffffffffffffffffffffffffffffffffff1673ffffffffffffffffffffffffffffffffffffffff168152602001908152602001600020805461240690613b02565b80601f016020809104026020016040519081016040528092919081815260200182805461243290613b02565b801561247f5780601f106124545761010080835404028352916020019161247f565b820191906000526020600020905b81548152906001019060200180831161246257829003601f168201915b50505050509050919050565b6060606560020160000180548060200260200160405190810160405280929190818152602001828054801561251557602002820191906000526020600020905b8160009054906101000a900473ffffffffffffffffffffffffffffffffffffffff1673ffffffffffffffffffffffffffffffffffffffff16815260200190600101908083116124cb575b5050505050905090565b61252f61252a612606565b6115bc565b612565576040517fc11330e600000000000000000000000000000000000000000000000000000000815260040160405180910390fd5b61256e816115dc565b6125a4576040517ffe2fc9c600000000000000000000000000000000000000000000000000000000815260040160405180910390fd5b61260281607060040160006125b7612606565b73ffffffffffffffffffffffffffffffffffffffff1673ffffffffffffffffffffffffffffffffffffffff168152602001908152602001600020600101612d8390919063ffffffff16565b5050565b600061261133610ff6565b1561262557601436033560601c9050612634565b61262d612fa8565b9050612635565b5b90565b60008073ffffffffffffffffffffffffffffffffffffffff168273ffffffffffffffffffffffffffffffffffffffff16036126a8576040517f08c379a000000000000000000000000000000000000000000000000000000000815260040161269f906142dd565b60405180910390fd5b60006126c08385600001612fb090919063ffffffff16565b511415905092915050565b8160010160008273ffffffffffffffffffffffffffffffffffffffff1673ffffffffffffffffffffffffffffffffffffffff16815260200190815260200160002060009054906101000a900460ff161561294a578160010160008273ffffffffffffffffffffffffffffffffffffffff1673ffffffffffffffffffffffffffffffffffffffff16815260200190815260200160002060006101000a81549060ff021916905560008260020160008373ffffffffffffffffffffffffffffffffffffffff1673ffffffffffffffffffffffffffffffffffffffff1681526020019081526020016000205490506000600184600001805490506127cc919061432c565b905060008460000182815481106127e6576127e5614360565b5b9060005260206000200160009054906101000a900473ffffffffffffffffffffffffffffffffffffffff169050828560020160008373ffffffffffffffffffffffffffffffffffffffff1673ffffffffffffffffffffffffffffffffffffffff168152602001908152602001600020819055508460020160008573ffffffffffffffffffffffffffffffffffffffff1673ffffffffffffffffffffffffffffffffffffffff16815260200190815260200160002060009055808560000184815481106128b5576128b4614360565b5b9060005260206000200160006101000a81548173ffffffffffffffffffffffffffffffffffffffff021916908373ffffffffffffffffffffffffffffffffffffffff160217905550846000018054806129115761291061438f565b5b6001900381819060005260206000200160006101000a81549073ffffffffffffffffffffffffffffffffffffffff021916905590555050505b5050565b6060816000016000018054806020026020016040519081016040528092919081815260200182805480156129d757602002820191906000526020600020905b8160009054906101000a900473ffffffffffffffffffffffffffffffffffffffff1673ffffffffffffffffffffffffffffffffffffffff168152602001906001019080831161298d575b50505050509050919050565b6129ed8383612638565b15612a2d576040517f08c379a0000000000000000000000000000000000000000000000000000000008152600401612a249061440a565b60405180910390fd5b612a458282856000016130849092919063ffffffff16565b505050565b8160010160008273ffffffffffffffffffffffffffffffffffffffff1673ffffffffffffffffffffffffffffffffffffffff16815260200190815260200160002060009054906101000a900460ff16612baa5760018260010160008373ffffffffffffffffffffffffffffffffffffffff1673ffffffffffffffffffffffffffffffffffffffff16815260200190815260200160002060006101000a81548160ff02191690831515021790555081600001805490508260020160008373ffffffffffffffffffffffffffffffffffffffff1673ffffffffffffffffffffffffffffffffffffffff1681526020019081526020016000208190555081600001819080600181540180825580915050600190039060005260206000200160009091909190916101000a81548173ffffffffffffffffffffffffffffffffffffffff021916908373ffffffffffffffffffffffffffffffffffffffff1602179055505b5050565b600080600090505b8351811015612c28578273ffffffffffffffffffffffffffffffffffffffff16848281518110612be957612be8614360565b5b602002602001015173ffffffffffffffffffffffffffffffffffffffff1603612c155780915050612c4d565b8080612c209061442a565b915050612bb6565b507fffffffffffffffffffffffffffffffffffffffffffffffffffffffffffffffff90505b92915050565b6060612c6b8284600001612fb090919063ffffffff16565b905092915050565b612c8b8282856000016130849092919063ffffffff16565b505050565b60008260010160008373ffffffffffffffffffffffffffffffffffffffff1673ffffffffffffffffffffffffffffffffffffffff16815260200190815260200160002060009054906101000a900460ff16905092915050565b612cf38282612638565b612d32576040517f08c379a0000000000000000000000000000000000000000000000000000000008152600401612d29906144e4565b60405180910390fd5b612d48818360000161323890919063ffffffff16565b5050565b60007fffffffffffffffffffffffffffffffffffffffffffffffffffffffffffffffff612d798484612bae565b1415905092915050565b600080612e1584805480602002602001604051908101604052809291908181526020018280548015612e0a57602002820191906000526020600020905b8160009054906101000a900473ffffffffffffffffffffffffffffffffffffffff1673ffffffffffffffffffffffffffffffffffffffff1681526020019060010190808311612dc0575b505050505084612bae565b90507fffffffffffffffffffffffffffffffffffffffffffffffffffffffffffffffff8103612e48576000915050612fa2565b600084805480602002602001604051908101604052809291908181526020018280548015612ecb57602002820191906000526020600020905b8160009054906101000a900473ffffffffffffffffffffffffffffffffffffffff1673ffffffffffffffffffffffffffffffffffffffff1681526020019060010190808311612e81575b505050505090508060018251612ee1919061432c565b81518110612ef257612ef1614360565b5b6020026020010151858381548110612f0d57612f0c614360565b5b9060005260206000200160006101000a81548173ffffffffffffffffffffffffffffffffffffffff021916908373ffffffffffffffffffffffffffffffffffffffff16021790555084805480612f6657612f6561438f565b5b6001900381819060005260206000200160006101000a81549073ffffffffffffffffffffffffffffffffffffffff021916905590556001925050505b92915050565b600033905090565b60608260010160008373ffffffffffffffffffffffffffffffffffffffff1673ffffffffffffffffffffffffffffffffffffffff1681526020019081526020016000208054612ffe90613b02565b80601f016020809104026020016040519081016040528092919081815260200182805461302a90613b02565b80156130775780601f1061304c57610100808354040283529160200191613077565b820191906000526020600020905b81548152906001019060200180831161305a57829003601f168201915b5050505050905092915050565b8260030160008373ffffffffffffffffffffffffffffffffffffffff1673ffffffffffffffffffffffffffffffffffffffff16815260200190815260200160002060009054906101000a900460ff166131e45782600001805490508360020160008473ffffffffffffffffffffffffffffffffffffffff1673ffffffffffffffffffffffffffffffffffffffff1681526020019081526020016000208190555060018360030160008473ffffffffffffffffffffffffffffffffffffffff1673ffffffffffffffffffffffffffffffffffffffff16815260200190815260200160002060006101000a81548160ff02191690831515021790555082600001829080600181540180825580915050600190039060005260206000200160009091909190916101000a81548173ffffffffffffffffffffffffffffffffffffffff021916908373ffffffffffffffffffffffffffffffffffffffff1602179055505b808360010160008473ffffffffffffffffffffffffffffffffffffffff1673ffffffffffffffffffffffffffffffffffffffff16815260200190815260200160002090816132329190613f0b565b50505050565b8160030160008273ffffffffffffffffffffffffffffffffffffffff1673ffffffffffffffffffffffffffffffffffffffff16815260200190815260200160002060009054906101000a900460ff1615613504578160010160008273ffffffffffffffffffffffffffffffffffffffff1673ffffffffffffffffffffffffffffffffffffffff16815260200190815260200160002060006132d99190613508565b8160030160008273ffffffffffffffffffffffffffffffffffffffff1673ffffffffffffffffffffffffffffffffffffffff16815260200190815260200160002060006101000a81549060ff021916905560008260020160008373ffffffffffffffffffffffffffffffffffffffff1673ffffffffffffffffffffffffffffffffffffffff168152602001908152602001600020549050600060018460000180549050613386919061432c565b905060008460000182815481106133a05761339f614360565b5b9060005260206000200160009054906101000a900473ffffffffffffffffffffffffffffffffffffffff169050828560020160008373ffffffffffffffffffffffffffffffffffffffff1673ffffffffffffffffffffffffffffffffffffffff168152602001908152602001600020819055508460020160008573ffffffffffffffffffffffffffffffffffffffff1673ffffffffffffffffffffffffffffffffffffffff168152602001908152602001600020600090558085600001848154811061346f5761346e614360565b5b9060005260206000200160006101000a81548173ffffffffffffffffffffffffffffffffffffffff021916908373ffffffffffffffffffffffffffffffffffffffff160217905550846000018054806134cb576134ca61438f565b5b6001900381819060005260206000200160006101000a81549073ffffffffffffffffffffffffffffffffffffffff021916905590555050505b5050565b50805461351490613b02565b6000825580601f106135265750613545565b601f0160209004906000526020600020908101906135449190613548565b5b50565b5b80821115613561576000816000905550600101613549565b5090565b6000604051905090565b600080fd5b600080fd5b600073ffffffffffffffffffffffffffffffffffffffff82169050919050565b60006135a482613579565b9050919050565b6135b481613599565b81146135bf57600080fd5b50565b6000813590506135d1816135ab565b92915050565b6000602082840312156135ed576135ec61356f565b5b60006135fb848285016135c2565b91505092915050565b600081519050919050565b600082825260208201905092915050565b60005b8381101561363e578082015181840152602081019050613623565b60008484015250505050565b6000601f19601f8301169050919050565b600061366682613604565b613670818561360f565b9350613680818560208601613620565b6136898161364a565b840191505092915050565b600060208201905081810360008301526136ae818461365b565b905092915050565b600080fd5b600080fd5b7f4e487b7100000000000000000000000000000000000000000000000000000000600052604160045260246000fd5b6136f88261364a565b810181811067ffffffffffffffff82111715613717576137166136c0565b5b80604052505050565b600061372a613565565b905061373682826136ef565b919050565b600067ffffffffffffffff821115613756576137556136c0565b5b61375f8261364a565b9050602081019050919050565b82818337600083830152505050565b600061378e6137898461373b565b613720565b9050828152602081018484840111156137aa576137a96136bb565b5b6137b584828561376c565b509392505050565b600082601f8301126137d2576137d16136b6565b5b81356137e284826020860161377b565b91505092915050565b6000806000606084860312156138045761380361356f565b5b6000613812868287016135c2565b935050602084013567ffffffffffffffff81111561383357613832613574565b5b61383f868287016137bd565b925050604084013567ffffffffffffffff8111156138605761385f613574565b5b61386c868287016137bd565b9150509250925092565b600081519050919050565b600082825260208201905092915050565b6000819050602082019050919050565b6138ab81613599565b82525050565b60006138bd83836138a2565b60208301905092915050565b6000602082019050919050565b60006138e182613876565b6138eb8185613881565b93506138f683613892565b8060005b8381101561392757815161390e88826138b1565b9750613919836138c9565b9250506001810190506138fa565b5085935050505092915050565b6000602082019050818103600083015261394e81846138d6565b905092915050565b61395f81613599565b82525050565b600060208201905061397a6000830184613956565b92915050565b60008115159050919050565b61399581613980565b82525050565b60006020820190506139b0600083018461398c565b92915050565b6000602082840312156139cc576139cb61356f565b5b600082013567ffffffffffffffff8111156139ea576139e9613574565b5b6139f6848285016137bd565b91505092915050565b60008060408385031215613a1657613a1561356f565b5b600083013567ffffffffffffffff811115613a3457613a33613574565b5b613a40858286016137bd565b925050602083013567ffffffffffffffff811115613a6157613a60613574565b5b613a6d858286016137bd565b9150509250929050565b60008060408385031215613a8e57613a8d61356f565b5b6000613a9c858286016135c2565b925050602083013567ffffffffffffffff811115613abd57613abc613574565b5b613ac9858286016137bd565b9150509250929050565b7f4e487b7100000000000000000000000000000000000000000000000000000000600052602260045260246000fd5b60006002820490506001821680613b1a57607f821691505b602082108103613b2d57613b2c613ad3565b5b50919050565b7f436f6e74726163743a2041646d696e2063616e6e6f742072656769737465722060008201527f666f72206f7468657220726f6c65730000000000000000000000000000000000602082015250565b6000613b8f602f8361360f565b9150613b9a82613b33565b604082019050919050565b60006020820190508181036000830152613bbe81613b82565b9050919050565b7f436f6e74726163743a204164647265737320616c72656164792072656769737460008201527f657265642061732070617469656e740000000000000000000000000000000000602082015250565b6000613c21602f8361360f565b9150613c2c82613bc5565b604082019050919050565b60006020820190508181036000830152613c5081613c14565b9050919050565b7f436f6e74726163743a20456d7074792068617368206973206e6f7420616c6c6f60008201527f7765640000000000000000000000000000000000000000000000000000000000602082015250565b6000613cb360238361360f565b9150613cbe82613c57565b604082019050919050565b60006020820190508181036000830152613ce281613ca6565b9050919050565b7f4e6f7420416c6c6f776564000000000000000000000000000000000000000000600082015250565b6000613d1f600b8361360f565b9150613d2a82613ce9565b602082019050919050565b60006020820190508181036000830152613d4e81613d12565b9050919050565b60008190508160005260206000209050919050565b60006020601f8301049050919050565b600082821b905092915050565b600060088302613db77fffffffffffffffffffffffffffffffffffffffffffffffffffffffffffffffff82613d7a565b613dc18683613d7a565b95508019841693508086168417925050509392505050565b6000819050919050565b6000819050919050565b6000613e08613e03613dfe84613dd9565b613de3565b613dd9565b9050919050565b6000819050919050565b613e2283613ded565b613e36613e2e82613e0f565b848454613d87565b825550505050565b600090565b613e4b613e3e565b613e56818484613e19565b505050565b5b81811015613e7a57613e6f600082613e43565b600181019050613e5c565b5050565b601f821115613ebf57613e9081613d55565b613e9984613d6a565b81016020851015613ea8578190505b613ebc613eb485613d6a565b830182613e5b565b50505b505050565b600082821c905092915050565b6000613ee260001984600802613ec4565b1980831691505092915050565b6000613efb8383613ed1565b9150826002028217905092915050565b613f1482613604565b67ffffffffffffffff811115613f2d57613f2c6136c0565b5b613f378254613b02565b613f42828285613e7e565b600060209050601f831160018114613f755760008415613f63578287015190505b613f6d8582613eef565b865550613fd5565b601f198416613f8386613d55565b60005b82811015613fab57848901518255600182019150602085019450602081019050613f86565b86831015613fc85784890151613fc4601f891682613ed1565b8355505b6001600288020188555050505b505050505050565b7f436f6e74726163743a20446f63746f72206e6f74207265676973746572656400600082015250565b6000614013601f8361360f565b915061401e82613fdd565b602082019050919050565b6000602082019050818103600083015261404281614006565b9050919050565b7f436f6e747261637420616c726561647920696e697469616c697a656421000000600082015250565b600061407f601d8361360f565b915061408a82614049565b602082019050919050565b600060208201905081810360008301526140ae81614072565b9050919050565b7f436f6e74726163743a20456d7074792068617368206973206e6f7420616c6c6f60008201527f7765642100000000000000000000000000000000000000000000000000000000602082015250565b600061411160248361360f565b915061411c826140b5565b604082019050919050565b6000602082019050818103600083015261414081614104565b9050919050565b7f436f6e74726163743a204164647265737320616c72656164792072656769737460008201527f6572656420617320646f63746f72000000000000000000000000000000000000602082015250565b60006141a3602e8361360f565b91506141ae82614147565b604082019050919050565b600060208201905081810360008301526141d281614196565b9050919050565b7f436f6e74726163743a20456d707479207075626c6963206b6579206973206e6f60008201527f7420616c6c6f7765642100000000000000000000000000000000000000000000602082015250565b6000614235602a8361360f565b9150614240826141d9565b604082019050919050565b6000602082019050818103600083015261426481614228565b9050919050565b7f526f6c65733a206163636f756e7420697320746865207a65726f20616464726560008201527f7373000000000000000000000000000000000000000000000000000000000000602082015250565b60006142c760228361360f565b91506142d28261426b565b604082019050919050565b600060208201905081810360008301526142f6816142ba565b9050919050565b7f4e487b7100000000000000000000000000000000000000000000000000000000600052601160045260246000fd5b600061433782613dd9565b915061434283613dd9565b925082820390508181111561435a576143596142fd565b5b92915050565b7f4e487b7100000000000000000000000000000000000000000000000000000000600052603260045260246000fd5b7f4e487b7100000000000000000000000000000000000000000000000000000000600052603160045260246000fd5b7f526f6c65733a206163636f756e7420616c72656164792068617320726f6c6500600082015250565b60006143f4601f8361360f565b91506143ff826143be565b602082019050919050565b60006020820190508181036000830152614423816143e7565b9050919050565b600061443582613dd9565b91507fffffffffffffffffffffffffffffffffffffffffffffffffffffffffffffffff8203614467576144666142fd565b5b600182019050919050565b7f526f6c65733a206163636f756e7420646f6573206e6f74206861766520726f6c60008201527f6500000000000000000000000000000000000000000000000000000000000000602082015250565b60006144ce60218361360f565b91506144d982614472565b604082019050919050565b600060208201905081810360008301526144fd816144c1565b905091905056fea26469706673582212203be5a82ddf69e57e8c67a1eee6611c602b597b3da368413e43f647c94ec83ba864736f6c63430008110033",
  "devdoc": {
    "kind": "dev",
    "methods": {
      "constructor": {
        "custom:oz-upgrades-unsafe-allow": "constructor"
      }
    },
    "version": 1
  },
  "userdoc": {
    "kind": "user",
    "methods": {},
    "version": 1
  },
  "storageLayout": {
    "storage": [
      {
        "astId": 93,
        "contract": "contracts/Contract.sol:Contract",
        "label": "_initialized",
        "offset": 0,
        "slot": "0",
        "type": "t_uint8"
      },
      {
        "astId": 96,
        "contract": "contracts/Contract.sol:Contract",
        "label": "_initializing",
        "offset": 1,
        "slot": "0",
        "type": "t_bool"
      },
      {
        "astId": 580,
        "contract": "contracts/Contract.sol:Contract",
        "label": "__gap",
        "offset": 0,
        "slot": "1",
        "type": "t_array(t_uint256)50_storage"
      },
      {
        "astId": 85,
        "contract": "contracts/Contract.sol:Contract",
        "label": "__gap",
        "offset": 0,
        "slot": "51",
        "type": "t_array(t_uint256)50_storage"
      },
      {
        "astId": 2887,
        "contract": "contracts/Contract.sol:Contract",
        "label": "admin",
        "offset": 0,
        "slot": "101",
        "type": "t_struct(Admin)2862_storage"
      },
      {
        "astId": 2890,
        "contract": "contracts/Contract.sol:Contract",
        "label": "doctors",
        "offset": 0,
        "slot": "106",
        "type": "t_struct(Doctors)2884_storage"
      },
      {
        "astId": 2893,
        "contract": "contracts/Contract.sol:Contract",
        "label": "patients",
        "offset": 0,
        "slot": "112",
        "type": "t_struct(Patients)2871_storage"
      },
      {
        "astId": 2895,
        "contract": "contracts/Contract.sol:Contract",
        "label": "initialized",
        "offset": 0,
        "slot": "117",
        "type": "t_bool"
      }
    ],
    "types": {
      "t_address": {
        "encoding": "inplace",
        "label": "address",
        "numberOfBytes": "20"
      },
      "t_array(t_address)dyn_storage": {
        "base": "t_address",
        "encoding": "dynamic_array",
        "label": "address[]",
        "numberOfBytes": "32"
      },
      "t_array(t_uint256)50_storage": {
        "base": "t_uint256",
        "encoding": "inplace",
        "label": "uint256[50]",
        "numberOfBytes": "1600"
      },
      "t_bool": {
        "encoding": "inplace",
        "label": "bool",
        "numberOfBytes": "1"
      },
      "t_mapping(t_address,t_bool)": {
        "encoding": "mapping",
        "key": "t_address",
        "label": "mapping(address => bool)",
        "numberOfBytes": "32",
        "value": "t_bool"
      },
      "t_mapping(t_address,t_string_storage)": {
        "encoding": "mapping",
        "key": "t_address",
        "label": "mapping(address => string)",
        "numberOfBytes": "32",
        "value": "t_string_storage"
      },
      "t_mapping(t_address,t_struct(Map)2321_storage)": {
        "encoding": "mapping",
        "key": "t_address",
        "label": "mapping(address => struct AddToBoolMapping.Map)",
        "numberOfBytes": "32",
        "value": "t_struct(Map)2321_storage"
      },
      "t_mapping(t_address,t_struct(MedicalRecord)2854_storage)": {
        "encoding": "mapping",
        "key": "t_address",
        "label": "mapping(address => struct Contract.MedicalRecord)",
        "numberOfBytes": "32",
        "value": "t_struct(MedicalRecord)2854_storage"
      },
      "t_mapping(t_address,t_uint256)": {
        "encoding": "mapping",
        "key": "t_address",
        "label": "mapping(address => uint256)",
        "numberOfBytes": "32",
        "value": "t_uint256"
      },
      "t_string_storage": {
        "encoding": "bytes",
        "label": "string",
        "numberOfBytes": "32"
      },
      "t_struct(Admin)2862_storage": {
        "encoding": "inplace",
        "label": "struct Contract.Admin",
        "members": [
          {
            "astId": 2856,
            "contract": "contracts/Contract.sol:Contract",
            "label": "user",
            "offset": 0,
            "slot": "0",
            "type": "t_address"
          },
          {
            "astId": 2858,
            "contract": "contracts/Contract.sol:Contract",
            "label": "public_key",
            "offset": 0,
            "slot": "1",
            "type": "t_string_storage"
          },
          {
            "astId": 2861,
            "contract": "contracts/Contract.sol:Contract",
            "label": "pending_doctors",
            "offset": 0,
            "slot": "2",
            "type": "t_struct(Map)2321_storage"
          }
        ],
        "numberOfBytes": "160"
      },
      "t_struct(Doctors)2884_storage": {
        "encoding": "inplace",
        "label": "struct Contract.Doctors",
        "members": [
          {
            "astId": 2874,
            "contract": "contracts/Contract.sol:Contract",
            "label": "users",
            "offset": 0,
            "slot": "0",
            "type": "t_struct(Role)3896_storage"
          },
          {
            "astId": 2878,
            "contract": "contracts/Contract.sol:Contract",
            "label": "public_keys",
            "offset": 0,
            "slot": "4",
            "type": "t_mapping(t_address,t_string_storage)"
          },
          {
            "astId": 2883,
            "contract": "contracts/Contract.sol:Contract",
            "label": "docToPatAccess",
            "offset": 0,
            "slot": "5",
            "type": "t_mapping(t_address,t_struct(Map)2321_storage)"
          }
        ],
        "numberOfBytes": "192"
      },
      "t_struct(Map)2321_storage": {
        "encoding": "inplace",
        "label": "struct AddToBoolMapping.Map",
        "members": [
          {
            "astId": 2312,
            "contract": "contracts/Contract.sol:Contract",
            "label": "keys",
            "offset": 0,
            "slot": "0",
            "type": "t_array(t_address)dyn_storage"
          },
          {
            "astId": 2316,
            "contract": "contracts/Contract.sol:Contract",
            "label": "values",
            "offset": 0,
            "slot": "1",
            "type": "t_mapping(t_address,t_bool)"
          },
          {
            "astId": 2320,
            "contract": "contracts/Contract.sol:Contract",
            "label": "indexOf",
            "offset": 0,
            "slot": "2",
            "type": "t_mapping(t_address,t_uint256)"
          }
        ],
        "numberOfBytes": "96"
      },
      "t_struct(Map)2512_storage": {
        "encoding": "inplace",
        "label": "struct AddToStrMapping.Map",
        "members": [
          {
            "astId": 2499,
            "contract": "contracts/Contract.sol:Contract",
            "label": "keys",
            "offset": 0,
            "slot": "0",
            "type": "t_array(t_address)dyn_storage"
          },
          {
            "astId": 2503,
            "contract": "contracts/Contract.sol:Contract",
            "label": "values",
            "offset": 0,
            "slot": "1",
            "type": "t_mapping(t_address,t_string_storage)"
          },
          {
            "astId": 2507,
            "contract": "contracts/Contract.sol:Contract",
            "label": "indexOf",
            "offset": 0,
            "slot": "2",
            "type": "t_mapping(t_address,t_uint256)"
          },
          {
            "astId": 2511,
            "contract": "contracts/Contract.sol:Contract",
            "label": "inserted",
            "offset": 0,
            "slot": "3",
            "type": "t_mapping(t_address,t_bool)"
          }
        ],
        "numberOfBytes": "128"
      },
      "t_struct(MedicalRecord)2854_storage": {
        "encoding": "inplace",
        "label": "struct Contract.MedicalRecord",
        "members": [
          {
            "astId": 2848,
            "contract": "contracts/Contract.sol:Contract",
            "label": "editor",
            "offset": 0,
            "slot": "0",
            "type": "t_address"
          },
          {
            "astId": 2851,
            "contract": "contracts/Contract.sol:Contract",
            "label": "viewers",
            "offset": 0,
            "slot": "1",
            "type": "t_array(t_address)dyn_storage"
          },
          {
            "astId": 2853,
            "contract": "contracts/Contract.sol:Contract",
            "label": "key_data_hash",
            "offset": 0,
            "slot": "2",
            "type": "t_string_storage"
          }
        ],
        "numberOfBytes": "96"
      },
      "t_struct(Patients)2871_storage": {
        "encoding": "inplace",
        "label": "struct Contract.Patients",
        "members": [
          {
            "astId": 2865,
            "contract": "contracts/Contract.sol:Contract",
            "label": "users",
            "offset": 0,
            "slot": "0",
            "type": "t_struct(Role)3896_storage"
          },
          {
            "astId": 2870,
            "contract": "contracts/Contract.sol:Contract",
            "label": "records",
            "offset": 0,
            "slot": "4",
            "type": "t_mapping(t_address,t_struct(MedicalRecord)2854_storage)"
          }
        ],
        "numberOfBytes": "160"
      },
      "t_struct(Role)3896_storage": {
        "encoding": "inplace",
        "label": "struct Roles.Role",
        "members": [
          {
            "astId": 3895,
            "contract": "contracts/Contract.sol:Contract",
            "label": "bearer",
            "offset": 0,
            "slot": "0",
            "type": "t_struct(Map)2512_storage"
          }
        ],
        "numberOfBytes": "128"
      },
      "t_uint256": {
        "encoding": "inplace",
        "label": "uint256",
        "numberOfBytes": "32"
      },
      "t_uint8": {
        "encoding": "inplace",
        "label": "uint8",
        "numberOfBytes": "1"
      }
    }
  }
}