{
  "address": "0x9206c44F2296c737A22D2dF15c092Cd8a5bf0863",
  "abi": [
    {
      "inputs": [
        {
          "internalType": "contract MinimalForwarder",
          "name": "forwarder",
          "type": "address"
        }
      ],
      "stateMutability": "nonpayable",
      "type": "constructor"
    },
    {
      "inputs": [],
      "name": "Contract__DoctorPublicKeyMissing",
      "type": "error"
    },
    {
      "inputs": [],
      "name": "Contract__NotAdmin",
      "type": "error"
    },
    {
      "inputs": [],
      "name": "Contract__NotDoctor",
      "type": "error"
    },
    {
      "inputs": [],
      "name": "Contract__NotPatient",
      "type": "error"
    },
    {
      "inputs": [],
      "name": "Contract__PendingDoctorApproval",
      "type": "error"
    },
    {
      "anonymous": false,
      "inputs": [
        {
          "indexed": true,
          "internalType": "address",
          "name": "_doctor",
          "type": "address"
        }
      ],
      "name": "DoctorApproved",
      "type": "event"
    },
    {
      "anonymous": false,
      "inputs": [
        {
          "indexed": true,
          "internalType": "address",
          "name": "_doctor",
          "type": "address"
        }
      ],
      "name": "DoctorDataChanged",
      "type": "event"
    },
    {
      "anonymous": false,
      "inputs": [
        {
          "indexed": true,
          "internalType": "address",
          "name": "_doctor",
          "type": "address"
        }
      ],
      "name": "DoctorDisapproved",
      "type": "event"
    },
    {
      "anonymous": false,
      "inputs": [
        {
          "indexed": true,
          "internalType": "address",
          "name": "_patient",
          "type": "address"
        },
        {
          "indexed": true,
          "internalType": "address",
          "name": "_newEditor",
          "type": "address"
        }
      ],
      "name": "GrantedDataAccess",
      "type": "event"
    },
    {
      "anonymous": false,
      "inputs": [
        {
          "indexed": false,
          "internalType": "uint8",
          "name": "version",
          "type": "uint8"
        }
      ],
      "name": "Initialized",
      "type": "event"
    },
    {
      "anonymous": false,
      "inputs": [
        {
          "indexed": true,
          "internalType": "address",
          "name": "_doctor",
          "type": "address"
        }
      ],
      "name": "NewDoctorRegistered",
      "type": "event"
    },
    {
      "anonymous": false,
      "inputs": [
        {
          "indexed": true,
          "internalType": "address",
          "name": "_patient",
          "type": "address"
        }
      ],
      "name": "NewPatientRegistered",
      "type": "event"
    },
    {
      "anonymous": false,
      "inputs": [
        {
          "indexed": true,
          "internalType": "address",
          "name": "_patient",
          "type": "address"
        }
      ],
      "name": "PatientGeneralDataChanged",
      "type": "event"
    },
    {
      "anonymous": false,
      "inputs": [
        {
          "indexed": true,
          "internalType": "address",
          "name": "_patient",
          "type": "address"
        },
        {
          "indexed": true,
          "internalType": "address",
          "name": "_editor",
          "type": "address"
        }
      ],
      "name": "PatientMedicalRecordChanged",
      "type": "event"
    },
    {
      "anonymous": false,
      "inputs": [
        {
          "indexed": true,
          "internalType": "address",
          "name": "_patient",
          "type": "address"
        },
        {
          "indexed": true,
          "internalType": "address",
          "name": "_oldEditor",
          "type": "address"
        }
      ],
      "name": "RevokedDataAccess",
      "type": "event"
    },
    {
      "inputs": [
        {
          "internalType": "address",
          "name": "_address",
          "type": "address"
        }
      ],
      "name": "approveDr",
      "outputs": [],
      "stateMutability": "nonpayable",
      "type": "function"
    },
    {
      "inputs": [
        {
          "internalType": "address",
          "name": "_address",
          "type": "address"
        },
        {
          "internalType": "string",
          "name": "_general_hash",
          "type": "string"
        },
        {
          "internalType": "string",
          "name": "_key_hash",
          "type": "string"
        }
      ],
      "name": "changeEditorAccess",
      "outputs": [],
      "stateMutability": "nonpayable",
      "type": "function"
    },
    {
      "inputs": [
        {
          "internalType": "address",
          "name": "_address",
          "type": "address"
        }
      ],
      "name": "disapproveDr",
      "outputs": [],
      "stateMutability": "nonpayable",
      "type": "function"
    },
    {
      "inputs": [],
      "name": "getAdmin",
      "outputs": [
        {
          "internalType": "address",
          "name": "",
          "type": "address"
        }
      ],
      "stateMutability": "view",
      "type": "function"
    },
    {
      "inputs": [],
      "name": "getAdminPubKey",
      "outputs": [
        {
          "internalType": "string",
          "name": "",
          "type": "string"
        }
      ],
      "stateMutability": "view",
      "type": "function"
    },
    {
      "inputs": [],
      "name": "getAllDrs",
      "outputs": [
        {
          "internalType": "address[]",
          "name": "",
          "type": "address[]"
        }
      ],
      "stateMutability": "view",
      "type": "function"
    },
    {
      "inputs": [],
      "name": "getAllPts",
      "outputs": [
        {
          "internalType": "address[]",
          "name": "",
          "type": "address[]"
        }
      ],
      "stateMutability": "view",
      "type": "function"
    },
    {
      "inputs": [
        {
          "internalType": "address",
          "name": "_address",
          "type": "address"
        }
      ],
      "name": "getDrHash",
      "outputs": [
        {
          "internalType": "string",
          "name": "",
          "type": "string"
        }
      ],
      "stateMutability": "view",
      "type": "function"
    },
    {
      "inputs": [],
      "name": "getDrOfPt",
      "outputs": [
        {
          "internalType": "address",
          "name": "",
          "type": "address"
        }
      ],
      "stateMutability": "view",
      "type": "function"
    },
    {
      "inputs": [
        {
          "internalType": "address",
          "name": "_address",
          "type": "address"
        }
      ],
      "name": "getDrPubKey",
      "outputs": [
        {
          "internalType": "string",
          "name": "",
          "type": "string"
        }
      ],
      "stateMutability": "view",
      "type": "function"
    },
    {
      "inputs": [],
      "name": "getPatViewers",
      "outputs": [
        {
          "internalType": "address[]",
          "name": "",
          "type": "address[]"
        }
      ],
      "stateMutability": "view",
      "type": "function"
    },
    {
      "inputs": [],
      "name": "getPendingDrs",
      "outputs": [
        {
          "internalType": "address[]",
          "name": "",
          "type": "address[]"
        }
      ],
      "stateMutability": "view",
      "type": "function"
    },
    {
      "inputs": [
        {
          "internalType": "address",
          "name": "_address",
          "type": "address"
        }
      ],
      "name": "getPtGeneralHash",
      "outputs": [
        {
          "internalType": "string",
          "name": "",
          "type": "string"
        }
      ],
      "stateMutability": "view",
      "type": "function"
    },
    {
      "inputs": [
        {
          "internalType": "address",
          "name": "_address",
          "type": "address"
        }
      ],
      "name": "getPtRecordHash",
      "outputs": [
        {
          "internalType": "string",
          "name": "",
          "type": "string"
        }
      ],
      "stateMutability": "view",
      "type": "function"
    },
    {
      "inputs": [],
      "name": "getPtsOfDr",
      "outputs": [
        {
          "internalType": "address[]",
          "name": "",
          "type": "address[]"
        }
      ],
      "stateMutability": "view",
      "type": "function"
    },
    {
      "inputs": [
        {
          "internalType": "address",
          "name": "_address",
          "type": "address"
        }
      ],
      "name": "grantViewerAccess",
      "outputs": [],
      "stateMutability": "nonpayable",
      "type": "function"
    },
    {
      "inputs": [],
      "name": "initialize",
      "outputs": [],
      "stateMutability": "nonpayable",
      "type": "function"
    },
    {
      "inputs": [
        {
          "internalType": "address",
          "name": "_address",
          "type": "address"
        }
      ],
      "name": "isAdmin",
      "outputs": [
        {
          "internalType": "bool",
          "name": "",
          "type": "bool"
        }
      ],
      "stateMutability": "view",
      "type": "function"
    },
    {
      "inputs": [
        {
          "internalType": "address",
          "name": "_address",
          "type": "address"
        }
      ],
      "name": "isDoctor",
      "outputs": [
        {
          "internalType": "bool",
          "name": "",
          "type": "bool"
        }
      ],
      "stateMutability": "view",
      "type": "function"
    },
    {
      "inputs": [
        {
          "internalType": "address",
          "name": "_address",
          "type": "address"
        }
      ],
      "name": "isDrPending",
      "outputs": [
        {
          "internalType": "bool",
          "name": "",
          "type": "bool"
        }
      ],
      "stateMutability": "view",
      "type": "function"
    },
    {
      "inputs": [
        {
          "internalType": "address",
          "name": "_address",
          "type": "address"
        }
      ],
      "name": "isDrRegistered",
      "outputs": [
        {
          "internalType": "bool",
          "name": "",
          "type": "bool"
        }
      ],
      "stateMutability": "view",
      "type": "function"
    },
    {
      "inputs": [
        {
          "internalType": "address",
          "name": "_address",
          "type": "address"
        }
      ],
      "name": "isPatient",
      "outputs": [
        {
          "internalType": "bool",
          "name": "",
          "type": "bool"
        }
      ],
      "stateMutability": "view",
      "type": "function"
    },
    {
      "inputs": [
        {
          "internalType": "address",
          "name": "forwarder",
          "type": "address"
        }
      ],
      "name": "isTrustedForwarder",
      "outputs": [
        {
          "internalType": "bool",
          "name": "",
          "type": "bool"
        }
      ],
      "stateMutability": "view",
      "type": "function"
    },
    {
      "inputs": [
        {
          "internalType": "string",
          "name": "_hash",
          "type": "string"
        }
      ],
      "name": "registerDr",
      "outputs": [],
      "stateMutability": "nonpayable",
      "type": "function"
    },
    {
      "inputs": [
        {
          "internalType": "string",
          "name": "_public_key",
          "type": "string"
        }
      ],
      "name": "registerDrConfirm",
      "outputs": [],
      "stateMutability": "nonpayable",
      "type": "function"
    },
    {
      "inputs": [
        {
          "internalType": "string",
          "name": "_hash",
          "type": "string"
        },
        {
          "internalType": "string",
          "name": "_key_data_hash",
          "type": "string"
        }
      ],
      "name": "registerPt",
      "outputs": [],
      "stateMutability": "nonpayable",
      "type": "function"
    },
    {
      "inputs": [
        {
          "internalType": "string",
          "name": "_general_hash",
          "type": "string"
        },
        {
          "internalType": "string",
          "name": "_key_hash",
          "type": "string"
        }
      ],
      "name": "removeEditorAccess",
      "outputs": [],
      "stateMutability": "nonpayable",
      "type": "function"
    },
    {
      "inputs": [
        {
          "internalType": "address",
          "name": "_address",
          "type": "address"
        }
      ],
      "name": "revokeViewerAccess",
      "outputs": [],
      "stateMutability": "nonpayable",
      "type": "function"
    },
    {
      "inputs": [
        {
          "internalType": "string",
          "name": "_public_key",
          "type": "string"
        }
      ],
      "name": "setAdminPubKey",
      "outputs": [],
      "stateMutability": "nonpayable",
      "type": "function"
    },
    {
      "inputs": [
        {
          "internalType": "string",
          "name": "_hash",
          "type": "string"
        }
      ],
      "name": "setDrHash",
      "outputs": [],
      "stateMutability": "nonpayable",
      "type": "function"
    },
    {
      "inputs": [
        {
          "internalType": "address",
          "name": "_address",
          "type": "address"
        },
        {
          "internalType": "string",
          "name": "_generalHash",
          "type": "string"
        },
        {
          "internalType": "string",
          "name": "_recordHash",
          "type": "string"
        }
      ],
      "name": "setPtBothHash",
      "outputs": [],
      "stateMutability": "nonpayable",
      "type": "function"
    },
    {
      "inputs": [
        {
          "internalType": "string",
          "name": "_hash",
          "type": "string"
        }
      ],
      "name": "setPtGeneralHash",
      "outputs": [],
      "stateMutability": "nonpayable",
      "type": "function"
    },
    {
      "inputs": [
        {
          "internalType": "address",
          "name": "_address",
          "type": "address"
        },
        {
          "internalType": "string",
          "name": "_hash",
          "type": "string"
        }
      ],
      "name": "setPtRecordHash",
      "outputs": [],
      "stateMutability": "nonpayable",
      "type": "function"
    }
  ],
  "transactionHash": "0x0fd95339eed33bec4abe13b286621c25a9b15180f33f5a8dfafd2ed872a39867",
  "args": [
    "0x6a9906A0830261be8C50B310E6d8a27aE353ae0b"
  ],
  "numDeployments": 1,
  "solcInputHash": "4871eb9117d14e091c2a121d2aaa953f",
  "bytecode": "0x60a06040523480156200001157600080fd5b50604051620049ef380380620049ef8339818101604052810190620000379190620000f2565b808073ffffffffffffffffffffffffffffffffffffffff1660808173ffffffffffffffffffffffffffffffffffffffff1681525050505062000124565b600080fd5b600073ffffffffffffffffffffffffffffffffffffffff82169050919050565b6000620000a68262000079565b9050919050565b6000620000ba8262000099565b9050919050565b620000cc81620000ad565b8114620000d857600080fd5b50565b600081519050620000ec81620000c1565b92915050565b6000602082840312156200010b576200010a62000074565b5b60006200011b84828501620000db565b91505092915050565b6080516148af62000140600039600061112b01526148af6000f3fe608060405234801561001057600080fd5b50600436106101fb5760003560e01c806388c432e11161011a578063b1e758a4116100ad578063d0d9a5e31161007c578063d0d9a5e3146105be578063d3cd4df4146105dc578063dc823aaf146105f8578063e2877b4e14610628578063f7a03a1e14610646576101fb565b8063b1e758a41461053a578063c70597ad14610556578063cce9d43e14610572578063ccfaed16146105a2576101fb565b806399eedd2a116100e957806399eedd2a146104c8578063a03de49e146104e4578063a53f514d14610500578063afb97e3d1461051e576101fb565b806388c432e11461042e5780638f7f43a91461044a5780638f9c79ed14610468578063996440c614610498576101fb565b80633d8198b4116101925780636d4bce20116101615780636d4bce20146103ba5780636e9960c3146103ea578063745ada64146104085780638129fc1c14610424576101fb565b80633d8198b41461030e5780634df0a2d41461033e578063572b6c051461036e5780635b0a7aad1461039e576101fb565b806321639f04116101ce57806321639f041461027457806324d7806c14610292578063290c61b0146102c257806332991838146102f2576101fb565b80630de9999114610200578063116461e91461021c57806312ad660f1461023a5780631da3e2dc14610256575b600080fd5b61021a6004803603810190610215919061394c565b610662565b005b61022461072f565b6040516102319190613a09565b60405180910390f35b610254600480360381019061024f9190613b60565b6107c4565b005b61025e610894565b60405161026b9190613ca9565b60405180910390f35b61027c6108a8565b6040516102899190613cda565b60405180910390f35b6102ac60048036038101906102a7919061394c565b610962565b6040516102b99190613d10565b60405180910390f35b6102dc60048036038101906102d7919061394c565b6109cf565b6040516102e99190613d10565b60405180910390f35b61030c60048036038101906103079190613d2b565b6109ef565b005b6103286004803603810190610323919061394c565b610b5e565b6040516103359190613a09565b60405180910390f35b6103586004803603810190610353919061394c565b610e9e565b6040516103659190613a09565b60405180910390f35b6103886004803603810190610383919061394c565b611127565b6040516103959190613d10565b60405180910390f35b6103b860048036038101906103b39190613d74565b61117f565b005b6103d460048036038101906103cf919061394c565b611403565b6040516103e19190613d10565b60405180910390f35b6103f2611423565b6040516103ff9190613cda565b60405180910390f35b610422600480360381019061041d919061394c565b611450565b005b61042c611552565b005b61044860048036038101906104439190613d2b565b61160a565b005b6104526116bd565b60405161045f9190613ca9565b60405180910390f35b610482600480360381019061047d919061394c565b6117db565b60405161048f9190613d10565b60405180910390f35b6104b260048036038101906104ad919061394c565b6117fb565b6040516104bf9190613d10565b60405180910390f35b6104e260048036038101906104dd9190613d2b565b6118af565b005b6104fe60048036038101906104f99190613d74565b611a98565b005b610508611ced565b6040516105159190613ca9565b60405180910390f35b61053860048036038101906105339190613d2b565b611d01565b005b610554600480360381019061054f919061394c565b611d5d565b005b610570600480360381019061056b9190613dec565b611f7a565b005b61058c6004803603810190610587919061394c565b61214b565b6040516105999190613a09565b60405180910390f35b6105bc60048036038101906105b79190613d2b565b6121aa565b005b6105c6612341565b6040516105d39190613ca9565b60405180910390f35b6105f660048036038101906105f19190613b60565b612551565b005b610612600480360381019061060d919061394c565b61272c565b60405161061f9190613a09565b60405180910390f35b610630612800565b60405161063d9190613ca9565b60405180910390f35b610660600480360381019061065b919061394c565b612894565b005b61067261066d61297b565b610962565b6106a8576040517f4d371dc700000000000000000000000000000000000000000000000000000000815260040160405180910390fd5b6106b1816117fb565b61072c576106cc81606a6000016129ad90919063ffffffff16565b1561072c576106e8816065600201612a4090919063ffffffff16565b8073ffffffffffffffffffffffffffffffffffffffff167fcc36c734faf3e8e1867fdfc3adcdcab90ac2d8e24d1a4e6a06f4212045a4e75e60405160405180910390a25b50565b60606065600101805461074190613e77565b80601f016020809104026020016040519081016040528092919081815260200182805461076d90613e77565b80156107ba5780601f1061078f576101008083540402835291602001916107ba565b820191906000526020600020905b81548152906001019060200180831161079d57829003601f168201915b5050505050905090565b60008251146107d7576107d68261160a565b5b60008151146107eb576107ea8382611f7a565b5b8273ffffffffffffffffffffffffffffffffffffffff167f761ac9ea6e18b18cdd3a3714e9ac70aa66e7d1d23a452407770c07a9185b14c560405160405180910390a261083661297b565b73ffffffffffffffffffffffffffffffffffffffff168373ffffffffffffffffffffffffffffffffffffffff167f4639ebd09dc70ce58aa60012fc9d4c5b060a92d2956bb3028238b2b6cdbe283e60405160405180910390a3505050565b60606108a3606a600001612cc3565b905090565b60006108ba6108b561297b565b6117db565b6108f0576040517fc11330e600000000000000000000000000000000000000000000000000000000815260040160405180910390fd5b607060040160006108ff61297b565b73ffffffffffffffffffffffffffffffffffffffff1673ffffffffffffffffffffffffffffffffffffffff16815260200190815260200160002060000160009054906101000a900473ffffffffffffffffffffffffffffffffffffffff16905090565b60008173ffffffffffffffffffffffffffffffffffffffff16606560000160009054906101000a900473ffffffffffffffffffffffffffffffffffffffff1673ffffffffffffffffffffffffffffffffffffffff16036109c557600190506109ca565b600090505b919050565b60006109e882606a6000016129ad90919063ffffffff16565b9050919050565b6109ff6109fa61297b565b610962565b15610a3f576040517f08c379a0000000000000000000000000000000000000000000000000000000008152600401610a3690613f1a565b60405180910390fd5b610a4f610a4a61297b565b6117db565b15610a8f576040517f08c379a0000000000000000000000000000000000000000000000000000000008152600401610a8690613fac565b60405180910390fd5b6000815103610ad3576040517f08c379a0000000000000000000000000000000000000000000000000000000008152600401610aca9061403e565b60405180910390fd5b610af3610ade61297b565b82606a600001612d589092919063ffffffff16565b610b11610afe61297b565b6065600201612dbf90919063ffffffff16565b610b1961297b565b73ffffffffffffffffffffffffffffffffffffffff167fdc1a017eaaa583cd9a9dbdf0d570cc5f2a31af0d845ab933a9ac1e85b44fabdc60405160405180910390a250565b6060610b69826117db565b610b9f576040517fc11330e600000000000000000000000000000000000000000000000000000000815260040160405180910390fd5b8173ffffffffffffffffffffffffffffffffffffffff16610bbe61297b565b73ffffffffffffffffffffffffffffffffffffffff161480610c775750610be361297b565b73ffffffffffffffffffffffffffffffffffffffff16607060040160008473ffffffffffffffffffffffffffffffffffffffff1673ffffffffffffffffffffffffffffffffffffffff16815260200190815260200160002060000160009054906101000a900473ffffffffffffffffffffffffffffffffffffffff1673ffffffffffffffffffffffffffffffffffffffff16145b80610d8457507fffffffffffffffffffffffffffffffffffffffffffffffffffffffffffffffff610d81610ca961297b565b607060040160008673ffffffffffffffffffffffffffffffffffffffff1673ffffffffffffffffffffffffffffffffffffffff168152602001908152602001600020600101805480602002602001604051908101604052809291908181526020018280548015610d6e57602002820191906000526020600020905b8160009054906101000a900473ffffffffffffffffffffffffffffffffffffffff1673ffffffffffffffffffffffffffffffffffffffff1681526020019060010190808311610d24575b5050505050612f2390919063ffffffff16565b14155b15610e5e57607060040160008373ffffffffffffffffffffffffffffffffffffffff1673ffffffffffffffffffffffffffffffffffffffff1681526020019081526020016000206002018054610dd990613e77565b80601f0160208091040260200160405190810160405280929190818152602001828054610e0590613e77565b8015610e525780601f10610e2757610100808354040283529160200191610e52565b820191906000526020600020905b815481529060010190602001808311610e3557829003601f168201915b50505050509050610e99565b6040517f08c379a0000000000000000000000000000000000000000000000000000000008152600401610e90906140aa565b60405180910390fd5b919050565b6060610ea9826117db565b610edf576040517fc11330e600000000000000000000000000000000000000000000000000000000815260040160405180910390fd5b8173ffffffffffffffffffffffffffffffffffffffff16610efe61297b565b73ffffffffffffffffffffffffffffffffffffffff161480610fb75750610f2361297b565b73ffffffffffffffffffffffffffffffffffffffff16607060040160008473ffffffffffffffffffffffffffffffffffffffff1673ffffffffffffffffffffffffffffffffffffffff16815260200190815260200160002060000160009054906101000a900473ffffffffffffffffffffffffffffffffffffffff1673ffffffffffffffffffffffffffffffffffffffff16145b806110c457507fffffffffffffffffffffffffffffffffffffffffffffffffffffffffffffffff6110c1610fe961297b565b607060040160008673ffffffffffffffffffffffffffffffffffffffff1673ffffffffffffffffffffffffffffffffffffffff1681526020019081526020016000206001018054806020026020016040519081016040528092919081815260200182805480156110ae57602002820191906000526020600020905b8160009054906101000a900473ffffffffffffffffffffffffffffffffffffffff1673ffffffffffffffffffffffffffffffffffffffff1681526020019060010190808311611064575b5050505050612f2390919063ffffffff16565b14155b156110e7576110e0826070600001612fc890919063ffffffff16565b9050611122565b6040517f08c379a0000000000000000000000000000000000000000000000000000000008152600401611119906140aa565b60405180910390fd5b919050565b60007f000000000000000000000000000000000000000000000000000000000000000073ffffffffffffffffffffffffffffffffffffffff168273ffffffffffffffffffffffffffffffffffffffff16149050919050565b61118f61118a61297b565b6117db565b6111c5576040517fc11330e600000000000000000000000000000000000000000000000000000000815260040160405180910390fd5b6000607060040160006111d661297b565b73ffffffffffffffffffffffffffffffffffffffff1673ffffffffffffffffffffffffffffffffffffffff16815260200190815260200160002060000160009054906101000a900473ffffffffffffffffffffffffffffffffffffffff16905061123e61297b565b6070600401600061124d61297b565b73ffffffffffffffffffffffffffffffffffffffff1673ffffffffffffffffffffffffffffffffffffffff16815260200190815260200160002060000160006101000a81548173ffffffffffffffffffffffffffffffffffffffff021916908373ffffffffffffffffffffffffffffffffffffffff1602179055506113236112d361297b565b606a60050160008473ffffffffffffffffffffffffffffffffffffffff1673ffffffffffffffffffffffffffffffffffffffff168152602001908152602001600020612a4090919063ffffffff16565b61134361132e61297b565b846070600001612fe89092919063ffffffff16565b816070600401600061135361297b565b73ffffffffffffffffffffffffffffffffffffffff1673ffffffffffffffffffffffffffffffffffffffff168152602001908152602001600020600201908161139c9190614280565b508073ffffffffffffffffffffffffffffffffffffffff166113bc61297b565b73ffffffffffffffffffffffffffffffffffffffff167ff16ef4b7b555540b0c4e62e7dcb98191a0423d45dcafbbc8427da7482341ec3360405160405180910390a3505050565b600061141c82606560020161300590919063ffffffff16565b9050919050565b6000606560000160009054906101000a900473ffffffffffffffffffffffffffffffffffffffff16905090565b61146061145b61297b565b610962565b611496576040517f4d371dc700000000000000000000000000000000000000000000000000000000815260040160405180910390fd5b61149f81611403565b6114de576040517f08c379a00000000000000000000000000000000000000000000000000000000081526004016114d59061439e565b60405180910390fd5b6114f581606a60000161305e90919063ffffffff16565b61150c816065600201612a4090919063ffffffff16565b8073ffffffffffffffffffffffffffffffffffffffff167f6076307a6e243fae4d646a3225cc57b9e8b008e6e370ad60ec665a1f118b821460405160405180910390a250565b607560009054906101000a900460ff16156115a2576040517f08c379a00000000000000000000000000000000000000000000000000000000081526004016115999061440a565b60405180910390fd5b6115aa61297b565b606560000160006101000a81548173ffffffffffffffffffffffffffffffffffffffff021916908373ffffffffffffffffffffffffffffffffffffffff1602179055506001607560006101000a81548160ff021916908315150217905550565b61161a61161561297b565b6117db565b611650576040517fc11330e600000000000000000000000000000000000000000000000000000000815260040160405180910390fd5b61167061165b61297b565b826070600001612fe89092919063ffffffff16565b61167861297b565b73ffffffffffffffffffffffffffffffffffffffff167f761ac9ea6e18b18cdd3a3714e9ac70aa66e7d1d23a452407770c07a9185b14c560405160405180910390a250565b60606116cf6116ca61297b565b6117db565b611705576040517fc11330e600000000000000000000000000000000000000000000000000000000815260040160405180910390fd5b6070600401600061171461297b565b73ffffffffffffffffffffffffffffffffffffffff1673ffffffffffffffffffffffffffffffffffffffff1681526020019081526020016000206001018054806020026020016040519081016040528092919081815260200182805480156117d157602002820191906000526020600020905b8160009054906101000a900473ffffffffffffffffffffffffffffffffffffffff1673ffffffffffffffffffffffffffffffffffffffff1681526020019060010190808311611787575b5050505050905090565b60006117f48260706000016129ad90919063ffffffff16565b9050919050565b600061181482606a6000016129ad90919063ffffffff16565b61182157600090506118aa565b61183882606560020161300590919063ffffffff16565b1561184657600090506118aa565b6000606a60040160008473ffffffffffffffffffffffffffffffffffffffff1673ffffffffffffffffffffffffffffffffffffffff168152602001908152602001600020805461189590613e77565b9050036118a557600090506118aa565b600190505b919050565b6118cd6118ba61297b565b606a6000016129ad90919063ffffffff16565b611903576040517ffe2fc9c600000000000000000000000000000000000000000000000000000000815260040160405180910390fd5b61192161190e61297b565b606560020161300590919063ffffffff16565b15611958576040517ff873d3b700000000000000000000000000000000000000000000000000000000815260040160405180910390fd5b6000606a600401600061196961297b565b73ffffffffffffffffffffffffffffffffffffffff1673ffffffffffffffffffffffffffffffffffffffff16815260200190815260200160002080546119ae90613e77565b9050036119e7576040517fa30132d500000000000000000000000000000000000000000000000000000000815260040160405180910390fd5b6000815103611a2b576040517f08c379a0000000000000000000000000000000000000000000000000000000008152600401611a229061449c565b60405180910390fd5b611a4b611a3661297b565b82606a600001612fe89092919063ffffffff16565b611a5361297b565b73ffffffffffffffffffffffffffffffffffffffff167f9b1ff2c5c0b9625245e5c023b81bfd70f68c959adb2ef11c90bad77ed1eae3ec60405160405180910390a250565b611aa8611aa361297b565b610962565b15611ae8576040517f08c379a0000000000000000000000000000000000000000000000000000000008152600401611adf90613f1a565b60405180910390fd5b611af8611af361297b565b6109cf565b80611b0f5750611b0e611b0961297b565b6117fb565b5b15611b4f576040517f08c379a0000000000000000000000000000000000000000000000000000000008152600401611b469061452e565b60405180910390fd5b6000825103611b93576040517f08c379a0000000000000000000000000000000000000000000000000000000008152600401611b8a9061403e565b60405180910390fd5b611bb3611b9e61297b565b836070600001612d589092919063ffffffff16565b611bbb61297b565b60706004016000611bca61297b565b73ffffffffffffffffffffffffffffffffffffffff1673ffffffffffffffffffffffffffffffffffffffff16815260200190815260200160002060000160006101000a81548173ffffffffffffffffffffffffffffffffffffffff021916908373ffffffffffffffffffffffffffffffffffffffff1602179055508060706004016000611c5561297b565b73ffffffffffffffffffffffffffffffffffffffff1673ffffffffffffffffffffffffffffffffffffffff1681526020019081526020016000206002019081611c9e9190614280565b50611ca761297b565b73ffffffffffffffffffffffffffffffffffffffff167f5e4c57283e6661a15bd50f709358b454ee373c0009cf6e48c70ec7618232cff760405160405180910390a25050565b6060611cfc6070600001612cc3565b905090565b611d11611d0c61297b565b610962565b611d47576040517f4d371dc700000000000000000000000000000000000000000000000000000000815260040160405180910390fd5b8060656001019081611d599190614280565b5050565b611d6d611d6861297b565b6117db565b611da3576040517fc11330e600000000000000000000000000000000000000000000000000000000815260040160405180910390fd5b611dac816117fb565b611de2576040517ffe2fc9c600000000000000000000000000000000000000000000000000000000815260040160405180910390fd5b611ec58160706004016000611df561297b565b73ffffffffffffffffffffffffffffffffffffffff1673ffffffffffffffffffffffffffffffffffffffff168152602001908152602001600020600101805480602002602001604051908101604052809291908181526020018280548015611eb257602002820191906000526020600020905b8160009054906101000a900473ffffffffffffffffffffffffffffffffffffffff1673ffffffffffffffffffffffffffffffffffffffff1681526020019060010190808311611e68575b50505050506130c190919063ffffffff16565b611f775760706004016000611ed861297b565b73ffffffffffffffffffffffffffffffffffffffff1673ffffffffffffffffffffffffffffffffffffffff168152602001908152602001600020600101819080600181540180825580915050600190039060005260206000200160009091909190916101000a81548173ffffffffffffffffffffffffffffffffffffffff021916908373ffffffffffffffffffffffffffffffffffffffff1602179055505b50565b611f83826117db565b611fb9576040517fc11330e600000000000000000000000000000000000000000000000000000000815260040160405180910390fd5b611fc161297b565b73ffffffffffffffffffffffffffffffffffffffff16607060040160008473ffffffffffffffffffffffffffffffffffffffff1673ffffffffffffffffffffffffffffffffffffffff16815260200190815260200160002060000160009054906101000a900473ffffffffffffffffffffffffffffffffffffffff1673ffffffffffffffffffffffffffffffffffffffff1614612093576040517f08c379a000000000000000000000000000000000000000000000000000000000815260040161208a906140aa565b60405180910390fd5b80607060040160008473ffffffffffffffffffffffffffffffffffffffff1673ffffffffffffffffffffffffffffffffffffffff16815260200190815260200160002060020190816120e59190614280565b506120ee61297b565b73ffffffffffffffffffffffffffffffffffffffff168273ffffffffffffffffffffffffffffffffffffffff167f4639ebd09dc70ce58aa60012fc9d4c5b060a92d2956bb3028238b2b6cdbe283e60405160405180910390a35050565b6060612156826109cf565b61218c576040517ffe2fc9c600000000000000000000000000000000000000000000000000000000815260040160405180910390fd5b6121a382606a600001612fc890919063ffffffff16565b9050919050565b6121ba6121b561297b565b610962565b156121fa576040517f08c379a00000000000000000000000000000000000000000000000000000000081526004016121f190613f1a565b60405180910390fd5b600081510361223e576040517f08c379a0000000000000000000000000000000000000000000000000000000008152600401612235906145c0565b60405180910390fd5b61225c61224961297b565b606a6000016129ad90919063ffffffff16565b612292576040517ffe2fc9c600000000000000000000000000000000000000000000000000000000815260040160405180910390fd5b6122b061229d61297b565b606560020161300590919063ffffffff16565b156122e7576040517ff873d3b700000000000000000000000000000000000000000000000000000000815260040160405180910390fd5b80606a60040160006122f761297b565b73ffffffffffffffffffffffffffffffffffffffff1673ffffffffffffffffffffffffffffffffffffffff168152602001908152602001600020908161233d9190614280565b5050565b606061236161234e61297b565b606a6000016129ad90919063ffffffff16565b612397576040517ffe2fc9c600000000000000000000000000000000000000000000000000000000815260040160405180910390fd5b6123b56123a261297b565b606560020161300590919063ffffffff16565b156123ec576040517ff873d3b700000000000000000000000000000000000000000000000000000000815260040160405180910390fd5b6000606a60040160006123fd61297b565b73ffffffffffffffffffffffffffffffffffffffff1673ffffffffffffffffffffffffffffffffffffffff168152602001908152602001600020805461244290613e77565b90500361247b576040517fa30132d500000000000000000000000000000000000000000000000000000000815260040160405180910390fd5b606a600501600061248a61297b565b73ffffffffffffffffffffffffffffffffffffffff1673ffffffffffffffffffffffffffffffffffffffff16815260200190815260200160002060000180548060200260200160405190810160405280929190818152602001828054801561254757602002820191906000526020600020905b8160009054906101000a900473ffffffffffffffffffffffffffffffffffffffff1673ffffffffffffffffffffffffffffffffffffffff16815260200190600101908083116124fd575b5050505050905090565b61256161255c61297b565b6117db565b612597576040517fc11330e600000000000000000000000000000000000000000000000000000000815260040160405180910390fd5b6125a0836117fb565b6125d6576040517ffe2fc9c600000000000000000000000000000000000000000000000000000000815260040160405180910390fd5b6125e0828261117f565b82607060040160006125f061297b565b73ffffffffffffffffffffffffffffffffffffffff1673ffffffffffffffffffffffffffffffffffffffff16815260200190815260200160002060000160006101000a81548173ffffffffffffffffffffffffffffffffffffffff021916908373ffffffffffffffffffffffffffffffffffffffff1602179055506126c661267661297b565b606a60050160008673ffffffffffffffffffffffffffffffffffffffff1673ffffffffffffffffffffffffffffffffffffffff168152602001908152602001600020612dbf90919063ffffffff16565b8273ffffffffffffffffffffffffffffffffffffffff166126e561297b565b73ffffffffffffffffffffffffffffffffffffffff167f8530b5eee078e08cca1f31ac43d1de021d8bc88633de63211167c795bc8c92a960405160405180910390a3505050565b6060606a60040160008373ffffffffffffffffffffffffffffffffffffffff1673ffffffffffffffffffffffffffffffffffffffff168152602001908152602001600020805461277b90613e77565b80601f01602080910402602001604051908101604052809291908181526020018280546127a790613e77565b80156127f45780601f106127c9576101008083540402835291602001916127f4565b820191906000526020600020905b8154815290600101906020018083116127d757829003601f168201915b50505050509050919050565b6060606560020160000180548060200260200160405190810160405280929190818152602001828054801561288a57602002820191906000526020600020905b8160009054906101000a900473ffffffffffffffffffffffffffffffffffffffff1673ffffffffffffffffffffffffffffffffffffffff1681526020019060010190808311612840575b5050505050905090565b6128a461289f61297b565b6117db565b6128da576040517fc11330e600000000000000000000000000000000000000000000000000000000815260040160405180910390fd5b6128e3816117fb565b612919576040517ffe2fc9c600000000000000000000000000000000000000000000000000000000815260040160405180910390fd5b612977816070600401600061292c61297b565b73ffffffffffffffffffffffffffffffffffffffff1673ffffffffffffffffffffffffffffffffffffffff1681526020019081526020016000206001016130f890919063ffffffff16565b5050565b600061298633611127565b1561299a57601436033560601c90506129a9565b6129a261331d565b90506129aa565b5b90565b60008073ffffffffffffffffffffffffffffffffffffffff168273ffffffffffffffffffffffffffffffffffffffff1603612a1d576040517f08c379a0000000000000000000000000000000000000000000000000000000008152600401612a1490614652565b60405180910390fd5b6000612a35838560000161332590919063ffffffff16565b511415905092915050565b8160010160008273ffffffffffffffffffffffffffffffffffffffff1673ffffffffffffffffffffffffffffffffffffffff16815260200190815260200160002060009054906101000a900460ff1615612cbf578160010160008273ffffffffffffffffffffffffffffffffffffffff1673ffffffffffffffffffffffffffffffffffffffff16815260200190815260200160002060006101000a81549060ff021916905560008260020160008373ffffffffffffffffffffffffffffffffffffffff1673ffffffffffffffffffffffffffffffffffffffff168152602001908152602001600020549050600060018460000180549050612b4191906146a1565b90506000846000018281548110612b5b57612b5a6146d5565b5b9060005260206000200160009054906101000a900473ffffffffffffffffffffffffffffffffffffffff169050828560020160008373ffffffffffffffffffffffffffffffffffffffff1673ffffffffffffffffffffffffffffffffffffffff168152602001908152602001600020819055508460020160008573ffffffffffffffffffffffffffffffffffffffff1673ffffffffffffffffffffffffffffffffffffffff1681526020019081526020016000206000905580856000018481548110612c2a57612c296146d5565b5b9060005260206000200160006101000a81548173ffffffffffffffffffffffffffffffffffffffff021916908373ffffffffffffffffffffffffffffffffffffffff16021790555084600001805480612c8657612c85614704565b5b6001900381819060005260206000200160006101000a81549073ffffffffffffffffffffffffffffffffffffffff021916905590555050505b5050565b606081600001600001805480602002602001604051908101604052809291908181526020018280548015612d4c57602002820191906000526020600020905b8160009054906101000a900473ffffffffffffffffffffffffffffffffffffffff1673ffffffffffffffffffffffffffffffffffffffff1681526020019060010190808311612d02575b50505050509050919050565b612d6283836129ad565b15612da2576040517f08c379a0000000000000000000000000000000000000000000000000000000008152600401612d999061477f565b60405180910390fd5b612dba8282856000016133f99092919063ffffffff16565b505050565b8160010160008273ffffffffffffffffffffffffffffffffffffffff1673ffffffffffffffffffffffffffffffffffffffff16815260200190815260200160002060009054906101000a900460ff16612f1f5760018260010160008373ffffffffffffffffffffffffffffffffffffffff1673ffffffffffffffffffffffffffffffffffffffff16815260200190815260200160002060006101000a81548160ff02191690831515021790555081600001805490508260020160008373ffffffffffffffffffffffffffffffffffffffff1673ffffffffffffffffffffffffffffffffffffffff1681526020019081526020016000208190555081600001819080600181540180825580915050600190039060005260206000200160009091909190916101000a81548173ffffffffffffffffffffffffffffffffffffffff021916908373ffffffffffffffffffffffffffffffffffffffff1602179055505b5050565b600080600090505b8351811015612f9d578273ffffffffffffffffffffffffffffffffffffffff16848281518110612f5e57612f5d6146d5565b5b602002602001015173ffffffffffffffffffffffffffffffffffffffff1603612f8a5780915050612fc2565b8080612f959061479f565b915050612f2b565b507fffffffffffffffffffffffffffffffffffffffffffffffffffffffffffffffff90505b92915050565b6060612fe0828460000161332590919063ffffffff16565b905092915050565b6130008282856000016133f99092919063ffffffff16565b505050565b60008260010160008373ffffffffffffffffffffffffffffffffffffffff1673ffffffffffffffffffffffffffffffffffffffff16815260200190815260200160002060009054906101000a900460ff16905092915050565b61306882826129ad565b6130a7576040517f08c379a000000000000000000000000000000000000000000000000000000000815260040161309e90614859565b60405180910390fd5b6130bd81836000016135ad90919063ffffffff16565b5050565b60007fffffffffffffffffffffffffffffffffffffffffffffffffffffffffffffffff6130ee8484612f23565b1415905092915050565b60008061318a8480548060200260200160405190810160405280929190818152602001828054801561317f57602002820191906000526020600020905b8160009054906101000a900473ffffffffffffffffffffffffffffffffffffffff1673ffffffffffffffffffffffffffffffffffffffff1681526020019060010190808311613135575b505050505084612f23565b90507fffffffffffffffffffffffffffffffffffffffffffffffffffffffffffffffff81036131bd576000915050613317565b60008480548060200260200160405190810160405280929190818152602001828054801561324057602002820191906000526020600020905b8160009054906101000a900473ffffffffffffffffffffffffffffffffffffffff1673ffffffffffffffffffffffffffffffffffffffff16815260200190600101908083116131f6575b50505050509050806001825161325691906146a1565b81518110613267576132666146d5565b5b6020026020010151858381548110613282576132816146d5565b5b9060005260206000200160006101000a81548173ffffffffffffffffffffffffffffffffffffffff021916908373ffffffffffffffffffffffffffffffffffffffff160217905550848054806132db576132da614704565b5b6001900381819060005260206000200160006101000a81549073ffffffffffffffffffffffffffffffffffffffff021916905590556001925050505b92915050565b600033905090565b60608260010160008373ffffffffffffffffffffffffffffffffffffffff1673ffffffffffffffffffffffffffffffffffffffff168152602001908152602001600020805461337390613e77565b80601f016020809104026020016040519081016040528092919081815260200182805461339f90613e77565b80156133ec5780601f106133c1576101008083540402835291602001916133ec565b820191906000526020600020905b8154815290600101906020018083116133cf57829003601f168201915b5050505050905092915050565b8260030160008373ffffffffffffffffffffffffffffffffffffffff1673ffffffffffffffffffffffffffffffffffffffff16815260200190815260200160002060009054906101000a900460ff166135595782600001805490508360020160008473ffffffffffffffffffffffffffffffffffffffff1673ffffffffffffffffffffffffffffffffffffffff1681526020019081526020016000208190555060018360030160008473ffffffffffffffffffffffffffffffffffffffff1673ffffffffffffffffffffffffffffffffffffffff16815260200190815260200160002060006101000a81548160ff02191690831515021790555082600001829080600181540180825580915050600190039060005260206000200160009091909190916101000a81548173ffffffffffffffffffffffffffffffffffffffff021916908373ffffffffffffffffffffffffffffffffffffffff1602179055505b808360010160008473ffffffffffffffffffffffffffffffffffffffff1673ffffffffffffffffffffffffffffffffffffffff16815260200190815260200160002090816135a79190614280565b50505050565b8160030160008273ffffffffffffffffffffffffffffffffffffffff1673ffffffffffffffffffffffffffffffffffffffff16815260200190815260200160002060009054906101000a900460ff1615613879578160010160008273ffffffffffffffffffffffffffffffffffffffff1673ffffffffffffffffffffffffffffffffffffffff168152602001908152602001600020600061364e919061387d565b8160030160008273ffffffffffffffffffffffffffffffffffffffff1673ffffffffffffffffffffffffffffffffffffffff16815260200190815260200160002060006101000a81549060ff021916905560008260020160008373ffffffffffffffffffffffffffffffffffffffff1673ffffffffffffffffffffffffffffffffffffffff1681526020019081526020016000205490506000600184600001805490506136fb91906146a1565b90506000846000018281548110613715576137146146d5565b5b9060005260206000200160009054906101000a900473ffffffffffffffffffffffffffffffffffffffff169050828560020160008373ffffffffffffffffffffffffffffffffffffffff1673ffffffffffffffffffffffffffffffffffffffff168152602001908152602001600020819055508460020160008573ffffffffffffffffffffffffffffffffffffffff1673ffffffffffffffffffffffffffffffffffffffff16815260200190815260200160002060009055808560000184815481106137e4576137e36146d5565b5b9060005260206000200160006101000a81548173ffffffffffffffffffffffffffffffffffffffff021916908373ffffffffffffffffffffffffffffffffffffffff160217905550846000018054806138405761383f614704565b5b6001900381819060005260206000200160006101000a81549073ffffffffffffffffffffffffffffffffffffffff021916905590555050505b5050565b50805461388990613e77565b6000825580601f1061389b57506138ba565b601f0160209004906000526020600020908101906138b991906138bd565b5b50565b5b808211156138d65760008160009055506001016138be565b5090565b6000604051905090565b600080fd5b600080fd5b600073ffffffffffffffffffffffffffffffffffffffff82169050919050565b6000613919826138ee565b9050919050565b6139298161390e565b811461393457600080fd5b50565b60008135905061394681613920565b92915050565b600060208284031215613962576139616138e4565b5b600061397084828501613937565b91505092915050565b600081519050919050565b600082825260208201905092915050565b60005b838110156139b3578082015181840152602081019050613998565b60008484015250505050565b6000601f19601f8301169050919050565b60006139db82613979565b6139e58185613984565b93506139f5818560208601613995565b6139fe816139bf565b840191505092915050565b60006020820190508181036000830152613a2381846139d0565b905092915050565b600080fd5b600080fd5b7f4e487b7100000000000000000000000000000000000000000000000000000000600052604160045260246000fd5b613a6d826139bf565b810181811067ffffffffffffffff82111715613a8c57613a8b613a35565b5b80604052505050565b6000613a9f6138da565b9050613aab8282613a64565b919050565b600067ffffffffffffffff821115613acb57613aca613a35565b5b613ad4826139bf565b9050602081019050919050565b82818337600083830152505050565b6000613b03613afe84613ab0565b613a95565b905082815260208101848484011115613b1f57613b1e613a30565b5b613b2a848285613ae1565b509392505050565b600082601f830112613b4757613b46613a2b565b5b8135613b57848260208601613af0565b91505092915050565b600080600060608486031215613b7957613b786138e4565b5b6000613b8786828701613937565b935050602084013567ffffffffffffffff811115613ba857613ba76138e9565b5b613bb486828701613b32565b925050604084013567ffffffffffffffff811115613bd557613bd46138e9565b5b613be186828701613b32565b9150509250925092565b600081519050919050565b600082825260208201905092915050565b6000819050602082019050919050565b613c208161390e565b82525050565b6000613c328383613c17565b60208301905092915050565b6000602082019050919050565b6000613c5682613beb565b613c608185613bf6565b9350613c6b83613c07565b8060005b83811015613c9c578151613c838882613c26565b9750613c8e83613c3e565b925050600181019050613c6f565b5085935050505092915050565b60006020820190508181036000830152613cc38184613c4b565b905092915050565b613cd48161390e565b82525050565b6000602082019050613cef6000830184613ccb565b92915050565b60008115159050919050565b613d0a81613cf5565b82525050565b6000602082019050613d256000830184613d01565b92915050565b600060208284031215613d4157613d406138e4565b5b600082013567ffffffffffffffff811115613d5f57613d5e6138e9565b5b613d6b84828501613b32565b91505092915050565b60008060408385031215613d8b57613d8a6138e4565b5b600083013567ffffffffffffffff811115613da957613da86138e9565b5b613db585828601613b32565b925050602083013567ffffffffffffffff811115613dd657613dd56138e9565b5b613de285828601613b32565b9150509250929050565b60008060408385031215613e0357613e026138e4565b5b6000613e1185828601613937565b925050602083013567ffffffffffffffff811115613e3257613e316138e9565b5b613e3e85828601613b32565b9150509250929050565b7f4e487b7100000000000000000000000000000000000000000000000000000000600052602260045260246000fd5b60006002820490506001821680613e8f57607f821691505b602082108103613ea257613ea1613e48565b5b50919050565b7f436f6e74726163743a2041646d696e2063616e6e6f742072656769737465722060008201527f666f72206f7468657220726f6c65730000000000000000000000000000000000602082015250565b6000613f04602f83613984565b9150613f0f82613ea8565b604082019050919050565b60006020820190508181036000830152613f3381613ef7565b9050919050565b7f436f6e74726163743a204164647265737320616c72656164792072656769737460008201527f657265642061732070617469656e740000000000000000000000000000000000602082015250565b6000613f96602f83613984565b9150613fa182613f3a565b604082019050919050565b60006020820190508181036000830152613fc581613f89565b9050919050565b7f436f6e74726163743a20456d7074792068617368206973206e6f7420616c6c6f60008201527f7765640000000000000000000000000000000000000000000000000000000000602082015250565b6000614028602383613984565b915061403382613fcc565b604082019050919050565b600060208201905081810360008301526140578161401b565b9050919050565b7f4e6f7420416c6c6f776564000000000000000000000000000000000000000000600082015250565b6000614094600b83613984565b915061409f8261405e565b602082019050919050565b600060208201905081810360008301526140c381614087565b9050919050565b60008190508160005260206000209050919050565b60006020601f8301049050919050565b600082821b905092915050565b60006008830261412c7fffffffffffffffffffffffffffffffffffffffffffffffffffffffffffffffff826140ef565b61413686836140ef565b95508019841693508086168417925050509392505050565b6000819050919050565b6000819050919050565b600061417d6141786141738461414e565b614158565b61414e565b9050919050565b6000819050919050565b61419783614162565b6141ab6141a382614184565b8484546140fc565b825550505050565b600090565b6141c06141b3565b6141cb81848461418e565b505050565b5b818110156141ef576141e46000826141b8565b6001810190506141d1565b5050565b601f82111561423457614205816140ca565b61420e846140df565b8101602085101561421d578190505b614231614229856140df565b8301826141d0565b50505b505050565b600082821c905092915050565b600061425760001984600802614239565b1980831691505092915050565b60006142708383614246565b9150826002028217905092915050565b61428982613979565b67ffffffffffffffff8111156142a2576142a1613a35565b5b6142ac8254613e77565b6142b78282856141f3565b600060209050601f8311600181146142ea57600084156142d8578287015190505b6142e28582614264565b86555061434a565b601f1984166142f8866140ca565b60005b82811015614320578489015182556001820191506020850194506020810190506142fb565b8683101561433d5784890151614339601f891682614246565b8355505b6001600288020188555050505b505050505050565b7f436f6e74726163743a20446f63746f72206e6f74207265676973746572656400600082015250565b6000614388601f83613984565b915061439382614352565b602082019050919050565b600060208201905081810360008301526143b78161437b565b9050919050565b7f436f6e747261637420616c726561647920696e697469616c697a656421000000600082015250565b60006143f4601d83613984565b91506143ff826143be565b602082019050919050565b60006020820190508181036000830152614423816143e7565b9050919050565b7f436f6e74726163743a20456d7074792068617368206973206e6f7420616c6c6f60008201527f7765642100000000000000000000000000000000000000000000000000000000602082015250565b6000614486602483613984565b91506144918261442a565b604082019050919050565b600060208201905081810360008301526144b581614479565b9050919050565b7f436f6e74726163743a204164647265737320616c72656164792072656769737460008201527f6572656420617320646f63746f72000000000000000000000000000000000000602082015250565b6000614518602e83613984565b9150614523826144bc565b604082019050919050565b600060208201905081810360008301526145478161450b565b9050919050565b7f436f6e74726163743a20456d707479207075626c6963206b6579206973206e6f60008201527f7420616c6c6f7765642100000000000000000000000000000000000000000000602082015250565b60006145aa602a83613984565b91506145b58261454e565b604082019050919050565b600060208201905081810360008301526145d98161459d565b9050919050565b7f526f6c65733a206163636f756e7420697320746865207a65726f20616464726560008201527f7373000000000000000000000000000000000000000000000000000000000000602082015250565b600061463c602283613984565b9150614647826145e0565b604082019050919050565b6000602082019050818103600083015261466b8161462f565b9050919050565b7f4e487b7100000000000000000000000000000000000000000000000000000000600052601160045260246000fd5b60006146ac8261414e565b91506146b78361414e565b92508282039050818111156146cf576146ce614672565b5b92915050565b7f4e487b7100000000000000000000000000000000000000000000000000000000600052603260045260246000fd5b7f4e487b7100000000000000000000000000000000000000000000000000000000600052603160045260246000fd5b7f526f6c65733a206163636f756e7420616c72656164792068617320726f6c6500600082015250565b6000614769601f83613984565b915061477482614733565b602082019050919050565b600060208201905081810360008301526147988161475c565b9050919050565b60006147aa8261414e565b91507fffffffffffffffffffffffffffffffffffffffffffffffffffffffffffffffff82036147dc576147db614672565b5b600182019050919050565b7f526f6c65733a206163636f756e7420646f6573206e6f74206861766520726f6c60008201527f6500000000000000000000000000000000000000000000000000000000000000602082015250565b6000614843602183613984565b915061484e826147e7565b604082019050919050565b6000602082019050818103600083015261487281614836565b905091905056fea264697066735822122071bf1d1657a6a1ad495e4381bcfe15c0551e4e6893eba55f0ba7d59290719cf364736f6c63430008110033",
  "devdoc": {
    "kind": "dev",
    "methods": {
      "constructor": {
        "custom:oz-upgrades-unsafe-allow": "constructor"
      }
    },
    "version": 1
  },
  "userdoc": {
    "kind": "user",
    "methods": {},
    "version": 1
  },
  "storageLayout": {
    "storage": [
      {
        "astId": 93,
        "contract": "contracts/Contract.sol:Contract",
        "label": "_initialized",
        "offset": 0,
        "slot": "0",
        "type": "t_uint8"
      },
      {
        "astId": 96,
        "contract": "contracts/Contract.sol:Contract",
        "label": "_initializing",
        "offset": 1,
        "slot": "0",
        "type": "t_bool"
      },
      {
        "astId": 580,
        "contract": "contracts/Contract.sol:Contract",
        "label": "__gap",
        "offset": 0,
        "slot": "1",
        "type": "t_array(t_uint256)50_storage"
      },
      {
        "astId": 85,
        "contract": "contracts/Contract.sol:Contract",
        "label": "__gap",
        "offset": 0,
        "slot": "51",
        "type": "t_array(t_uint256)50_storage"
      },
      {
        "astId": 2929,
        "contract": "contracts/Contract.sol:Contract",
        "label": "admin",
        "offset": 0,
        "slot": "101",
        "type": "t_struct(Admin)2904_storage"
      },
      {
        "astId": 2932,
        "contract": "contracts/Contract.sol:Contract",
        "label": "doctors",
        "offset": 0,
        "slot": "106",
        "type": "t_struct(Doctors)2926_storage"
      },
      {
        "astId": 2935,
        "contract": "contracts/Contract.sol:Contract",
        "label": "patients",
        "offset": 0,
        "slot": "112",
        "type": "t_struct(Patients)2913_storage"
      },
      {
        "astId": 2937,
        "contract": "contracts/Contract.sol:Contract",
        "label": "initialized",
        "offset": 0,
        "slot": "117",
        "type": "t_bool"
      }
    ],
    "types": {
      "t_address": {
        "encoding": "inplace",
        "label": "address",
        "numberOfBytes": "20"
      },
      "t_array(t_address)dyn_storage": {
        "base": "t_address",
        "encoding": "dynamic_array",
        "label": "address[]",
        "numberOfBytes": "32"
      },
      "t_array(t_uint256)50_storage": {
        "base": "t_uint256",
        "encoding": "inplace",
        "label": "uint256[50]",
        "numberOfBytes": "1600"
      },
      "t_bool": {
        "encoding": "inplace",
        "label": "bool",
        "numberOfBytes": "1"
      },
      "t_mapping(t_address,t_bool)": {
        "encoding": "mapping",
        "key": "t_address",
        "label": "mapping(address => bool)",
        "numberOfBytes": "32",
        "value": "t_bool"
      },
      "t_mapping(t_address,t_string_storage)": {
        "encoding": "mapping",
        "key": "t_address",
        "label": "mapping(address => string)",
        "numberOfBytes": "32",
        "value": "t_string_storage"
      },
      "t_mapping(t_address,t_struct(Map)2321_storage)": {
        "encoding": "mapping",
        "key": "t_address",
        "label": "mapping(address => struct AddToBoolMapping.Map)",
        "numberOfBytes": "32",
        "value": "t_struct(Map)2321_storage"
      },
      "t_mapping(t_address,t_struct(MedicalRecord)2896_storage)": {
        "encoding": "mapping",
        "key": "t_address",
        "label": "mapping(address => struct Contract.MedicalRecord)",
        "numberOfBytes": "32",
        "value": "t_struct(MedicalRecord)2896_storage"
      },
      "t_mapping(t_address,t_uint256)": {
        "encoding": "mapping",
        "key": "t_address",
        "label": "mapping(address => uint256)",
        "numberOfBytes": "32",
        "value": "t_uint256"
      },
      "t_string_storage": {
        "encoding": "bytes",
        "label": "string",
        "numberOfBytes": "32"
      },
      "t_struct(Admin)2904_storage": {
        "encoding": "inplace",
        "label": "struct Contract.Admin",
        "members": [
          {
            "astId": 2898,
            "contract": "contracts/Contract.sol:Contract",
            "label": "user",
            "offset": 0,
            "slot": "0",
            "type": "t_address"
          },
          {
            "astId": 2900,
            "contract": "contracts/Contract.sol:Contract",
            "label": "public_key",
            "offset": 0,
            "slot": "1",
            "type": "t_string_storage"
          },
          {
            "astId": 2903,
            "contract": "contracts/Contract.sol:Contract",
            "label": "pending_doctors",
            "offset": 0,
            "slot": "2",
            "type": "t_struct(Map)2321_storage"
          }
        ],
        "numberOfBytes": "160"
      },
      "t_struct(Doctors)2926_storage": {
        "encoding": "inplace",
        "label": "struct Contract.Doctors",
        "members": [
          {
            "astId": 2916,
            "contract": "contracts/Contract.sol:Contract",
            "label": "users",
            "offset": 0,
            "slot": "0",
            "type": "t_struct(Role)3994_storage"
          },
          {
            "astId": 2920,
            "contract": "contracts/Contract.sol:Contract",
            "label": "public_keys",
            "offset": 0,
            "slot": "4",
            "type": "t_mapping(t_address,t_string_storage)"
          },
          {
            "astId": 2925,
            "contract": "contracts/Contract.sol:Contract",
            "label": "docToPatAccess",
            "offset": 0,
            "slot": "5",
            "type": "t_mapping(t_address,t_struct(Map)2321_storage)"
          }
        ],
        "numberOfBytes": "192"
      },
      "t_struct(Map)2321_storage": {
        "encoding": "inplace",
        "label": "struct AddToBoolMapping.Map",
        "members": [
          {
            "astId": 2312,
            "contract": "contracts/Contract.sol:Contract",
            "label": "keys",
            "offset": 0,
            "slot": "0",
            "type": "t_array(t_address)dyn_storage"
          },
          {
            "astId": 2316,
            "contract": "contracts/Contract.sol:Contract",
            "label": "values",
            "offset": 0,
            "slot": "1",
            "type": "t_mapping(t_address,t_bool)"
          },
          {
            "astId": 2320,
            "contract": "contracts/Contract.sol:Contract",
            "label": "indexOf",
            "offset": 0,
            "slot": "2",
            "type": "t_mapping(t_address,t_uint256)"
          }
        ],
        "numberOfBytes": "96"
      },
      "t_struct(Map)2512_storage": {
        "encoding": "inplace",
        "label": "struct AddToStrMapping.Map",
        "members": [
          {
            "astId": 2499,
            "contract": "contracts/Contract.sol:Contract",
            "label": "keys",
            "offset": 0,
            "slot": "0",
            "type": "t_array(t_address)dyn_storage"
          },
          {
            "astId": 2503,
            "contract": "contracts/Contract.sol:Contract",
            "label": "values",
            "offset": 0,
            "slot": "1",
            "type": "t_mapping(t_address,t_string_storage)"
          },
          {
            "astId": 2507,
            "contract": "contracts/Contract.sol:Contract",
            "label": "indexOf",
            "offset": 0,
            "slot": "2",
            "type": "t_mapping(t_address,t_uint256)"
          },
          {
            "astId": 2511,
            "contract": "contracts/Contract.sol:Contract",
            "label": "inserted",
            "offset": 0,
            "slot": "3",
            "type": "t_mapping(t_address,t_bool)"
          }
        ],
        "numberOfBytes": "128"
      },
      "t_struct(MedicalRecord)2896_storage": {
        "encoding": "inplace",
        "label": "struct Contract.MedicalRecord",
        "members": [
          {
            "astId": 2890,
            "contract": "contracts/Contract.sol:Contract",
            "label": "editor",
            "offset": 0,
            "slot": "0",
            "type": "t_address"
          },
          {
            "astId": 2893,
            "contract": "contracts/Contract.sol:Contract",
            "label": "viewers",
            "offset": 0,
            "slot": "1",
            "type": "t_array(t_address)dyn_storage"
          },
          {
            "astId": 2895,
            "contract": "contracts/Contract.sol:Contract",
            "label": "key_data_hash",
            "offset": 0,
            "slot": "2",
            "type": "t_string_storage"
          }
        ],
        "numberOfBytes": "96"
      },
      "t_struct(Patients)2913_storage": {
        "encoding": "inplace",
        "label": "struct Contract.Patients",
        "members": [
          {
            "astId": 2907,
            "contract": "contracts/Contract.sol:Contract",
            "label": "users",
            "offset": 0,
            "slot": "0",
            "type": "t_struct(Role)3994_storage"
          },
          {
            "astId": 2912,
            "contract": "contracts/Contract.sol:Contract",
            "label": "records",
            "offset": 0,
            "slot": "4",
            "type": "t_mapping(t_address,t_struct(MedicalRecord)2896_storage)"
          }
        ],
        "numberOfBytes": "160"
      },
      "t_struct(Role)3994_storage": {
        "encoding": "inplace",
        "label": "struct Roles.Role",
        "members": [
          {
            "astId": 3993,
            "contract": "contracts/Contract.sol:Contract",
            "label": "bearer",
            "offset": 0,
            "slot": "0",
            "type": "t_struct(Map)2512_storage"
          }
        ],
        "numberOfBytes": "128"
      },
      "t_uint256": {
        "encoding": "inplace",
        "label": "uint256",
        "numberOfBytes": "32"
      },
      "t_uint8": {
        "encoding": "inplace",
        "label": "uint8",
        "numberOfBytes": "1"
      }
    }
  }
}