{
  "address": "0x824898BAaE1916c304DA637BA101b55300FD6AB7",
  "abi": [
    {
      "inputs": [],
      "stateMutability": "nonpayable",
      "type": "constructor"
    },
    {
      "inputs": [],
      "name": "Contract__DoctorPublicKeyMissing",
      "type": "error"
    },
    {
      "inputs": [],
      "name": "Contract__NotAdmin",
      "type": "error"
    },
    {
      "inputs": [],
      "name": "Contract__NotDoctor",
      "type": "error"
    },
    {
      "inputs": [],
      "name": "Contract__NotPatient",
      "type": "error"
    },
    {
      "inputs": [],
      "name": "Contract__PendingDoctorApproval",
      "type": "error"
    },
    {
      "inputs": [
        {
          "internalType": "address",
          "name": "_address",
          "type": "address"
        }
      ],
      "name": "approveDr",
      "outputs": [],
      "stateMutability": "nonpayable",
      "type": "function"
    },
    {
      "inputs": [
        {
          "internalType": "address",
          "name": "_address",
          "type": "address"
        },
        {
          "internalType": "string",
          "name": "_general_hash",
          "type": "string"
        },
        {
          "internalType": "string",
          "name": "_key_hash",
          "type": "string"
        }
      ],
      "name": "changeEditorAccess",
      "outputs": [],
      "stateMutability": "nonpayable",
      "type": "function"
    },
    {
      "inputs": [
        {
          "internalType": "address",
          "name": "_address",
          "type": "address"
        }
      ],
      "name": "disapproveDr",
      "outputs": [],
      "stateMutability": "nonpayable",
      "type": "function"
    },
    {
      "inputs": [],
      "name": "getAdmin",
      "outputs": [
        {
          "internalType": "address",
          "name": "",
          "type": "address"
        }
      ],
      "stateMutability": "view",
      "type": "function"
    },
    {
      "inputs": [],
      "name": "getAdminPubKey",
      "outputs": [
        {
          "internalType": "string",
          "name": "",
          "type": "string"
        }
      ],
      "stateMutability": "view",
      "type": "function"
    },
    {
      "inputs": [],
      "name": "getAllDrs",
      "outputs": [
        {
          "internalType": "address[]",
          "name": "",
          "type": "address[]"
        }
      ],
      "stateMutability": "view",
      "type": "function"
    },
    {
      "inputs": [],
      "name": "getAllPts",
      "outputs": [
        {
          "internalType": "address[]",
          "name": "",
          "type": "address[]"
        }
      ],
      "stateMutability": "view",
      "type": "function"
    },
    {
      "inputs": [
        {
          "internalType": "address",
          "name": "_address",
          "type": "address"
        }
      ],
      "name": "getDrHash",
      "outputs": [
        {
          "internalType": "string",
          "name": "",
          "type": "string"
        }
      ],
      "stateMutability": "view",
      "type": "function"
    },
    {
      "inputs": [],
      "name": "getDrOfPt",
      "outputs": [
        {
          "internalType": "address",
          "name": "",
          "type": "address"
        }
      ],
      "stateMutability": "view",
      "type": "function"
    },
    {
      "inputs": [
        {
          "internalType": "address",
          "name": "_address",
          "type": "address"
        }
      ],
      "name": "getDrPubKey",
      "outputs": [
        {
          "internalType": "string",
          "name": "",
          "type": "string"
        }
      ],
      "stateMutability": "view",
      "type": "function"
    },
    {
      "inputs": [],
      "name": "getPatViewers",
      "outputs": [
        {
          "internalType": "address[]",
          "name": "",
          "type": "address[]"
        }
      ],
      "stateMutability": "view",
      "type": "function"
    },
    {
      "inputs": [],
      "name": "getPendingDrs",
      "outputs": [
        {
          "internalType": "address[]",
          "name": "",
          "type": "address[]"
        }
      ],
      "stateMutability": "view",
      "type": "function"
    },
    {
      "inputs": [
        {
          "internalType": "address",
          "name": "_address",
          "type": "address"
        }
      ],
      "name": "getPtGeneralHash",
      "outputs": [
        {
          "internalType": "string",
          "name": "",
          "type": "string"
        }
      ],
      "stateMutability": "view",
      "type": "function"
    },
    {
      "inputs": [
        {
          "internalType": "address",
          "name": "_address",
          "type": "address"
        }
      ],
      "name": "getPtRecordHash",
      "outputs": [
        {
          "internalType": "string",
          "name": "",
          "type": "string"
        }
      ],
      "stateMutability": "view",
      "type": "function"
    },
    {
      "inputs": [],
      "name": "getPtsOfDr",
      "outputs": [
        {
          "internalType": "address[]",
          "name": "",
          "type": "address[]"
        }
      ],
      "stateMutability": "view",
      "type": "function"
    },
    {
      "inputs": [
        {
          "internalType": "address",
          "name": "_address",
          "type": "address"
        }
      ],
      "name": "grantViewerAccess",
      "outputs": [],
      "stateMutability": "nonpayable",
      "type": "function"
    },
    {
      "inputs": [
        {
          "internalType": "address",
          "name": "_address",
          "type": "address"
        }
      ],
      "name": "isAdmin",
      "outputs": [
        {
          "internalType": "bool",
          "name": "",
          "type": "bool"
        }
      ],
      "stateMutability": "view",
      "type": "function"
    },
    {
      "inputs": [
        {
          "internalType": "address",
          "name": "_address",
          "type": "address"
        }
      ],
      "name": "isDoctor",
      "outputs": [
        {
          "internalType": "bool",
          "name": "",
          "type": "bool"
        }
      ],
      "stateMutability": "view",
      "type": "function"
    },
    {
      "inputs": [
        {
          "internalType": "address",
          "name": "_address",
          "type": "address"
        }
      ],
      "name": "isDrPending",
      "outputs": [
        {
          "internalType": "bool",
          "name": "",
          "type": "bool"
        }
      ],
      "stateMutability": "view",
      "type": "function"
    },
    {
      "inputs": [
        {
          "internalType": "address",
          "name": "_address",
          "type": "address"
        }
      ],
      "name": "isDrRegistered",
      "outputs": [
        {
          "internalType": "bool",
          "name": "",
          "type": "bool"
        }
      ],
      "stateMutability": "view",
      "type": "function"
    },
    {
      "inputs": [
        {
          "internalType": "address",
          "name": "_address",
          "type": "address"
        }
      ],
      "name": "isPatient",
      "outputs": [
        {
          "internalType": "bool",
          "name": "",
          "type": "bool"
        }
      ],
      "stateMutability": "view",
      "type": "function"
    },
    {
      "inputs": [
        {
          "internalType": "string",
          "name": "_hash",
          "type": "string"
        }
      ],
      "name": "registerDr",
      "outputs": [],
      "stateMutability": "nonpayable",
      "type": "function"
    },
    {
      "inputs": [
        {
          "internalType": "string",
          "name": "_public_key",
          "type": "string"
        }
      ],
      "name": "registerDrConfirm",
      "outputs": [],
      "stateMutability": "nonpayable",
      "type": "function"
    },
    {
      "inputs": [
        {
          "internalType": "string",
          "name": "_hash",
          "type": "string"
        },
        {
          "internalType": "string",
          "name": "_key_data_hash",
          "type": "string"
        }
      ],
      "name": "registerPt",
      "outputs": [],
      "stateMutability": "nonpayable",
      "type": "function"
    },
    {
      "inputs": [
        {
          "internalType": "string",
          "name": "_general_hash",
          "type": "string"
        },
        {
          "internalType": "string",
          "name": "_key_hash",
          "type": "string"
        }
      ],
      "name": "removeEditorAccess",
      "outputs": [],
      "stateMutability": "nonpayable",
      "type": "function"
    },
    {
      "inputs": [
        {
          "internalType": "address",
          "name": "_address",
          "type": "address"
        }
      ],
      "name": "revokeViewerAccess",
      "outputs": [],
      "stateMutability": "nonpayable",
      "type": "function"
    },
    {
      "inputs": [
        {
          "internalType": "string",
          "name": "_public_key",
          "type": "string"
        }
      ],
      "name": "setAdminPubKey",
      "outputs": [],
      "stateMutability": "nonpayable",
      "type": "function"
    },
    {
      "inputs": [
        {
          "internalType": "string",
          "name": "_hash",
          "type": "string"
        }
      ],
      "name": "setDrHash",
      "outputs": [],
      "stateMutability": "nonpayable",
      "type": "function"
    },
    {
      "inputs": [
        {
          "internalType": "string",
          "name": "_hash",
          "type": "string"
        }
      ],
      "name": "setPtGeneralHash",
      "outputs": [],
      "stateMutability": "nonpayable",
      "type": "function"
    },
    {
      "inputs": [
        {
          "internalType": "address",
          "name": "_address",
          "type": "address"
        },
        {
          "internalType": "string",
          "name": "_hash",
          "type": "string"
        }
      ],
      "name": "setPtRecordHash",
      "outputs": [],
      "stateMutability": "nonpayable",
      "type": "function"
    }
  ],
  "transactionHash": "0xcfeba11831b3911d27b5b1dc4dec21c0e934a25cb48d6211d71df755561f73cb",
  "args": [],
  "numDeployments": 2,
  "solcInputHash": "7708481a0fd6699af9ec91073c95fec1",
  "bytecode": "0x608060405234801561001057600080fd5b50600080546001600160a01b03191633179055612507806100326000396000f3fe608060405234801561001057600080fd5b50600436106101da5760003560e01c80638f9c79ed11610104578063c70597ad116100a2578063d3cd4df411610071578063d3cd4df4146103d6578063dc823aaf146103e9578063e2877b4e146103fc578063f7a03a1e1461040457600080fd5b8063c70597ad14610395578063cce9d43e146103a8578063ccfaed16146103bb578063d0d9a5e3146103ce57600080fd5b8063a03de49e116100de578063a03de49e14610354578063a53f514d14610367578063afb97e3d1461036f578063b1e758a41461038257600080fd5b80638f9c79ed1461031b578063996440c61461032e57806399eedd2a1461034157600080fd5b80633d8198b41161017c5780636e9960c31161014b5780636e9960c3146102dc578063745ada64146102ed57806388c432e1146103005780638f7f43a91461031357600080fd5b80633d8198b4146102905780634df0a2d4146102a35780635b0a7aad146102b65780636d4bce20146102c957600080fd5b806321639f04116101b857806321639f041461022757806324d7806c14610247578063290c61b01461026a578063329918381461027d57600080fd5b80630de99991146101df578063116461e9146101f45780631da3e2dc14610212575b600080fd5b6101f26101ed366004611f91565b610417565b005b6101fc610482565b6040516102099190611fac565b60405180910390f35b61021a610517565b6040516102099190612018565b61022f610528565b6040516001600160a01b039091168152602001610209565b61025a610255366004611f91565b610586565b6040519015158152602001610209565b61025a610278366004611f91565b6105ac565b6101f261028b36600461213f565b6105bf565b6101fc61029e366004611f91565b6106ce565b6101fc6102b1366004611f91565b6108c9565b6101f26102c436600461217c565b6109da565b61025a6102d7366004611f91565b610aa3565b6000546001600160a01b031661022f565b6101f26102fb366004611f91565b610ac4565b6101f261030e36600461213f565b610b63565b61021a610bae565b61025a610329366004611f91565b610c5a565b61025a61033c366004611f91565b610c67565b6101f261034f36600461213f565b610ce5565b6101f261036236600461217c565b610e47565b61021a610f9f565b6101f261037d36600461213f565b610fab565b6101f2610390366004611f91565b610ffa565b6101f26103a33660046121e0565b611151565b6101fc6103b6366004611f91565b61121e565b6101f26103c936600461213f565b61126a565b61021a611385565b6101f26103e4366004612224565b6114ce565b6101fc6103f7366004611f91565b6115ae565b61021a6115d5565b6101f2610412366004611f91565b611634565b61042033610586565b610456576040517f4d371dc700000000000000000000000000000000000000000000000000000000815260040160405180910390fd5b61045f81610c67565b61047f5761046e6005826116ce565b1561047f575b61047f600282611760565b50565b60606000600101805461049490612298565b80601f01602080910402602001604051908101604052809291908181526020018280546104c090612298565b801561050d5780601f106104e25761010080835404028352916020019161050d565b820191906000526020600020905b8154815290600101906020018083116104f057829003601f168201915b5050505050905090565b606061052360056118dd565b905090565b600061053333610c5a565b610569576040517fc11330e600000000000000000000000000000000000000000000000000000000815260040160405180910390fd5b50336000908152600f60205260409020546001600160a01b031690565b600080546001600160a01b038084169116036105a457506001919050565b506000919050565b60006105b96005836116ce565b92915050565b6105c833610c5a565b156106405760405162461bcd60e51b815260206004820152602f60248201527f436f6e74726163743a204164647265737320616c72656164792072656769737460448201527f657265642061732070617469656e74000000000000000000000000000000000060648201526084015b60405180910390fd5b80516000036106b75760405162461bcd60e51b815260206004820152602360248201527f436f6e74726163743a20456d7074792068617368206973206e6f7420616c6c6f60448201527f77656400000000000000000000000000000000000000000000000000000000006064820152608401610637565b6106c36005338361193e565b61047f6002336119a0565b60606106d982610c5a565b61070f576040517fc11330e600000000000000000000000000000000000000000000000000000000815260040160405180910390fd5b336001600160a01b038316148061073f57506001600160a01b038281166000908152600f60205260409020541633145b806107d157506001600160a01b0382166000908152600f602090815260409182902060010180548351818402810184019094528084526107cb933393909291908301828280156107b857602002820191906000526020600020905b81546001600160a01b0316815260019091019060200180831161079a575b5050505050611a5390919063ffffffff16565b60001914155b15610881576001600160a01b0382166000908152600f6020526040902060020180546107fc90612298565b80601f016020809104026020016040519081016040528092919081815260200182805461082890612298565b80156108755780601f1061084a57610100808354040283529160200191610875565b820191906000526020600020905b81548152906001019060200180831161085857829003601f168201915b50505050509050919050565b60405162461bcd60e51b815260206004820152600b60248201527f4e6f7420416c6c6f7765640000000000000000000000000000000000000000006044820152606401610637565b60606108d482610c5a565b61090a576040517fc11330e600000000000000000000000000000000000000000000000000000000815260040160405180910390fd5b336001600160a01b038316148061093a57506001600160a01b038281166000908152600f60205260409020541633145b806109ca57506001600160a01b0382166000908152600f602090815260409182902060010180548351818402810184019094528084526109c4933393909291908301828280156107b8576020028201919060005260206000209081546001600160a01b0316815260019091019060200180831161079a575050505050611a5390919063ffffffff16565b60001914155b15610881576105b9600b83611ab6565b6109e333610c5a565b610a19576040517fc11330e600000000000000000000000000000000000000000000000000000000815260040160405180910390fd5b336000818152600f6020908152604080832080547fffffffffffffffffffffffff0000000000000000000000000000000000000000811686179091556001600160a01b0316808452600a9092529091209091610a759190611760565b610a81600b3385611995565b336000908152600f60205260409020600201610a9d8382612339565b50505050565b6001600160a01b03811660009081526003602052604081205460ff166105b9565b610acd33610586565b610b03576040517f4d371dc700000000000000000000000000000000000000000000000000000000815260040160405180910390fd5b610b0c81610aa3565b610b585760405162461bcd60e51b815260206004820152601f60248201527f436f6e74726163743a20446f63746f72206e6f742072656769737465726564006044820152606401610637565b610474600582611ac9565b610b6c33610c5a565b610ba2576040517fc11330e600000000000000000000000000000000000000000000000000000000815260040160405180910390fd5b61047f600b3383611995565b6060610bb933610c5a565b610bef576040517fc11330e600000000000000000000000000000000000000000000000000000000815260040160405180910390fd5b336000908152600f60209081526040918290206001018054835181840281018401909452808452909183018282801561050d57602002820191906000526020600020905b81546001600160a01b03168152600190910190602001808311610c33575050505050905090565b60006105b9600b836116ce565b6000610c746005836116ce565b610c8057506000919050565b6001600160a01b03821660009081526003602052604090205460ff1615610ca957506000919050565b6001600160a01b03821660009081526009602052604090208054610ccc90612298565b9050600003610cdd57506000919050565b506001919050565b610cf06005336116ce565b610d26576040517ffe2fc9c600000000000000000000000000000000000000000000000000000000815260040160405180910390fd5b3360009081526003602052604090205460ff1615610d70576040517ff873d3b700000000000000000000000000000000000000000000000000000000815260040160405180910390fd5b3360009081526009602052604090208054610d8a90612298565b9050600003610dc5576040517fa30132d500000000000000000000000000000000000000000000000000000000815260040160405180910390fd5b8051600003610e3b5760405162461bcd60e51b8152602060048201526024808201527f436f6e74726163743a20456d7074792068617368206973206e6f7420616c6c6f60448201527f77656421000000000000000000000000000000000000000000000000000000006064820152608401610637565b61047f60053383611995565b610e50336105ac565b80610e5f5750610e5f33610c67565b15610ed25760405162461bcd60e51b815260206004820152602e60248201527f436f6e74726163743a204164647265737320616c72656164792072656769737460448201527f6572656420617320646f63746f720000000000000000000000000000000000006064820152608401610637565b8151600003610f495760405162461bcd60e51b815260206004820152602360248201527f436f6e74726163743a20456d7074792068617368206973206e6f7420616c6c6f60448201527f77656400000000000000000000000000000000000000000000000000000000006064820152608401610637565b610f55600b338461193e565b336000818152600f6020526040902080547fffffffffffffffffffffffff0000000000000000000000000000000000000000169091178155600201610f9a8282612339565b505050565b6060610523600b6118dd565b610fb433610586565b610fea576040517f4d371dc700000000000000000000000000000000000000000000000000000000815260040160405180910390fd5b6001610ff68282612339565b5050565b61100333610c5a565b611039576040517fc11330e600000000000000000000000000000000000000000000000000000000815260040160405180910390fd5b61104281610c67565b611078576040517ffe2fc9c600000000000000000000000000000000000000000000000000000000815260040160405180910390fd5b336000908152600f602090815260409182902060010180548351818402810184019094528084526110f5938593909291908301828280156110e257602002820191906000526020600020905b81546001600160a01b031681526001909101906020018083116110c4575b5050505050611b4f90919063ffffffff16565b61047f57336000908152600f602090815260408220600190810180549182018155835291200180546001600160a01b0383167fffffffffffffffffffffffff000000000000000000000000000000000000000090911617905550565b61115a82610c5a565b611190576040517fc11330e600000000000000000000000000000000000000000000000000000000815260040160405180910390fd5b6001600160a01b038281166000908152600f60205260409020541633146111f95760405162461bcd60e51b815260206004820152600b60248201527f4e6f7420416c6c6f7765640000000000000000000000000000000000000000006044820152606401610637565b6001600160a01b0382166000908152600f60205260409020600201610f9a8282612339565b6060611229826105ac565b61125f576040517ffe2fc9c600000000000000000000000000000000000000000000000000000000815260040160405180910390fd5b6105b9600583611ab6565b80516000036112e15760405162461bcd60e51b815260206004820152602a60248201527f436f6e74726163743a20456d707479207075626c6963206b6579206973206e6f60448201527f7420616c6c6f77656421000000000000000000000000000000000000000000006064820152608401610637565b6112ec6005336116ce565b611322576040517ffe2fc9c600000000000000000000000000000000000000000000000000000000815260040160405180910390fd5b3360009081526003602052604090205460ff161561136c576040517ff873d3b700000000000000000000000000000000000000000000000000000000815260040160405180910390fd5b336000908152600960205260409020610ff68282612339565b60606113926005336116ce565b6113c8576040517ffe2fc9c600000000000000000000000000000000000000000000000000000000815260040160405180910390fd5b3360009081526003602052604090205460ff1615611412576040517ff873d3b700000000000000000000000000000000000000000000000000000000815260040160405180910390fd5b336000908152600960205260409020805461142c90612298565b9050600003611467576040517fa30132d500000000000000000000000000000000000000000000000000000000815260040160405180910390fd5b336000908152600a60209081526040918290208054835181840281018401909452808452909183018282801561050d576020028201919060005260206000209081546001600160a01b03168152600190910190602001808311610c33575050505050905090565b6114d733610c5a565b61150d576040517fc11330e600000000000000000000000000000000000000000000000000000000815260040160405180910390fd5b61151683610c67565b61154c576040517ffe2fc9c600000000000000000000000000000000000000000000000000000000815260040160405180910390fd5b61155682826109da565b336000818152600f6020908152604080832080547fffffffffffffffffffffffff0000000000000000000000000000000000000000166001600160a01b0389169081179091558352600a9091529020610f9a916119a0565b6001600160a01b03811660009081526009602052604090208054606091906107fc90612298565b60028054604080516020808402820181019092528281526060939092909183018282801561050d576020028201919060005260206000209081546001600160a01b03168152600190910190602001808311610c33575050505050905090565b61163d33610c5a565b611673576040517fc11330e600000000000000000000000000000000000000000000000000000000815260040160405180910390fd5b61167c81610c67565b6116b2576040517ffe2fc9c600000000000000000000000000000000000000000000000000000000815260040160405180910390fd5b336000908152600f60205260409020610ff69060010182611b67565b60006001600160a01b03821661174c5760405162461bcd60e51b815260206004820152602260248201527f526f6c65733a206163636f756e7420697320746865207a65726f20616464726560448201527f73730000000000000000000000000000000000000000000000000000000000006064820152608401610637565b6117568383611cf9565b5115159392505050565b6001600160a01b038116600090815260018301602052604090205460ff16611786575050565b6001600160a01b038116600090815260018084016020908152604080842080547fffffffffffffffffffffffffffffffffffffffffffffffffffffffffffffff001690556002860190915282205484549092916117e291612446565b905060008460000182815481106117fb576117fb612459565b60009182526020808320909101546001600160a01b0390811680845260028901909252604080842087905590871683528220919091558554909150819086908590811061184a5761184a612459565b600091825260209091200180547fffffffffffffffffffffffff0000000000000000000000000000000000000000166001600160a01b0392909216919091179055845485908061189c5761189c612488565b600082815260209020810160001990810180547fffffffffffffffffffffffff00000000000000000000000000000000000000001690550190555050505050565b805460408051602080840282018101909252828152606092909184919083018282801561087557602002820191906000526020600020905b81546001600160a01b031681526001909101906020018083116119155750505050509050919050565b61194883836116ce565b156119955760405162461bcd60e51b815260206004820152601f60248201527f526f6c65733a206163636f756e7420616c72656164792068617320726f6c65006044820152606401610637565b610f9a838383611da8565b6001600160a01b038116600090815260018301602052604090205460ff16156119c7575050565b6001600160a01b0316600081815260018381016020908152604080842080547fffffffffffffffffffffffffffffffffffffffffffffffffffffffffffffff0016841790558554600287018352908420819055918201855593825292902090910180547fffffffffffffffffffffffff0000000000000000000000000000000000000000169091179055565b6000805b8351811015611aab57826001600160a01b0316848281518110611a7c57611a7c612459565b60200260200101516001600160a01b031603611a995790506105b9565b80611aa3816124b7565b915050611a57565b506000199392505050565b6060611ac28383611cf9565b9392505050565b611ad382826116ce565b611b455760405162461bcd60e51b815260206004820152602160248201527f526f6c65733a206163636f756e7420646f6573206e6f74206861766520726f6c60448201527f65000000000000000000000000000000000000000000000000000000000000006064820152608401610637565b610ff68282611e80565b6000611b5b8383611a53565b60001914159392505050565b600080611bcd84805480602002602001604051908101604052809291908181526020018280548015611bc257602002820191906000526020600020905b81546001600160a01b03168152600190910190602001808311611ba4575b505050505084611a53565b90508019611bdf5760009150506105b9565b600084805480602002602001604051908101604052809291908181526020018280548015611c3657602002820191906000526020600020905b81546001600160a01b03168152600190910190602001808311611c18575b505050505090508060018251611c4c9190612446565b81518110611c5c57611c5c612459565b6020026020010151858381548110611c7657611c76612459565b9060005260206000200160006101000a8154816001600160a01b0302191690836001600160a01b0316021790555084805480611cb457611cb4612488565b600082815260209020600019908201810180547fffffffffffffffffffffffff0000000000000000000000000000000000000000169055019055506001949350505050565b6001600160a01b03811660009081526001830160205260409020805460609190611d2290612298565b80601f0160208091040260200160405190810160405280929190818152602001828054611d4e90612298565b8015611d9b5780601f10611d7057610100808354040283529160200191611d9b565b820191906000526020600020905b815481529060010190602001808311611d7e57829003601f168201915b5050505050905092915050565b6001600160a01b038216600090815260038401602052604090205460ff16611e5c5782546001600160a01b038316600081815260028601602090815260408083209490945560038701815292812080547fffffffffffffffffffffffffffffffffffffffffffffffffffffffffffffff001660019081179091558654908101875586825292902090910180547fffffffffffffffffffffffff00000000000000000000000000000000000000001690911790555b6001600160a01b03821660009081526001840160205260409020610a9d8282612339565b6001600160a01b038116600090815260038301602052604090205460ff16611ea6575050565b6001600160a01b03811660009081526001830160205260408120611ec991611f27565b6001600160a01b0381166000908152600383016020908152604080832080547fffffffffffffffffffffffffffffffffffffffffffffffffffffffffffffff001690556002850190915281205483549091906117e290600190612446565b508054611f3390612298565b6000825580601f10611f43575050565b601f01602090049060005260206000209081019061047f91905b80821115611f715760008155600101611f5d565b5090565b80356001600160a01b0381168114611f8c57600080fd5b919050565b600060208284031215611fa357600080fd5b611ac282611f75565b600060208083528351808285015260005b81811015611fd957858101830151858201604001528201611fbd565b5060006040828601015260407fffffffffffffffffffffffffffffffffffffffffffffffffffffffffffffffe0601f8301168501019250505092915050565b6020808252825182820181905260009190848201906040850190845b818110156120595783516001600160a01b031683529284019291840191600101612034565b50909695505050505050565b7f4e487b7100000000000000000000000000000000000000000000000000000000600052604160045260246000fd5b600082601f8301126120a557600080fd5b813567ffffffffffffffff808211156120c0576120c0612065565b604051601f83017fffffffffffffffffffffffffffffffffffffffffffffffffffffffffffffffe0908116603f0116810190828211818310171561210657612106612065565b8160405283815286602085880101111561211f57600080fd5b836020870160208301376000602085830101528094505050505092915050565b60006020828403121561215157600080fd5b813567ffffffffffffffff81111561216857600080fd5b61217484828501612094565b949350505050565b6000806040838503121561218f57600080fd5b823567ffffffffffffffff808211156121a757600080fd5b6121b386838701612094565b935060208501359150808211156121c957600080fd5b506121d685828601612094565b9150509250929050565b600080604083850312156121f357600080fd5b6121fc83611f75565b9150602083013567ffffffffffffffff81111561221857600080fd5b6121d685828601612094565b60008060006060848603121561223957600080fd5b61224284611f75565b9250602084013567ffffffffffffffff8082111561225f57600080fd5b61226b87838801612094565b9350604086013591508082111561228157600080fd5b5061228e86828701612094565b9150509250925092565b600181811c908216806122ac57607f821691505b6020821081036122e5577f4e487b7100000000000000000000000000000000000000000000000000000000600052602260045260246000fd5b50919050565b601f821115610f9a57600081815260208120601f850160051c810160208610156123125750805b601f850160051c820191505b818110156123315782815560010161231e565b505050505050565b815167ffffffffffffffff81111561235357612353612065565b612367816123618454612298565b846122eb565b602080601f83116001811461239c57600084156123845750858301515b600019600386901b1c1916600185901b178555612331565b6000858152602081207fffffffffffffffffffffffffffffffffffffffffffffffffffffffffffffffe08616915b828110156123e9578886015182559484019460019091019084016123ca565b50858210156124075787850151600019600388901b60f8161c191681555b5050505050600190811b01905550565b7f4e487b7100000000000000000000000000000000000000000000000000000000600052601160045260246000fd5b818103818111156105b9576105b9612417565b7f4e487b7100000000000000000000000000000000000000000000000000000000600052603260045260246000fd5b7f4e487b7100000000000000000000000000000000000000000000000000000000600052603160045260246000fd5b600060001982036124ca576124ca612417565b506001019056fea2646970667358221220026a1e53f1b26eddfb266cfb198ca87e406ef84dc779bff3de815b04737a2a5a64736f6c63430008110033",
  "devdoc": {
    "kind": "dev",
    "methods": {},
    "version": 1
  },
  "userdoc": {
    "kind": "user",
    "methods": {},
    "version": 1
  },
  "storageLayout": {
    "storage": [
      {
        "astId": 575,
        "contract": "contracts/Contract.sol:Contract",
        "label": "admin",
        "offset": 0,
        "slot": "0",
        "type": "t_struct(Admin)550_storage"
      },
      {
        "astId": 578,
        "contract": "contracts/Contract.sol:Contract",
        "label": "doctors",
        "offset": 0,
        "slot": "5",
        "type": "t_struct(Doctors)572_storage"
      },
      {
        "astId": 581,
        "contract": "contracts/Contract.sol:Contract",
        "label": "patients",
        "offset": 0,
        "slot": "11",
        "type": "t_struct(Patients)559_storage"
      }
    ],
    "types": {
      "t_address": {
        "encoding": "inplace",
        "label": "address",
        "numberOfBytes": "20"
      },
      "t_array(t_address)dyn_storage": {
        "base": "t_address",
        "encoding": "dynamic_array",
        "label": "address[]",
        "numberOfBytes": "32"
      },
      "t_bool": {
        "encoding": "inplace",
        "label": "bool",
        "numberOfBytes": "1"
      },
      "t_mapping(t_address,t_bool)": {
        "encoding": "mapping",
        "key": "t_address",
        "label": "mapping(address => bool)",
        "numberOfBytes": "32",
        "value": "t_bool"
      },
      "t_mapping(t_address,t_string_storage)": {
        "encoding": "mapping",
        "key": "t_address",
        "label": "mapping(address => string)",
        "numberOfBytes": "32",
        "value": "t_string_storage"
      },
      "t_mapping(t_address,t_struct(Map)13_storage)": {
        "encoding": "mapping",
        "key": "t_address",
        "label": "mapping(address => struct AddToBoolMapping.Map)",
        "numberOfBytes": "32",
        "value": "t_struct(Map)13_storage"
      },
      "t_mapping(t_address,t_struct(MedicalRecord)542_storage)": {
        "encoding": "mapping",
        "key": "t_address",
        "label": "mapping(address => struct Contract.MedicalRecord)",
        "numberOfBytes": "32",
        "value": "t_struct(MedicalRecord)542_storage"
      },
      "t_mapping(t_address,t_uint256)": {
        "encoding": "mapping",
        "key": "t_address",
        "label": "mapping(address => uint256)",
        "numberOfBytes": "32",
        "value": "t_uint256"
      },
      "t_string_storage": {
        "encoding": "bytes",
        "label": "string",
        "numberOfBytes": "32"
      },
      "t_struct(Admin)550_storage": {
        "encoding": "inplace",
        "label": "struct Contract.Admin",
        "members": [
          {
            "astId": 544,
            "contract": "contracts/Contract.sol:Contract",
            "label": "user",
            "offset": 0,
            "slot": "0",
            "type": "t_address"
          },
          {
            "astId": 546,
            "contract": "contracts/Contract.sol:Contract",
            "label": "public_key",
            "offset": 0,
            "slot": "1",
            "type": "t_string_storage"
          },
          {
            "astId": 549,
            "contract": "contracts/Contract.sol:Contract",
            "label": "pending_doctors",
            "offset": 0,
            "slot": "2",
            "type": "t_struct(Map)13_storage"
          }
        ],
        "numberOfBytes": "160"
      },
      "t_struct(Doctors)572_storage": {
        "encoding": "inplace",
        "label": "struct Contract.Doctors",
        "members": [
          {
            "astId": 562,
            "contract": "contracts/Contract.sol:Contract",
            "label": "users",
            "offset": 0,
            "slot": "0",
            "type": "t_struct(Role)1504_storage"
          },
          {
            "astId": 566,
            "contract": "contracts/Contract.sol:Contract",
            "label": "public_keys",
            "offset": 0,
            "slot": "4",
            "type": "t_mapping(t_address,t_string_storage)"
          },
          {
            "astId": 571,
            "contract": "contracts/Contract.sol:Contract",
            "label": "docToPatAccess",
            "offset": 0,
            "slot": "5",
            "type": "t_mapping(t_address,t_struct(Map)13_storage)"
          }
        ],
        "numberOfBytes": "192"
      },
      "t_struct(Map)13_storage": {
        "encoding": "inplace",
        "label": "struct AddToBoolMapping.Map",
        "members": [
          {
            "astId": 4,
            "contract": "contracts/Contract.sol:Contract",
            "label": "keys",
            "offset": 0,
            "slot": "0",
            "type": "t_array(t_address)dyn_storage"
          },
          {
            "astId": 8,
            "contract": "contracts/Contract.sol:Contract",
            "label": "values",
            "offset": 0,
            "slot": "1",
            "type": "t_mapping(t_address,t_bool)"
          },
          {
            "astId": 12,
            "contract": "contracts/Contract.sol:Contract",
            "label": "indexOf",
            "offset": 0,
            "slot": "2",
            "type": "t_mapping(t_address,t_uint256)"
          }
        ],
        "numberOfBytes": "96"
      },
      "t_struct(Map)204_storage": {
        "encoding": "inplace",
        "label": "struct AddToStrMapping.Map",
        "members": [
          {
            "astId": 191,
            "contract": "contracts/Contract.sol:Contract",
            "label": "keys",
            "offset": 0,
            "slot": "0",
            "type": "t_array(t_address)dyn_storage"
          },
          {
            "astId": 195,
            "contract": "contracts/Contract.sol:Contract",
            "label": "values",
            "offset": 0,
            "slot": "1",
            "type": "t_mapping(t_address,t_string_storage)"
          },
          {
            "astId": 199,
            "contract": "contracts/Contract.sol:Contract",
            "label": "indexOf",
            "offset": 0,
            "slot": "2",
            "type": "t_mapping(t_address,t_uint256)"
          },
          {
            "astId": 203,
            "contract": "contracts/Contract.sol:Contract",
            "label": "inserted",
            "offset": 0,
            "slot": "3",
            "type": "t_mapping(t_address,t_bool)"
          }
        ],
        "numberOfBytes": "128"
      },
      "t_struct(MedicalRecord)542_storage": {
        "encoding": "inplace",
        "label": "struct Contract.MedicalRecord",
        "members": [
          {
            "astId": 536,
            "contract": "contracts/Contract.sol:Contract",
            "label": "editor",
            "offset": 0,
            "slot": "0",
            "type": "t_address"
          },
          {
            "astId": 539,
            "contract": "contracts/Contract.sol:Contract",
            "label": "viewers",
            "offset": 0,
            "slot": "1",
            "type": "t_array(t_address)dyn_storage"
          },
          {
            "astId": 541,
            "contract": "contracts/Contract.sol:Contract",
            "label": "key_data_hash",
            "offset": 0,
            "slot": "2",
            "type": "t_string_storage"
          }
        ],
        "numberOfBytes": "96"
      },
      "t_struct(Patients)559_storage": {
        "encoding": "inplace",
        "label": "struct Contract.Patients",
        "members": [
          {
            "astId": 553,
            "contract": "contracts/Contract.sol:Contract",
            "label": "users",
            "offset": 0,
            "slot": "0",
            "type": "t_struct(Role)1504_storage"
          },
          {
            "astId": 558,
            "contract": "contracts/Contract.sol:Contract",
            "label": "records",
            "offset": 0,
            "slot": "4",
            "type": "t_mapping(t_address,t_struct(MedicalRecord)542_storage)"
          }
        ],
        "numberOfBytes": "160"
      },
      "t_struct(Role)1504_storage": {
        "encoding": "inplace",
        "label": "struct Roles.Role",
        "members": [
          {
            "astId": 1503,
            "contract": "contracts/Contract.sol:Contract",
            "label": "bearer",
            "offset": 0,
            "slot": "0",
            "type": "t_struct(Map)204_storage"
          }
        ],
        "numberOfBytes": "128"
      },
      "t_uint256": {
        "encoding": "inplace",
        "label": "uint256",
        "numberOfBytes": "32"
      }
    }
  }
}