{
  "address": "0x8872E473b7b8500C0A65cf6551f383a8AB017c4c",
  "abi": [
    {
      "inputs": [
        {
          "internalType": "contract MinimalForwarder",
          "name": "forwarder",
          "type": "address"
        }
      ],
      "stateMutability": "nonpayable",
      "type": "constructor"
    },
    {
      "inputs": [],
      "name": "Contract__DoctorPublicKeyMissing",
      "type": "error"
    },
    {
      "inputs": [],
      "name": "Contract__NotAdmin",
      "type": "error"
    },
    {
      "inputs": [],
      "name": "Contract__NotDoctor",
      "type": "error"
    },
    {
      "inputs": [],
      "name": "Contract__NotPatient",
      "type": "error"
    },
    {
      "inputs": [],
      "name": "Contract__PendingDoctorApproval",
      "type": "error"
    },
    {
      "anonymous": false,
      "inputs": [
        {
          "indexed": false,
          "internalType": "uint8",
          "name": "version",
          "type": "uint8"
        }
      ],
      "name": "Initialized",
      "type": "event"
    },
    {
      "inputs": [
        {
          "internalType": "address",
          "name": "_address",
          "type": "address"
        }
      ],
      "name": "approveDr",
      "outputs": [],
      "stateMutability": "nonpayable",
      "type": "function"
    },
    {
      "inputs": [
        {
          "internalType": "address",
          "name": "_address",
          "type": "address"
        },
        {
          "internalType": "string",
          "name": "_general_hash",
          "type": "string"
        },
        {
          "internalType": "string",
          "name": "_key_hash",
          "type": "string"
        }
      ],
      "name": "changeEditorAccess",
      "outputs": [],
      "stateMutability": "nonpayable",
      "type": "function"
    },
    {
      "inputs": [
        {
          "internalType": "address",
          "name": "_address",
          "type": "address"
        }
      ],
      "name": "disapproveDr",
      "outputs": [],
      "stateMutability": "nonpayable",
      "type": "function"
    },
    {
      "inputs": [],
      "name": "getAdmin",
      "outputs": [
        {
          "internalType": "address",
          "name": "",
          "type": "address"
        }
      ],
      "stateMutability": "view",
      "type": "function"
    },
    {
      "inputs": [],
      "name": "getAdminPubKey",
      "outputs": [
        {
          "internalType": "string",
          "name": "",
          "type": "string"
        }
      ],
      "stateMutability": "view",
      "type": "function"
    },
    {
      "inputs": [],
      "name": "getAllDrs",
      "outputs": [
        {
          "internalType": "address[]",
          "name": "",
          "type": "address[]"
        }
      ],
      "stateMutability": "view",
      "type": "function"
    },
    {
      "inputs": [],
      "name": "getAllPts",
      "outputs": [
        {
          "internalType": "address[]",
          "name": "",
          "type": "address[]"
        }
      ],
      "stateMutability": "view",
      "type": "function"
    },
    {
      "inputs": [
        {
          "internalType": "address",
          "name": "_address",
          "type": "address"
        }
      ],
      "name": "getDrHash",
      "outputs": [
        {
          "internalType": "string",
          "name": "",
          "type": "string"
        }
      ],
      "stateMutability": "view",
      "type": "function"
    },
    {
      "inputs": [],
      "name": "getDrOfPt",
      "outputs": [
        {
          "internalType": "address",
          "name": "",
          "type": "address"
        }
      ],
      "stateMutability": "view",
      "type": "function"
    },
    {
      "inputs": [
        {
          "internalType": "address",
          "name": "_address",
          "type": "address"
        }
      ],
      "name": "getDrPubKey",
      "outputs": [
        {
          "internalType": "string",
          "name": "",
          "type": "string"
        }
      ],
      "stateMutability": "view",
      "type": "function"
    },
    {
      "inputs": [],
      "name": "getPatViewers",
      "outputs": [
        {
          "internalType": "address[]",
          "name": "",
          "type": "address[]"
        }
      ],
      "stateMutability": "view",
      "type": "function"
    },
    {
      "inputs": [],
      "name": "getPendingDrs",
      "outputs": [
        {
          "internalType": "address[]",
          "name": "",
          "type": "address[]"
        }
      ],
      "stateMutability": "view",
      "type": "function"
    },
    {
      "inputs": [
        {
          "internalType": "address",
          "name": "_address",
          "type": "address"
        }
      ],
      "name": "getPtGeneralHash",
      "outputs": [
        {
          "internalType": "string",
          "name": "",
          "type": "string"
        }
      ],
      "stateMutability": "view",
      "type": "function"
    },
    {
      "inputs": [
        {
          "internalType": "address",
          "name": "_address",
          "type": "address"
        }
      ],
      "name": "getPtRecordHash",
      "outputs": [
        {
          "internalType": "string",
          "name": "",
          "type": "string"
        }
      ],
      "stateMutability": "view",
      "type": "function"
    },
    {
      "inputs": [],
      "name": "getPtsOfDr",
      "outputs": [
        {
          "internalType": "address[]",
          "name": "",
          "type": "address[]"
        }
      ],
      "stateMutability": "view",
      "type": "function"
    },
    {
      "inputs": [
        {
          "internalType": "address",
          "name": "_address",
          "type": "address"
        }
      ],
      "name": "grantViewerAccess",
      "outputs": [],
      "stateMutability": "nonpayable",
      "type": "function"
    },
    {
      "inputs": [],
      "name": "initialize",
      "outputs": [],
      "stateMutability": "nonpayable",
      "type": "function"
    },
    {
      "inputs": [
        {
          "internalType": "address",
          "name": "_address",
          "type": "address"
        }
      ],
      "name": "isAdmin",
      "outputs": [
        {
          "internalType": "bool",
          "name": "",
          "type": "bool"
        }
      ],
      "stateMutability": "view",
      "type": "function"
    },
    {
      "inputs": [
        {
          "internalType": "address",
          "name": "_address",
          "type": "address"
        }
      ],
      "name": "isDoctor",
      "outputs": [
        {
          "internalType": "bool",
          "name": "",
          "type": "bool"
        }
      ],
      "stateMutability": "view",
      "type": "function"
    },
    {
      "inputs": [
        {
          "internalType": "address",
          "name": "_address",
          "type": "address"
        }
      ],
      "name": "isDrPending",
      "outputs": [
        {
          "internalType": "bool",
          "name": "",
          "type": "bool"
        }
      ],
      "stateMutability": "view",
      "type": "function"
    },
    {
      "inputs": [
        {
          "internalType": "address",
          "name": "_address",
          "type": "address"
        }
      ],
      "name": "isDrRegistered",
      "outputs": [
        {
          "internalType": "bool",
          "name": "",
          "type": "bool"
        }
      ],
      "stateMutability": "view",
      "type": "function"
    },
    {
      "inputs": [
        {
          "internalType": "address",
          "name": "_address",
          "type": "address"
        }
      ],
      "name": "isPatient",
      "outputs": [
        {
          "internalType": "bool",
          "name": "",
          "type": "bool"
        }
      ],
      "stateMutability": "view",
      "type": "function"
    },
    {
      "inputs": [
        {
          "internalType": "address",
          "name": "forwarder",
          "type": "address"
        }
      ],
      "name": "isTrustedForwarder",
      "outputs": [
        {
          "internalType": "bool",
          "name": "",
          "type": "bool"
        }
      ],
      "stateMutability": "view",
      "type": "function"
    },
    {
      "inputs": [
        {
          "internalType": "string",
          "name": "_hash",
          "type": "string"
        }
      ],
      "name": "registerDr",
      "outputs": [],
      "stateMutability": "nonpayable",
      "type": "function"
    },
    {
      "inputs": [
        {
          "internalType": "string",
          "name": "_public_key",
          "type": "string"
        }
      ],
      "name": "registerDrConfirm",
      "outputs": [],
      "stateMutability": "nonpayable",
      "type": "function"
    },
    {
      "inputs": [
        {
          "internalType": "string",
          "name": "_hash",
          "type": "string"
        },
        {
          "internalType": "string",
          "name": "_key_data_hash",
          "type": "string"
        }
      ],
      "name": "registerPt",
      "outputs": [],
      "stateMutability": "nonpayable",
      "type": "function"
    },
    {
      "inputs": [
        {
          "internalType": "string",
          "name": "_general_hash",
          "type": "string"
        },
        {
          "internalType": "string",
          "name": "_key_hash",
          "type": "string"
        }
      ],
      "name": "removeEditorAccess",
      "outputs": [],
      "stateMutability": "nonpayable",
      "type": "function"
    },
    {
      "inputs": [
        {
          "internalType": "address",
          "name": "_address",
          "type": "address"
        }
      ],
      "name": "revokeViewerAccess",
      "outputs": [],
      "stateMutability": "nonpayable",
      "type": "function"
    },
    {
      "inputs": [
        {
          "internalType": "string",
          "name": "_public_key",
          "type": "string"
        }
      ],
      "name": "setAdminPubKey",
      "outputs": [],
      "stateMutability": "nonpayable",
      "type": "function"
    },
    {
      "inputs": [
        {
          "internalType": "string",
          "name": "_hash",
          "type": "string"
        }
      ],
      "name": "setDrHash",
      "outputs": [],
      "stateMutability": "nonpayable",
      "type": "function"
    },
    {
      "inputs": [
        {
          "internalType": "string",
          "name": "_hash",
          "type": "string"
        }
      ],
      "name": "setPtGeneralHash",
      "outputs": [],
      "stateMutability": "nonpayable",
      "type": "function"
    },
    {
      "inputs": [
        {
          "internalType": "address",
          "name": "_address",
          "type": "address"
        },
        {
          "internalType": "string",
          "name": "_hash",
          "type": "string"
        }
      ],
      "name": "setPtRecordHash",
      "outputs": [],
      "stateMutability": "nonpayable",
      "type": "function"
    }
  ],
  "transactionHash": "0xfff2d2e42ac323a8141125566a8385f9a29f266fed6981fdafacb1c37c0fe59b",
  "args": [
    "0x5473C27565c06f65746049b621CF36d17c104cfb"
  ],
  "numDeployments": 1,
  "solcInputHash": "40ea02a3b9c0d9dc7c8cf865f9cac13c",
  "bytecode": "0x60a06040523480156200001157600080fd5b50604051620044a5380380620044a58339818101604052810190620000379190620000f2565b808073ffffffffffffffffffffffffffffffffffffffff1660808173ffffffffffffffffffffffffffffffffffffffff1681525050505062000124565b600080fd5b600073ffffffffffffffffffffffffffffffffffffffff82169050919050565b6000620000a68262000079565b9050919050565b6000620000ba8262000099565b9050919050565b620000cc81620000ad565b8114620000d857600080fd5b50565b600081519050620000ec81620000c1565b92915050565b6000602082840312156200010b576200010a62000074565b5b60006200011b84828501620000db565b91505092915050565b608051614365620001406000396000610f5701526143656000f3fe608060405234801561001057600080fd5b50600436106101f05760003560e01c80638f7f43a91161010f578063c70597ad116100a2578063d3cd4df411610071578063d3cd4df4146105b5578063dc823aaf146105d1578063e2877b4e14610601578063f7a03a1e1461061f576101f0565b8063c70597ad1461052f578063cce9d43e1461054b578063ccfaed161461057b578063d0d9a5e314610597576101f0565b8063a03de49e116100de578063a03de49e146104bd578063a53f514d146104d9578063afb97e3d146104f7578063b1e758a414610513576101f0565b80638f7f43a9146104235780638f9c79ed14610441578063996440c61461047157806399eedd2a146104a1576101f0565b80634df0a2d4116101875780636e9960c3116101565780636e9960c3146103c3578063745ada64146103e15780638129fc1c146103fd57806388c432e114610407576101f0565b80634df0a2d414610317578063572b6c05146103475780635b0a7aad146103775780636d4bce2014610393576101f0565b806324d7806c116101c357806324d7806c1461026b578063290c61b01461029b57806332991838146102cb5780633d8198b4146102e7576101f0565b80630de99991146101f5578063116461e9146102115780631da3e2dc1461022f57806321639f041461024d575b600080fd5b61020f600480360381019061020a9190613494565b61063b565b005b6102196106c5565b6040516102269190613551565b60405180910390f35b61023761075a565b6040516102449190613631565b60405180910390f35b61025561076e565b6040516102629190613662565b60405180910390f35b61028560048036038101906102809190613494565b610828565b6040516102929190613698565b60405180910390f35b6102b560048036038101906102b09190613494565b610895565b6040516102c29190613698565b60405180910390f35b6102e560048036038101906102e091906137e8565b6108b5565b005b61030160048036038101906102fc9190613494565b61098a565b60405161030e9190613551565b60405180910390f35b610331600480360381019061032c9190613494565b610cca565b60405161033e9190613551565b60405180910390f35b610361600480360381019061035c9190613494565b610f53565b60405161036e9190613698565b60405180910390f35b610391600480360381019061038c9190613831565b610fab565b005b6103ad60048036038101906103a89190613494565b6111ce565b6040516103ba9190613698565b60405180910390f35b6103cb6111ee565b6040516103d89190613662565b60405180910390f35b6103fb60048036038101906103f69190613494565b61121b565b005b6104056112da565b005b610421600480360381019061041c91906137e8565b611392565b005b61042b6113fb565b6040516104389190613631565b60405180910390f35b61045b60048036038101906104569190613494565b611519565b6040516104689190613698565b60405180910390f35b61048b60048036038101906104869190613494565b611539565b6040516104989190613698565b60405180910390f35b6104bb60048036038101906104b691906137e8565b6115ed565b005b6104d760048036038101906104d29190613831565b61178c565b005b6104e1611947565b6040516104ee9190613631565b60405180910390f35b610511600480360381019061050c91906137e8565b61195b565b005b61052d60048036038101906105289190613494565b6119b7565b005b610549600480360381019061054491906138a9565b611bd4565b005b61056560048036038101906105609190613494565b611d44565b6040516105729190613551565b60405180910390f35b610595600480360381019061059091906137e8565b611da3565b005b61059f611eea565b6040516105ac9190613631565b60405180910390f35b6105cf60048036038101906105ca9190613905565b6120fa565b005b6105eb60048036038101906105e69190613494565b612274565b6040516105f89190613551565b60405180910390f35b610609612348565b6040516106169190613631565b60405180910390f35b61063960048036038101906106349190613494565b6123dc565b005b61064b6106466124c3565b610828565b610681576040517f4d371dc700000000000000000000000000000000000000000000000000000000815260040160405180910390fd5b61068a81611539565b6106c2576106a581606a6000016124f590919063ffffffff16565b156106c2576106c181606560020161258890919063ffffffff16565b5b50565b6060606560010180546106d7906139bf565b80601f0160208091040260200160405190810160405280929190818152602001828054610703906139bf565b80156107505780601f1061072557610100808354040283529160200191610750565b820191906000526020600020905b81548152906001019060200180831161073357829003601f168201915b5050505050905090565b6060610769606a60000161280b565b905090565b600061078061077b6124c3565b611519565b6107b6576040517fc11330e600000000000000000000000000000000000000000000000000000000815260040160405180910390fd5b607060040160006107c56124c3565b73ffffffffffffffffffffffffffffffffffffffff1673ffffffffffffffffffffffffffffffffffffffff16815260200190815260200160002060000160009054906101000a900473ffffffffffffffffffffffffffffffffffffffff16905090565b60008173ffffffffffffffffffffffffffffffffffffffff16606560000160009054906101000a900473ffffffffffffffffffffffffffffffffffffffff1673ffffffffffffffffffffffffffffffffffffffff160361088b5760019050610890565b600090505b919050565b60006108ae82606a6000016124f590919063ffffffff16565b9050919050565b6108c56108c06124c3565b611519565b15610905576040517f08c379a00000000000000000000000000000000000000000000000000000000081526004016108fc90613a62565b60405180910390fd5b6000815103610949576040517f08c379a000000000000000000000000000000000000000000000000000000000815260040161094090613af4565b60405180910390fd5b6109696109546124c3565b82606a6000016128a09092919063ffffffff16565b6109876109746124c3565b606560020161290790919063ffffffff16565b50565b606061099582611519565b6109cb576040517fc11330e600000000000000000000000000000000000000000000000000000000815260040160405180910390fd5b8173ffffffffffffffffffffffffffffffffffffffff166109ea6124c3565b73ffffffffffffffffffffffffffffffffffffffff161480610aa35750610a0f6124c3565b73ffffffffffffffffffffffffffffffffffffffff16607060040160008473ffffffffffffffffffffffffffffffffffffffff1673ffffffffffffffffffffffffffffffffffffffff16815260200190815260200160002060000160009054906101000a900473ffffffffffffffffffffffffffffffffffffffff1673ffffffffffffffffffffffffffffffffffffffff16145b80610bb057507fffffffffffffffffffffffffffffffffffffffffffffffffffffffffffffffff610bad610ad56124c3565b607060040160008673ffffffffffffffffffffffffffffffffffffffff1673ffffffffffffffffffffffffffffffffffffffff168152602001908152602001600020600101805480602002602001604051908101604052809291908181526020018280548015610b9a57602002820191906000526020600020905b8160009054906101000a900473ffffffffffffffffffffffffffffffffffffffff1673ffffffffffffffffffffffffffffffffffffffff1681526020019060010190808311610b50575b5050505050612a6b90919063ffffffff16565b14155b15610c8a57607060040160008373ffffffffffffffffffffffffffffffffffffffff1673ffffffffffffffffffffffffffffffffffffffff1681526020019081526020016000206002018054610c05906139bf565b80601f0160208091040260200160405190810160405280929190818152602001828054610c31906139bf565b8015610c7e5780601f10610c5357610100808354040283529160200191610c7e565b820191906000526020600020905b815481529060010190602001808311610c6157829003601f168201915b50505050509050610cc5565b6040517f08c379a0000000000000000000000000000000000000000000000000000000008152600401610cbc90613b60565b60405180910390fd5b919050565b6060610cd582611519565b610d0b576040517fc11330e600000000000000000000000000000000000000000000000000000000815260040160405180910390fd5b8173ffffffffffffffffffffffffffffffffffffffff16610d2a6124c3565b73ffffffffffffffffffffffffffffffffffffffff161480610de35750610d4f6124c3565b73ffffffffffffffffffffffffffffffffffffffff16607060040160008473ffffffffffffffffffffffffffffffffffffffff1673ffffffffffffffffffffffffffffffffffffffff16815260200190815260200160002060000160009054906101000a900473ffffffffffffffffffffffffffffffffffffffff1673ffffffffffffffffffffffffffffffffffffffff16145b80610ef057507fffffffffffffffffffffffffffffffffffffffffffffffffffffffffffffffff610eed610e156124c3565b607060040160008673ffffffffffffffffffffffffffffffffffffffff1673ffffffffffffffffffffffffffffffffffffffff168152602001908152602001600020600101805480602002602001604051908101604052809291908181526020018280548015610eda57602002820191906000526020600020905b8160009054906101000a900473ffffffffffffffffffffffffffffffffffffffff1673ffffffffffffffffffffffffffffffffffffffff1681526020019060010190808311610e90575b5050505050612a6b90919063ffffffff16565b14155b15610f1357610f0c826070600001612b1090919063ffffffff16565b9050610f4e565b6040517f08c379a0000000000000000000000000000000000000000000000000000000008152600401610f4590613b60565b60405180910390fd5b919050565b60007f000000000000000000000000000000000000000000000000000000000000000073ffffffffffffffffffffffffffffffffffffffff168273ffffffffffffffffffffffffffffffffffffffff16149050919050565b610fbb610fb66124c3565b611519565b610ff1576040517fc11330e600000000000000000000000000000000000000000000000000000000815260040160405180910390fd5b6000607060040160006110026124c3565b73ffffffffffffffffffffffffffffffffffffffff1673ffffffffffffffffffffffffffffffffffffffff16815260200190815260200160002060000160009054906101000a900473ffffffffffffffffffffffffffffffffffffffff16905061106a6124c3565b607060040160006110796124c3565b73ffffffffffffffffffffffffffffffffffffffff1673ffffffffffffffffffffffffffffffffffffffff16815260200190815260200160002060000160006101000a81548173ffffffffffffffffffffffffffffffffffffffff021916908373ffffffffffffffffffffffffffffffffffffffff16021790555061114f6110ff6124c3565b606a60050160008473ffffffffffffffffffffffffffffffffffffffff1673ffffffffffffffffffffffffffffffffffffffff16815260200190815260200160002061258890919063ffffffff16565b61116f61115a6124c3565b846070600001612b309092919063ffffffff16565b816070600401600061117f6124c3565b73ffffffffffffffffffffffffffffffffffffffff1673ffffffffffffffffffffffffffffffffffffffff16815260200190815260200160002060020190816111c89190613d36565b50505050565b60006111e7826065600201612b4d90919063ffffffff16565b9050919050565b6000606560000160009054906101000a900473ffffffffffffffffffffffffffffffffffffffff16905090565b61122b6112266124c3565b610828565b611261576040517f4d371dc700000000000000000000000000000000000000000000000000000000815260040160405180910390fd5b61126a816111ce565b6112a9576040517f08c379a00000000000000000000000000000000000000000000000000000000081526004016112a090613e54565b60405180910390fd5b6112c081606a600001612ba690919063ffffffff16565b6112d781606560020161258890919063ffffffff16565b50565b607560009054906101000a900460ff161561132a576040517f08c379a000000000000000000000000000000000000000000000000000000000815260040161132190613ec0565b60405180910390fd5b6113326124c3565b606560000160006101000a81548173ffffffffffffffffffffffffffffffffffffffff021916908373ffffffffffffffffffffffffffffffffffffffff1602179055506001607560006101000a81548160ff021916908315150217905550565b6113a261139d6124c3565b611519565b6113d8576040517fc11330e600000000000000000000000000000000000000000000000000000000815260040160405180910390fd5b6113f86113e36124c3565b826070600001612b309092919063ffffffff16565b50565b606061140d6114086124c3565b611519565b611443576040517fc11330e600000000000000000000000000000000000000000000000000000000815260040160405180910390fd5b607060040160006114526124c3565b73ffffffffffffffffffffffffffffffffffffffff1673ffffffffffffffffffffffffffffffffffffffff16815260200190815260200160002060010180548060200260200160405190810160405280929190818152602001828054801561150f57602002820191906000526020600020905b8160009054906101000a900473ffffffffffffffffffffffffffffffffffffffff1673ffffffffffffffffffffffffffffffffffffffff16815260200190600101908083116114c5575b5050505050905090565b60006115328260706000016124f590919063ffffffff16565b9050919050565b600061155282606a6000016124f590919063ffffffff16565b61155f57600090506115e8565b611576826065600201612b4d90919063ffffffff16565b1561158457600090506115e8565b6000606a60040160008473ffffffffffffffffffffffffffffffffffffffff1673ffffffffffffffffffffffffffffffffffffffff16815260200190815260200160002080546115d3906139bf565b9050036115e357600090506115e8565b600190505b919050565b61160b6115f86124c3565b606a6000016124f590919063ffffffff16565b611641576040517ffe2fc9c600000000000000000000000000000000000000000000000000000000815260040160405180910390fd5b61165f61164c6124c3565b6065600201612b4d90919063ffffffff16565b15611696576040517ff873d3b700000000000000000000000000000000000000000000000000000000815260040160405180910390fd5b6000606a60040160006116a76124c3565b73ffffffffffffffffffffffffffffffffffffffff1673ffffffffffffffffffffffffffffffffffffffff16815260200190815260200160002080546116ec906139bf565b905003611725576040517fa30132d500000000000000000000000000000000000000000000000000000000815260040160405180910390fd5b6000815103611769576040517f08c379a000000000000000000000000000000000000000000000000000000000815260040161176090613f52565b60405180910390fd5b6117896117746124c3565b82606a600001612b309092919063ffffffff16565b50565b61179c6117976124c3565b610895565b806117b357506117b26117ad6124c3565b611539565b5b156117f3576040517f08c379a00000000000000000000000000000000000000000000000000000000081526004016117ea90613fe4565b60405180910390fd5b6000825103611837576040517f08c379a000000000000000000000000000000000000000000000000000000000815260040161182e90613af4565b60405180910390fd5b6118576118426124c3565b8360706000016128a09092919063ffffffff16565b61185f6124c3565b6070600401600061186e6124c3565b73ffffffffffffffffffffffffffffffffffffffff1673ffffffffffffffffffffffffffffffffffffffff16815260200190815260200160002060000160006101000a81548173ffffffffffffffffffffffffffffffffffffffff021916908373ffffffffffffffffffffffffffffffffffffffff16021790555080607060040160006118f96124c3565b73ffffffffffffffffffffffffffffffffffffffff1673ffffffffffffffffffffffffffffffffffffffff16815260200190815260200160002060020190816119429190613d36565b505050565b6060611956607060000161280b565b905090565b61196b6119666124c3565b610828565b6119a1576040517f4d371dc700000000000000000000000000000000000000000000000000000000815260040160405180910390fd5b80606560010190816119b39190613d36565b5050565b6119c76119c26124c3565b611519565b6119fd576040517fc11330e600000000000000000000000000000000000000000000000000000000815260040160405180910390fd5b611a0681611539565b611a3c576040517ffe2fc9c600000000000000000000000000000000000000000000000000000000815260040160405180910390fd5b611b1f8160706004016000611a4f6124c3565b73ffffffffffffffffffffffffffffffffffffffff1673ffffffffffffffffffffffffffffffffffffffff168152602001908152602001600020600101805480602002602001604051908101604052809291908181526020018280548015611b0c57602002820191906000526020600020905b8160009054906101000a900473ffffffffffffffffffffffffffffffffffffffff1673ffffffffffffffffffffffffffffffffffffffff1681526020019060010190808311611ac2575b5050505050612c0990919063ffffffff16565b611bd15760706004016000611b326124c3565b73ffffffffffffffffffffffffffffffffffffffff1673ffffffffffffffffffffffffffffffffffffffff168152602001908152602001600020600101819080600181540180825580915050600190039060005260206000200160009091909190916101000a81548173ffffffffffffffffffffffffffffffffffffffff021916908373ffffffffffffffffffffffffffffffffffffffff1602179055505b50565b611bdd82611519565b611c13576040517fc11330e600000000000000000000000000000000000000000000000000000000815260040160405180910390fd5b611c1b6124c3565b73ffffffffffffffffffffffffffffffffffffffff16607060040160008473ffffffffffffffffffffffffffffffffffffffff1673ffffffffffffffffffffffffffffffffffffffff16815260200190815260200160002060000160009054906101000a900473ffffffffffffffffffffffffffffffffffffffff1673ffffffffffffffffffffffffffffffffffffffff1614611ced576040517f08c379a0000000000000000000000000000000000000000000000000000000008152600401611ce490613b60565b60405180910390fd5b80607060040160008473ffffffffffffffffffffffffffffffffffffffff1673ffffffffffffffffffffffffffffffffffffffff1681526020019081526020016000206002019081611d3f9190613d36565b505050565b6060611d4f82610895565b611d85576040517ffe2fc9c600000000000000000000000000000000000000000000000000000000815260040160405180910390fd5b611d9c82606a600001612b1090919063ffffffff16565b9050919050565b6000815103611de7576040517f08c379a0000000000000000000000000000000000000000000000000000000008152600401611dde90614076565b60405180910390fd5b611e05611df26124c3565b606a6000016124f590919063ffffffff16565b611e3b576040517ffe2fc9c600000000000000000000000000000000000000000000000000000000815260040160405180910390fd5b611e59611e466124c3565b6065600201612b4d90919063ffffffff16565b15611e90576040517ff873d3b700000000000000000000000000000000000000000000000000000000815260040160405180910390fd5b80606a6004016000611ea06124c3565b73ffffffffffffffffffffffffffffffffffffffff1673ffffffffffffffffffffffffffffffffffffffff1681526020019081526020016000209081611ee69190613d36565b5050565b6060611f0a611ef76124c3565b606a6000016124f590919063ffffffff16565b611f40576040517ffe2fc9c600000000000000000000000000000000000000000000000000000000815260040160405180910390fd5b611f5e611f4b6124c3565b6065600201612b4d90919063ffffffff16565b15611f95576040517ff873d3b700000000000000000000000000000000000000000000000000000000815260040160405180910390fd5b6000606a6004016000611fa66124c3565b73ffffffffffffffffffffffffffffffffffffffff1673ffffffffffffffffffffffffffffffffffffffff1681526020019081526020016000208054611feb906139bf565b905003612024576040517fa30132d500000000000000000000000000000000000000000000000000000000815260040160405180910390fd5b606a60050160006120336124c3565b73ffffffffffffffffffffffffffffffffffffffff1673ffffffffffffffffffffffffffffffffffffffff1681526020019081526020016000206000018054806020026020016040519081016040528092919081815260200182805480156120f057602002820191906000526020600020905b8160009054906101000a900473ffffffffffffffffffffffffffffffffffffffff1673ffffffffffffffffffffffffffffffffffffffff16815260200190600101908083116120a6575b5050505050905090565b61210a6121056124c3565b611519565b612140576040517fc11330e600000000000000000000000000000000000000000000000000000000815260040160405180910390fd5b61214983611539565b61217f576040517ffe2fc9c600000000000000000000000000000000000000000000000000000000815260040160405180910390fd5b6121898282610fab565b82607060040160006121996124c3565b73ffffffffffffffffffffffffffffffffffffffff1673ffffffffffffffffffffffffffffffffffffffff16815260200190815260200160002060000160006101000a81548173ffffffffffffffffffffffffffffffffffffffff021916908373ffffffffffffffffffffffffffffffffffffffff16021790555061226f61221f6124c3565b606a60050160008673ffffffffffffffffffffffffffffffffffffffff1673ffffffffffffffffffffffffffffffffffffffff16815260200190815260200160002061290790919063ffffffff16565b505050565b6060606a60040160008373ffffffffffffffffffffffffffffffffffffffff1673ffffffffffffffffffffffffffffffffffffffff16815260200190815260200160002080546122c3906139bf565b80601f01602080910402602001604051908101604052809291908181526020018280546122ef906139bf565b801561233c5780601f106123115761010080835404028352916020019161233c565b820191906000526020600020905b81548152906001019060200180831161231f57829003601f168201915b50505050509050919050565b606060656002016000018054806020026020016040519081016040528092919081815260200182805480156123d257602002820191906000526020600020905b8160009054906101000a900473ffffffffffffffffffffffffffffffffffffffff1673ffffffffffffffffffffffffffffffffffffffff1681526020019060010190808311612388575b5050505050905090565b6123ec6123e76124c3565b611519565b612422576040517fc11330e600000000000000000000000000000000000000000000000000000000815260040160405180910390fd5b61242b81611539565b612461576040517ffe2fc9c600000000000000000000000000000000000000000000000000000000815260040160405180910390fd5b6124bf81607060040160006124746124c3565b73ffffffffffffffffffffffffffffffffffffffff1673ffffffffffffffffffffffffffffffffffffffff168152602001908152602001600020600101612c4090919063ffffffff16565b5050565b60006124ce33610f53565b156124e257601436033560601c90506124f1565b6124ea612e65565b90506124f2565b5b90565b60008073ffffffffffffffffffffffffffffffffffffffff168273ffffffffffffffffffffffffffffffffffffffff1603612565576040517f08c379a000000000000000000000000000000000000000000000000000000000815260040161255c90614108565b60405180910390fd5b600061257d8385600001612e6d90919063ffffffff16565b511415905092915050565b8160010160008273ffffffffffffffffffffffffffffffffffffffff1673ffffffffffffffffffffffffffffffffffffffff16815260200190815260200160002060009054906101000a900460ff1615612807578160010160008273ffffffffffffffffffffffffffffffffffffffff1673ffffffffffffffffffffffffffffffffffffffff16815260200190815260200160002060006101000a81549060ff021916905560008260020160008373ffffffffffffffffffffffffffffffffffffffff1673ffffffffffffffffffffffffffffffffffffffff1681526020019081526020016000205490506000600184600001805490506126899190614157565b905060008460000182815481106126a3576126a261418b565b5b9060005260206000200160009054906101000a900473ffffffffffffffffffffffffffffffffffffffff169050828560020160008373ffffffffffffffffffffffffffffffffffffffff1673ffffffffffffffffffffffffffffffffffffffff168152602001908152602001600020819055508460020160008573ffffffffffffffffffffffffffffffffffffffff1673ffffffffffffffffffffffffffffffffffffffff16815260200190815260200160002060009055808560000184815481106127725761277161418b565b5b9060005260206000200160006101000a81548173ffffffffffffffffffffffffffffffffffffffff021916908373ffffffffffffffffffffffffffffffffffffffff160217905550846000018054806127ce576127cd6141ba565b5b6001900381819060005260206000200160006101000a81549073ffffffffffffffffffffffffffffffffffffffff021916905590555050505b5050565b60608160000160000180548060200260200160405190810160405280929190818152602001828054801561289457602002820191906000526020600020905b8160009054906101000a900473ffffffffffffffffffffffffffffffffffffffff1673ffffffffffffffffffffffffffffffffffffffff168152602001906001019080831161284a575b50505050509050919050565b6128aa83836124f5565b156128ea576040517f08c379a00000000000000000000000000000000000000000000000000000000081526004016128e190614235565b60405180910390fd5b612902828285600001612f419092919063ffffffff16565b505050565b8160010160008273ffffffffffffffffffffffffffffffffffffffff1673ffffffffffffffffffffffffffffffffffffffff16815260200190815260200160002060009054906101000a900460ff16612a675760018260010160008373ffffffffffffffffffffffffffffffffffffffff1673ffffffffffffffffffffffffffffffffffffffff16815260200190815260200160002060006101000a81548160ff02191690831515021790555081600001805490508260020160008373ffffffffffffffffffffffffffffffffffffffff1673ffffffffffffffffffffffffffffffffffffffff1681526020019081526020016000208190555081600001819080600181540180825580915050600190039060005260206000200160009091909190916101000a81548173ffffffffffffffffffffffffffffffffffffffff021916908373ffffffffffffffffffffffffffffffffffffffff1602179055505b5050565b600080600090505b8351811015612ae5578273ffffffffffffffffffffffffffffffffffffffff16848281518110612aa657612aa561418b565b5b602002602001015173ffffffffffffffffffffffffffffffffffffffff1603612ad25780915050612b0a565b8080612add90614255565b915050612a73565b507fffffffffffffffffffffffffffffffffffffffffffffffffffffffffffffffff90505b92915050565b6060612b288284600001612e6d90919063ffffffff16565b905092915050565b612b48828285600001612f419092919063ffffffff16565b505050565b60008260010160008373ffffffffffffffffffffffffffffffffffffffff1673ffffffffffffffffffffffffffffffffffffffff16815260200190815260200160002060009054906101000a900460ff16905092915050565b612bb082826124f5565b612bef576040517f08c379a0000000000000000000000000000000000000000000000000000000008152600401612be69061430f565b60405180910390fd5b612c0581836000016130f590919063ffffffff16565b5050565b60007fffffffffffffffffffffffffffffffffffffffffffffffffffffffffffffffff612c368484612a6b565b1415905092915050565b600080612cd284805480602002602001604051908101604052809291908181526020018280548015612cc757602002820191906000526020600020905b8160009054906101000a900473ffffffffffffffffffffffffffffffffffffffff1673ffffffffffffffffffffffffffffffffffffffff1681526020019060010190808311612c7d575b505050505084612a6b565b90507fffffffffffffffffffffffffffffffffffffffffffffffffffffffffffffffff8103612d05576000915050612e5f565b600084805480602002602001604051908101604052809291908181526020018280548015612d8857602002820191906000526020600020905b8160009054906101000a900473ffffffffffffffffffffffffffffffffffffffff1673ffffffffffffffffffffffffffffffffffffffff1681526020019060010190808311612d3e575b505050505090508060018251612d9e9190614157565b81518110612daf57612dae61418b565b5b6020026020010151858381548110612dca57612dc961418b565b5b9060005260206000200160006101000a81548173ffffffffffffffffffffffffffffffffffffffff021916908373ffffffffffffffffffffffffffffffffffffffff16021790555084805480612e2357612e226141ba565b5b6001900381819060005260206000200160006101000a81549073ffffffffffffffffffffffffffffffffffffffff021916905590556001925050505b92915050565b600033905090565b60608260010160008373ffffffffffffffffffffffffffffffffffffffff1673ffffffffffffffffffffffffffffffffffffffff1681526020019081526020016000208054612ebb906139bf565b80601f0160208091040260200160405190810160405280929190818152602001828054612ee7906139bf565b8015612f345780601f10612f0957610100808354040283529160200191612f34565b820191906000526020600020905b815481529060010190602001808311612f1757829003601f168201915b5050505050905092915050565b8260030160008373ffffffffffffffffffffffffffffffffffffffff1673ffffffffffffffffffffffffffffffffffffffff16815260200190815260200160002060009054906101000a900460ff166130a15782600001805490508360020160008473ffffffffffffffffffffffffffffffffffffffff1673ffffffffffffffffffffffffffffffffffffffff1681526020019081526020016000208190555060018360030160008473ffffffffffffffffffffffffffffffffffffffff1673ffffffffffffffffffffffffffffffffffffffff16815260200190815260200160002060006101000a81548160ff02191690831515021790555082600001829080600181540180825580915050600190039060005260206000200160009091909190916101000a81548173ffffffffffffffffffffffffffffffffffffffff021916908373ffffffffffffffffffffffffffffffffffffffff1602179055505b808360010160008473ffffffffffffffffffffffffffffffffffffffff1673ffffffffffffffffffffffffffffffffffffffff16815260200190815260200160002090816130ef9190613d36565b50505050565b8160030160008273ffffffffffffffffffffffffffffffffffffffff1673ffffffffffffffffffffffffffffffffffffffff16815260200190815260200160002060009054906101000a900460ff16156133c1578160010160008273ffffffffffffffffffffffffffffffffffffffff1673ffffffffffffffffffffffffffffffffffffffff168152602001908152602001600020600061319691906133c5565b8160030160008273ffffffffffffffffffffffffffffffffffffffff1673ffffffffffffffffffffffffffffffffffffffff16815260200190815260200160002060006101000a81549060ff021916905560008260020160008373ffffffffffffffffffffffffffffffffffffffff1673ffffffffffffffffffffffffffffffffffffffff1681526020019081526020016000205490506000600184600001805490506132439190614157565b9050600084600001828154811061325d5761325c61418b565b5b9060005260206000200160009054906101000a900473ffffffffffffffffffffffffffffffffffffffff169050828560020160008373ffffffffffffffffffffffffffffffffffffffff1673ffffffffffffffffffffffffffffffffffffffff168152602001908152602001600020819055508460020160008573ffffffffffffffffffffffffffffffffffffffff1673ffffffffffffffffffffffffffffffffffffffff168152602001908152602001600020600090558085600001848154811061332c5761332b61418b565b5b9060005260206000200160006101000a81548173ffffffffffffffffffffffffffffffffffffffff021916908373ffffffffffffffffffffffffffffffffffffffff16021790555084600001805480613388576133876141ba565b5b6001900381819060005260206000200160006101000a81549073ffffffffffffffffffffffffffffffffffffffff021916905590555050505b5050565b5080546133d1906139bf565b6000825580601f106133e35750613402565b601f0160209004906000526020600020908101906134019190613405565b5b50565b5b8082111561341e576000816000905550600101613406565b5090565b6000604051905090565b600080fd5b600080fd5b600073ffffffffffffffffffffffffffffffffffffffff82169050919050565b600061346182613436565b9050919050565b61347181613456565b811461347c57600080fd5b50565b60008135905061348e81613468565b92915050565b6000602082840312156134aa576134a961342c565b5b60006134b88482850161347f565b91505092915050565b600081519050919050565b600082825260208201905092915050565b60005b838110156134fb5780820151818401526020810190506134e0565b60008484015250505050565b6000601f19601f8301169050919050565b6000613523826134c1565b61352d81856134cc565b935061353d8185602086016134dd565b61354681613507565b840191505092915050565b6000602082019050818103600083015261356b8184613518565b905092915050565b600081519050919050565b600082825260208201905092915050565b6000819050602082019050919050565b6135a881613456565b82525050565b60006135ba838361359f565b60208301905092915050565b6000602082019050919050565b60006135de82613573565b6135e8818561357e565b93506135f38361358f565b8060005b8381101561362457815161360b88826135ae565b9750613616836135c6565b9250506001810190506135f7565b5085935050505092915050565b6000602082019050818103600083015261364b81846135d3565b905092915050565b61365c81613456565b82525050565b60006020820190506136776000830184613653565b92915050565b60008115159050919050565b6136928161367d565b82525050565b60006020820190506136ad6000830184613689565b92915050565b600080fd5b600080fd5b7f4e487b7100000000000000000000000000000000000000000000000000000000600052604160045260246000fd5b6136f582613507565b810181811067ffffffffffffffff82111715613714576137136136bd565b5b80604052505050565b6000613727613422565b905061373382826136ec565b919050565b600067ffffffffffffffff821115613753576137526136bd565b5b61375c82613507565b9050602081019050919050565b82818337600083830152505050565b600061378b61378684613738565b61371d565b9050828152602081018484840111156137a7576137a66136b8565b5b6137b2848285613769565b509392505050565b600082601f8301126137cf576137ce6136b3565b5b81356137df848260208601613778565b91505092915050565b6000602082840312156137fe576137fd61342c565b5b600082013567ffffffffffffffff81111561381c5761381b613431565b5b613828848285016137ba565b91505092915050565b600080604083850312156138485761384761342c565b5b600083013567ffffffffffffffff81111561386657613865613431565b5b613872858286016137ba565b925050602083013567ffffffffffffffff81111561389357613892613431565b5b61389f858286016137ba565b9150509250929050565b600080604083850312156138c0576138bf61342c565b5b60006138ce8582860161347f565b925050602083013567ffffffffffffffff8111156138ef576138ee613431565b5b6138fb858286016137ba565b9150509250929050565b60008060006060848603121561391e5761391d61342c565b5b600061392c8682870161347f565b935050602084013567ffffffffffffffff81111561394d5761394c613431565b5b613959868287016137ba565b925050604084013567ffffffffffffffff81111561397a57613979613431565b5b613986868287016137ba565b9150509250925092565b7f4e487b7100000000000000000000000000000000000000000000000000000000600052602260045260246000fd5b600060028204905060018216806139d757607f821691505b6020821081036139ea576139e9613990565b5b50919050565b7f436f6e74726163743a204164647265737320616c72656164792072656769737460008201527f657265642061732070617469656e740000000000000000000000000000000000602082015250565b6000613a4c602f836134cc565b9150613a57826139f0565b604082019050919050565b60006020820190508181036000830152613a7b81613a3f565b9050919050565b7f436f6e74726163743a20456d7074792068617368206973206e6f7420616c6c6f60008201527f7765640000000000000000000000000000000000000000000000000000000000602082015250565b6000613ade6023836134cc565b9150613ae982613a82565b604082019050919050565b60006020820190508181036000830152613b0d81613ad1565b9050919050565b7f4e6f7420416c6c6f776564000000000000000000000000000000000000000000600082015250565b6000613b4a600b836134cc565b9150613b5582613b14565b602082019050919050565b60006020820190508181036000830152613b7981613b3d565b9050919050565b60008190508160005260206000209050919050565b60006020601f8301049050919050565b600082821b905092915050565b600060088302613be27fffffffffffffffffffffffffffffffffffffffffffffffffffffffffffffffff82613ba5565b613bec8683613ba5565b95508019841693508086168417925050509392505050565b6000819050919050565b6000819050919050565b6000613c33613c2e613c2984613c04565b613c0e565b613c04565b9050919050565b6000819050919050565b613c4d83613c18565b613c61613c5982613c3a565b848454613bb2565b825550505050565b600090565b613c76613c69565b613c81818484613c44565b505050565b5b81811015613ca557613c9a600082613c6e565b600181019050613c87565b5050565b601f821115613cea57613cbb81613b80565b613cc484613b95565b81016020851015613cd3578190505b613ce7613cdf85613b95565b830182613c86565b50505b505050565b600082821c905092915050565b6000613d0d60001984600802613cef565b1980831691505092915050565b6000613d268383613cfc565b9150826002028217905092915050565b613d3f826134c1565b67ffffffffffffffff811115613d5857613d576136bd565b5b613d6282546139bf565b613d6d828285613ca9565b600060209050601f831160018114613da05760008415613d8e578287015190505b613d988582613d1a565b865550613e00565b601f198416613dae86613b80565b60005b82811015613dd657848901518255600182019150602085019450602081019050613db1565b86831015613df35784890151613def601f891682613cfc565b8355505b6001600288020188555050505b505050505050565b7f436f6e74726163743a20446f63746f72206e6f74207265676973746572656400600082015250565b6000613e3e601f836134cc565b9150613e4982613e08565b602082019050919050565b60006020820190508181036000830152613e6d81613e31565b9050919050565b7f436f6e747261637420616c726561647920696e697469616c697a656421000000600082015250565b6000613eaa601d836134cc565b9150613eb582613e74565b602082019050919050565b60006020820190508181036000830152613ed981613e9d565b9050919050565b7f436f6e74726163743a20456d7074792068617368206973206e6f7420616c6c6f60008201527f7765642100000000000000000000000000000000000000000000000000000000602082015250565b6000613f3c6024836134cc565b9150613f4782613ee0565b604082019050919050565b60006020820190508181036000830152613f6b81613f2f565b9050919050565b7f436f6e74726163743a204164647265737320616c72656164792072656769737460008201527f6572656420617320646f63746f72000000000000000000000000000000000000602082015250565b6000613fce602e836134cc565b9150613fd982613f72565b604082019050919050565b60006020820190508181036000830152613ffd81613fc1565b9050919050565b7f436f6e74726163743a20456d707479207075626c6963206b6579206973206e6f60008201527f7420616c6c6f7765642100000000000000000000000000000000000000000000602082015250565b6000614060602a836134cc565b915061406b82614004565b604082019050919050565b6000602082019050818103600083015261408f81614053565b9050919050565b7f526f6c65733a206163636f756e7420697320746865207a65726f20616464726560008201527f7373000000000000000000000000000000000000000000000000000000000000602082015250565b60006140f26022836134cc565b91506140fd82614096565b604082019050919050565b60006020820190508181036000830152614121816140e5565b9050919050565b7f4e487b7100000000000000000000000000000000000000000000000000000000600052601160045260246000fd5b600061416282613c04565b915061416d83613c04565b925082820390508181111561418557614184614128565b5b92915050565b7f4e487b7100000000000000000000000000000000000000000000000000000000600052603260045260246000fd5b7f4e487b7100000000000000000000000000000000000000000000000000000000600052603160045260246000fd5b7f526f6c65733a206163636f756e7420616c72656164792068617320726f6c6500600082015250565b600061421f601f836134cc565b915061422a826141e9565b602082019050919050565b6000602082019050818103600083015261424e81614212565b9050919050565b600061426082613c04565b91507fffffffffffffffffffffffffffffffffffffffffffffffffffffffffffffffff820361429257614291614128565b5b600182019050919050565b7f526f6c65733a206163636f756e7420646f6573206e6f74206861766520726f6c60008201527f6500000000000000000000000000000000000000000000000000000000000000602082015250565b60006142f96021836134cc565b91506143048261429d565b604082019050919050565b60006020820190508181036000830152614328816142ec565b905091905056fea2646970667358221220dd8f0b37258b20166796d6d889fc491bbc6dcc696858ffa5fe47968b25f9a55164736f6c63430008110033",
  "devdoc": {
    "kind": "dev",
    "methods": {
      "constructor": {
        "custom:oz-upgrades-unsafe-allow": "constructor"
      }
    },
    "version": 1
  },
  "userdoc": {
    "kind": "user",
    "methods": {},
    "version": 1
  },
  "storageLayout": {
    "storage": [
      {
        "astId": 93,
        "contract": "contracts/Contract.sol:Contract",
        "label": "_initialized",
        "offset": 0,
        "slot": "0",
        "type": "t_uint8"
      },
      {
        "astId": 96,
        "contract": "contracts/Contract.sol:Contract",
        "label": "_initializing",
        "offset": 1,
        "slot": "0",
        "type": "t_bool"
      },
      {
        "astId": 580,
        "contract": "contracts/Contract.sol:Contract",
        "label": "__gap",
        "offset": 0,
        "slot": "1",
        "type": "t_array(t_uint256)50_storage"
      },
      {
        "astId": 85,
        "contract": "contracts/Contract.sol:Contract",
        "label": "__gap",
        "offset": 0,
        "slot": "51",
        "type": "t_array(t_uint256)50_storage"
      },
      {
        "astId": 2887,
        "contract": "contracts/Contract.sol:Contract",
        "label": "admin",
        "offset": 0,
        "slot": "101",
        "type": "t_struct(Admin)2862_storage"
      },
      {
        "astId": 2890,
        "contract": "contracts/Contract.sol:Contract",
        "label": "doctors",
        "offset": 0,
        "slot": "106",
        "type": "t_struct(Doctors)2884_storage"
      },
      {
        "astId": 2893,
        "contract": "contracts/Contract.sol:Contract",
        "label": "patients",
        "offset": 0,
        "slot": "112",
        "type": "t_struct(Patients)2871_storage"
      },
      {
        "astId": 2895,
        "contract": "contracts/Contract.sol:Contract",
        "label": "initialized",
        "offset": 0,
        "slot": "117",
        "type": "t_bool"
      }
    ],
    "types": {
      "t_address": {
        "encoding": "inplace",
        "label": "address",
        "numberOfBytes": "20"
      },
      "t_array(t_address)dyn_storage": {
        "base": "t_address",
        "encoding": "dynamic_array",
        "label": "address[]",
        "numberOfBytes": "32"
      },
      "t_array(t_uint256)50_storage": {
        "base": "t_uint256",
        "encoding": "inplace",
        "label": "uint256[50]",
        "numberOfBytes": "1600"
      },
      "t_bool": {
        "encoding": "inplace",
        "label": "bool",
        "numberOfBytes": "1"
      },
      "t_mapping(t_address,t_bool)": {
        "encoding": "mapping",
        "key": "t_address",
        "label": "mapping(address => bool)",
        "numberOfBytes": "32",
        "value": "t_bool"
      },
      "t_mapping(t_address,t_string_storage)": {
        "encoding": "mapping",
        "key": "t_address",
        "label": "mapping(address => string)",
        "numberOfBytes": "32",
        "value": "t_string_storage"
      },
      "t_mapping(t_address,t_struct(Map)2321_storage)": {
        "encoding": "mapping",
        "key": "t_address",
        "label": "mapping(address => struct AddToBoolMapping.Map)",
        "numberOfBytes": "32",
        "value": "t_struct(Map)2321_storage"
      },
      "t_mapping(t_address,t_struct(MedicalRecord)2854_storage)": {
        "encoding": "mapping",
        "key": "t_address",
        "label": "mapping(address => struct Contract.MedicalRecord)",
        "numberOfBytes": "32",
        "value": "t_struct(MedicalRecord)2854_storage"
      },
      "t_mapping(t_address,t_uint256)": {
        "encoding": "mapping",
        "key": "t_address",
        "label": "mapping(address => uint256)",
        "numberOfBytes": "32",
        "value": "t_uint256"
      },
      "t_string_storage": {
        "encoding": "bytes",
        "label": "string",
        "numberOfBytes": "32"
      },
      "t_struct(Admin)2862_storage": {
        "encoding": "inplace",
        "label": "struct Contract.Admin",
        "members": [
          {
            "astId": 2856,
            "contract": "contracts/Contract.sol:Contract",
            "label": "user",
            "offset": 0,
            "slot": "0",
            "type": "t_address"
          },
          {
            "astId": 2858,
            "contract": "contracts/Contract.sol:Contract",
            "label": "public_key",
            "offset": 0,
            "slot": "1",
            "type": "t_string_storage"
          },
          {
            "astId": 2861,
            "contract": "contracts/Contract.sol:Contract",
            "label": "pending_doctors",
            "offset": 0,
            "slot": "2",
            "type": "t_struct(Map)2321_storage"
          }
        ],
        "numberOfBytes": "160"
      },
      "t_struct(Doctors)2884_storage": {
        "encoding": "inplace",
        "label": "struct Contract.Doctors",
        "members": [
          {
            "astId": 2874,
            "contract": "contracts/Contract.sol:Contract",
            "label": "users",
            "offset": 0,
            "slot": "0",
            "type": "t_struct(Role)3842_storage"
          },
          {
            "astId": 2878,
            "contract": "contracts/Contract.sol:Contract",
            "label": "public_keys",
            "offset": 0,
            "slot": "4",
            "type": "t_mapping(t_address,t_string_storage)"
          },
          {
            "astId": 2883,
            "contract": "contracts/Contract.sol:Contract",
            "label": "docToPatAccess",
            "offset": 0,
            "slot": "5",
            "type": "t_mapping(t_address,t_struct(Map)2321_storage)"
          }
        ],
        "numberOfBytes": "192"
      },
      "t_struct(Map)2321_storage": {
        "encoding": "inplace",
        "label": "struct AddToBoolMapping.Map",
        "members": [
          {
            "astId": 2312,
            "contract": "contracts/Contract.sol:Contract",
            "label": "keys",
            "offset": 0,
            "slot": "0",
            "type": "t_array(t_address)dyn_storage"
          },
          {
            "astId": 2316,
            "contract": "contracts/Contract.sol:Contract",
            "label": "values",
            "offset": 0,
            "slot": "1",
            "type": "t_mapping(t_address,t_bool)"
          },
          {
            "astId": 2320,
            "contract": "contracts/Contract.sol:Contract",
            "label": "indexOf",
            "offset": 0,
            "slot": "2",
            "type": "t_mapping(t_address,t_uint256)"
          }
        ],
        "numberOfBytes": "96"
      },
      "t_struct(Map)2512_storage": {
        "encoding": "inplace",
        "label": "struct AddToStrMapping.Map",
        "members": [
          {
            "astId": 2499,
            "contract": "contracts/Contract.sol:Contract",
            "label": "keys",
            "offset": 0,
            "slot": "0",
            "type": "t_array(t_address)dyn_storage"
          },
          {
            "astId": 2503,
            "contract": "contracts/Contract.sol:Contract",
            "label": "values",
            "offset": 0,
            "slot": "1",
            "type": "t_mapping(t_address,t_string_storage)"
          },
          {
            "astId": 2507,
            "contract": "contracts/Contract.sol:Contract",
            "label": "indexOf",
            "offset": 0,
            "slot": "2",
            "type": "t_mapping(t_address,t_uint256)"
          },
          {
            "astId": 2511,
            "contract": "contracts/Contract.sol:Contract",
            "label": "inserted",
            "offset": 0,
            "slot": "3",
            "type": "t_mapping(t_address,t_bool)"
          }
        ],
        "numberOfBytes": "128"
      },
      "t_struct(MedicalRecord)2854_storage": {
        "encoding": "inplace",
        "label": "struct Contract.MedicalRecord",
        "members": [
          {
            "astId": 2848,
            "contract": "contracts/Contract.sol:Contract",
            "label": "editor",
            "offset": 0,
            "slot": "0",
            "type": "t_address"
          },
          {
            "astId": 2851,
            "contract": "contracts/Contract.sol:Contract",
            "label": "viewers",
            "offset": 0,
            "slot": "1",
            "type": "t_array(t_address)dyn_storage"
          },
          {
            "astId": 2853,
            "contract": "contracts/Contract.sol:Contract",
            "label": "key_data_hash",
            "offset": 0,
            "slot": "2",
            "type": "t_string_storage"
          }
        ],
        "numberOfBytes": "96"
      },
      "t_struct(Patients)2871_storage": {
        "encoding": "inplace",
        "label": "struct Contract.Patients",
        "members": [
          {
            "astId": 2865,
            "contract": "contracts/Contract.sol:Contract",
            "label": "users",
            "offset": 0,
            "slot": "0",
            "type": "t_struct(Role)3842_storage"
          },
          {
            "astId": 2870,
            "contract": "contracts/Contract.sol:Contract",
            "label": "records",
            "offset": 0,
            "slot": "4",
            "type": "t_mapping(t_address,t_struct(MedicalRecord)2854_storage)"
          }
        ],
        "numberOfBytes": "160"
      },
      "t_struct(Role)3842_storage": {
        "encoding": "inplace",
        "label": "struct Roles.Role",
        "members": [
          {
            "astId": 3841,
            "contract": "contracts/Contract.sol:Contract",
            "label": "bearer",
            "offset": 0,
            "slot": "0",
            "type": "t_struct(Map)2512_storage"
          }
        ],
        "numberOfBytes": "128"
      },
      "t_uint256": {
        "encoding": "inplace",
        "label": "uint256",
        "numberOfBytes": "32"
      },
      "t_uint8": {
        "encoding": "inplace",
        "label": "uint8",
        "numberOfBytes": "1"
      }
    }
  }
}